:1000000000800020BD010000199600001996000034
:10001000199600001996000019960000E595000059
:10002000E5950000E5950000E595000019960000B3
:1000300019960000E595000019960000D59500007E
:1000400019960000199600001996000019960000F4
:1000500019960000199600001996000019960000E4
:1000600019960000199600001996000019960000D4
:1000700019960000199600001996000019960000C4
:1000800019960000199600001996000019960000B4
:1000900019960000A57F000019960000199600002F
:1000A000C57000001996000019960000199600000E
:1000B0001996000019960000199600001996000084
:1000C0001996000019960000199600001996000074
:1000D0001996000019960000199600001996000064
:1000E0001996000019960000199600001996000054
:1000F00019960000158C000019960000B1AE0000A2
:10010000199600007D8700001996000019960000DE
:100110001996000019960000199600001996000023
:100120001996000019960000199600001996000013
:100130001996000019960000199600001996000003
:1001400019960000199600001996000019960000F3
:10015000D9A50000F1A5000009A6000021A6000015
:1001600019960000918E0000199600001996000063
:1001700019960000199600001996000019960000C3
:1001800019960000199600001996000019960000B3
:10019000199600001996000019960000FD970000BE
:1001A0004D980000D598000091990000159A000024
:1001B000199600001996000019960000544B4CF255
:1001C000205210B51A804DF628121A8000BF00BFC9
:1001D00007F02CFF4F4B4FF010621A604E4A9A60A6
:1001E0004E4ADA604E4B1A6812F4807204D14D49BF
:1001F0000A604FF4A8521A604B4B1A7802F00802BA
:10020000D2B21AB11A7842F008021A70474B484825
:10021000484C2A221A700023474A02E01959995083
:10022000043399188142F9D3444B454A002101E037
:1002300043F8041B9342FBD34249434800231A5816
:100240005A500433B3F5DE7FF9D1404B404A802148
:1002500003F8011B9342FBD13A4A3E4B1A603E4BD6
:100260000A221A703D4B24221A70A02203F8012C96
:100270003B4A137803F00203DBB2002BF9D0384A73
:10028000137803F01003DBB2002BF9D1344A137852
:1002900003F00C03082BFAD1324B03221A704022D0
:1002A0005A702F4A137803F02003DBB2002BF9D0E9
:1002B0002B4A137803F04003DBB2002BF9D02A4B12
:1002C0002A4A1A6002225A60294B20221A70244AB4
:1002D000137803F00C030C2BFAD1264A264B1A6034
:1002E000264B274A1A60072243F8042C62B609F00D
:1002F00067FD0C4B1B68DC0702D5224809F0A2FB06
:100300000BF0EAFF09F08BF909F0B6FFFEE700BF3A
:100310000E20054030800440823F04000100002B85
:1003200010D0034014D0034002D0074000E0074043
:100330005490FF1FCC0C01006089FF1F5490FF1FD9
:10034000DC9CFF1F0084FF1F0000000000E400E0B1
:100350005FE400E008ED00E0005006400140064088
:10036000064006400440064044800440000003016B
:1003700000400640C01005000480044014E000E086
:10038000FF760100D0EDEE54FFFFFFFFFFFFFFFF00
:10039000FFFFFFFFFFFFFFFFFFFFFFFFFFFFFFFF6D
:1003A000FFFFFFFFFFFFFFFFFFFFFFFFFFFFFFFF5D
:1003B000FFFFFFFFFFFFFFFFFFFFFFFFFFFFFFFF4D
:1003C000FFFFFFFFFFFFFFFFFFFFFFFFFFFFFFFF3D
:1003D000FFFFFFFFFFFFFFFFFFFFFFFFFFFFFFFF2D
:1003E000FFFFFFFFFFFFFFFFFFFFFFFFFFFFFFFF1D
:1003F000FFFFFFFFFFFFFFFFFFFFFFFFFFFFFFFF0D
:10040000FFFFFFFFFFFFFFFFFFFFFFFFFEFFFFFFFD
:1004100008B549F25400074BC1F6FF701B1A062BB2
:1004200000D808BD40F20003C0F20003002BF8D052
:100430009847F6E75790FF1F08B549F2540049F274
:100440005403C1F6FF70C1F6FF731B1A9B1003EB38
:10045000D373591000D108BD40F20002C0F200026F
:10046000002AF8D09047F6E710B549F25404C1F6D7
:10047000FF74237873B9FFF7CBFF40F20003C0F29B
:1004800000032BB140F6CC40C0F20100AFF3008076
:100490000123237010BD00BF08B540F20003C0F275
:1004A00000034BB140F6CC4049F25801C0F20100C4
:1004B000C1F6FF71AFF3008049F25400C1F6FF703E
:1004C00003682BB140F20003C0F2000303B1984768
:1004D000BDE80840B0E700BF024B4FF400121A60BD
:1004E000704700BF80E100E010B504460AF032F921
:1004F000204610BD70B503460D46164607481946FE
:100500002A4607F05BF8002404E0044806F0BEFC2D
:1005100030550134E3B2AB42F7D370BDE495FF1F11
:10052000034670B509480D4619461646002406F0E4
:1005300047FF03E0315D06F067FC0134E3B2AB42F4
:100540000248F7D3BDE8704007F04FB8E495FF1FAD
:10055000064B10221A60064B1A78064B53F83220CD
:10056000012382F88030044A13607047C8F00F40BE
:10057000D095FF1F58070100F490FF1F054B1A7814
:10058000054B53F83220012382F80031034A1360EF
:10059000704700BFD095FF1F58070100A494FF1FAC
:1005A00038B50A480A4D06F0B7F80A4B04461868F1
:1005B0000BF0D6FB014620460BF0DAFC014628681A
:1005C0000BF01AFB2860204638BD00BFD493FF1FF4
:1005D0003892FF1F7889FF1F38B50A480A4D06F088
:1005E00037F80A4B044618680BF0BAFB0146204660
:1005F0000BF0BEFC014628680BF0FEFA286020468E
:1006000038BD00BFD493FF1F1094FF1F7889FF1FD0
:1006100030B5ADF5B05D81B0684600214FF4B05201
:100620000CF082FA00246D4621462A5D054801340B
:1006300005F0A1FFB4F5B05FF6D10DF5017D0DF524
:10064000A05D30BDD895FF1F38B5044608460D465D
:1006500008F0EAF8236802465B6820462946984776
:1006600038BD08B5FFF7F0FF08BD0AF0CBB99DF81B
:10067000001000910AF0D0B938B504460AF05AF9D2
:10068000054620460AF078F9401938BD38B50446C9
:10069000FFF7DAFF054620460AF06EF9281838BD44
:1006A00038B504460AF0AEF9054620460AF064F96A
:1006B000281838BD37B59DF81810009104460AF087
:1006C000ABF9054620460AF057F928183EBD4068A8
:1006D00000B1C0687047FFFF10B517491748184CA4
:1006E000FFF7BFFF17481449FFF7BBFF236863B943
:1006F00015491248FFF7CAFF12481349FFF7C6FF12
:10070000124B02221A6001230DE0012B0CD110497B
:100710000A48FFF7BBFF0B480D49FFF7B7FF0D4B2A
:1007200002221A600023236004480AF025F90548D4
:10073000BDE810400AF020B9E4FB0000009BFF1F59
:10074000C895FF1FC49AFF1FF9FB000084F00F40FB
:1007500000FC000088F00F402DE9F74F002140F623
:10076000FF724D4806F044FB4C4A042320241360DA
:100770002246013AFDD14A4A4A4F1360112009F03E
:1007800031FC494B494E1C6005460A2009F002FB2A
:10079000112009F027FC83466E2009F0FBFA112096
:1007A00009F020FC424BDFF818911C60414C824656
:1007B00021463846FFF755FF21463046FFF751FFE7
:1007C00028460BF0CDFA3C490BF0D2FB0AF088FE2C
:1007D0004FF0020804460D460B462246CDF8008035
:1007E0003846FFF744FF22462B46CDF800803046BE
:1007F000FFF73DFF49463846FFF733FF494630468D
:10080000FFF72FFF58460BF0ABFA2B490BF0B0FB6C
:100810000AF066FE04460D460B462246CDF80080DF
:100820003846FFF724FF22462B46CDF8008030469D
:10083000FFF71DFF49463846FFF713FF494630468C
:10084000FFF70FFF50460BF08BFA1B490BF090FBA4
:100850000AF046FE04460B462246CDF80080384694
:100860000D46FFF704FF2246144CCDF800802B46BE
:100870003046FFF7FCFE21463846FFF707FF2146CA
:100880003046FFF703FF38460AF076F8304603B0EB
:10089000BDE8F04F0AF070B8A492FF1F88F00F4037
:1008A00084F00F40009BFF1FC4F00F40C49AFF1F4D
:1008B000C8F00F4006FC00000060134517FC000064
:1008C0002D0401002DE9F34707460E460AA8002132
:1008D000144698460C9D05F0A6FF002840F3EA80D8
:1008E00075497648FFF7BDFE294674480AF022F89C
:1008F00073497248FFF7B5FE6F497248FFF7B1FEC2
:10090000294670480AF016F86D496E48FFF7A9FEAF
:10091000204600210BF00CFC002840F0BA80204655
:100920000AF0DEFD022704460D460B4622460097DC
:100930006248FFF79CFE0097624822462B46FFF76D
:1009400096FE306800210BF0F3FB002840F0AA80EF
:100950005D495A48FFF785FE40460AF0C1FD04464E
:1009600022460B46009755480D46FFF780FE564934
:100970005448FFF776FE009722462B465148FFF772
:1009800076FE8FE051494D48FFF76BFE21460AA8DD
:1009900005F049FF014649480AF034F84A494748FA
:1009A000FFF75FFE49494748FFF75BFE21460AA86B
:1009B00005F039FF014643480AF024F8414842490E
:1009C000FFF74FFE00254FE021460AA858F825A062
:1009D00005F029FF0BF0C4F9014650464FEA85099E
:1009E0000BF0A6FB00283ED057F809000AF078FD6E
:1009F000022502460B4600953048FFF738FE57F8AF
:100A000009000AF06DFD009502460B462D48FFF7E0
:100A10002EFE306800210BF08BFBD8B92A492748FD
:100A2000FFF71FFE56F809000AF05AFD009502462E
:100A30000B462248FFF71BFE23492248FFF711FE11
:100A400056F809000AF04CFD009502460B461D4879
:100A5000FFF70DFE1E491948FFF703FE1C49194810
:100A6000FFF7FFFD02E001351A2DADD1012009F09D
:100A700091F90AA8FFF72BFE0138844207D01249EA
:100A80000E48FFF7EEFD0F480F49FFF7EAFD01346E
:100A900002E0DFF8448000240AA8FFF718FE844231
:100AA000FFF670AF0B490548FFF7DBFD0548094924
:100AB000FFF7D7FDBDE8FC8770FF0000009BFF1F1C
:100AC00027FC0000C49AFF1F2D0401002AFC00002F
:100AD00073050100920501008889FF1F10B52820C9
:100AE000002109F043F828210A2200230A4809F0CE
:100AF00051FF094809F040FF6424282009F072FAE8
:100B000001460548FFF7CCFD4FF4FA6009F042F9C1
:100B1000013CF2D110BD00BF009BFF1F012801D88E
:100B2000FFF73EBD7047012801D8FFF755BD70475C
:100B300001282DE9F8438CBF002401240CB90328B7
:100B40003DD1204806F022F905461E4806F017F967
:100B500080461C4806F00CF907461A4806F001F9D1
:100B600081464CB3184B194E1C68B5FBF4F00BF0E2
:100B7000F3F8014630680BF03FF83060B8FBF4F052
:100B80000BF0EAF8124E014630680BF035F8306091
:100B9000B7FBF4F00BF0E0F80E4E014630680BF0B6
:100BA0002BF83060B9FBF4F00BF0D6F80A4E014692
:100BB00030680BF021F830602846BDE8F883BDE8C6
:100BC000F88300BFD893FF1F7889FF1FB094FF1FE1
:100BD000BC94FF1F0C94FF1F2494FF1F2DE9F74FB7
:100BE0002A4DDFF8B4B0DFF8B4A0294EDFF8B0909A
:100BF000DFF8B080274C59462846FFF732FDDAF877
:100C000000000AF06DFC022702460B4600972846BA
:100C1000FFF72DFD31462846FFF723FD49462846BC
:100C2000FFF71FFDD8F800000AF05AFC00970246B3
:100C30000B462846FFF71BFD59462046FFF711FDDE
:100C4000DAF800000AF04CFC009702460B462046FA
:100C5000FFF70DFD31462046FFF703FD49462046CC
:100C6000FFF7FFFCD8F800000AF03AFC00970246B4
:100C70000B462046FFF7FBFC31462846FFF7F1FC08
:100C800020463146FFF7EDFCBDE8FE8F009BFF1FBD
:100C90002D040100C49AFF1F8CFC0000F489FF1F83
:100CA0009BFC0000CC95FF1F2DE9F0410D46ADF5F2
:100CB0007E7D04462848DFF8AC80164609F086FDA4
:100CC0002946264809F082FD4FF47A72002104A8D3
:100CD0000BF02AFF2046002109F017FB204B1A6871
:100CE0000192019D1A680292029A1F4607E03B6832
:100CF0000393039AD8F80030521B9A4205DC07F0A0
:100D000005FB10B907F02EFFE8B107F0FFFA002845
:100D100005DD07F0DDFA5B2818D00F4808E007F082
:100D200021FF002812DD07F043FF5B280ED00B489F
:100D30002B2104AA4FF47A7309F04AFD204604A936
:100D400009F01BFB02E0012ED9D1D0E720460DF5BA
:100D50007E7DBDE8F08100BF009BFF1FC49AFF1F8E
:100D6000B89AFF1F8489FF1FF0B5044691B022484E
:100D7000214609F02BFD2148214609F027FD2022BC
:100D8000002108A80BF0D0FE04A8002109F0BDFA4C
:100D90001B4B1A680192019E1A680292029A1F4622
:100DA00007F0B4FA10B907F0DDFEC0B107F0DAFEC3
:100DB000002801DD114804E007F0A8FA002815DD3D
:100DC0000D4808AA20232B2109F002FD08A904A838
:100DD00009F0D3FA04980BF02DFA054606E03B68BB
:100DE0000393039B9B1BA342DADDDFE704A809F012
:100DF0004BFA284611B0F0BD009BFF1FC49AFF1F9D
:100E0000B89AFF1F2DE9F041064690B024483146BC
:100E100009F0DCFC2348314609F0D8FC20220021EF
:100E200008A80BF081FE04A8002109F06EFA1E4B01
:100E30001A680192019F1A680292029A984607F076
:100E400065FA10B907F08EFEC8B107F05FFA002806
:100E500001DD134804E007F085FE002817DD114886
:100E600008AA20232B2109F0B3FC08A904A809F043
:100E700084FA04980BF0DAF904460D4607E0D8F836
:100E800000300393039BDB1BB342D8DDDDE704A8EE
:100E900009F0FAF92046294610B0BDE8F08100BFFC
:100EA000009BFF1FC49AFF1FB89AFF1F08B5064B8F
:100EB00019680AF09FFE054B19680BF059F80BF002
:100EC00069F90AF04DFF08BDCC95FF1FF489FF1F9B
:100ED0002DE9F041314D06468846002430460AF09F
:100EE0003FFF014655F824000BF022F9002830D0CE
:100EF0002B4B53F824602B4B53F824702A4B53F898
:100F000024502A4B304653F824100AF073FE314621
:100F10000BF02EF8014628460AF076FF01462846D7
:100F20000AF06AFE224B53F82460224B054653F820
:100F3000241038460AF05EFE39460BF019F80146D7
:100F400030460AF061FF014630460AF055FE04467D
:100F500004E001341A2CC1D100242546204600218A
:100F600001270BF0E5F800B10027FFB247B928468A
:100F7000002101260BF0DCF800B13E46F0B250B182
:100F800040460AF0EDFE21460AF034FE29460AF0FA
:100F9000EFFF0BF025F9BDE8F08100BF8889FF1F46
:100FA0002C94FF1F7490FF1FD892FF1F3C92FF1FCD
:100FB0004093FF1FC894FF1F73B50D460446334985
:100FC00033481646FFF74DFB2146314809F0B2FC85
:100FD00030492F48FFF745FB2C492F48FFF741FBCD
:100FE00021462D4809F0A6FC2A492B48FFF739FB7A
:100FF00028680AF075FA022402460B460094244839
:10100000FFF735FB28680AF06BFA009402460B469E
:101010002148FFF72CFB21491D48FFF722FB1F4900
:101020001D48FFF71EFB68680AF05AFA0094024652
:101030000B461748FFF71BFB68680AF051FA00944B
:1010400002460B461448FFF712FB15491048FFF7FC
:1010500008FB11481249FFF704FB012E0C4805D08C
:101060000E49FFF713FB0C480C490CE00D49FFF744
:101070000DFB0D490648FFF709FB0A490648FFF733
:1010800005FB05480849FFF701FB7CBD70FF000028
:10109000009BFF1FF9FC0000C49AFF1F2D040100F4
:1010A00073050100FEFB0000C8FD0000F7B5044613
:1010B0000D462E482E491746FFF7D3FA21462B48F6
:1010C00009F038FC2B492948FFF7CBFA28492A4870
:1010D000FFF7C7FA2146284809F02CFC2648254985
:1010E000FFF7BFFA0024022628680AF0F9F90096F3
:1010F00002460B461D48FFF7BAFA55F8040B0AF0F2
:10110000EFF9009602460B461B48FFF7B0FA192C80
:1011100007D01A491548FFF7A4FA17481749FFF7EF
:10112000A0FA01341A2CDFD115491048FFF799FABB
:1011300011481349FFF795FA012F0C4805D00F49C4
:10114000FFF7A4FA0C480D490CE00E49FFF79EFA90
:101150000D490648FFF79AFA0A490748FFF796FA39
:1011600005480949FFF792FAFEBD00BF009BFF1F2B
:1011700070FF0000F9FC0000C49AFF1F2D0401005D
:1011800073050100FEFB0000C8FD000010B50AF069
:10119000E7FD0B4B196804460AF036FE094B196847
:1011A0000AF02AFD084B1860084B204619680AF01F
:1011B0002BFE074B19680AF01FFD064B186010BD87
:1011C000F493FF1FF890FF1FA894FF1FF893FF1FD1
:1011D000FC90FF1FAC94FF1F2DE9F743054638B97B
:1011E00053495448FFF73DFA53485149FFF739FA3C
:1011F000DFF8689151494F48DFF86481504F514EF4
:10120000FFF72FFAD9F800000AF06AF90224024623
:101210000B4600944748FFF72AFA4B494548FFF729
:1012200020FA4A494348FFF71CFAD8F800000AF0B0
:1012300057F9009402460B463E48FFF718FA424918
:101240003C48FFF70EFA42493A48FFF70AFA386875
:101250000AF046F9009402460B463648FFF707FAB3
:1012600039493448FFF7FDF93A493248FFF7F9F9AF
:1012700030680AF035F9009402460B462D48FFF716
:10128000F6F92E492C48FFF7ECF9D9F800000AF0DE
:1012900027F9009402460B462748FFF7E8F92A4948
:1012A0002548FFF7DEF929492348FFF7DAF9D8F88E
:1012B00000000AF015F9009402460B461E48FFF79D
:1012C000D6F921491C48FFF7CCF921491A48FFF704
:1012D000C8F938680AF004F9009402460B4616482B
:1012E000FFF7C5F918491448FFF7BBF91949124827
:1012F000FFF7B7F930680AF0F3F8009402460B469E
:101300000D48FFF7B4F9012D0A4807D10E49FFF740
:10131000A8F90D490848FFF7A4F906E00E49FFF7C0
:10132000B5F905480C49FFF7B1F9BDE8FE8300BFE8
:10133000B0FC0000009BFF1FC49AFF1FB2FC00001E
:10134000F893FF1FFC90FF1F2D040100BEFC00005E
:10135000CFFC0000DBFC0000FEFB0000F493FF1F4D
:10136000F890FF1F01282DE9F341884616461D46D7
:101370003DD1A64FA649A748FFF773F938680AF090
:10138000AFF8022402460B460094A248FFF76FF91B
:10139000A149A048FFF765F978680AF0A1F8009420
:1013A00002460B469B48FFF762F99C499948FFF7B4
:1013B00058F997499A48FFF754F938680AF090F8B5
:1013C000009402460B469648FFF751F9924994481B
:1013D000FFF747F978680AF083F8009402460B4655
:1013E0008F48FFF744F98E488C49FFF73AF9B8F176
:1013F000010F3DD18B4F8C498648FFF732F9386891
:101400000AF06EF8022402460B4600948148FFF76A
:101410002EF981497F48FFF724F978680AF060F8CF
:10142000009402460B467B48FFF721F97B49794837
:10143000FFF717F97C497A48FFF713F938680AF083
:101440004FF8009402460B467548FFF710F97249B1
:101450007348FFF706F978680AF042F800940246EC
:101460000B466F48FFF703F96D486C49FFF7F9F831
:10147000012E3DD16D4E6E496648FFF7F2F8306897
:101480000AF02EF8022402460B4600946148FFF74A
:10149000EEF861495F48FFF7E4F870680AF020F859
:1014A000009402460B465B48FFF7E1F85B49594858
:1014B000FFF7D7F85E495A48FFF7D3F830680AF0CB
:1014C0000FF8009402460B465548FFF7D0F85249F2
:1014D0005348FFF7C6F870680AF002F80094024615
:1014E0000B464F48FFF7C3F84D484C49FFF7B9F892
:1014F000012D3DD14F4D50494648FFF7B2F82868BD
:1015000009F0EEFF022402460B4600944148FFF723
:10151000AEF841493F48FFF7A4F8686809F0E0FFDA
:10152000009402460B463B48FFF7A1F83B49394877
:10153000FFF797F840493A48FFF793F8286809F011
:10154000CFFF009402460B463548FFF790F832492A
:101550003348FFF786F8686809F0C2FF0094024636
:101560000B462F48FFF783F82D482C49FFF779F8F1
:10157000089B012B3DD1314D31492648FFF771F8C9
:10158000286809F0ADFF022402460B46009421486A
:10159000FFF76DF820491F48FFF763F8686809F006
:1015A0009FFF009402460B461A48FFF760F81B495C
:1015B0001848FFF756F822491948FFF752F82868EB
:1015C00009F08EFF009402460B461548FFF74FF8CE
:1015D00011491348FFF745F8686809F081FF009446
:1015E00002460B460E48FFF742F80D480B49FFF73D
:1015F00038F8099B012B5ED1124D13490548FFF7BE
:1016000030F8286809F06CFF02241FE0C094FF1F27
:10161000ECFC0000009BFF1F2D040100920501005F
:10162000C49AFF1F9494FF1FFDFC00003095FF1F1C
:101630000EFD00009C94FF1F1FFD00004095FF1F42
:1016400030FD00004895FF1F41FD000002460B469B
:1016500000943A48FFF70BF839493848FFF701F88A
:10166000686809F03DFF009402460B463348FEF7D8
:10167000FEFF34493148FEF7F4FF33493348FEF7A3
:10168000F0FF286809F02CFF009402460B462F4813
:10169000FEF7EDFF2A492D48FEF7E3FF686809F0E1
:1016A0001FFF009402460B462848FEF7E0FF27483C
:1016B0002449FEF7D6FF0A9B012B3DD1244D254935
:1016C0001E48FEF7CEFF286809F00AFF02240246F2
:1016D0000B4600941948FEF7CAFF19491748FEF750
:1016E000C0FF686809F0FCFE009402460B461348F0
:1016F000FEF7BDFF13491148FEF7B3FF1549134824
:10170000FEF7AFFF286809F0EBFE009402460B4697
:101710000E48FEF7ACFF0A490C48FEF7A2FF6868C6
:1017200009F0DEFE009402460B460848FEF79FFFD4
:1017300006480449FEF795FFBDE8FC81009BFF1FAA
:101740002D0401009205010041FD0000C49AFF1F15
:101750005095FF1F52FD00007FB5244B1A6801927F
:10176000019D1A6802920C46029A1E461DE007214E
:101770001F4806F095FF322008F00CFB33680393F6
:10178000039B5B1BA34210DD1A491B48FEF769FF50
:1017900018491A48FEF765FF19491748FEF761FF17
:1017A00017491648FEF75DFF14E006F0A1FF002878
:1017B000DDD00FE001340A2C09DD01E006F0A6FFC0
:1017C00006F096FF0028F9D100240E4D07E03220E4
:1017D00008F0E0FA06F08CFF0628EBDDF4E706F0EF
:1017E00095FF28550134072CF9D17FBDB89AFF1F0A
:1017F0006889FF1F63FD0000009BFF1FC49AFF1F45
:101800002D0401003895FF1F08B5C278007900EB60
:1018100002200AF0A1FA034B19680AF0F5FA0AF05F
:10182000DFFC08BD7089FF1F38B54FF4FA610C4822
:101830000C4DFFF791FF0C48FFF7E6FF04466420CC
:1018400008F0A8FA094B1868B4FBF0F00AF084FA23
:10185000014628680AF0D0F92860204638BD00BF4C
:101860006889FF1FBC93FF1F3895FF1F7889FF1FF2
:10187000012801D8FFF7D8BF7047FFFFFFFFFFFF28
:101880002DE9F74F7C4E304604F0BAFE09F016FE03
:10189000044630460D4604F0ADFE09F00FFE62A38B
:1018A000D3E9002309F070FE0022744B09F096FF83
:1018B0000022724B09F092FF002206460F46204696
:1018C00029466F4B09F060FE59A3D3E9002309F0C4
:1018D000A9FC59A3D3E9002382468B4609F0A0FC5A
:1018E00057A3D3E9002304460D4609F04DFE00221C
:1018F000644B09F097FC54A3D3E900238046894642
:101900002046294609F040FE22462B4609F03CFEBF
:1019100002460B464046494609F084FC5A4B804635
:101920001868894609F0DCFD02460B4640464946E8
:1019300009F02AFE46A3D3E9002309F04FFF002255
:10194000CDE900014D4B3046394609F047FF42A32F
:10195000D3E90023804689462046294609F014FE33
:101960003FA3D3E9002309F05BFC3FA3D3E90023A5
:1019700006460F462046294609F006FE22462B461B
:1019800009F002FE02460B463046394609F04AFC91
:1019900002460B464046494609F042FC5246044680
:1019A0000D465B465046594609F0EEFD52465B46F1
:1019B00009F0EAFD52465B4609F0E6FD2CA3D3E9A7
:1019C000002306460F462046294609F0DDFD224643
:1019D0002B4609F0D9FD02460B462046294609F060
:1019E00021FC1BA3D3E9002304460D46DDE90001D9
:1019F00009F0F4FE02460B462046294609F0EEFEA9
:101A000002460B463046394609F00CFC09F0BEFA96
:101A100009F0BCFA06A3D3E9002309F001FC03B0E6
:101A2000BDE8F08FAFF30080000000000088634045
:101A300066666666661271406666666666A2724093
:101A400079E9263108AC5C3FE446D3D15898F1BE21
:101A500000000000D0126341E43C73414320A3BE68
:101A60004DB1B49D00D4FE3E75466524BDE2333EC3
:101A7000CDCCCCCCCCCC2A40B894FF1F00408F40BA
:101A80000000A03F0000F03F7489FF1FAFF300800B
:101A900070B5FFF7F5FE0AF059F804461E4804F049
:101AA000B7FD4FF47A6008F075F920461B4901260E
:101AB0000AF066FB00B90026F6B24EB92046184976
:101AC00001250AF03FFB00B9354615F0FF0F13D092
:101AD000144B154C154916481C60FEF7C2FD1349FE
:101AE0001448FEF7BEFD14491148FEF7BAFD12492D
:101AF0001048FEF7B6FD0DE0104B0A4D18680AF0CD
:101B00002FF9014620460AF033FA014628680AF008
:101B100073F82860204670BDB894FF1F00007A4417
:101B2000000070C22094FF1F0000C6C281FD0000AB
:101B3000009BFF1FC49AFF1F2D0401007889FF1F1F
:101B4000012801D8FFF7A4BF704708B501E006F0EF
:101B500097FB06F0DBFB0028F9DC01E007F010F84A
:101B600007F000F80028F9DC08BDFFFFF7B54EF6D6
:101B70006020FFF747F904460D46B648B649FEF720
:101B800070FDB549B548FEF76CFD20462946002298
:101B9000002309F061FF002840F03D8202260096F4
:101BA00022462B46AB48FEF762FD22462B460096A6
:101BB000AA48FEF75CFDAA49A648FEF752FDA849CF
:101BC000A648FEF74EFD06F05BFB06F059FBA54B61
:101BD000A04820221A6080221A6008F0CDFEA24997
:101BE0009C48FEF73EFD00219A48FEF759FD9948B2
:101BF0009E49FEF74BFD002640F6FE77B2B200216B
:101C00009B4805F0F5F831469248FEF72EFD9449C1
:101C10009048FEF726FD322008F0BCF8304609F067
:101C20004DFC22462B4609F0FDFA09F047FFB84269
:101C30000646E3DD8F4B874880221A6008F09CFE41
:101C400089498448FEF70DFD01218248FEF728FDF1
:101C500080488949FEF71AFD002640F6FE77B2B2A9
:101C60000121834805F0C4F831467A48FEF7FDFCAF
:101C70007B497848FEF7F5FC322008F08BF83046B7
:101C800009F01CFC22462B4609F0CCFA09F016FF9D
:101C9000B8420646E3DD774B6E4820221A600122E7
:101CA00043F8042C802243F8042C08F065FE6E49AA
:101CB0006848FEF7D6FC00216648FEF7F1FC65484F
:101CC0006E49FEF7E3FC002640F6FE77B2B2002133
:101CD000674805F08DF831465E48FEF7C6FC60495E
:101CE0005C48FEF7BEFC322008F054F8304609F09C
:101CF000E5FB22462B4609F095FA09F0DFFEB842D3
:101D00000646E3DD5B4B534880221A6008F034FE40
:101D100055495048FEF7A5FC01214E48FEF7C0FC8E
:101D20004C485749FEF7B2FC002640F6FE77B2B2A7
:101D300001214F4805F05CF831464648FEF795FC16
:101D400047494448FEF78DFC322008F023F830461E
:101D500009F0B4FB22462B4609F064FA09F0AEFE06
:101D6000B8420646E3DD434B3A48012202261A6098
:101D700043F8046C08F000FE3B493648FEF771FC5E
:101D800031463448FEF78CFC32483E49FEF77EFC73
:101D9000002640F6FE77B2B20221354805F028F859
:101DA00031462C48FEF761FC2D492A48FEF759FCC4
:101DB000322007F0EFFF304609F080FB22462B4629
:101DC00009F030FA09F07AFEB8420646E3DD294B05
:101DD0002048102202261E6043F8442C08F0CCFD57
:101DE00021491C48FEF73DFC31461A48FEF758FCD5
:101DF00018482549FEF74AFC002640F6FE77B2B2A5
:101E000002211B4804F0F4FF31461248FEF72DFC76
:101E100013491048FEF725FC322007F0BBFF30467F
:101E200009F04CFB22462B4609F0FCF909F046FE6E
:101E3000B8420646E3DD154B0648102201261A601B
:101E400043F8046C08F098FD07490248FEF709FCC6
:101E500031461DE0009BFF1FACFD0000C49AFF1F30
:101E60002D040100C4F00F40BAFD0000C9FD0000C0
:101E7000A492FF1FC8F00F40EAFD00000CFE000016
:101E80002DFE00004FFE000063FE000088F00F40B2
:101E90006A48FEF705FC69486949FEF7F7FB00262A
:101EA00040F6FE77B2B20321664804F0A1FF314646
:101EB0006248FEF7DAFB64496048FEF7D2FB322045
:101EC00007F068FF304609F0F9FA22462B4609F080
:101ED000A9F909F0F3FDB8420646E3DD5B4B57482C
:101EE00001261E6043F8446C08F046FD58495348EB
:101EF000FEF7B7FB31465148FEF7D2FB4F48554934
:101F0000FEF7C4FB002640F6FE77B2B203214D482F
:101F100004F06EFF31464948FEF7A7FB4A4947489F
:101F2000FEF79FFB322007F035FF304609F0C6FA76
:101F300022462B4609F076F909F0C0FDB842064664
:101F4000E3DD454B3D48402201261E60DA6308F080
:101F500013FD3F493948FEF784FB31463748FEF709
:101F60009FFB36483D49FEF791FB002640F6FE7781
:101F7000B2B20321334804F03BFF31462F48FEF74D
:101F800074FB31492D48FEF76CFB322007F002FF4D
:101F9000304609F093FA22462B4609F043F909F03E
:101FA0008DFDB8420646E3DD284B244840221A60E6
:101FB000802243F8042C08F0DFFC25491F48FEF777
:101FC00050FB01211D48FEF76BFB1C482449FEF71E
:101FD0005DFB002640F6FE77B2B20321194804F0FB
:101FE00007FF31461548FEF740FB17491348FEF737
:101FF00038FB322007F0CEFE304609F05FFA224669
:102000002B4609F00FF909F059FDB8420646E3DD09
:102010000E4B80221A60FFF798FD12490748FEF721
:1020200035FB11490548FEF731FB0E490F48FEF715
:102030002DFB0D490D48FEF729FBFEBD009BFF1F40
:1020400077FE0000A492FF1F2D04010088F00F40CE
:10205000BAFD000089FE000048F00F409BFE000022
:10206000ADFE0000FDFB0000C8FD0000C49AFF1F8C
:1020700070B58EB006F084FD061E24DD642007F0E6
:1020800089FE002401AD665506F07AFD0134262C48
:102090000646F7D1124E0024284631688DF82A40B2
:1020A00025220BF0FBF8C0B10E490F48FEF7D9FA14
:1020B00031680D48FEF7EAFA0C490B48FEF7D1FAF1
:1020C0000948294605E00A490748FEF7DFFA0648AD
:1020D0000849FEF7DBFA002000E001200EB070BDD9
:1020E0008089FF1FBFFE0000009BFF1FE2FE000073
:1020F00005FF00003BFF000030B54949494885B065
:10210000FEF7AFFA46494848FEF7ABFA00226846A8
:102110004EF66021FEF7C8FD4EF66020FEF772FE17
:1021200004460D460D20012107F020FD29462046DA
:1021300009F0C4FC430803F1376303F5D833B3FB5C
:10214000F0F006F097FB01210D2007F0E3FC4FF4BF
:102150007A7007F01FFE35493348FEF782FA4FF4D4
:102160007A7007F017FE32492F48FEF77AFA4FF4DB
:102170007A7007F00FFE2F492A48FEF772FA40F2F4
:10218000D2412848FEF78CFA2B492748FEF769FA16
:1021900040F2D2412448FEF768FA4FF47A7007F013
:1021A000F9FD26491F48FEF75CFA69461D48FEF70F
:1021B00063FA23491C48FEF754FA69461A4808F0A6
:1021C000B9FB4FF47A7007F0E5FD1E491548FEF79C
:1021D0005DFA1D491448FEF744FA4FF47A7007F08F
:1021E000D9FDFFF745FF18B10E481849FEF74EFA22
:1021F0000D20002107F08EFC15490A48FEF746FA2B
:1022000013490948FEF742FA064808F0B5FB0648AC
:1022100008F0B2FB684608F037F805B030BD00BFE3
:1022200063FF0000009BFF1FC49AFF1F72FF0000A6
:1022300075FF000080FF00008FFF000096FF000088
:10224000A5FF0000ADFF0000C2FF0000CBFF0000B3
:10225000FDFB000014282DE9F04105460E4614460A
:102260001F4601D002281BD12146404804F0DBFA6A
:10227000002821463D4803DD04F0D5FA3C4B46E0FA
:1022800004F0D1FA002802DB0020BDE8F081002E26
:10229000FADD3846002109F073FF002845D1F3E745
:1022A000A0F10B03012B0BD9A0F10F08B8F1010F1E
:1022B0008CBF4FF000084FF00108B8F1000F17D0A5
:1022C00021462C4804F0AFFA00282146294803DDB6
:1022D00004F0A9FA284B1AE004F0A5FA0028D3DA92
:1022E000002ED1DD3846002109F04AFF50BBCBE774
:1022F00020F004050A2DC7D11146204804F093FAB6
:10230000002821461D4804DD04F08DFA1C4B18609E
:1023100029E004F088FA0028B6DA002EB4DD384649
:10232000002109F02DFFD8B9AEE7384609F032FF99
:1023300001462846FEF7CCFD6423704390FBF3F67C
:102340000B4B0BE0384609F025FF01462846FEF707
:10235000BFFD6423704390FBF3F6074B1E6002E061
:10236000074BC3F800800120BDE8F0811894FF1FDF
:102370005895FF1F0094FF1FE893FF1FEC93FF1F6A
:10238000FC93FF1F2DE9D841142804460E461F4632
:10239000069A01D0022818D1002A00DD12E0002E92
:1023A00054DD3846002109F0EBFE00284ED03846B7
:1023B00009F0F0FE01462046FEF78AFD64237043D3
:1023C00090FBF3F2244800212FE0A0F10B03012B36
:1023D0000BD9A0F10F08B8F1010F8CBF4FF0000826
:1023E0004FF00108B8F1000F17D0002A00DD11E00E
:1023F000002E2BDD3846002109F0C2FE30B33846EE
:1024000009F0C8FE01462046FEF762FD64237043D2
:1024100090FBF3F21048032107E020F004040A2C9B
:1024200014D1002A03DD0C48022192B209E00029F0
:102430000FDD3846002109F0A3FE58B106480221FD
:10244000424604F0D5FC0120BDE8D8810020BDE85B
:10245000D8814046BDE8D881A492FF1F10B5084C32
:102460000520214607F0FEFA0320214607F0FAFA7C
:1024700019204FF4F471BDE8104007F0F3BA00BF23
:102480006CDC020070B506460D460024A119044814
:1024900004F06EF828550134042CF7D1204670BDA5
:1024A000D895FF1F70B506460D460024A1192A5D78
:1024B0000348013404F05FF8042CF7D1204670BDC6
:1024C000D895FF1FFFFFFFFF2DE9F341604E6149E3
:1024D000614D07466148FEF7C4F8306809F000F81E
:1024E000022402460B4600945C48FEF7C0F85C49A3
:1024F0005A48FEF7CBF84FF003085A495748FEF701
:10250000B0F851A3D3E90023CDF800805348FEF77B
:10251000AEF853495148FEF7B9F853494F48FEF712
:10252000A0F8286808F0DCFF009402460B464B48F0
:10253000FEF79DF84D494948FEF7A8F8474808F0CE
:102540001BFA44494A48FEF78CF8306808F0C8FF87
:10255000009402460B464648FEF789F84049444835
:10256000FEF794F83F494248FEF77BF836A3D3E9DB
:102570000023CDF800803E48FEF779F838493C4802
:10258000FEF784F838493A48FEF76BF8286808F0F7
:10259000A7FF009402460B463548FEF768F833491A
:1025A0003348FEF773F8324808F0E6F9012F44D1BA
:1025B0004EF66020FEF726FC09F0C8FA306008F0FD
:1025C0008FFF009402460B462448FEF773F83068EC
:1025D00008F086FF009402460B462548FEF76AF88D
:1025E0003068244909F0A4FD38BB31460C20FFF7C0
:1025F00059FF4EF66020FEF705FC09F0A7FA2860A7
:1026000008F06EFF009402460B461448FEF752F89D
:10261000286808F065FF009402460B461448FEF750
:1026200049F82868134909F083FD30B91420294678
:10263000FFF738FF0020FFF747FF012002B0BDE899
:10264000F04107F0A7BB00BFFCA9F1D24D62D83F13
:10265000DC90FF1FE2FF00007090FF1F009BFF1F38
:102660002D040100F0FF000004000100FEFB00004B
:10267000C49AFF1F000080BF2DE9F34102ADDFF8CF
:10268000308045F8041D064617460024304609F000
:1026900067FB014654F8080009F04AFD18B1E0193B
:1026A0002946FFF7FFFE0434682CEFD1BDE8FC811A
:1026B0008889FF1F2DE9F34102ADDFF8308045F82E
:1026C000041D064617460024304609F049FB014622
:1026D00054F8080009F02CFD18B1E0192946FFF75D
:1026E000E1FE0434682CEFD1BDE8FC818889FF1F2E
:1026F00030B540F2836085B006F0BCF842F210704D
:1027000005F0D2FE4FF4FA70002407F043FB0723D4
:1027100022462146009401934548464D234604F045
:10272000B9FC454841F2883104F044FB4348444930
:1027300004F07EFA4148434904F04AFA21463F48F2
:1027400004F03FFA3D4804F0D7FA1D20012107F0BC
:102750000DFA0320214607F009FA0F20012107F0A6
:1027600005FA1020012107F001FA0B20012107F0E2
:10277000FDF90C20012107F0F9F91420012107F0DF
:10278000F5F90220012107F0F1F90E20012107F0EF
:10279000EDF90A20012107F0E9F90520012107F0F0
:1027A000E5F9294B80221A600620012107F0DEF9A5
:1027B0001520012107F0DAF91620012107F0D6F9DA
:1027C0001120214607F0D2F9204B40221A60022343
:1027D0002B600D20012107F0C9F92220214607F0C6
:1027E000C5F92320214607F0C1F903201849194CE7
:1027F00007F038F90520164907F034F917200121B0
:1028000007F0B4F904A904232B60002341F8083D24
:102810001020FFF737FE0298214609F089FC28B9FD
:1028200004A9102041F8044DFFF73CFE05B030BD6F
:10283000E495FF1F84F00F40A492FF1FD893FF1F61
:102840000000484300002F44C4F00F40C8F00F4080
:102850006CDC02006F12C33EF8B507460E4600243A
:1028600041F21055E119325D0348013403F083FE53
:10287000AC42F7D12046F8BDD895FF1F00B5ADF5A5
:10288000A85D85B010B9FDF7C3FE09E000216846D8
:1028900041F210520AF048F93C206946FFF7DCFF8C
:1028A00045B00DF5A05D00BD70B506460D4600248F
:1028B000A119044803F05CFE28550134082CF7D117
:1028C000204670BDD895FF1F70B506460D46002402
:1028D000A119044803F04CFE28550134682CF7D1A7
:1028E000204670BDD895FF1F1FB50446B54900208E
:1028F000FFF7C8FD0420B449FFF7C4FD0820B34921
:10290000FFF7C0FD0C20B249FFF7BCFD1420B14910
:10291000FFF7B8FD1820B049FFF7B4FD1C20AF4900
:10292000FFF7B0FD2020AE49FFF7ACFD2420AD49F4
:10293000FFF7A8FD2820AC49FFF7B6FF3C20AB49C4
:10294000FFF7C2FFB420AA49FFF7BEFFA9494FF421
:102950009670FFF7B9FFA8494FF4D270FFF7B4FFA4
:10296000A6494FF40770FFF7AFFFA5494FF4257054
:10297000FFF7AAFFA3494FF45C70FFF7A5FFA24938
:102980004FF47A70FFF7A0FFA0494FF48C60FFF777
:102990009BFF9F494FF49B60FFF796FF9D494FF4C3
:1029A000AA60FFF781FF9C494FF4AB60FFF77CFF03
:1029B0009A494FF4AC60FFF777FF99494FF4AD6047
:1029C000FFF772FF97494FF4AE60FFF76DFF4FF4CA
:1029D000AF609549FFF768FF012C40F053819349A0
:1029E0009348FDF73EFE91499248FDF73AFE204696
:1029F000FEF7F2FB8E4807F0BFFF8E4807F0BCFFE2
:102A00002046FEF7EBF88A4807F0B6FF894807F042
:102A1000B3FF8949684607F078FC00228749684679
:102A2000FEF744FB684607F02FFC8549684607F02F
:102A30006CFC00226D496846FEF738FB684607F0DB
:102A400023FC8049684607F060FC0022684968461C
:102A5000FEF72CFB684607F017FC7B49684607F039
:102A600054FC002263496846FEF720FB684607F0E5
:102A70000BFC7649684607F048FC00225E49684630
:102A8000FEF714FB684607F0FFFB7149684607F044
:102A90003CFC002259496846FEF708FB684607F0EF
:102AA000F3FB6C49684607F030FC00225449684645
:102AB000FEF7FCFA684607F0E7FB6749684607F04F
:102AC00024FC00224F496846FEF7F0FA684607F0FA
:102AD000DBFB6249684607F018FC00224A49684659
:102AE000FEF7E4FA684607F0CFFB5D49684607F059
:102AF0000CFC002245496846FEF7D8FA684607F004
:102B0000C3FB5849684607F000FC0022404968466C
:102B1000FEF7CCFA684607F0B7FB5349684607F062
:102B2000F4FB002230496846FEF746FA684607F093
:102B3000ABFB4E49684607F0E8FB00223549684682
:102B4000FEF73AFA684607F09FFB4949684607F0E6
:102B5000DCFB002230496846FEF72EFA684607F093
:102B600093FB4449684607F0D0FB00222B49684696
:102B7000FEF722FA684607F087FB3F49684607F0F0
:102B8000C4FB002226496846FEF716FA684607F09D
:102B90007BFB3A49684607F0B8FB002221496846AA
:102BA000FEF70AFA684607F06FFB3549684607F0FA
:102BB000ACFB68461C492246FEF7FEF9684607F062
:102BC00063FB5FE07489FF1FF489FF1FCC95FF1F33
:102BD000DC90FF1F7090FF1FF493FF1FF890FF1F02
:102BE000F893FF1FFC90FF1FC094FF1F3C92FF1F34
:102BF000C894FF1F2C94FF1F7490FF1F6095FF1F48
:102C0000D091FF1F0091FF1F6891FF1FD892FF1FF7
:102C10004093FF1F9494FF1F3095FF1F9C94FF1F4C
:102C20004095FF1F4895FF1F5095FF1FB0FC000007
:102C3000009BFF1FC49AFF1F180001008889FF1F17
:102C40002100010033000100440001005E0001008A
:102C50007700010092000100AC000100BF000100FC
:102C6000D2000100E5000100310301003E03010034
:102C70004B030100580301006503010072030100CA
:102C80007F0301001FBD00BF2DE9F34101204EF677
:102C90006028FFF729FE4046FEF7B4F808F056FF1B
:102CA000224F234E386008F01BFC062402460B46D8
:102CB00000943046FDF7DBFC38681E4D08F010FC30
:102CC000009402460B462846FDF7D1FC3946042005
:102CD000FFF7E8FB4046FEF795F808F037FF164F80
:102CE000386008F0FDFB009402460B463046FDF7C5
:102CF000BEFC386808F0F4FB009402460B460F4C0B
:102D00002846FDF7B4FC39460820FFF7CBFB2146E7
:102D10003046FDF7BBFC28462146FDF7B7FC0120F5
:102D200002B0BDE8F041FFF7DFBD00BFF489FF1F2F
:102D3000009BFF1FC49AFF1FCC95FF1FF8000100E6
:102D40002DE9F3414EF660270120FFF7CDFD38460F
:102D5000FEF758F808F0FAFEDFF804813D4EC8F897
:102D6000000008F0BDFB022402460B4600943046EA
:102D7000FDF77DFCD8F80000374D08F0B1FB00945A
:102D800002460B462846FDF772FC41461820FFF725
:102D900089FB3846FEF736F808F0D8FEDFF8C48025
:102DA000C8F8000008F09CFB009402460B46304631
:102DB000FDF75DFCD8F8000008F092FB0094024695
:102DC0000B462846FDF753FC41461C20FFF76AFBE3
:102DD0003846FEF717F808F0B9FEDFF88C80C8F81F
:102DE000000008F07DFB009402460B463046FDF7DC
:102DF0003EFCD8F8000008F073FB009402460B4636
:102E00002846FDF734FC41462020FFF74BFB3846AF
:102E1000FDF7F8FF08F09AFE104F386008F060FBED
:102E2000009402460B463046FDF721FC386808F056
:102E300057FB009402460B462846FDF718FC242059
:102E40003946FFF72FFB012002B0BDE8F041FFF744
:102E50004BBD00BF009BFF1FC49AFF1FFC90FF1FCC
:102E6000F493FF1FF890FF1FF893FF1F7FB50646EE
:102E70000120FFF739FD002406254EF66020FDF7FE
:102E8000C1FF08F063FE039008F02AFB009502469C
:102E90000B460B48FDF7EBFB039808F021FB009570
:102EA00002460B460748FDF7E2FBA01903A90434CC
:102EB000FFF7F8FA082CE0D10120FFF715FD7FBDE0
:102EC000009BFF1FC49AFF1F2DE9F3478046012096
:102ED000FFF70AFD4EF66020FDF794FF08F0EEFDC7
:102EE000064631462B48FDF7DBFB2B483146FDF704
:102EF000D7FB731C47D04EF66020FDF783FF08F028
:102F000025FE814608F0ECFA062704460D460B46DE
:102F1000224600971F48FDF7CDFB00971E4822462A
:102F20002B46FDF7C7FB48461C4909F001F950BB89
:102F30004EF66020FDF766FF08F008FE824608F0B6
:102F4000CFFA04460D460B46224600971148FDF77E
:102F5000B1FB0097104822462B46FDF7ABFB5046CD
:102F60000E4909F0E5F870B9304649464246FFF788
:102F7000A1FB3046514608F17802FFF77DFB0120A6
:102F800006F008FFA6E7012002B0BDE8F047FFF712
:102F9000ABBC00BF009BFF1FC49AFF1F000080BF97
:102FA0002DE9F04FAA4BAB4C04221A6085B00021EA
:102FB000064640F6FF72A84803F01AFF802501215B
:102FC00040F6FF72A44803F013FF022140F6FF729F
:102FD0002560A14803F00CFF032140F6FF729E48D4
:102FE00003F006FF9D4B1D60FEF7AFFD622E2CD156
:102FF0000020FFF779FC27464EF66020FDF702FF20
:103000000022974B04460D4608F026FDB8B9FEF79E
:103010009CFD2946204608F079FD002182B28E48A9
:1030200003F0E6FE002320462946002208F014FDA6
:10303000202310B9894A1360DEE73B60DCE7FEF726
:1030400084FD844B20221A606FE0632E6DD1002036
:10305000FFF74AFC4EF66020FDF7D4FE08F02EFD87
:103060008049DFF824A280467F48FDF7FAFA7D49BF
:103070007E48FDF7F6FA00210A46774803F0B8FECD
:1030800075480321002203F0B3FE00275FFA88FB96
:1030900040E05AF83B3083F800410BE01FFA89F416
:1030A000002122466C4803F0A3FE6B480321224610
:1030B00003F09EFE384608F013FA04460D4602213E
:1030C000009122462B4668480391FDF7D0FA0399F8
:1030D0006648009122462B46FDF7C9FA64496248CA
:1030E000FDF7BFFA62496148FDF7BBFA49465E4801
:1030F000FDF7BBFA49465D48FDF7B7FA5C495A4807
:10310000FDF7C4FA59485A49FDF7C0FA4FF47A70EE
:1031100006F040FE05F0FAF8022800F3568105F0AB
:1031200021FD022840F35C814FE10027FEF70DFDF1
:10313000642E01D1FEF71AFDFEF707FD652E14D1AE
:103140004C494948FDF78DFA48484A49FDF789FA44
:103150004FF0020805F0DAF8022800F3478205F084
:1031600001FD022840F3588140E2662E14D1424905
:103170003D48FDF776FA3D483F49FDF772FA4FF0BA
:10318000020805F0C3F8022800F3308205F0EAFCDB
:10319000022840F3688129E2672E14D1374932486A
:1031A000FDF75FFA31483549FDF75BFA4FF0020849
:1031B00005F0ACF8022800F3198205F0D3FC0228D0
:1031C00040F3758112E2682E14D12D492648FDF78F
:1031D00048FA26482A49FDF744FA4FF0020805F05C
:1031E00095F8022800F3028205F0BCFC022840F3A7
:1031F0008081FBE1692E14D11E491B48FDF731FA8D
:103200001A481C49FDF72DFA4FF0020805F07EF828
:10321000022800F3EB8105F0A5FC022840F3A08111
:10322000E4E16A2E32D117491048FDF71AFA0E4828
:103230001449FDF716FA4FF0020805F067F8022866
:1032400000F3D48105F08EFC022840F3AE81CDE17D
:1032500088F00F40C8F00F40A492FF1FC4F00F4049
:103260000000F0BFFB000100009BFF1FC49AFF1F7E
:103270002D0401000B010100200101002F010100BC
:10328000400101005701010058070100731E202B67
:1032900040D8A949A948DFF8B082FDF7E2F9A8486B
:1032A000A549FDF7DEF94EF66020FDF7ABFD08F00D
:1032B00005FC411C054624D0ACB2FEF746FC0021BB
:1032C0002246A04803F094FD012122469D4803F0C8
:1032D0008FFD022122469B4803F08AFD2246994831
:1032E000032103F085FD58F83620012382F8803051
:1032F00058F8362015B182F88030D4E782F80031D2
:10330000D1E7FEF722FC904B53F83630012283F8C8
:10331000002134E0A6F12203032B30D8DFF83C82F1
:103320008A4D874807F028FB844807F025FB4EF6B6
:103330006020FDF767FD08F0C1FB421C1DD0102383
:103340004001C8F8003001D00138FDD1F0B206F0DC
:1033500049FE102304462B6021467948FDF785F984
:1033600021467648FDF781F979497548FDF779F9E5
:1033700077497248FDF775F9D3E7FEF7E6FB754B21
:1033800004221A60384608F0ABF8022604460D46BF
:103390000B46224600966A48FDF769F922462B46FD
:1033A00000966648FDF763F96B496548FDF76EF9CD
:1033B00069496248FDF76AF9614807F0DDFA5F483C
:1033C00005B0BDE8F04F07F0D7BAFEF7BEFB5FFAD5
:1033D00088F85D4B53F83830012283F80021A5E6C8
:1033E0005AF83B30012483F880402046FDF7A0FBCB
:1033F00008F0B6FCFDF75AFD074608F0CBFE014683
:103400004046FDF765FD00218146384608F090FEF4
:1034100000287FF43EAE41E60120FDF789FB08F06D
:103420009FFCFDF743FD074608F05AF804460D4699
:103430000B462246CDF800804148FDF718F9224698
:103440002B46CDF800803D48FDF711F940493C4836
:10345000FDF707F93E493948FDF703F94FF4FA60E3
:1034600006F098FC76E6FEF7DFF908F075FC0746F3
:1034700008F036F8044622460B46CDF80080304866
:103480000D46FDF7F4F832492D48FDF7EAF82246DB
:103490002B46CDF800802948FDF7E9F82C4927484C
:1034A000FDF7DFF84FF4FA6006F074FC69E6FDF70B
:1034B00093F8074608F014F8044622460B46CDF868
:1034C00000801F480D46FDF7D2F821491C48FDF742
:1034D000C8F822462B46CDF800801848FDF7C7F8FB
:1034E0001B491648FDF7BDF84FF4FA6006F052FC90
:1034F0005EE6FDF755F8074607F0F2FF0446224660
:103500000B46CDF800800E480D46FDF7B0F8104987
:103510000B48FDF7A6F822462B46CDF80080074859
:10352000FDF7A5F80A490548FDF79BF84FF4FA6046
:1035300006F030FC53E600BF74010100C49AFF1F7F
:10354000009BFF1FA492FF1F58070100C4F00F400B
:103550002D04010084F00F4017FC0000C8F00F405C
:103560000120FDF7E5FA08F0FBFB074607F0B8FF7E
:1035700004460D460B462246CDF800801D48FDF757
:1035800076F822462B46CDF800801B48FDF76FF8F1
:103590001A491848FDF765F818491748FDF761F80A
:1035A0004FF4FA6006F0F6FB30E6FEF771FA0746D4
:1035B00007F096FF04460D460B462246CDF80080E4
:1035C0000C48FDF754F822462B46CDF800800A48F7
:1035D000FDF74DF809490748FDF743F80749064844
:1035E000FDF73FF8C82006F0D5FB26E6FEF7ADFA5A
:1035F0004CE600BF009BFF1FC49AFF1F2D04010073
:103600002DE9F04FADF51D5D89B004AF32200025E6
:10361000C7F848D006F0BEFBB24BC7F8EC501B68A9
:103620000120C7F8F030D7F8F03008F081FEC7F875
:103630009C000420C7F8F450C7F8F85008F078FE52
:10364000A94BC7F898001B68073323F00703ADEBBD
:10365000030DA64B1B687B661B01083304ACADEB66
:10366000030D04AEC7F8C46003E0002106F04DFE70
:103670000135D7F8C46006EB05107E6EB542F4D173
:10368000994B9A4E1A682046002109F04DFA002500
:1036900007E0D7F8C41001EB0510954906F06DFE60
:1036A000013533689D42F4DB0020FFF71DF9914B93
:1036B00010251D600A2006F06DFB8F4B8F491D60A1
:1036C00007F5C87006F021FE40F2F63560E007F518
:1036D000C87006F0E8FEC72842F36A8602F0E6BD2D
:1036E0000A2006F057FB53E085498648FCF7CEFFD9
:1036F00083498548FCF7CAFF4AE0FEF7FDFC47E036
:10370000FCF7EAFF44E0FDF727F841E00120FFF76E
:10371000EBF83DE0FFF7B8FA3AE000200AE0FFF7E7
:103720000FFB35E03C2001E04FF49670FFF7CCFB37
:103730002EE00120FEF7C8FE2AE04FF40770F5E7FF
:103740004FF45C70F2E74FF48C60EFE7FCF760FF3A
:103750001EE00120FFF792F81AE0282001E04FF464
:10376000AA60FFF783FB13E04FF4AB60F9E74FF477
:10377000AC60F6E74FF4AD60F3E74FF4AE60F0E70E
:103780004FF4AF60EDE7FDF7A9F901E005F07EFB2E
:1037900004F09EFD5B2802F02D8605F009FA5B28F7
:1037A00042F0108602F026BE05F002FA5B280CBF3C
:1037B0000225002500E0012504F062FD05F0E0F996
:1037C000012D0DD0022D58D050494E48FCF75EFF18
:1037D00000264D484D49FCF759FFC7F8C060AEE0E0
:1037E00048484FF4FA6106F0F1FF3F4B45481B682B
:1037F00021212246002606F0EBFF41F28735C7F86B
:10380000C060A35D7B2B1BD104E0484606F0EEFDB3
:10381000013607E0D7F8C010D7F8C4204FEA0118E6
:1038200002EB0809A15D7D29EFD1D7F8C43003EB85
:10383000080006F0DBFDD7F8C0100131C7F8C01052
:103840000136AE42DDDD002412E0D7F8C46030213D
:1038500006EB041507F5E07006F0AAFD07F5E07128
:10386000284606F0E6FD07F5E07006F00DFD013490
:10387000D7F8C060B442E8DB61E023484FF47A71C6
:1038800006F0A4FF184B20481B6821212246002681
:1038900006F09EFF41F28735C7F8C060A35D7B2B21
:1038A0001BD104E0484606F0A1FD013607E0D7F839
:1038B000C010D7F8C4204FEA011802EB0809A15D37
:1038C0007D29EFD1D7F8C43003EB080006F08EFD58
:1038D000D7F8C0100131C7F8C0100136AE42DDDDA7
:1038E000002428E0B89AFF1FF089FF1F7C89FF1F82
:1038F000C8FD0000C8F00F40C4F00F40C0FF00003A
:1039000077010100009BFF1FC49AFF1F8701010080
:10391000D7F8C460302106EB041507F5E07006F017
:1039200047FD07F5E071284606F083FD07F5E070D6
:1039300006F0AAFC0134D7F8C060B442E8DB7A494B
:103940007A4D7B48FCF78DFE77497A48FCF789FE73
:10395000286807F0C5FD022402460B46009474480F
:10396000FCF785FE286807F0BBFD009402460B4675
:103970007048FCF77CFE70496D48FCF772FE03242A
:103980006D496C48FCF76DFE009465A3D3E90023F4
:103990006748FCF76CFE62A3D3E9002300946548F6
:1039A000FCF765FE654963480026FCF75AFE60484F
:1039B0006249FCF756FEC7F8B860C7F8A060C7F8C0
:1039C000CC600D26FE650126FE6607F5BE76002456
:1039D0003E665B495748FCF744FE55485849FCF79A
:1039E00040FE002602F0FCBBD7F89C0008F0A8FCC3
:1039F000D7F894603501D7F8C460731907F1F40A59
:103A00009C68601C08F094FC7159C7F89C00224621
:103A100009F09AFCD7F89C600025355507F5C2706F
:103A200007F5E87403F0B4F8D7F89C1022464FF479
:103A3000167307F5C27002F08EFFD7F89C10A842EB
:103A40000CBF22462A46386E02F001FF3E6E96E811
:103A500003008AE80300002802F0D384C9B902F009
:103A6000D0BCD7F8C410334801EB04152946FCF745
:103A700003FE01342E482946FCF7FEFDB442F0D186
:103A8000FEF763F807F5C87006F0FEFB002502F0AC
:103A9000FCBB07F1FC06FD67C7F8D46007F5BA74F4
:103AA0002849504602F024FF014607F5D07006F081
:103AB0002CFC2549504602F011FF5046234902F0E4
:103AC0000DFF234B08B1186001E001221A60214963
:103AD000214D504602F002FF2049C7F8C800504669
:103AE00002F0FCFE1E49F866504602F0F7FE1D4942
:103AF000B860504602F0F2FE1B497862504602F070
:103B0000EDFE002808BF0120B8651849504602F0B4
:103B1000E5FE68BB0D232B602FE000BFAFF30080F4
:103B2000FCA9F1D24D62D83FAD010100DC90FF1F2E
:103B3000C49AFF1F009BFF1FBC010100D2010100BE
:103B40002AFC0000DF010100EB010100F20101008D
:103B50007889FF1FFB0101006489FF1F0A02010031
:103B6000170201002A0201003A020100440201008A
:103B70005046834902F0B2FE28608249504602F066
:103B8000ADFE002808BF0A20F8627F49504602F0C7
:103B9000A5FE002808BF1020B8627C49504602F0FC
:103BA0009DFE002808BF032078657949504602F041
:103BB00095FE002808BF032038657649504602F07C
:103BC0008DFE75493862504602F088FE7349C7F889
:103BD0008C00504602F082FE71497864504602F033
:103BE0007DFE7049C7F88000504602F077FE6E49AE
:103BF000F861504602F072FE07F58279C7F8D000EE
:103C0000514607F1FC00694A02F05AFE07F5867634
:103C100048465146664A02F053FE3046C7F8DC601B
:103C2000514607F58A76634A02F04AFE07F58E7B15
:103C300030465146604AC7F8D86002F041FE5F4AFC
:103C40005F4E5846514602F03BFE5E49504602F038
:103C500045FE5D49C7F8BC00504602F03FFE5B4997
:103C6000C7F8B400504602F039FE5949C7F8B00011
:103C7000504602F033FE5749C7F8AC00504602F0F8
:103C80002DFE5549C7F8A800504602F027FE5349BB
:103C9000C7F8A400504602F021FE5146C7F888003C
:103CA0004F4A07F5927002F00BFE07F596705146E9
:103CB0004C4A02F005FE07F59A7051464A4A02F056
:103CC000FFFD07F59E705146484A07F1E00502F0F6
:103CD000F7FD07F5A2705146454A02F0F1FD28466E
:103CE0005146444A02F0ECFD95E80300424A86E85A
:103CF00003002846514602F0E3FD95E803003F4EDD
:103D00003F4A86E803002846514602F0D9FD95E86F
:103D100003003C4E3C4A86E8030007F5A670514676
:103D200002F0CEFD07F5AA705146384A02F0C8FDF0
:103D300007F5AE705146364A02F0C2FD002507F580
:103D4000B2705146334A02F0BBFDBD66C7F88450DD
:103D500088E0294607F5927002F065FD07F5AA7123
:103D600006462A46204602F050FD2046FCF7AFFCEE
:103D7000BB6E4FF0000800FB0633BB6646465AE0B8
:103D80004402010059020100630201006E020100B9
:103D90007F0201008E020100AD020100B8020100A5
:103DA000C2020100D0020100DB020100E6020100B4
:103DB000F602010002030100110301001F030100CC
:103DC0001894FF1F2D0301003A030100470301006F
:103DD00054030100610301006E0301007B03010035
:103DE000880301008F0301009B030100A70301006A
:103DF000B3030100BF030100CF0301000094FF1FC4
:103E0000E0030100EC93FF1FF0030100FA0301003F
:103E10000604010014040100204607F5AA712A4691
:103E200002F0F3FC4146204602F0FDFC0028C8BF2A
:103E3000013608F10108204607F5AA712A4602F06A
:103E4000E4FC2046FCF743FC8045E5DB294607F50A
:103E5000927002F0E8FCD7F8841006FB0011C7F856
:103E60008410013507F59270FCF731FC8542FFF6AE
:103E700070AFD7F8980008F063FA0421D7F88400EF
:103E800008F0E0F97E49C7F898007E48FCF7E9FBA6
:103E90007B497D48FCF7E5FB0520FCF765FF7B4986
:103EA000C7F890007748FCF7DCFB78497648FCF7C8
:103EB000D8FB07F5D071734806F03CFD07F5D071CB
:103EC000714806F037FD72496E48FCF7CAFB6E4830
:103ED0006F49FCF7C6FBD7F8D030012B02D118464A
:103EE000FDF77AF9D7F8A8600096D7F8A4300193C7
:103EF000D7F88860029607F5E075D7F8B020D7F8B4
:103F0000AC30D7F8BC00D7F8B410FDF72BFA6149F4
:103F1000284606F0FAF9D7F8D46096E803000022A4
:103F200013468DE8030002955B495C48FCF7CAFC28
:103F3000284606F0A9F95A49284606F0E6F9D7F8C6
:103F4000DC6096E80300002213468DE8030002952A
:103F500054495548FCF7B6FC284606F095F95349F4
:103F6000284606F0D2F9D7F8D86096E80300002278
:103F700013468DE8030002954D494E48FCF7A2FC1C
:103F8000284606F081F94C49284606F0BEF99BE820
:103F90000300002213468DE8030002954749484874
:103FA000FCF790FC284606F06FF9464B4649D3F8DB
:103FB0000080464B28461E6806F0A7F999E80300E2
:103FC0008DE8030000203346014642460295404EEC
:103FD000FCF778FC284606F057F93368012B17DD0B
:103FE0003C492948FCF73DFB3A492648FCF739FB98
:103FF00031682548FCF739FB31682248FCF735FB6E
:1040000035492148FCF72DFB1E483349FCF729FBB5
:10401000324B786C00261E60314B1E60314B1E60A7
:10402000314B1E60314B1E60314B1E60314B1E60A8
:10403000314B1E60314B1E60314B1E60FDF7A6F800
:10404000D7F88010D7F8C82030234B43013B3B649E
:104050004FF47A735343FB6007F1EC060023C7F873
:10406000D030C7F8A830C7F8AC30C7F8B030C7F8C0
:10407000B43007F5B67BC7F8A46001F0F2BF00BF0B
:10408000B0FC0000009BFF1FC49AFF1F1C0401002E
:104090002C040100E6020100D091FF1F6095FF1F74
:1040A00002030100C894FF1F3C92FF1F110301008F
:1040B0006891FF1F0091FF1F1F0301004093FF1F26
:1040C000D892FF1FF489FF1FF6020100CC95FF1F55
:1040D0007889FF1F2F0401002D0401000894FF1FA1
:1040E000D495FF1F3892FF1F1094FF1F2094FF1FCD
:1040F000BC93FF1FB094FF1FBC94FF1F0C94FF1FC5
:104100002494FF1F584607F5AE71324602F07DFB3E
:104110005846012102F087FB8046002859D13246DB
:10412000204607F5AE7102F070FB4146204602F0D2
:1041300084FB0146284606F0E8F82846BC4906F00C
:1041400086F910F1000818BF4FF00108284606F064
:104150009BF8B8F1000F3CD03246204607F5AE710F
:1041600002F053FB0121204602F05DFBFCF7D6FC78
:10417000B04BD7F8D0101B68013B994229D1AE490A
:10418000DFF8DC92AD48FCF76CFAAB49AC48FCF7C1
:1041900068FAD9F8000007F0A3F94FF002080246C8
:1041A0000B46CDF80080A548FCF761FAA549A34865
:1041B000FCF757FAD9F8000007F092F9CDF8008023
:1041C00002460B469E48FCF752FA9D489D49FCF773
:1041D00048FA584607F5AE71324602F016FB5846CB
:1041E000012102F020FB8046002859D132462046AA
:1041F00007F5AE7102F009FB4146204602F01DFBB7
:104200000146284606F081F828468F4906F01FF936
:1042100010F1000818BF4FF00108284606F034F8E6
:10422000B8F1000F3CD03246204607F5AE7102F0DF
:10423000ECFA0121204602F0F6FAFCF774FC7D4B03
:10424000D7F8D0201B68013B9A4229D17F49DFF87B
:1042500014927A48FCF705FA7C497948FCF701FA90
:10426000D9F8000007F03CF94FF0020802460B466F
:10427000CDF800807148FCF7FAF972496F48FCF7F5
:10428000F0F9D9F8000007F02BF9CDF800800246CC
:104290000B466B48FCF7EBF969486A49FCF7E1F912
:1042A000584607F5AE71324602F0AFFA5846012182
:1042B00002F0B9FA8046002859D13246204607F567
:1042C000AE7102F0A2FA4146204602F0B6FA01466B
:1042D000284606F01AF828465D4906F0B8F810F1AD
:1042E000000818BF4FF00108284605F0CDFFB8F1CF
:1042F000000F3CD03246204607F5AE7102F085FA39
:104300000121204602F08FFAFDF71AFC494BD7F83D
:10431000D0101B68013B994229D14E49DFF84891E2
:104320004648FCF79EF94B494548FCF79AF9D9F8FD
:10433000000007F0D5F84FF0020802460B46CDF812
:1043400000803E48FCF793F93E493C48FCF789F968
:10435000D9F8000007F0C4F8CDF8008002460B46FB
:104360003748FCF784F936483649FCF77AF958465D
:1043700007F5AE71324602F048FA5846012102F0C4
:1043800052FA804600287AD13246204607F5AE71AF
:1043900002F03BFA4146204602F04FFA0146284619
:1043A00005F0B3FF28462C4906F051F810F100083B
:1043B00018BF4FF00108284605F066FFB8F1000F5E
:1043C0005DD03246204607F5AE7102F01EFA01219B
:1043D000204602F028FAFDF74BFA164BD7F8D0200A
:1043E0001B68013B9A424AD11C49DFF88090134870
:1043F000FCF737F919491248FCF733F9D9F80000EE
:1044000007F06EF84FF0020802460B46CDF8008028
:104410000A48FCF72CF90B490848FCF722F9D9F8AF
:10442000000007F05DF8CDF8008002460B461FE063
:104430003B0401007889FF1F4D040100C49AFF1F4F
:10444000009BFF1F2D0401007D0401006204010098
:104450007104010089040100A4040100A804010002
:104460003892FF1F1094FF1F2094FF1FBC93FF1F63
:10447000C148FCF7FCF8C048C049FCF7F2F85846C0
:1044800007F5AE71324602F0C0F95846012102F03C
:10449000CAF98046002840F0E4803246204607F5FD
:1044A000AE7102F0B2F94146204602F0C6F901466B
:1044B000284605F02AFF2846B14905F0C8FF10F14B
:1044C000000818BF4FF00108284605F0DDFEB8F1DE
:1044D000000F00F0C6803246204607F5AE7102F0AC
:1044E00094F90121204602F09EF9FCF721FBA54B2F
:1044F000D7F8D0101B68013B994240F0B280DFF83A
:10450000A492A149A148FCF7ACF89F499A48FCF74E
:10451000A8F8D9F80000FCF7C9FC06F0E1FF4FF05D
:10452000020802460B46CDF800809848FCF79FF839
:1045300092499648FCF795F8D9F80000DFF86892A0
:10454000FCF7B4FC06F0CCFFCDF8008002460B4629
:104550008948FCF78CF889498748FCF782F88C4930
:104560008A48FCF77EF88A498348FCF77AF8D9F83C
:104570000000FCF79BFC06F0B3FFCDF8008002467C
:104580000B468248FCF773F87C498048FCF769F8D1
:10459000D9F80000DFF81492FCF788FC06F0A0FFC1
:1045A000CDF8008002460B467348FCF760F873496B
:1045B0007148FCF756F877497448FCF752F875498A
:1045C0006D48FCF74EF8D9F80000FCF76FFC06F0D8
:1045D00087FFCDF8008002460B466C48FCF747F891
:1045E00066496A48FCF73DF8D9F80000DFF8C09149
:1045F000FCF75CFC06F074FFCDF8008002460B4629
:104600005D48FCF734F85D495B48FCF72AF86249DD
:104610005E48FCF726F860495748FCF722F8D9F8BD
:104620000000FCF743FC06F05BFFCDF8008002467B
:104630000B465648FCF71BF850495448FCF711F854
:10464000D9F80000FCF732FC06F04AFFCDF80080F4
:1046500002460B464848FCF70AF847484749FCF72A
:1046600000F8584607F5AE71324602F0CEF85846CB
:10467000012102F0D8F88046002840F0F48032464C
:10468000204607F5AE7102F0C0F84146204602F020
:10469000D4F80146284605F038FE28463F4905F083
:1046A000D6FE10F1000818BF4FF00108284605F0AB
:1046B000EBFDB8F1000F00F0D6803246204607F53A
:1046C000AE7102F0A2F80121204602F0ACF8FCF72E
:1046D0002FFA2C4BD7F8D0201B68013B9A4240F0B0
:1046E000C280DFF8C0902E492848FBF7BAFF2C495A
:1046F0002148FBF7B6FFD9F8000006F0F1FE4FF0B5
:10470000020802460B46CDF800802048FBF7AFFFB9
:104710001A491E48FBF7A5FFD9F80000DFF888907A
:1047200006F0DEFECDF8008002460B461248FBF78D
:104730009EFF12491048FBF794FF15491348FBF7F9
:1047400090FF13490C48FBF78CFFD9F8000006F0E6
:10475000C7FECDF8008002460B460C48FBF787FFEA
:1047600006490A48FBF77DFFD9F80000DFF83C90C6
:1047700006F0B6FE1EE000BF009BFF1F2D040100E7
:104780009D0201007889FF1FAF040100C49AFF1F3A
:10479000C2040100C7040100CC040100D1040100DF
:1047A000E5040100B094FF1FBC94FF1F0C94FF1F91
:1047B0002494FF1FCDF8008002460B46B048FBF75B
:1047C00056FFB049AE48FBF74CFFAF49AF48FBF787
:1047D00048FFAD49AA48FBF744FFD9F8000006F0AE
:1047E0007FFECDF8008002460B46A848FBF73FFF4E
:1047F000A449A648FBF735FFD9F80000DFF8B092CE
:1048000006F06EFECDF8008002460B469C48FBF792
:104810002EFF9C499A48FBF724FF9D499B48FBF7D4
:1048200020FF9B499648FBF71CFFD9F8000006F0D3
:1048300057FECDF8008002460B469448FBF717FF61
:1048400090499248FBF70DFFD9F8000006F048FEAA
:10485000CDF8008002460B468948FBF708FF8848E0
:104860008849FBF7FEFE584607F5AE71324601F067
:10487000CCFF5846012101F0D6FF804600284FD1D9
:104880003246204607F5AE7101F0BFFF4146204693
:1048900001F0D3FF0146284605F037FD28467D4943
:1048A00005F0D5FD10F1000918BF4FF001092846A9
:1048B00005F0EAFCB9F1000F32D03246204607F588
:1048C000AE7101F0A2FF0221204601F0ACFF5FFAB9
:1048D00080F94146484605F049F9484605F082FB13
:1048E0006D4BD7F8D0101B68013B9942804617D119
:1048F0006A496648FBF7B5FE68496148FBF7B1FEB7
:1049000041466248FBF7B1FE5E496048FBF7A9FEED
:1049100041465B48FBF7A9FE59485A49FBF7A1FEFF
:10492000584607F5AE71324601F06FFF5846012137
:1049300001F079FF804600284FD13246204607F526
:10494000AE7101F062FF4146204601F076FF01465C
:10495000284605F0DAFC2846514905F078FD10F1AB
:10496000000918BF4FF00109284605F08DFCB9F188
:10497000000F32D03246204607F5AE7101F045FFF8
:104980000221204601F04FFF5FFA80F94146484678
:1049900005F0ECF8484605F0DDF83F4BD7F8D0209D
:1049A0001B68013B9A42804617D13E493748FBF7C6
:1049B00058FE3C493248FBF754FE41463348FBF76A
:1049C00054FE30493148FBF74CFE41462C48FBF77A
:1049D0004CFE2B482B49FBF744FE584607F5AE71B9
:1049E000324601F012FF5846012101F01CFF8046BB
:1049F00000285FD13246204607F5AE7101F005FF71
:104A00004146204601F019FF0146284605F07DFC8D
:104A10002846254905F01BFD10F1000818BF4FF08E
:104A20000108284605F030FCB8F1000F42D03246AC
:104A3000204607F5AE7101F0E8FE0221204601F0A4
:104A4000F2FE3246804607F5AE71204601F0DDFEEB
:104A50000321204601F0E7FE5FFA88F88146012134
:104A6000404605F083F8114A52F8382019F0FF0F3C
:104A70004FF0010314BF82F8803082F8003119E052
:104A8000009BFF1F2D040100C7040100C49AFF1FF3
:104A9000CC040100FC0401007889FF1F0805010017
:104AA0001705010024050100340501005807010025
:104AB0002494FF1F584607F5AE71324601F0A5FE5B
:104AC0005846012101F0AFFE8146002867D13246E9
:104AD000204607F5AE7101F098FE4946204601F0E8
:104AE000ACFE0146284605F010FC2846A94905F011
:104AF000AEFC10F1000818BF4FF00108284605F081
:104B0000C3FBB8F1000F4AD03246204607F5AE711C
:104B100001F07BFE0221204601F085FE32468046F0
:104B200007F5AE71204601F070FE0321204601F02A
:104B30007AFE3246844607F5AE712046C7F800C0BB
:104B400001F063FE0421204601F06DFE3246C7F8F5
:104B5000C80007F5AE71204601F057FE052120463A
:104B600001F061FE5FFA88F80346012140467B6050
:104B700004F0FCFF4046D7F8C81004F073FFD7F8E4
:104B800000C04046614605F00DF87B68184605F008
:104B900001F94046494605F005F8FDF75FFC584627
:104BA00007F5AE71324601F030FE5846012101F0A2
:104BB0003AFE8046002840D13246204607F5AE71C5
:104BC00001F023FE4146204601F037FE014628460B
:104BD00005F09BFB2846704905F039FC10F10008F0
:104BE00018BF4FF00108284605F04EFBB8F1000F42
:104BF00023D0D7F8D03003BB68496948FBF731FDB3
:104C000066496848FBF72DFDD7F8D020664928464D
:104C1000FCF74AF82946624805F08CFE6349604873
:104C2000FBF71FFD29465F4805F084FE5D485F499C
:104C3000FBF717FD284605F027FB013600E00026AC
:104C400007F5AE70FBF743FD8642FFF65BAAFA6AF2
:104C5000574ED1B23068002202F012FDBB6A3068B4
:104C6000D9B2002202F0E8FC796D052919D8DFE8F5
:104C700001F003070A0D1013002130680A460EE008
:104C8000306801210AE03068022107E03068032122
:104C900004E03068042101E030680521002202F0C0
:104CA000D7FC3B6D052B19D8DFE803F003070A0D8D
:104CB0001013002130680A460EE0306801210AE036
:104CC0003068022107E03068032104E030680421E5
:104CD00001E030680521002202F0C6FC022005F048
:104CE00059F8344B1868FCF7E1F84FF00009C7F8A1
:104CF000BC00C7F84C90C7F88890C7F8C89081E30B
:104D0000D7F8CC60002E31D1D7F8C860002E3ED144
:104D100003F07CFBFE6D284BF2B253F832300122D7
:104D200083F8002105F018F8D7F88010002906460E
:104D300008DB224B4A1E9A4204D8214821493A6C8A
:104D400005F011FD05F008F87A6C801B9042F9D34C
:104D5000D7F88060002E0CDB184B721E9A4208D8E0
:104D600019493A6C194805F0FEFC02E0D7F8C86012
:104D700076BB204607F5AA71D7F8CC2001F045FD97
:104D80002046FBF7A4FC0126C7F8A00021E0D7F8D5
:104D9000CC601EE0420501004F05010054050100F2
:104DA000C49AFF1F009BFF1FC0C62D002C040100EA
:104DB000B494FF1FB094FF1F5807010054555505C8
:104DC000A893FF1F510500007D050000E090FF1F24
:104DD0000026D7F8CC20BE67204607F5AA7101F05F
:104DE00014FDD7F8A4603368D7F8A060B3FBF6F1E0
:104DF00006FB1131204601F016FD8D4BD7F8CC2073
:104E0000186007F5A671204601F0FFFCD7F8A460F2
:104E10003368D7F8A060B3FBF6F106FB11312046EA
:104E200001F001FDD7F8C810824BB142186080F242
:104E30001582002940F08C81D7F8CC20204607F558
:104E4000B27101F0E2FCD7F8C810204601F0F5FC81
:104E5000014607F5D87005F058FA07F5D87076497D
:104E600005F0F5FA20B1D7F89060013640F00F81D7
:104E7000D7F8D060002E01F0D78208E16F49704862
:104E8000FBF7EFFB01266F486C49FBF7EAFBFE647A
:104E9000D7F8906001360CD16B496948FBF7E1FB0C
:104EA0004FF0FF3667486849FBF7DBFBC7F89060B7
:104EB00048E10520FBF758FFC7F890000130EBD020
:104EC00062495F48FBF7CDFB60495E48FBF7C9FBD1
:104ED00007F5D8715A4805F02DFD07F5D8715948E6
:104EE00005F028FD5A495648FBF7BBFB5849554881
:104EF000FBF7B7FB57495248FBF7B3FB55495148FD
:104F0000FBF7AFFBD7F8CC20204607F5B27101F0D4
:104F10007CFC0121204601F090FC01464848FBF74B
:104F2000A0FBD7F8CC20204607F5B27101F06DFC4C
:104F30000121204601F081FC01464248FBF791FB2C
:104F400043493F48FBF78DFB41493E48FBF789FB4E
:104F500007F5D870404905F07AFA30B13F49384832
:104F6000FBF77FFB37483D4910E007F5D8703C4917
:104F700005F06DFA68B13B48FBF7F6FE0130FAD157
:104F800039492F48FBF76DFB2E483749FBF769FB82
:104F90003DE007F5D870354905F059FA064680B16D
:104FA0003048FBF7E1FE012808D131492448FBF7DE
:104FB00058FB2F492348FBF754FBC3E00130EFD1E6
:104FC000DEE707F5D8702B4905F041FAF8B1324613
:104FD00028462449FBF768FE1E491948FBF741FBA8
:104FE0001C491848FBF73DFB2946164805F0A2FC72
:104FF0002946134805F09EFC1F491148FBF731FB79
:1050000010481D49FBF72DFB284605F03DF907F533
:105010009270FBF75CFBD7F8CC60013886420848F9
:105020002ED01649FBF71DFB064814492DE000BFA2
:10503000D095FF1F1494FF1FC8FD00005D050100FF
:10504000C49AFF1F009BFF1F690501006E05010048
:105050002C04010070FF0000C0FF0000710501007A
:1050600075050100C0C62D007B050100810501000A
:105070008905010095050100720501002D0401005C
:105080006D49FBF7EEFA6D486B49FBF7EAFAD7F882
:10509000CC1007F5967001F0C6FBD7F8CC20D7F8F6
:1050A000BC30D7F88C10B861FDF7D4F8D7F8CC1025
:1050B000804607F59A7001F0B6FBD7F8CC20D7F8F8
:1050C000BC30D7F88C107861FDF7C4F8D7F8CC1055
:1050D000786707F59E7001F0A6FBD7F8CC20D7F8CB
:1050E000BC30D7F88C103861FDF7B4F8D7F8CC1085
:1050F000386707F5A27001F096FBD7F88C10D7F847
:10510000CC20D7F8BC303860FDF7A4F8064607F588
:10511000D87005F0B9F807F1A8010EC93963D7F8BE
:10512000B4107A63BB63F963D7F800C03A697B694E
:10513000B969C7F8A8C0C7F8AC20C7F8B030C7F83D
:10514000B41009E007F5D87005F09EF800F090BFA4
:1051500000263E677E67B046DFF8FCC0D7F8BC305B
:10516000DCF80000D7F88C10D7F8CC20C7F800C0C6
:10517000FDF770F8D7F800C0DCF80030023B122BC6
:105180003BD8DFE803F0283A3A3A3A3A3A3A2E1650
:105190001C3A340A103A3A3A2200294B29481A8814
:1051A000032101F025FE264B26481A88032101F031
:1051B0001FFE234B23481A88032101F019FE204BC0
:1051C00020481A88032101F013FE1F4B1D481A883E
:1051D000002101F00DFE1C4B1A481A88002101F035
:1051E00007FE1A4B17481A88022101F001FE174BDF
:1051F00014481A88022101F0FBFD154A04231360AC
:105200002022013AFDD1134A1360D7F8C8304BBBB6
:1052100019460D4B0B481A8801F0EAFD084B094866
:105220001A88032101F0E4FD084B06481A88022180
:1052300001F0DEFD16E000BF92050100009BFF1F9C
:10524000E893FF1FA492FF1F5895FF1FFC93FF1FB9
:1052500088F00F4084F00F40D095FF1F00263E6776
:105260007E67B046984B99491A6808680028FBD0B9
:10527000D2F1010238BF0022002AF5D1944B186800
:10528000944B197802F008FA934BB96F1860934B5E
:10529000102201291A6050D1F96B914BCAB2B96F33
:1052A00053F83220B8F1010F82F8001106D1D7F877
:1052B000B410CAB253F8322082F88080B96BCAB2F7
:1052C00053F83230012283F800217A6F012A08D185
:1052D000D7F8B030796FDAB2814B53F8323083F8B7
:1052E0008010796B7E4BCAB2012153F8322082F8CC
:1052F00000113A6F8A4207D1D7F8AC10CAB2396FA1
:1053000053F8322082F88010396BCAB253F8323029
:105310000122964283F8002107D1D7F8A830DAB2EB
:105320006F4B53F8323083F880606E4A0423136069
:105330002022013AFDD16C4A1360FE695EB9654BCB
:105340001B68222B02D0232B05D101E0674B00E024
:10535000674B1E6800E00026664B1B680BB35E4B74
:10536000D7F88820D7F898101B6851F822007B6086
:1053700006F0F6FC7B688046184606F0F1FC3146E4
:1053800006F038FC0146404606F036FC06F002FF07
:10539000D7F88810D7F8986046F821000131C7F88F
:1053A000881072B6484BD7F8C82000261E60474BBD
:1053B00001321E60C7F8C82062B6D7F8A4100B6887
:1053C00001330B6007F59270D7F8CC1001F02BFA7F
:1053D000D7F8CC20804607F5AA71204601F015FACF
:1053E0002046FBF774F9D7F8C82000FB08F082428A
:1053F00006D1D7F8CC30C7F8C8600133C7F8CC3035
:1054000009F10109BE6EB145FFF67AAC396A3A4E30
:1054100000913068D7F8CC20D7F8BC30D7F88C1082
:10542000FCF7B0FF3368D7F8B4602D4A9E4205D030
:10543000F1B2012652F8311081F80061D7F8B0605E
:105440009E4205D0F1B252F83120012182F80011BC
:10545000D7F8AC60224A9E4205D0F1B2012652F83C
:10546000311081F80061D7F8A8609E4205D0F1B2F2
:1054700052F83120012182F800110128184A0DD17B
:10548000184E042131602026013EFDD1DBB2164EBC
:1054900052F83330316083F8800005E0DBB252F817
:1054A0003330012283F80021144805F053F91448E1
:1054B00005F050F9044BD7F8A41000261E60034BEA
:1054C0001E600E6000F0B7BDF490FF1FA494FF1F94
:1054D000B494FF1F1494FF1F5C95FF1FC4F00F408E
:1054E0005807010088F00F4084F00F40A894FF1F78
:1054F000AC94FF1FD095FF1F6489FF1FA893FF1F67
:10550000E090FF1F584607F5AE71324601F07DF975
:105510000121584601F087F90128804659D13246C9
:10552000204607F5AE7101F070F90021204601F028
:1055300084F90146284604F0E8FE2846BE4904F0F6
:1055400086FF10F1000918BF4FF00109284604F04A
:105550009BFEB9F1000F3CD03246204607F5AE71F4
:1055600001F053F94146204601F05DF9FBF7D6FA08
:10557000B24BD7F8D0201B68013B9A4229D1B049E1
:10558000DFF8E492AF48FBF76CF8AD49AE48FBF7A3
:1055900068F8D9F8000005F0A3FF4FF002080246B2
:1055A0000B46CDF80080A748FBF761F8A749A5484E
:1055B000FBF757F8D9F8000005F092FFCDF800800E
:1055C00002460B46A048FBF752F89F489F49FBF75D
:1055D00048F8584607F5AE71324601F016F9012138
:1055E000584601F020F90128804659D1324620461C
:1055F00007F5AE7101F009F90021204601F01DF90F
:105600000146284604F081FE2846914904F01FFF18
:1056100010F1000918BF4FF00109284604F034FECC
:10562000B9F1000F3CD03246204607F5AE7101F0CB
:10563000ECF84146204601F0F6F8FBF774FA7F4B90
:10564000D7F8D0101B68013B994229D18149DFF876
:105650001C927C48FBF705F87E497B48FBF701F874
:10566000D9F8000005F03CFF4FF0020802460B4657
:10567000CDF800807348FAF7FAFF74497148FAF7D9
:10568000F0FFD9F8000005F02BFFCDF800800246AE
:105690000B466D48FAF7EBFF6B486C49FAF7E1FFF0
:1056A000584607F5AE71324601F0AFF80121584671
:1056B00001F0B9F80128804659D13246204607F555
:1056C000AE7101F0A2F80021204601F0B6F80146C3
:1056D000284604F01AFE28465F4904F0B8FE10F18F
:1056E000000918BF4FF00109284604F0CDFDB9F1BB
:1056F000000F3CD03246204607F5AE7101F085F828
:105700004146204601F08FF8FCF71AFA4B4BD7F8C8
:10571000D0201B68013B9A4229D15049DFF85091B3
:105720004848FAF79EFF4D494748FAF79AFFD9F8DB
:10573000000005F0D5FE4FF0020802460B46CDF8FA
:1057400000804048FAF793FF40493E48FAF789FF46
:10575000D9F8000005F0C4FECDF8008002460B46E3
:105760003948FAF784FF38483849FAF77AFF58463B
:1057700007F5AE71324601F048F80121584601F0B4
:1057800052F8012880467BD13246204607F5AE719B
:1057900001F03BF80021204601F04FF80146284671
:1057A00004F0B3FD28462E4904F051FE10F1000923
:1057B00018BF4FF00109284604F066FDB9F1000F4B
:1057C0005ED03246204607F5AE7101F01EF8414624
:1057D000204601F028F8FCF74BF8184BD7F8D0100A
:1057E0001B68013B99424BD11E49DFF88890154850
:1057F000FAF737FF1B491448FAF733FFD9F80000CE
:1058000005F06EFE4FF0020802460B46CDF8008010
:105810000C48FAF72CFF0D490A48FAF722FFD9F88D
:10582000000005F05DFECDF8008002460B460648FC
:10583000FAF71DFF20E000BF3B0401007889FF1F3D
:105840004D040100C49AFF1F009BFF1F2D0401009F
:105850007D0401006204010071040100890401005B
:10586000A4040100A80401003892FF1F1094FF1F38
:105870002094FF1FBC93FF1FC148C249FAF7F1FEF5
:10588000584607F5AE71324600F0BFFF0121584679
:1058900000F0C9FF0128804640F0E48032462046EF
:1058A00007F5AE7100F0B1FF0021204600F0C5FF02
:1058B0000146284604F029FD2846B34904F0C7FDF7
:1058C00010F1000918BF4FF00109284604F0DCFC74
:1058D000B9F1000F00F0C6803246204607F5AE71E0
:1058E00000F093FF4146204600F09DFFFBF720F9B2
:1058F000A64BD7F8D0201B68013B9A4240F0B280FB
:10590000DFF8A892A249A348FAF7ABFEA0499C4849
:10591000FAF7A7FED9F80000FBF7C8FA05F0E0FD9A
:105920004FF0020802460B46CDF800809948FAF77E
:105930009EFE94499748FAF794FED9F80000DFF8E4
:105940007092FBF7B3FA05F0CBFDCDF8008002466C
:105950000B468B48FAF78BFE8A498948FAF781FE95
:105960008D498C48FAF77DFE8B498548FAF779FE18
:10597000D9F80000FBF79AFA05F0B2FDCDF80080E7
:1059800002460B468348FAF772FE7E498148FAF7D1
:1059900068FED9F80000DFF81C92FBF787FA05F0E3
:1059A0009FFDCDF8008002460B467548FAF75FFE72
:1059B00074497348FAF755FE78497648FAF751FE6C
:1059C00076496F48FAF74DFED9F80000FBF76EFAFA
:1059D00005F086FDCDF8008002460B466D48FAF7CB
:1059E00046FE68496B48FAF73CFED9F80000DFF83C
:1059F000C891FBF75BFA05F073FDCDF80080024615
:105A00000B465F48FAF733FE5E495D48FAF729FE18
:105A100063496048FAF725FE61495948FAF721FEC3
:105A2000D9F80000FBF742FA05F05AFDCDF80080E6
:105A300002460B465748FAF71AFE52495548FAF7FC
:105A400010FED9F80000FBF731FA05F049FDCDF85A
:105A5000008002460B464A48FAF709FE4848494981
:105A6000FAF7FFFD584607F5AE71324600F0CDFE5D
:105A70000121584600F0D7FE0128804640F0F3800F
:105A80003246204607F5AE7100F0BFFE00212046E9
:105A900000F0D3FE0146284604F037FC2846414971
:105AA00004F0D5FC10F1000918BF4FF00109284699
:105AB00004F0EAFBB9F1000F00F0D5803246204631
:105AC00007F5AE7100F0A1FE4146204600F0ABFEA6
:105AD000FBF72EF82D4BD7F8D0101B68013B9942ED
