:1000000000800020BD010000219B0000219B00001A
:10001000219B0000219B0000219B0000ED9A000025
:10002000ED9A0000ED9A0000ED9A0000219B00007F
:10003000219B0000ED9A0000219B0000DD9A00004A
:10004000219B0000219B0000219B0000219B0000C0
:10005000219B0000219B0000219B0000219B0000B0
:10006000219B0000219B0000219B0000219B0000A0
:10007000219B0000219B0000219B0000219B000090
:10008000219B0000219B0000219B0000219B000080
:10009000219B0000AD840000219B0000219B0000FB
:1000A000CD750000219B0000219B0000219B0000DA
:1000B000219B0000219B0000219B0000219B000050
:1000C000219B0000219B0000219B0000219B000040
:1000D000219B0000219B0000219B0000219B000030
:1000E000219B0000219B0000219B0000219B000020
:1000F000219B00001D910000219B0000D1B3000056
:10010000219B0000858C0000219B0000219B0000AA
:10011000219B0000219B0000219B0000219B0000EF
:10012000219B0000219B0000219B0000219B0000DF
:10013000219B0000219B0000219B0000219B0000CF
:10014000219B0000219B0000219B0000219B0000BF
:10015000F9AA000011AB000029AB000041AB000080
:10016000219B000099930000219B0000219B00002F
:10017000219B0000219B0000219B0000219B00008F
:10018000219B0000219B0000219B0000219B00007F
:10019000219B0000219B0000219B0000059D000089
:1001A000559D0000DD9D0000999E00001D9F0000F0
:1001B000219B0000219B0000219B0000544B4CF22E
:1001C000205210B51A804DF628121A8000BF00BFC9
:1001D00008F0B0F94F4B4FF010621A604E4A9A6027
:1001E0004E4ADA604E4B1A6812F4807204D14D49BF
:1001F0000A604FF4A8521A604B4B1A7802F00802BA
:10020000D2B21AB11A7842F008021A70474B484825
:10021000484C2A221A700023474A02E01959995083
:10022000043399188142F9D3444B454A002101E037
:1002300043F8041B9342FBD34249434800231A5816
:100240005A500433B3F5DE7FF9D1404B404A802148
:1002500003F8011B9342FBD13A4A3E4B1A603E4BD6
:100260000A221A703D4B24221A70A02203F8012C96
:100270003B4A137803F00203DBB2002BF9D0384A73
:10028000137803F01003DBB2002BF9D1344A137852
:1002900003F00C03082BFAD1324B03221A704022D0
:1002A0005A702F4A137803F02003DBB2002BF9D0E9
:1002B0002B4A137803F04003DBB2002BF9D02A4B12
:1002C0002A4A1A6002225A60294B20221A70244AB4
:1002D000137803F00C030C2BFAD1264A264B1A6034
:1002E000264B274A1A60072243F8042C62B609F00D
:1002F000F7FF0C4B1B68DC0702D5224809F026FEED
:100300000CF07AFA09F00FFC0AF046FAFEE700BF9B
:100310000E20054030800440823F04000100002B85
:1003200010D0034014D0034002D0074000E0074043
:100330005890FF1FBC1201006089FF1F5890FF1FDB
:10034000009DFF1F0084FF1F0000000000E400E08C
:100350005FE400E008ED00E0005006400140064088
:10036000064006400440064044800440000003016B
:1003700000400640C01005000480044014E000E086
:10038000FF7601005B964855FFFFFFFFFFFFFFFF71
:10039000FFFFFFFFFFFFFFFFFFFFFFFFFFFFFFFF6D
:1003A000FFFFFFFFFFFFFFFFFFFFFFFFFFFFFFFF5D
:1003B000FFFFFFFFFFFFFFFFFFFFFFFFFFFFFFFF4D
:1003C000FFFFFFFFFFFFFFFFFFFFFFFFFFFFFFFF3D
:1003D000FFFFFFFFFFFFFFFFFFFFFFFFFFFFFFFF2D
:1003E000FFFFFFFFFFFFFFFFFFFFFFFFFFFFFFFF1D
:1003F000FFFFFFFFFFFFFFFFFFFFFFFFFFFFFFFF0D
:10040000FFFFFFFFFFFFFFFFFFFFFFFFFEFFFFFFFD
:1004100008B549F25800074BC1F6FF701B1A062BAE
:1004200000D808BD40F20003C0F20003002BF8D052
:100430009847F6E75B90FF1F08B549F2580049F26C
:100440005803C1F6FF70C1F6FF731B1A9B1003EB34
:10045000D373591000D108BD40F20002C0F200026F
:10046000002AF8D09047F6E710B549F25804C1F6D3
:10047000FF74237873B9FFF7CBFF40F20003C0F29B
:1004800000032BB141F2BC20C0F20100AFF30080A9
:100490000123237010BD00BF08B540F20003C0F275
:1004A00000034BB141F2BC2049F25C01C0F20100F3
:1004B000C1F6FF71AFF3008049F25800C1F6FF703A
:1004C00003682BB140F20003C0F2000303B1984768
:1004D000BDE80840B0E700BF024B4FF400121A60BD
:1004E000704700BF80E100E010B504460AF0C2FB8F
:1004F000204610BD70B503460D46164607481946FE
:100500002A4607F0DFFA002404E0044806F042FF20
:1005100030550134E3B2AB42F7D370BD0896FF1FEC
:10052000034670B509480D4619461646002407F0E3
:10053000CBF903E0315D06F0EBFE0134E3B2AB42F0
:100540000248F7D3BDE8704007F0D3BA0896FF1F02
:10055000064B10221A60064B1A78064B53F83220CD
:10056000012382F88030044A13607047C8F00F40BE
:10057000F893FF1F480D01006091FF1F054B1A788B
:10058000054B53F83220012382F80031034A1360EF
:10059000704700BFF893FF1F480D0100B894FF1F7C
:1005A00038B50A480A4D06F03BFB0A4B044618686A
:1005B0000BF066FE014620460BF06AFF01462868F4
:1005C0000BF0AAFD2860204638BD00BFCC94FF1F69
:1005D0004892FF1F7889FF1F38B50A480A4D06F078
:1005E000BBFA0A4B044618680BF04AFE0146204647
:1005F0000BF04EFF014628680BF08EFD2860204668
:1006000038BD00BFCC94FF1F2494FF1F7889FF1FC3
:1006100030B5ADF5B05D81B0684600214FF4B05201
:100620000CF012FD00246D4621462A5D0548013478
:1006300006F025FAB4F5B05FF6D10DF5017D0DF5A4
:10064000A05D30BDFC95FF1F38B5044608460D4639
:1006500008F06EFB236802465B68204629469847EF
:1006600038BD08B5FFF7F0FF08BD0AF05BBC9DF888
:10067000001000910AF060BC38B504460AF0EAFBAD
:10068000054620460AF008FC401938BD38B5044636
:10069000FFF7DAFF054620460AF0FEFB281838BDB2
:1006A00038B504460AF03EFC054620460AF0F4FB45
:1006B000281838BD37B59DF81810009104460AF087
:1006C0003BFC054620460AF0E7FB28183EBD406883
:1006D00000B1C0687047FFFF0D4B70B540241C602F
:1006E000322009F0E7FD0B4B0B4D0C4E1C600C4CFF
:1006F00031462846FFF7CAFF31462046FFF7C6FFBE
:1007000028460AF0C9FB2046BDE870400AF0C4BB89
:10071000C4F00F40C8F00F40249BFF1F04010100EC
:10072000E89AFF1F10B517491748184CFFF799FFB3
:1007300017481449FFF795FF236863B91549124814
:10074000FFF7A4FF12481349FFF7A0FF124B022244
:100750001A6001230DE0012B0CD110490A48FFF764
:1007600095FF0B480D49FFF791FF0D4B02221A60D0
:100770000023236004480AF08FFB0548BDE81040C1
:100780000AF08ABB17010100249BFF1FF095FF1F91
:10079000E89AFF1F1001010084F00F402C010100B6
:1007A00088F00F402DE9F74F002140F6FF724D48C9
:1007B00006F0A2FD4C4A0423202413602246013A8D
:1007C000FDD14A4A4A4F1360112009F09BFE494B64
:1007D000494E1C6005460A2009F06CFD112009F005
:1007E00091FE83466E2009F065FD112009F08AFE16
:1007F000424BDFF818911C60414C82462146384636
:10080000FFF72FFF21463046FFF72BFF28460BF05E
:1008100037FD3C490BF03CFE0BF0F2F84FF00208BC
:1008200004460D460B462246CDF800803846FFF7B9
:100830001EFF22462B46CDF800803046FFF717FFFB
:1008400049463846FFF70DFF49463046FFF709FF96
:1008500058460BF015FD2B490BF01AFE0BF0D0F8A3
:1008600004460D460B462246CDF800803846FFF779
:10087000FEFE22462B46CDF800803046FFF7F7FEFD
:1008800049463846FFF7EDFE49463046FFF7E9FE98
:1008900050460BF0F5FC1B490BF0FAFD0BF0B0F8DD
:1008A00004460B462246CDF8008038460D46FFF739
:1008B000DEFE2246144CCDF800802B463046FFF772
:1008C000D6FE21463846FFF7E1FE21463046FFF7C7
:1008D000DDFE38460AF0E0FA304603B0BDE8F04FDE
:1008E0000AF0DABAB492FF1F88F00F4084F00F408C
:1008F000249BFF1FC4F00F40E89AFF1FC8F00F4071
:100900003201010000601345430101001F0A01008C
:100910002DE9F34707460E460AA8002114469846DB
:100920000C9D06F004FA002840F3EA8075497648E9
:10093000FFF797FE294674480AF08CFA734972480B
:10094000FFF78FFE6F497248FFF78BFE294670480C
:100950000AF080FA6D496E48FFF783FE20460021B9
:100960000BF076FE002840F0BA8020460BF048F8E5
:10097000022704460D460B46224600976248FFF7C1
:1009800076FE0097624822462B46FFF770FE3068DD
:1009900000210BF05DFE002840F0AA805D495A4816
:1009A000FFF75FFE40460BF02BF8044622460B464D
:1009B000009755480D46FFF75AFE56495448FFF731
:1009C00050FE009722462B465148FFF750FE8FE01D
:1009D00051494D48FFF745FE21460AA806F0A7F900
:1009E000014649480AF09EFA4A494748FFF739FE4E
:1009F00049494748FFF735FE21460AA806F097F90E
:100A0000014643480AF08EFA41484249FFF729FE61
:100A100000254FE021460AA858F825A006F087F9DE
:100A20000BF02EFC014650464FEA85090BF010FEF4
:100A300000283ED057F809000AF0E2FF02250246DE
:100A40000B4600953048FFF712FE57F809000AF0F0
:100A5000D7FF009502460B462D48FFF708FE306889
:100A600000210BF0F5FDD8B92A492748FFF7F9FD19
:100A700056F809000AF0C4FF009502460B462248CA
:100A8000FFF7F5FD23492248FFF7EBFD56F8090073
:100A90000AF0B6FF009502460B461D48FFF7E7FD3A
:100AA0001E491948FFF7DDFD1C491948FFF7D9FD1C
:100AB00002E001351A2DADD1012009F0FBFB0AA897
:100AC000FFF705FE0138844207D012490E48FFF7B0
:100AD000C8FD0F480F49FFF7C4FD013402E0DFF8FD
:100AE000448000240AA8FFF7F2FD8442FFF670AFAD
:100AF0000B490548FFF7B5FD05480949FFF7B1FD6A
:100B0000BDE8FC8722050100249BFF1F5301010063
:100B1000E89AFF1F1F0A010056010100650B010042
:100B2000840B01008889FF1F10B52820002109F0DF
:100B3000ADFA28210A2200230A480AF0BBF9094825
:100B40000AF0AAF96424282009F0DCFC01460548D3
:100B5000FFF7A6FD4FF4FA6009F0ACFB013CF2D1BF
:100B600010BD00BF249BFF1F70B50C2009F0FEF9DB
:100B70002820012109F08AFA40F2DC553BE00446C6
:100B80002146282009F09EFA032009F093FB1A2041
:100B900009F0B8FC214606461C48FFF766FD1C49D3
:100BA0001A48FFF75EFD31461848FFF75EFD013435
:100BB00016481749FFF76AFDAC42E1D121462820CB
:100BC00009F080FA032009F075FB1A2009F09AFC5D
:100BD000214606460D48FFF748FD0D490B48FFF733
:100BE00040FD31460948FFF740FD08480849FFF736
:100BF0004DFD013CE2D107F00DFE0028BFD007F00B
:100C0000C3FDBDE8704007F0BFBD00BF249BFF1FC0
:100C10001F0A0100012801D8FFF7C2BC7047012854
:100C200001D8FFF7D9BC704701282DE9F8438CBFE4
:100C3000002401240CB903283DD1204806F02AFBEA
:100C400005461E4806F01FFB80461C4806F014FBB4
:100C500007461A4806F009FB81464CB3184B194E5B
:100C60001C68B5FBF4F00BF007FB014630680BF095
:100C700053FA3060B8FBF4F00BF0FEFA124E014666
:100C800030680BF049FA3060B7FBF4F00BF0F4FA7F
:100C90000E4E014630680BF03FFA3060B9FBF4F0BD
:100CA0000BF0EAFA0A4E014630680BF035FA306074
:100CB0002846BDE8F883BDE8F88300BFE893FF1F2E
:100CC0007889FF1FC494FF1FD094FF1F2094FF1F3B
:100CD0003894FF1F2DE9F74F2A4DDFF8B4B0DFF845
:100CE000B4A0294EDFF8B090DFF8B080274C594609
:100CF0002846FFF7B6FCDAF800000AF081FE02276A
:100D000002460B4600972846FFF7B1FC31462846BD
:100D1000FFF7A7FC49462846FFF7A3FCD8F80000D8
:100D20000AF06EFE009702460B462846FFF79FFC2E
:100D300059462046FFF795FCDAF800000AF060FEFD
:100D4000009702460B462046FFF791FC31462046AD
:100D5000FFF787FC49462046FFF783FCD8F80000E0
:100D60000AF04EFE009702460B462046FFF77FFC36
:100D700031462846FFF775FC20463146FFF771FCE7
:100D8000BDE8FE8F249BFF1F1F0A0100E89AFF1F8A
:100D9000F9010100F089FF1F08020100F495FF1F0F
:100DA0002DE9F0410D46ADF57E7D04462B48DFF878
:100DB000B880164609F09AFF2946294809F096FF9F
:100DC0004FF47A72002104A80CF03EF9204600216D
:100DD00009F02BFD234B1A680192019D1A680292BB
:100DE000029A1F460DE03B6803930398401B0BF0EB
:100DF00047FAD8F800100BF053FC10B1FFF76CFC69
:100E000005E007F007FD10B908F030F9E8B107F088
:100E100001FD002805DD07F0DFFC5B2818D00F4836
:100E200008E008F023F9002812DD08F045F95B28F6
:100E30000ED00B482B2104AA4FF47A7309F058FF07
:100E4000204604A909F029FD02E0012ED9D1CAE704
:100E500020460DF57E7DBDE8F08100BF249BFF1F7D
:100E6000E89AFF1FDC9AFF1FF489FF1FF0B50446C4
:100E700091B02248214609F039FF2148214609F066
:100E800035FF2022002108A80CF0DEF804A800217C
:100E900009F0CBFC1B4B1A680192019E1A68029262
:100EA000029A1F4607F0B6FC10B908F0DFF8C0B18F
:100EB00008F0DCF8002801DD114804E007F0AAFC86
:100EC000002815DD0D4808AA20232B2109F010FF6A
:100ED00008A904A809F0E1FC04980BF03BFC0546C6
:100EE00006E03B680393039B9B1BA342DADDDFE72D
:100EF00004A809F059FC284611B0F0BD249BFF1F3F
:100F0000E89AFF1FDC9AFF1F2DE9F041064690B0DA
:100F10002448314609F0EAFE2348314609F0E6FE4E
:100F20002022002108A80CF08FF804A8002109F065
:100F30007CFC1E4B1A680192019F1A680292029A69
:100F4000984607F067FC10B908F090F8C8B107F0B0
:100F500061FC002801DD134804E008F087F8002850
:100F600017DD114808AA20232B2109F0C1FE08A98A
:100F700004A809F092FC04980BF0E8FB04460D4627
:100F800007E0D8F800300393039BDB1BB342D8DDA6
:100F9000DDE704A809F008FC2046294610B0BDE8AA
:100FA000F08100BF249BFF1FE89AFF1FDC9AFF1F00
:100FB00008B5064B19680BF0ADF8054B19680BF036
:100FC00067FA0BF077FB0BF05BF908BDF495FF1F98
:100FD000F089FF1F2DE9F041314D06468846002477
:100FE00030460BF04DF9014655F824000BF030FB6C
:100FF000002830D02B4B53F824602B4B53F824702F
:101000002A4B53F824502A4B304653F824100BF047
:1010100081F831460BF03CFA014628460BF084F982
:10102000014628460BF078F8224B53F82460224BF7
:10103000054653F8241038460BF06CF839460BF08F
:1010400027FA014630460BF06FF9014630460BF0A7
:1010500063F8044604E001341A2CC1D1002425466B
:101060002046002101270BF0F3FA00B10027FFB260
:1010700047B92846002101260BF0EAFA00B13E46A6
:10108000F0B250B140460BF0FBF821460BF042F8AD
:1010900029460BF0FDF90BF033FBBDE8F08100BFF2
:1010A0008889FF1F4094FF1FE090FF1FE892FF1FF9
:1010B0004C92FF1F5093FF1FDC94FF1F73B50D462A
:1010C0000446334933481646FFF7CBFA21463148E8
:1010D00009F0C0FE30492F48FFF7C3FA2C492F48CA
:1010E000FFF7BFFA21462D4809F0B4FE2A492B48E4
:1010F000FFF7B7FA28680AF083FC022402460B4681
:1011000000942448FFF7B3FA28680AF079FC0094A9
:1011100002460B462148FFF7AAFA21491D48FFF76E
:10112000A0FA1F491D48FFF79CFA68680AF068FC9E
:10113000009402460B461748FFF799FA68680AF0D0
:101140005FFC009402460B461448FFF790FA1549DD
:101150001048FFF786FA11481249FFF782FA012E6C
:101160000C4805D00E49FFF791FA0C480C490CE0E9
:101170000D49FFF78BFA0D490648FFF787FA0A4930
:101180000648FFF783FA05480849FFF77FFA7CBD58
:1011900022050100249BFF1F11030100E89AFF1F95
:1011A0001F0A0100650B0100150101007A0301000F
:1011B000F7B504460D462E482E491746FFF751FA5B
:1011C00021462B4809F046FE2B492948FFF749FAEA
:1011D00028492A48FFF745FA2146284809F03AFEEF
:1011E00026482549FFF73DFA0024022628680AF020
:1011F00007FC009602460B461D48FFF738FA55F8E3
:10120000040B0AF0FDFB009602460B461B48FFF755
:101210002EFA192C07D01A491548FFF722FA174859
:101220001749FFF71EFA01341A2CDFD1154910486F
:10123000FFF717FA11481349FFF713FA012F0C486B
:1012400005D00F49FFF722FA0C480D490CE00E4972
:10125000FFF71CFA0D490648FFF718FA0A49074834
:10126000FFF714FA05480949FFF710FAFEBD00BF61
:10127000249BFF1F2205010011030100E89AFF1FB4
:101280001F0A0100650B0100150101007A0301002E
:1012900010B50AF0F5FF0B4B196804460BF044F843
:1012A000094B19680AF038FF084B1860084B2046B4
:1012B00019680BF039F8074B19680AF02DFF064B37
:1012C000186010BD0494FF1F6491FF1FBC94FF1FA2
:1012D0000894FF1F6891FF1FC094FF1F2DE9F7437B
:1012E000054638B953495448FFF7BBF953485149AB
:1012F000FFF7B7F9DFF8689151494F48DFF864818B
:10130000504F514EFFF7ADF9D9F800000AF078FBC5
:10131000022402460B4600944748FFF7A8F94B49C0
:101320004548FFF79EF94A494348FFF79AF9D8F82C
:1013300000000AF065FB009402460B463E48FFF7AA
:1013400096F942493C48FFF78CF942493A48FFF781
:1013500088F938680AF054FB009402460B46364878
:10136000FFF785F939493448FFF77BF93A493248A4
:10137000FFF777F930680AF043FB009402460B460A
:101380002D48FFF774F92E492C48FFF76AF9D9F870
:1013900000000AF035FB009402460B462748FFF791
:1013A00066F92A492548FFF75CF929492348FFF7E0
:1013B00058F9D8F800000AF023FB009402460B46C7
:1013C0001E48FFF754F921491C48FFF74AF9214903
:1013D0001A48FFF746F938680AF012FB00940246F3
:1013E0000B461648FFF743F918491448FFF739F937
:1013F00019491248FFF735F930680AF001FB0094EB
:1014000002460B460D48FFF732F9012D0A4807D175
:101410000E49FFF726F90D490848FFF722F906E0C3
:101420000E49FFF733F905480C49FFF72FF9BDE8DE
:10143000FE8300BF1D020100249BFF1FE89AFF1FCF
:101440001F0201000894FF1F6891FF1F1F0A01007F
:101450002B0201003C0201004802010015010100BD
:101460000494FF1F6491FF1F01282DE9F341884672
:1014700016461D463DD1A64FA649A748FFF7F1F8ED
:1014800038680AF0BDFA022402460B460094A248CE
:10149000FFF7EDF8A149A048FFF7E3F878680AF0F4
:1014A000AFFA009402460B469B48FFF7E0F89C49D0
:1014B0009948FFF7D6F897499A48FFF7D2F8386865
:1014C0000AF09EFA009402460B469648FFF7CFF8C2
:1014D00092499448FFF7C5F878680AF091FA0094A9
:1014E00002460B468F48FFF7C2F88E488C49FFF73B
:1014F000B8F8B8F1010F3DD18B4F8C498648FFF702
:10150000B0F838680AF07CFA022402460B460094D0
:101510008148FFF7ACF881497F48FFF7A2F8786867
:101520000AF06EFA009402460B467B48FFF79FF8DC
:101530007B497948FFF795F87C497A48FFF791F89D
:1015400038680AF05DFA009402460B467548FFF7CA
:101550008EF872497348FFF784F878680AF050FAF9
:10156000009402460B466F48FFF781F86D486C49BE
:10157000FFF777F8012E3DD16D4E6E496648FFF7B3
:1015800070F830680AF03CFA022402460B460094D8
:101590006148FFF76CF861495F48FFF762F87068CF
:1015A0000AF02EFA009402460B465B48FFF75FF8FC
:1015B0005B495948FFF755F85E495A48FFF751F81B
:1015C00030680AF01DFA009402460B465548FFF7B2
:1015D0004EF852495348FFF744F870680AF010FA81
:1015E000009402460B464F48FFF741F84D484C49DE
:1015F000FFF737F8012D3DD14F4D50494648FFF7D1
:1016000030F828680AF0FCF9022402460B460094E0
:101610004148FFF72CF841493F48FFF722F8686836
:101620000AF0EEF9009402460B463B48FFF71FF81C
:101630003B493948FFF715F840493A48FFF711F898
:1016400028680AF0DDF9009402460B463548FFF79A
:101650000EF832493348FFF704F868680AF0D0F909
:10166000009402460B462F48FFF701F82D482C49FD
:10167000FEF7F7FF089B012B3DD1314D314926483C
:10168000FEF7EFFF28680AF0BBF9022402460B467A
:1016900000942148FEF7EBFF20491F48FEF7E1FFC9
:1016A00068680AF0ADF9009402460B461A48FEF746
:1016B000DEFF1B491848FEF7D4FF22491948FEF700
:1016C000D0FF28680AF09CF9009402460B461548A2
:1016D000FEF7CDFF11491348FEF7C3FF68680AF013
:1016E0008FF9009402460B460E48FEF7C0FF0D48E6
:1016F0000B49FEF7B6FF099B012B5ED1124D134932
:101700000548FEF7AEFF28680AF07AF902241FE0C8
:10171000D494FF1F59020100249BFF1F1F0A0100E0
:10172000840B0100E89AFF1FA894FF1F6A020100C2
:101730004495FF1F7B020100B094FF1F8C02010043
:101740005495FF1F9D0201005C95FF1FAE02010032
:1017500002460B460094A548FEF789FFA449A3481A
:10176000FEF77FFF68680AF04BF9009402460B46CB
:101770009E48FEF77CFF9F499C48FEF772FF9E49FA
:101780009E48FEF76EFF28680AF03AF90094024678
:101790000B469A48FEF76BFF95499848FEF761FFA4
:1017A00068680AF02DF9009402460B469348FEF74C
:1017B0005EFF92488F49FEF754FF0A9B012B3DD1F3
:1017C0008F4D90498948FEF74CFF28680AF018F9B8
:1017D000022402460B4600948448FEF748FF8449E1
:1017E0008248FEF73EFF68680AF00AF90094024654
:1017F0000B467E48FEF73BFF7E497C48FEF731FFF3
:1018000080497E48FEF72DFF28680AF0F9F8009419
:1018100002460B467948FEF72AFF75497748FEF7DE
:1018200020FF68680AF0ECF8009402460B46734803
:10183000FEF71DFF71486F49FEF713FF0B9B012B4D
:101840003DD1714D71496948FEF70BFF28680AF0D8
:10185000D7F8022402460B4600946448FEF707FFBF
:1018600063496248FEF7FDFE68680AF0C9F8009413
:1018700002460B465D48FEF7FAFE5E495B48FEF7FE
:10188000F0FE62495D48FEF7ECFE28680AF0B8F801
:10189000009402460B465948FEF7E9FE5449574862
:1018A000FEF7DFFE68680AF0ABF8009402460B46CC
:1018B0005248FEF7DCFE51484E49FEF7D2FE0C9B23
:1018C000012B3DD1524D53494848FEF7CAFE2868C6
:1018D0000AF096F8022402460B4600944348FEF7AD
:1018E000C6FE43494148FEF7BCFE68680AF088F826
:1018F000009402460B463D48FEF7B9FE3D493B4881
:10190000FEF7AFFE43493D48FEF7ABFE28680AF0FC
:1019100077F8009402460B463848FEF7A8FE344993
:101920003648FEF79EFE68680AF06AF800940246A0
:101930000B463248FEF79BFE30482E49FEF791FEDB
:101940000D9B012B3DD1344D34492848FEF789FECB
:1019500028680AF055F8022402460B4600942348F2
:10196000FEF785FE22492148FEF77BFE68680AF0F3
:1019700047F8009402460B461C48FEF778FE1D49C6
:101980001A48FEF76EFE25491C48FEF76AFE2868D5
:101990000AF036F8009402460B461848FEF767FE38
:1019A00013491648FEF75DFE68680AF029F80094AE
:1019B00002460B461148FEF75AFE10480D49FEF745
:1019C00050FE0E9B012B5DD1154D16490748FEF7C1
:1019D00048FE28680AF014F8022402460B460094D8
:1019E0000248FEF744FE02491EE000BF249BFF1F91
:1019F0001F0A0100840B0100AE020100E89AFF1FDC
:101A00006495FF1FBF0201006C95FF1FD00201000B
:101A10007495FF1FE10201007C95FF1FF202010097
:101A20006C91FF1F030301001748FEF71AFE686858
:101A300009F0E6FF009402460B461348FEF717FE36
:101A400012491148FEF70DFE11491248FEF709FE32
:101A5000286809F0D5FF009402460B460D48FEF7B2
:101A600006FE0D490B48FEF7FCFD686809F0C8FF4B
:101A7000009402460B460748FEF7F9FD0548034966
:101A8000FEF7EFFDBDE8FC81249BFF1F840B0100E6
:101A900003030100E89AFF1F1F0A01007FB5244BD2
:101AA0001A680192019D1A6802920C46029A1E461B
:101AB0001DE007211F4807F077F8322008F0FAFBF5
:101AC00033680393039B5B1BA34210DD1A491B4839
:101AD000FEF7C7FD18491A48FEF7C3FD1949174814
:101AE000FEF7BFFD17491648FEF7BBFD14E007F0EF
:101AF00083F80028DDD00FE001340A2C09DD01E075
:101B000007F088F807F078F80028F9D100240E4D86
:101B100007E0322008F0CEFB07F06EF80628EBDD78
:101B2000F4E707F077F828550134072CF9D17FBD89
:101B3000DC9AFF1F6889FF1F15030100249BFF1F0C
:101B4000E89AFF1F1F0A01004C95FF1F08B5C278D5
:101B5000007900EB02200AF08FFB034B19680AF0B2
:101B6000E3FB0AF0CDFD08BD7089FF1F38B54FF4C7
:101B7000FA610C480C4DFFF791FF0C48FFF7E6FFA8
:101B80000446642008F096FB094B1868B4FBF0F09B
:101B90000AF072FB014628680AF0BEFA2860204667
:101BA00038BD00BF6889FF1FCC93FF1F4C95FF1FF6
:101BB0007889FF1F012801D8FFF7D8BF7047FFFFC2
:101BC0002DE9F74F7C4E304604F09EFF09F006FFEA
:101BD000044630460D4604F091FF09F0FFFE62A373
:101BE000D3E9002309F060FF0022744B0AF086F865
:101BF0000022724B0AF082F8002206460F46204669
:101C000029466F4B09F050FF59A3D3E9002309F08F
:101C100099FD59A3D3E9002382468B4609F090FD34
:101C200057A3D3E9002304460D4609F03DFF0022E7
:101C3000644B09F087FD54A3D3E90023804689460D
:101C40002046294609F030FF22462B4609F02CFF9A
:101C500002460B464046494609F074FD5A4B804601
:101C60001868894609F0CCFE02460B4640464946B4
:101C700009F01AFF46A3D3E900230AF03FF8002237
:101C8000CDE900014D4B304639460AF037F842A302
:101C9000D3E90023804689462046294609F004FFFF
:101CA0003FA3D3E9002309F04BFD3FA3D3E9002371
:101CB00006460F462046294609F0F6FE22462B46E8
:101CC00009F0F2FE02460B463046394609F03AFD6D
:101CD00002460B464046494609F032FD524604464C
:101CE0000D465B465046594609F0DEFE52465B46BD
:101CF00009F0DAFE52465B4609F0D6FE2CA3D3E982
:101D0000002306460F462046294609F0CDFE22460E
:101D10002B4609F0C9FE02460B462046294609F02B
:101D200011FD1BA3D3E9002304460D46DDE90001A4
:101D300009F0E4FF02460B462046294609F0DEFF83
:101D400002460B463046394609F0FCFC09F0AEFB72
:101D500009F0ACFB06A3D3E9002309F0F1FC03B0C2
:101D6000BDE8F08FAFF30080000000000088634002
:101D700066666666661271406666666666A2724050
:101D800079E9263108AC5C3FE446D3D15898F1BEDE
:101D900000000000D0126341E43C73414320A3BE25
:101DA0004DB1B49D00D4FE3E75466524BDE2333E80
:101DB000CDCCCCCCCCCC2A404891FF1F00408F40EA
:101DC0000000A03F0000F03F7489FF1FAFF30080C8
:101DD00070B5FFF7F5FE0AF049F904461E4804F015
:101DE0009BFE4FF47A6008F065FA20461B490126F5
:101DF0000AF056FC00B90026F6B24EB92046184942
:101E000001250AF02FFC00B9354615F0FF0F13D05D
:101E1000144B154C154916481C60FEF722FC13495B
:101E20001448FEF71EFC14491148FEF71AFC12492B
:101E30001048FEF716FC0DE0104B0A4D18680AF02A
:101E40001FFA014620460AF023FB014628680AF0E3
:101E500063F92860204670BD4891FF1F00007A4456
:101E6000000070C23494FF1F0000C6C2330301009B
:101E7000249BFF1FE89AFF1F1F0A01007889FF1F9C
:101E8000012801D8FFF7A4BF704708B501E006F0AC
:101E90007BFC06F0BFFC0028F9DC01E007F0F4F859
:101EA00007F0E4F80028F9DC08BDFFFFF7B54EF6AF
:101EB0006020FFF729F804460D46B648B649FEF7FC
:101EC000D0FBB549B548FEF7CCFB20462946002299
:101ED00000230AF051F8002840F03D8202260096C7
:101EE00022462B46AB48FEF7C2FB22462B46009605
:101EF000AA48FEF7BCFBAA49A648FEF7B2FBA849D0
:101F0000A648FEF7AEFB06F03FFC06F03DFCA54BF5
:101F1000A04820221A6080221A6008F0BDFFA24962
:101F20009C48FEF79EFB00219A48FEF7B9FB9948B2
:101F30009E49FEF7ABFB002640F6FE77B2B20021C9
:101F40009B4805F0D9F931469248FEF78EFB94493B
:101F50009048FEF786FB322008F0ACF9304609F0D5
:101F60003DFD22462B4609F0EDFB0AF037F8B8425A
:101F70000646E3DD8F4B874880221A6008F08CFF0D
:101F800089498448FEF76DFB01218248FEF788FBF2
:101F900080488949FEF77AFB002640F6FE77B2B208
:101FA0000121834805F0A8F931467A48FEF75DFB28
:101FB0007B497848FEF755FB322008F07BF9304624
:101FC00009F00CFD22462B4609F0BCFB0AF006F88E
:101FD000B8420646E3DD774B6E4820221A600122A4
:101FE00043F8042C802243F8042C08F055FF6E4976
:101FF0006848FEF736FB00216648FEF751FB65484E
:102000006E49FEF743FB002640F6FE77B2B2002190
:10201000674805F071F931465E48FEF726FB6049D6
:102020005C48FEF71EFB322008F044F9304609F008
:10203000D5FC22462B4609F085FB09F0CFFFB842BC
:102040000646E3DD5B4B534880221A6008F024FF0C
:1020500055495048FEF705FB01214E48FEF720FB8D
:102060004C485749FEF712FB002640F6FE77B2B205
:1020700001214F4805F040F931464648FEF7F5FA90
:1020800047494448FEF7EDFA322008F013F930468C
:1020900009F0A4FC22462B4609F054FB09F09EFFF0
:1020A000B8420646E3DD434B3A48012202261A6055
:1020B00043F8046C08F0F0FE3B493648FEF7D1FACD
:1020C00031463448FEF7ECFA32483E49FEF7DEFA74
:1020D000002640F6FE77B2B20221354805F00CF931
:1020E00031462C48FEF7C1FA2D492A48FEF7B9FAC5
:1020F000322008F0DFF8304609F070FC22462B460B
:1021000009F020FB09F06AFFB8420646E3DD294BDF
:102110002048102202261E6043F8442C08F0BCFE22
:1021200021491C48FEF79DFA31461A48FEF7B8FAD5
:1021300018482549FEF7AAFA002640F6FE77B2B203
:1021400002211B4805F0D8F831461248FEF78DFAF7
:1021500013491048FEF785FA322008F0ABF83046F4
:1021600009F03CFC22462B4609F0ECFA09F036FF58
:10217000B8420646E3DD154B0648102201261A60D8
:1021800043F8046C08F088FE07490248FEF769FA34
:1021900031461DE0249BFF1F5E030100E89AFF1FEC
:1021A0001F0A0100C4F00F406C0301007B03010013
:1021B000B492FF1FC8F00F409C030100BE03010052
:1021C000DF030100010401001504010088F00F4045
:1021D0006A48FEF765FA69486949FEF757FA00262A
:1021E00040F6FE77B2B20321664805F085F8314625
:1021F0006248FEF73AFA64496048FEF732FA322044
:1022000008F058F8304609F0E9FB22462B4609F061
:1022100099FA09F0E3FEB8420646E3DD5B4B574806
:1022200001261E6043F8446C08F036FE58495348B6
:10223000FEF717FA31465148FEF732FA4F48554932
:10224000FEF724FA002640F6FE77B2B203214D488D
:1022500005F052F831464948FEF707FA4A4947481F
:10226000FEF7FFF9322008F025F8304609F0B6FBFA
:1022700022462B4609F066FA09F0B0FEB84206463F
:10228000E3DD454B3D48402201261E60DA6308F03D
:1022900003FE3F493948FEF7E4F931463748FEF777
:1022A000FFF936483D49FEF7F1F9002640F6FE7782
:1022B000B2B20321334805F01FF831462F48FEF72C
:1022C000D4F931492D48FEF7CCF9322007F0F2FF5E
:1022D000304609F083FB22462B4609F033FA09F019
:1022E0007DFEB8420646E3DD284B244840221A60B2
:1022F000802243F8042C08F0CFFD25491F48FEF743
:10230000B0F901211D48FEF7CBF91C482449FEF71E
:10231000BDF9002640F6FE77B2B20321194804F059
:10232000EBFF31461548FEF7A0F917491348FEF7B1
:1023300098F9322007F0BEFF304609F04FFB2246E5
:102340002B4609F0FFF909F049FEB8420646E3DDE5
:102350000E4B80221A60FFF798FD12490748FEF7DE
:1023600095F911490548FEF791F90E490F48FEF716
:102370008DF90D490D48FEF789F9FEBD249BFF1F1D
:1023800029040100B492FF1F1F0A010088F00F40CA
:102390006C0301003B04010048F00F404D040100B4
:1023A0005F040100140101007A030100E89AFF1F95
:1023B00070B58EB006F068FE061E24DD642007F0BE
:1023C00079FF002401AD665506F05EFE0134262C2F
:1023D0000646F7D1124E0024284631688DF82A406F
:1023E00025220BF0EBF9C0B10E490F48FEF739F981
:1023F00031680D48FEF74AF90C490B48FEF731F9F0
:102400000948294605E00A490748FEF73FF906480A
:102410000849FEF73BF9002000E001200EB070BD36
:102420008089FF1F71040100249BFF1F9404010099
:10243000B7040100ED04010030B54949494885B0B1
:10244000FEF70FF946494848FEF70BF900226846A7
:102450004EF66021FEF7A4FC4EF66020FEF754FD18
:1024600004460D460D20012107F010FE29462046A6
:1024700009F0B4FD430803F1376303F5D833B3FB28
:10248000F0F006F07BFC01210D2007F0D3FD4FF4A6
:102490007A7007F00FFF35493348FEF7E2F84FF442
:1024A0007A7007F007FF32492F48FEF7DAF84FF449
:1024B0007A7007F0FFFE2F492A48FEF7D2F840F263
:1024C000D2412848FEF7ECF82B492748FEF7C9F817
:1024D00040F2D2412448FEF7C8F84FF47A7007F072
:1024E000E9FE26491F48FEF7BCF869461D48FEF77D
:1024F000C3F823491C48FEF7B4F869461A4808F0A7
:10250000A9FC4FF47A7007F0D5FE1E491548FEF776
:10251000BDF81D491448FEF7A4F84FF47A7007F08F
:10252000C9FEFFF745FF18B10E481849FEF7AEF88F
:102530000D20002107F07EFD15490A48FEF7A6F898
:1025400013490948FEF7A2F8064808F0A5FC06481A
:1025500008F0A2FC684608F027F905B030BD00BFBE
:1025600015050100249BFF1FE89AFF1F24050100A9
:102570002705010032050100410501004805010061
:10258000570501005F050100740501007D0501008C
:102590001401010014282DE9F04105460E461446A9
:1025A0001F4601D002281BD12146404804F0BFFB42
:1025B000002821463D4803DD04F0B9FB3C4B46E0D2
:1025C00004F0B5FB002802DB0020BDE8F081002EFE
:1025D000FADD384600210AF063F8002845D1F3E718
:1025E000A0F10B03012B0BD9A0F10F08B8F1010FDB
:1025F0008CBF4FF000084FF00108B8F1000F17D062
:1026000021462C4804F093FB00282146294803DD8D
:1026100004F08DFB284B1AE004F089FB0028D3DA84
:10262000002ED1DD384600210AF03AF850BBCBE746
:1026300020F004050A2DC7D11146204804F077FB8D
:10264000002821461D4804DD04F071FB1C4B186076
:1026500029E004F06CFB0028B6DA002EB4DD384621
:1026600000210AF01DF8D8B9AEE738460AF022F882
:1026700001462846FEF7AEFC6423704390FBF3F658
:102680000B4B0BE038460AF015F801462846FEF7DA
:10269000A1FC6423704390FBF3F6074B1E6002E03D
:1026A000074BC3F800800120BDE8F0812C94FF1F88
:1026B000DC91FF1F1494FF1FF895FF1FFC93FF1F71
:1026C0000C94FF1F2DE9D841142804460E461F46DE
:1026D000069A01D0022818D1002A00DD12E0002E4F
:1026E00054DD3846002109F0DBFF00284ED0384683
:1026F00009F0E0FF01462046FEF76CFC64237043BE
:1027000090FBF3F2244800212FE0A0F10B03012BF2
:102710000BD9A0F10F08B8F1010F8CBF4FF00008E2
:102720004FF00108B8F1000F17D0002A00DD11E0CA
:10273000002E2BDD3846002109F0B2FF30B33846B9
:1027400009F0B8FF01462046FEF744FC64237043BD
:1027500090FBF3F21048032107E020F004040A2C58
:1027600014D1002A03DD0C48022192B209E00029AD
:102770000FDD3846002109F093FF58B106480221C9
:10278000424604F0B9FD0120BDE8D8810020BDE833
:10279000D8814046BDE8D881B492FF1F10B5084CDF
:1027A0000520214607F0EEFB0320214607F0EAFB57
:1027B00019204FF4F471BDE8104007F0E3BB00BFEF
:1027C0006CDC020070B506460D460024A1190448D1
:1027D00004F052F928550134042CF7D1204670BD7D
:1027E000FC95FF1F70B506460D460024A1192A5D11
:1027F0000348013404F043F9042CF7D1204670BD9E
:10280000FC95FF1F2DE9F34102ADDFF8308045F85C
:10281000041D064617460024304609F031FD0146E6
:1028200054F8080009F014FF18B1E0192946FFF721
:10283000D9FF0434682CEFD1BDE8FC818889FF1FE3
:102840002DE9F34102ADDFF8308045F8041D06465E
:1028500017460024304609F013FD014654F80800DD
:1028600009F0F6FE18B1E0192946FFF7BBFF043462
:10287000682CEFD1BDE8FC818889FF1F30B540F29C
:10288000836085B006F07AFA42F2107006F090F894
:102890004FF4FA70002407F00DFD0723224621466D
:1028A000009401934548464D234604F077FE454881
:1028B00041F2883104F002FD4348444904F03CFCF5
:1028C0004148434904F008FC21463F4804F0FDFB21
:1028D0003D4804F095FC1D20012107F0D7FB0320A3
:1028E000214607F0D3FB0F20012107F0CFFB10207A
:1028F000012107F0CBFB0B20012107F0C7FB0C20C7
:10290000012107F0C3FB1420012107F0BFFB0220C7
:10291000012107F0BBFB0E20012107F0B7FB0A20C5
:10292000012107F0B3FB0520012107F0AFFB294B84
:1029300080221A600620012107F0A8FB1520012142
:1029400007F0A4FB1620012107F0A0FB112021466F
:1029500007F09CFB204B40221A6002232B600D20C5
:10296000012107F093FB2220214607F08FFB232053
:10297000214607F08BFB03201849194C07F002FB96
:102980000520164907F0FEFA1720012107F07EFB0B
:1029900004A904232B60002341F8083D1020FFF711
:1029A00011FF0298214609F053FE28B904A910200E
:1029B00041F8044DFFF716FF05B030BD0896FF1F24
:1029C00084F00F40B492FF1FE893FF1F00004843BC
:1029D00000002F44C4F00F40C8F00F406CDC020030
:1029E00085EBD13E70B506460D460024A11904487A
:1029F00004F042F828550134082CF7D1204670BD68
:102A0000FC95FF1FFFFFFFFF2DE9F041664E674970
:102A1000674D86B007466748FDF723FE306808F02B
:102A2000EFFF022402460B4600946248FDF71FFEAA
:102A300061496048FDF72AFE4FF003085F495D4891
:102A4000FDF70FFE56A3D3E90023CDF800805948C7
:102A5000FDF70DFE58495748FDF718FE58495548EF
:102A6000FDF7FFFD286808F0CBFF009402460B46F7
:102A70005048FDF7FCFD50494E48FDF707FE4B4915
:102A80005048FDF7EEFD306808F0BAFF00940246AA
:102A90000B464C48FDF7EBFD47494A48FDF7F6FD6C
:102AA00046494848FDF7DDFD3DA3D3E90023CDF8B5
:102AB00000804448FDF7DBFD3F494248FDF7E6FD55
:102AC0003F494048FDF7CDFD286808F099FF009484
:102AD0000B4602463B48FDF7CAFD37493948FDF72A
:102AE000D5FD394940F29E50FFF77CFF374902A8D7
:102AF00007F09BFE012202A83349FEF7DFFA02A885
:102B000007F052FE012F44D14EF66020FEF7FCF98B
:102B100009F0ACFA306008F073FF009402460B46EF
:102B20002448FDF7C7FD306808F06AFF00940246AC
:102B30000B462448FDF7BEFD3068254909F088FDA5
:102B400038BB31460C20FFF74DFE4EF66020FEF7F5
:102B5000DBF909F08BFA286008F052FF0094024676
:102B60000B461448FDF7A6FD286808F049FF0094BD
:102B700002460B461348FDF79DFD2868144909F0ED
:102B800067FD30B914202946FFF72CFE0020FFF71F
:102B90003BFF012007F08EFB06B0BDE8F08100BFCF
:102BA0003D0AD7A3703DDA3F1094FF1F9405010042
:102BB000DC90FF1F249BFF1F1F0A0100A2050100DC
:102BC000B6050100E89AFF1FF489FF1FCA0501003E
:102BD000000080BFAFF30080F8B507460E46002422
:102BE00041F21055E119325D0348013403F047FF0B
:102BF000AC42F7D12046F8BDFC95FF1F00B5ADF5FE
:102C0000A85D85B010B9FDF703FD09E00021684615
:102C100041F210520AF018FA3C206946FFF7DCFF37
:102C200045B00DF5A05D00BD70B506460D4600240B
:102C3000A119044803F020FF28550134682CF7D16E
:102C4000204670BDFC95FF1F1FB50446BE490020FD
:102C5000FFF7B8FD0420BD49FFF7B4FD0820BC49CB
:102C6000FFF7B0FD0C20BB49FFF7ACFD1420BA49BB
:102C7000FFF7A8FD1820B949FFF7A4FD1C20B849AB
:102C8000FFF7A0FD2020B749FFF79CFD2420B6499F
:102C9000FFF798FD2820B549FFF7A4FE3C20B44972
:102CA000FFF7C2FFB420B349FFF7BEFFB2494FF4AC
:102CB0009670FFF7B9FFB1494FF4D270FFF7B4FF38
:102CC000AF494FF40770FFF7AFFFAE494FF42570DF
:102CD000FFF7AAFFAC494FF45C70FFF7A5FFAB49C3
:102CE0004FF47A70FFF7A0FFA9494FF48C60FFF70B
:102CF0009BFFA8494FF49B60FFF796FFA6494FF44E
:102D0000AA60FFF76FFEA5494FF4AB60FFF76AFEBC
:102D1000A3494FF4AC60FFF765FEA2494FF4AD60E4
:102D2000FFF760FEA0494FF4AE60FFF75BFE9F49DE
:102D30004FF4AF60FFF756FE9D494FF4B060FFF7C8
:102D400051FE9C494FF4B160FFF74CFE9A494FF495
:102D5000B260FFF747FE994940F29650FFF742FEF6
:102D600040F29E509649FFF73DFE012C40F09481C1
:102D700094499548FDF775FC92499448FDF771FC1C
:102D80002046FEF7ABFA904808F086F88F4808F026
:102D900083F82046FDF79EFF8D49684607F045FD04
:102DA00000228C496846FEF703FA684607F0FCFCEF
:102DB0008949684607F039FD00226D496846FEF7EB
:102DC000F7F9684607F0F0FC8449684607F02DFDE6
:102DD000002268496846FEF7EBF9684607F0E4FC14
:102DE0007F49684607F021FD002263496846FEF7E7
:102DF000DFF9684607F0D8FC7A49684607F015FD08
:102E000000225E496846FEF7D3F9684607F0CCFC1D
:102E10007549684607F009FD002259496846FEF7E2
:102E2000C7F9684607F0C0FC7049684607F0FDFC2A
:102E3000002254496846FEF7BBF9684607F0B4FC27
:102E40006B49684607F0F1FC00224F496846FEF7DF
:102E5000AFF9684607F0A8FC6649684607F0E5FC4C
:102E600000224A496846FEF7A3F9684607F09CFC31
:102E70006149684607F0D9FC002245496846FEF7DB
:102E800097F9684607F090FC5C49684607F0CDFC6E
:102E9000002240496846FEF78BF9684607F084FC3B
:102EA0005749684607F0C1FC002230496846FEF7E2
:102EB00005F9684607F078FC5249684607F0B5FC0A
:102EC000002235496846FEF7F9F8684607F06CFCC1
:102ED0004D49684607F0A9FC002230496846FEF7D4
:102EE000EDF8684607F060FC4849684607F09DFC2D
:102EF00000222B496846FEF7E1F8684607F054FCCB
:102F00004349684607F091FC002226496846FEF7CF
:102F1000D5F8684607F048FC3E49684607F085FC4E
:102F2000002221496846FEF7C9F8684607F03CFCD4
:102F30003949684607F079FC00221C496846FEF7CB
:102F4000BDF868466AE000BF7489FF1FF089FF1F63
:102F5000F495FF1F1094FF1FDC90FF1F0494FF1FC8
:102F60006491FF1F0894FF1F6891FF1FD494FF1FF7
:102F70004C92FF1FDC94FF1F4094FF1FE090FF1F47
:102F80008895FF1FE091FF1F7490FF1F7491FF1F32
:102F9000E892FF1F5093FF1FA894FF1F4495FF1F47
:102FA000B094FF1F5495FF1F5C95FF1F6495FF1F92
:102FB0006C95FF1F7495FF1F7C95FF1F6C91FF1F81
:102FC000F489FF1F1D020100249BFF1FE89AFF1FC9
:102FD000D50501008889FF1FDE050100F00501000D
:102FE000010601001B060100340601004F06010026
:102FF000690601007C0601008F060100A20601009F
:10300000EE080100FB080100080901001509010094
:10301000220901002F0901003C09010007F0C4FB4F
:103020001E49684607F001FC00221D496846FEF76C
:1030300045F8684607F0B8FB1A49684607F0F5FB03
:10304000002219496846FEF739F8684607F0ACFBDC
:103050001649684607F0E9FB002215496846FEF765
:103060002DF8684607F0A0FB1249684607F0DDFB23
:10307000002211496846FEF721F8684607F094FBE4
:103080000E49684607F0D1FB68460D492246FEF717
:1030900015F8684607F088FB1FBD00BF490901000D
:1030A0006C95FF1F560901007495FF1F630901000D
:1030B0007C95FF1F700901006C91FF1FCA0501007C
:1030C000F489FF1F2DE9F34101204EF66028FFF738
:1030D000BBFD4046FDF718FF08F0C8FF224F234E06
:1030E000386008F08DFC062402460B4600943046FA
:1030F000FDF7BDFA38681E4D08F082FC00940246C8
:103100000B462846FDF7B3FA39460420FFF76AFB61
:103110004046FDF7F9FE08F0A9FF164F386008F0A9
:103120006FFC009402460B463046FDF7A0FA386863
:1031300008F066FC009402460B460F4C2846FDF74B
:1031400096FA39460820FFF74DFB21463046FDF739
:103150009DFA28462146FDF799FA012002B0BDE804
:10316000F041FFF771BD00BFF089FF1F249BFF1FD7
:10317000E89AFF1FF495FF1FB50601002DE9F34102
:103180004EF660270120FFF75FFD3846FDF7BCFED5
:1031900008F06CFFDFF804813D4EC8F8000008F02D
:1031A0002FFC022402460B4600943046FDF75FFADE
:1031B000D8F80000374D08F023FC009402460B4677
:1031C0002846FDF754FA41461820FFF70BFB384616
:1031D000FDF79AFE08F04AFFDFF8C480C8F8000047
:1031E00008F00EFC009402460B463046FDF73FFA0D
:1031F000D8F8000008F004FC009402460B4628466C
:10320000FDF735FA41461C20FFF7ECFA3846FDF78A
:103210007BFE08F02BFFDFF88C80C8F8000008F078
:10322000EFFB009402460B463046FDF720FAD8F833
:10323000000008F0E5FB009402460B462846FDF727
:1032400016FA41462020FFF7CDFA3846FDF75CFE1E
:1032500008F00CFF104F386008F0D2FB00940246D3
:103260000B463046FDF703FA386808F0C9FB0094B6
:1032700002460B462846FDF7FAF924203946FFF7A7
:10328000B1FA012002B0BDE8F041FFF7DDBC00BF9C
:10329000249BFF1FE89AFF1F6891FF1F0494FF1FE4
:1032A0006491FF1F0894FF1F2DE9F04F012B85B09B
:1032B00005460F46904605D00024DFF8E8A0DFF869
:1032C000E8B060E01846FFF7BFFC002406261DE0CA
:1032D0004EF66020FDF718FE08F0C8FE039008F0D7
:1032E0008FFB009602460B462B48FDF7C0F903986A
:1032F00008F086FB009602460B462848FDF7B7F912
:10330000284603A9FFF76EFA01344544BC42DFDBCF
:103310003CE04EF66020FDF7F7FD08F0A7FE002127
:10332000064609F0BDF938B130461D4909F09AF951
:1033300010B1CDF80CB008E03046002109F092F948
:1033400008B9039601E0CDF80CA0039808F058FBEB
:103350004FF0060904AE02460B46CDF800900E4829
:10336000FDF785F956F8040D08F04AFBCDF80090FA
:1033700002460B460948FDF77AF928463146FFF721
:1033800031FA01344544BC42C3DB02E00120FFF7BF
:103390005BFC05B0BDE8F08F249BFF1FE89AFF1F80
:1033A00000409C4520BCBE4C0060EA472DE9F34735
:1033B00080460120FFF748FC4EF66020FDF7A4FD93
:1033C00008F00CFE064631462B48FDF769F92B48FC
:1033D0003146FDF765F9731C47D04EF66020FDF7C6
:1033E00093FD08F043FE814608F00AFB06270446D9
:1033F0000D460B46224600971F48FDF75BF90097E4
:103400001E4822462B46FDF755F948461C4909F04F
:103410001FF950BB4EF66020FDF776FD08F026FE42
:10342000824608F0EDFA04460D460B462246009708
:103430001148FDF73FF90097104822462B46FDF74B
:1034400039F950460E4909F003F970B9304649463A
:103450004246FFF7F5F93046514608F17802FFF78A
:10346000D1F9012006F026FFA6E7012002B0BDE851
:10347000F047FFF7E9BB00BF249BFF1FE89AFF1F3F
:10348000000080BF2DE9F04FAA4BAB4C04221A601C
:1034900085B00021064640F6FF72A84803F02CFFD5
:1034A0008025012140F6FF72A44803F025FF022188
:1034B00040F6FF722560A14803F01EFF032140F68D
:1034C000FF729E4803F018FF9D4B1D60FEF7DDFC68
:1034D000622E2CD10020FFF7B7FB27464EF6602066
:1034E000FDF712FD0022974B04460D4608F044FDFF
:1034F000B8B9FEF7CAFC2946204608F097FD00211E
:1035000082B28E4803F0F8FE0023204629460022AE
:1035100008F032FD202310B9894A1360DEE73B60D2
:10352000DCE7FEF7B2FC844B20221A606FE0632ECA
:103530006DD10020FFF788FB4EF66020FDF7E4FC1C
:1035400008F04CFD8049DFF824A280467F48FDF753
:1035500088F87D497E48FDF784F800210A467748BF
:1035600003F0CAFE75480321002203F0C5FE0027C0
:103570005FFA88FB40E05AF83B3083F800410BE0EB
:103580001FFA89F4002122466C4803F0B5FE6B480F
:103590000321224603F0B0FE384608F031FA044613
:1035A0000D460221009122462B4668480391FDF703
:1035B0005EF803996648009122462B46FDF757F8BE
:1035C00064496248FDF74DF862496148FDF749F8E2
:1035D00049465E48FDF749F849465D48FDF745F81C
:1035E0005C495A48FDF752F859485A49FDF74EF8D8
:1035F0004FF47A7006F05EFE05F00CF9022800F335
:10360000568105F033FD022840F35C814FE100272D
:10361000FEF73BFC642E01D1FEF748FCFEF735FCBB
:10362000652E14D14C494948FDF71BF848484A49D2
:10363000FDF717F84FF0020805F0ECF8022800F348
:10364000478205F013FD022840F3588140E2662EC0
:1036500014D142493D48FDF704F83D483F49FDF784
:1036600000F84FF0020805F0D5F8022800F3308288
:1036700005F0FCFC022840F3688129E2672E14D192
:1036800037493248FCF7EDFF31483549FCF7E9FF8F
:103690004FF0020805F0BEF8022800F3198205F089
:1036A000E5FC022840F3758112E2682E14D12D4901
:1036B0002648FCF7D6FF26482A49FCF7D2FF4FF0F0
:1036C000020805F0A7F8022800F3028205F0CEFCFC
:1036D000022840F38081FBE1692E14D11E491B486A
:1036E000FCF7BFFF1A481C49FCF7BBFF4FF002086C
:1036F00005F090F8022800F3EB8105F0B7FC0228F2
:1037000040F3A081E4E16A2E32D117491048FCF75A
:10371000A8FF0E481449FCF7A4FF4FF0020805F07B
:1037200079F8022800F3D48105F0A0FC022840F3C8
:10373000AE81CDE188F00F40C8F00F40B492FF1F7A
:10374000C4F00F400000F0BFB8060100249BFF1F2B
:10375000E89AFF1F1F0A0100C8060100DD060100EC
:10376000EC060100FD06010014070100480D0100F0
:10377000731E202B40D8A949A948DFF8B082FCF776
:1037800070FFA848A549FCF76CFF4EF66020FDF7D6
:10379000BBFB08F023FC411C054624D0ACB2FEF76D
:1037A00074FB00212246A04803F0A6FD0121224619
:1037B0009D4803F0A1FD022122469B4803F09CFD99
:1037C00022469948032103F097FD58F8362001233B
:1037D00082F8803058F8362015B182F88030D4E76E
:1037E00082F80031D1E7FEF750FB904B53F83630AA
:1037F000012283F8002134E0A6F12203032B30D804
:10380000DFF83C828A4D874807F046FB844807F082
:1038100043FB4EF66020FDF777FB08F0DFFB421C10
:103820001DD010234001C8F8003001D00138FDD16F
:10383000F0B206F067FE102304462B60214679485B
:10384000FCF713FF21467648FCF70FFF79497548CE
:10385000FCF707FF77497248FCF703FFD3E7FEF751
:1038600014FB754B04221A60384608F0C9F802268A
:1038700004460D460B46224600966A48FCF7F7FEC2
:1038800022462B4600966648FCF7F1FE6B496548D8
:10389000FCF7FCFE69496248FCF7F8FE614807F056
:1038A000FBFA5F4805B0BDE8F04F07F0F5BAFEF748
:1038B000ECFA5FFA88F85D4B53F83830012283F850
:1038C0000021A5E65AF83B30012483F880402046C9
:1038D000FDF7AAF908F0D4FCFDF76AFB074608F0EB
:1038E000E9FE01464046FDF775FB0021814638465A
:1038F00008F0AEFE00287FF43EAE41E60120FDF761
:1039000093F908F0BDFCFDF753FB074608F078F883
:1039100004460D460B462246CDF800804148FCF790
:10392000A6FE22462B46CDF800803D48FCF79FFEC0
:1039300040493C48FCF795FE3E493948FCF791FE6A
:103940004FF4FA6006F0B6FC76E6FEF70FF908F0E1
:1039500093FC074608F054F8044622460B46CDF87F
:10396000008030480D46FCF782FE32492D48FCF7B6
:1039700078FE22462B46CDF800802948FCF777FEDA
:103980002C492748FCF76DFE4FF4FA6006F092FCD4
:1039900069E6FCF721FE074608F032F804462246A5
:1039A0000B46CDF800801F480D46FCF760FE21490C
:1039B0001C48FCF756FE22462B46CDF800801848DE
:1039C000FCF755FE1B491648FCF74BFE4FF4FA6016
:1039D00006F070FC5EE6FCF7E3FD074608F010F821
:1039E000044622460B46CDF800800E480D46FCF7F3
:1039F0003EFE10490B48FCF734FE22462B46CDF81C
:103A000000800748FCF733FE0A490548FCF729FE09
:103A10004FF4FA6006F04EFC53E600BF3107010098
:103A2000E89AFF1F249BFF1FB492FF1F480D01005F
:103A3000C4F00F401F0A010084F00F404301010051
:103A4000C8F00F400120FDF7EFF808F019FC074619
:103A500007F0D6FF04460D460B462246CDF80080FF
:103A60001D48FCF704FE22462B46CDF800801B487B
:103A7000FCF7FDFD1A491848FCF7F3FD18491748F3
:103A8000FCF7EFFD4FF4FA6006F014FC30E6FEF7A9
:103A90009FF9074607F0B4FF04460D460B46224641
:103AA000CDF800800C48FCF7E2FD22462B46CDF80D
:103AB00000800A48FCF7DBFD09490748FCF7D1FD07
:103AC00007490648FCF7CDFDC82006F0F3FB26E6C3
:103AD000FEF7DBF94CE600BF249BFF1FE89AFF1FAF
:103AE0001F0A0100FFFFFFFF2DE9F04FADF51D5D3F
:103AF0008FB008AF32200025C7F84CD006F0DAFBB3
:103B0000C14BC7F8F4501B680120C7F8F830D7F84C
:103B1000F83008F09DFEC7F89C000420C7F8FC5060
:103B2000C7F8005108F094FEB84BC7F898001B681E
:103B3000073323F00703ADEB030DB54B1B687B6622
:103B40001B01083308ACADEB030D08A9C7F8CC1076
:103B500003E0002106F069FE01357B6ED7F8CC202A
:103B60009D4202EB0510F4D1A84BA94E1A682046DD
:103B7000002109F069FA002507E0D7F8CC1001EB25
:103B80000510A44906F089FE013533689D42F4DB37
:103B90000020FFF759F8A04B10251D600A2006F001
:103BA00089FB9E4B9E491D6007F5CC7006F03DFEDB
:103BB00040F2F93598E007F5CC7006F004FFC7280D
:103BC00042F37A8602F0F0BD0A2006F073FB8BE028
:103BD00094499548FCF75AFD92499448FCF756FDE4
:103BE00082E0FCF779FD7FE0FEF726FC7CE0FCF745
:103BF00099FD79E0FCF7D6FD76E00120FFF724F887
:103C000072E0FFF75FFA6FE000200AE0FFF7B6FA14
:103C10006AE03C2001E04FF49670FFF7C7FB63E0D9
:103C20000120FEF7F1FE5FE04FF40770F5E74FF477
:103C30005C70F2E74FF48C60EFE7FCF7E9FC53E0CF
:103C40000120FEF7DBFF4FE0282024E04FF4AA60BC
:103C500021E04FF4AB601EE04FF4AC601BE04FF48A
:103C6000AD6018E04FF4AE6015E04FF4AF6012E0C5
:103C7000FCF75AFF38E005F08DFBFCF775FF33E0E9
:103C80004FF4B06007E04FF4B16004E04FF4B2606D
:103C900001E040F29650022104220123FFF704FBC9
:103CA00022E00422002340F29E500121FFF7FCFA9B
:103CB0005F495D48FCF7D5FC5D495C48FCF7D1FCE9
:103CC0005C4940F29E50FEF78DFE5B4907F5E470BB
:103CD00006F0ABFD07F5E47056490122FDF7EEF959
:103CE00007F5E47006F060FD04F076FD5B2802F055
:103CF000058605F0E1F95B2842F0E88502F0FEBD9B
:103D000005F0DAF95B280CBF0225002500E001254B
:103D100004F03AFD05F0B8F9012D0DD0022D58D070
:103D200046494148FCF7B2FC002540484349FCF7AE
:103D3000ADFCC7F8C450B5E03B484FF4FA6106F05B
:103D4000D5FF324B38481B6821212246002606F059
:103D5000CFFF41F28735C7F8C460A35D7B2B1BD131
:103D600004E0484606F0D2FD013607E0D7F8C4105B
:103D7000D7F8CC204FEA011802EB0809A15D7D2994
:103D8000EFD1D7F8CC3003EB080006F0BFFDD7F831
:103D9000C4100131C7F8C4100136AE42DDDD002485
:103DA00012E0D7F8CC20302102EB041507F5E470BF
:103DB00006F08EFD07F5E471284606F0CAFD07F50A
:103DC000E47006F0F1FC0134D7F8C450AC42E8DBF3
:103DD00068E016484FF47A7106F088FF0B4B1348E1
:103DE0001B6821212246002606F082FF41F287351A
:103DF000C7F8C460A35D7B2B38D121E0484606F0AC
:103E000085FD013624E000BFDC9AFF1F8489FF1F77
:103E10007C89FF1F7A030100C8F00F40C4F00F40F7
:103E20007205010034070100249BFF1FE89AFF1F61
:103E30001D020100F489FF1FCA05010044070100AB
:103E4000D7F8C410D7F8CC204FEA011802EB0809C4
:103E5000A15D7D29D2D1D7F8CC3003EB080006F064
:103E600055FDD7F8C4100131C7F8C4100136AE4271
:103E7000C0DD002412E0D7F8CC20302102EB04157D
:103E800007F5E47006F024FD07F5E471284606F016
:103E900060FD07F5E47006F087FC0134D7F8C450E4
:103EA000AC42E8DB784D79497948FCF7DAFB774991
:103EB0007848FCF7D6FB286807F0A2FD02240246EA
:103EC0000B4600947248FCF7D2FB286807F098FD77
:103ED000009402460B466F48FCF7C9FB6E496C48DC
:103EE000FCF7BFFB03246C496A48FCF7BAFB00945B
:103EF00063A3D3E900236648FCF7B9FB60A3D3E9C9
:103F0000002300946348FCF7B2FB64496148002534
:103F1000FCF7A7FB5E486149FCF7A3FBC7F8B45068
:103F2000C7F8A050C7F8D0500D25FD650125FD66E6
:103F300007F5C27500243D6659495648FCF791FBC8
:103F400053485749FCF78DFB002502F0C7BBD7F853
:103F50009C0008F085FCD7F89410D7F8CC200D0110
:103F6000531907F1FC0B9C68601C08F071FCD7F832
:103F7000CC30C7F89C005959224609F075FCD7F897
:103F80009C1000250D5507F5C67007F5EC7403F07D
:103F900083F8D7F89C1022464FF4167307F5C670C5
:103FA00002F05DFFD7F89C10A8420CBF22462A46BB
:103FB000386E02F0D0FE3A6E92E803008BE8030000
:103FC000002802F0A284A1B902F09FBCD7F8CC303F
:103FD000304803EB04152946FCF74EFB01342C480E
:103FE0002946FCF749FBB442F0D1FDF74EFF02F041
:103FF000C6BB7D6707F58275C7F8D85007F5BE794F
:104000002849584602F0F8FE014607F5D47006F03C
:104010000CFC2549584602F0E5FE5846234902F0BB
:10402000E1FE234B08B1186001E001221A6021492A
:10403000214C584602F0D6FE2049C7F8C800584621
:1040400002F0D0FE1E49F866584602F0CBFE1D492C
:10405000F860584602F0C6FE1B49B862584602F0A6
:10406000C1FE002808BF0120B8651849584602F073
:10407000B9FE68BB0D2323602FE000BFAFF30080C3
:104080003D0AD7A3703DDA3F1094FF1F6A07010075
:10409000E89AFF1F249BFF1F790701008F0701008B
:1040A000560101009C070100A8070100AF070100AD
:1040B0007889FF1FB80701006489FF1FC707010047
:1040C000D4070100E7070100F7070100010801001C
:1040D00058468E4902F086FE20608D49584602F00F
:1040E00081FE002808BF0A2038638A49584602F03A
:1040F00079FE002808BF1020F8628749584602F070
:1041000071FE002808BF032078658449584602F0F4
:1041100069FE002808BF032038658149584602F02F
:1041200061FE80497862584602F05CFE7E49C7F81D
:104130008C00584602F056FE7C498046584602F0F4
:1041400051FE7B49B867584602F04CFE7949386207
:10415000584602F047FE07F5867AC7F8D40059465C
:1041600007F58270744A02F02FFE07F58A755046F3
:104170005946724A02F028FE2846C7F8E4505946CC
:1041800007F58E756E4A02F01FFE2846C7F8E0500C
:10419000594607F592756B4A02F016FE6A4AC7F84F
:1041A000DC502846594602F00FFE6849684D5846D3
:1041B00002F018FE6749C7F8C000584602F012FE28
:1041C0006549C7F8BC00584602F00CFE6349C7F8C1
:1041D000B800584602F006FE6149C7F8B0005846DC
:1041E00002F000FE5F49C7F8AC00584602F0FAFD45
:1041F0005D49C7F8A800584602F0F4FD5B49C7F8CE
:10420000A400584602F0EEFD5949C7F88800584608
:1042100002F0E8FD5749C7F88400584602F0E2FD75
:104220005549C7F88000584602F0DCFD594638670A
:10423000524A07F5967002F0C7FD07F59A70594685
:104240004F4A02F0C1FD07F59E7059464D4A02F0F3
:10425000BBFD07F5A27059464B4A02F0B5FD07F1C8
:10426000E80407F5A6705946484A02F0ADFD20461D
:104270005946474A02F0A8FD94E80300454A85E8FC
:1042800003002046594602F09FFD94E80300424D8A
:10429000424A85E803002046594602F095FD94E81D
:1042A00003003F4D3F4A85E8030007F5AA705946D1
:1042B00002F08AFD07F5AE7059463B4A02F084FDD4
:1042C00007F5B2705946394A02F07EFD002407F521
:1042D000B6705946364A02F077FDBC66FC678CE042
:1042E000214607F5967002F022FD2246054607F5A5
:1042F000AE71484602F00DFD4846FCF7E8F9BA6E8B
:10430000002600FB0522BA66354661E0010801007F
:1043100016080100200801002B0801003C080100DC
:104320004B0801006A080100750801007F080100C0
:104330008D08010098080100A3080100B3080100DE
:10434000BF080100CE080100DC080100EA080100F6
:104350002C94FF1FF7080100040901001109010056
:104360001E0901002B09010038090100450901005F
:10437000520901005F0901006C0901007A0901007E
:10438000810901008D09010099090100A5090100B9
:10439000B1090100C10901001494FF1FD2090100F5
:1043A000FC93FF1FE2090100EC090100F80901007C
:1043B000060A0100484607F5AE71224602F0A9FC44
:1043C0003146484602F0B3FC0028C8BF013501362B
:1043D000484607F5AE71224602F09BFC4846FCF7C2
:1043E00076F98642E6DB214607F5967002F09FFCDF
:1043F000FB6F05FB0033FB67013407F59670FCF794
:1044000066F98442FFF66CAFD7F8980008F028FAF6
:104410000221F86F08F0A6F98549C7F89800854889
:10442000FCF71FF982498448FCF71BF90520FCF7CB
:104430001DFD8249C7F890007E48FCF712F97F49BC
:104440007D48FCF70EF907F5D4717A4806F002FDB5
:1044500007F5D471784806F0FDFC79497548FCF7FA
:1044600000F975487649FCF7FCF8D7F8D450012DCF
:1044700002D12846FCF732FFD7F8AC300093D7F8CA
:10448000A8500195D7F8A4300293D7F88850039527
:10449000D7F884300493D7F8805005953B6F069386
:1044A00007F5E474D7F8B820D7F8B030D7F8C000D3
:1044B000D7F8BC10FCF7D8FF6249204606F0B5F9E2
:1044C000D7F8D85095E80300002213468DE8030082
:1044D00002945D495D48FCF71BFA204606F064F93A
:1044E0005B49204606F0A1F9D7F8E45095E80300AF
:1044F000002213468DE80300029456495648FCF703
:1045000007FA204606F050F95449204606F08DF986
:10451000D7F8E05095E80300002213468DE8030029
:1045200002944F494F48FCF7F3F9204606F03CF956
:104530004D49204606F079F9D7F8DC5095E803009C
:10454000002213468DE80300029448494848FCF7CE
:10455000DFF9204606F028F9464B47491E68474BCD
:1045600020461D6806F061F99AE803008DE8030013
:1045700000202B46014632460294414DFCF7C8F913
:10458000204606F011F92B68012B17DD3D492A481A
:10459000FCF767F83B492748FCF763F82968264889
:1045A000FCF763F829682348FCF75FF8364922488E
:1045B000FCF757F81F483449FCF753F8334B0025F4
:1045C0001D60334B1D60334B1D60334B1D60334BFF
:1045D0001D60334B1D60334B1D60334B1D60334BEF
:1045E0001D60334B40461D60FCF752FEB96F30230F
:1045F0004B43013BD7F8C8107B644FEA48124FF495
:104600007A73BA644B43002207F5DC753B61C7F847
:10461000D420C7F8A420C7F8A820C7F8AC20C7F852
:10462000B02007F5BA7AC7F8C05001F09ABF00BFB2
:104630001D020100249BFF1FE89AFF1F0E0A0100C4
:104640001E0A0100A3080100E091FF1F8895FF1FCB
:10465000BF080100DC94FF1F4C92FF1FCE08010031
:104660007491FF1F7490FF1FDC0801005093FF1F1F
:10467000E892FF1FF089FF1FB3080100F495FF1FA8
:104680007889FF1F210A01001F0A01001C94FF1FE7
:10469000E493FF1F4892FF1F2494FF1F3494FF1FD1
:1046A000CC93FF1FC494FF1FD094FF1F2094FF1FC3
:1046B0003894FF1F504607F5B2712A4602F029FBD5
:1046C0005046012102F033FB0646002853D12A460A
:1046D000484607F5B27102F01CFB3146484602F02D
:1046E00030FB0146204606F0A0F82046B24906F00D
:1046F0003EF9061C18BF0126204606F055F8002E8C
:1047000039D02A46484607F5B27102F002FB012172
:10471000484602F00CFBFCF77DFAA84BD7F8D41002
:104720001B68013B994226D1A549DFF8BC82A54808
:10473000FBF797FFA249A448FBF793FFD8F80000C6
:1047400007F05EF9022602460B4600969D48FBF7ED
:104750008EFF9E499B48FBF784FFD8F8000007F0C6
:104760004FF9009602460B469748FBF780FF9648A4
:104770009649FBF776FF504607F5B2712A4602F0DC
:10478000C8FA5046012102F0D2FA0646002853D159
:104790002A46484607F5B27102F0BBFA3146484650
:1047A00002F0CFFA0146204606F03FF8204688493D
:1047B00006F0DDF8061C18BF0126204605F0F4FFC0
:1047C000002E39D02A46484607F5B27102F0A1FA08
:1047D0000121484602F0ABFAFCF721FA774BD7F8F3
:1047E000D4201B68013B9A4226D17A49DFF8FC812C
:1047F0007448FBF736FF77497348FBF732FFD8F868
:10480000000007F0FDF8022602460B4600966D48B0
:10481000FBF72DFF6D496B48FBF723FFD8F800002D
:1048200007F0EEF8009602460B466748FBF71FFFBD
:1048300065486649FBF715FF504607F5B2712A46F1
:1048400002F067FA5046012102F071FA064600288C
:1048500053D12A46484607F5B27102F05AFA31465A
:10486000484602F06EFA0146204605F0DEFF20467B
:10487000594906F07CF8061C18BF0126204605F0B1
:1048800093FF002E39D02A46484607F5B27102F050
:1048900040FA0121484602F04AFAFDF7F1FA474B87
:1048A000D7F8D4101B68013B994226D14B49DFF859
:1048B00040814448FBF7D5FE48494348FBF7D1FE09
:1048C000D8F8000007F09CF8022602460B46009636
:1048D0003C48FBF7CCFE3D493A48FBF7C2FED8F80E
:1048E000000007F08DF8009602460B463648FBF7AD
:1048F000BEFE35483549FBF7B4FE504607F5B271A8
:104900002A4602F006FA5046012102F010FA064645
:10491000002875D12A46484607F5B27102F0F9F928
:104920003146484602F00DFA0146204605F07DFF6B
:1049300020462B4906F01BF8061C18BF012620460E
:1049400005F032FF002E5BD02A46484607F5B271CB
:1049500002F0DFF90121484602F0E9F9FDF72AF9F2
:10496000164BD7F8D4201B68013B9A4248D11D4909
:10497000DFF880801348FBF774FE1A491248FBF7F2
:1049800070FED8F8000007F03BF8022602460B46FE
:1049900000960C48FBF76BFE0C490A48FBF761FEDA
:1049A000D8F8000007F02CF8009602460B4606489F
:1049B000FBF75DFE20E000BF2D0A01007889FF1F94
:1049C0003F0A0100E89AFF1F249BFF1F1F0A0100F6
:1049D0006F0A0100540A0100630A01007B0A01000A
:1049E000960A01009A0A01004892FF1F2494FF1FB3
:1049F0003494FF1FCC93FF1FB748B849FBF731FE33
:104A0000504607F5B2712A4602F083F9504601215B
:104A100002F08DF90646002840F0D8802A46484624
:104A200007F5B27102F075F93146484602F089F98E
:104A30000146204605F0F9FE2046A94905F097FFFA
:104A4000061C18BF0126204605F0AEFE002E00F021
:104A5000BD802A46484607F5B27102F05AF9012195
:104A6000484602F064F9FCF7DFF89E4BD7F8D41003
:104A70001B68013B994240F0A980DFF888829A497F
:104A80009A48FBF7EEFD98499348FBF7EAFDD8F802
:104A90000000FCF78DFA06F0B3FF022602460B4633
:104AA00000969248FBF7E3FD8C499048FBF7D9FD4F
:104AB000D8F80000DFF85082FCF77AFA06F0A0FF81
:104AC000009602460B468448FBF7D1FD8349824895
:104AD000FBF7C7FD86498548FBF7C3FD84497E483F
:104AE000FBF7BFFDD8F80000FCF762FA06F088FF7C
:104AF000009602460B467D48FBF7B9FD77497B4897
:104B0000FBF7AFFDD8F80000DFF80082FCF750FAA1
:104B100006F076FF009602460B466F48FBF7A7FDAE
:104B20006E496D48FBF79DFD72497048FBF799FD92
:104B300070496948FBF795FDD8F80000FCF738FA92
:104B400006F05EFF009602460B466848FBF78FFDB5
:104B500062496648FBF785FDD8F80000DFF8B081B0
:104B6000FCF726FA06F04CFF009602460B465A4820
:104B7000FBF77DFD59495848FBF773FD5E495B48DB
:104B8000FBF76FFD5C495448FBF76BFDD8F800005C
:104B9000FCF70EFA06F034FF009602460B46534827
:104BA000FBF765FD4D495148FBF75BFDD8F8000068
:104BB000FCF7FEF906F024FF009602460B46464835
:104BC000FBF755FD44484549FBF74BFD504607F5BB
:104BD000B2712A4602F09DF85046012102F0A7F872
:104BE0000646002840F0E7802A46484607F5B2719D
:104BF00002F08FF83146484602F0A3F801462046FD
:104C000005F013FE20463D4905F0B1FE061C18BF15
:104C10000126204605F0C8FD002E00F0CC802A4673
:104C2000484607F5B27102F074F80121484602F0D7
:104C30007EF8FBF7F9FF2B4BD7F8D4201B68013B1C
:104C40009A4240F0B880DFF8BC802D492748FBF736
:104C500008FD2B492048FBF704FDD8F8000006F0BA
:104C6000CFFE022602460B4600962048FBF7FFFCCB
:104C70001A491E48FBF7F5FCD8F80000DFF88880D9
:104C800006F0BEFE009602460B461348FBF7EFFC0B
:104C900012491148FBF7E5FC15491448FBF7E1FC04
:104CA00013490D48FBF7DDFCD8F8000006F0A8FE1C
:104CB000009602460B460D48FBF7D9FC07490B4806
:104CC000FBF7CFFCD8F80000DFF8408006F098FE34
:104CD000009602460B461DE0249BFF1F1F0A0100A1
:104CE0005A0801007889FF1FA10A0100E89AFF1FF6
:104CF000B40A0100B90A0100BE0A0100C30A01009A
:104D0000D70A0100C494FF1FD094FF1F2094FF1FF7
:104D10003894FF1FAC48FBF7AAFCAC49AA48FBF744
:104D2000A0FCAB49AB48FBF79CFCA949A648FBF7A4
:104D300098FCD8F8000006F063FE009602460B4689
:104D4000A448FBF794FCA149A248FBF78AFCD8F8D9
:104D50000000DFF8A48206F053FE009602460B46E0
:104D60009948FBF784FC99499748FBF77AFC9A49E4
:104D70009848FBF776FC98499348FBF772FCD8F803
:104D8000000006F03DFE009602460B469148FBF7F8
:104D90006EFC8E498F48FBF764FCD8F8000006F0E3
:104DA0002FFE009602460B468748FBF760FC8648BC
:104DB0008649FBF756FC504607F5B2712A4601F0CA
:104DC000A8FF5046012101F0B2FF064600284FD14E
:104DD0002A46484607F5B27101F09BFF3146484626
:104DE00001F0AFFF0146204605F01FFD20467B493C
:104DF00005F0BDFD10F1000818BF4FF00108204676
:104E000005F0D2FCB8F1000F32D02A46484607F52B
:104E1000B27101F07EFF0221484601F088FF5FFA7F
:104E200080F83146404605F031F9404605F06AFB0E
:104E30006B4BD7F8D4101B68013B9942064617D13B
:104E400068496448FBF70DFC66495F48FBF709FCBD
:104E500031466048FBF709FC5C495E48FBF701FC02
:104E600031465948FBF701FC57485849FBF7F9FB15
:104E7000504607F5B2712A4601F04BFF504601211A
:104E800001F055FF064600284FD12A46484607F54F
:104E9000B27101F03EFF3146484601F052FF014633
:104EA000204605F0C2FC20464F4905F060FD10F198
:104EB000000818BF4FF00108204605F075FCB8F156
:104EC000000F32D02A46484607F5B27101F021FFA3
:104ED0000221484601F02BFF5FFA80F83146404638
:104EE00005F0D4F8404605F0C5F83D4BD7F8D4207E
:104EF0001B68013B9A42064617D13C493548FBF7EF
:104F0000B0FB3A493048FBF7ACFB31463148FBF780
:104F1000ACFB2E492F48FBF7A4FB31462A48FBF790
:104F2000A4FB29482949FBF79CFB504607F5B271C1
:104F30002A4601F0EEFE5046012101F0F8FE064639
:104F400000285BD12A46484607F5B27101F0E1FE20
:104F50003146484601F0F5FE0146204605F065FC65
:104F60002046234905F003FD061C18BF01262046F4
:104F700005F01AFC002E41D02A46484607F5B271CA
:104F800001F0C7FE0221484601F0D1FE2A4606463E
:104F900007F5B271484601F0BCFE0321484601F016
:104FA000C6FEF6B280460121304605F06FF8114A80
:104FB00052F8362018F0FF0F4FF0010314BF82F8AB
:104FC000803082F8003119E0249BFF1F1F0A010086
:104FD000B90A0100E89AFF1FBE0A0100EE0A0100AB
:104FE0007889FF1FFA0A0100090B0100160B010066
:104FF000260B0100480D01003894FF1F504607F5AD
:10500000B2712A4601F085FE5046012101F08FFE63
:105010008046002863D12A46484607F5B27101F060
:1050200078FE4146484601F08CFE0146204605F0D8
:10503000FCFB2046A34905F09AFC061C18BF01267C
:10504000204605F0B1FB002E49D02A46484607F518
:10505000B27101F05EFE0221484601F068FE2A4668
:10506000064607F5B271484601F053FE0321484653
:1050700001F05DFE2A46034607F5B27148463B60E3
:1050800001F047FE0421484601F051FE2A468446BD
:1050900007F5B2714846C7F804C001F03AFE052191
:1050A000484601F044FEF6B2024601213046BA609D
:1050B00004F0ECFFD7F804C03046614604F062FF0C
:1050C0003B683046194604F0FDFFBA68104605F00B
:1050D000F1F83046414604F0F5FFFDF75FFB50461E
:1050E00007F5B2712A4601F014FE5046012101F085
:1050F0001EFE064600283CD12A46484607F5B271F6
:1051000001F007FE3146484601F01BFE01462046ED
:1051100005F08BFB20466C4905F029FC061C18BFE6
:105120000126204605F040FB1EB3D7F8D43003BB60
:1051300066496748FBF795FA64496648FBF791FAB8
:10514000D7F8D42064492046FBF72AFE2146604860
:1051500005F080FE61495E48FBF783FA21465D4811
:1051600005F078FE5B485D49FBF77BFA204605F0C9
:105170001BFB013500E0002507F5B270FBF7A7FA2D
:105180008542FFF697AA3A6B554DD1B228680022A6
:1051900002F0FAFCFB6A2868D9B2002202F0D0FCC7
:1051A000796D052919D8DFE801F003070A0D1013FE
:1051B000002128680A460EE0286801210AE02868D4
:1051C000022107E02868032104E02868042101E0A7
:1051D00028680521002202F0BFFC3B6D052B19D881
:1051E000DFE803F003070A0D1013002128680A46C0
:1051F0000EE0286801210AE02868022107E02868FB
:10520000032104E02868042101E028680521002228
:1052100002F0AEFC022005F04DF8324B1868FBF7A7
:10522000C7FE0025C7F8B800C7F8BC503D67C7F8EF
:105230008850C7F8C85091E3D7F8D050002D2DD131
:10524000D7F8C850002D5BD103F064FBFD6D264BF1
:10525000EAB2BD6F53F832300122002D83F80021ED
:1052600008DB224B6A1E9A4204D8214821497A6CF5
:1052700005F009FD72B6BD6C15B12B46013BFDD1A1
:1052800062B6BD6F002D0CDB184B6A1E9A4208D81F
:1052900019497A6C194805F0F6FC02E0D7F8C850B5
:1052A0008DBB07F5BE7007F5AE71D7F8D02001F0C1
:1052B00030FD07F5BE70FBF70AFA0125C7F8A0001C
:1052C00022E000BF340B0100410B0100460B01003E
:1052D000E89AFF1F249BFF1FC0C62D001E0A010075
:1052E000C894FF1FC494FF1F480D01005455550575
:1052F000B893FF1F510500007D0500004C91FF1F72
:10530000D7F8D05000E00025D7F8D020C7F8845057
:1053100007F5BE7007F5AE7101F0FBFCD7F8A050A1
:10532000D7F8F430B3FBF5F105FB113107F5BE708A
:1053300001F0FDFC8E4BD7F8D020186007F5AA715C
:1053400007F5BE7001F0E5FCD7F8F430B3FBF5F1DA
:1053500005FB113107F5BE7001F0E9FCD7F8C81064
:10536000844BA942186080F21D82002940F093818D
:10537000D7F8D02007F5BE7007F5B67101F0C9FC6B
:10538000D7F8C81007F5BE7001F0DBFC0146D7F86E
:10539000C00005F04AFAD7F8C000774905F0E7FAEF
:1053A00020B1D7F89050013540F01381D7F8D45090
:1053B000002D01F0BD820CE170497148FBF751F9F5
:1053C00070486E49FBF74DF9D7F8905001350CD174
:1053D0006D496B48FBF745F94FF0FF3569486A495D
:1053E000FBF73FF9C7F890504FE10520FBF73EFD72
:1053F000C7F890000130EBD064496148FBF731F900
:1054000062496048FBF72DF9D7F8C0105C4805F0F9
:1054100021FDD7F8C0105B4805F01CFD5C495848D9
:10542000FBF71FF95A495748FBF71BF959495448EC
:10543000FBF717F957495348FBF713F9D7F8D02072
:1054400007F5BE7007F5B67101F063FC012107F5A1
:10545000BE7001F076FC01464948FBF702F9D7F827
:10546000D02007F5BE7007F5B67101F052FC01219E
:1054700007F5BE7001F065FC01464248FBF7F1F804
:1054800043493F48FBF7EDF841493E48FBF7E9F84F
:10549000D7F8C000404905F06AFA30B13F493848B2
:1054A000FBF7DFF837483D4910E0D7F8C0003C492A
:1054B00005F05DFA68B13B48FBF7D8FC0130FAD142
:1054C00039492F48FBF7CDF82E483749FBF7C9F883
:1054D0003DE0D7F8C000354905F049FA054680B1EE
:1054E0003048FBF7C3FC012808D131492448FBF7B9
:1054F000B8F82F492348FBF7B4F8C6E00130EFD1E4
:10550000DEE7D7F8C0002B4905F031FAF8B12A469A
:1055100020462449FBF744FC1E491948FBF7A1F833
:105520001C491848FBF79DF82146164805F092FCE7
:105530002146134805F08EFC1F491148FBF791F8EE
:1055400010481D49FBF78DF8204605F02DF907F5A9
:105550009670FBF7BCF8D7F8D05001388542084860
:105560002ED01649FBF77DF8064814492DE000BF00
:10557000F893FF1F2894FF1F7A0301004F0B0100CF
:10558000E89AFF1F249BFF1F5B0B0100600B0100CB
:105590001E0A01002205010072050100630B0100D3
:1055A000670B0100C0C62D006D0B0100730B0100DD
:1055B0007B0B0100870B0100640B01001F0A010037
:1055C0006F49FBF74EF86F486D490125FBF749F825
:1055D0003D67D7F8D01007F59A7001F0A8FBD7F80F
:1055E000D020D7F8B830D7F88C10F861FCF7D2FF8C
:1055F000D7F8D010804607F59E7001F098FBD7F8D9
:10560000D020D7F8B830D7F88C10B861FCF7C2FFBB
:10561000D7F8D010064607F5A27001F088FBD7F83E
:10562000D020D7F8B830D7F88C107861FCF7B2FFEB
:10563000D7F8D010C7F8800007F5A67001F077FB07
:10564000D7F88C10D7F8D020D7F8B8307860FCF7AE
:10565000A1FF0546D7F8C00005F0A6F807F1A401A0
:105660000EC97963D7F8B010BA63FB633964D7F811
:1056700004C07A69BB69F969C7F8A4C0C7F8A82053
:10568000C7F8AC30C7F8B0100AE0D7F8C00005F092
:105690008BF800F06DBF0025C7F880502E46A84655
:1056A000DFF8FCC0D7F8B830DCF80000D7F88C1071
:1056B000D7F8D020C7F804C0FCF76CFFD7F804C0B7
:1056C000DCF80030023B122B3BD8DFE803F0283A2D
:1056D0003A3A3A3A3A3A2E161C3A340A103A3A3AD8
:1056E0002200294B29481A88032101F005FE264B88
:1056F00026481A88032101F0FFFD234B23481A880E
:10570000032101F0F9FD204B20481A88032101F004
:10571000F3FD1F4B1D481A88002101F0EDFD1C4BC5
:105720001A481A88002101F0E7FD1A4B17481A8819
:10573000022101F0E1FD174B14481A88022101F003
:10574000DBFD154A042313602022013AFDD1134AE0
:105750001360D7F8C83053BB19460D4B0B481A8855
:1057600001F0CAFD084B09481A88032101F0C4FD65
:10577000084B06481A88022101F0BEFD17E000BF61
:10578000840B0100249BFF1FF895FF1FB492FF1F9D
:10579000DC91FF1F0C94FF1F88F00F4084F00F4036
:1057A000F893FF1F0025C7F880502E46A8469D4B52
:1057B0009D491A6808680028FBD0D2F1010238BF61
:1057C0000022002AF5D1994B1868994B197802F0FC
:1057D000E7F9984BD7F884101880974B10220129CD
:1057E0001A6051D1396C954BCAB2D7F8841053F86E
:1057F0003220B8F1010F82F8001106D1D7F8B010AD
:10580000CAB253F8322082F88080F96BCAB253F8DA
:1058100032300122964283F8002107D1D7F8AC300C
:10582000DAB2864B53F8323083F88060B96B834B21
:10583000CAB2012153F8322082F80011D7F8802033
:105840008A4208D1D7F8A810CAB2D7F8801053F806
:10585000322082F88010796BCAB253F832300122BC
:10586000954283F8002107D1D7F8A430DAB2734B00
:1058700053F8323083F88050714A04231360202299
:10588000013AFDD16F4A13603D6A5DB9684B1B68F0
:10589000222B02D0232B05D101E06B4B00E06B4B98
:1058A0001D6800E000256A4B1B6813B3D7F88820F9
:1058B000D7F898105F4B31F81200B3F8008006F06B
:1058C000DFFC1FFA88F80646404606F0D9FC294658
:1058D00006F020FC0146304606F01EFC06F010FFE4
:1058E000D7F88810D7F8985025F811000131C7F87B
:1058F000881072B64B4BD7F8C82000251D604A4B64
:1059000001321D60C7F8C82062B6D7F8F430D7F866
:10591000D010013307F59670C7F8F43001F007FA9C
:1059200007F5AE710646D7F8D02007F5BE7001F036
:10593000F0F907F5BE70FAF7CAFED7F8C830704321
:10594000834206D1D7F8D010C7F8C8500131C7F844
:10595000D010D7F8BC500135C7F8BC50D7F8BC50B0
:10596000B96E8D42FFF668AC7A6A3A4D00922868AB
:10597000D7F8D020D7F8B830D7F88C10FCF7A2FEB3
:105980002B68D7F8B0502D4A9D4205D0E9B20125C9
:1059900052F8311081F80051D7F8AC509D4205D033
:1059A000E9B252F83120012182F80011D7F8A8504D
:1059B000224A9D4205D0E9B2012552F8311081F802
:1059C0000051D7F8A4509D4205D0E9B252F83120D9
:1059D000012182F800110128184A0DD1184D042127
:1059E00029602025013DFDD1DBB2164D52F8333040
:1059F000296083F8800005E0DBB252F833300122E1
:105A000083F80021144805F035F9144805F032F9FF
:105A1000044B00251D60044B1D60C7F8F45000F0D6
:105A20008ABD00BF6091FF1FB894FF1FC894FF1F7D
:105A30002894FF1F8495FF1FC4F00F40480D0100FC
:105A400088F00F4084F00F40BC94FF1FC094FF1FEC
:105A5000F893FF1F6489FF1FB893FF1F4C91FF1F2E
:105A6000504607F5B2712A4601F053F9012150461C
:105A700001F05DF90128064656D12A46484607F549
:105A8000B27101F046F90021484601F05AF9014689
:105A9000204604F0CAFE2046B84904F068FF10F121
:105AA000000818BF4FF00108204604F07DFEB8F151
:105AB000000F39D02A46484607F5B27101F029F99E
:105AC0003146484601F033F9FBF7A4F8AC4BD7F860
:105AD000D4101B68013B994226D1AA49DFF8CC8239
