:1000000000800020BD01000085D4000051D4000014
:1000100051D4000051D4000051D4000051D400004C
:1000200051D4000051D4000051D4000085D4000008
:1000300085D4000051D4000085D4000041D40000D4
:1000400085D4000085D4000085D4000085D400004C
:1000500085D4000085D4000085D4000085D400003C
:1000600085D4000085D4000085D4000085D400002C
:1000700085D4000085D4000085D4000085D400001C
:1000800085D4000085D4000085D4000085D400000C
:1000900085D40000F9B9000085D4000085D40000A3
:1000A00091AB000085D4000085D4000085D4000009
:1000B00085D4000085D4000085D4000085D40000DC
:1000C00085D4000085D4000085D4000085D40000CC
:1000D00085D4000085D4000085D4000085D40000BC
:1000E00085D4000085D4000085D4000085D40000AC
:1000F00085D4000001C9000085D40000CDEC0000CB
:1001000085D4000005DC000085D4000085D4000003
:1001100085D4000085D4000085D4000085D400007B
:1001200085D4000085D4000085D4000085D400006B
:1001300085D4000085D4000085D4000085D400005B
:1001400085D4000085D4000085D4000085D400004B
:10015000D5DC0000EDDC000005DD00001DDD000049
:1001600085D4000001BE000085D4000085D40000C5
:1001700085D4000085D4000085D4000085D400001B
:1001800085D4000085D4000085D4000085D400000B
:1001900085D4000085D4000085D4000085D40000FB
:1001A00085D4000085D4000085D4000085D40000EB
:1001B00085D4000085D4000085D40000564B4CF255
:1001C000205210B51A804DF628121A8000BF00BFC9
:1001D0000BF058FC514B4FF010621A60504A9A6075
:1001E000504ADA60A3F53043203B1A6812F480725B
:1001F00004D14D490A604FF4A8521A604B4B1A784B
:10020000110703D51A7842F008021A70484B2A22C7
:100210001A700023474A48499818884204D247492F
:10022000595899500433F5E7454A464B9A424FF0E6
:10023000000302D242F8043BF7E74349434A5958C6
:1002400099500433B3F5DE7FF7D1414B802103F899
:10025000011B40498B42F9D13F4B1A603F4B0A22A8
:100260001A70A3F5805324225A70A0221A709A792A
:100270009207FCD59A79D406FCD4394B9A7902F0CE
:100280000C02082AF9D103221A7140225A719A7974
:100290009006FCD5324B9A795106FBD5314A32494A
:1002A00011600221516020221A702D4B9B7903F0BE
:1002B0000C030C2BF9D12D4B2D4A1A602D4B2E4AD5
:1002C0001A6000225A60072243F8042C2B4AC3F814
:1002D0000C2D62B60DF066F8134B1B68DA0705D5D6
:1002E00027480CF069FE274B274A1A60274B1B78DA
:1002F0005B0609D5234C244A2368934204D1204845
:100300000CF05AFE0023236010F0E0FE0DF0BDF863
:100310000DF00CFFFEE700BF0E20054030800440CA
:10032000823F04000100002B14D0034002D007409C
:1003300000E007406089FF1F4C8BFF1F94470100BE
:100340004C8BFF1FD89FFF1F000000000084FF1F81
:1003500000E400E05FE400E008ED00E0005006404B
:100360000040064044800440000003010480044033
:10037000C010050014E000E0FF760100000020201E
:10038000BC4501571CE00340A5C3945A00F0074048
:10039000FFFFFFFFFFFFFFFFFFFFFFFFFFFFFFFF6D
:1003A000FFFFFFFFFFFFFFFFFFFFFFFFFFFFFFFF5D
:1003B000FFFFFFFFFFFFFFFFFFFFFFFFFFFFFFFF4D
:1003C000FFFFFFFFFFFFFFFFFFFFFFFFFFFFFFFF3D
:1003D000FFFFFFFFFFFFFFFFFFFFFFFFFFFFFFFF2D
:1003E000FFFFFFFFFFFFFFFFFFFFFFFFFFFFFFFF1D
:1003F000FFFFFFFFFFFFFFFFFFFFFFFFFFFFFFFF0D
:10040000FFFFFFFFFFFFFFFFFFFFFFFFFEFFFFFFFD
:1004100010B5054C237833B9044B13B10448AFF33E
:1004200000800123237010BD4C8BFF1F00000000D3
:100430009447010008B5064B1BB106480649AFF3C7
:1004400000800648036813B1054B03B1984708BD07
:100450000000000094470100508BFF1F4C8BFF1FD2
:1004600000000000024B4FF400121A60704700BFFA
:1004700080E100E0064B10221A60064B1A78064B0A
:1004800053F83220012382F88030044A1360704709
:10049000C8F00F40EC99FF1F88410100708CFF1FCE
:1004A000054B1A78054B53F83220012382F80031AE
:1004B000034A1360704700BFEC99FF1F8841010099
:1004C000E497FF1F10B504460DF0DCFC204610BD7C
:1004D00038B50A480A4D09F041FE0A4B044618682F
:1004E00010F068FB0146204610F06CFC01462868BD
:1004F00010F0ACFA2860204638BD00BF2894FF1FDA
:10050000D08BFF1FE089FF1F38B50A480A4D09F05C
:1005100079FE0A4B0446186810F04CFB0146204651
:1005200010F050FC0146286810F090FA2860204630
:1005300038BD00BF2894FF1F008CFF1FE089FF1FFC
:1005400010B5ADF5B05D684600214FF4B05210F023
:10055000F3FD002420461DF8041001340DF066F967
:10056000B4F5B05FF6D10DF5B05D10BD38B50446F9
:1005700008460D4610F0BAFE236802465B68204626
:100580002946984738BD08B503681B68984708BDD9
:1005900008B5FFF7EBFF08BD0DF0E6BC0A2200230B
:1005A0000DF0AABC9DF8001000910DF0E5BC38B527
:1005B00004460DF070FC054620460DF08DFC2844E5
:1005C00038BD38B50446FFF7D1FF054620460DF08B
:1005D00083FC284438BD38B504460DF0C5FC0546FB
:1005E00020460DF079FC284438BD37B59DF8181029
:1005F000009104460DF0C0FC054620460DF06CFC51
:10060000284403B030BDFFFF002A10B50ADB064BBB
:10061000541E9C4206D830235A43013ABDE810408C
:100620000DF01ABC002010BD5755550508B50368DC
:10063000C9B21B68984708BD0D4B70B540241C60BB
:1006400032200CF099FE0B4B0B4D0C4E1C600C4CE9
:1006500031462846FFF7B5FF31462046FFF7B1FF88
:1006600028460DF039FC2046BDE870400DF034BC42
:10067000C4F00F40C8F00F40FC9EFF1FB82F0100D0
:10068000209FFF1F10B517491748184CFFF780FF30
:1006900017481449FFF77CFF236863B915491248CE
:1006A000FFF78FFF12481349FFF78BFF124B02220F
:1006B0001A6001230DE0012B0CD110490A48FFF705
:1006C00080FF0B480D49FFF77CFF0D4B02221A609B
:1006D0000023236004480DF0FFFB0548BDE81040EF
:1006E0000DF0FABBCB2F0100FC9EFF1FFC94FF1FF7
:1006F000209FFF1FC42F010084F00F40E02F010056
:1007000088F00F402DE9F74F002140F6FF724E4868
:100710000AF0DEF84D4A0423202413602246013AF1
:100720007FF4FDAF4A4A4B4F136011200CF0A2FF3B
:10073000494B4A4E1C6005460A200CF01DFE112054
:100740000CF098FF83466E200CF016FE11200CF082
:1007500091FF434BDFF818911C60424C82462146C2
:100760003846FFF715FF21463046FFF711FF2846B0
:1007700010F020FA3C4910F025FB0FF0DBFD4FF0A4
:10078000020804460D460B462246CDF80080384646
:10079000FFF708FF22462B46CDF800803046FFF7D2
:1007A00001FF49463846FFF7F3FE49463046FFF75A
:1007B000EFFE584610F0FEF92B4910F003FB0FF046
:1007C000B9FD04460D460B462246CDF8008038465A
:1007D000FFF7E8FE22462B46CDF800803046FFF7B3
:1007E000E1FE49463846FFF7D3FE49463046FFF75B
:1007F000CFFE504610F0DEF91B4910F0E3FA0FF07F
:1008000099FD04460B462246CDF8008038460D4639
:10081000FFF7C8FE2246154CCDF800802B46304627
:10082000FFF7C0FE21463846FFF7CBFE2146304693
:10083000FFF7C7FE38460DF04FFB304603B0BDE86A
:10084000F04F0DF049BB00BF7897FF1F88F00F40B5
:1008500084F00F40FC9EFF1FC4F00F40209FFF1F3D
:10086000C8F00F40E62F010000601345F72F01008C
:10087000653E01002DE9F74307460E460AA8002110
:10088000144698460C9D09F09CFD002840F3E98031
:1008900075497648FFF77CFE294674480DF0FBFA4F
:1008A00073497248FFF774FE6F497248FFF770FE94
:1008B000294670480DF0EFFA6D496E48FFF768FE63
:1008C0002046002110F05EFB08B10024B9E020466C
:1008D0000FF030FD022704460D460B4622460097D6
:1008E0006248FFF75FFE0097624822462B46FFF7FB
:1008F00059FE3068002110F045FB002840F0A98027
:100900005D495A48FFF744FE40460FF013FD044688
:1009100022460B46009755480D46FFF743FE5649C1
:100920005448FFF735FE009722462B465148FFF703
:1009300039FE8EE09C4280F28C8050494B48FFF794
:1009400027FE21460AA809F03CFD014647480DF064
:100950000BFB49494548FFF71BFE48494548FFF74F
:1009600017FE21460AA809F02CFD014641480DF06A
:10097000FBFA40484049FFF70BFE00251A2D4ED0E8
:100980003F4B21460AA853F8259009F01AFD10F0B4
:1009900011F9014648464FEA850810F0F3FA00289D
:1009A00055D057F808000FF0C5FC022502460B464B
:1009B00000952E48FFF7F6FD57F808000FF0BAFC37
:1009C000009502460B462B48FFF7ECFD30680021EE
:1009D00010F0D8FAD8B928492448FFF7D9FD56F8BD
:1009E00008000FF0A7FC009502460B461F48FFF7D2
:1009F000D9FD21491F48FFF7CBFD56F808000FF03D
:100A000099FC009502460B461A48FFF7CBFD1D499D
:100A10001648FFF7BDFD17481A49FFF7B9FD012039
:100A20000CF0AAFC0B9B03B1DB68013B9C4207D096
:100A300011490E48FFF7ACFD0E480F49FFF7A8FD1E
:100A400001340B9B002B3FF475AFDB6872E7013577
:100A500094E70D490548FFF79BFD06480A49FFF753
:100A600097FD03B0BDE8F083A6360100FC9EFF1F92
:100A700007300100209FFF1F653E01000A30010082
:100A80007489FF1F014001002040010010B528209B
:100A900000210CF053FB28210A2200230A480DF004
:100AA0002BFA09480DF018FA642428200CF0E2FD16
:100AB00001460548FFF78FFD4FF4FA600CF05CFC2F
:100AC000013CF2D110BD00BFFC9EFF1F0C2038B5C9
:100AD0000CF082FA282001210CF030FB0CF016F803
:100AE00000283ED10446214628200CF043FB032079
:100AF0000CF042FC1A200CF0BDFD214605461C48B6
:100B0000FFF74AFD1B491A48FFF742FD29461848DE
:100B1000FFF742FD16481749FFF753FD013440F235
:100B2000DC539C42DFD1214628200CF023FB03201C
:100B30000CF022FC1A200CF09DFD214605460C48C5
:100B4000FFF72AFD0B490A48FFF722FD294608480E
:100B5000FFF722FD06480749FFF733FD013CE2D1CC
:100B6000BCE70BF091FFBDE838400BF08DBF00BF34
:100B7000FC9EFF1F653E0100012801D8FFF7A8BCBD
:100B80007047012801D8FFF7BFBC70472DE9F84333
:100B900004464148414D424F424E09F051FE10F08B
:100BA00005F828603C4809F052FE0FF0FFFF38605E
:100BB000394809F053FE0FF0F9FF3060364809F06C
:100BC00054FE0FF0F3FF384B8046186054BB374B90
:100BD000DFF8EC9018680FF0EDFF04462146286816
:100BE00010F0F0F80146D9F800000FF02FFF214671
:100BF000C9F800003868DFF8CC902D4F10F0E2F80B
:100C00000146D9F800000FF021FF2146C9F8000085
:100C10003068284E10F0D6F8014638680FF016FFFD
:100C200038602BE0012C32D1204BDFF89C90186803
:100C30000FF0C0FF04462146286810F0C3F80146B3
:100C4000D9F800000FF002FF2146C9F8000038680B
:100C5000DFF87890184F10F0B5F80146D9F8000089
:100C60000FF0F4FE2146C9F800003068134E10F072
:100C7000A9F8014638680FF0E9FE38602146404681
:100C800010F0A0F8014630680FF0E0FE30602868F0
:100C900010F0AAF9BDE8F8834C93FF1F7093FF1F73
:100CA0004897FF1F3C97FF1FF08BFF1FE089FF1F36
:100CB000608CFF1FF499FF1FF894FF1F4491FF1FE2
:100CC0004891FF1F2C94FF1F2094FF1FF494FF1FD7
:100CD0002DE9F74F2B4DDFF8B8B0DFF8B8A02A4E5A
:100CE000DFF8B490DFF8B480284C59462846FFF767
:100CF0004FFCDAF800000FF01DFB022702460B46FE
:100D000000972846FFF74EFC31462846FFF740FC87
:100D100049462846FFF73CFCD8F800000FF00AFBD4
:100D2000009702460B462846FFF73CFC59462046F2
:100D3000FFF72EFCDAF800000FF0FCFA00970246ED
:100D40000B462046FFF72EFC31462046FFF720FCDD
:100D500049462046FFF71CFCD8F800000FF0EAFADD
:100D6000009702460B462046FFF71CFC31462846FA
:100D7000FFF70EFC20463146FFF70AFC03B0BDE842
:100D8000F08F00BFFC9EFF1F653E0100209FFF1FEC
:100D9000AD3001006889FF1FBC300100F492FF1FD5
:100DA000F0B50D46ADF57B7D0446264816460DF0A0
:100DB0007BF9294624480DF077F94FF47A72002127
:100DC000684610F0B9F9204600210DF01BFB1F4BBF
:100DD0001D681A681F460BF099FE10B90BF01AFD3A
:100DE000E8B10BF093FE002805DD0BF073FE5B28E5
:100DF00024D0144808E00BF00DFD00281EDD0BF098
:100E000043FD5B281AD010482B216A464FF47A73B1
:100E10000DF04CF9204669460DF02CFB0EE0012E3A
:100E2000D9D13868401B0FF0C5FE094B196810F086
:100E3000D1F80028CFD0FFF7FFFBD2E720460DF511
:100E40007B7DF0BDFC9EFF1F209FFF1F649EFF1F48
:100E50006C89FF1FF0B504468DB01F4821460DF088
:100E600023F91E4821460DF01FF92022002104A875
:100E700010F062F9684600210DF0C4FA184B1E68A4
:100E80001A681F460BF042FE10B90BF0C3FCC0B14C
:100E90000BF0C0FC002801DD104804E00BF036FE2A
:100EA000002813DD0C4804AA20232B210DF0FEF8A6
:100EB00004A968460DF0DEFA009810F0E3F8054644
:100EC00004E03B689B1BA342DCDDE1E768460DF0D4
:100ED00059FA28460DB0F0BDFC9EFF1F209FFF1F52
:100EE000649EFF1F2DE9F04106468CB02148314633
:100EF0000DF0DAF8204831460DF0D6F82022002116
:100F000004A810F019F9684600210DF07BFA1B4B7C
:100F10001F681A6898460BF0F9FD10B90BF07AFCBF
:100F2000C8B10BF0F3FD002801DD124804E00BF01E
:100F300071FC002815DD104804AA20232B210DF098
:100F4000B5F804A968460DF095FA009810F097F8E6
:100F500004460D4605E0D8F80030DB1BB342DADD6D
:100F6000DFE768460DF00EFA204629460CB0BDE8D2
:100F7000F08100BFFC9EFF1F209FFF1F649EFF1F8C
:100F800008B5044B19680FF05FFD034B19680FF0AB
:100F900019FF08BDF492FF1F6889FF1F70B5054651
:100FA0000E46002428460FF005FE1E4B014653F85E
:100FB00024000FF0E7FFE8B11B4B53F82450002149
:100FC00028460FF04BFE014628460FF03FFD174B19
:100FD00053F824400546002120460FF03FFE01460D
:100FE00020460FF033FD0021044628460FF0CAFFCB
:100FF00048B103E001341A2CD4D10EE02046002180
:101000000FF0C0FF48B930460FF0D4FD21460FF075
:101010001BFD29460FF0D6FE00E000200FF0E4FF94
:1010200070BD00BF7489FF1F2492FF1F8C92FF1FA9
:101030002DE9F34104460D463148324917461E4614
:10104000FFF7A6FA21462E480CF025FF2E492C4822
:10105000FFF79EFA2B492D48FFF79AFA21462B48B5
:101060000CF019FF29482849FFF792FA0024B442EE
:1010700023DA28680FF05EF94FF0060802460B46A7
:10108000CDF800801E48FFF78DFA55F8040B0FF0DD
:1010900051F9CDF8008002460B461C48FFF782FA52
:1010A000731E9C4207D01A491548FFF771FA17487A
:1010B0001749FFF76DFA0134D9E716491048FFF7D1
:1010C00067FA12481349FFF763FA012F0C4805D05D
:1010D0000F49FFF776FA0D480D490CE00E49FFF76E
:1010E00070FA0E490648FFF76CFA0B490748FFF7FC
:1010F00068FA06480949FFF764FA02B0BDE8F081D2
:10110000FC9EFF1FA6360100C5310100209FFF1F76
:10111000653E010001400100C92F0100FE340100BD
:10112000F7B504460D462E482E491646FFF730FA0D
:1011300021462B480CF0AFFE2B492948FFF728FA2F
:1011400028492A48FFF724FA214628480CF0A3FE34
:1011500026482549FFF71CFA002428680FF0EAF812
:10116000022702460B4600971D48FFF71BFA55F869
:10117000040B0FF0DFF8009702460B461B48FFF701
:1011800011FA192C07D01A491548FFF701FA174828
:101190001749FFF7FDF901341A2CDED11549104823
:1011A000FFF7F6F911481349FFF7F2F9012E0C4841
:1011B00005D00F49FFF705FA0C480D490CE00E4920
:1011C000FFF7FFF90D490648FFF7FBF90A49074801
:1011D000FFF7F7F905480949FFF7F3F903B0F0BD48
:1011E000FC9EFF1FA6360100C5310100209FFF1F96
:1011F000653E010001400100C92F0100FE340100DD
:1012000010B50FF0D7FC0B4B196804460FF026FD04
:10121000094B19680FF01AFC084B1860084B204660
:1012200019680FF01BFD074B19680FF00FFC064BF8
:10123000186010BD688CFF1FE494FF1FE899FF1F22
:101240006C8CFF1FE894FF1FF099FF1F2DE9F743F7
:10125000054638B953495448FFF79AF9534851495C
:10126000FFF796F9DFF8689151494F48DFF864813C
:10127000504F514EFFF78CF9D9F800000FF05AF893
:10128000022402460B4600944748FFF78BF94B496E
:101290004548FFF77DF94A494348FFF779F9D8F8FF
:1012A00000000FF047F8009402460B463E48FFF757
:1012B00079F942493C48FFF76BF942493A48FFF750
:1012C00067F938680FF036F8009402460B46364846
:1012D000FFF768F939493448FFF75AF93A49324873
:1012E000FFF756F930680FF025F8009402460B46D8
:1012F0002D48FFF757F92E492C48FFF749F9D9F83F
:1013000000000FF017F8009402460B462748FFF73D
:1013100049F92A492548FFF73BF929492348FFF7AE
:1013200037F9D8F800000FF005F8009402460B4694
:101330001E48FFF737F921491C48FFF729F92149D1
:101340001A48FFF725F938680EF0F4FF00940246BA
:101350000B461648FFF726F918491448FFF718F905
:1013600019491248FFF714F930680EF0E3FF0094B2
:1013700002460B460D48FFF715F9012D0A4807D123
:101380000E49FFF705F90D490848FFF701F906E096
:101390000E49FFF716F905480C49FFF712F903B09B
:1013A000BDE8F083D1300100FC9EFF1F209FFF1F8E
:1013B000D33001006C8CFF1FE894FF1F653E0100D5
:1013C000DF300100F0300100FC300100C92F0100C6
:1013D000688CFF1FE494FF1F01282DE9F341884624
:1013E00016461D463DD1A64FA649A748FFF7D0F89F
:1013F00038680EF09FFF062402460B460094A24870
:10140000FFF7D0F8A149A048FFF7C2F878680EF0BE
:1014100091FF009402460B469B48FFF7C3F89C4996
:101420009948FFF7B5F897499A48FFF7B1F8386837
:101430000EF080FF009402460B469648FFF7B2F884
:1014400092499448FFF7A4F878680EF073FF00946F
:1014500002460B468F48FFF7A5F88E488C49FFF7E8
:1014600097F8B8F1010F3DD18B4F8C498648FFF7B3
:101470008FF838680EF05EFF062402460B46009493
:101480008148FFF78FF881497F48FFF781F8786836
:101490000EF050FF009402460B467B48FFF782F89F
:1014A0007B497948FFF774F87C497A48FFF770F870
:1014B00038680EF03FFF009402460B467548FFF770
:1014C00071F872497348FFF763F878680EF032FFDD
:1014D000009402460B466F48FFF764F86D486C496C
:1014E000FFF756F8012E3DD16D4E6E496648FFF765
:1014F0004FF830680EF01EFF062402460B4600949B
:101500006148FFF74FF861495F48FFF741F870689D
:101510000EF010FF009402460B465B48FFF742F8BE
:101520005B495948FFF734F85E495A48FFF730F8ED
:1015300030680EF0FFFE009402460B465548FFF758
:1015400031F852495348FFF723F870680EF0F2FE65
:10155000009402460B464F48FFF724F84D484C498B
:10156000FFF716F8012D3DD14F4D50494648FFF782
:101570000FF828680EF0DEFE062402460B460094A3
:101580004148FFF70FF841493F48FFF701F8686805
:101590000EF0D0FE009402460B463B48FFF702F8DF
:1015A0003B493948FEF7F4FF40493A48FEF7F0FF5F
:1015B00028680EF0BFFE009402460B463548FEF741
:1015C000F1FF32493348FEF7E3FF68680EF0B2FEE0
:1015D000009402460B462F48FEF7E4FF2D482C49A5
:1015E000FEF7D6FF089B012B3DD1314D31492648EE
:1015F000FEF7CEFF28680EF09DFE062402460B463D
:1016000000942148FEF7CEFF20491F48FEF7C0FF97
:1016100068680EF08FFE009402460B461A48FEF7EB
:10162000C1FF1B491848FEF7B3FF22491948FEF7CE
:10163000AFFF28680EF07EFE009402460B46154868
:10164000FEF7B0FF11491348FEF7A2FF68680EF0DD
:1016500071FE009402460B460E48FEF7A3FF0D48AC
:101660000B49FEF795FF099B012B5ED1124D1349E3
:101670000548FEF78DFF28680EF05CFE06241FE08B
:101680002C97FF1F0D310100FC9EFF1F653E0100DE
:1016900020400100209FFF1F3497FF1F1E310100D3
:1016A0004097FF1F2F3101005094FF1F4031010070
:1016B0005894FF1F513101006094FF1F62310100F7
:1016C00002460B460094A548FEF76CFFA449A348C8
:1016D000FEF75EFF68680EF02DFE009402460B4692
:1016E0009E48FEF75FFF9F499C48FEF751FF9E49C9
:1016F0009E48FEF74DFF28680EF01CFE009402463F
:101700000B469A48FEF74EFF95499848FEF740FF72
:1017100068680EF00FFE009402460B469348FEF7F1
:1017200041FF92488F49FEF733FF0A9B012B3DD1C1
:101730008F4D90498948FEF72BFF28680EF0FAFD7F
:10174000062402460B4600948448FEF72BFF84498A
:101750008248FEF71DFF68680EF0ECFD009402461B
:101760000B467E48FEF71EFF7E497C48FEF710FFC1
:1017700080497E48FEF70CFF28680EF0DBFD0094E0
:1017800002460B467948FEF70DFF75497748FEF78C
:10179000FFFE68680EF0CEFD009402460B467348CB
:1017A000FEF700FF71486F49FEF7F2FE0B9B012B1D
:1017B0003DD1714D71496948FEF7EAFE28680EF087
:1017C000B9FD062402460B4600946448FEF7EAFE83
:1017D00063496248FEF7DCFE68680EF0ABFD0094DA
:1017E00002460B465D48FEF7DDFE5E495B48FEF7AC
:1017F000CFFE62495D48FEF7CBFE28680EF09AFDE9
:10180000009402460B465948FEF7CCFE544957480F
:10181000FEF7BEFE68680EF08DFD009402460B4692
:101820005248FEF7BFFE51484E49FEF7B1FE0C9BF1
:10183000012B3DD1524D53494848FEF7A9FE286877
:101840000EF078FD062402460B4600944348FEF74E
:10185000A9FE43494148FEF79BFE68680EF06AFD09
:10186000009402460B463D48FEF79CFE3D493B482E
:10187000FEF78EFE43493D48FEF78AFE28680EF0CB
:1018800059FD009402460B463848FEF78BFE34495A
:101890003648FEF77DFE68680EF04CFD0094024667
:1018A0000B463248FEF77EFE30482E49FEF770FEAA
:1018B0000D9B012B3DD1344D34492848FEF768FE7D
:1018C00028680EF037FD062402460B460094234894
:1018D000FEF768FE22492148FEF75AFE68680EF0BE
:1018E00029FD009402460B461C48FEF75BFE1D498D
:1018F0001A48FEF74DFE25491C48FEF749FE2868A8
:101900000EF018FD009402460B461848FEF74AFEFA
:1019100013491648FEF73CFE68680EF00BFD009474
:1019200002460B461148FEF73DFE10480D49FEF7F2
:101930002FFE0E9B012B5DD1154D16490748FEF772
:1019400027FE28680EF0F6FC062402460B4600949B
:101950000248FEF727FE02491EE000BFFC9EFF1F63
:10196000653E01002040010062310100209FFF1F01
:10197000D88BFF1F73310100E08BFF1F8431010002
:10198000E88BFF1F953101007094FF1FA631010005
:10199000F892FF1FB7310100A548FEF7F9FD68680E
:1019A0000EF0C8FC009402460B46A148FEF7FAFD73
:1019B000A0499F48FEF7ECFD9F49A048FEF7E8FDCF
:1019C00028680EF0B7FC009402460B469B48FEF7D1
:1019D000E9FD9B499948FEF7DBFD68680EF0AAFC1B
:1019E000009402460B469548FEF7DCFD934891496A
:1019F000FEF7CEFD0F9B012B3DD1924D92498C48B5
:101A0000FEF7C6FD28680EF095FC062402460B463C
:101A100000948748FEF7C6FD89498548FEF7B8FD62
:101A200068680EF087FC009402460B468048FEF77B
:101A3000B9FD80497E48FEF7ABFD83497F48FEF73C
:101A4000A7FD28680EF076FC009402460B467B4802
:101A5000FEF7A8FD7A497948FEF79AFD68680EF00E
:101A600069FC009402460B467448FEF79BFD7348E0
:101A70007049FEF78DFD109B012B3DD1734D7449CC
:101A80006B48FEF785FD28680EF054FC06240246DC
:101A90000B4600946648FEF785FD69496448FEF7E9
:101AA00077FD68680EF046FC009402460B466048DD
:101AB000FEF778FD5F495E48FEF76AFD64495F48BE
:101AC000FEF766FD28680EF035FC009402460B46D2
:101AD0005A48FEF767FD5A495848FEF759FD6868AD
:101AE0000EF028FC009402460B465448FEF75AFDBF
:101AF00052485049FEF74CFD119B012B3DD1554DED
:101B000055494B48FEF744FD28680EF013FC0624A7
:101B100002460B4600944648FEF744FD48494448B7
:101B2000FEF736FD68680EF005FC009402460B4691
:101B30003F48FEF737FD3F493D48FEF729FD46493E
:101B40003E48FEF725FD28680EF0F4FB009402469F
:101B50000B463A48FEF726FD39493848FEF718FD8E
:101B600068680EF0E7FB009402460B463348FEF728
:101B700019FD32482F49FEF70BFD129B012B3DD179
:101B8000364D37492A48FEF703FD28680EF0D2FB90
:101B9000062402460B4600942548FEF703FD28491B
:101BA0002348FEF7F5FC68680EF0C4FB009402467B
:101BB0000B461F48FEF7F6FC1E491D48FEF7E8FCE1
:101BC00027491E48FEF7E4FC28680EF0B3FB00949A
:101BD00002460B461948FEF7E5FC19491748FEF77F
:101BE000D7FC68680EF0A6FB009402460B4613482B
:101BF000FEF7D8FC11480F49FEF7CAFC139B012BD6
:101C00005CD1184D18490A48FEF7C2FC28680EF04E
:101C100091FB062402460B4600940548FEF7C2FCE1
:101C200007490348FEF7B4FC68680EF083FB1DE02B
:101C3000FC9EFF1F20400100B7310100209FFF1FC5
:101C4000653E01000093FF1FC93101000893FF1F8B
:101C5000DB3101001093FF1FED3101001893FF1FCE
:101C6000FF3101002093FF1F113201000094024652
:101C70000B46A548FEF796FCA449A348FEF788FC4E
:101C8000A349A448FEF784FC28680EF053FB009497
:101C900002460B469F48FEF785FC9F499D48FEF78C
:101CA00077FC68680EF046FB009402460B469948A4
:101CB000FEF778FC97489549FEF76AFC149B012BC8
:101CC0003DD1964D96499048FEF762FC28680EF08B
:101CD00031FB062402460B4600948B48FEF762FC5B
:101CE0008D498948FEF754FC68680EF023FB009488
:101CF00002460B468448FEF755FC84498248FEF7AD
:101D000047FC87498348FEF743FC28680EF012FB26
:101D1000009402460B467F48FEF744FC7E497D480E
:101D2000FEF736FC68680EF005FB009402460B4691
:101D30007848FEF737FC77487449FEF729FC159B75
:101D4000012B3DD1774D78496F48FEF721FC28687B
:101D50000EF0F0FA062402460B4600946A48FEF79D
:101D600021FC6D496848FEF713FC68680EF0E2FA42
:101D7000009402460B466448FEF714FC634962482F
:101D8000FEF706FC68496348FEF702FC28680EF07F
:101D9000D1FA009402460B465E48FEF703FC5E490A
:101DA0005C48FEF7F5FB68680EF0C4FA0094024642
:101DB0000B465848FEF7F6FB56485449FEF7E8FB39
:101DC000169B012B3DD1594D59494F48FEF7E0FB79
:101DD00028680EF0AFFA062402460B4600944A48E3
:101DE000FEF7E0FB4C494848FEF7D2FB68680EF06E
:101DF000A1FA009402460B464348FEF7D3FB434941
:101E00004148FEF7C5FB4A494248FEF7C1FB286836
:101E10000EF090FA009402460B463E48FEF7C2FBD5
:101E20003D493C48FEF7B4FB68680EF083FA009425
:101E300002460B463748FEF7B5FB36483349FEF7F6
:101E4000A7FB179B012B3DD13A4D3B492E48FEF78E
:101E50009FFB28680EF06EFA062402460B4600949B
:101E60002948FEF79FFB2C492748FEF791FB68683D
:101E70000EF060FA009402460B462348FEF792FBF0
:101E800022492148FEF784FB2B492248FEF780FBBC
:101E900028680EF04FFA009402460B461D48FEF7E4
:101EA00081FB1D491B48FEF773FB68680EF042FA80
:101EB000009402460B461748FEF774FB1548134979
:101EC000FEF766FB189B012B5DD11C4D1C490E488B
:101ED000FEF75EFB28680EF02DFA062402460B463C
:101EE00000940948FEF75EFB0B490748FEF750FBDC
:101EF00068680EF01FFA009402460B460248FEF78F
:101F000051FB02491EE000BFFC9EFF1F2040010064
:101F100011320100209FFF1F653E01002893FF1F23
:101F2000233201003093FF1F353201003893FF1F29
:101F3000473201004093FF1F593201003094FF1FC8
:101F40006B320100A448FEF723FBA449A448FEF726
:101F50001FFB28680EF0EEF9009402460B46A048DD
:101F6000FEF720FB9F499E48FEF712FB68680EF0C3
:101F7000E1F9009402460B469948FEF713FB984896
:101F80009949FEF705FB199B012B3DD1974D9849C7
:101F90009148FEF7FDFA28680EF0CCF906240246B7
:101FA0000B4600948C48FEF7FDFA8E498A48FEF7EE
:101FB000EFFA68680EF0BEF9009402460B468648B8
:101FC000FEF7F0FA88498448FEF7E2FA8849844827
:101FD000FEF7DEFA28680EF0ADF9009402460B46D3
:101FE0007F48FEF7DFFA7F497D48FEF7D1FA68683F
:101FF0000EF0A0F9009402460B467948FEF7D2FA9B
:1020000077487949FEF7C4FA1A9B012B3DD1794DE7
:1020100079497148FEF7BCFA28680EF08BF906245E
:1020200002460B4600946C48FEF7BCFA6D496A48BC
:10203000FEF7AEFA68680EF07DF9009402460B4692
:102040006548FEF7AFFA68496348FEF7A1FA6A49A6
:102050006348FEF79DFA28680EF06CF9009402467A
:102060000B465F48FEF79EFA5E495D48FEF790FA20
:1020700068680EF05FF9009402460B465848FEF778
:1020800091FA57485849FEF783FA1B9B012B3DD123
:102090005A4D5B495048FEF77BFA28680EF04AF922
:1020A000062402460B4600944B48FEF77BFA4D4946
:1020B0004948FEF76DFA68680EF03CF90094024654
:1020C0000B464548FEF76EFA47494348FEF760FA6B
:1020D0004B494348FEF75CFA28680EF02BF9009450
:1020E00002460B463E48FEF75DFA3E493C48FEF785
:1020F0004FFA68680EF01EF9009402460B46384805
:10210000FEF750FA36483849FEF742FA1C9B012B7D
:102110003DD13C4D3C493048FEF73AFA28680EF074
:1021200009F9062402460B4600942B48FEF73AFABA
:102130002C492948FEF72CFA68680EF0FBF8009449
:1021400002460B462448FEF72DFA27492248FEF79F
:102150001FFA2D492248FEF71BFA28680EF0EAF80C
:10216000009402460B461E48FEF71CFA1D491C4807
:10217000FEF70EFA68680EF0DDF8009402460B4692
:102180001748FEF70FFA16481749FEF701FA1D9B8C
:10219000012B5CD11D4D1E490F48FEF7F9F9286847
:1021A0000EF0C8F8062402460B4600940A48FEF7D3
:1021B000F9F90C490848FEF7EBF968680EF0BAF82F
:1021C000009402460B460448FEF7ECF90649024823
:1021D000FEF7DEF90E491DE0FC9EFF1F6B32010089
:1021E000209FFF1F653E0100204001003894FF1F23
:1021F0007D3201004094FF1F8F3201004894FF1F81
:10220000A13201009096FF1FB33201009C96FF1F80
:10221000C5320100A548FEF7BBF928680EF08AF820
:10222000009402460B46A148FEF7BCF9A0499F481E
:10223000FEF7AEF968680EF07DF8009402460B4692
:102240009A48FEF7AFF999489A49FEF7A1F91E9B03
:10225000012B3DD1984D99499948FEF799F9286885
:102260000EF068F8062402460B4600949448FEF7E8
:1022700099F98F499248FEF78BF968680EF05AF881
:10228000009402460B468E48FEF78CF989498C482B
:10229000FEF77EF989498548FEF77AF928680EF03D
:1022A00049F8009402460B468048FEF77BF98049C6
:1022B0007E48FEF76DF968680EF03CF8009402461F
:1022C0000B467A48FEF76EF978487A49FEF760F9CE
:1022D0001F9B012B3DD17B4D7B497948FEF758F977
:1022E00028680EF027F8062402460B46009474482E
:1022F000FEF758F96E497248FEF74AF968680EF021
:1023000019F8009402460B466D48FEF74BF96949EF
:102310006B48FEF73DF96C496448FEF739F92868C7
:102320000EF008F8009402460B466048FEF73AF9B2
:102330005F495E48FEF72CF968680DF0FBFF0094DA
:1023400002460B465948FEF72DF958485949FEF701
:102350001FF9209B012B3DD15C4D5D495848FEF78C
:1023600017F928680DF0E6FF062402460B46009494
:102370005348FEF717F94E495148FEF709F96868C6
:102380000DF0D8FF009402460B464D48FEF70AF9BF
:1023900048494B48FEF7FCF84D494448FEF7F8F829
:1023A00028680DF0C7FF009402460B463F48FEF731
:1023B000F9F83F493D48FEF7EBF868680DF0BAFFC1
:1023C000009402460B463948FEF7ECF83748394985
:1023D000FEF7DEF8219B012B3DD13E4D3E493848AA
:1023E000FEF7D6F828680DF0A5FF062402460B4636
:1023F00000943348FEF7D6F82D493148FEF7C8F867
:1024000068680DF097FF009402460B462C48FEF7D3
:10241000C9F828492A48FEF7BBF82F492348FEF798
:10242000B7F828680DF086FF009402460B461F4857
:10243000FEF7B8F81E491D48FEF7AAF868680DF0C7
:1024400079FF009402460B461848FEF7ABF8174890
:102450001849FEF79DF8229B012B5AD11F4D2049A8
:102460001748FEF795F828680DF064FF0624024629
:102470000B4600941248FEF795F80D491048FEF7F8
:1024800087F868680DF056FF009402460B460C482A
:10249000FEF788F807490A48FEF77AF8104903481A
:1024A000FEF776F828680DF045FF1BE0209FFF1F20
:1024B000653E0100204001000C97FF1FD73201004C
:1024C000FC9EFF1F1497FF1FE93201001C97FF1F9E
:1024D000FB3201006894FF1F0D3301006097FF1F5E
:1024E0001F330100009402460B46A548FEF75AF838
:1024F000A449A348FEF74CF868680DF01BFF009450
:1025000002460B469E48FEF74DF89D489E49FEF751
:102510003FF8239B012B3DD19C4D9D499D48FEF7E3
:1025200037F828680DF006FF062402460B46009493
:102530009848FEF737F893499648FEF729F86868F7
:102540000DF0F8FE009402460B469248FEF72AF87A
:102550008D499048FEF71CF88D498948FEF718F818
:1025600028680DF0E7FE009402460B468448FEF70B
:1025700019F884498248FEF70BF868680DF0DAFE16
:10258000009402460B467E48FEF70CF87C487E49D4
:10259000FDF7FEFF249B012B3DD17F4D7F497D48F8
:1025A000FDF7F6FF28680DF0C5FE062402460B462F
:1025B00000947848FDF7F6FF72497648FDF7E8FF8A
:1025C00068680DF0B7FE009402460B467148FDF7AF
:1025D000E9FF6D496F48FDF7DBFF70496848FDF77B
:1025E000D7FF28680DF0A6FE009402460B4664480B
:1025F000FDF7D8FF63496248FDF7CAFF68680DF030
:1026000099FE009402460B465D48FDF7CBFF5C48FF
:102610005D49FDF7BDFF259B012B3DD1604D614913
:102620005C48FDF7B5FF28680DF084FE06240246DD
:102630000B4600945748FDF7B5FF52495548FDF742
:10264000A7FF68680DF076FE009402460B465148DD
:10265000FDF7A8FF4C494F48FDF79AFF51494848FC
:10266000FDF796FF28680DF065FE009402460B46C4
:102670004348FDF797FF43494148FDF789FF6868E4
:102680000DF058FE009402460B463D48FDF78AFFC8
:102690003B483D49FDF77CFF269B012B3DD1424D38
:1026A00042493C48FDF774FF28680DF043FE0624BC
:1026B00002460B4600943748FDF774FF3149354810
:1026C000FDF766FF68680DF035FE009402460B4684
:1026D0003048FDF767FF2C492E48FDF759FF334975
:1026E0002748FDF755FF28680DF024FE00940246A8
:1026F0000B462348FDF756FF22492148FDF748FFC6
:1027000068680DF017FE009402460B461C48FDF762
:1027100049FF1B481C49FDF73BFF279B012B5BD161
:10272000234D24491B48FDF733FF28680DF002FEB6
:10273000062402460B4600941648FDF733FF114964
:102740001448FDF725FF68680DF0F4FD009402467B
:102750000B461048FDF726FF0B490E48FDF718FF02
:1027600014490748FDF714FF28680DF0E3FD0094B5
:1027700002460B460248FDF715FF02491CE000BF68
:10278000209FFF1F653E0100204001006897FF1F4A
:1027900031330100FC9EFF1F7097FF1F4333010080
:1027A000B491FF1F55330100AC97FF1F6733010041
:1027B000B497FF1F79330100A548FDF7E9FE68686B
:1027C0000DF0B8FD009402460B46A148FDF7EAFE65
:1027D0009F48A049FDF7DCFE289B012B3DD19E4D73
:1027E0009E499F48FDF7D4FE28680DF0A3FD0624FE
:1027F00002460B4600949A48FDF7D4FE9949984842
:10280000FDF7C6FE68680DF095FD009402460B4684
:102810009348FDF7C7FE8F499148FDF7B9FE8F49F0
:102820008B48FDF7B5FE28680DF084FD0094024644
:102830000B468748FDF7B6FE8A498548FDF7A8FE96
:1028400068680DF077FD009402460B468048FDF75E
:10285000A9FE7F487F49FDF79BFE299B012B3DD1B7
:10286000814D82497E48FDF793FE28680DF062FD98
:10287000062402460B4600947948FDF793FE7949F9
:102880007748FDF785FE68680DF054FD0094024618
:102890000B467348FDF786FE6E497148FDF778FEDA
:1028A00072496B48FDF774FE28680DF043FD0094F3
:1028B00002460B466648FDF775FE6A496448FDF717
:1028C00067FE68680DF036FD009402460B466048CE
:1028D000FDF768FE5E485F49FDF75AFE2A9B012B13
:1028E0003DD1634D63495E48FDF752FE28680DF007
:1028F00021FD062402460B4600945948FDF752FE7E
:1029000058495748FDF744FE68680DF013FD0094E0
:1029100002460B465248FDF745FE4E495048FDF72A
:1029200037FE54494A48FDF733FE28680DF002FD92
:10293000009402460B464648FDF734FE4949444898
:10294000FDF726FE68680DF0F5FC009402460B4684
:102950003F48FDF727FE3E483E49FDF719FE2B9BF9
:10296000012B3DD1444D45493D48FDF711FE2868F6
:102970000DF0E0FC062402460B4600943848FDF7B3
:1029800011FE38493648FDF703FE68680DF0D2FCA9
:10299000009402460B463248FDF704FE2D493048AC
:1029A000FDF7F6FD35492A48FDF7F2FD28680DF0E0
:1029B000C1FC009402460B462548FDF7F3FD29496A
:1029C0002348FDF7E5FD68680DF0B4FC009402466D
:1029D0000B461F48FDF7E6FD1D481E49FDF7D8FDD3
:1029E0002C9B012B5AD1264D26491D48FDF7D0FDC1
:1029F00028680DF09FFC062402460B4600941848F8
:102A0000FDF7D0FD17491648FDF7C2FD68680DF0C7
:102A100091FC009402460B461148FDF7C3FD0D4999
:102A20000F48FDF7B5FD17490948FDF7B1FD2868C6
:102A30000DF080FC009402460B460548FDF7B2FD00
:102A400008490348FDF7A4FD68680DF073FC1BE01E
:102A5000209FFF1F20400100BC97FF1F8B33010008
:102A6000FC9EFF1F653E0100C497FF1F9D330100C0
:102A7000CC97FF1FAF330100D497FF1FC133010074
:102A80002497FF1FD3330100009402460B46A5484C
:102A9000FDF788FDA348A449FDF77AFD2D9B012B86
:102AA0003DD1A24DA249A348FDF772FD28680DF063
:102AB00041FC062402460B4600949E48FDF772FD39
:102AC0009D499C48FDF764FD68680DF033FC009457
:102AD00002460B469748FDF765FD93499548FDF77B
:102AE00057FD93498F48FDF753FD28680DF022FCF0
:102AF000009402460B468B48FDF754FD8E498948E9
:102B0000FDF746FD68680DF015FC009402460B4683
:102B10008448FDF747FD83488349FDF739FD2E9B27
:102B2000012B3DD1854D86498248FDF731FD28684E
:102B30000DF000FC062402460B4600947D48FDF78C
:102B400031FD7D497B48FDF723FD68680DF0F2FB00
:102B5000009402460B467748FDF724FD72497548FC
:102B6000FDF716FD76496F48FDF712FD28680DF058
:102B7000E1FB009402460B466A48FDF713FD6E49DF
:102B80006848FDF705FD68680DF0D4FB0094024627
:102B90000B466448FDF706FD62486349FDF7F8FC03
:102BA0002F9B012B3DD1674D67496248FDF7F0FC33
:102BB00028680DF0BFFB062402460B4600945D48D2
:102BC000FDF7F0FC5C495B48FDF7E2FC68680DF03E
:102BD000B1FB009402460B465648FDF7E3FC524910
:102BE0005448FDF7D5FC58494E48FDF7D1FC2868FC
:102BF0000DF0A0FB009402460B464A48FDF7D2FCBC
:102C00004D494848FDF7C4FC68680DF093FB0094FB
:102C100002460B464348FDF7C5FC42484249FDF7D2
:102C2000B7FC309B012B3DD1484D49494148FDF748
:102C3000AFFC28680DF07EFB062402460B4600948C
:102C40003C48FDF7AFFC3C493A48FDF7A1FC6868F9
:102C50000DF070FB009402460B463648FDF7A2FCCF
:102C600031493448FDF794FC39492E48FDF790FC72
:102C700028680DF05FFB009402460B462948FDF7DB
:102C800091FC2D492748FDF783FC68680DF052FB45
:102C9000009402460B462348FDF784FC2148224954
:102CA000FDF776FC319B012B5BD12A4D2A49214847
:102CB000FDF76EFC28680DF03DFB062402460B462E
:102CC00000941C48FDF76EFC1B491A48FDF760FC98
:102CD00068680DF02FFB009402460B461548FDF77F
:102CE00061FC11491348FDF753FC1B490D48FDF7E2
:102CF0004FFC28680DF01EFB009402460B46094865
:102D0000FDF750FC0C490748FDF742FC68680DF0E0
:102D100011FB009402460B460248FDF743FC0148B4
:102D20001CE000BF209FFF1F20400100048CFF1FFC
:102D3000E5330100FC9EFF1F653E01000C8CFF1F68
:102D4000F7330100148CFF1F093401001C8CFF1F96
:102D50001B340100248CFF1F2D340100A549FDF711
:102D600017FC329B012B57D1A34DA449A448FDF772
:102D70000FFC28680DF0DEFA062402460B4600948C
:102D80009F48FDF70FFC9F499D48FDF701FC6868CF
:102D90000DF0D0FA009402460B469948FDF702FC6C
:102DA00098499748FDF7F4FBA8680DF0C3FA009422
:102DB00002460B469248FDF7F5FB8E499048FDF719
:102DC000E7FB8E499048FDF7E3FB28680DF0B2FA67
:102DD000009402460B468C48FDF7E4FB89498A487B
:102DE000FDF7D6FB68680DF0A5FA009402460B4685
:102DF0008548FDF7D7FB83498348FDF7C9FBA868E1
:102E00000DF098FA009402460B467F48FDF7CAFB86
:102E10007D487849FDF7BCFB339B012B57D17B4D97
:102E20007B497748FDF7B4FB28680DF083FA062448
:102E300002460B4600947248FDF7B4FB7149704896
:102E4000FDF7A6FB68680DF075FA009402460B4684
:102E50006B48FDF7A7FB6B496948FDF799FBA8682C
:102E60000DF068FA009402460B466548FDF79AFBA0
:102E700060496348FDF78CFB65496348FDF788FBB3
:102E800028680DF057FA009402460B465E48FDF79D
:102E900089FB5C495C48FDF77BFB68680DF04AFAEA
:102EA000009402460B465848FDF77CFB55495648AE
:102EB000FDF76EFBA8680DF03DFA009402460B4644
:102EC0005148FDF76FFB50484A49FDF761FB349BC1
:102ED000012B57D14F4D50494948FDF759FB286800
:102EE0000DF028FA062402460B4600944448FDF7EC
:102EF00059FB44494248FDF74BFB68680DF01AFA4C
:102F0000009402460B463E48FDF74CFB3D493C48C9
:102F1000FDF73EFBA8680DF00DFA009402460B4643
:102F20003748FDF73FFB33493548FDF731FB3A4958
:102F30003548FDF72DFB28680DF0FCF9009402469A
:102F40000B463148FDF72EFB2E492F48FDF720FB9D
:102F500068680DF0EFF9009402460B462A48FDF729
:102F600021FB28492848FDF713FBA8680DF0E2F97A
:102F7000009402460B462448FDF714FB22481D49E5
:102F8000FDF706FB359B012B70D1244D24491C48CD
:102F9000FDF7FEFA28680DF0CDF9062402460B462F
:102FA00000941748FDF7FEFA16491548FDF7F0FAA8
:102FB00068680DF0BFF9009402460B461048FDF713
:102FC000F1FA10490E48FDF7E3FAA8680DF0B2F9DE
:102FD000009402460B460A48FDF7E4FA0549084802
:102FE000FDF7D6FA0E490848FDF7D2FA28680DF029
:102FF000A1F917E0204001002C8CFF1F3F34010095
:10300000FC9EFF1F653E0100209FFF1F388CFF1FA5
:1030100051340100448CFF1F633401005497FF1F9B
:1030200075340100009402460B463F48FDF7BAFA9A
:103030003E493D48FDF7ACFA68680DF07BF9009415
:1030400002460B463848FDF7ADFA38493648FDF7D9
:103050009FFAA8680DF06EF9009402460B463248BC
:10306000FDF7A0FA30483249FDF792FA369B012B62
:1030700057D1304D30493148FDF78AFA28680DF0B4
:1030800059F9062402460B4600942C48FDF78AFAAB
:1030900026492A48FDF77CFA68680DF04BF9009440
:1030A00002460B462548FDF77DFA20492348FDF7E7
:1030B0006FFAA8680DF03EF9009402460B461F48CF
:1030C000FDF770FA1A491D48FDF762FA1A491648C9
:1030D000FDF75EFA28680DF02DF9009402460B46C4
:1030E0001148FDF75FFA11490F48FDF751FA68687A
:1030F0000DF020F9009402460B460B48FDF752FAFA
:103100000A490948FDF744FAA8680DF013F900943C
:1031100002460B460448FDF745FA03480449FDF70B
:1031200037FA02B0BDE8F081209FFF1F653E010025
:10313000204001005C93FF1F87340100FC9EFF1FAD
:103140001F4B70B51D681A680C461E460AF0F6FC47
:1031500008BB1C4807210AF0C9FC32200AF00CF910
:1031600033685B1BA342F1DD17491848FDF710FADD
:1031700015491748FDF70CFA16491448FDF708FAE7
:1031800014491348FDF704FA05E001340A2C07DC62
:1031900032200AF0F1F80AF0D1FC0628F5DD05E04E
:1031A0000AF0CCFC10B10AF0D9FCF9E700240AF0CF
:1031B000D5FC094B18550134072CF8D170BD00BF60
:1031C000649EFF1FF489FF1F99340100FC9EFF1FBE
:1031D000209FFF1F653E0100508CFF1F08B5C2787D
:1031E000007900EB02200DF0E1FC034B19680DF0B3
:1031F00035FD0DF01FFF08BDF089FF1F38B54FF4F6
:10320000FA610C480C4DFFF79BFF0C48FFF7E6FFF7
:10321000044664200AF0B0F8094B1868B4FBF0F0DB
:103220000DF0C4FC014628680DF010FC2860204613
:1032300038BD00BFF489FF1F1C94FF1F508CFF1F77
:10324000E089FF1F012801D8FFF7D8BF7047FFFFB3
:103250002DE9F74F7A4E304606F050FF0DF058F842
:10326000044630460D4606F05DFF0DF051F862A3AE
:10327000D3E900230DF0B2F80022724B0DF0D8F91B
:103280000022704B0DF0D4F9002206460F4620466E
:1032900029466D4B0DF0A2F859A3D3E900230CF099
:1032A000EBFE59A3D3E9002382468B460CF0E2FEE5
:1032B00057A3D3E9002304460D460DF08FF80022F2
:1032C000624B0CF0D9FE54A3D3E900238046894613
:1032D000204629460DF082F822462B460DF07EF856
:1032E00002460B46404649460CF0C6FE584B804607
:1032F000186889460DF01EF802460B4640464946BE
:103300000DF06CF846A3D3E900230DF091F90022EB
:10331000CDE900014B4B304639460DF089F942A307
:10332000D3E9002380468946204629460DF056F809
:103330004FF02042474B0CF09DFE3DA3D3E9002304
:1033400006460F46204629460DF048F822462B46F1
:103350000DF044F802460B46304639460CF08CFE20
:1033600002460B46404649460CF084FE524604464F
:103370000D465B46504659460DF030F852465B46C6
:103380000DF02CF852465B460DF028F82AA3D3E93D
:10339000002306460F46204629460DF01FF8224618
:1033A0002B460DF01BF802460B46204629460CF032
:1033B00063FE1BA3D3E9002304460D46DDE90001AB
:1033C0000DF036F902460B46204629460DF030F93D
:1033D00002460B46304639460CF04EFE0BF094FE8A
:1033E0000BF092FE06A3D3E900230CF043FE03B0DA
:1033F000BDE8F08FAFF3008000000000008863405C
:1034000000000060661271400000006066A2724019
:103410000000004008AC5C3F000000E05898F1BE9E
:1034200000000000D0126341000000404320A3BE12
:1034300000000020BDE2333E000000C0CCCC2A409A
:103440004893FF1F00408F400000A03F0000F03F66
:10345000EC89FF1F00D4FE3E70B5FFF7F9FE0DF0BA
:103460009FFA04461F4806F051FE4FF47A6009F0B7
:1034700083FF20461C494FF001050DF0ABFD00B95C
:10348000054615F0FF0F194D0AD1204618494FF097
:1034900001060DF081FD00B9064616F0FF0F12D0AF
:1034A000144C154915482C60FDF772F81249144860
:1034B000FDF76EF813491148FDF76AF811491048F5
:1034C000FDF766F80CE0104B18680DF073FB014631
:1034D00020460DF077FC014628680DF0B7FA286009
:1034E000204670BD4893FF1F00007A442494FF1FBC
:1034F000000070C20000C6C2B7340100FC9EFF1F6E
:10350000209FFF1F653E0100E089FF1F012801D8B1
:10351000FFF7A2BF704708B509F0F8FA002802DDEE
:1035200009F0B2FAF8E709F075F9002802DD09F0B0
:1035300081F9F8E708BDFFFF2DE9F3414EF6602061
:10354000FDF7D0FC04460D46B548B649FDF720F816
:10355000B449B548FDF71CF820462946002200234F
:103560000DF0A4F90646002840F03B8202270097A0
:1035700022462B46AA48FDF715F822462B4600970F
:10358000A948AA4FFDF70EF8A949A548FDF700F88C
:10359000A749A548FCF7FCFF09F076FA09F074FA90
:1035A00020233B6080233B609D480AF095FCA149A5
:1035B0009B48FCF7EDFF31469948FDF70CF8984819
:1035C0009D49FCF7FEFFB846B2B200219B4807F0C8
:1035D0007FF931469248FCF7DFFF95499048FCF7A8
:1035E000D7FF322009F0C8FE30460CF091FE2B4682
:1035F00022460CF041FD0DF08BF940F6FE73984227
:103600000646E1DD8E4F864880233B600AF064FC6D
:1036100088498348FCF7BCFF01218148FCF7DBFFA8
:103620007F488849FCF7CDFF0026B2B201218348CC
:1036300007F04EF931467A48FCF7AEFF7C497848EE
:10364000FCF7A6FF322009F097FE30460CF060FE32
:103650002B4622460CF010FD0DF05AF940F6FE7391
:1036600098420646E1DD20233B600123C8F8003084
:103670008023C8F800306A480AF02EFC6D4968487B
:10368000FCF786FF00216648FCF7A5FF64486E49F9
:10369000FCF797FF0026B2B20021684807F018F93E
:1036A00031465F48FCF778FF61495D48FCF770FFE1
:1036B000322009F061FE30460CF02AFE2B462246ED
:1036C0000CF0DAFC0DF024F940F6FE739842064641
:1036D000E1DD80233B6052480AF0FEFB554950482B
:1036E000FCF756FF01214E48FCF775FF4C4857493F
:1036F000FCF767FF0026B2B20121504807F0E8F856
:1037000031464748FCF748FF49494548FCF740FF28
:10371000322009F031FE30460CF0FAFD2B462246ED
:103720000CF0AAFC0DF0F4F840F6FE739842064641
:10373000E1DD012302263B603948C8F800600AF049
:10374000CBFB3C493648FCF723FF31463448FCF7B5
:1037500042FF33483E49FCF734FF0026B2B2022153
:10376000364807F0B5F831462D48FCF715FF3049CB
:103770002B48FCF70DFF322009F0FEFD30460CF01F
:10378000C7FD2B4622460CF077FC0DF0C1F840F641
:10379000FE7398420646E1DD02263E602D4F20482A
:1037A00010233B600AF098FB22491D48FCF7F0FE0D
:1037B00031461B48FCF70FFF19482749FCF701FF6A
:1037C0000026B846B2B202211C4807F081F8314603
:1037D0001348FCF7E1FE16491148FCF7D9FE3220E8
:1037E00009F0CAFD30460CF093FD2B4622460CF042
:1037F00043FC0DF08DF840F6FE7398420646E1DD7D
:10380000164F0748102301263B60C8F800600AF0F5
:1038100063FB08490248FCF7BBFE314620E000BFCD
:10382000FC9EFF1FE2340100209FFF1FC4F00F40E9
:10383000653E0100F0340100FF3401007897FF1F5E
:10384000C8F00F402035010042350100633501000A
:103850008535010084F00F409935010088F00F4054
:103860006A48FCF7B8FE69486949FCF7AAFE0026D9
:10387000B2B20321674807F02BF831466348FCF7E2
:103880008BFE65496148FCF783FE322009F074FD28
:1038900030460CF03DFD2B4622460CF0EDFB0DF0C2
:1038A00037F840F6FE7398420646E1DD5B4B574819
:1038B00001263E601E600AF00FFB59495348FCF791
:1038C00067FE31465148FCF786FE50485549FCF7E3
:1038D00078FE0026B2B203214E4806F0F9FF3146C9
:1038E0004A48FCF759FE4C494848FCF751FE322043
:1038F00009F042FD30460CF00BFD2B4622460CF041
:10390000BBFB0DF005F840F6FE7398420646E1DD7C
:10391000454B3E4801261E604023C8F800300AF09F
:10392000DBFA3F493948FCF733FE31463748FCF7AC
:1039300052FE36483D49FCF744FE0026B2B2032150
:10394000344806F0C5FF31463048FCF725FE3249C1
:103950002E48FCF71DFE322009F00EFD30460CF01B
:10396000D7FC2B4622460CF087FB0CF0D1FF40F62B
:10397000FE7398420646E1DD40233B608023C8F891
:10398000003022480AF0A8FA25492048FCF700FE3A
:1039900001211E48FCF71FFE1C482549FCF711FEBB
:1039A0000026B2B203211B4806F092FF31461748A9
:1039B000FCF7F2FD18491548FCF7EAFD322009F042
:1039C000DBFC30460CF0A4FC2B4622460CF054FBEA
:1039D0000CF09EFF40F6FE7398420646E1DD802320
:1039E0003B60FFF798FD13490848FCF7EAFD1249D0
:1039F0000648FCF7E6FD0F491048FCF7E2FD0E49CA
:103A00000E48FCF7DEFD02B0BDE8F081FC9EFF1F12
:103A1000AD3501007897FF1F653E010044F00F406F
:103A2000F0340100BF35010048F00F40D1350100EE
:103A3000E3350100C82F0100FE340100209FFF1F65
:103A400070B58EB008F0F6FE061E24DD642009F085
:103A500093FC002401AD665508F0ECFE0134262CE1
:103A60000646F7D1124E0024284631688DF82A40C8
:103A700025220DF043FCC0B10E490F48FCF788FD2C
:103A800031680D48FCF79DFD0C490B48FCF780FDA3
:103A90000948294605E00A490748FCF792FD06480F
:103AA0000849FCF78EFD002000E001200EB070BD3B
:103AB000E889FF1FF5350100FC9EFF1F1836010045
:103AC0003B3601007136010030B54949494885B09F
:103AD000FCF75EFD46494848FCF75AFD002268465F
:103AE0004EF66021FDF75CF94EF66020FDF7FAF91D
:103AF00004460D460D20012109F020FB29462046F1
:103B00000CF006FF430803F1376303F5D833B3FB2A
:103B1000F0F008F0B3FC01210D2009F0E1FA4FF4B8
:103B20007A7009F029FC35493348FCF731FD4FF430
:103B30007A7009F021FC32492F48FCF729FD4FF437
:103B40007A7009F019FC2F492A48FCF721FD40F250
:103B5000D2412848FCF73FFD2B492748FCF718FDC8
:103B600040F2D2412448FCF717FD4FF47A7009F077
:103B700003FC26491F48FCF70BFD69461D48FCF76E
:103B800016FD23491C48FCF703FD69461A480AF054
:103B900082F94FF47A7009F0EFFB1E491548FCF7E3
:103BA00010FD1D491448FCF7F3FC4FF47A7009F03E
:103BB000E3FBFFF745FF18B10E481849FCF701FD7C
:103BC0000D20002109F08CFA15490A48FCF7F9FC90
:103BD00013490948FCF7F5FC06480AF07DF9064848
:103BE0000AF07AF968460AF0CDFB05B030BD00BF97
:103BF00099360100FC9EFF1F209FFF1FA836010081
:103C0000AB360100B6360100C5360100CC360100E6
:103C1000DB360100E3360100F83601000137010010
:103C2000C82F010014282DE9F84305460C46164616
:103C30001F4601D0022823D131468E4806F0C1FB31
:103C4000002831468B4803DD06F0BBFB8A4B4FE072
:103C500006F0B7FB002807DA002C05DD3846002106
:103C60000DF0B8F900285AD18248314606F0A9FB78
:103C7000013002DB0020BDE8F883002C4FDCF9E7BF
:103C8000A0F10B03012B03D9A0F10F03012B20D8C6
:103C900031467A4806F095FB00283146774803DD27
:103CA00006F08FFB764B23E006F08BFB002807DA4B
:103CB000002C05DD384600210DF08CF9002865D177
:103CC0006E48314606F07DFB0130D3DA002C5DDC16
:103CD000D0E720F004030A2BCCD11146694806F046
:103CE00070FB00283146674804DD06F06AFB664B2E
:103CF0001860BCE006F065FB002807DA002C05DD43
:103D0000384600210DF066F9002876D15D4831462D
:103D100006F057FB0130ADDA002C6EDCAAE7314625
:103D2000544806F04EFB804638460DF05DF90146DA
:103D30002846FDF733F905466FEA08000CF0E8FA6B
:103D400002460B4600204FF080410BF061F86C43B7
:103D50008046642094FBF0F089460CF0D9FA0022EA
:103D600004460D46494B404649460CF037FB0B468E
:103D70000246294620460CF07FF90CF0C9FD3E4B67
:103D8000B0F5006FA8BF4FF400606CE031463B48CF
:103D900006F017FB804638460DF026F90146284606
:103DA000FDF7FCF805466FEA08000CF0B1FA024690
:103DB0000B4600204FF080410BF02AF86C43804600
:103DC000642094FBF0F089460CF0A2FA002204462D
:103DD0000D462E4B404649460CF000FB0B46024672
:103DE000294620460CF048F90CF092FD244BB0F522
:103DF000006FA8BF4FF4006035E03146214806F05F
:103E0000E0FA804638460DF0EFF801462846FDF707
:103E1000C5F805466FEA08000CF07AFA02460B4630
:103E200000204FF080410AF0F3FF6C43804664208D
:103E300094FBF0F089460CF06BFA002204460D4624
:103E4000124B404649460CF0C9FA0B460246294639
:103E500020460CF011F90CF05BFD0B4BB0F5006F38
:103E6000A8BF4FF400601860094B43F826000120FA
:103E7000BDE8F883F48BFF1FD48BFF1F588CFF1F06
:103E8000E094FF1F4C97FF1F1894FF1F0000204075
:103E90000095FF1F2DE9D841142804460E461F4601
:103EA000069A01D0022817D1002A12DC002E53DD19
:103EB000384600210DF08EF8002851D038460DF01C
:103EC00093F801462046FDF769F86423704390FBA0
:103ED000F3F2244800212EE0A0F10B03012B0BD9B3
:103EE000A0F10F08B8F1010F8CBF4FF000084FF0A0
:103EF0000108B8F1000F16D0002A11DC002E2BDDCE
:103F0000384600210DF066F850B338460DF06CF8D5
:103F100001462046FDF742F86423704390FBF3F21C
:103F20001048032107E020F004040A2C14D1002AD1
:103F300003DD0C48022192B209E000290FDD38466A
:103F400000210DF047F858B106480221424606F01C
:103F5000BFFC0120BDE8D8810020BDE8D8814046E3
:103F6000BDE8D8817897FF1F10B5074C0520214682
:103F700009F03EF82146032009F03AF819200349D8
:103F8000BDE8104009F034B8001B3748D723F4438C
:103F90002DE9F74F07460E4691469A464C014FF4DD
:103FA00080750820002109F09BF81CB12346013BD5
:103FB0007FF4FDAF0820012109F092F81CB12346DF
:103FC000013B7FF4FDAF013DEBD10820294609F00C
:103FD00087F81CB12346013B7FF4FDAF0820012187
:103FE00009F07EF80720002109F07AF81CB1234679
:103FF000013B7FF4FDAF0820002109F071F81CB1EE
:104000002346013B7FF4FDAF0820012109F068F849
:104010000720012109F064F81CB12346013B7FF41D
:10402000FDAF4FF47A735F43F30097FBF3F700257E
:10403000BD424FF008004FF0000147DA09F050F898
:104040001CB12346013B7FF4FDAF0820012109F09C
:1040500047F81CB12346013B7FF4FDAF0820002147
:1040600009F03EF81CB12346013B7FF4FDAF082068
:10407000012109F035F81CB12346013B7FF4FDAF67
:104080000820002109F02CF81CB12346013B7FF4E5
:10409000FDAF0820012109F023F81CB12346013BA4
:1040A0007FF4FDAF0820002109F01AF81CB1234667
:1040B000013B7FF4FDAF0820012109F011F81CB18C
:1040C0002346013B7FF4FDAF0135B1E709F008F865
:1040D0001CB12346013B7FF4FDAF0820012108F00D
:1040E000FFFF0720002108F0FBFF1CB12346013B26
:1040F0007FF4FDAF0820002108F0F2FF1CB1234639
:10410000013B7FF4FDAF0820012108F0E9FF072003
:10411000012108F0E5FF1CB12346013B7FF4FDAF10
:10412000494D0023C9EB060B2B604FEA4B1B4FF4A4
:1041300080780820002108F0D3FF1CB12346013B02
:104140007FF4FDAF0820012108F0CAFF1CB123460F
:10415000013B7FF4FDAF0820002108F0C1FF3B4F79
:10416000BAF1000F11D12B680193222009F082FAD5
:10417000019B374A27F813002B6852F8231037F8B1
:104180001300014442F8231008E0222009F072FADB
:104190002B6837F81320104427F813002B684E457E
:1041A00003F101032B6006DDBBF1000F03D05B467A
:1041B000013B7FF4FDAF0820012108F091FF1CB105
:1041C0002346013B7FF4FDAF0820002108F088FF63
:1041D0001CB12346013B7FF4FDAF0820012108F00C
:1041E0007FFF1CB12346013B7FF4FDAF0820002177
:1041F00008F076FF1CB12346013B7FF4FDAF082099
:10420000012108F06DFF1CB12346013B7FF4FDAF97
:10421000B8F101088DD14FF480750820002108F015
:104220005FFF1CB12346013B7FF4FDAF0820012155
:1042300008F056FF1CB12346013B7FF4FDAF013D62
:10424000EBD103B0BDE8F08F648CFF1FE897FF1F30
:10425000DC8CFF1F38B515491548164DFCF798F949
:1042600015481249FCF794F9002469881048FCF7B6
:1042700093F9114835F8021FFCF78EF9FF2C07D08F
:104280002C210B48FCF77FF90B482C21FCF77BF91C
:104290000134B4F5807FE8D108490548FCF791F96D
:1042A00006490548FCF78DF938BD00BF18370100F5
:1042B000FC9EFF1FE697FF1F209FFF1F014001008C
:1042C00070B505460E460024601909F09BFA30557A
:1042D0000134042CF8D1204670BD70B506460D4659
:1042E0000024A019295D013409F0A0FA042CF8D1AA
:1042F000204670BD73B50546019116460024284638
:104300000CF058FC074B0146E0580CF03BFE18B18E
:10431000A01901A9FFF7E1FF0434682CEFD102B026
:1043200070BD00BF7489FF1F73B505460191164625
:10433000002428460CF03EFC074B0146E0580CF0E8
:1043400021FE18B1A01901A9FFF7C7FF0434682C9A
:10435000EFD102B070BD00BF7489FF1F70B5054674
:104360000E460024601909F04DFA30550134082C2E
:10437000F8D1204670BDFFFF2DE9F041684E694934
:10438000694D86B007466948FCF702F930680BF0C2
:10439000D1FF022402460B4600946448FCF702F960
:1043A00063496248FCF70DF94FF0030861495F4823
:1043B000FCF7EEF858A3D3E90023CDF800805B4862
:1043C000FCF7F0F85A495948FCF7FBF85A495748A6
:1043D000FCF7DEF828680BF0ADFF009402460B46B0
:1043E0005248FCF7DFF852495048FCF7EAF84D49CB
:1043F0005248FCF7CDF830680BF09CFF0094024661
:104400000B464E48FCF7CEF849494C48FCF7D9F822
:1044100048494A48FCF7BCF83FA3D3E90023CDF84C
:1044200000804648FCF7BEF841494448FCF7C9F80B
:1044300041494248FCF7ACF828680BF07BFF009438
:1044400002460B463D48FCF7ADF839493B48FCF7BE
:10445000B8F83B494FF4B460FFF780FF394902A830
:1044600009F0D0FF02A8364901222346FCF7E0FDFF
:1044700002A809F087FF012F45D14EF66020FCF716
:1044800031FD0CF08DFA30600BF054FF00940246C1
:104490000B462648FCF7A9F830680BF04BFF009458
:1044A00002460B462548FCF7A0F8306826490CF078
:1044B00069FD40BB31460C20FFF70FFF4EF6602030
:1044C000FCF710FD0CF06CFA28600BF033FF009441
:1044D00002460B461548FCF788F828680BF02AFFBF
:1044E000009402460B461548FCF77FF828681649E9
:1044F0000CF048FD044630B914202946FFF7EDFEC4
:104500002046FFF739FF012008F036FF06B0BDE86E
:10451000F08100BFAFF3008000000060B81EDD3FF7
:10452000DC97FF1F25370100F094FF1FFC9EFF1F43
:10453000653E01003337010047370100209FFF1F10
:104540006C89FF1F5B370100000080BFAFF3008064
:1045500070B506460D460024A019295D09F066F9DC
:10456000013441F210539C42F6D1204670BD00B593
:10457000ADF5A85D85B010B9FBF7E2FF09E00021B9
:10458000684641F210520CF0D7FD3C206946FFF717
:10459000DFFF0DF5A85D05B05DF804FB70B50546BD
:1045A0000E460024601909F02DF930550134682CAD
:1045B000F8D1204670BD70B505460E46002460193E
:1045C00009F020F9305501340C2CF8D1204670BD8B
:1045D0001FB50446CC490020FFF772FECB490420EA
:1045E000FFF76EFECA490820FFF76AFEC9490C2092
:1045F000FFF766FEC8491420FFF762FEC74918207E
:10460000FFF75EFEC6491C20FFF75AFEC549202071
:10461000FFF756FEC4492420FFF752FEC349282065
:10462000FFF79CFEC2493C20FFF7B8FFC149B42008
:10463000FFF7B4FFC0494FF49670FFF7AFFFBF49D3
:104640004FF4D270FFF7AAFFBD494FF40770FFF790
:10465000A5FFBC494FF42570FFF7A0FFBA494FF4FE
:104660005C70FFF79BFFB9494FF47A70FFF796FF34
:10467000B7494FF48C60FFF791FFB6494FF49B6048
:10468000FFF78CFFB4494FF4AA60FFF767FEB34908
:104690004FF4AB60FFF762FEB1494FF4AC60FFF737
:1046A0005DFEB0494FF4AD60FFF758FEAE494FF4E0
:1046B000AE60FFF753FEAD494FF4AF60FFF74EFE1B
:1046C000AB494FF4B060FFF749FEAA494FF4B1601F
:1046D000FFF744FEA8494FF4B260FFF73FFEA74939
:1046E0004FF4B360FFF73AFEA5494FF4B460FFF70B
:1046F00035FEA4494FF4B560FFF730FEA2494FF4F0
:10470000B660FFF72BFEA1494FF4B760FFF726FE16
:104710009F494FF4DC60FFF721FE9E494FF4B860DB
:10472000FFF71CFE9C494FF4B960FFF717FE9B4949
:104730004FF4BA60FFF712FE99494FF4BB60FFF7E0
:104740000DFE98494FF4BC60FFF708FE96494FF400
:10475000BD60FFF703FE95494FF4BE60FFF7FEFD15
:1047600093494FF4BF60FFF7F9FD92494FF4C060E1
:10477000FFF7F4FD90494FF4C160FFF7EFFD8F495B
:104780004FF4C260FFF7EAFD8D494FF4C360FFF7B5
:10479000E5FD8C494FF4C460FFF7E0FD8A494FF412
:1047A000C560FFF7DBFD89494FF4C660FFF7D6FD12
:1047B00087494FF4C760FFF7D1FD86494FF4C860C1
:1047C000FFF7CCFD84494FF4C960FFF7C7FD83496B
:1047D0004FF4CA60FFF7C2FD81494FF4CB60FFF789
:1047E000BDFD80494FF4CC60FFF7B8FD7E494FF422
:1047F000CD60FFF7B3FD7D494FF4CE60FFF7AEFD0E
:104800007B494FF4CF60FFF7A9FD7A494FF4D060A0
:10481000FFF7A4FD78494FF4D160FFF79FFD77497A
:104820004FF4D260FFF79AFD75494FF4D360FFF75C
:1048300095FD74494FF4D460FFF790FD72494FF431
:10484000D560FFF78BFD71494FF4D660FFF786FD09
:104850006F494FF4D760FFF7AEFE6E4940F2C46077
:10486000FFF7A9FE6C494FF4DA60FFF7A4FE6B492D
:1048700040F2DC60FFF79FFE4FF4DD606849FFF710
:104880009AFE012C40F0C38466496748FBF780FE1E
:1048900064496648FBF77CFE2046FCF7D7FC62487B
:1048A00009F01AFB614809F017FB2046FCF710FAE3
:1048B0005F49684609F0A6FD00225E496846FCF79C
:1048C0002FFC684609F05EFD5B49684609F09AFDD9
:1048D000002217496846FCF723FC684609F052FDA0
:1048E0005649684609F08EFD002212496846FCF7D9
:1048F00017FC684609F046FD5149684609F082FDFB
:1049000000220D4968469DE0EC89FF1F6889FF1F62
:10491000F492FF1FDC97FF1FF094FF1F688CFF1FAE
:10492000E494FF1F6C8CFF1FE894FF1F2C97FF1F60
:10493000B093FF1F7894FF1F688BFF1FA496FF1F83
:10494000748CFF1FDC90FF1F4C91FF1FBC91FF1F59
:104950002492FF1F8C92FF1F3497FF1F4097FF1F69
:104960005094FF1F5894FF1F6094FF1FD88BFF1FA8
:10497000E08BFF1FE88BFF1F7094FF1FF892FF1F53
:104980006C89FF1F0093FF1F0893FF1F1093FF1FE9
:104990001893FF1F2093FF1F2893FF1F3093FF1FC3
:1049A0003893FF1F4093FF1F3094FF1F3894FF1F61
:1049B0004094FF1F4894FF1F9096FF1F9C96FF1F77
:1049C0000C97FF1F1497FF1F1C97FF1F6894FF1F72
:1049D0006097FF1F6897FF1F7097FF1FB491FF1F1D
:1049E000AC97FF1FB497FF1FBC97FF1FC497FF1F13
:1049F000CC97FF1FD497FF1F2497FF1F048CFF1F26
:104A00000C8CFF1F148CFF1F1C8CFF1F248CFF1F9E
:104A10002C8CFF1F388CFF1F448CFF1F5497FF1FE7
:104A20005C93FF1FD1300100FC9EFF1F209FFF1FE2
:104A3000663701007489FF1F6F370100813701005D
:104A400092370100FCF76CFB684609F09BFCB64905
:104A5000684609F0D7FC0022B4496846FCF760FBC1
:104A6000684609F08FFCB249684609F0CBFC002289
:104A7000B0496846FCF754FB684609F083FCAE4930
:104A8000684609F0BFFC0022AC496846FCF748FBC9
:104A9000684609F077FCAA49684609F0B3FC002291
:104AA000A8496846FCF73CFB684609F06BFCA64940
:104AB000684609F0A7FC0022A4496846FCF730FBD1
:104AC000684609F05FFCA249684609F09BFC002299
:104AD000A0496846FCF724FB684609F053FC9E4950
:104AE000684609F08FFC00229C496846FCF718FBD9
:104AF000684609F047FC9A49684609F083FC0022A1
:104B0000022398496846FCF793FA684609F03AFC94
:104B10009549684609F076FC0022022393496846CD
:104B2000FCF786FA684609F02DFC9149684609F0C1
:104B300069FC002202238F496846FCF779FA68462F
:104B400009F020FC8C49684609F05CFC0022022335
:104B50008A496846FCF76CFA684609F013FC8849F4
:104B6000684609F04FFC0022022386496846FCF79C
:104B70005FFA684609F006FC8349684609F042FC82
:104B80000022022381496846FCF752FA684609F080
:104B9000F9FB7F49684609F035FC002202237D4974
:104BA0006846FCF745FA684609F0ECFB7A49684626
:104BB00009F028FC0022022378496846FCF738FAFD
:104BC000684609F0DFFB7649684609F01BFC0022C5
:104BD000022374496846FCF72BFA684609F0D2FBB9
:104BE0007149684609F00EFC002202236F496846AD
:104BF000FCF71EFA684609F0C5FB6D49684609F0E6
:104C000001FC002202236B496846FCF711FA684652
:104C100009F0B8FB6849684609F0F4FB002202235A
:104C200066496846FCF704FA684609F0ABFB64493C
:104C3000684609F0E7FB0022022362496846FCF758
:104C4000F7F9684609F09EFB5F49684609F0DAFB10
:104C5000002202235D496846FCF7EAF9684609F03C
:104C600091FB5B49684609F0CDFB002202235949BC
:104C70006846FCF7DDF9684609F084FB564968464A
:104C800009F0C0FB0022022354496846FCF7D0F922
:104C9000684609F077FB5249684609F0B3FB0022E9
:104CA000022350496846FCF7C3F9684609F06AFBDD
:104CB0004D49684609F0A6FB002202234B4968468D
:104CC000FCF7B6F9684609F05DFB4949684609F00A
:104CD00099FB0022022347496846FCF7A9F9684678
:104CE00009F050FB4449684609F08CFB002202237E
:104CF00042496846FCF79CF9684609F043FB404985
:104D0000684609F07FFB002202233E496846FCF713
:104D10008FF9684609F036FB3B49684609F072FB9B
:104D20000022022372E000BFAC370100A496FF1FEF
:104D3000C5370100748CFF1FE0370100DC90FF1FB6
:104D4000FA3701004C91FF1F0D380100BC91FF1F85
:104D5000203801002492FF1F333801008C92FF1F7E
:104D6000D33A01002C97FF1FE03A01003497FF1F50
:104D7000ED3A01004097FF1FFA3A01005094FF1FDF
:104D8000073B01005894FF1F143B01006094FF1F74
:104D9000213B0100D88BFF1F2E3B0100E08BFF1F42
:104DA0003B3B0100E88BFF1F483B01007094FF1F55
:104DB000553B0100F892FF1F633B01000093FF1F6A
:104DC000713B01000893FF1F7F3B01001093FF1F01
:104DD0008D3B01001893FF1F9B3B01002093FF1F99
:104DE000A93B01002893FF1FB73B01003093FF1F31
:104DF000C53B01003893FF1FD33B01004093FF1FC9
:104E0000E13B01003094FF1FEF3B0100B7496846CA
:104E1000FCF70EF9684609F0B5FAB549684609F09D
:104E2000F1FA00220223B3496846FCF701F968460B
:104E300009F0A8FAB049684609F0E4FA0022022312
:104E4000AE496846FCF7F4F8684609F09BFAAC49AD
:104E5000684609F0D7FA00220223AA496846FCF7FF
:104E6000E7F8684609F08EFAA749684609F0CAFAD9
:104E700000220223A5496846FCF7DAF8684609F0E3
:104E800081FAA349684609F0BDFA00220223A1492C
:104E90006846FCF7CDF8684609F074FA9E49684602
:104EA00009F0B0FA002202239C496846FCF7C0F8DA
:104EB000684609F067FA9A49684609F0A3FA0022A1
:104EC000022398496846FCF7B3F8684609F05AFA95
:104ED0009549684609F096FA0022022393496846EC
:104EE000FCF7A6F8684609F04DFA9149684609F0C2
:104EF00089FA002202238F496846FCF799F8684630
:104F000009F040FA8C49684609F07CFA0022022335
:104F10008A496846FCF78CF8684609F033FA8849F4
:104F2000684609F06FFA0022022386496846FCF7BA
:104F30007FF8684609F026FA8349684609F062FA64
:104F40000022022381496846FCF772F8684609F09E
:104F500019FA7F49684609F055FA002202237D4973
:104F60006846FCF765F8684609F00CFA7A49684625
:104F700009F048FA0022022378496846FCF758F8FD
:104F8000684609F0FFF97649684609F03BFA0022C5
:104F9000022374496846FCF74BF8684609F0F2F9B9
:104FA0007149684609F02EFA002202236F496846CB
:104FB000FCF73EF8684609F0E5F96D49684609F0E6
:104FC00021FA002202236B496846FCF731F8684653
:104FD00009F0D8F96849684609F014FA002202235A
:104FE00066496846FCF724F8684609F0CBF964493D
:104FF000684609F007FA0022022362496846FCF776
:1050000017F8684609F0BEF95F49684609F0FAF9F1
:10501000002202235D496846FCF70AF8684609F059
:10502000B1F95B49684609F0EDF9002202235949BC
:105030006846FBF7FDFF684609F0A4F95649684643
:1050400009F0E0F90022022354496846FBF7F0FF1B
:10505000684609F097F95249684609F0D3F90022E9
:10506000022350496846FBF7E3FF684609F08AF9D6
:105070004D49684609F0C6F9002202234B496846AB
:10508000FBF7D6FF684609F07DF94949684609F003
:10509000B9F90022032347496846FBF7C9FF684670
:1050A00009F070F94449684609F0ACF9002203237D
:1050B00042496846FBF7BCFF684609F063F940497E
:1050C000684609F09FF9002203233E496846FBF732
:1050D000AFFF684609F056F93B49684609F092F976
:1050E000002203233949684672E000BF3894FF1F4D
:1050F000FD3B01004094FF1F0B3C01004894FF1F43
:10510000193C01009096FF1F273C01009C96FF1F51
:10511000353C01000C97FF1F433C01001497FF1F13
:10512000513C01001C97FF1F5F3C01006894FF1F6A
:105130006D3C01006097FF1F7B3C01006897FF1FDB
:10514000893C01007097FF1F973C0100B491FF1F3D
:10515000A53C0100AC97FF1FB33C0100B497FF1FB3
:10516000C13C0100BC97FF1FCF3C0100C497FF1F4B
:10517000DD3C0100CC97FF1FEB3C0100D497FF1FE3
:10518000F93C01002497FF1F073D0100048CFF1F1D
:10519000153D01000C8CFF1F233D0100148CFF1FE7
:1051A000313D01001C8CFF1F3F3D0100248CFF1F7F
:1051B0004D3D01002C8CFF1F5B3D0100388CFF1F13
:1051C000693D0100448CFF1F773D01005497FF1F8C
:1051D000FBF72EFF684609F0D5F80E49684609F03E
:1051E00011F9002203230C496846FBF721FF6846AA
:1051F00009F0C8F80949684609F004F96846084901
:1052000022460223FBF714FF684609F0BBF804B0FE
:1052100010BD00BF853D01005C93FF1F5B3701009F
:105220006C89FF1F2DE9F04FB84BB94FB94D0422DF
:105230001A6085B00646002140F6FF72B64805F0B8
:1052400047FB8024012140F6FF72B34805F040FB84
:10525000022140F6FF723C60AF4805F039FB0321A4
:1052600040F6FF72AC4805F033FB2C60FEF753F9B3
:10527000622EA8462BD10020FFF7AAF94EF6602037
:10528000FBF730FE0022A54B04460D460BF00EFB4B
:105290008146B8B9FEF73FF9294620460BF060FB7E
:1052A000494682B29C4805F013FB0023204629465C
:1052B00000220BF0FBFA202310B9C8F80030DDE71C
:1052C0003B60DBE7FEF727F920233B602DE0632EF0
:1052D0002BD10020FFF77CF94EF66020FBF702FE91
:1052E0000BF016FB8E4983468E48FBF751F98C492B
:1052F0008D48FBF74DF900210A46874805F0E8FA8A
:1053000085480321002205F0E3FA4FF0000907F079
:10531000FDFB0228854C5FFA8BF500F31E8207F037
:1053200079FA022840F3218217E24FF00009FEF7D4
:10533000F2F8642E01D1FEF7FFF8FEF7ECF8652EC7
:105340003AD17B497748FBF723F977487849FBF74F
:105350001FF907F0DBFB022800F3628107F05AFA1D
:10536000022800F35D810120FBF710FC0BF022FC0A
:10537000FBF706FE81460AF0DDFF4FF0020A044605
:105380000D460B462246CDF800A06648FBF70AF909
:1053900022462B46CDF800A06348FBF703F9654988
:1053A0006048FBF7F5F863495F48FBF7F1F84FF405
:1053B000FA6007F0E1FFCCE7662E37D15E49594825
:1053C000FBF7E6F858485C49FBF7E2F807F09EFB6C
:1053D000022800F3258107F01DFA022800F320813E
:1053E000FDF70CFF0BF0E2FB81460AF0A3FF4FF044
:1053F000020A044622460B46CDF800A049480D4655
:10540000FBF7D0F84B494748FBF7C2F822462B463A
:10541000CDF800A04448FBF7C5F846494248FBF7E1
:10542000B7F84FF4FA6007F0A7FFCFE7672E35D142
:1054300042493C48FBF7ACF83B484049FBF7A8F829
:1054400007F064FB022800F3EB8007F0E3F9022881
:1054500000F3E680FBF758F881460AF06BFF4FF047
:10546000020A044622460B46CDF800A02D480D4600
:10547000FBF798F82F492B48FBF78AF822462B4672
:10548000CDF800A02848FBF78DF82A492648FBF7FD
:105490007FF84FF4FA6007F06FFFD1E7682E51D123
:1054A00027492048FBF774F81F482549FBF770F897
:1054B00007F02CFB022800F3B38007F0ABF90228B9
:1054C00000F3AE80FBF704F881460AF033FF4FF09B
:1054D000020A044622460B46CDF800A011480D46AC
:1054E000FBF760F813490F48FBF752F822462B46AA
:1054F000CDF800A00C48FBF755F80E490A48FBF719
:1055000047F84FF4FA6007F037FFD1E788F00F4013
:10551000C8F00F40C4F00F407897FF1F0000F0BFA5
:1055200046380100FC9EFF1F209FFF1F884101009D
:1055300056380100653E01006B3801007A380100E1
:105540008B380100692E36D198499948FBF720F82D
:1055500098489649FBF71CF807F0D8FA02285FDC58
:1055600007F058F902285BDC0020FBF70FFB0BF07B
:1055700021FB81460AF0DEFE4FF0020A04460D468A
:105580000B462246CDF800A08948FBF70BF82246CF
:105590002B46CDF800A08748FBF704F886498448DD
:1055A000FAF7F6FF84498348FAF7F2FF4FF4FA60FE
:1055B00007F0E2FED0E76A2E34D180497D48FAF741
:1055C000E7FF7B487D49FAF7E3FF07F09FFA0228DF
:1055D00026DC07F01FF9022822DCFDF73DFF81469B
:1055E0000AF0A8FE4FF0020A04460D460B4622467A
:1055F000CDF800A06E48FAF7D5FF22462B46CDF82D
:1056000000A06C48FAF7CEFF6B496948FAF7C0FF73
:1056100069496848FAF7BCFFC82007F0ADFED4E737
:10562000FDF779FF731E202B3ED865496148FAF7D4
:10563000AFFF5F486249FAF7ABFF4EF66020FBF719
:1056400051FC0BF065F9421C07465E4D24D0BCB2FC
:10565000FDF761FF002122465B4805F039F9012181
:105660002246594805F034F902212246564805F0F1
:105670002FF922465448032105F02AF955F836201F
:10568000012382F8803055F8362017B182F8803037
:10569000D3E782F80031D0E7FDF73DFF55F836300B
:1056A000012283F8002132E0A6F12203032B2ED839
:1056B0003F4808F011FC3F4808F00EFC4EF6602011
:1056C000FBF710FC0BF024F9431C1ED01023400103
:1056D0003B6002D001387FF4FDAFF0B207F0CAFFA3
:1056E00010230446C8F8003021463148FAF754FF29
:1056F00021463048FAF750FF2F492D48FAF748FF66
:105700002D492C48FAF744FFD2E7FDF704FF2F4B51
:1057100004221A6048460AF00DFE022604460D4691
:105720000B46224600962248FAF73CFF22462B46BB
:1057300000962048FAF736FF25491D48FAF741FF41
:1057400023491C48FAF73DFF194808F0C5FB1948E2
:1057500005B0BDE8F04F08F0BFBBFDF7DCFE54F824
:105760003530012283F80021E1E554F8352001238A
:1057700082F8803000200393FBF708FA0BF01AFA46
:10578000FBF7FEFB81460BF02FFC01465846FBF76A
:1057900005FC0021824648460BF0F4FB039B0146C2
:1057A000C0B154F8352082F800311EE0A238010063
:1057B000FC9EFF1F209FFF1F653E0100BB380100BC
:1057C000D8380100884101007897FF1F84F00F400E
:1057D000F72F01001FFA8AF422461C4805F078F8DA
:1057E0001A480321224605F073F848460AF0A2FD44
:1057F00004460D460221009122462B46144803918F
:10580000FAF7D0FE0399009122462B461148FAF789
:10581000C9FE11490E48FAF7BBFE0F490D48FAF7C9
:10582000B7FE51460A48FAF7B7FE51460948FAF75B
:10583000B3FE09490648FAF7C4FE07490548FAF7D6
:10584000C0FE4FF47A7007F097FD60E57897FF1F70
:10585000FC9EFF1F209FFF1F653E01002DE9F347BF
:1058600080460120FEF7B4FE4EF66020FBF73AFBBF
:105870000BF04EF8064631462B48FAF7ACFE2B48A3
:105880003146FAF7A8FE731C47D04EF66020FBF7AE
:1058900029FB0BF085F881460AF04CFD06270446EB
:1058A0000D460B46224600971F48FAF79EFE0097CA
:1058B0001E4822462B46FAF798FE48461C490BF034
:1058C00061FB50BB4EF66020FBF70CFB0BF068F859
:1058D00082460AF02FFD04460D460B4622460097ED
:1058E0001148FAF782FE0097104822462B46FAF735
:1058F0007CFE50460E490BF045FB70B930464946D8
:105900004246FEF7F7FC3046514608F17802FEF7B2
:105910000BFD012007F030FDA6E7012002B0BDE835
:10592000F047FEF755BE00BFFC9EFF1F209FFF1FE4
:10593000000080BF2DE9F043012B85B007460C46DF
:10594000154601D000265CE01846FEF741FE002611
:10595000A64264DA4EF66020FBF7C4FA0BF020F89A
:1059600003900AF0E7FC4FF006080DF1100902461B
:105970000B46CDF800802D48FAF714FE59F8040DB7
:105980000AF0D8FCCDF8008002460B462848FAF70A
:1059900009FE38464946FEF7A0FC01362F44D7E7FA
:1059A0004EF66020FBF79EFA0AF0FAFF00218046CF
:1059B0000BF010FB40BB404600210BF0EDFA58BB4A
:1059C000CDF80C8003980AF0B5FC4FF006080DF1F5
:1059D000100902460B46CDF800801448FAF7E2FDA4
:1059E00059F8040D0AF0A6FCCDF8008002460B46DB
:1059F0000F48FAF7D7FD38464946FEF76EFC0136E8
:105A00002F44A642CCDB0DE040460A490BF0C4FA15
:105A10000028D0D0084B00E0084B0393D2E70120C8
:105A2000FEF7D6FD05B0BDE8F08300BFFC9EFF1F6A
:105A3000209FFF1F00409C450060EA4720BCBE4CF1
:105A4000F7B50120FEF7C4FD4EF66020FBF74AFAD9
:105A50000AF0A6FF3B4F3C4E38600AF06BFC022474
:105A600002460B4600943046FAF79CFD3868374DE5
:105A70000AF060FC009402460B462846FAF792FDB5
:105A800039461820FEF729FC4EF66020FBF72AFA6B
:105A90000AF086FF2E4F38600AF04CFC0094024654
:105AA0000B463046FAF77EFD38680AF043FC009456
:105AB00002460B462846FAF775FD39461C20FEF7CC
:105AC0000CFC4EF66020FBF70DFA0AF069FF214F3F
:105AD00038600AF02FFC009402460B463046FAF775
