:1000000000800020BD0100002DD40000F9D30000C5
:10001000F9D30000F9D30000F9D30000F9D30000B0
:10002000F9D30000F9D30000F9D300002DD400006B
:100030002DD40000F9D300002DD40000E9D3000036
:100040002DD400002DD400002DD400002DD40000AC
:100050002DD400002DD400002DD400002DD400009C
:100060002DD400002DD400002DD400002DD400008C
:100070002DD400002DD400002DD400002DD400007C
:100080002DD400002DD400002DD400002DD400006C
:100090002DD40000A1B900002DD400002DD4000003
:1000A00039AB00002DD400002DD400002DD4000069
:1000B0002DD400002DD400002DD400002DD400003C
:1000C0002DD400002DD400002DD400002DD400002C
:1000D0002DD400002DD400002DD400002DD400001C
:1000E0002DD400002DD400002DD400002DD400000C
:1000F0002DD40000A9C800002DD4000075EC00002C
:100100002DD40000ADDB00002DD400002DD4000064
:100110002DD400002DD400002DD400002DD40000DB
:100120002DD400002DD400002DD400002DD40000CB
:100130002DD400002DD400002DD400002DD40000BB
:100140002DD400002DD400002DD400002DD40000AB
:100150007DDC000095DC0000ADDC0000C5DC0000AB
:100160002DD40000A9BD00002DD400002DD4000026
:100170002DD400002DD400002DD400002DD400007B
:100180002DD400002DD400002DD400002DD400006B
:100190002DD400002DD400002DD400002DD400005B
:1001A0002DD400002DD400002DD400002DD400004B
:1001B0002DD400002DD400002DD40000564B4CF25D
:1001C000205210B51A804DF628121A8000BF00BFC9
:1001D0000BF02CFC514B4FF010621A60504A9A60A1
:1001E000504ADA60A3F53043203B1A6812F480725B
:1001F00004D14D490A604FF4A8521A604B4B1A784B
:10020000110703D51A7842F008021A70484B2A22C7
:100210001A700023474A48499818884204D247492F
:10022000595899500433F5E7454A464B9A424FF0E6
:10023000000302D242F8043BF7E74349434A5958C6
:1002400099500433B3F5DE7FF7D1414B802103F899
:10025000011B40498B42F9D13F4B1A603F4B0A22A8
:100260001A70A3F5805324225A70A0221A709A792A
:100270009207FCD59A79D406FCD4394B9A7902F0CE
:100280000C02082AF9D103221A7140225A719A7974
:100290009006FCD5324B9A795106FBD5314A32494A
:1002A00011600221516020221A702D4B9B7903F0BE
:1002B0000C030C2BF9D12D4B2D4A1A602D4B2E4AD5
:1002C0001A6000225A60072243F8042C2B4AC3F814
:1002D0000C2D62B60DF03AF8134B1B68DA0705D502
:1002E00027480CF03DFE274B274A1A60274B1B7806
:1002F0005B0609D5234C244A2368934204D1204845
:100300000CF02EFE0023236010F0B4FE0DF091F8E7
:100310000DF0E0FEFEE700BF0E20054030800440F7
:10032000823F04000100002B14D0034002D007409C
:1003300000E007406089FF1F4C8BFF1F3C47010016
:100340004C8BFF1FD89FFF1F000000000084FF1F81
:1003500000E400E05FE400E008ED00E0005006404B
:100360000040064044800440000003010480044033
:10037000C010050014E000E0FF760100000020201E
:10038000AC2FE8561CE00340A5C3945A00F0074088
:10039000FFFFFFFFFFFFFFFFFFFFFFFFFFFFFFFF6D
:1003A000FFFFFFFFFFFFFFFFFFFFFFFFFFFFFFFF5D
:1003B000FFFFFFFFFFFFFFFFFFFFFFFFFFFFFFFF4D
:1003C000FFFFFFFFFFFFFFFFFFFFFFFFFFFFFFFF3D
:1003D000FFFFFFFFFFFFFFFFFFFFFFFFFFFFFFFF2D
:1003E000FFFFFFFFFFFFFFFFFFFFFFFFFFFFFFFF1D
:1003F000FFFFFFFFFFFFFFFFFFFFFFFFFFFFFFFF0D
:10040000FFFFFFFFFFFFFFFFFFFFFFFFFEFFFFFFFD
:1004100010B5054C237833B9044B13B10448AFF33E
:1004200000800123237010BD4C8BFF1F00000000D3
:100430003C47010008B5064B1BB106480649AFF31F
:1004400000800648036813B1054B03B1984708BD07
:10045000000000003C470100508BFF1F4C8BFF1F2A
:1004600000000000024B4FF400121A60704700BFFA
:1004700080E100E0064B10221A60064B1A78064B0A
:1004800053F83220012382F88030044A1360704709
:10049000C8F00F40EC99FF1F30410100708CFF1F26
:1004A000054B1A78054B53F83220012382F80031AE
:1004B000034A1360704700BFEC99FF1F30410100F1
:1004C000E497FF1F10B504460DF0B0FC204610BDA8
:1004D00038B50A480A4D09F015FE0A4B044618685B
:1004E00010F03CFB0146204610F040FC0146286815
:1004F00010F080FA2860204638BD00BF2894FF1F06
:10050000D08BFF1FE089FF1F38B50A480A4D09F05C
:100510004DFE0A4B0446186810F020FB01462046A9
:1005200010F024FC0146286810F064FA2860204688
:1005300038BD00BF2894FF1F008CFF1FE089FF1FFC
:1005400010B5ADF5B05D684600214FF4B05210F023
:10055000C7FD002420461DF8041001340DF03AF9BF
:10056000B4F5B05FF6D10DF5B05D10BD38B50446F9
:1005700008460D4610F08EFE236802465B68204652
:100580002946984738BD08B503681B68984708BDD9
:1005900008B5FFF7EBFF08BD0DF0BABC0A22002337
:1005A0000DF07EBC9DF8001000910DF0B9BC38B57F
:1005B00004460DF044FC054620460DF061FC28443D
:1005C00038BD38B50446FFF7D1FF054620460DF08B
:1005D00057FC284438BD38B504460DF099FC054653
:1005E00020460DF04DFC284438BD37B59DF8181055
:1005F000009104460DF094FC054620460DF040FCA9
:10060000284403B030BDFFFF002A10B50ADB064BBB
:10061000541E9C4206D830235A43013ABDE810408C
:100620000DF0EEBB002010BD5755550508B5036809
:10063000C9B21B68984708BD0D4B70B540241C60BB
:1006400032200CF06DFE0B4B0B4D0C4E1C600C4C15
:1006500031462846FFF7B5FF31462046FFF7B1FF88
:1006600028460DF00DFC2046BDE870400DF008BC9A
:10067000C4F00F40C8F00F40FC9EFF1F602F010028
:10068000209FFF1F10B517491748184CFFF780FF30
:1006900017481449FFF77CFF236863B915491248CE
:1006A000FFF78FFF12481349FFF78BFF124B02220F
:1006B0001A6001230DE0012B0CD110490A48FFF705
:1006C00080FF0B480D49FFF77CFF0D4B02221A609B
:1006D0000023236004480DF0D3FB0548BDE810401B
:1006E0000DF0CEBB732F0100FC9EFF1FFC94FF1F7B
:1006F000209FFF1F6C2F010084F00F40882F010006
:1007000088F00F402DE9F74F002140F6FF724E4868
:100710000AF0B2F84D4A0423202413602246013A1D
:100720007FF4FDAF4A4A4B4F136011200CF076FF67
:10073000494B4A4E1C6005460A200CF0F1FD112081
:100740000CF06CFF83466E200CF0EAFD11200CF0DB
:1007500065FF434BDFF818911C60424C82462146EE
:100760003846FFF715FF21463046FFF711FF2846B0
:1007700010F0F4F93C4910F0F9FA0FF0AFFD4FF02A
:10078000020804460D460B462246CDF80080384646
:10079000FFF708FF22462B46CDF800803046FFF7D2
:1007A00001FF49463846FFF7F3FE49463046FFF75A
:1007B000EFFE584610F0D2F92B4910F0D7FA0FF09F
:1007C0008DFD04460D460B462246CDF80080384686
:1007D000FFF7E8FE22462B46CDF800803046FFF7B3
:1007E000E1FE49463846FFF7D3FE49463046FFF75B
:1007F000CFFE504610F0B2F91B4910F0B7FA0FF0D7
:100800006DFD04460B462246CDF8008038460D4665
:10081000FFF7C8FE2246154CCDF800802B46304627
:10082000FFF7C0FE21463846FFF7CBFE2146304693
:10083000FFF7C7FE38460DF023FB304603B0BDE896
:10084000F04F0DF01DBB00BF7897FF1F88F00F40E1
:1008500084F00F40FC9EFF1FC4F00F40209FFF1F3D
:10086000C8F00F408E2F0100006013459F2F01003C
:100870000D3E01002DE9F74307460E460AA8002168
:10088000144698460C9D09F070FD002840F3E9805D
:1008900075497648FFF77CFE294674480DF0CFFA7B
:1008A00073497248FFF774FE6F497248FFF770FE94
:1008B000294670480DF0C3FA6D496E48FFF768FE8F
:1008C0002046002110F032FB08B10024B9E0204698
:1008D0000FF004FD022704460D460B462246009702
:1008E0006248FFF75FFE0097624822462B46FFF7FB
:1008F00059FE3068002110F019FB002840F0A98053
:100900005D495A48FFF744FE40460FF0E7FC0446B5
:1009100022460B46009755480D46FFF743FE5649C1
:100920005448FFF735FE009722462B465148FFF703
:1009300039FE8EE09C4280F28C8050494B48FFF794
:1009400027FE21460AA809F010FD014647480DF090
:10095000DFFA49494548FFF71BFE48494548FFF77C
:1009600017FE21460AA809F000FD014641480DF096
:10097000CFFA40484049FFF70BFE00251A2D4ED014
:100980003F4B21460AA853F8259009F0EEFC10F0E1
:10099000E5F8014648464FEA850810F0C7FA0028F6
:1009A00055D057F808000FF099FC022502460B4677
:1009B00000952E48FFF7F6FD57F808000FF08EFC63
:1009C000009502460B462B48FFF7ECFD30680021EE
:1009D00010F0ACFAD8B928492448FFF7D9FD56F8E9
:1009E00008000FF07BFC009502460B461F48FFF7FE
:1009F000D9FD21491F48FFF7CBFD56F808000FF03D
:100A00006DFC009502460B461A48FFF7CBFD1D49C9
:100A10001648FFF7BDFD17481A49FFF7B9FD012039
:100A20000CF07EFC0B9B03B1DB68013B9C4207D0C2
:100A300011490E48FFF7ACFD0E480F49FFF7A8FD1E
:100A400001340B9B002B3FF475AFDB6872E7013577
:100A500094E70D490548FFF79BFD06480A49FFF753
:100A600097FD03B0BDE8F0834E360100FC9EFF1FEA
:100A7000AF2F0100209FFF1F0D3E0100B22F01008C
:100A80007489FF1FA93F0100C83F010010B528204D
:100A900000210CF027FB28210A2200230A480DF030
:100AA000FFF909480DF0ECF9642428200CF0B6FD9C
:100AB00001460548FFF78FFD4FF4FA600CF030FC5B
:100AC000013CF2D110BD00BFFC9EFF1F0C2038B5C9
:100AD0000CF056FA282001210CF004FB0BF0EAFF81
:100AE00000283ED10446214628200CF017FB0320A5
:100AF0000CF016FC1A200CF091FD214605461C480E
:100B0000FFF74AFD1B491A48FFF742FD29461848DE
:100B1000FFF742FD16481749FFF753FD013440F235
:100B2000DC539C42DFD1214628200CF0F7FA032049
:100B30000CF0F6FB1A200CF071FD214605460C481E
:100B4000FFF72AFD0B490A48FFF722FD294608480E
:100B5000FFF722FD06480749FFF733FD013CE2D1CC
:100B6000BCE70BF065FFBDE838400BF061BF00BF8C
:100B7000FC9EFF1F0D3E0100012801D8FFF7A8BC15
:100B80007047012801D8FFF7BFBC70472DE9F84333
:100B900004464148414D424F424E09F025FE0FF0B8
:100BA000D9FF28603C4809F026FE0FF0D3FF3860DB
:100BB000394809F027FE0FF0CDFF3060364809F0C4
:100BC00028FE0FF0C7FF384B8046186054BB374BE8
:100BD000DFF8EC9018680FF0C1FF04462146286842
:100BE00010F0C4F80146D9F800000FF003FF2146C9
:100BF000C9F800003868DFF8CC902D4F10F0B6F837
:100C00000146D9F800000FF0F5FE2146C9F80000B2
:100C10003068284E10F0AAF8014638680FF0EAFE56
:100C200038602BE0012C32D1204BDFF89C90186803
:100C30000FF094FF04462146286810F097F801460B
:100C4000D9F800000FF0D6FE2146C9F80000386838
:100C5000DFF87890184F10F089F80146D9F80000B5
:100C60000FF0C8FE2146C9F800003068134E10F09E
:100C70007DF8014638680FF0BDFE386021464046D9
:100C800010F074F8014630680FF0B4FE3060286848
:100C900010F07EF9BDE8F8834C93FF1F7093FF1F9F
:100CA0004897FF1F3C97FF1FF08BFF1FE089FF1F36
:100CB000608CFF1FF499FF1FF894FF1F4491FF1FE2
:100CC0004891FF1F2C94FF1F2094FF1FF494FF1FD7
:100CD0002DE9F74F2B4DDFF8B8B0DFF8B8A02A4E5A
:100CE000DFF8B490DFF8B480284C59462846FFF767
:100CF0004FFCDAF800000FF0F1FA022702460B462B
:100D000000972846FFF74EFC31462846FFF740FC87
:100D100049462846FFF73CFCD8F800000FF0DEFA01
:100D2000009702460B462846FFF73CFC59462046F2
:100D3000FFF72EFCDAF800000FF0D0FA0097024619
:100D40000B462046FFF72EFC31462046FFF720FCDD
:100D500049462046FFF71CFCD8F800000FF0BEFA09
:100D6000009702460B462046FFF71CFC31462846FA
:100D7000FFF70EFC20463146FFF70AFC03B0BDE842
:100D8000F08F00BFFC9EFF1F0D3E0100209FFF1F44
:100D9000553001006889FF1F64300100F492FF1F85
:100DA000F0B50D46ADF57B7D0446264816460DF0A0
:100DB0004FF9294624480DF04BF94FF47A7200217F
:100DC000684610F08DF9204600210DF0EFFA1F4B18
:100DD0001D681A681F460BF06DFE10B90BF0EEFC93
:100DE000E8B10BF067FE002805DD0BF047FE5B283D
:100DF00024D0144808E00BF0E1FC00281EDD0BF0C5
:100E000017FD5B281AD010482B216A464FF47A73DD
:100E10000DF020F9204669460DF000FB0EE0012E92
:100E2000D9D13868401B0FF099FE094B196810F0B2
:100E3000A5F80028CFD0FFF7FFFBD2E720460DF53D
:100E40007B7DF0BDFC9EFF1F209FFF1F649EFF1F48
:100E50006C89FF1FF0B504468DB01F4821460DF088
:100E6000F7F81E4821460DF0F3F82022002104A8CF
:100E700010F036F9684600210DF098FA184B1E68FC
:100E80001A681F460BF016FE10B90BF097FCC0B1A4
:100E90000BF094FC002801DD104804E00BF00AFE82
:100EA000002813DD0C4804AA20232B210DF0D2F8D2
:100EB00004A968460DF0B2FA009810F0B7F805469C
:100EC00004E03B689B1BA342DCDDE1E768460DF0D4
:100ED0002DFA28460DB0F0BDFC9EFF1F209FFF1F7E
:100EE000649EFF1F2DE9F04106468CB02148314633
:100EF0000DF0AEF8204831460DF0AAF8202200216E
:100F000004A810F0EDF8684600210DF04FFA1B4BD5
:100F10001F681A6898460BF0CDFD10B90BF04EFC17
:100F2000C8B10BF0C7FD002801DD124804E00BF04A
:100F300045FC002815DD104804AA20232B210DF0C4
:100F400089F804A968460DF069FA009810F06BF86A
:100F500004460D4605E0D8F80030DB1BB342DADD6D
:100F6000DFE768460DF0E2F9204629460CB0BDE8FF
:100F7000F08100BFFC9EFF1F209FFF1F649EFF1F8C
:100F800008B5044B19680FF033FD034B19680FF0D7
:100F9000EDFE08BDF492FF1F6889FF1F70B505467E
:100FA0000E46002428460FF0D9FD1E4B014653F88B
:100FB00024000FF0BBFFE8B11B4B53F82450002175
:100FC00028460FF01FFE014628460FF013FD174B71
:100FD00053F824400546002120460FF013FE014639
:100FE00020460FF007FD0021044628460FF09EFF23
:100FF00048B103E001341A2CD4D10EE02046002180
:101000000FF094FF48B930460FF0A8FD21460FF0CD
:10101000EFFC29460FF0AAFE00E000200FF0B8FF19
:1010200070BD00BF7489FF1F2492FF1F8C92FF1FA9
:101030002DE9F34104460D463148324917461E4614
:10104000FFF7A6FA21462E480CF0F9FE2E492C484F
:10105000FFF79EFA2B492D48FFF79AFA21462B48B5
:101060000CF0EDFE29482849FFF792FA0024B4421B
:1010700023DA28680FF032F94FF0060802460B46D3
:10108000CDF800801E48FFF78DFA55F8040B0FF0DD
:1010900025F9CDF8008002460B461C48FFF782FA7E
:1010A000731E9C4207D01A491548FFF771FA17487A
:1010B0001749FFF76DFA0134D9E716491048FFF7D1
:1010C00067FA12481349FFF763FA012F0C4805D05D
:1010D0000F49FFF776FA0D480D490CE00E49FFF76E
:1010E00070FA0E490648FFF76CFA0B490748FFF7FC
:1010F00068FA06480949FFF764FA02B0BDE8F081D2
:10110000FC9EFF1F4E3601006D310100209FFF1F26
:101110000D3E0100A93F0100712F0100A63401001E
:10112000F7B504460D462E482E491646FFF730FA0D
:1011300021462B480CF083FE2B492948FFF728FA5B
:1011400028492A48FFF724FA214628480CF077FE60
:1011500026482549FFF71CFA002428680FF0BEF83E
:10116000022702460B4600971D48FFF71BFA55F869
:10117000040B0FF0B3F8009702460B461B48FFF72D
:1011800011FA192C07D01A491548FFF701FA174828
:101190001749FFF7FDF901341A2CDED11549104823
:1011A000FFF7F6F911481349FFF7F2F9012E0C4841
:1011B00005D00F49FFF705FA0C480D490CE00E4920
:1011C000FFF7FFF90D490648FFF7FBF90A49074801
:1011D000FFF7F7F905480949FFF7F3F903B0F0BD48
:1011E000FC9EFF1F4E3601006D310100209FFF1F46
:1011F0000D3E0100A93F0100712F0100A63401003E
:1012000010B50FF0ABFC0B4B196804460FF0FAFC5D
:10121000094B19680FF0EEFB084B1860084B20468D
:1012200019680FF0EFFC074B19680FF0E3FB064B52
:10123000186010BD688CFF1FE494FF1FE899FF1F22
:101240006C8CFF1FE894FF1FF099FF1F2DE9F743F7
:10125000054638B953495448FFF79AF9534851495C
:10126000FFF796F9DFF8689151494F48DFF864813C
:10127000504F514EFFF78CF9D9F800000FF02EF8BF
:10128000022402460B4600944748FFF78BF94B496E
:101290004548FFF77DF94A494348FFF779F9D8F8FF
:1012A00000000FF01BF8009402460B463E48FFF783
:1012B00079F942493C48FFF76BF942493A48FFF750
:1012C00067F938680FF00AF8009402460B46364872
:1012D000FFF768F939493448FFF75AF93A49324873
:1012E000FFF756F930680EF0F9FF009402460B46FE
:1012F0002D48FFF757F92E492C48FFF749F9D9F83F
:1013000000000EF0EBFF009402460B462748FFF763
:1013100049F92A492548FFF73BF929492348FFF7AE
:1013200037F9D8F800000EF0D9FF009402460B46BA
:101330001E48FFF737F921491C48FFF729F92149D1
:101340001A48FFF725F938680EF0C8FF00940246E6
:101350000B461648FFF726F918491448FFF718F905
:1013600019491248FFF714F930680EF0B7FF0094DE
:1013700002460B460D48FFF715F9012D0A4807D123
:101380000E49FFF705F90D490848FFF701F906E096
:101390000E49FFF716F905480C49FFF712F903B09B
:1013A000BDE8F08379300100FC9EFF1F209FFF1FE6
:1013B0007B3001006C8CFF1FE894FF1F0D3E010085
:1013C0008730010098300100A4300100712F010026
:1013D000688CFF1FE494FF1F01282DE9F341884624
:1013E00016461D463DD1A64FA649A748FFF7D0F89F
:1013F00038680EF073FF062402460B460094A2489C
:10140000FFF7D0F8A149A048FFF7C2F878680EF0BE
:1014100065FF009402460B469B48FFF7C3F89C49C2
:101420009948FFF7B5F897499A48FFF7B1F8386837
:101430000EF054FF009402460B469648FFF7B2F8B0
:1014400092499448FFF7A4F878680EF047FF00949B
:1014500002460B468F48FFF7A5F88E488C49FFF7E8
:1014600097F8B8F1010F3DD18B4F8C498648FFF7B3
:101470008FF838680EF032FF062402460B460094BF
:101480008148FFF78FF881497F48FFF781F8786836
:101490000EF024FF009402460B467B48FFF782F8CB
:1014A0007B497948FFF774F87C497A48FFF770F870
:1014B00038680EF013FF009402460B467548FFF79C
:1014C00071F872497348FFF763F878680EF006FF09
:1014D000009402460B466F48FFF764F86D486C496C
:1014E000FFF756F8012E3DD16D4E6E496648FFF765
:1014F0004FF830680EF0F2FE062402460B460094C8
:101500006148FFF74FF861495F48FFF741F870689D
:101510000EF0E4FE009402460B465B48FFF742F8EB
:101520005B495948FFF734F85E495A48FFF730F8ED
:1015300030680EF0D3FE009402460B465548FFF784
:1015400031F852495348FFF723F870680EF0C6FE91
:10155000009402460B464F48FFF724F84D484C498B
:10156000FFF716F8012D3DD14F4D50494648FFF782
:101570000FF828680EF0B2FE062402460B460094CF
:101580004148FFF70FF841493F48FFF701F8686805
:101590000EF0A4FE009402460B463B48FFF702F80B
:1015A0003B493948FEF7F4FF40493A48FEF7F0FF5F
:1015B00028680EF093FE009402460B463548FEF76D
:1015C000F1FF32493348FEF7E3FF68680EF086FE0C
:1015D000009402460B462F48FEF7E4FF2D482C49A5
:1015E000FEF7D6FF089B012B3DD1314D31492648EE
:1015F000FEF7CEFF28680EF071FE062402460B4669
:1016000000942148FEF7CEFF20491F48FEF7C0FF97
:1016100068680EF063FE009402460B461A48FEF717
:10162000C1FF1B491848FEF7B3FF22491948FEF7CE
:10163000AFFF28680EF052FE009402460B46154894
:10164000FEF7B0FF11491348FEF7A2FF68680EF0DD
:1016500045FE009402460B460E48FEF7A3FF0D48D8
:101660000B49FEF795FF099B012B5ED1124D1349E3
:101670000548FEF78DFF28680EF030FE06241FE0B7
:101680002C97FF1FB5300100FC9EFF1F0D3E01008F
:10169000C83F0100209FFF1F3497FF1FC630010085
:1016A0004097FF1FD73001005094FF1FE830010022
:1016B0005894FF1FF93001006094FF1F0A310100A8
:1016C00002460B460094A548FEF76CFFA449A348C8
:1016D000FEF75EFF68680EF001FE009402460B46BE
:1016E0009E48FEF75FFF9F499C48FEF751FF9E49C9
:1016F0009E48FEF74DFF28680EF0F0FD009402466C
:101700000B469A48FEF74EFF95499848FEF740FF72
:1017100068680EF0E3FD009402460B469348FEF71E
:1017200041FF92488F49FEF733FF0A9B012B3DD1C1
:101730008F4D90498948FEF72BFF28680EF0CEFDAB
:10174000062402460B4600948448FEF72BFF84498A
:101750008248FEF71DFF68680EF0C0FD0094024647
:101760000B467E48FEF71EFF7E497C48FEF710FFC1
:1017700080497E48FEF70CFF28680EF0AFFD00940C
:1017800002460B467948FEF70DFF75497748FEF78C
:10179000FFFE68680EF0A2FD009402460B467348F7
:1017A000FEF700FF71486F49FEF7F2FE0B9B012B1D
:1017B0003DD1714D71496948FEF7EAFE28680EF087
:1017C0008DFD062402460B4600946448FEF7EAFEAF
:1017D00063496248FEF7DCFE68680EF07FFD009406
:1017E00002460B465D48FEF7DDFE5E495B48FEF7AC
:1017F000CFFE62495D48FEF7CBFE28680EF06EFD15
:10180000009402460B465948FEF7CCFE544957480F
:10181000FEF7BEFE68680EF061FD009402460B46BE
:101820005248FEF7BFFE51484E49FEF7B1FE0C9BF1
:10183000012B3DD1524D53494848FEF7A9FE286877
:101840000EF04CFD062402460B4600944348FEF77A
:10185000A9FE43494148FEF79BFE68680EF03EFD35
:10186000009402460B463D48FEF79CFE3D493B482E
:10187000FEF78EFE43493D48FEF78AFE28680EF0CB
:101880002DFD009402460B463848FEF78BFE344986
:101890003648FEF77DFE68680EF020FD0094024693
:1018A0000B463248FEF77EFE30482E49FEF770FEAA
:1018B0000D9B012B3DD1344D34492848FEF768FE7D
:1018C00028680EF00BFD062402460B4600942348C0
:1018D000FEF768FE22492148FEF75AFE68680EF0BE
:1018E000FDFC009402460B461C48FEF75BFE1D49BA
:1018F0001A48FEF74DFE25491C48FEF749FE2868A8
:101900000EF0ECFC009402460B461848FEF74AFE27
:1019100013491648FEF73CFE68680EF0DFFC0094A1
:1019200002460B461148FEF73DFE10480D49FEF7F2
:101930002FFE0E9B012B5DD1154D16490748FEF772
:1019400027FE28680EF0CAFC062402460B460094C7
:101950000248FEF727FE02491EE000BFFC9EFF1F63
:101960000D3E0100C83F01000A310100209FFF1F0A
:10197000D88BFF1F1B310100E08BFF1F2C310100B2
:10198000E88BFF1F3D3101007094FF1F4E310100B5
:10199000F892FF1F5F310100A548FEF7F9FD686866
:1019A0000EF09CFC009402460B46A148FEF7FAFD9F
:1019B000A0499F48FEF7ECFD9F49A048FEF7E8FDCF
:1019C00028680EF08BFC009402460B469B48FEF7FD
:1019D000E9FD9B499948FEF7DBFD68680EF07EFC47
:1019E000009402460B469548FEF7DCFD934891496A
:1019F000FEF7CEFD0F9B012B3DD1924D92498C48B5
:101A0000FEF7C6FD28680EF069FC062402460B4668
:101A100000948748FEF7C6FD89498548FEF7B8FD62
:101A200068680EF05BFC009402460B468048FEF7A7
:101A3000B9FD80497E48FEF7ABFD83497F48FEF73C
:101A4000A7FD28680EF04AFC009402460B467B482E
:101A5000FEF7A8FD7A497948FEF79AFD68680EF00E
:101A60003DFC009402460B467448FEF79BFD73480C
:101A70007049FEF78DFD109B012B3DD1734D7449CC
:101A80006B48FEF785FD28680EF028FC0624024608
:101A90000B4600946648FEF785FD69496448FEF7E9
:101AA00077FD68680EF01AFC009402460B46604809
:101AB000FEF778FD5F495E48FEF76AFD64495F48BE
:101AC000FEF766FD28680EF009FC009402460B46FE
:101AD0005A48FEF767FD5A495848FEF759FD6868AD
:101AE0000EF0FCFB009402460B465448FEF75AFDEC
:101AF00052485049FEF74CFD119B012B3DD1554DED
:101B000055494B48FEF744FD28680EF0E7FB0624D4
:101B100002460B4600944648FEF744FD48494448B7
:101B2000FEF736FD68680EF0D9FB009402460B46BE
:101B30003F48FEF737FD3F493D48FEF729FD46493E
:101B40003E48FEF725FD28680EF0C8FB00940246CB
:101B50000B463A48FEF726FD39493848FEF718FD8E
:101B600068680EF0BBFB009402460B463348FEF754
:101B700019FD32482F49FEF70BFD129B012B3DD179
:101B8000364D37492A48FEF703FD28680EF0A6FBBC
:101B9000062402460B4600942548FEF703FD28491B
:101BA0002348FEF7F5FC68680EF098FB00940246A7
:101BB0000B461F48FEF7F6FC1E491D48FEF7E8FCE1
:101BC00027491E48FEF7E4FC28680EF087FB0094C6
:101BD00002460B461948FEF7E5FC19491748FEF77F
:101BE000D7FC68680EF07AFB009402460B46134857
:101BF000FEF7D8FC11480F49FEF7CAFC139B012BD6
:101C00005CD1184D18490A48FEF7C2FC28680EF04E
:101C100065FB062402460B4600940548FEF7C2FC0D
:101C200007490348FEF7B4FC68680EF057FB1DE057
:101C3000FC9EFF1FC83F01005F310100209FFF1F76
:101C40000D3E01000093FF1F713101000893FF1F3B
:101C5000833101001093FF1F953101001893FF1F7E
:101C6000A73101002093FF1FB93101000094024603
:101C70000B46A548FEF796FCA449A348FEF788FC4E
:101C8000A349A448FEF784FC28680EF027FB0094C3
:101C900002460B469F48FEF785FC9F499D48FEF78C
:101CA00077FC68680EF01AFB009402460B469948D0
:101CB000FEF778FC97489549FEF76AFC149B012BC8
:101CC0003DD1964D96499048FEF762FC28680EF08B
:101CD00005FB062402460B4600948B48FEF762FC87
:101CE0008D498948FEF754FC68680EF0F7FA0094B5
:101CF00002460B468448FEF755FC84498248FEF7AD
:101D000047FC87498348FEF743FC28680EF0E6FA53
:101D1000009402460B467F48FEF744FC7E497D480E
:101D2000FEF736FC68680EF0D9FA009402460B46BE
:101D30007848FEF737FC77487449FEF729FC159B75
:101D4000012B3DD1774D78496F48FEF721FC28687B
:101D50000EF0C4FA062402460B4600946A48FEF7C9
:101D600021FC6D496848FEF713FC68680EF0B6FA6E
:101D7000009402460B466448FEF714FC634962482F
:101D8000FEF706FC68496348FEF702FC28680EF07F
:101D9000A5FA009402460B465E48FEF703FC5E4936
:101DA0005C48FEF7F5FB68680EF098FA009402466E
:101DB0000B465848FEF7F6FB56485449FEF7E8FB39
:101DC000169B012B3DD1594D59494F48FEF7E0FB79
:101DD00028680EF083FA062402460B4600944A480F
:101DE000FEF7E0FB4C494848FEF7D2FB68680EF06E
:101DF00075FA009402460B464348FEF7D3FB43496D
:101E00004148FEF7C5FB4A494248FEF7C1FB286836
:101E10000EF064FA009402460B463E48FEF7C2FB01
:101E20003D493C48FEF7B4FB68680EF057FA009451
:101E300002460B463748FEF7B5FB36483349FEF7F6
:101E4000A7FB179B012B3DD13A4D3B492E48FEF78E
:101E50009FFB28680EF042FA062402460B460094C7
:101E60002948FEF79FFB2C492748FEF791FB68683D
:101E70000EF034FA009402460B462348FEF792FB1C
:101E800022492148FEF784FB2B492248FEF780FBBC
:101E900028680EF023FA009402460B461D48FEF710
:101EA00081FB1D491B48FEF773FB68680EF016FAAC
:101EB000009402460B461748FEF774FB1548134979
:101EC000FEF766FB189B012B5DD11C4D1C490E488B
:101ED000FEF75EFB28680EF001FA062402460B4668
:101EE00000940948FEF75EFB0B490748FEF750FBDC
:101EF00068680EF0F3F9009402460B460248FEF7BC
:101F000051FB02491EE000BFFC9EFF1FC83F0100BD
:101F1000B9310100209FFF1F0D3E01002893FF1FD4
:101F2000CB3101003093FF1FDD3101003893FF1FDB
:101F3000EF3101004093FF1F013201003094FF1F79
:101F400013320100A448FEF723FBA449A448FEF77E
:101F50001FFB28680EF0C2F9009402460B46A04809
:101F6000FEF720FB9F499E48FEF712FB68680EF0C3
:101F7000B5F9009402460B469948FEF713FB9848C2
:101F80009949FEF705FB199B012B3DD1974D9849C7
:101F90009148FEF7FDFA28680EF0A0F906240246E3
:101FA0000B4600948C48FEF7FDFA8E498A48FEF7EE
:101FB000EFFA68680EF092F9009402460B468648E4
:101FC000FEF7F0FA88498448FEF7E2FA8849844827
:101FD000FEF7DEFA28680EF081F9009402460B46FF
:101FE0007F48FEF7DFFA7F497D48FEF7D1FA68683F
:101FF0000EF074F9009402460B467948FEF7D2FAC7
:1020000077487949FEF7C4FA1A9B012B3DD1794DE7
:1020100079497148FEF7BCFA28680EF05FF906248A
:1020200002460B4600946C48FEF7BCFA6D496A48BC
:10203000FEF7AEFA68680EF051F9009402460B46BE
:102040006548FEF7AFFA68496348FEF7A1FA6A49A6
:102050006348FEF79DFA28680EF040F900940246A6
:102060000B465F48FEF79EFA5E495D48FEF790FA20
:1020700068680EF033F9009402460B465848FEF7A4
:1020800091FA57485849FEF783FA1B9B012B3DD123
:102090005A4D5B495048FEF77BFA28680EF01EF94E
:1020A000062402460B4600944B48FEF77BFA4D4946
:1020B0004948FEF76DFA68680EF010F90094024680
:1020C0000B464548FEF76EFA47494348FEF760FA6B
:1020D0004B494348FEF75CFA28680EF0FFF800947D
:1020E00002460B463E48FEF75DFA3E493C48FEF785
:1020F0004FFA68680EF0F2F8009402460B46384832
:10210000FEF750FA36483849FEF742FA1C9B012B7D
:102110003DD13C4D3C493048FEF73AFA28680EF074
:10212000DDF8062402460B4600942B48FEF73AFAE7
:102130002C492948FEF72CFA68680EF0CFF8009475
:1021400002460B462448FEF72DFA27492248FEF79F
:102150001FFA2D492248FEF71BFA28680EF0BEF838
:10216000009402460B461E48FEF71CFA1D491C4807
:10217000FEF70EFA68680EF0B1F8009402460B46BE
:102180001748FEF70FFA16481749FEF701FA1D9B8C
:10219000012B5CD11D4D1E490F48FEF7F9F9286847
:1021A0000EF09CF8062402460B4600940A48FEF7FF
:1021B000F9F90C490848FEF7EBF968680EF08EF85B
:1021C000009402460B460448FEF7ECF90649024823
:1021D000FEF7DEF90E491DE0FC9EFF1F13320100E1
:1021E000209FFF1F0D3E0100C83F01003894FF1FD4
:1021F000253201004094FF1F373201004894FF1F31
:10220000493201009096FF1F5B3201009C96FF1F30
:102210006D320100A548FEF7BBF928680EF05EF8A4
:10222000009402460B46A148FEF7BCF9A0499F481E
:10223000FEF7AEF968680EF051F8009402460B46BE
:102240009A48FEF7AFF999489A49FEF7A1F91E9B03
:10225000012B3DD1984D99499948FEF799F9286885
:102260000EF03CF8062402460B4600949448FEF714
:1022700099F98F499248FEF78BF968680EF02EF8AD
:10228000009402460B468E48FEF78CF989498C482B
:10229000FEF77EF989498548FEF77AF928680EF03D
:1022A0001DF8009402460B468048FEF77BF98049F2
:1022B0007E48FEF76DF968680EF010F8009402464B
:1022C0000B467A48FEF76EF978487A49FEF760F9CE
:1022D0001F9B012B3DD17B4D7B497948FEF758F977
:1022E00028680DF0FBFF062402460B460094744854
:1022F000FEF758F96E497248FEF74AF968680DF022
:10230000EDFF009402460B466D48FEF74BF9694914
:102310006B48FEF73DF96C496448FEF739F92868C7
:102320000DF0DCFF009402460B466048FEF73AF9D8
:102330005F495E48FEF72CF968680DF0CFFF009406
:1023400002460B465948FEF72DF958485949FEF701
:102350001FF9209B012B3DD15C4D5D495848FEF78C
:1023600017F928680DF0BAFF062402460B460094C0
:102370005348FEF717F94E495148FEF709F96868C6
:102380000DF0ACFF009402460B464D48FEF70AF9EB
:1023900048494B48FEF7FCF84D494448FEF7F8F829
:1023A00028680DF09BFF009402460B463F48FEF75D
:1023B000F9F83F493D48FEF7EBF868680DF08EFFED
:1023C000009402460B463948FEF7ECF83748394985
:1023D000FEF7DEF8219B012B3DD13E4D3E493848AA
:1023E000FEF7D6F828680DF079FF062402460B4662
:1023F00000943348FEF7D6F82D493148FEF7C8F867
:1024000068680DF06BFF009402460B462C48FEF7FF
:10241000C9F828492A48FEF7BBF82F492348FEF798
:10242000B7F828680DF05AFF009402460B461F4883
:10243000FEF7B8F81E491D48FEF7AAF868680DF0C7
:102440004DFF009402460B461848FEF7ABF81748BC
:102450001849FEF79DF8229B012B5AD11F4D2049A8
:102460001748FEF795F828680DF038FF0624024655
:102470000B4600941248FEF795F80D491048FEF7F8
:1024800087F868680DF02AFF009402460B460C4856
:10249000FEF788F807490A48FEF77AF8104903481A
:1024A000FEF776F828680DF019FF1BE0209FFF1F4C
:1024B0000D3E0100C83F01000C97FF1F7F32010055
:1024C000FC9EFF1F1497FF1F913201001C97FF1FF6
:1024D000A33201006894FF1FB53201006097FF1F0F
:1024E000C7320100009402460B46A548FEF75AF891
:1024F000A449A348FEF74CF868680DF0EFFE00947D
:1025000002460B469E48FEF74DF89D489E49FEF751
:102510003FF8239B012B3DD19C4D9D499D48FEF7E3
:1025200037F828680DF0DAFE062402460B460094C0
:102530009848FEF737F893499648FEF729F86868F7
:102540000DF0CCFE009402460B469248FEF72AF8A6
:102550008D499048FEF71CF88D498948FEF718F818
:1025600028680DF0BBFE009402460B468448FEF737
:1025700019F884498248FEF70BF868680DF0AEFE42
:10258000009402460B467E48FEF70CF87C487E49D4
:10259000FDF7FEFF249B012B3DD17F4D7F497D48F8
:1025A000FDF7F6FF28680DF099FE062402460B465B
:1025B00000947848FDF7F6FF72497648FDF7E8FF8A
:1025C00068680DF08BFE009402460B467148FDF7DB
:1025D000E9FF6D496F48FDF7DBFF70496848FDF77B
:1025E000D7FF28680DF07AFE009402460B46644837
:1025F000FDF7D8FF63496248FDF7CAFF68680DF030
:102600006DFE009402460B465D48FDF7CBFF5C482B
:102610005D49FDF7BDFF259B012B3DD1604D614913
:102620005C48FDF7B5FF28680DF058FE0624024609
:102630000B4600945748FDF7B5FF52495548FDF742
:10264000A7FF68680DF04AFE009402460B46514809
:10265000FDF7A8FF4C494F48FDF79AFF51494848FC
:10266000FDF796FF28680DF039FE009402460B46F0
:102670004348FDF797FF43494148FDF789FF6868E4
:102680000DF02CFE009402460B463D48FDF78AFFF4
:102690003B483D49FDF77CFF269B012B3DD1424D38
:1026A00042493C48FDF774FF28680DF017FE0624E8
:1026B00002460B4600943748FDF774FF3149354810
:1026C000FDF766FF68680DF009FE009402460B46B0
:1026D0003048FDF767FF2C492E48FDF759FF334975
:1026E0002748FDF755FF28680DF0F8FD00940246D5
:1026F0000B462348FDF756FF22492148FDF748FFC6
:1027000068680DF0EBFD009402460B461C48FDF78F
:1027100049FF1B481C49FDF73BFF279B012B5BD161
:10272000234D24491B48FDF733FF28680DF0D6FDE3
:10273000062402460B4600941648FDF733FF114964
:102740001448FDF725FF68680DF0C8FD00940246A7
:102750000B461048FDF726FF0B490E48FDF718FF02
:1027600014490748FDF714FF28680DF0B7FD0094E1
:1027700002460B460248FDF715FF02491CE000BF68
:10278000209FFF1F0D3E0100C83F01006897FF1FFB
:10279000D9320100FC9EFF1F7097FF1FEB32010032
:1027A000B491FF1FFD320100AC97FF1F0F330100F2
:1027B000B497FF1F21330100A548FDF7E9FE6868C3
:1027C0000DF08CFD009402460B46A148FDF7EAFE91
:1027D0009F48A049FDF7DCFE289B012B3DD19E4D73
:1027E0009E499F48FDF7D4FE28680DF077FD06242A
:1027F00002460B4600949A48FDF7D4FE9949984842
:10280000FDF7C6FE68680DF069FD009402460B46B0
:102810009348FDF7C7FE8F499148FDF7B9FE8F49F0
:102820008B48FDF7B5FE28680DF058FD0094024670
:102830000B468748FDF7B6FE8A498548FDF7A8FE96
:1028400068680DF04BFD009402460B468048FDF78A
:10285000A9FE7F487F49FDF79BFE299B012B3DD1B7
:10286000814D82497E48FDF793FE28680DF036FDC4
:10287000062402460B4600947948FDF793FE7949F9
:102880007748FDF785FE68680DF028FD0094024644
:102890000B467348FDF786FE6E497148FDF778FEDA
:1028A00072496B48FDF774FE28680DF017FD00941F
:1028B00002460B466648FDF775FE6A496448FDF717
:1028C00067FE68680DF00AFD009402460B466048FA
:1028D000FDF768FE5E485F49FDF75AFE2A9B012B13
:1028E0003DD1634D63495E48FDF752FE28680DF007
:1028F000F5FC062402460B4600945948FDF752FEAB
:1029000058495748FDF744FE68680DF0E7FC00940D
:1029100002460B465248FDF745FE4E495048FDF72A
:1029200037FE54494A48FDF733FE28680DF0D6FCBF
:10293000009402460B464648FDF734FE4949444898
:10294000FDF726FE68680DF0C9FC009402460B46B0
:102950003F48FDF727FE3E483E49FDF719FE2B9BF9
:10296000012B3DD1444D45493D48FDF711FE2868F6
:102970000DF0B4FC062402460B4600943848FDF7DF
:1029800011FE38493648FDF703FE68680DF0A6FCD5
:10299000009402460B463248FDF704FE2D493048AC
:1029A000FDF7F6FD35492A48FDF7F2FD28680DF0E0
:1029B00095FC009402460B462548FDF7F3FD294996
:1029C0002348FDF7E5FD68680DF088FC0094024699
:1029D0000B461F48FDF7E6FD1D481E49FDF7D8FDD3
:1029E0002C9B012B5AD1264D26491D48FDF7D0FDC1
:1029F00028680DF073FC062402460B460094184824
:102A0000FDF7D0FD17491648FDF7C2FD68680DF0C7
:102A100065FC009402460B461148FDF7C3FD0D49C5
:102A20000F48FDF7B5FD17490948FDF7B1FD2868C6
:102A30000DF054FC009402460B460548FDF7B2FD2C
:102A400008490348FDF7A4FD68680DF047FC1BE04A
:102A5000209FFF1FC83F0100BC97FF1F33330100B9
:102A6000FC9EFF1F0D3E0100C497FF1F4533010070
:102A7000CC97FF1F57330100D497FF1F6933010024
:102A80002497FF1F7B330100009402460B46A548A4
:102A9000FDF788FDA348A449FDF77AFD2D9B012B86
:102AA0003DD1A24DA249A348FDF772FD28680DF063
:102AB00015FC062402460B4600949E48FDF772FD65
:102AC0009D499C48FDF764FD68680DF007FC009483
:102AD00002460B469748FDF765FD93499548FDF77B
:102AE00057FD93498F48FDF753FD28680DF0F6FB1D
:102AF000009402460B468B48FDF754FD8E498948E9
:102B0000FDF746FD68680DF0E9FB009402460B46B0
:102B10008448FDF747FD83488349FDF739FD2E9B27
:102B2000012B3DD1854D86498248FDF731FD28684E
:102B30000DF0D4FB062402460B4600947D48FDF7B9
:102B400031FD7D497B48FDF723FD68680DF0C6FB2C
:102B5000009402460B467748FDF724FD72497548FC
:102B6000FDF716FD76496F48FDF712FD28680DF058
:102B7000B5FB009402460B466A48FDF713FD6E490B
:102B80006848FDF705FD68680DF0A8FB0094024653
:102B90000B466448FDF706FD62486349FDF7F8FC03
:102BA0002F9B012B3DD1674D67496248FDF7F0FC33
:102BB00028680DF093FB062402460B4600945D48FE
:102BC000FDF7F0FC5C495B48FDF7E2FC68680DF03E
:102BD00085FB009402460B465648FDF7E3FC52493C
:102BE0005448FDF7D5FC58494E48FDF7D1FC2868FC
:102BF0000DF074FB009402460B464A48FDF7D2FCE8
:102C00004D494848FDF7C4FC68680DF067FB009427
:102C100002460B464348FDF7C5FC42484249FDF7D2
:102C2000B7FC309B012B3DD1484D49494148FDF748
:102C3000AFFC28680DF052FB062402460B460094B8
:102C40003C48FDF7AFFC3C493A48FDF7A1FC6868F9
:102C50000DF044FB009402460B463648FDF7A2FCFB
:102C600031493448FDF794FC39492E48FDF790FC72
:102C700028680DF033FB009402460B462948FDF707
:102C800091FC2D492748FDF783FC68680DF026FB71
:102C9000009402460B462348FDF784FC2148224954
:102CA000FDF776FC319B012B5BD12A4D2A49214847
:102CB000FDF76EFC28680DF011FB062402460B465A
:102CC00000941C48FDF76EFC1B491A48FDF760FC98
:102CD00068680DF003FB009402460B461548FDF7AB
:102CE00061FC11491348FDF753FC1B490D48FDF7E2
:102CF0004FFC28680DF0F2FA009402460B46094892
:102D0000FDF750FC0C490748FDF742FC68680DF0E0
:102D1000E5FA009402460B460248FDF743FC0148E1
:102D20001CE000BF209FFF1FC83F0100048CFF1F55
:102D30008D330100FC9EFF1F0D3E01000C8CFF1F18
:102D40009F330100148CFF1FB13301001C8CFF1F47
:102D5000C3330100248CFF1FD5330100A549FDF7C3
:102D600017FC329B012B57D1A34DA449A448FDF772
:102D70000FFC28680DF0B2FA062402460B460094B8
:102D80009F48FDF70FFC9F499D48FDF701FC6868CF
:102D90000DF0A4FA009402460B469948FDF702FC98
:102DA00098499748FDF7F4FBA8680DF097FA00944E
:102DB00002460B469248FDF7F5FB8E499048FDF719
:102DC000E7FB8E499048FDF7E3FB28680DF086FA93
:102DD000009402460B468C48FDF7E4FB89498A487B
:102DE000FDF7D6FB68680DF079FA009402460B46B1
:102DF0008548FDF7D7FB83498348FDF7C9FBA868E1
:102E00000DF06CFA009402460B467F48FDF7CAFBB2
:102E10007D487849FDF7BCFB339B012B57D17B4D97
:102E20007B497748FDF7B4FB28680DF057FA062474
:102E300002460B4600947248FDF7B4FB7149704896
:102E4000FDF7A6FB68680DF049FA009402460B46B0
:102E50006B48FDF7A7FB6B496948FDF799FBA8682C
:102E60000DF03CFA009402460B466548FDF79AFBCC
:102E700060496348FDF78CFB65496348FDF788FBB3
:102E800028680DF02BFA009402460B465E48FDF7C9
:102E900089FB5C495C48FDF77BFB68680DF01EFA16
:102EA000009402460B465848FDF77CFB55495648AE
:102EB000FDF76EFBA8680DF011FA009402460B4670
:102EC0005148FDF76FFB50484A49FDF761FB349BC1
:102ED000012B57D14F4D50494948FDF759FB286800
:102EE0000DF0FCF9062402460B4600944448FDF719
:102EF00059FB44494248FDF74BFB68680DF0EEF979
:102F0000009402460B463E48FDF74CFB3D493C48C9
:102F1000FDF73EFBA8680DF0E1F9009402460B4670
:102F20003748FDF73FFB33493548FDF731FB3A4958
:102F30003548FDF72DFB28680DF0D0F900940246C6
:102F40000B463148FDF72EFB2E492F48FDF720FB9D
:102F500068680DF0C3F9009402460B462A48FDF755
:102F600021FB28492848FDF713FBA8680DF0B6F9A6
:102F7000009402460B462448FDF714FB22481D49E5
:102F8000FDF706FB359B012B70D1244D24491C48CD
:102F9000FDF7FEFA28680DF0A1F9062402460B465B
:102FA00000941748FDF7FEFA16491548FDF7F0FAA8
:102FB00068680DF093F9009402460B461048FDF73F
:102FC000F1FA10490E48FDF7E3FAA8680DF086F90A
:102FD000009402460B460A48FDF7E4FA0549084802
:102FE000FDF7D6FA0E490848FDF7D2FA28680DF029
:102FF00075F917E0C83F01002C8CFF1FE733010073
:10300000FC9EFF1F0D3E0100209FFF1F388CFF1FFD
:10301000F9330100448CFF1F0B3401005497FF1F4C
:103020001D340100009402460B463F48FDF7BAFAF2
:103030003E493D48FDF7ACFA68680DF04FF9009441
:1030400002460B463848FDF7ADFA38493648FDF7D9
:103050009FFAA8680DF042F9009402460B463248E8
:10306000FDF7A0FA30483249FDF792FA369B012B62
:1030700057D1304D30493148FDF78AFA28680DF0B4
:103080002DF9062402460B4600942C48FDF78AFAD7
:1030900026492A48FDF77CFA68680DF01FF900946C
:1030A00002460B462548FDF77DFA20492348FDF7E7
:1030B0006FFAA8680DF012F9009402460B461F48FB
:1030C000FDF770FA1A491D48FDF762FA1A491648C9
:1030D000FDF75EFA28680DF001F9009402460B46F0
:1030E0001148FDF75FFA11490F48FDF751FA68687A
:1030F0000DF0F4F8009402460B460B48FDF752FA27
:103100000A490948FDF744FAA8680DF0E7F8009469
:1031100002460B460448FDF745FA03480449FDF70B
:1031200037FA02B0BDE8F081209FFF1F0D3E01007D
:10313000C83F01005C93FF1F2F340100FC9EFF1F5E
:103140001F4B70B51D681A680C461E460AF0CAFC73
:1031500008BB1C4807210AF09DFC32200AF0E0F869
:1031600033685B1BA342F1DD17491848FDF710FADD
:1031700015491748FDF70CFA16491448FDF708FAE7
:1031800014491348FDF704FA05E001340A2C07DC62
:1031900032200AF0C5F80AF0A5FC0628F5DD05E0A6
:1031A0000AF0A0FC10B10AF0ADFCF9E700240AF027
:1031B000A9FC094B18550134072CF8D170BD00BF8C
:1031C000649EFF1FF489FF1F41340100FC9EFF1F16
:1031D000209FFF1F0D3E0100508CFF1F08B5C278D5
:1031E000007900EB02200DF0B5FC034B19680DF0DF
:1031F00009FD0DF0F3FE08BDF089FF1F38B54FF44F
:10320000FA610C480C4DFFF79BFF0C48FFF7E6FFF7
:10321000044664200AF084F8094B1868B4FBF0F007
:103220000DF098FC014628680DF0E4FB286020466C
:1032300038BD00BFF489FF1F1C94FF1F508CFF1F77
:10324000E089FF1F012801D8FFF7D8BF7047FFFFB3
:103250002DE9F74F7A4E304606F024FF0DF02CF89A
:10326000044630460D4606F031FF0DF025F862A306
:10327000D3E900230DF086F80022724B0DF0ACF973
:103280000022704B0DF0A8F9002206460F4620469A
:1032900029466D4B0DF076F859A3D3E900230CF0C5
:1032A000BFFE59A3D3E9002382468B460CF0B6FE3D
:1032B00057A3D3E9002304460D460DF063F800221E
:1032C000624B0CF0ADFE54A3D3E90023804689463F
:1032D000204629460DF056F822462B460DF052F8AE
:1032E00002460B46404649460CF09AFE584B804633
:1032F000186889460CF0F2FF02460B4640464946E4
:103300000DF040F846A3D3E900230DF065F9002243
:10331000CDE900014B4B304639460DF05DF942A333
:10332000D3E9002380468946204629460DF02AF835
:103330004FF02042474B0CF071FE3DA3D3E9002330
:1033400006460F46204629460DF01CF822462B461D
:103350000DF018F802460B46304639460CF060FE78
:1033600002460B46404649460CF058FE524604467B
:103370000D465B46504659460DF004F852465B46F2
:103380000DF000F852465B460CF0FCFF2AA3D3E98F
:10339000002306460F46204629460CF0F3FF22463E
:1033A0002B460CF0EFFF02460B46204629460CF058
:1033B00037FE1BA3D3E9002304460D46DDE90001D7
:1033C0000DF00AF902460B46204629460DF004F995
:1033D00002460B46304639460CF022FE0BF068FEE2
:1033E0000BF066FE06A3D3E900230CF017FE03B032
:1033F000BDE8F08FAFF3008000000000008863405C
:1034000000000060661271400000006066A2724019
:103410000000004008AC5C3F000000E05898F1BE9E
:1034200000000000D0126341000000404320A3BE12
:1034300000000020BDE2333E000000C0CCCC2A409A
:103440004893FF1F00408F400000A03F0000F03F66
:10345000EC89FF1F00D4FE3E70B5FFF7F9FE0DF0BA
:1034600073FA04461F4806F025FE4FF47A6009F00F
:1034700057FF20461C494FF001050DF07FFD00B9B4
:10348000054615F0FF0F194D0AD1204618494FF097
:1034900001060DF055FD00B9064616F0FF0F12D0DB
:1034A000144C154915482C60FDF772F81249144860
:1034B000FDF76EF813491148FDF76AF811491048F5
:1034C000FDF766F80CE0104B18680DF047FB01465D
:1034D00020460DF04BFC014628680DF08BFA286061
:1034E000204670BD4893FF1F00007A442494FF1FBC
:1034F000000070C20000C6C25F340100FC9EFF1FC6
:10350000209FFF1F0D3E0100E089FF1F012801D809
:10351000FFF7A2BF704708B509F0CCFA002802DD1A
:1035200009F086FAF8E709F049F9002802DD09F008
:1035300055F9F8E708BDFFFF2DE9F3414EF660208D
:10354000FDF7D0FC04460D46B548B649FDF720F816
:10355000B449B548FDF71CF820462946002200234F
:103560000DF078F90646002840F03B8202270097CC
:1035700022462B46AA48FDF715F822462B4600970F
:10358000A948AA4FFDF70EF8A949A548FDF700F88C
:10359000A749A548FCF7FCFF09F04AFA09F048FAE8
:1035A00020233B6080233B609D480AF069FCA149D1
:1035B0009B48FCF7EDFF31469948FDF70CF8984819
:1035C0009D49FCF7FEFFB846B2B200219B4807F0C8
:1035D00053F931469248FCF7DFFF95499048FCF7D4
:1035E000D7FF322009F09CFE30460CF065FE2B46DA
:1035F00022460CF015FD0DF05FF940F6FE7398427F
:103600000646E1DD8E4F864880233B600AF038FC99
:1036100088498348FCF7BCFF01218148FCF7DBFFA8
:103620007F488849FCF7CDFF0026B2B201218348CC
:1036300007F022F931467A48FCF7AEFF7C4978481A
:10364000FCF7A6FF322009F06BFE30460CF034FE8A
:103650002B4622460CF0E4FC0DF02EF940F6FE73EA
:1036600098420646E1DD20233B600123C8F8003084
:103670008023C8F800306A480AF002FC6D496848A7
:10368000FCF786FF00216648FCF7A5FF64486E49F9
:10369000FCF797FF0026B2B20021684807F0ECF86B
:1036A00031465F48FCF778FF61495D48FCF770FFE1
:1036B000322009F035FE30460CF0FEFD2B46224646
:1036C0000CF0AEFC0DF0F8F840F6FE73984206469A
:1036D000E1DD80233B6052480AF0D2FB5549504857
:1036E000FCF756FF01214E48FCF775FF4C4857493F
:1036F000FCF767FF0026B2B20121504807F0BCF882
:1037000031464748FCF748FF49494548FCF740FF28
:10371000322009F005FE30460CF0CEFD2B46224645
:103720000CF07EFC0DF0C8F840F6FE739842064699
:10373000E1DD012302263B603948C8F800600AF049
:103740009FFB3C493648FCF723FF31463448FCF7E1
:1037500042FF33483E49FCF734FF0026B2B2022153
:10376000364807F089F831462D48FCF715FF3049F7
:103770002B48FCF70DFF322009F0D2FD30460CF04B
:103780009BFD2B4622460CF04BFC0DF095F840F6C5
:10379000FE7398420646E1DD02263E602D4F20482A
:1037A00010233B600AF06CFB22491D48FCF7F0FE39
:1037B00031461B48FCF70FFF19482749FCF701FF6A
:1037C0000026B846B2B202211C4807F055F831462F
:1037D0001348FCF7E1FE16491148FCF7D9FE3220E8
:1037E00009F09EFD30460CF067FD2B4622460CF09A
:1037F00017FC0DF061F840F6FE7398420646E1DDD5
:10380000164F0748102301263B60C8F800600AF0F5
:1038100037FB08490248FCF7BBFE314620E000BFF9
:10382000FC9EFF1F8A340100209FFF1FC4F00F4041
:103830000D3E010098340100A73401007897FF1F66
:10384000C8F00F40C8340100EA3401000B35010014
:103850002D35010084F00F404135010088F00F4004
:103860006A48FCF7B8FE69486949FCF7AAFE0026D9
:10387000B2B20321674806F0FFFF31466348FCF708
:103880008BFE65496148FCF783FE322009F048FD54
:1038900030460CF011FD2B4622460CF0C1FB0DF01A
:1038A0000BF840F6FE7398420646E1DD5B4B574845
:1038B00001263E601E600AF0E3FA59495348FCF7BE
:1038C00067FE31465148FCF786FE50485549FCF7E3
:1038D00078FE0026B2B203214E4806F0CDFF3146F5
:1038E0004A48FCF759FE4C494848FCF751FE322043
:1038F00009F016FD30460CF0DFFC2B4622460CF09A
:103900008FFB0CF0D9FF40F6FE7398420646E1DDCE
:10391000454B3E4801261E604023C8F800300AF09F
:10392000AFFA3F493948FCF733FE31463748FCF7D8
:1039300052FE36483D49FCF744FE0026B2B2032150
:10394000344806F099FF31463048FCF725FE3249ED
:103950002E48FCF71DFE322009F0E2FC30460CF048
:10396000ABFC2B4622460CF05BFB0CF0A5FF40F6AF
:10397000FE7398420646E1DD40233B608023C8F891
:10398000003022480AF07CFA25492048FCF700FE66
:1039900001211E48FCF71FFE1C482549FCF711FEBB
:1039A0000026B2B203211B4806F066FF31461748D5
:1039B000FCF7F2FD18491548FCF7EAFD322009F042
:1039C000AFFC30460CF078FC2B4622460CF028FB6E
:1039D0000CF072FF40F6FE7398420646E1DD80234C
:1039E0003B60FFF798FD13490848FCF7EAFD1249D0
:1039F0000648FCF7E6FD0F491048FCF7E2FD0E49CA
:103A00000E48FCF7DEFD02B0BDE8F081FC9EFF1F12
:103A1000553501007897FF1F0D3E010044F00F401F
:103A2000983401006735010048F00F4079350100F6
:103A30008B350100702F0100A6340100209FFF1F6D
:103A400070B58EB008F0CAFE061E24DD642009F0B1
:103A500067FC002401AD665508F0C0FE0134262C39
:103A60000646F7D1124E0024284631688DF82A40C8
:103A700025220DF017FCC0B10E490F48FCF788FD58
:103A800031680D48FCF79DFD0C490B48FCF780FDA3
:103A90000948294605E00A490748FCF792FD06480F
:103AA0000849FCF78EFD002000E001200EB070BD3B
:103AB000E889FF1F9D350100FC9EFF1FC0350100F6
:103AC000E33501001936010030B54949494885B050
:103AD000FCF75EFD46494848FCF75AFD002268465F
:103AE0004EF66021FDF75CF94EF66020FDF7FAF91D
:103AF00004460D460D20012109F0F4FA294620461E
:103B00000CF0DAFE430803F1376303F5D833B3FB57
:103B1000F0F008F087FC01210D2009F0B5FA4FF410
:103B20007A7009F0FDFB35493348FCF731FD4FF45D
:103B30007A7009F0F5FB32492F48FCF729FD4FF464
:103B40007A7009F0EDFB2F492A48FCF721FD40F27D
:103B5000D2412848FCF73FFD2B492748FCF718FDC8
:103B600040F2D2412448FCF717FD4FF47A7009F077
:103B7000D7FB26491F48FCF70BFD69461D48FCF79B
:103B800016FD23491C48FCF703FD69461A480AF054
:103B900056F94FF47A7009F0C3FB1E491548FCF73B
:103BA00010FD1D491448FCF7F3FC4FF47A7009F03E
:103BB000B7FBFFF745FF18B10E481849FCF701FDA8
:103BC0000D20002109F060FA15490A48FCF7F9FCBC
:103BD00013490948FCF7F5FC06480AF051F9064874
:103BE0000AF04EF968460AF0A1FB05B030BD00BFEF
:103BF00041360100FC9EFF1F209FFF1F5036010031
:103C0000533601005E3601006D3601007436010046
:103C1000833601008B360100A0360100A936010071
:103C2000702F010014282DE9F843074688461646F0
:103C3000994601D0022849D13146774806F095FBD4
:103C400000283146744803DD06F08FFB734B9CE07F
:103C500006F08BFB002802DB0020BDE8F883B8F1FA
:103C6000000FF9DD484600210DF088F90028F3D057
:103C70003146694806F079FBC0430CF01DFB024653
:103C80000B4600204FF080410BF096F80446484662
:103C90000D460DF07DF901463846FDF77FF908FB2A
:103CA00000F00CF009FB02460B46204629460CF0BA
:103CB00069FB5B4B00220CF08FFC0CF0FDFD574BB9
:103CC000B0F5006FA8BF4FF400609DE0A0F10B03BA
:103CD000012B03D9A0F10F03012B46D831465148DF
:103CE00006F043FB002831464E4803DD06F03DFB5D
:103CF0004D4B4AE006F039FB0028ADDAB8F1000F71
:103D0000AADD484600210DF039F90028A4D031463B
:103D1000444806F02AFBC0430CF0CEFA02460B469C
:103D200000204FF080410BF047F8044648460D460E
:103D30000DF02EF901463846FDF730F908FB00F08A
:103D40000CF0BAFA02460B46204629460CF01AFB44
:103D5000334B00220CF040FC0CF0AEFD324BB0F5C2
:103D6000006FA8BF4FF400604EE020F004030A2B60
:103D70007FF472AF11462D4806F0F7FA002831465D
:103D80002A4804DD06F0F1FA294B186040E006F0FD
:103D9000ECFA0028BFF660AFB8F1000F7FF75CAF18
:103DA000484600210DF0EAF800283FF455AF3146AF
:103DB0001E4806F0DAFAC0430CF07EFA02460B46C3
:103DC00000204FF080410AF0F7FF044648460D46B8
:103DD0000DF0DEF801463846FDF7E0F808FB00F08C
:103DE0000CF06AFA02460B46204629460CF0CAFA45
:103DF0000B4B00220CF0F0FB0CF05EFD0C4BB0F511
:103E0000006FA8BF4FF4006018600A4B43F826000B
:103E10000120BDE8F88300BFF48BFF1FD48BFF1F88
:103E200000005940588CFF1FE094FF1F4C97FF1F64
:103E30001894FF1F0095FF1F2DE9D8411428044650
:103E40000E461F46069A01D0022817D1002A12DC1E
:103E5000002E53DD384600210DF090F8002851D097
:103E600038460DF095F801462046FDF797F8642393
:103E7000704390FBF3F2244800212EE0A0F10B03E5
:103E8000012B0BD9A0F10F08B8F1010F8CBF4FF037
:103E900000084FF00108B8F1000F16D0002A11DC1D
:103EA000002E2BDD384600210DF068F850B338465F
:103EB0000DF06EF801462046FDF770F8642370435C
:103EC00090FBF3F21048032107E020F004040A2CD1
:103ED00014D1002A03DD0C48022192B209E0002926
:103EE0000FDD384600210DF049F858B1064802218F
:103EF000424606F0C1FC0120BDE8D8810020BDE8A3
:103F0000D8814046BDE8D8817897FF1F10B5074C8F
:103F10000520214609F040F82146032009F03CF82D
:103F200019200349BDE8104009F036B8001B374896
:103F3000D723F4432DE9F74F07460E4691469A469C
:103F40004C014FF480750820002109F09DF81CB148
:103F50002346013B7FF4FDAF0820012109F094F8CE
:103F60001CB12346013B7FF4FDAF013DEBD108209E
:103F7000294609F089F81CB12346013B7FF4FDAFC7
:103F80000820012109F080F80720002109F07CF8C1
:103F90001CB12346013B7FF4FDAF0820002109F04E
:103FA00073F81CB12346013B7FF4FDAF08200121CB
:103FB00009F06AF80720012109F066F81CB12346D0
:103FC000013B7FF4FDAF4FF47A735F43F30097FB3F
:103FD000F3F70025BD424FF008004FF0000147DA2B
:103FE00009F052F81CB12346013B7FF4FDAF0820D5
:103FF000012109F049F81CB12346013B7FF4FDAFD4
:104000000820002109F040F81CB12346013B7FF451
:10401000FDAF0820012109F037F81CB12346013B10
:104020007FF4FDAF0820002109F02EF81CB12346D3
:10403000013B7FF4FDAF0820012109F025F81CB1F8
:104040002346013B7FF4FDAF0820002109F01CF856
:104050001CB12346013B7FF4FDAF0820012109F08C
:1040600013F81CB12346013B7FF4FDAF0135B1E7E6
:1040700009F00AF81CB12346013B7FF4FDAF08208C
:10408000012109F001F80720002108F0FDFF1CB113
:104090002346013B7FF4FDAF0820002108F0F4FF28
:1040A0001CB12346013B7FF4FDAF0820012108F03D
:1040B000EBFF0720012108F0E7FF1CB12346013B7D
:1040C0007FF4FDAF494D0023C9EB060B2B604FEA8F
:1040D0004B1B4FF480780820002108F0D5FF1CB15D
:1040E0002346013B7FF4FDAF0820012108F0CCFFFF
:1040F0001CB12346013B7FF4FDAF0820002108F0EE
:10410000C3FF3B4FBAF1000F11D12B68019322205E
:1041100009F084FA019B374A27F813002B6852F8FC
:10412000231037F81300014442F8231008E022203E
:1041300009F074FA2B6837F81320104427F813009D
:104140002B684E4503F101032B6006DDBBF1000F28
:1041500003D05B46013B7FF4FDAF0820012108F04E
:1041600093FF1CB12346013B7FF4FDAF08200021E3
:1041700008F08AFF1CB12346013B7FF4FDAF082005
:10418000012108F081FF1CB12346013B7FF4FDAF04
:104190000820002108F078FF1CB12346013B7FF482
:1041A000FDAF0820012108F06FFF1CB12346013B41
:1041B0007FF4FDAFB8F101088DD14FF48075082070
:1041C000002108F061FF1CB12346013B7FF4FDAFE5
:1041D0000820012108F058FF1CB12346013B7FF461
:1041E000FDAF013DEBD103B0BDE8F08F648CFF1F44
:1041F000E897FF1FDC8CFF1F38B515491548164D91
:10420000FCF7C6F915481249FCF7C2F90024698881
:104210001048FCF7C1F9114835F8021FFCF7BCF94A
:10422000FF2C07D02C210B48FCF7ADF90B482C21B3
:10423000FCF7A9F90134B4F5807FE8D108490548B5
:10424000FCF7BFF906490548FCF7BBF938BD00BFCC
:10425000C0360100FC9EFF1FE697FF1F209FFF1F37
:10426000A93F010070B505460E460024601909F00B
:104270009DFA30550134042CF8D1204670BD70B53C
:1042800006460D460024A019295D013409F0A2FA62
:10429000042CF8D1204670BD73B505460191164631
:1042A000002428460CF05AFC074B0146E0580CF05D
:1042B0003DFE18B1A01901A9FFF7E1FF0434682CF5
:1042C000EFD102B070BD00BF7489FF1F73B5054602
:1042D00001911646002428460CF040FC074B01468D
:1042E000E0580CF023FE18B1A01901A9FFF7C7FF91
:1042F0000434682CEFD102B070BD00BF7489FF1F79
:1043000070B505460E460024601909F04FFA305585
:104310000134082CF8D1204670BDFFFFFFFFFFFFDE
:104320002DE9F041684E6949694D86B007466948F4
:10433000FCF72EF930680BF0D1FF022402460B4641
:1043400000946448FCF72EF963496248FCF739F998
:104350004FF0030861495F48FCF71AF958A3D3E905
:104360000023CDF800805B48FCF71CF95A495948F6
:10437000FCF727F95A495748FCF70AF928680BF067
:10438000ADFF009402460B465248FCF70BF9524928
:104390005048FCF716F94D495248FCF7F9F83068D7
:1043A0000BF09CFF009402460B464E48FCF7FAF8CF
:1043B00049494C48FCF705F948494A48FCF7E8F8F0
:1043C0003FA3D3E90023CDF800804648FCF7EAF884
:1043D00041494448FCF7F5F841494248FCF7D8F810
:1043E00028680BF07BFF009402460B463D48FCF723
:1043F000D9F839493B48FCF7E4F83B494FF4B4603D
:10440000FFF77EFF394902A809F0D0FF02A836491C
:1044100001222346FCF70CFE02A809F087FF012FBA
:1044200045D14EF66020FCF75DFD0CF08DFA306052
:104430000BF054FF009402460B462648FCF7D5F8D3
:1044400030680BF04BFF009402460B462548FCF702
:10445000CCF8306826490CF069FD40BB31460C2091
:10446000FFF70DFF4EF66020FCF73CFD0CF06CFAF8
:1044700028600BF033FF009402460B461548FCF70A
:10448000B4F828680BF02AFF009402460B46154842
:10449000FCF7ABF8286816490CF048FD044630B923
:1044A00014202946FFF7EBFE2046FFF739FF0120D5
:1044B00008F036FF06B0BDE8F08100BFAFF3008022
:1044C000000000C0F3FDDC3FDC97FF1FCD3601008C
:1044D000F094FF1FFC9EFF1F0D3E0100DB36010024
:1044E000EF360100209FFF1F6C89FF1F033701007B
:1044F000000080BFAFF3008070B506460D46002473
:10450000A019295D09F066F9013441F210539C426B
:10451000F6D1204670BD00B5ADF5A85D85B010B9E7
:10452000FCF70EF809E00021684641F210520CF049
:10453000D7FD3C206946FFF7DFFF0DF5A85D05B00C
:104540005DF804FB70B505460E460024601909F0BD
:104550002DF930550134682CF8D1204670BD70B566
:1045600005460E460024601909F020F93055013443
:104570000C2CF8D1204670BD1FB50446CC49002054
:10458000FFF770FECB490420FFF76CFECA490820F4
:10459000FFF768FEC9490C20FFF764FEC8491420E4
:1045A000FFF760FEC7491820FFF75CFEC6491C20D4
:1045B000FFF758FEC5492020FFF754FEC4492420C8
:1045C000FFF750FEC3492820FFF79AFEC2493C205E
:1045D000FFF7B8FFC149B420FFF7B4FFC0494FF45B
:1045E0009670FFF7AFFFBF494FF4D270FFF7AAFFF5
:1045F000BD494FF40770FFF7A5FFBC494FF4257084
:10460000FFF7A0FFBA494FF45C70FFF79BFFB94971
:104610004FF47A70FFF796FFB7494FF48C60FFF7BD
:1046200091FFB6494FF49B60FFF78CFFB4494FF4FC
:10463000AA60FFF765FEB3494FF4AB60FFF760FE79
:10464000B1494FF4AC60FFF75BFEB0494FF4AD6089
:10465000FFF756FEAE494FF4AE60FFF751FEAD498D
:104660004FF4AF60FFF74CFEAB494FF4B060FFF77B
:1046700047FEAA494FF4B160FFF742FEA8494FF444
:10468000B260FFF73DFEA7494FF4B360FFF738FE75
:10469000A5494FF4B460FFF733FEA4494FF4B56069
:1046A000FFF72EFEA2494FF4B660FFF729FEA1499D
:1046B0004FF4B760FFF724FE9F494FF4DC60FFF72B
:1046C0001FFE9E494FF4B860FFF71AFE9C494FF455
:1046D000B960FFF715FE9B494FF4BA60FFF710FE73
:1046E00099494FF4BB60FFF70BFE98494FF4BC604B
:1046F000FFF706FE96494FF4BD60FFF701FE9549AE
:104700004FF4BE60FFF7FCFD93494FF4BF60FFF725
:10471000F7FD92494FF4C060FFF7F2FD90494FF466
:10472000C160FFF7EDFD8F494FF4C260FFF7E8FD70
:104730008D494FF4C360FFF7E3FD8C494FF4C4602B
:10474000FFF7DEFD8A494FF4C560FFF7D9FD8949BF
:104750004FF4C660FFF7D4FD87494FF4C760FFF7F9
:10476000CFFD86494FF4C860FFF7CAFD84494FF476
:10477000C960FFF7C5FD83494FF4CA60FFF7C0FD6C
:1047800081494FF4CB60FFF7BBFD80494FF4CC600B
:10479000FFF7B6FD7E494FF4CD60FFF7B1FD7D49CF
:1047A0004FF4CE60FFF7ACFD7B494FF4CF60FFF7CD
:1047B000A7FD7A494FF4D060FFF7A2FD78494FF486
:1047C000D160FFF79DFD77494FF4D260FFF798FD68
:1047D00075494FF4D360FFF793FD74494FF4D460EB
:1047E000FFF78EFD72494FF4D560FFF789FD7149DF
:1047F0004FF4D660FFF784FD6F494FF4D760FFF7A1
:10480000AEFE6E4940F2C460FFF7A9FE6C494FF45A
:10481000DA60FFF7A4FE6B4940F2DC60FFF79FFE11
:104820004FF4DD606849FFF79AFE012C40F0C38425
:1048300066496748FBF7ACFE64496648FBF7A8FE8B
:104840002046FCF703FD624809F01AFB614809F0B5
:1048500017FB2046FCF73CFA5F49684609F0A6FDC5
:1048600000225E496846FCF75BFC684609F05EFD85
:104870005B49684609F09AFD002217496846FCF733
:104880004FFC684609F052FD5649684609F08EFD16
:10489000002212496846FCF743FC684609F046FDD1
:1048A0005149684609F082FD00220D4968469DE0A5
:1048B000EC89FF1F6889FF1FF492FF1FDC97FF1F21
:1048C000F094FF1F688CFF1FE494FF1F6C8CFF1F88
:1048D000E894FF1F2C97FF1FB093FF1F7894FF1FD2
:1048E000688BFF1FA496FF1F748CFF1FDC90FF1FB7
:1048F0004C91FF1FBC91FF1F2492FF1F8C92FF1F42
:104900003497FF1F4097FF1F5094FF1F5894FF1FBD
:104910006094FF1FD88BFF1FE08BFF1FE88BFF1FEA
:104920007094FF1FF892FF1F6C89FF1F0093FF1FF9
:104930000893FF1F1093FF1F1893FF1F2093FF1F63
:104940002893FF1F3093FF1F3893FF1F4093FF1FD3
:104950003094FF1F3894FF1F4094FF1F4894FF1F9F
:104960009096FF1F9C96FF1F0C97FF1F1497FF1F29
:104970001C97FF1F6894FF1F6097FF1F6897FF1F1A
:104980007097FF1FB491FF1FAC97FF1FB497FF1FD5
:10499000BC97FF1FC497FF1FCC97FF1FD497FF1F23
:1049A0002497FF1F048CFF1F0C8CFF1F148CFF1F0C
:1049B0001C8CFF1F248CFF1F2C8CFF1F388CFF1FAB
:1049C000448CFF1F5497FF1F5C93FF1F7930010039
:1049D000FC9EFF1F209FFF1F0E3701007489FF1FE1
:1049E00017370100293701003A370100FCF798FB1F
:1049F000684609F09BFCB649684609F0D7FC0022DE
:104A0000B4496846FCF78CFB684609F08FFCB24954
:104A1000684609F0CBFC0022B0496846FCF780FBF1
:104A2000684609F083FCAE49684609F0BFFC0022E5
:104A3000AC496846FCF774FB684609F077FCAA4964
:104A4000684609F0B3FC0022A8496846FCF768FBF9
:104A5000684609F06BFCA649684609F0A7FC0022ED
:104A6000A4496846FCF75CFB684609F05FFCA24974
:104A7000684609F09BFC0022A0496846FCF750FB01
:104A8000684609F053FC9E49684609F08FFC0022F5
:104A90009C496846FCF744FB684609F047FC9A4984
:104AA000684609F083FC0022022398496846FCF717
:104AB000BFFA684609F03AFC9549684609F076FC69
:104AC0000022022393496846FCF7B2FA684609F0CF
:104AD0002DFC9149684609F069FC002202238F49A8
:104AE0006846FCF7A5FA684609F020FC8C49684640
:104AF00009F05CFC002202238A496846FCF798FA18
:104B0000684609F013FC8849684609F04FFC00220A
:104B1000022386496846FCF78BFA684609F006FCD2
:104B20008349684609F042FC002202238149684615
:104B3000FCF77EFA684609F0F9FB7F49684609F000
:104B400035FC002202237D496846FCF771FA68466D
:104B500009F0ECFB7A49684609F028FC00220223A0
:104B600078496846FCF764FA684609F0DFFB764945
:104B7000684609F01BFC0022022374496846FCF7D2
:104B800057FA684609F0D2FB7149684609F00EFCF5
:104B9000002202236F496846FCF74AFA684609F08A
:104BA000C5FB6D49684609F001FC002202236B49F0
:104BB0006846FCF73DFA684609F0B8FB6849684664
:104BC00009F0F4FB0022022366496846FCF730FA3C
:104BD000684609F0ABFB6449684609F0E7FB002230
:104BE000022362496846FCF723FA684609F09EFBF7
:104BF0005F49684609F0DAFB002202235D496846F6
:104C0000FCF716FA684609F091FB5B49684609F023
:104C1000CDFB0022022359496846FCF709FA684691
:104C200009F084FB5649684609F0C0FB00220223C4
:104C300054496846FCF7FCF9684609F077FB52498D
:104C4000684609F0B3FB0022022350496846FCF78E
:104C5000EFF9684609F06AFB4D49684609F0A6FB82
:104C6000002202234B496846FCF7E2F9684609F046
:104C70005DFB4949684609F099FB00220223474938
:104C80006846FCF7D5F9684609F050FB4449684688
:104C900009F08CFB0022022342496846FCF7C8F960
:104CA000684609F043FB4049684609F07FFB002253
:104CB00002233E496846FCF7BBF9684609F036FB1B
:104CC0003B49684609F072FB0022022372E000BFF4
:104CD00054370100A496FF1F6D370100748CFF1F2D
:104CE00088370100DC90FF1FA23701004C91FF1FA5
:104CF000B5370100BC91FF1FC83701002492FF1F88
:104D0000DB3701008C92FF1F7B3A01002C97FF1FBD
:104D1000883A01003497FF1F953A01004097FF1F22
:104D2000A23A01005094FF1FAF3A01005894FF1FB0
:104D3000BC3A01006094FF1FC93A0100D88BFF1FE5
:104D4000D63A0100E08BFF1FE33A0100E88BFF1F1A
:104D5000F03A01007094FF1FFD3A0100F892FF1F26
:104D60000B3B01000093FF1F193B01000893FF1F3D
:104D7000273B01001093FF1F353B01001893FF1FD5
:104D8000433B01002093FF1F513B01002893FF1F6D
:104D90005F3B01003093FF1F6D3B01003893FF1F05
:104DA0007B3B01004093FF1F893B01003094FF1FB4
:104DB000973B0100B7496846FCF73AF9684609F0A5
:104DC000B5FAB549684609F0F1FA00220223B34961
:104DD0006846FCF72DF9684609F0A8FAB04968461C
:104DE00009F0E4FA00220223AE496846FCF720F9F4
:104DF000684609F09BFAAC49684609F0D7FA0022E8
:104E00000223AA496846FCF713F9684609F08EFAAE
:104E1000A749684609F0CAFA00220223A549684654
:104E2000FCF706F9684609F081FAA349684609F0DB
:104E3000BDFA00220223A1496846FCF7F9F868464A
:104E400009F074FA9E49684609F0B0FA002202237C
:104E50009C496846FCF7ECF8684609F067FA9A49FD
:104E6000684609F0A3FA0022022398496846FCF735
:104E7000DFF8684609F05AFA9549684609F096FA4B
:104E80000022022393496846FCF7D2F8684609F0ED
:104E90004DFA9149684609F089FA002202238F49A8
:104EA0006846FCF7C5F8684609F040FA8C49684640
:104EB00009F07CFA002202238A496846FCF7B8F818
:104EC000684609F033FA8849684609F06FFA00220B
:104ED000022386496846FCF7ABF8684609F026FAD3
:104EE0008349684609F062FA002202238149684634
:104EF000FCF79EF8684609F019FA7F49684609F000
:104F000055FA002202237D496846FCF791F868466D
:104F100009F00CFA7A49684609F048FA002202239F
:104F200078496846FCF784F8684609F0FFF9764945
:104F3000684609F03BFA0022022374496846FCF7F0
:104F400077F8684609F0F2F97149684609F02EFAD7
:104F5000002202236F496846FCF76AF8684609F0A8
:104F6000E5F96D49684609F021FA002202236B49F0
:104F70006846FCF75DF8684609F0D8F96849684664
:104F800009F014FA0022022366496846FCF750F83B
:104F9000684609F0CBF96449684609F007FA00222F
:104FA000022362496846FCF743F8684609F0BEF9F7
:104FB0005F49684609F0FAF9002202235D49684614
:104FC000FCF736F8684609F0B1F95B49684609F024
:104FD000EDF90022022359496846FCF729F8684692
:104FE00009F0A4F95649684609F0E0F900220223C5
:104FF00054496846FCF71CF8684609F097F952498D
:10500000684609F0D3F90022022350496846FCF7AC
:105010000FF8684609F08AF94D49684609F0C6F963
:10502000002202234B496846FCF702F8684609F063
:105030007DF94949684609F0B9F900220323474937
:105040006846FBF7F5FF684609F070F94449684681
:1050500009F0ACF90022032342496846FBF7E8FF58
:10506000684609F063F94049684609F09FF9002253
:1050700003233E496846FBF7DBFF684609F056F913
:105080003B49684609F092F90022032339496846F2
:1050900072E000BF3894FF1FA53B01004094FF1F42
:1050A000B33B01004894FF1FC13B01009096FF1FD6
:1050B000CF3B01009C96FF1FDD3B01000C97FF1FBB
:1050C000EB3B01001497FF1FF93B01001C97FF1FEA
:1050D000073C01006894FF1F153C01006097FF1F0B
:1050E000233C01006897FF1F313C01007097FF1FB0
:1050F0003F3C0100B491FF1F4D3C0100AC97FF1FE6
:105100005B3C0100B497FF1F693C0100BC97FF1F87
:10511000773C0100C497FF1F853C0100CC97FF1F1F
:10512000933C0100D497FF1FA13C01002497FF1F6F
:10513000AF3C0100048CFF1FBD3C01000C8CFF1F25
:10514000CB3C0100148CFF1FD93C01001C8CFF1FBD
:10515000E73C0100248CFF1FF53C01002C8CFF1F55
:10516000033D0100388CFF1F113D0100448CFF1FDF
:105170001F3D01005497FF1FFBF75AFF684609F0D7
:10518000D5F80E49684609F011F9002203230C49AD
:105190006846FBF74DFF684609F0C8F809496846BC
:1051A00009F004F96846084922460223FBF740FF4C
:1051B000684609F0BBF804B010BD00BF2D3D0100EA
:1051C0005C93FF1F033701006C89FF1F2DE9F04F2F
:1051D000B84BB94FB94D04221A6085B0064600217C
:1051E00040F6FF72B64805F047FB8024012140F6E7
:1051F000FF72B34805F040FB022140F6FF723C60AD
:10520000AF4805F039FB032140F6FF72AC4805F0CA
:1052100033FB2C60FEF77FF9622EA8462BD10020CD
:10522000FFF7AAF94EF66020FBF75CFE0022A54BC3
:1052300004460D460BF00EFB8146B8B9FEF76BF93C
:10524000294620460BF060FB494682B29C4805F097
:1052500013FB00232046294600220BF0FBFA2023F3
:1052600010B9C8F80030DDE73B60DBE7FEF753F923
:1052700020233B602DE0632E2BD10020FFF77CF92B
:105280004EF66020FBF72EFE0BF016FB8E49834690
:105290008E48FBF77DF98C498D48FBF779F90021A1
:1052A0000A46874805F0E8FA85480321002205F000
:1052B000E3FA4FF0000907F0FDFB0228854C5FFA86
:1052C0008BF500F31E8207F079FA022840F3218261
:1052D00017E24FF00009FEF71EF9642E01D1FEF728
:1052E0002BF9FEF718F9652E3AD17B497748FBF781
:1052F0004FF977487849FBF74BF907F0DBFB0228B9
:1053000000F3628107F05AFA022800F35D81012060
:10531000FBF73CFC0BF022FCFBF732FE81460AF067
:10532000DDFF4FF0020A04460D460B462246CDF83B
:1053300000A06648FBF736F922462B46CDF800A0C0
:105340006348FBF72FF965496048FBF721F963498A
:105350005F48FBF71DF94FF4FA6007F0E1FFCCE777
:10536000662E37D15E495948FBF712F958485C4917
:10537000FBF70EF907F09EFB022800F3258107F0EA
:105380001DFA022800F32081FDF738FF0BF0E2FB45
:1053900081460AF0A3FF4FF0020A044622460B465C
:1053A000CDF800A049480D46FBF7FCF84B494748AB
:1053B000FBF7EEF822462B46CDF800A04448FBF759
:1053C000F1F846494248FBF7E3F84FF4FA6007F07A
:1053D000A7FFCFE7672E35D142493C48FBF7D8F805
:1053E0003B484049FBF7D4F807F064FB022800F380
:1053F000EB8007F0E3F9022800F3E680FBF784F87E
:1054000081460AF06BFF4FF0020A044622460B4623
:10541000CDF800A02D480D46FBF7C4F82F492B48C6
:10542000FBF7B6F822462B46CDF800A02848FBF73C
:10543000B9F82A492648FBF7ABF84FF4FA6007F0B1
:105440006FFFD1E7682E51D127492048FBF7A0F81C
:105450001F482549FBF79CF807F02CFB022800F3B6
:10546000B38007F0ABF9022800F3AE80FBF730F809
:1054700081460AF033FF4FF0020A044622460B46EB
:10548000CDF800A011480D46FBF78CF813490F48E2
:10549000FBF77EF822462B46CDF800A00C48FBF720
:1054A00081F80E490A48FBF773F84FF4FA6007F0E9
:1054B00037FFD1E788F00F40C8F00F40C4F00F402D
:1054C0007897FF1F0000F0BFEE370100FC9EFF1F22
:1054D000209FFF1F30410100FE3701000D3E0100FB
:1054E000133801002238010033380100692E36D10B
:1054F00098499948FBF74CF898489649FBF748F8C3
:1055000007F0D8FA02285FDC07F058F902285BDCC4
:105510000020FBF73BFB0BF021FB81460AF0DEFE8F
:105520004FF0020A04460D460B462246CDF800A075
:105530008948FBF737F822462B46CDF800A087486C
:10554000FBF730F886498448FBF722F88449834802
:10555000FBF71EF84FF4FA6007F0E2FED0E76A2E80
:1055600034D180497D48FBF713F87B487D49FBF730
:105570000FF807F09FFA022826DC07F01FF902282F
:1055800022DCFDF769FF81460AF0A8FE4FF0020A0F
:1055900004460D460B462246CDF800A06E48FBF7A8
:1055A00001F822462B46CDF800A06C48FAF7FAFF26
:1055B0006B496948FAF7ECFF69496848FAF7E8FF70
:1055C000C82007F0ADFED4E7FDF7A5FF731E202B22
:1055D0003ED865496148FAF7DBFF5F486249FAF750
:1055E000D7FF4EF66020FBF77DFC0BF065F9421CFF
:1055F00007465E4D24D0BCB2FDF78DFF0021224648
:105600005B4805F039F901212246594805F034F983
:1056100002212246564805F02FF92246544803211C
:1056200005F02AF955F83620012382F8803055F824
:10563000362017B182F88030D3E782F80031D0E706
:10564000FDF769FF55F83630012283F8002132E07A
:10565000A6F12203032B2ED83F4808F011FC3F4847
:1056600008F00EFC4EF66020FBF73CFC0BF024F932
:10567000431C1ED0102340013B6002D001387FF450
:10568000FDAFF0B207F0CAFF10230446C8F800309F
:1056900021463148FAF780FF21463048FAF77CFF6F
:1056A0002F492D48FAF774FF2D492C48FAF770FF5F
:1056B000D2E7FDF730FF2F4B04221A6048460AF06C
:1056C0000DFE022604460D460B4622460096224851
:1056D000FAF768FF22462B4600962048FAF762FF49
:1056E00025491D48FAF76DFF23491C48FAF769FF61
:1056F000194808F0C5FB194805B0BDE8F04F08F09F
:10570000BFBBFDF708FF54F83530012283F80021B4
:10571000E1E554F83520012382F88030002003931E
:10572000FBF734FA0BF01AFAFBF72AFC81460BF070
:105730002FFC01465846FBF731FC002182464846C3
:105740000BF0F4FB039B0146C0B154F8352082F8FE
:1057500000311EE04A380100FC9EFF1F209FFF1F02
:105760000D3E010063380100803801003041010026
:105770007897FF1F84F00F409F2F01001FFA8AF4D3
:1057800022461C4805F078F81A480321224605F005
:1057900073F848460AF0A2FD04460D460221009126
:1057A00022462B4614480391FAF7FCFE0399009118
:1057B00022462B461148FAF7F5FE11490E48FAF732
:1057C000E7FE0F490D48FAF7E3FE51460A48FAF79B
:1057D000E3FE51460948FAF7DFFE09490648FAF7A1
:1057E000F0FE07490548FAF7ECFE4FF47A7007F02F
:1057F00097FD60E57897FF1FFC9EFF1F209FFF1F0E
:105800000D3E01002DE9F34780460120FEF7B4FE6E
:105810004EF66020FBF766FB0BF04EF8064631466D
:105820002B48FAF7D8FE2B483146FAF7D4FE731C02
:1058300047D04EF66020FBF755FB0BF085F881460C
:105840000AF04CFD062704460D460B4622460097FB
:105850001F48FAF7CAFE00971E4822462B46FAF761
:10586000C4FE48461C490BF061FB50BB4EF660205D
:10587000FBF738FB0BF068F882460AF02FFD044670
:105880000D460B46224600971148FAF7AEFE0097E8
:10589000104822462B46FAF7A8FE50460E490BF058
:1058A00045FB70B9304649464246FEF7F5FC3046A6
:1058B000514608F17802FEF709FD012007F030FD9E
:1058C000A6E7012002B0BDE8F047FEF755BE00BFD5
:1058D000FC9EFF1F209FFF1F000080BF2DE9F043AB
:1058E000012B85B007460C46154601D000265CE02A
:1058F0001846FEF741FE0026A64264DA4EF6602006
:10590000FBF7F0FA0BF020F803900AF0E7FC4FF0F9
:1059100006080DF1100902460B46CDF800802D480F
:10592000FAF740FE59F8040D0AF0D8FCCDF80080D3
:1059300002460B462848FAF735FE38464946FEF738
:105940009EFC01362F44D7E74EF66020FBF7CAFADB
:105950000AF0FAFF002180460BF010FB40BB4046E6
:1059600000210BF0EDFA58BBCDF80C8003980AF03B
:10597000B5FC4FF006080DF1100902460B46CDF8B4
:1059800000801448FAF70EFE59F8040D0AF0A6FC40
:10599000CDF8008002460B460F48FAF703FE384662
:1059A0004946FEF76CFC01362F44A642CCDB0DE0E5
:1059B00040460A490BF0C4FA0028D0D0084B00E05A
:1059C000084B0393D2E70120FEF7D6FD05B0BDE8F2
:1059D000F08300BFFC9EFF1F209FFF1F00409C45DF
:1059E0000060EA4720BCBE4CF7B50120FEF7C4FDBD
:1059F0004EF66020FBF776FA0AF0A6FF3B4F3C4ECE
:105A000038600AF06BFC022402460B4600943046D4
:105A1000FAF7C8FD3868374D0AF060FC009402467A
:105A20000B462846FAF7BEFD39461820FEF727FC3C
:105A30004EF66020FBF756FA0AF086FF2E4F3860CC
:105A40000AF04CFC009402460B463046FAF7AAFDD9
:105A500038680AF043FC009402460B462846FAF7E1
:105A6000A1FD39461C20FEF70AFC4EF66020FBF72C
:105A700039FA0AF069FF214F38600AF02FFC0094D0
:105A800002460B463046FAF78DFD38680AF026FCD0
:105A9000009402460B462846FAF784FD394620203A
:105AA000FEF7EDFB4EF66020FBF71CFA0AF04CFF08
:105AB000134F38600AF012FC009402460B46304641
:105AC000FAF770FD38680AF009FC009402460B46AC
:105AD0002846FAF767FD39462420FEF7D0FB01205F
