:1000000000800020BD0100009D8B00009D8B000042
:100010009D8B00009D8B00009D8B0000698B000074
:10002000698B0000698B0000698B00009D8B0000CC
:100030009D8B0000698B00009D8B0000598B000098
:100040009D8B00009D8B00009D8B00009D8B000010
:100050009D8B00009D8B00009D8B00009D8B000000
:100060009D8B00009D8B00009D8B00009D8B0000F0
:100070009D8B00009D8B00009D8B00009D8B0000E0
:100080009D8B00009D8B00009D8B00009D8B0000D0
:100090009D8B0000BD7800009D8B00009D8B0000B3
:1000A000DD6900009D8B00009D8B00009D8B000092
:1000B0009D8B00009D8B00009D8B00009D8B0000A0
:1000C0009D8B00009D8B00009D8B00009D8B000090
:1000D0009D8B00009D8B00009D8B00009D8B000080
:1000E0009D8B00009D8B00009D8B00009D8B000070
:1000F0009D8B0000119000009D8B000081A70000E7
:100100009D8B00006D7E00009D8B00009D8B00008C
:100110009D8B00009D8B00009D8B00009D8B00003F
:100120009D8B00009D8B00009D8B00009D8B00002F
:100130009D8B00009D8B00009D8B00009D8B00001F
:100140009D8B00009D8B00009D8B00009D8B00000F
:10015000759E00008D9E0000A59E0000BD9E0000C3
:100160009D8B0000B98000009D8B00009D8B0000DE
:100170009D8B00009D8B00009D8B00009D8B0000DF
:100180009D8B00009D8B00009D8B00009D8B0000CF
:100190009D8B00009D8B00009D8B00006D940000E6
:1001A000BD94000045950000019600008596000072
:1001B0009D8B00009D8B00009D8B0000544B4CF2EA
:1001C000205210B51A804DF628121A8000BF00BFC9
:1001D00007F0B8FB4F4B4FF010621A604E4A9A601E
:1001E0004E4ADA604E4B1A6812F4807204D14D49BF
:1001F0000A604FF4A8521A604B4B1A7802F00802BA
:10020000D2B21AB11A7842F008021A70474B484825
:10021000484C2A221A700023474A02E01959995083
:10022000043399188142F9D3444B454A002101E037
:1002300043F8041B9342FBD34249434800231A5816
:100240005A500433B3F5DE7FF9D1404B404A802148
:1002500003F8011B9342FBD13A4A3E4B1A603E4BD6
:100260000A221A703D4B24221A70A02203F8012C96
:100270003B4A137803F00203DBB2002BF9D0384A73
:10028000137803F01003DBB2002BF9D1344A137852
:1002900003F00C03082BFAD1324B03221A704022D0
:1002A0005A702F4A137803F02003DBB2002BF9D0E9
:1002B0002B4A137803F04003DBB2002BF9D02A4B12
:1002C0002A4A1A6002225A60294B20221A70244AB4
:1002D000137803F00C030C2BFAD1264A264B1A6034
:1002E000264B274A1A60072243F8042C62B609F00D
:1002F0009FFB0C4B1B68DC0702D5224809F0DAF99A
:100300000BF052FC08F04DFC09F091FEFEE700BF37
:100310000E20054030800440823F04000100002B85
:1003200010D0034014D0034002D0074000E0074043
:100330005090FF1F940401006089FF1F5090FF1F21
:10034000CC9CFF1F0084FF1F0000000000E400E0C1
:100350005FE400E008ED00E0005006400140064088
:10036000064006400440064044800440000003016B
:1003700000400640C01005000480044014E000E086
:10038000FF760100F4078B54FFFFFFFFFFFFFFFF25
:10039000FFFFFFFFFFFFFFFFFFFFFFFFFFFFFFFF6D
:1003A000FFFFFFFFFFFFFFFFFFFFFFFFFFFFFFFF5D
:1003B000FFFFFFFFFFFFFFFFFFFFFFFFFFFFFFFF4D
:1003C000FFFFFFFFFFFFFFFFFFFFFFFFFFFFFFFF3D
:1003D000FFFFFFFFFFFFFFFFFFFFFFFFFFFFFFFF2D
:1003E000FFFFFFFFFFFFFFFFFFFFFFFFFFFFFFFF1D
:1003F000FFFFFFFFFFFFFFFFFFFFFFFFFFFFFFFF0D
:10040000FFFFFFFFFFFFFFFFFFFFFFFFFEFFFFFFFD
:1004100008B549F25000074BC1F6FF701B1A062BB6
:1004200000D808BD40F20003C0F20003002BF8D052
:100430009847F6E75390FF1F08B549F2500049F27C
:100440005003C1F6FF70C1F6FF731B1A9B1003EB3C
:10045000D373591000D108BD40F20002C0F200026F
:10046000002AF8D09047F6E710B549F25004C1F6DB
:10047000FF74237873B9FFF7CBFF40F20003C0F29B
:1004800000032BB140F29440C0F20100AFF30080B2
:100490000123237010BD00BF08B540F20003C0F275
:1004A00000034BB140F2944049F25401C0F2010004
:1004B000C1F6FF71AFF3008049F25000C1F6FF7042
:1004C00003682BB140F20003C0F2000303B1984768
:1004D000BDE80840B0E700BF024B4FF400121A60BD
:1004E000704700BF80E100E010B5044609F080FDD0
:1004F000204610BD70B503460D46164607481946FE
:100500002A4606F0E7FC002404E0044806F04AF915
:1005100030550134E3B2AB42F7D370BDE095FF1F15
:10052000034670B509480D4619461646002406F0E4
:10053000D3FB03E0315D06F0F3F80134E3B2AB42E4
:100540000248F7D3BDE8704006F0DBBCE095FF1F22
:10055000064B10221A60064B1A78064B53F83220CD
:10056000012382F88030044A13607047C8F00F40BE
:10057000C895FF1F38FF0000F090FF1F054B1A7849
:10058000054B53F83220012382F80031034A1360EF
:10059000704700BFC895FF1F38FF00009C94FF1FE5
:1005A00038B50A480A4D05F043FD0A4B0446186861
:1005B0000BF03EF8014620460BF042F90146286850
:1005C0000AF082FF2860204638BD00BFD493FF1F89
:1005D0003892FF1F7889FF1F38B50A480A4D05F089
:1005E000C3FC0A4B044618680BF022F8014620466B
:1005F0000BF026F9014628680AF066FF28602046BD
:1006000038BD00BFD493FF1FCC95FF1F7889FF1F13
:1006100030B5ADF5B05D81B0684600214FF4B05201
:100620000BF0EAFE00246D4621462A5D05480134A0
:1006300005F02DFCB4F5B05FF6D10DF5017D0DF59B
:10064000A05D30BDD495FF1F38B5044608460D4661
:1006500008F05AFA236802465B6820462946984704
:1006600038BD08B5FFF7F0FF08BD09F0C1BD9DF822
:100670000010009109F0C8BD38B5044609F050FDDE
:100680000546204609F06EFD401938BD38B50446D0
:10069000FFF7DAFF0546204609F064FD281838BD4B
:1006A00038B5044609F0A4FD0546204609F05AFD78
:1006B000281838BD37B59DF818100091044609F088
:1006C000A3FD0546204609F04DFD28183EBD4068B3
:1006D00000B1C0687047FFFF0D4B70B540241C602F
:1006E000322009F08FF90B4B0B4D0C4E1C600C4C5B
:1006F00031462846FFF7CAFF31462046FFF7C6FFBE
:10070000284609F02FFD2046BDE8704009F02ABDBB
:10071000C4F00F40C8F00F40B89AFF1FB4F40000B7
:10072000C89AFF1F10B517491748184CFFF799FFD3
:1007300017481449FFF795FF236863B91549124814
:10074000FFF7A4FF12481349FFF7A0FF124B022244
:100750001A6001230DE0012B0CD110490A48FFF764
:1007600095FF0B480D49FFF791FF0D4B02221A60D0
:1007700000232360044809F0F5FC0548BDE810405B
:1007800009F0F0BCC7F40000B89AFF1FC095FF1F26
:10079000C89AFF1FC0F4000084F00F40DCF4000092
:1007A00088F00F402DE9F74F002140F6FF724D48C9
:1007B00005F0AAFF4C4A0423202413602246013A84
:1007C000FDD14A4A4A4F1360112008F061FD494BA0
:1007D000494E1C6005460A2009F014F9112008F062
:1007E00057FD83466E2009F00DF9112008F050FDE9
:1007F000424BDFF818911C60414C82462146384636
:10080000FFF72FFF21463046FFF72BFF28460AF05F
:100810000FFF3C490BF014F80AF0CAFA4FF0020837
:1008200004460D460B462246CDF800803846FFF7B9
:100830001EFF22462B46CDF800803046FFF717FFFB
:1008400049463846FFF70DFF49463046FFF709FF96
:1008500058460AF0EDFE2B490AF0F2FF0AF0A8FA1A
:1008600004460D460B462246CDF800803846FFF779
:10087000FEFE22462B46CDF800803046FFF7F7FEFD
:1008800049463846FFF7EDFE49463046FFF7E9FE98
:1008900050460AF0CDFE1B490AF0D2FF0AF088FA52
:1008A00004460B462246CDF8008038460D46FFF739
:1008B000DEFE2246144CCDF800802B463046FFF772
:1008C000D6FE21463846FFF7E1FE21463046FFF7C7
:1008D000DDFE384609F046FC304603B0BDE8F04F77
:1008E00009F040BCA492FF1F88F00F4084F00F4035
:1008F000B89AFF1FC4F00F40C89AFF1FC8F00F40FE
:10090000E2F4000000601345F3F4000020FC000056
:100910002DE9F34707460E460AA8002114469846DB
:100920000C9D05F090FC002840F3EA80754976485C
:10093000FFF797FE2946744809F0F2FB73497248A5
:10094000FFF78FFE6F497248FFF78BFE294670480C
:1009500009F0E6FB6D496E48FFF783FE2046002153
:100960000BF04EF8002840F0BA8020460AF020FA3A
:10097000022704460D460B46224600976248FFF7C1
:1009800076FE0097624822462B46FFF770FE3068DD
:1009900000210BF035F8002840F0AA805D495A4844
:1009A000FFF75FFE40460AF003FA044622460B4674
:1009B000009755480D46FFF75AFE56495448FFF731
:1009C00050FE009722462B465148FFF750FE8FE01D
:1009D00051494D48FFF745FE21460AA805F033FC72
:1009E0000146494809F004FC4A494748FFF739FEE7
:1009F00049494748FFF735FE21460AA805F023FC80
:100A00000146434809F0F4FB41484249FFF729FEFB
:100A100000254FE021460AA858F825A005F013FC50
:100A20000AF006FE014650464FEA85090AF0E8FF43
:100A300000283ED057F809000AF0BAF9022502460C
:100A40000B4600953048FFF712FE57F809000AF0F0
:100A5000AFF9009502460B462D48FFF708FE3068B7
:100A600000210AF0CDFFD8B92A492748FFF7F9FD40
:100A700056F809000AF09CF9009502460B462248F8
:100A8000FFF7F5FD23492248FFF7EBFD56F8090073
:100A90000AF08EF9009502460B461D48FFF7E7FD68
:100AA0001E491948FFF7DDFD1C491948FFF7D9FD1C
:100AB00002E001351A2DADD1012008F0A3FF0AA8EC
:100AC000FFF705FE0138844207D012490E48FFF7B0
:100AD000C8FD0F480F49FFF7C4FD013402E0DFF8FD
:100AE000448000240AA8FFF7F2FD8442FFF670AFAD
:100AF0000B490548FFF7B5FD05480949FFF7B1FD6A
:100B0000BDE8FC8763F70000B89AFF1FEEF4000011
:100B1000C89AFF1F20FC0000F1F400003BFD00001C
:100B20005AFD00008889FF1F10B52820002108F019
:100B300055FE28210A2200230A4809F021FB094812
:100B400009F010FB6424282008F0A2FB01460548A8
:100B5000FFF7A6FD4FF4FA6008F054FF013CF2D114
:100B600010BD00BFB89AFF1F012801D8FFF718BDBC
:100B70007047012801D8FFF72FBD704701282DE9E4
:100B8000F8438CBF002401240CB903283DD1204830
:100B900005F088FD05461E4805F07DFD80461C4891
:100BA00005F072FD07461A4805F067FD81464CB313
:100BB000184B194E1C68B5FBF4F00AF035FD0146E0
:100BC00030680AF081FC3060B8FBF4F00AF02CFDCC
:100BD000124E014630680AF077FC3060B7FBF4F043
:100BE0000AF022FD0E4E014630680AF06DFC3060BE
:100BF000B9FBF4F00AF018FD0A4E014630680AF01D
:100C000063FC30602846BDE8F883BDE8F88300BF88
:100C1000D893FF1F7889FF1FA894FF1FB494FF1F6C
:100C20000C94FF1F1C94FF1F2DE9F74F2A4DDFF88E
:100C3000B4B0DFF8B4A0294EDFF8B090DFF8B08090
:100C4000274C59462846FFF70CFDDAF800000AF059
:100C5000AFF8022702460B4600972846FFF707FD2C
:100C600031462846FFF7FDFC49462846FFF7F9FCC8
:100C7000D8F800000AF09CF8009702460B46284678
:100C8000FFF7F5FC59462046FFF7EBFCDAF80000C9
:100C90000AF08EF8009702460B462046FFF7E7FC65
:100CA00031462046FFF7DDFC49462046FFF7D9FCD8
:100CB000D8F800000AF07CF8009702460B46204660
:100CC000FFF7D5FC31462846FFF7CBFC20463146DE
:100CD000FFF7C7FCBDE8FE8FB89AFF1F20FC00009D
:100CE000C89AFF1FF6F40000F489FF1F05F5000005
:100CF000C495FF1F2DE9F0410D46ADF57E7D0446FC
:100D00002948DFF8B080164608F0F0FE294627484B
:100D100008F0ECFE4FF47A72002104A80BF06CFB93
:100D20002046002108F0D3FF214B1A680192019D53
:100D30001A680292029A1F460AE03B680393039ADC
:100D4000D8F80030521B9A4202DDFFF7C5FC05E0DF
:100D500007F00CFE10B908F003F9E8B107F006FE41
:100D6000002805DD07F0E4FD5B2818D00E4808E0F8
:100D700008F0F6F8002812DD08F018F95B280ED00C
:100D80000A482B2104AA4FF47A7308F0B1FE2046DA
:100D900004A908F0D4FF02E0012ED9D1CDE7204606
:100DA0000DF57E7DBDE8F081B89AFF1FC89AFF1F40
:100DB000B49AFF1F8089FF1FF0B5044691B0224806
:100DC000214608F093FE2148214608F08FFE20229C
:100DD000002108A80BF010FB04A8002108F077FF01
:100DE0001B4B1A680192019E1A680292029A1F46D2
:100DF00007F0BCFD10B908F0B3F8C0B108F0B0F8C6
:100E0000002801DD114804E007F0B0FD002815DDE1
:100E10000D4808AA20232B2108F06AFE08A904A87F
:100E200008F08DFF04980AF06DFE054606E03B6869
:100E30000393039B9B1BA342DADDDFE704A808F0C2
:100E400005FF284611B0F0BDB89AFF1FC89AFF1FD2
:100E5000B49AFF1F2DE9F041064690B02448314670
:100E600008F044FE2348314608F040FE20220021CD
:100E700008A80BF0C1FA04A8002108F028FF1E4BB7
:100E80001A680192019F1A680292029A984607F026
:100E90006DFD10B908F064F8C8B107F067FD0028CF
:100EA00001DD134804E008F05BF8002817DD114865
:100EB00008AA20232B2108F01BFE08A904A808F08B
:100EC0003EFF04980AF01AFE04460D4607E0D8F8E3
:100ED00000300393039BDB1BB342D8DDDDE704A89E
:100EE00008F0B4FE2046294610B0BDE8F08100BFEE
:100EF000B89AFF1FC89AFF1FB49AFF1F08B5064B88
:100F000019680AF0DFFA054B19680AF099FC0AF033
:100F1000A9FD0AF08DFB08BDC495FF1FF489FF1FD2
:100F20002DE9F0411D4D06468846002430460AF062
:100F30007FFB014655F824000AF062FD30B1184BE2
:100F400053F82450174B53F8244004E001341A2C72
:100F5000ECD1002425462046002101270AF050FD4F
:100F600000B10027FFB247B92846002101260AF048
:100F700047FD00B13E46F6B266B140460AF058FB66
:100F800021460AF09FFA29460AF05AFC0AF090FD21
:100F9000BDE8F0813046BDE8F08100BF8889FF1FC1
:100FA0003C92FF1FC094FF1F73B50D4604463349A2
:100FB00033481646FFF755FB2146314809F0B0F893
:100FC00030492F48FFF74DFB2C492F48FFF749FBCD
:100FD00021462D4809F0A4F82A492B48FFF741FB88
:100FE000286809F0E5FE022402460B4600942448D6
:100FF000FFF73DFB286809F0DBFE009402460B4634
:101000002148FFF734FB21491D48FFF72AFB1F4900
:101010001D48FFF726FB686809F0CAFE00940246E7
:101020000B461748FFF723FB686809F0C1FE0094E0
:1010300002460B461448FFF71AFB15491048FFF704
:1010400010FB11481249FFF70CFB012E0C4805D08C
:101050000E49FFF71BFB0C480C490CE00D49FFF74C
:1010600015FB0D490648FFF711FB0A490648FFF733
:101070000DFB05480849FFF709FB7CBD63F700003D
:10108000B89AFF1F2DFD0000C89AFF1F20FC00002A
:101090003BFD0000C5F40000BBF50000F7B50446B9
:1010A0000D462E482E491746FFF7DBFA21462B48FE
:1010B00009F036F82B492948FFF7D3FA28492A487E
:1010C000FFF7CFFA2146284809F02AF82648254993
:1010D000FFF7C7FA00240226286809F069FE009687
:1010E00002460B461D48FFF7C2FA55F8040B09F0FB
:1010F0005FFE009602460B461B48FFF7B8FA192C14
:1011000007D01A491548FFF7ACFA17481749FFF7F7
:10111000A8FA01341A2CDFD115491048FFF7A1FABB
:1011200011481349FFF79DFA012F0C4805D00F49CC
:10113000FFF7ACFA0C480D490CE00E49FFF7A6FA90
:101140000D490648FFF7A2FA0A490748FFF79EFA39
:1011500005480949FFF79AFAFEBD00BFB89AFF1F7C
:1011600063F700002DFD0000C89AFF1F20FC00005F
:101170003BFD0000C5F40000BBF5000010B50AF00F
:1011800057FA0B4B196804460AF0A6FA094B19687E
:101190000AF09AF9084B1860084B204619680AF0C3
:1011A0009BFA074B19680AF08FF9064B186010BDBF
:1011B000F493FF1FF490FF1FA094FF1FF893FF1FED
:1011C0005095FF1FA494FF1F2DE9F743054638B93A
:1011D00053495448FFF745FA53485149FFF741FA3C
:1011E000DFF8689151494F48DFF86481504F514E04
:1011F000FFF737FAD9F8000009F0DAFD02240246B9
:101200000B4600944748FFF732FA4B494548FFF731
:1012100028FA4A494348FFF724FAD8F8000009F0B1
:10122000C7FD009402460B463E48FFF720FA4249AC
:101230003C48FFF716FA42493A48FFF712FA386875
:1012400009F0B6FD009402460B463648FFF70FFA48
:1012500039493448FFF705FA3A493248FFF701FAAD
:10126000306809F0A5FD009402460B462D48FFF7B3
:10127000FEF92E492C48FFF7F4F9D9F8000009F0DF
:1012800097FD009402460B462748FFF7F0F92A49DC
:101290002548FFF7E6F929492348FFF7E2F9D8F88E
:1012A000000009F085FD009402460B461E48FFF73A
:1012B000DEF921491C48FFF7D4F921491A48FFF704
:1012C000D0F9386809F074FD009402460B461648C0
:1012D000FFF7CDF918491448FFF7C3F91949124827
:1012E000FFF7BFF9306809F063FD009402460B4632
:1012F0000D48FFF7BCF9012D0A4807D10E49FFF749
:10130000B0F90D490848FFF7ACF906E00E49FFF7C0
:10131000BDF905480C49FFF7B9F9BDE8FE8300BFE8
:101320001AF50000B89AFF1FC89AFF1F1CF50000AD
:10133000F893FF1F5095FF1F20FC000028F50000C8
:1013400039F5000045F50000C5F40000F493FF1FD7
:10135000F490FF1F7FB5244B1A680192019D1A6813
:1013600002920C46029A1E461DE007211F4806F015
:101370000FFD322008F046FB33680393039B5B1B91
:10138000A34210DD1A491B48FFF76BF918491A48A8
:10139000FFF767F919491748FFF763F91749164826
:1013A000FFF75FF914E006F01BFD0028DDD00FE029
:1013B00001340A2C09DD01E006F020FD06F010FDE5
:1013C0000028F9D100240E4D07E0322008F01AFB66
:1013D00006F006FD0628EBDDF4E706F00FFD2855C4
:1013E0000134072CF9D17FBDB49AFF1F6889FF1F14
:1013F00056F50000B89AFF1FC89AFF1F20FC000096
:101400003095FF1F08B5C278007900EB02200AF082
:101410000BF9034B19680AF05FF90AF049FB08BDA4
:101420007089FF1F38B54FF4FA610C480C4DFFF777
:1014300091FF0C48FFF7E6FF0446642008F0E2FA4B
:10144000094B1868B4FBF0F00AF0EEF80146286882
:101450000AF03AF82860204638BD00BF6889FF1FAF
:10146000BC93FF1F3095FF1F7889FF1F012801D80B
:10147000FFF7D8BF7047FFFF2DE9F74F7C4E30468E
:1014800004F04AFD09F082FC044630460D4604F0A3
:101490003DFD09F07BFC62A3D3E9002309F0DCFCED
:1014A0000022744B09F002FE0022724B09F0FEFD8F
:1014B000002206460F46204629466F4B09F0CCFC19
:1014C00059A3D3E9002309F015FB59A3D3E900235D
:1014D00082468B4609F00CFB57A3D3E90023044650
:1014E0000D4609F0B9FC0022644B09F003FB54A33C
:1014F000D3E90023804689462046294609F0ACFC02
:1015000022462B4609F0A8FC02460B4640464946B7
:1015100009F0F0FA5A4B80461868894609F048FCF1
:1015200002460B464046494609F096FC46A3D3E9DD
:10153000002309F0BBFD0022CDE900014D4B3046F0
:10154000394609F0B3FD42A3D3E90023804689461A
:101550002046294609F080FC3FA3D3E9002309F087
:10156000C7FA3FA3D3E9002306460F462046294683
:1015700009F072FC22462B4609F06EFC02460B462F
:101580003046394609F0B6FA02460B46404649460F
:1015900009F0AEFA524604460D465B46504659469F
:1015A00009F05AFC52465B4609F056FC52465B462F
:1015B00009F052FC2CA3D3E9002306460F4620462F
:1015C000294609F049FC22462B4609F045FC024613
:1015D0000B462046294609F08DFA1BA3D3E90023C8
:1015E00004460D46DDE9000109F060FD02460B46A8
:1015F0002046294609F05AFD02460B463046394638
:1016000009F078FA09F02AF909F028F906A3D3E9D4
:10161000002309F06DFA03B0BDE8F08FAFF300804E
:1016200000000000008863406666666666127140CE
:101630006666666666A2724079E9263108AC5C3F50
:10164000E446D3D15898F1BE00000000D0126341A7
:10165000E43C73414320A3BE4DB1B49D00D4FE3E93
:1016600075466524BDE2333ECDCCCCCCCCCC2A40F3
:10167000B094FF1F00408F400000A03F0000F03FEB
:101680007489FF1FAFF3008070B5FFF7F5FE09F016
:10169000C5FE04461E4804F047FC4FF47A6008F08B
:1016A000B1F920461B4901260AF0D2F900B90026FB
:1016B000F6B24EB92046184901250AF0ABF900B937
:1016C000354615F0FF0F13D0144B154C154916482D
:1016D0001C60FEF7C6FF13491448FEF7C2FF144909
:1016E0001148FEF7BEFF12491048FEF7BAFF0DE0A1
:1016F000104B0A4D186809F09BFF014620460AF07E
:101700009FF80146286809F0DFFE2860204670BD7A
:10171000B094FF1F00007A44000070C21894FF1FAD
:101720000000C6C274F50000B89AFF1FC89AFF1FD8
:1017300020FC00007889FF1F012801D8FFF7A4BF13
:10174000704708B501E007F0CBF807F00FF9002863
:10175000F9DC01E007F012FC07F002FC0028F9DCDC
:1017600008BDFFFFF7B54EF66020FFF773FB044698
:101770000D46B648B649FEF774FFB549B548FEF7C1
:1017800070FF204629460022002309F0CDFD0028E5
:1017900040F03D820226009622462B46AB48FEF7DB
:1017A00066FF22462B460096AA48FEF760FFAA492C
:1017B000A648FEF756FFA849A648FEF752FF07F0D5
:1017C0008FF807F08DF8A54BA04820221A608022E0
:1017D0001A6008F0C7FCA2499C48FEF742FF0021AE
:1017E0009A48FEF75DFF99489E49FEF74FFF002695
:1017F00040F6FE77B2B200219B4804F085FF3146E7
:101800009248FEF732FF94499048FEF72AFF3220B3
:1018100008F0F8F8304609F0B9FA22462B4609F0EC
:1018200069F909F0B3FDB8420646E3DD8F4B8748FE
:1018300080221A6008F096FC89498448FEF711FF5F
:1018400001218248FEF72CFF80488949FEF71EFFE0
:10185000002640F6FE77B2B20121834804F054FF1F
:1018600031467A48FEF701FF7B497848FEF7F9FEDA
:10187000322008F0C7F8304609F088FA22462B4695
:1018800009F038F909F082FDB8420646E3DD774BEE
:101890006E4820221A60012243F8042C802243F86B
:1018A000042C08F05FFC6E496848FEF7DAFE002160
:1018B0006648FEF7F5FE65486E49FEF7E7FE00262E
:1018C00040F6FE77B2B20021674804F01DFF3146B2
:1018D0005E48FEF7CAFE60495C48FEF7C2FE322051
:1018E00008F090F8304609F051FA22462B4609F0EC
:1018F00001F909F04BFDB8420646E3DD5B4B534866
:1019000080221A6008F02EFC55495048FEF7A9FEC7
:1019100001214E48FEF7C4FE4C485749FEF7B6FE7B
:10192000002640F6FE77B2B201214F4804F0ECFEEB
:1019300031464648FEF799FE47494448FEF791FE76
:10194000322008F05FF8304609F020FA22462B4694
:1019500009F0D0F809F01AFDB8420646E3DD434B22
:101960003A48012202261A6043F8046C08F0FAFB98
:101970003B493648FEF775FE31463448FEF790FE87
:1019800032483E49FEF782FE002640F6FE77B2B2AC
:101990000221354804F0B8FE31462C48FEF765FEBA
:1019A0002D492A48FEF75DFE322008F02BF830461C
:1019B00009F0ECF922462B4609F09CF809F0E6FC08
:1019C000B8420646E3DD294B2048102202261E605D
:1019D00043F8442C08F0C6FB21491C48FEF741FEA1
:1019E00031461A48FEF75CFE18482549FEF74EFEC0
:1019F000002640F6FE77B2B202211B4804F084FEB6
:101A000031461248FEF731FE13491048FEF729FE11
:101A1000322007F0F7FF304609F0B8F922462B468E
:101A200009F068F809F0B2FCB8420646E3DD154B50
:101A30000648102201261A6043F8046C08F092FB55
:101A400007490248FEF70DFE31461DE0B89AFF1F18
:101A50009FF50000C89AFF1F20FC0000C4F00F4053
:101A6000ADF50000BCF50000A492FF1FC8F00F40C8
:101A7000DDF50000FFF5000020F6000042F6000052
:101A800056F6000088F00F406A48FEF709FE6948E4
:101A90006949FEF7FBFD002640F6FE77B2B203214E
:101AA000664804F031FE31466248FEF7DEFD6449C7
:101AB0006048FEF7D6FD322007F0A4FF304609F05B
:101AC00065F922462B4609F015F809F05FFCB8428B
:101AD0000646E3DD5B4B574801261E6043F8446C25
:101AE00008F040FB58495348FEF7BBFD31465148CA
:101AF000FEF7D6FD4F485549FEF7C8FD002640F6D3
:101B0000FE77B2B203214D4804F0FEFD314649484C
:101B1000FEF7ABFD4A494748FEF7A3FD322007F028
:101B200071FF304609F032F922462B4608F0E2FFF9
:101B300009F02CFCB8420646E3DD454B3D48402207
:101B400001261E60DA6308F00DFB3F493948FEF7B5
:101B500088FD31463748FEF7A3FD36483D49FEF77C
:101B600095FD002640F6FE77B2B20321334804F01B
:101B7000CBFD31462F48FEF778FD31492D48FEF761
:101B800070FD322007F03EFF304609F0FFF8224694
:101B90002B4608F0AFFF09F0F9FBB8420646E3DD3B
:101BA000284B244840221A60802243F8042C08F075
:101BB000D9FA25491F48FEF754FD01211D48FEF7BB
:101BC0006FFD1C482449FEF761FD002640F6FE77B4
:101BD000B2B20321194804F097FD31461548FEF7CB
:101BE00044FD17491348FEF73CFD322007F00AFF79
:101BF000304609F0CBF822462B4608F07BFF09F06F
:101C0000C5FBB8420646E3DD0E4B80221A60FFF7A3
:101C100098FD12490748FEF739FD11490548FEF7BE
:101C200035FD0E490F48FEF731FD0D490D48FEF711
:101C30002DFDFEBDB89AFF1F6AF60000A492FF1F9B
:101C400020FC000088F00F40ADF500007CF600009D
:101C500048F00F408EF60000A0F60000C4F400002B
:101C6000BBF50000C89AFF1F70B58EB007F086F96B
:101C7000061E24DD642007F0C5FE002401AD665574
:101C800007F07CF90134262C0646F7D1124E0024C9
:101C9000284631688DF82A4025220AF067FFC0B136
:101CA0000E490F48FEF7DDFC31680D48FEF7EEFCEB
:101CB0000C490B48FEF7D5FC0948294605E00A49BE
:101CC0000748FEF7E3FC06480849FEF7DFFC002062
:101CD00000E001200EB070BD8489FF1FB2F6000045
:101CE000B89AFF1FD5F60000F8F600002EF70000A6
:101CF00030B54949494885B0FEF7B3FC46494848E4
:101D0000FEF7AFFC002268464EF66021FEF7F2FFB8
:101D10004EF66020FFF79EF804460D460D20012187
:101D200007F05CFD2946204609F030FB430803F12B
:101D3000376303F5D833B3FBF0F006F099FF0121C8
:101D40000D2007F01FFD4FF47A7007F05BFE354958
:101D50003348FEF786FC4FF47A7007F053FE3249A1
:101D60002F48FEF77EFC4FF47A7007F04BFE2F49A8
:101D70002A48FEF776FC40F2D2412848FEF790FC54
:101D80002B492748FEF76DFC40F2D2412448FEF76C
:101D90006CFC4FF47A7007F035FE26491F48FEF7B9
:101DA00060FC69461D48FEF767FC23491C48FEF7A6
:101DB00058FC69461A4808F0B3F94FF47A7007F0F6
:101DC00021FE1E491548FEF761FC1D491448FEF727
:101DD00048FC4FF47A7007F015FEFFF745FF18B185
:101DE0000E481849FEF752FC0D20002107F0CAFCEE
:101DF00015490A48FEF74AFC13490948FEF746FC14
:101E0000064808F0AFF9064808F0ACF9684607F054
:101E10001DFF05B030BD00BF56F70000B89AFF1F88
:101E2000C89AFF1F65F7000068F7000073F700000D
:101E300082F7000089F7000098F70000A0F7000083
:101E4000B5F70000BEF70000C4F400002DE9F04132
:101E50001428884614461F46069E01D002281CD12D
:101E60002146324804F0EFF9002821462F4803DDCF
:101E700004F0E9F92E4B40E004F0E5F9002802DB1C
:101E80000020BDE8F081B8F1000FF9DD38460021EF
:101E900009F0DEFD00283FD1F2E7A0F10B03012B92
:101EA00003D9A0F10F03012B18D82146214804F0D3
:101EB000CAF9002821461F4803DD04F0C4F91E4B6F
:101EC0001BE004F0C0F90028DADAB8F1000FD7DD22
:101ED0003846002109F0BCFD00BBD1E720F0040525
:101EE0000A2DCDD11146154804F0ADF90028214640
:101EF000124804DD04F0A7F9114B186012E004F059
:101F0000A2F90028BCDAB8F1000FB9DD384600218B
:101F100009F09EFD20B9B3E7054B02E0064B00E057
:101F2000074B1E600120BDE8F08100BFF890FF1F45
:101F30001494FF1F0094FF1FE893FF1FEC93FF1FF3
:101F4000FC93FF1F70B50446142C1846049D059A97
:101F500001D0022C0ED1002A02DD204800212AE007
:101F6000002937DD002109F073FD002835D01B481A
:101F700000212AE0A4F10B03012B06D9A4F10F06DE
:101F8000012E8CBF002601266EB1002A02DD134807
:101F9000032110E000291DDD002109F059FDE0B109
:101FA0000E48032111E024F004040A2C12D1002A67
:101FB00003DD0A48022192B208E000290CDD00216D
:101FC00009F046FD48B105480221AAB204F09CFB85
:101FD000012070BD002070BD304670BDA492FF1F6F
:101FE00010B5084C0520214607F074FB032021465C
:101FF00007F070FB19204FF4F471BDE8104007F0B2
:1020000069BB00BF6CDC020070B506460D460024BB
:10201000A119044803F038FF28550134042CF7D1E6
:10202000204670BDD495FF1F70B506460D460024AE
:10203000A1192A5D0348013403F029FF042CF7D1CC
:10204000204670BDD495FF1F2DE9F341624E6349D0
:10205000634D07466348FEF704FB306808F0A8FEAE
:10206000022402460B4600945E48FEF700FB5E49E0
:102070005C48FEF70BFB4FF003085C495948FEF73C
:10208000F0FA53A3D3E90023CDF800805548FEF7BA
:10209000EEFA55495348FEF7F9FA55495148FEF70B
:1020A000E0FA286808F084FE009402460B464D488A
:1020B000FEF7DDFA4F494B48FEF7E8FA494808F0C9
:1020C00051F846494C48FEF7CCFA306808F070FEEB
:1020D000009402460B464848FEF7C9FA4249464872
:1020E000FEF7D4FA41494448FEF7BBFA38A3D3E9D6
:1020F0000023CDF800804048FEF7B9FA3A493E483F
:10210000FEF7C4FA3A493C48FEF7ABFA286808F0F3
:102110004FFE009402460B463748FEF7A8FA3549B1
:102120003548FEF7B3FA344808F01CF8012F44D1C3
:102130004EF66020FEF78EFE09F070F9306008F070
:1021400037FE009402460B462648FEF7B3FA306885
:1021500008F02EFE009402460B462748FEF7AAFA26
:102160003068264909F04CFC38BB31460C20FFF79B
:102170005BFF4EF66020FEF76DFE09F04FF9286018
:1021800008F016FE009402460B461648FEF792FA37
:10219000286808F00DFE009402460B461648FEF72C
:1021A00089FA2868154909F02BFC30B91420294612
:1021B000FFF73AFF0020FFF747FF012007F022FC5E
:1021C00002B0BDE8F041FFF7BCBA00BFAFF300803A
:1021D000BA490C022B87D63FD890FF1FD5F70000D5
:1021E0006C90FF1FB89AFF1F20FC0000E3F700006F
:1021F000F7F70000C5F40000C89AFF1F000080BF79
:102200002DE9F34102ADDFF8308045F8041D0646A4
:1022100017460024304609F00BFA014654F808002E
:1022200009F0EEFB18B1E0192946FFF7FDFE043472
:10223000682CEFD1BDE8FC818889FF1F2DE9F341AF
:1022400002ADDFF8308045F8041D0646174600242D
:10225000304609F0EDF9014654F8080009F0D0FBCA
:1022600018B1E0192946FFF7DFFE0434682CEFD1DE
:10227000BDE8FC818889FF1F30B540F2836085B0DE
:1022800006F0F6FC42F2107005F086FC4FF4FA708E
:10229000002407F0B7FB0723224621460094019350
:1022A0004548464D234604F081FB454841F28831BC
:1022B00004F00CFA4348444904F046F941484349C4
:1022C00004F012F921463F4804F007F93D4804F0B4
:1022D0009FF91D20012107F081FA0320214607F014
:1022E0007DFA0F20012107F079FA1020012107F073
:1022F00075FA0B20012107F071FA0C20012107F07B
:102300006DFA1420012107F069FA0220012107F07B
:1023100065FA0E20012107F061FA0A20012107F079
:102320005DFA0520012107F059FA294B80221A6035
:102330000620012107F052FA1520012107F04EFA7C
:102340001620012107F04AFA1120214607F046FA2B
:10235000204B40221A6002232B600D20012107F040
:102360003DFA2220214607F039FA2320214607F0C2
:1023700035FA03201849194C07F0ACF90520164925
:1023800007F0A8F91720012107F028FA04A904236F
:102390002B60002341F8083D1020FFF735FE02981E
:1023A000214609F02DFB28B904A9102041F8044D5D
:1023B000FFF73AFE05B030BDE095FF1F84F00F40F7
:1023C000A492FF1FD893FF1F0000484300002F4432
:1023D000C4F00F40C8F00F406CDC02005839B43E26
:1023E000F8B507460E46002441F21055E119325D5A
:1023F0000348013403F04BFDAC42F7D12046F8BD51
:10240000D495FF1F00B5ADF5A85D85B010B9FEF7F6
:10241000FFF809E00021684641F2105209F0ECFF94
:102420003C206946FFF7DCFF45B00DF5A05D00BD1F
:1024300070B506460D460024A119044803F024FD9A
:1024400028550134082CF7D1204670BDD495FF1FC4
:1024500070B506460D460024A119044803F014FD8A
:1024600028550134682CF7D1204670BDD495FF1F44
:102470001FB50446B5490020FFF7C6FD0420B44946
:10248000FFF7C2FD0820B349FFF7BEFD0C20B2499B
:10249000FFF7BAFD1420B149FFF7B6FD1820B04987
:1024A000FFF7B2FD1C20AF49FFF7AEFD2020AE497B
:1024B000FFF7AAFD2420AD49FFF7A6FD2820AC496F
:1024C000FFF7B6FF3C20AB49FFF7C2FFB420AA4993
:1024D000FFF7BEFFA9494FF49670FFF7B9FFA8496F
:1024E0004FF4D270FFF7B4FFA6494FF40770FFF71F
:1024F000AFFFA5494FF42570FFF7AAFFA3494FF49A
:102500005C70FFF7A5FFA2494FF47A70FFF7A0FFB8
:10251000A0494FF48C60FFF79BFF9F494FF49B60ED
:10252000FFF796FF9D494FF4AA60FFF781FF9C4992
:102530004FF4AB60FFF77CFF9A494FF4AC60FFF7B4
:1025400077FF99494FF4AD60FFF772FF97494FF459
:10255000AE60FFF76DFF4FF4AF609549FFF768FF7E
:10256000012C40F0538193499348FEF77AF8914942
:102570009248FEF776F82046FEF726FE8E4807F0D2
:10258000F1FD8E4807F0EEFD2046FEF74DFB8A4830
:1025900007F0E8FD894807F0E5FD8949684607F03E
:1025A00096FB002287496846FEF778FD684607F0EB
:1025B0004DFB8549684607F08AFB00226D49684655
:1025C000FEF76CFD684607F041FB8049684607F05E
:1025D0007EFB002268496846FEF760FD684607F00A
:1025E00035FB7B49684607F072FB00226349684669
:1025F000FEF754FD684607F029FB7649684607F068
:1026000066FB00225E496846FEF748FD684607F013
:102610001DFB7149684607F05AFB0022594968467C
:10262000FEF73CFD684607F011FB6C49684607F071
:102630004EFB002254496846FEF730FD684607F01D
:1026400005FB6749684607F042FB00224F49684690
:10265000FEF724FD684607F0F9FA6249684607F07C
:1026600036FB00224A496846FEF718FD684607F027
:10267000EDFA5D49684607F02AFB002245496846A5
:10268000FEF70CFD684607F0E1FA5849684607F086
:102690001EFB002240496846FEF700FD684607F031
:1026A000D5FA5349684607F012FB002230496846C4
:1026B000FEF77AFC684607F0C9FA4E49684607F00B
:1026C00006FB002235496846FEF76EFC684607F0B7
:1026D000BDFA4949684607F0FAFA002230496846CF
:1026E000FEF762FC684607F0B1FA4449684607F015
:1026F000EEFA00222B496846FEF756FC684607F0C2
:10270000A5FA3F49684607F0E2FA002226496846E2
:10271000FEF74AFC684607F099FA3A49684607F01E
:10272000D6FA002221496846FEF73EFC684607F0CB
:102730008DFA3549684607F0CAFA68461C492246B0
:10274000FEF732FC684607F081FA5FE07489FF1FEC
:10275000F489FF1FC495FF1FD890FF1F6C90FF1FC7
:10276000F493FF1FF490FF1FF893FF1F5095FF1F76
:10277000B894FF1F3C92FF1FC094FF1F2494FF1FBB
:102780007090FF1F5895FF1FD091FF1F0091FF1FF2
:102790006891FF1FD892FF1F4093FF1F8C94FF1F6B
:1027A0002895FF1F9494FF1F3895FF1F4095FF1F2A
:1027B0004895FF1F1AF50000B89AFF1FC89AFF1F1F
:1027C0000BF800008889FF1F14F8000026F80000AD
:1027D00037F8000051F800006AF8000085F80000A2
:1027E0009FF80000B2F80000C5F80000D8F800001B
:1027F00024FB000031FB00003EFB00004BFB00000F
:1028000058FB000065FB000072FB00001FBD00BF0D
:102810002DE9F34101204EF66028FFF729FE4046DE
:10282000FEF718FB08F0FAFD234F244E386008F03D
:10283000BFFA062402460B4600943046FDF717FF08
:1028400038681F4D08F0B4FA009402460B4628463B
:10285000FDF70DFF39460420FFF7E6FB4046FEF783
:10286000F9FA08F0DBFD174F386008F0A1FA009480
:1028700002460B463046FDF7FAFE386808F098FA33
:10288000009402460B46104C2846FDF7F0FE3946F0
:102890000820FFF7C9FB21463046FDF7F7FE214629
:1028A0002846FDF7F3FEFEF74CFF012002B0BDE81D
:1028B000F041FFF7DDBD00BFF489FF1FB89AFF1F8D
:1028C000C89AFF1FC495FF1FEBF800002DE9F341E4
:1028D0004EF660270120FFF7CBFD3846FEF7BAFA27
:1028E00008F09CFDDFF808813E4EC8F8000008F0B3
:1028F0005FFA022402460B4600943046FDF7B7FE0D
:10290000D8F80000384D08F053FA009402460B4600
:102910002846FDF7ACFE41461820FFF785FB3846F8
:10292000FEF798FA08F07AFDDFF8C880C8F80000D2
:1029300008F03EFA009402460B463046FDF797FE3B
:10294000D8F8000008F034FA009402460B462846F6
:10295000FDF78DFE41461C20FFF766FB3846FEF76B
:1029600079FA08F05BFDDFF89080C8F8000008F005
:102970001FFA009402460B463046FDF778FED8F861
:10298000000008F015FA009402460B462846FDF7B1
:102990006EFE41462020FFF747FB3846FEF75AFA05
:1029A00008F03CFD114F386008F002FA009402462E
:1029B0000B463046FDF75BFE386808F0F9F90094E5
:1029C00002460B462846FDF752FE24203946FFF703
:1029D0002BFBFEF7B6FE012002B0BDE8F041FFF789
:1029E00047BD00BFB89AFF1FC89AFF1F5095FF1F31
:1029F000F493FF1FF490FF1FF893FF1F7FB5064667
:102A00000120FFF735FD002406254EF66020FEF775
:102A100021FA08F003FD039008F0CAF90095024678
:102A20000B460C48FDF723FE039808F0C1F900950A
:102A300002460B460848FDF71AFEA01903A9043404
:102A4000FFF7F2FA082CE0D1FEF77BFE0120FFF73A
:102A50000FFD7FBDB89AFF1FC89AFF1F2DE9F347EE
:102A600080460120FFF704FD4EF66020FEF7F2F9E4
:102A700008F08CFC064631462C48FDF711FE2C4828
:102A80003146FDF70DFE731C47D04EF66020FEF771
:102A9000E1F908F0C3FC814608F08AF906270446EC
:102AA0000D460B46224600972048FDF703FE00978F
:102AB0001F4822462B46FDF7FDFD48461D4908F0FC
:102AC0009FFF50BB4EF66020FEF7C4F908F0A6FC4D
:102AD000824608F06DF904460D460B4622460097E3
:102AE0001248FDF7E7FD0097114822462B46FDF7F7
:102AF000E1FD50460F4908F083FF70B93046494662
:102B00004246FFF79BFB3046514608F17802FFF73B
:102B100077FB012006F076FFA6E7FEF712FE012004
:102B200002B0BDE8F047FFF7A3BC00BFB89AFF1F93
:102B3000C89AFF1F000080BF2DE9F04FAA4BAB4C95
:102B400004221A6085B00021064640F6FF72A848AC
:102B500003F0DAFD8025012140F6FF72A44803F05E
:102B6000D3FD022140F6FF722560A14803F0CCFDA1
:102B7000032140F6FF729E4803F0C6FD9D4B1D6089
:102B8000FEF7DFFD622E2CD10020FFF771FC2746F7
:102B90004EF66020FEF75EF90022974B04460D4684
:102BA00008F0C2FBB8B9FEF7CCFD2946204608F074
:102BB00015FC002182B28E4803F0A6FD00232046BA
:102BC0002946002208F0B0FB202310B9894A13607F
:102BD000DEE73B60DCE7FEF7B4FD844B20221A60A1
:102BE0006FE0632E6DD10020FFF742FC4EF66020AF
:102BF000FEF730F908F0CAFB8049DFF824A28046CE
:102C00007F48FDF72EFD7D497E48FDF72AFD002116
:102C10000A46774803F078FD75480321002203F047
:102C200073FD00275FFA88FB40E05AF83B3083F8D9
:102C300000410BE01FFA89F4002122466C4803F0A2
:102C400063FD6B480321224603F05EFD384608F021
:102C5000AFF804460D460221009122462B466848F3
:102C60000391FDF704FD03996648009122462B4627
:102C7000FDF7FDFC64496248FDF7F3FC62496148D9
:102C8000FDF7EFFC49465E48FDF7EFFC49465D481D
:102C9000FDF7EBFC5C495A48FDF7F8FC59485A49E6
:102CA000FDF7F4FC4FF47A7006F0ACFE05F05EFE22
:102CB000022800F3568106F053F9022840F35C81A4
:102CC0004FE10027FEF73DFD642E01D1FEF74AFDDE
:102CD000FEF737FD652E14D14C494948FDF7C1FC7C
:102CE00048484A49FDF7BDFC4FF0020805F03EFE9A
:102CF000022800F3478206F033F9022840F3588196
:102D000040E2662E14D142493D48FDF7AAFC3D48F9
:102D10003F49FDF7A6FC4FF0020805F027FE022808
:102D200000F3308206F01CF9022840F3688129E2A2
:102D3000672E14D137493248FDF793FC31483549A5
:102D4000FDF78FFC4FF0020805F010FE022800F39B
:102D5000198206F005F9022840F3758112E2682E07
:102D600014D12D492648FDF77CFC26482A49FDF759
:102D700078FC4FF0020805F0F9FD022800F302820A
:102D800006F0EEF8022840F38081FBE1692E14D1B1
:102D90001E491B48FDF765FC1A481C49FDF761FCFC
:102DA0004FF0020805F0E2FD022800F3EB8106F087
:102DB000D7F8022840F3A081E4E16A2E32D1174906
:102DC0001048FDF74EFC0E481449FDF74AFC4FF041
:102DD000020805F0CBFD022800F3D48106F0C0F80C
:102DE000022840F3AE81CDE188F00F40C8F00F40DB
:102DF000A492FF1FC4F00F400000F0BFEEF80000E7
:102E0000B89AFF1FC89AFF1F20FC0000FEF80000C0
:102E100013F9000022F9000033F900004AF900001C
:102E200038FF0000731E202B40D8A949A948DFF8BD
:102E3000B082FDF716FCA848A549FDF712FC4EF636
:102E40006020FEF707F808F0A1FA411C054624D0DF
:102E5000ACB2FEF776FC00212246A04803F054FCF9
:102E6000012122469D4803F04FFC022122469B4847
:102E700003F04AFC22469948032103F045FC58F828
:102E80003620012382F8803058F8362015B182F8B8
:102E90008030D4E782F80031D1E7FEF752FC904B46
:102EA00053F83630012283F8002134E0A6F12203E2
:102EB000032B30D8DFF83C828A4D874807F052F95F
:102EC000844807F04FF94EF66020FDF7C3FF08F085
:102ED0005DFA421C1DD010234001C8F8003001D01B
:102EE0000138FDD1F0B206F0D3F9102304462B606F
:102EF00021467948FDF7B9FB21467648FDF7B5FB39
:102F000079497548FDF7ADFB77497248FDF7A9FB94
:102F1000D3E7FEF716FC754B04221A60384607F01B
:102F200047FF022604460D460B46224600966A4895
:102F3000FDF79DFB22462B4600966648FDF797FB62
:102F40006B496548FDF7A2FB69496248FDF79EFBA6
:102F5000614807F007F95F4805B0BDE8F04F07F09A
:102F600001B9FEF7EEFB5FFA88F85D4B53F8383095
:102F7000012283F80021A5E65AF83B30012483F8AA
:102F800080402046FDF7FAFD08F052FBFDF7B6FF42
:102F9000074608F067FD01464046FDF7C1FF0021E6
:102FA0008146384608F02CFD00287FF43EAE41E60D
:102FB0000120FDF7E3FD08F03BFBFDF79FFF07460F
:102FC00007F0F6FE04460D460B462246CDF800807B
:102FD0004148FDF74CFB22462B46CDF800803D488A
:102FE000FDF745FB40493C48FDF73BFB3E4939486E
:102FF000FDF737FB4FF4FA6006F004FD76E6FEF7C6
:1030000011FA08F011FB074607F0D2FE04462246EB
:103010000B46CDF8008030480D46FDF728FB3249BD
:103020002D48FDF71EFB22462B46CDF8008029488F
:10303000FDF71DFB2C492748FDF713FB4FF4FA6001
:1030400006F0E0FC69E6FDF7C7FA074607F0B0FEB8
:10305000044622460B46CDF800801F480D46FDF77A
:1030600006FB21491C48FDF7FCFA22462B46CDF809
:1030700000801848FDF7FBFA1B491648FDF7F1FAE6
:103080004FF4FA6006F0BEFC5EE6FDF789FA0746EB
:1030900007F08EFE044622460B46CDF800800E480F
:1030A0000D46FDF7E4FA10490B48FDF7DAFA22461F
:1030B0002B46CDF800800748FDF7D9FA0A490548A4
:1030C000FDF7CFFA4FF4FA6006F09CFC53E600BF20
:1030D00067F90000C89AFF1FB89AFF1FA492FF1F4C
:1030E00038FF0000C4F00F4020FC000084F00F40C7
:1030F000F3F40000C8F00F400120FDF73FFD08F099
:1031000097FA074607F054FE04460D460B46224642
:10311000CDF800801D48FDF7AAFA22462B46CDF8CF
:1031200000801B48FDF7A3FA1A491848FDF799FAE1
:1031300018491748FDF795FA4FF4FA6006F062FC5B
:1031400030E6FEF7A1FA074607F032FE04460D46C8
:103150000B462246CDF800800C48FDF788FA22463F
:103160002B46CDF800800A48FDF781FA0949074847
:10317000FDF777FA07490648FDF773FAC82006F00D
:1031800041FC26E6FEF7DDFA4CE600BFB89AFF1FC9
:10319000C89AFF1F20FC00002DE9F04FADF51E5D21
:1031A0008FB004AF32200025C7F848D006F02AFCC3
:1031B000B14BC7F80C511B680120C7F81031D7F884
:1031C000103108F01DFDC7F8B4000420C7F81451F1
:1031D000C7F8185108F014FDA84BC7F8B0001B68D9
:1031E000073323F00703ADEB030DA54B1B683B66CC
:1031F0001B01083304ACADEB030D04AEC7F8C86087
:1032000003E0002106F063FD0135D7F8C86006EB46
:1032100005103E6EB542F4D1984B994E1A6820467F
:10322000002109F0E9F8002507E0D7F8C81001EB04
:103230000510944906F083FD013533689D42F4DBA7
:103240000020FFF715F9904B10251D600A2006F0AD
:10325000D9FB8E4B8E491D6007F5F475284606F0A4
:1032600036FD5EE0284606F000FEC72842F32E85B4
:1032700002F0E8BC87498848FDF708FA8549874885
:10328000FDF704FA4DE0FDF727FA4AE0FEF730FDBE
:1032900047E0FDF747FA44E0FDF784FA41E00120FA
:1032A000FFF7E6F83DE0FFF7B3FA3AE000200AE066
:1032B000FFF70CFB35E03C2001E04FF49670FFF780
:1032C000CDFB2EE00120FEF7BFFE2AE04FF4077091
:1032D000F5E74FF45C70F2E74FF48C60EFE7FDF731
:1032E00097F91EE00120FFF78DF81AE0282010E082
:1032F0004FF4AA600DE04FF4AB600AE04FF4AC600D
:1033000007E04FF4AD6004E04FF4AE6001E04FF42D
:10331000AF60FFF773FB04E0FDF706FC01E004F08B
:10332000C9FE05F005FB5B2802F0EF8405F03EFEC8
:103330005B2842F0D48402F0E8BC05F037FE5B283D
:103340000CBF0225002500E0012505F0C9FA05F0B3
:1033500015FE012D0DD0022D58D051494E48FDF7D4
:1033600095F900264D484E49FDF790F9C7F8C4601D
:10337000AFE049484FF4FA6106F0B8FB3F4B4648CE
:103380001B6821212246002606F0B2FB41F2873558
:10339000C7F8C460A35D7B2B1BD104E0484606F050
:1033A00007FD013607E0D7F8C410D7F8C8204FEA68
:1033B000011802EB0809A15D7D29EFD1D7F8C830CB
:1033C00003EB080006F0F4FCD7F8C4100131C7F88D
:1033D000C4100136AE42DDDD002412E0D7F8C8602B
:1033E000302106EB041507F5067006F0C3FC07F55F
:1033F0000671284606F0FFFC07F5067006F026FC6D
:103400000134D7F8C460B442E8DB62E023484FF4EB
:103410007A7106F06BFB194B20481B68212122466C
:10342000002606F065FB41F28735C7F8C460A35D4E
:103430007B2B1BD104E0484606F0BAFC013607E0BE
:10344000D7F8C410D7F8C8204FEA011802EB0809D2
:10345000A15D7D29EFD1D7F8C83003EB080006F055
:10346000A7FCD7F8C4100131C7F8C4100136AE422A
:10347000DDDD002429E000BFB49AFF1FF089FF1FA3
:103480007C89FF1FBBF50000C8F00F40C4F00F405F
:10349000B3F700006AF90000B89AFF1FC89AFF1F2F
:1034A0007AF90000D7F8C860302106EB041507F55B
:1034B000067006F05FFC07F50671284606F09BFCD7
:1034C00007F5067006F0C2FB0134D7F8C460B442B9
:1034D000E8DB7949794D7A48FDF7C3F876497948B0
:1034E000FDF7BFF8286807F063FC022402460B468C
:1034F00000947348FDF7BBF8286807F059FC009466
:1035000002460B466F48FDF7B2F86F496C48FDF76D
:10351000A8F803246C496B48FDF7A3F8009464A352
:10352000D3E900236648FDF7A2F861A3D3E900239D
:1035300000946448FDF79BF8644962480026FDF753
:1035400090F85F486149FDF78CF8C7F8BC60C7F890
:10355000B860C7F8D0600D26BE660126FE6607F586
:10356000EA760024FE655A495648FDF77AF8544831
:103570005749FDF776F8002602F0FEBAD7F8B400F6
:1035800008F046FBD7F8AC603501D7F8C86073196E
:1035900007F58A7A9C68601C08F032FB7159C7F8FD
:1035A000B400224609F038FBD7F8B4600025355541
:1035B00007F5EE7007F50A7402F076FFD7F8B4103D
:1035C00022464FF4167307F5EE7002F050FED7F85E
:1035D000B410A8420CBF22462A46F86D02F0A5FDA1
:1035E000FE6D96E803008AE80300002802F0948349
:1035F000C9B902F091BBD7F8C810324801EB0415E5
:103600002946FDF739F801342D482946FDF734F8ED
:10361000B442F0D1FEF795F807F5F47006F016FB0A
:10362000002502F0FEBA07F58E76C7F88450C7F879
:10363000D86007F5E6742749504602F0C7FD0146F9
:1036400007F5FC7006F043FB2349504602F0B4FD39
:103650005046224902F0B0FD214B08B1186001E04C
:1036600001221A601F49204D504602F0A5FD1F4956
:10367000C7F8CC00504602F09FFD1D49F866504641
:1036800002F09AFD1B49B860504602F095FD1A49B8
:103690007862504602F090FD002808BF0120B8650E
:1036A0001649504602F088FD50BB0D232B602CE0DC
:1036B000BA490C022B87D63FA0F90000D890FF1F13
:1036C000C89AFF1FB89AFF1FAFF90000C5F90000A4
:1036D000F1F40000D2F90000DEF90000E5F9000085
:1036E0007889FF1FEEF900006489FF1FFDF90000D3
:1036F0000AFA00001DFA00002DFA000037FA000057
:1037000050468D4902F058FD28608C49504602F021
:1037100053FD002808BF0A20F8628949504602F08C
:103720004BFD002808BF1020B8628649504602F0C1
:1037300043FD002808BF032078658349504602F006
:103740003BFD002808BF032038658049504602F041
:1037500033FD7F493862504602F02EFD7D49C7F89F
:10376000C000504602F028FD7B497864504602F0C4
:1037700023FD7A49C7F88800504602F01DFD7849BC
:10378000F861504602F018FD07F59276C7F8D400AC
:10379000514607F58E70734A02F000FD07F59678E2
:1037A00030465146704AC7F8FC6002F0F7FC07F556
:1037B0009A76404651466D4A02F0F0FC07F59E7B32
:1037C000304651466A4AC7F8F86002F0E7FC07F550
:1037D000A27658465146674A02F0E0FC3046C7F8E8
:1037E000F460514607F5A676634A02F0D7FC3046EE
:1037F000C7F8F060514607F5AA76604A02F0CEFCA1
:103800003046C7F8EC60514607F5AE765C4A02F0E8
:10381000C5FC3046C7F8E860514607F5B276594A0C
:1038200002F0BCFC3046C7F8E460514607F5B676B6
:10383000554A02F0B3FC3046C7F8E060514607F540
:10384000BA76524A02F0AAFC30465146504AC7F8AE
:10385000DC6002F0A3FC07F5BE7051464D4A4E4EA7
:1038600002F09CFC07F5C27051464C4A02F096FCEF
:1038700007F5C67051464A4A02F090FC07F5CA7037
:103880005146484A07F5807502F088FC07F5CE706E
:103890005146454A02F082FC28465146434A02F00E
:1038A0007DFC95E80300424A86E80300284651461D
:1038B00002F074FC95E803003E4E3F4A86E80300A0
:1038C0002846514602F06AFC95E803003B4E3C4A0C
:1038D00086E8030007F5D270514602F05FFC07F559
:1038E000D6705146374A02F059FC07F5DA70514656
:1038F000354A02F053FC002507F5DE705146334A85
:1039000002F04CFC7D66C7F88C5087E0294607F52D
:10391000BE7002F098FC07F5D67181462A46204613
:1039200002F083FC2046FCF7D2FE7E6E00FB0966A7
:103930007E660026B1465AE037FA00004CFA0000D5
:1039400056FA000061FA000072FA000081FA0000E5
:10395000A0FA0000ABFA0000B5FA0000C3FA0000BC
:10396000CEFA0000D9FA0000E9FA0000F5FA0000EA
:1039700004FB000012FB000020FB00002DFB0000F8
:103980003AFB000047FB000054FB000061FB000015
:103990006EFB00007BFB0000F890FF1F82FB000025
:1039A0008EFB00009AFB0000A6FB0000B2FB0000AB
:1039B000C2FB00000094FF1FD3FB0000EC93FF1F2D
:1039C000E3FB0000EDFB0000F9FB000007FC00003A
:1039D000204607F5D6712A4602F027FC31462046DC
:1039E00002F031FC0028C8BF09F101090136204668
:1039F00007F5D6712A4602F018FC2046FCF767FE50
:103A00008642E5DB294607F5BE7002F01CFCD7F8BC
:103A10008C6009FB0066C7F88C60013507F5BE7045
:103A2000FCF755FE8542FFF671AFD7F8B00008F0FD
:103A3000EFF80421D7F88C0008F06CF8B449C7F807
:103A4000B000B448FCF70DFEB149B348FCF709FEDD
:103A50000520FDF7B1F9B149C7F8A800AD48FCF75A
:103A600000FEAE49AC48FCF7FCFD07F5FC71A94827
:103A700006F056FB07F5FC71A74806F051FBA84974
:103A8000A448FCF7EEFDA448A549FCF7EAFDD7F8E9
:103A9000D430012B02D11846FDF796FB07F50675C9
:103AA000A049284606F013F9D7F8D86096E8030035
:103AB000002213468DE8030002959B499B48FCF7C2
:103AC00027FF284606F0C2F89949284606F0FFF875
:103AD00098E80300002213468DE8030002959549FB
:103AE0009548FCF715FF284606F0B0F8934928469C
:103AF00006F0EDF8D7F8F86096E8030000221346C8
:103B00008DE8030002958E498E48FCF701FF284698
:103B100006F09CF88C49284606F0D9F89BE803008B
:103B2000002213468DE80300029588498848FCF777
:103B3000EFFE284606F08AF8864B8749D3F80080C6
:103B4000864B28461E6806F0C2F8D7F8FC2092E89B
:103B500003008DE8030000204246014633460295EB
:103B6000FCF7D6FE284606F071F87D4B7D49D3F868
:103B700000805E68284606F0AAF8D7F8F43093E88B
:103B800003008DE8030000204246014633460295BB
:103B9000FCF7BEFE284606F059F8734B7349D3F87C
:103BA00000805E68284606F092F8D7F8F02092E888
:103BB00003008DE80300002042460146334602958B
:103BC000FCF7A6FE284606F041F8694B6949D3F890
:103BD00000805E68284606F07AF8D7F8EC3093E863
:103BE00003008DE80300002042460146334602955B
:103BF000FCF78EFE284606F029F85F4B5F49D3F8A4
:103C000000805E68284606F062F8D7F8E82092E85F
:103C100003008DE80300002042460146334602952A
:103C2000FCF776FE284606F011F8554B5549D3F8B7
:103C300000805E68284606F04AF8D7F8E43093E83A
:103C400003008DE8030000204246014633460295FA
:103C5000FCF75EFE284605F0F9FF4B4B4B49D3F8C5
:103C600000805E68284606F032F8D7F8E02092E837
:103C700003008DE8030000204246014633460295CA
:103C8000FCF746FE284605F0E1FF414B41495E68DE
:103C9000D3F80080284606F01AF8D7F8DC3093E80D
:103CA00003008DE80300002033460146424602959A
:103CB000394EFCF72DFE284605F0C8FF3368012B6E
:103CC00017DD36491448FCF7CCFC34491148FCF7A1
:103CD000C8FC31681048FCF7C8FC31680D48FCF797
:103CE000C4FC2F490C48FCF7BCFC0A482C49FCF7E3
:103CF000B8FC2C4B786C00261E602B4B1E602B4BA7
:103D00001E602B4B1E602B4B1E602B4B1E6055E024
:103D10001AF50000B89AFF1FC89AFF1F0FFC000099
:103D20001FFC0000D9FA0000D091FF1F5895FF1F1B
:103D3000F5FA0000C094FF1F3C92FF1F04FB000037
:103D40006891FF1F0091FF1F12FB00004093FF1FAF
:103D5000D892FF1FF489FF1FE9FA0000C495FF1FE6
:103D6000B894FF1F20FB00008C94FF1F2DFB000068
:103D70002895FF1F3AFB00009494FF1F47FB0000AB
:103D80003895FF1F54FB00004095FF1F61FB0000AA
:103D90004895FF1F6EFB00007889FF1F22FC000082
:103DA00020FC00000894FF1FD095FF1F3892FF1FD2
:103DB000CC95FF1F1894FF1FBC93FF1F144B1E6070
:103DC000144B1E60144B1E60144B1E60FDF7D6F999
:103DD000D7F88810D7F8CC2030234B43013B3B6405
:103DE0004FF47A735343FB6007F586760023C7F8D8
:103DF000D430C7F89030C7F89430C7F89830C7F877
:103E00009C3007F5E27BC7F8806001F0F1BD00BF90
:103E1000A894FF1FB494FF1F0C94FF1F1C94FF1F56
:103E2000584607F5DA71324602F0FFF9584601218B
:103E300002F009FA8046002859D13246204607F59B
:103E4000DA7102F0F2F94146204602F006FA014624
:103E5000284605F03CFF2846BC4905F0DAFF10F182
:103E6000000818BF4FF00108284605F0EFFEB8F132
:103E7000000F3CD03246204607F5DA7102F0D5F942
:103E80000121204602F0DFF9FCF76EFEB04BD7F8B7
:103E9000D4101B68013B994229D1AE49DFF8DC926E
:103EA000AD48FCF7DEFBAB49AC48FCF7DAFBD9F8D0
:103EB000000006F07DFF4FF0020802460B46CDF8E9
:103EC0000080A548FCF7D3FBA549A348FCF7C9FB34
:103ED000D9F8000006F06CFFCDF8008002460B46D2
:103EE0009E48FCF7C4FB9D489D49FCF7BAFB584629
:103EF00007F5DA71324602F098F95846012102F0CE
:103F0000A2F98046002859D13246204607F5DA71D9
:103F100002F08BF94146204602F09FF901462846FF
:103F200005F0D5FE28468F4905F073FF10F1000813
:103F300018BF4FF00108284605F088FEB8F1000FC1
:103F40003CD03246204607F5DA7102F06EF90121C5
:103F5000204602F078F9FCF70CFE7D4BD7F8D42010
:103F60001B68013B9A4229D17F49DFF814927A48B5
:103F7000FCF777FB7C497948FCF773FBD9F8000024
:103F800006F016FF4FF0020802460B46CDF80080FF
:103F90007148FCF76CFB72496F48FCF762FBD9F87B
:103FA000000006F005FFCDF8008002460B466B4886
:103FB000FCF75DFB69486A49FCF753FB584607F577
:103FC000DA71324602F031F95846012102F03BF92C
:103FD0008046002859D13246204607F5DA7102F0B2
:103FE00024F94146204602F038F90146284605F0FA
:103FF0006EFE28465D4905F00CFF10F1000818BF61
:104000004FF00108284605F021FEB8F1000F3CD022
:104010003246204607F5DA7102F007F90121204601
:1040200002F011F9FDF788FB494BD7F8D4101B6853
:10403000013B994229D14E49DFF848914648FCF7A7
:1040400010FB4B494548FCF70CFBD9F8000006F083
:10405000AFFE4FF0020802460B46CDF800803E4806
:10406000FCF705FB3E493C48FCF7FBFAD9F8000099
:1040700006F09EFECDF8008002460B463748FCF75E
:10408000F6FA36483649FCF7ECFA584607F5DA7185
:10409000324602F0CAF85846012102F0D4F88046B0
:1040A00000287AD13246204607F5DA7102F0BDF8D1
:1040B0004146204602F0D1F80146284605F007FEA9
:1040C00028462C4905F0A5FE10F1000818BF4FF056
:1040D0000108284605F0BAFDB8F1000F5DD0324660
:1040E000204607F5DA7102F0A0F80121204602F01F
:1040F000AAF8FDF7BBF9164BD7F8D4201B68013B93
:104100009A424AD11C49DFF880901348FCF7A9FA7B
:1041100019491248FCF7A5FAD9F8000006F048FE44
:104120004FF0020802460B46CDF800800A48FCF723
:104130009EFA0B490848FCF794FAD9F8000006F0FB
:1041400037FECDF8008002460B461FE02EFC000033
:104150007889FF1F40FC0000C89AFF1FB89AFF1F14
:1041600020FC000070FC000055FC000064FC000016
:104170007CFC000097FC00009BFC00003892FF1FB5
:10418000CC95FF1F1894FF1FBC93FF1FBB48FCF783
:104190006EFABA48BA49FCF764FA584607F5DA717C
:1041A000324602F042F85846012102F04CF88046AF
:1041B000002840F0E4803246204607F5DA7102F02C
:1041C00034F84146204602F048F80146284605F0FA
:1041D0007EFD2846AB4905F01CFE10F1000818BF13
:1041E0004FF00108284605F031FDB8F1000F00F04E
:1041F000C6803246204607F5DA7102F016F8012132
:10420000204602F020F8FCF7B9FC9F4BD7F8D410F9
:104210001B68013B994240F0B280DFF890929B49C5
:104220009B48FCF71EFA99499448FCF71AFAD9F80A
:104230000000FCF763FE06F0BBFD4FF002080246EB
:104240000B46CDF800809248FCF711FA8C49904853
:10425000FCF707FAD9F80000DFF85492FCF74EFE9D
:1042600006F0A6FDCDF8008002460B468348FCF719
:10427000FEF983498148FCF7F4F986498448FCF744
:10428000F0F984497D48FCF7ECF9D9F80000FCF717
:1042900035FE06F08DFDCDF8008002460B467C48C9
:1042A000FCF7E5F976497A48FCF7DBF9D9F8000024
:1042B000DFF80092FCF722FE06F07AFDCDF80080D0
:1042C00002460B466D48FCF7D2F96D496B48FCF786
:1042D000C8F971496E48FCF7C4F96F496748FCF7A3
:1042E000C0F9D9F80000FCF709FE06F061FDCDF831
:1042F000008002460B466648FCF7B9F960496448FD
:10430000FCF7AFF9D9F80000DFF8AC91FCF7F6FD47
:1043100006F04EFDCDF8008002460B465748FCF7EC
:10432000A6F957495548FCF79CF95C495848FCF7F1
:1043300098F95A495148FCF794F9D9F80000FCF76C
:10434000DDFD06F035FDCDF8008002460B465048F5
:10435000FCF78DF94A494E48FCF783F9D9F800007B
:10436000FCF7CCFD06F024FDCDF8008002460B469C
:104370004248FCF77CF941484149FCF772F958463C
:1043800007F5DA71324601F050FF5846012101F07D
:104390005AFF804600284FD13246204607F5DA7191
:1043A00001F043FF4146204601F057FF01462846F1
:1043B00005F08DFC28463A4905F02BFD10F1000967
:1043C00018BF4FF00109284605F040FCB9F1000F75
:1043D00032D03246204607F5DA7101F026FF02217D
:1043E000204601F030FF5FFA80F94146484605F06B
:1043F000F5F9484604F04CFF234BD7F8D4201B684E
:10440000013B9A42804617D126492148FCF729F9F9
:1044100024491A48FCF725F941461D48FCF725F9BF
:1044200017491B48FCF71DF941461448FCF71DF9D4
:1044300012481349FCF715F9584607F5DA71324668
:1044400001F0F3FE5846012101F0FDFE80460028F0
:1044500070D13246204607F5DA7101F0E6FE41469A
:10446000204601F0FAFE0146284605F030FC2846B9
:104470000D4905F0CEFC10F100091FE0B89AFF1FAE
:1044800020FC000090FA00007889FF1FA2FC0000C9
:10449000C89AFF1FB5FC0000BAFC0000BFFC00007A
:1044A000C4FC0000D0FC0000DFFC0000A894FF1F4B
:1044B000B494FF1F0C94FF1F1C94FF1F18BF4FF0F4
:1044C0000109284605F0C2FBB9F1000F32D032468F
:1044D000204607F5DA7101F0A8FE0221204601F01E
:1044E000B2FE5FFA80F94146484605F077F9484642
:1044F00005F068F9B14BD7F8D4101B68013B99421D
:10450000804617D1AE49AF48FCF7ABF8AC49AE488E
:10451000FCF7A7F84146AB48FCF7A7F8AB49A94818
:10452000FCF79FF84146A848FCF79FF8A648A74922
:10453000FCF797F8584607F5DA71324601F075FE38
:104540005846012101F07FFE8046002844D13246C2
:10455000204607F5DA7101F068FE4146204601F079
:104560007CFE0146284605F0B2FB2846984905F036
:1045700050FC10F1000818BF4FF00108284605F064
:1045800065FBB8F1000F27D03246204607F5DA71F7
:1045900001F04BFE0221204601F055FE32468046D6
:1045A00007F5DA71204601F040FE0321204601F0B4
:1045B0004AFE5FFA88F881460121404605F00EF96F
:1045C000844A52F8382019F0FF0F4FF0010314BF4E
:1045D00082F8803082F80031584607F5DA713246A9
:1045E00001F023FE5846012101F02DFE81460028EE
:1045F00067D13246204607F5DA7101F016FE4946CA
:10460000204601F02AFE0146284605F060FB2846B8
:10461000714905F0FEFB10F1000818BF4FF00108CA
:10462000284605F013FBB8F1000F4AD03246204669
:1046300007F5DA7101F0F9FD0221204601F003FED1
:104640003246804607F5DA71204601F0EEFD03217F
:10465000204601F0F8FD3246844607F5DA7120461F
:10466000C7F800C001F0E1FD0421204601F0EBFD98
:104670003246C7F8CC0007F5DA71204601F0D5FDC7
:104680000521204601F0DFFD5FFA88F8034601218D
:1046900040467B6005F0A2F84046D7F8CC1005F004
:1046A00019F8D7F800C04046614605F0B3F87B68BA
:1046B000184605F0A7F94046494605F0ABF8FDF766
:1046C0008FFC584607F5DA71324601F0AEFD5846C8
:1046D000012101F0B8FD8046002840D13246204635
:1046E00007F5DA7101F0A1FD4146204601F0B5FD64
:1046F0000146284605F0EBFA2846384905F089FBC3
:1047000010F1000818BF4FF00108284605F09EFA86
:10471000B8F1000F23D0D7F8D42002BB3049294884
:10472000FBF79FFF2E492848FBF79BFFD7F8D420C3
:104730002C492846FCF7DEFA2946224805F0F0FC11
:1047400029492048FBF78DFF29461F4805F0E8FC62
:104750001D482549FBF785FF284605F077FA013605
:1047600000E0002607F5DA70FBF7B1FF8642FFF69E
:1047700057ABFB6A1D4ED9B23068002202F0DCFF55
:10478000BA6A3068D1B2002202F0B2FF7B6D052B0D
:1047900033D8DFE803F003070A0D102D002130683D
:1047A0000A4628E03068012124E03068022121E037
:1047B000306803211EE0306804211BE07889FF1F68
:1047C000ECFC0000C89AFF1FB89AFF1F20FC0000F5
:1047D000FCFC000038FF00000AFD000017FD00008F
:1047E0001CFD0000C0C62D001FFC0000AC94FF1F84
:1047F00030680521002202F087FF3A6D052A19D89A
:10480000DFE802F003070A0D1013002130680A46A2
:104810000EE0306801210AE03068022107E03068CC
:10482000032104E03068042101E030680521002202
:1048300002F076FF022005F0E5F8B34B1868FCF7AC
:104840005DFBC7F8A40007F00DF9B04B01461868EE
:10485000FCF766FBD7F8C060642370434FF0000993
:1048600090FBF3F3C7F8A030C7F84C90C7F87C90E2
:10487000C7F8CC9085E3D7F8D060002E35D1D7F8B3
:10488000CC60002E42D104F0F1F8A04BBE6E1B6844
:104890009E4206D0F2B29E4B53F83230012283F88A
:1048A000002105F091F8D7F888100029064608DBAA
:1048B000984B4A1E9A4204D8974898493A6C05F09A
:1048C000A0FB05F081F87A6C801B9042F9D3D7F8F1
:1048D0008860002E0CDB8F4B721E9A4208D89049DC
:1048E0003A6C904805F08DFB02E0D7F8CC6086B9B1
:1048F000204607F5D671D7F8D02001F096FC204667
:10490000FBF7E5FE0126C7F8B80003E0D7F8D06052
:1049100000E00026D7F8D020BE67204607F5D67104
:1049200001F083FCD7F880603368D7F8B860B3FB38
:10493000F6F106FB1131204601F085FC7A4BD7F8E1
:10494000D020186007F5D271204601F06EFCD7F830
:1049500080603368D7F8B860B3FBF6F106FB11311D
:10496000204601F070FCD7F8CC10704BB1421860B3
:1049700080F23682002940F09D81D7F8D020204671
:1049800007F5DE7101F051FCD7F8CC10204601F09C
:1049900064FC014607F5027005F099F907F502700D
:1049A000634905F036FA20B1D7F8A860013640F027
:1049B0001A81D7F8D460002E01F0C18113E15D495E
:1049C0005D48FBF74EFE01265C485A49FBF749FE5D
:1049D000FE64D7F8A86001360CD159495648FBF758
:1049E00040FE4FF0FF3655485549FBF73AFEC7F8F1
:1049F000A86059E10520FCF7DFF9C7F8A8000130ED
:104A0000EBD050494C48FBF72CFE4E494B48FBF786
:104A100028FE07F50271484805F082FB07F5027190
:104A2000464805F07DFB48494348FBF71AFE4649D6
:104A30004248FBF716FE45493F48FBF712FE434943
:104A40003E48FBF70EFED7F8D020204607F5DE7172
:104A500001F0EBFB0121204601F0FFFB0146364847
:104A6000FBF7FFFDD7F8D020204607F5DE7101F0F7
:104A7000DCFB0121204601F0F0FB01462F48FBF74B
:104A8000F0FD31492C48FBF7ECFD2F492B48FBF793
:104A9000E8FD07F502702E4905F0BBF930B12D494C
:104AA0002548FBF7DEFD25482A4910E007F502708E
:104AB000294905F0AEF968B12848FCF77DF90130C5
:104AC000FAD127491C48FBF7CCFD1C482449FBF7C9
:104AD000C8FD71E007F50270224905F09AF9064613
:104AE000002843D01D48FCF767F9012808D11E496A
:104AF0001148FBF7B6FD1C491048FBF7B2FDD3E0A7
:104B00000130EFD1DDE700BFA894FF1F6489FF1FCC
:104B100038FF000054555505A893FF1F51050000AC
:104B20007D050000DC90FF1FC895FF1F1094FF1F3C
:104B3000BBF5000025FD0000C89AFF1FB89AFF1FB3
:104B400031FD000036FD00001FFC000063F700008F
:104B5000B3F7000039FD00003DFD0000C0C62D0088
:104B600043FD000049FD000051FD000007F5027003
:104B70008C4905F04EF9F8B1324628468A49FCF7CF
:104B8000B9F88A498A48FBF76CFD88498948FBF7E0
:104B900068FD2946874805F0C3FA2946844805F090
:104BA000BFFA85498248FBF75CFD82488249FBF7E2
:104BB00058FD284605F04AF807F5BE70FBF787FD5B
:104BC000D7F8D06001388642794805D07B49FBF799
:104BD00048FD7848794904E07949FBF742FD75487A
:104BE0007749FBF73EFDD7F8D01007F5C27001F00A
:104BF0002AFBD7F8A060B8610096D7F8D020D7F884
:104C0000A430D7F8C010FDF721F9D7F8D0108046AE
:104C100007F5C67001F017FB78610096D7F8D02031
:104C2000D7F8A430D7F8C010FDF710F9D7F8D01096
:104C3000786707F5CA7001F006FB38610096D7F86F
:104C4000D020D7F8A430D7F8C010FDF7FFF8D7F878
:104C5000D010386707F5CE7001F0F5FA0096D7F856
:104C6000C010D7F8D020D7F8A4303860FDF7EEF8A0
:104C7000064607F5027004F0E9FF07F190010EC93E
:104C80003963D7F89C107A63BB63F963D7F800C027
:104C90003A697B69B969C7F890C0C7F89420C7F82A
:104CA0009830C7F89C1009E007F5027004F0CEFFB9
:104CB00000F0A5BE00263E677E67B046D7F8A0206C
:104CC000DFF818C10092DCF80000D7F8A430C7F86C
:104CD00000C0D7F8C010D7F8D020FDF7B7F8D7F844
:104CE00000C0DCF80030023B122B3BD8DFE803F0B9
:104CF000283A3A3A3A3A3A3A2E161C3A340A103AD4
:104D00003A3A22002F4B30481A88032101F0FCFC6C
:104D10002C4B2D481A88032101F0F6FC294B2A4818
:104D20001A88032101F0F0FC264B27481A8803213A
:104D300001F0EAFC254B24481A88002101F0E4FC2C
:104D4000224B21481A88002101F0DEFC204B1E482E
:104D50001A88022101F0D8FC1D4B1B481A88022139
:104D600001F0D2FC1B4A042313602022013AFDD13A
:104D7000194A1360D7F8CC20002A35D1134B1248BA
:104D800011461A8801F0C0FC0E4B0F481A88032107
:104D900001F0BAFC0E4B0C481A88022101F0B4FC59
:104DA00022E000BF5DFD0000C0C62D0063F70000DB
:104DB000C89AFF1FB89AFF1F3AFD000020FC0000B0
:104DC0005AFD0000E893FF1FA492FF1F1494FF1FD9
:104DD000FC93FF1F88F00F4084F00F40C895FF1F21
:104DE00000263E677E67B046984B99491A68086866
:104DF0000028FBD0D2F1010238BF0022002AF5D1F1
:104E0000944B1868944B197802F0A2FC934B1860ED
:104E1000934B10221A60BB6F012B50D1F96B914B51
:104E2000CAB2B96F53F83220B8F1010F82F80011FD
:104E300006D1D7F89C10CAB253F8322082F880808D
:104E4000B96BCAB253F83230012283F800217A6F6D
:104E5000012A08D1D7F89830796FDAB2814B53F82C
:104E6000323083F88010796B7E4BCAB2012153F83F
:104E7000322082F800113A6F8A4207D1D7F8941095
:104E8000CAB2396F53F8322082F88010396BCAB237
:104E900053F832300122964283F8002107D1D7F827
:104EA0009030DAB26F4B53F8323083F880606E4A3C
:104EB000042313602022013AFDD16C4A1360FE697D
:104EC0005EB9654B1B68222B02D0232B05D101E074
:104ED000674B00E0674B1E6800E00026664B1B68CE
:104EE000F3B15E4BFA6FD7F8B0101B6851F822008F
:104EF0007B6006F09DFB7B688046184606F098FBB9
:104F0000314606F0DFFA0146404606F0DDFA06F0CB
:104F1000A9FDF96FD7F8B06046F821000131F967B3
:104F200072B64A4BD7F8CC2000261E60484B01329F
:104F30001E60C7F8CC2062B6D7F880100B6801332A
:104F40000B6007F5BE70D7F8D01001F07CF9D7F8E8
:104F5000D020804607F5D671204601F066F920463C
:104F6000FBF7B5FBD7F8CC2000FB08F0824206D156
:104F7000D7F8D030C7F8CC600133C7F8D03009F18A
:104F800001097E6EB145FFF676ACD7F8A0103B4E16
:104F900000913A6A01923068D7F8D020D7F8A4304F
:104FA000D7F8C010FCF7CEFF3368D7F89C602D4AC5
:104FB0009E4205D0F1B2012652F8311081F800610D
:104FC000D7F898609E4205D0F1B252F83120012105
:104FD00082F80011D7F89460224A9E4205D0F1B2BF
:104FE000012652F8311081F80061D7F890609E4296
:104FF00005D0F1B252F83120012182F800110128C8
:10500000184A0DD1184E042131602026013EFDD1F1
:10501000DBB2164E52F83330316083F8800005E081
:10502000DBB252F83330012283F80021144804F037
:10503000DFFF144804F0DCFF044BD7F88010002693
:105040001E60034B1E600E6000F0BCBCF090FF1FA2
:105050009C94FF1FAC94FF1F1094FF1F5495FF1FDB
:10506000C4F00F4038FF000088F00F4084F00F407C
:10507000A094FF1FA494FF1FC895FF1F6489FF1F02
:10508000A893FF1FDC90FF1F584607F5DA713246E0
:1050900001F0CBF80121584601F0D5F801288046EF
:1050A00059D13246204607F5DA7101F0BEF80021E9
:1050B000204601F0D2F80146284604F008FE2846B2
:1050C000BE4904F0A6FE10F1000918BF4FF0010917
:1050D000284604F0BBFDB9F1000F3CD03246204613
:1050E00007F5DA7101F0A1F84146204601F0ABF86E
:1050F000FBF73AFDB24BD7F8D4201B68013B9A422C
:1051000029D1B049DFF8E492AF48FBF7AAFAAD49DC
:10511000AE48FBF7A6FAD9F8000005F049FE4FF0BB
:10512000020802460B46CDF80080A748FBF79FFA1D
:10513000A749A548FBF795FAD9F8000005F038FE15
:10514000CDF8008002460B46A048FBF790FA9F4836
:105150009F49FBF786FA584607F5DA71324601F0A7
:1051600064F80121584601F06EF80128804659D1B3
:105170003246204607F5DA7101F057F80021204643
:1051800001F06BF80146284604F0A1FD284691493C
:1051900004F03FFE10F1000918BF4FF00109284646
:1051A00004F054FDB9F1000F3CD03246204607F51B
:1051B000DA7101F03AF84146204601F044F8FBF775
:1051C000D8FC7F4BD7F8D4101B68013B994229D1FA
:1051D0008149DFF81C927C48FBF743FA7E497B4803
:1051E000FBF73FFAD9F8000005F0E2FD4FF00208A6
:1051F00002460B46CDF800807348FBF738FA744935
:105200007148FBF72EFAD9F8000005F0D1FDCDF872
:10521000008002460B466D48FBF729FA6B486C4943
:10522000FBF71FFA584607F5DA71324600F0FDFF2A
:105230000121584601F007F80128804659D132462D
:10524000204607F5DA7100F0F0FF0021204601F05A
:1052500004F80146284604F03AFD28465F4904F068
:10526000D8FD10F1000918BF4FF00109284604F0DD
:10527000EDFCB9F1000F3CD03246204607F5DA715B
:1052800000F0D3FF4146204600F0DDFFFCF754FA62
:105290004B4BD7F8D4201B68013B9A4229D1504987
:1052A000DFF850914848FBF7DCF94D494748FBF7D8
:1052B000D8F9D9F8000005F07BFD4FF0020802464E
:1052C0000B46CDF800804048FBF7D1F940493E48F5
:1052D000FBF7C7F9D9F8000005F06AFDCDF80080AA
:1052E00002460B463948FBF7C2F938483849FBF704
:1052F000B8F9584607F5DA71324600F096FF0121F9
:10530000584600F0A0FF012880467BD13246204657
:1053100007F5DA7100F089FF0021204600F09DFFBB
:105320000146284604F0D3FC28462E4904F071FDBE
:1053300010F1000918BF4FF00109284604F086FC5F
:10534000B9F1000F5ED03246204607F5DA7100F061
:105350006CFF4146204600F076FFFCF787F8184BBB
:10536000D7F8D4101B68013B99424BD11E49DFF896
:1053700088901548FBF775F91B491448FBF771F93C
:10538000D9F8000005F014FD4FF0020802460B4664
:10539000CDF800800C48FBF76AF90D490A48FBF785
:1053A00060F9D9F8000005F003FDCDF80080024651
:1053B0000B460648FBF75BF920E000BF2EFC00001F
:1053C0007889FF1F40FC0000C89AFF1FB89AFF1F92
:1053D00020FC000070FC000055FC000064FC000094
:1053E0007CFC000097FC00009BFC00003892FF1F33
:1053F000CC95FF1F1894FF1FBC93FF1FBD48BE49EB
:10540000FBF72FF9584607F5DA71324600F00DFF29
:105410000121584600F017FF0128804640F0E48043
:105420003246204607F5DA7100F0FFFE00212046E3
:1054300000F013FF0146284604F049FC2846AF4916
:1054400004F0E7FC10F1000918BF4FF001092846ED
:1054500004F0FCFBB9F1000F00F0C6803246204694
:1054600007F5DA7100F0E1FE4146204600F0EBFE60
:10547000FBF784FBA24BD7F8D4201B68013B9A4270
:1054800040F0B280DFF89C929E499F48FBF7E9F814
:105490009C499848FBF7E5F8D9F80000FBF72EFD8A
:1054A00005F086FC4FF0020802460B46CDF800805E
:1054B0009548FBF7DCF890499348FBF7D2F8D9F808
:1054C0000000DFF86492FBF719FD05F071FCCDF8E0
:1054D000008002460B468748FBF7C9F88649854895
:1054E000FBF7BFF889498848FBF7BBF88749814833
:1054F000FBF7B7F8D9F80000FBF700FD05F058FC02
:10550000CDF8008002460B467F48FBF7B0F87A4999
:105510007D48FBF7A6F8D9F80000DFF81092FBF7FA
:10552000EDFC05F045FCCDF8008002460B467148C5
:10553000FBF79DF870496F48FBF793F87449724880
:10554000FBF78FF872496B48FBF78BF8D9F800002E
:10555000FBF7D4FC05F02CFCCDF8008002460B468E
:105560006948FBF784F864496748FBF77AF8D9F88B
:105570000000DFF8BC91FBF7C1FC05F019FCCDF889
:10558000008002460B465B48FBF771F85A495948C0
:10559000FBF767F85F495C48FBF763F85D495548DE
:1055A000FBF75FF8D9F80000FBF7A8FC05F000FC5A
:1055B000CDF8008002460B465348FBF758F84E4999
:1055C0005148FBF74EF8D9F80000FBF797FC05F0BF
:1055D000EFFBCDF8008002460B464648FBF747F844
:1055E00044484549FBF73DF8584607F5DA7132461D
:1055F00000F01BFE0121584600F025FE01284FD186
:105600003246204607F5DA7100F00FFE00212046F1
:1056100000F023FE0146284604F059FB28463E4987
:1056200004F0F7FB10F1000818BF4FF001082846FE
:1056300004F00CFBB8F1000F32D03246204607F5DB
:10564000DA7100F0F2FD0221204600F0FCFD5FFA65
:1056500080F80021404604F0C1F8404603F018FEEF
:10566000274BD7F8D4101B68013B9942804617D1CD
:105670002A492548FAF7F5FF28491E48FAF7F1FFAD
:1056800041462148FAF7F1FF1B491F48FAF7E9FFA5
:1056900041461848FAF7E9FF16481749FAF7E1FFBB
:1056A000584607F5DA71324600F0BFFD0121584631
:1056B00000F0C9FD012870D13246204607F5DA71A5
:1056C00000F0B3FD0021204600F0C7FD014628464A
:1056D00004F0FDFA2846124904F09BFB10F1000883
:1056E00018BF4FF00108284604F0B0FAB8F1000FD7
:1056F00053D01FE0B89AFF1F20FC000090FA000072
:105700007889FF1FA2FC0000C89AFF1FB5FC0000AB
:10571000BAFC0000BFFC0000C4FC0000D0FC00008C
:10572000DFFC0000A894FF1FB494FF1F0C94FF1F20
:105730001C94FF1F3246204607F5DA7100F075FD14
:105740000221204600F07FFD5FFA80F840460021EC
:1057500004F044F8404604F035F8AE4BD7F8D420B6
:105760001B68013B9A42804617D1AB49AB48FAF718
:1057700078FFA949AA48FAF774FF4146A748FAF703
:1057800074FFA849A548FAF76CFF4146A448FAF708
:105790006CFFA348A349FAF764FF584607F5DA718E
:1057A000324600F042FD0121584600F04CFD012830
:1057B000804644D13246204607F5DA7100F035FDC7
:1057C0000021204600F049FD0146284604F07FFAFA
:1057D0002846954904F01DFB10F1000918BF4FF051
:1057E0000109284604F032FAB9F1000F27D03246F9
:1057F000204607F5DA7100F018FD0221204600F07E
:1058000022FD3246814607F5DA71204600F00DFD93
:105810000321204600F017FD5FFA89F9034641464F
:1058200048467B6003F0DAFF7B6813F0FF0F7F4B85
:1058300053F8393014BF83F8808083F800815846CC
:1058400007F5DA71324600F0F0FC0121584600F00D
:10585000FAFC0128814667D13246204607F5DA7105
:1058600000F0E3FC0021204600F0F7FC014628464A
:1058700004F02DFA28466E4904F0CBFA10F1000826
:1058800018BF4FF00108284604F0E0F9B8F1000F06
:105890004AD03246204607F5DA7100F0C6FC0221F4
:1058A000204600F0D0FC3246804607F5DA712046EB
:1058B00000F0BBFC0321204600F0C5FC32468446C4
:1058C00007F5DA712046C7F800C000F0AEFC0421ED
:1058D000204600F0B8FC3246C7F8D00007F5DA7170
:1058E000204600F0A2FC0521204600F0ACFC5FFA47
:1058F00088F80346494640467B6003F06FFF404608
:10590000D7F8D01003F0E6FED7F800C04046614655
:1059100003F080FF7B68184604F074F840460021CD
:1059200003F078FFFCF75CFB584607F5DA71324666
:1059300000F07BFC0121584600F085FC012840D195
:105940003246204607F5DA7100F06FFC0021204650
:1059500000F083FC0146284604F0B9F92846354991
:1059600004F057FA10F1000818BF4FF0010828465C
:1059700004F06CF9B8F1000F23D0D7F8D43003BB92
:105980002D492648FAF76DFE2B492548FAF769FE9E
:10599000D7F8D42029492846FBF7ACF929461F48F7
:1059A00004F0BEFB26491D48FAF75BFE29461C4859
:1059B00004F0B6FB1A482249FAF753FE284604F0D1
:1059C00045F9013607F5DA70FAF781FE8642FFF6EF
:1059D0005BAB104BD7F8D4601B6801369E42C7F80A
:1059E000D46002DAF868FBF7E7F90026C7F8D06060
:1059F000084BD7F8D4601B689E42FEF6B2AE114940
:105A00000648044DFAF72DFE05480E49FAF729FE1F
:105A1000002637E07889FF1FECFC0000C89AFF1FC2
:105A2000B89AFF1F20FC0000FCFC000038FF0000BB
:105A30000AFD000017FD00001CFD0000C0C62D007F
:105A40001FFC000064FD0000D7F8B010BF4851F8FB
:105A50002680296898FBF1F104F0CAFB2968BC484C
:105A600098FBF1F104F0C4FBD7F88C20531E9E4242
:105A700007D0B849B548FAF7F4FDB548B549FAF783
:105A8000F0FD0136D7F88C309E42DDDBB249B048DC
:105A9000FAF7FCFDAD48B049FAF7F8FDD7F8A86071
:105AA00001360CD1AD49AA48FAF7DBFDAB49A7484E
:105AB000FAF7D7FD07F5FC7004F0C8F883E0D7F8D3
:105AC000C460721EBE6D731ED7F884609E4203DBF5
:105AD000D7F8AC6096420EDA9E499C48FAF7C1FDB1
