:1000000000800020BD0100005D7900005D790000E6
:100010005D7900005D7900005D79000029790000BC
:100020002979000029790000297900005D79000014
:100030005D790000297900005D79000019790000E0
:100040005D7900005D7900005D7900005D79000058
:100050005D7900005D7900005D7900005D79000048
:100060005D7900005D7900005D7900005D79000038
:100070005D7900005D7900005D7900005D79000028
:100080005D7900005D7900005D7900005D79000018
:100090005D7900005D7900005D7900005D79000008
:1000A0006D6400005D7900005D7900005D790000FD
:1000B0005D7900005D7900005D7900005D790000E8
:1000C0005D7900005D7900005D7900005D790000D8
:1000D0005D7900005D7900005D7900005D790000C8
:1000E0005D7900005D7900005D7900005D790000B8
:1000F0005D790000957D00005D7900004D8B00006A
:100100005D790000496C00005D7900005D790000B8
:100110005D7900005D7900005D7900005D79000087
:100120005D7900005D7900005D7900005D79000077
:100130005D7900005D7900005D7900005D79000067
:100140005D7900005D7900005D7900005D79000057
:10015000F18F00000990000021900000399000000C
:100160005D790000956E00005D7900005D7900000A
:100170005D7900005D7900005D7900005D79000027
:100180005D7900005D7900005D7900005D79000017
:100190005D7900005D7900005D790000AD820000AE
:1001A000FD8200008583000041840000C5840000BA
:1001B0005D7900005D790000558D00004F4B4CF2D9
:1001C000205210B51A804DF628121A80102223F8FA
:1001D0000E2C07F0C6FB4A4B4FF010621A60494ADA
:1001E0009A60494ADA60494B1A6812F4807204D165
:1001F00047490A604FF4A8521A60464B1A7802F039
:100200000802D2B21AB11A7842F008021A7000231A
:10021000414A4248424C02E0195999500433991816
:100220008142F9D33F4B404A002101E043F8041BCF
:100230009342FBD33D4B00221A603D4B3D4A802147
:1002400003F8011B9342FBD13B4B0A221A703B4B34
:1002500024221A70A02203F8012C394A137803F0E3
:100260000203DBB2002BF9D0354A137803F01003F8
:10027000DBB2002BF9D1324A137803F00C03082BC0
:10028000FAD1304B03221A7040225A702C4A13784C
:1002900003F02003DBB2002BF9D0294A137803F0D6
:1002A0004003DBB2002BF9D0274A284B1A60284BB9
:1002B00020221A70224A137803F00C030C2BFAD177
:1002C000244B02221A60244A43F8442C234B244A2C
:1002D0001A60072243F8042C62B608F01BF90C4B95
:1002E0001B68DC0702D51F4808F004F90AF0A8FAD9
:1002F00007F037FB08F053FFFEE700BF0E20054074
:1003000030800440823F04000100002B10D00340E5
:1003100014D0034002D007400084FF1FF08AFF1F63
:10032000D8EF0000F08AFF1F6097FF1F08ED00E084
:1003300000E400E05FE400E00050064001400640B9
:10034000064006400440064000000301448004408B
:100350000040064048800440C010050014E000E062
:10036000FF76010019DD0E54FFFFFFFFFFFFFFFFC7
:10037000FFFFFFFFFFFFFFFFFFFFFFFFFFFFFFFF8D
:10038000FFFFFFFFFFFFFFFFFFFFFFFFFFFFFFFF7D
:10039000FFFFFFFFFFFFFFFFFFFFFFFFFFFFFFFF6D
:1003A000FFFFFFFFFFFFFFFFFFFFFFFFFFFFFFFF5D
:1003B000FFFFFFFFFFFFFFFFFFFFFFFFFFFFFFFF4D
:1003C000FFFFFFFFFFFFFFFFFFFFFFFFFFFFFFFF3D
:1003D000FFFFFFFFFFFFFFFFFFFFFFFFFFFFFFFF2D
:1003E000FFFFFFFFFFFFFFFFFFFFFFFFFFFFFFFF1D
:1003F000FFFFFFFFFFFFFFFFFFFFFFFFFFFFFFFF0D
:10040000FFFFFFFFFFFFFFFFFFFFFFFFFEFFFFFFFD
:1004100008B548F6F020074BC1F6FF701B1A062BF3
:1004200000D808BD40F20003C0F20003002BF8D052
:100430009847F6E7F38AFF1F08B548F6F02048F61C
:10044000F023C1F6FF70C1F6FF731B1A9B1003EB7C
:10045000D373591000D108BD40F20002C0F200026F
:10046000002AF8D09047F6E710B548F6F024C1F618
:10047000FF74237873B9FFF7CBFF40F20003C0F29B
:1004800000032BB14EF6D870C0F20000AFF300802D
:100490000123237010BD00BF08B540F20003C0F275
:1004A00000034BB14EF6D87048F6F421C0F20000BC
:1004B000C1F6FF71AFF3008048F6F020C1F6FF707F
:1004C00003682BB140F20003C0F2000303B1984768
:1004D000BDE80840FFF7B0BF10B5044608F040FE85
:1004E000204610BD70B503460D461646074819460E
:1004F0002A4606F037FA002404E0044805F09AFE84
:1005000030550134E3B2AB42F7D370BD7C90FF1F8E
:10051000034670B509480D4619461646002406F0F4
:1005200023F903E0315D05F043FE0134E3B2AB4251
:100530000248F7D3BDE8704006F02BBA7C90FF1F4D
:10054000054B1A78054B53F83220012382F800310D
:10055000034A1360704700BF6490FF1FC8EA0000A1
:100560003C8FFF1F0A4B102210B51A60094B1A78F6
:10057000094B53F83230012483F88040074B187838
:1005800007F0A6FD064B1860064B1C6010BD00BFAF
:10059000C8F00F406490FF1FC8EA0000B48EFF1F30
:1005A000F48FFF1F988BFF1F38B50A480A4D05F0DE
:1005B00087FA0A4B0446186809F086FE0146204671
:1005C00009F08AFF0146286809F0CAFD2860204624
:1005D00038BD00BF788EFF1FDC8CFF1F1884FF1F03
:1005E00038B50A480A4D05F007FA0A4B0446186860
:1005F00009F06AFE0146204609F06EFF01462868B0
:1006000009F0AEFD2860204638BD00BF788EFF1F80
:100610006890FF1F1884FF1F30B5ADF5B05D81B045
:10062000684600214FF4B0520AF032FD00246D46B6
:1006300021462A5D0548013405F06FF9B4F5B05F35
:10064000F6D10DF5017D0DF5A05D30BD7090FF1F59
:1006500038B5044608460D4607F036F923680246C9
:100660005B6820462946984738BD08B5FFF7F0FF7C
:1006700008BD08F075BE9DF80010009108F07CBE22
:1006800038B5044608F004FE0546204608F022FE70
:10069000401938BD38B50446FFF7DAFF0546204655
:1006A00008F018FE281838BD38B5044608F058FE82
:1006B0000546204608F00EFE281838BD37B59DF8CF
:1006C00018100091044608F057FE0546204608F031
:1006D00001FE28183EBD406800B1C0687047FFFFAA
:1006E0000D4B70B540241C60322008F0D5F80B4B40
:1006F0000B4D0C4E1C600C4C31462846FFF7CAFFD0
:1007000031462046FFF7C6FF284608F0E3FD2046A5
:10071000BDE8704008F0DEBDC4F00F40C8F00F40E7
:10072000B095FF1F4CE10000C095FF1F10B51749A1
:100730001748184CFFF799FF17481449FFF795FF22
:10074000236863B915491248FFF7A4FF12481349FB
:10075000FFF7A0FF124B02221A6001230DE0012BCC
:100760000CD110490A48FFF795FF0B480D49FFF7D8
:1007700091FF0D4B02221A6000232360044808F009
:10078000A9FD0548BDE8104008F0A4BD5FE10000E8
:10079000B095FF1F6090FF1FC095FF1F58E100003C
:1007A00084F00F4074E1000088F00F402DE9F74F0E
:1007B000002140F6FF724E4805F0EEFC4D4A04233E
:1007C000202413602246013A7FF4FDAF4A4A4B4F82
:1007D0001360112007F07CFC494B4A4E1C60054613
:1007E0000A2008F059F8112007F072FC83466E20A9
:1007F00008F052F8112007F06BFC434BDFF818911A
:100800001C60424C824621463846FFF72EFF2146A7
:100810003046FFF72AFF284609F056FD3C4909F00B
:100820005BFE09F011F94FF0020804460D460B4635
:100830002246CDF800803846FFF71DFF22462B46A2
:10084000CDF800803046FFF716FF49463846FFF7DF
:100850000CFF49463046FFF708FF584609F034FDC3
:100860002B4909F039FE09F0EFF804460D460B4616
:100870002246CDF800803846FFF7FDFE22462B4683
:10088000CDF800803046FFF7F6FE49463846FFF7C0
:10089000ECFE49463046FFF7E8FE504609F014FDED
:1008A0001B4909F019FE09F0CFF804460B46224611
:1008B000CDF8008038460D46FFF7DDFE2246154C88
:1008C000CDF800802B463046FFF7D5FE214638464E
:1008D000FFF7E0FE21463046FFF7DCFE384608F021
:1008E000F9FC304603B0BDE8F04F08F0F3BC00BFA0
:1008F000488DFF1F88F00F4084F00F40B095FF1F18
:10090000C4F00F40C095FF1FC8F00F407AE100000F
:10091000006013458BE1000079E800002DE9F34702
:1009200007460E460AA80021144698460C9D05F07D
:10093000D2F9002840F3EA8075497648FFF795FE22
:100940002946744808F0A4FC73497248FFF78DFEED
:100950006F497248FFF789FE2946704808F098FCF5
:100960006D496E48FFF781FE2046002109F094FE94
:10097000002840F0BA80204609F066F802270446B5
:100980000D460B46224600976248FFF774FE00971B
:10099000624822462B46FFF76EFE3068002109F0C0
:1009A0007BFE002840F0AA805D495A48FFF75DFEB3
:1009B000404609F049F8044622460B460097554840
:1009C0000D46FFF758FE56495448FFF74EFE009774
:1009D00022462B465148FFF74EFE8FE051494D48C5
:1009E000FFF743FE21460AA805F075F9014649487C
:1009F00008F0B6FC4A494748FFF737FE49494748DF
:100A0000FFF733FE21460AA805F065F90146434881
:100A100008F0A6FC41484249FFF727FE00254FE0B9
:100A200021460AA858F825A005F055F909F04CFC14
:100A3000014650464FEA850909F02EFE00283ED0B7
:100A400057F8090009F000F8022502460B46009508
:100A50003048FFF710FE57F8090008F0F5FF009541
:100A600002460B462D48FFF706FE3068002109F0CC
:100A700013FED8B92A492748FFF7F7FD56F80900B1
:100A800008F0E2FF009502460B462248FFF7F3FD0F
:100A900023492248FFF7E9FD56F8090008F0D4FF82
:100AA000009502460B461D48FFF7E5FD1E49194813
:100AB000FFF7DBFD1C491948FFF7D7FD02E00135C0
:100AC0001A2DADD1012007F0E7FE0AA8FFF703FEBB
:100AD0000138844207D012490E48FFF7C6FD0F487F
:100AE0000F49FFF7C2FD013402E0DFF84480002423
:100AF0000AA8FFF7F0FD8442FFF670AF0B490548E6
:100B0000FFF7B3FD05480949FFF7AFFDBDE8FC87D6
:100B100076E80000B095FF1F53E60000C095FF1F68
:100B200079E8000056E600008EE1000090E1000048
:100B30002884FF1F10B52820002107F099FD2821E7
:100B40000A2200230A4808F0D3FB094808F0C2FB38
:100B50006424282007F0BCFA01460548FFF7A4FDED
:100B60004FF4FA6007F098FE013CF2D110BD00BFCF
:100B7000B095FF1F012801D8FFF716BD7047012867
:100B800001D8FFF72DBD704701282DE9F8438CBF30
:100B9000002401240CB903283DD1204805F0CAFAED
:100BA00005461E4805F0BFFA80461C4805F0B4FA19
:100BB00007461A4805F0A9FA81464CB3184B194E5E
:100BC0001C68B5FBF4F009F07BFB0146306809F0C6
:100BD000C7FA3060B8FBF4F009F072FB124E014620
:100BE000306809F0BDFA3060B7FBF4F009F068FB3B
:100BF0000E4E0146306809F0B3FA3060B9FBF4F0EC
:100C000009F05EFB0A4E0146306809F0A9FA30602F
:100C10002846BDE8F883BDE8F88300BF7C8EFF1F3F
:100C20001884FF1F488FFF1F588FFF1FB08EFF1FB4
:100C3000C08EFF1F2DE9F74F2A4DDFF8B4B0DFF863
:100C4000B4A0294EDFF8B090DFF8B080274C5946A9
:100C50002846FFF70AFDDAF8000008F0F5FE022743
:100C600002460B4600972846FFF705FD3146284609
:100C7000FFF7FBFC49462846FFF7F7FCD8F80000D1
:100C800008F0E2FE009702460B462846FFF7F3FC09
:100C900059462046FFF7E9FCDAF8000008F0D4FED8
:100CA000009702460B462046FFF7E5FC31462046FA
:100CB000FFF7DBFC49462046FFF7D7FCD8F80000D9
:100CC00008F0C2FE009702460B462046FFF7D3FC11
:100CD00031462846FFF7C9FC20463146FFF7C5FCE0
:100CE000BDE8FE8FB095FF1F79E80000C095FF1F9B
:100CF00093E100009484FF1FA2E10000108BFF1F0E
:100D00002DE9F0410D468CB004462848DFF8A88054
:100D1000164607F09DFF2946254807F099FF202237
:100D2000002104A80AF0B4F92046002108F08DF84B
:100D3000204B1A680192019D1A680292029A1F467E
:100D40000AE03B680393039AD8F80030521B9A429A
:100D500002DDFFF7C5FC05E006F0E8FC10B906F07F
:100D6000BDFFE0B106F0E2FC002805DD06F0C0FCA6
:100D70005B2817D00D4808E006F0B0FF002811DD11
:100D800006F0D2FF5B280DD009482B2104AA2023AE
:100D900007F060FF204604A908F08FF802E0012E5A
:100DA000DAD1CEE720460CB0BDE8F081B095FF1F48
:100DB000C095FF1F2895FF1F2084FF1F2DE9F041DC
:100DC000064690B02448314607F042FF234831469A
:100DD00007F03EFF2022002108A80AF059F904A8D4
:100DE000002108F032F81E4B1A680192019F1A6820
:100DF0000292029A984606F099FC10B906F06EFF2E
:100E0000C8B106F093FC002801DD134804E006F0A9
:100E100065FF002817DD114808AA20232B2107F0C1
:100E200019FF08A904A808F048F8049809F0B2FCD2
:100E300004460D4607E0D8F800300393039BDB1B04
:100E4000B342D8DDDDE704A807F0BEFF20462946FF
:100E500010B0BDE8F08100BFB095FF1FC095FF1F27
:100E60002895FF1F08B5064B196809F077F9054B5F
:100E7000196809F031FB09F041FC09F025FA08BDB9
:100E8000108BFF1F9484FF1F2DE9F0411D4D064676
:100E900088460024304609F017FA014655F8240028
:100EA00009F0FAFB30B1184B53F82450174B53F8A4
:100EB000244004E001341A2CECD1002425462046BD
:100EC0000021012709F0E8FB00B10027FFB247B974
:100ED00028460021012609F0DFFB00B13E46F6B2AC
:100EE00066B1404609F0F0F9214609F037F9294684
:100EF00009F0F2FA09F028FCBDE8F0813046BDE8BF
:100F0000F08100BF2884FF1FE08CFF1F648FFF1F4C
:100F100073B50D460446334933481646FFF7A5FB23
:100F20002146314808F0B4F930492F48FFF79DFBBE
:100F30002C492F48FFF799FB21462D4808F0A8F9C6
:100F40002A492B48FFF791FB286808F07DFD022411
:100F500002460B4600942448FFF78DFB286808F0F2
:100F600073FD009402460B462148FFF784FB21499C
:100F70001D48FFF77AFB1F491D48FFF776FB68689D
:100F800008F062FD009402460B461748FFF773FB1A
:100F9000686808F059FD009402460B461448FFF7B4
:100FA0006AFB15491048FFF760FB11481249FFF72B
:100FB0005CFB012E0C4805D00E49FFF76BFB0C487B
:100FC0000C490CE00D49FFF765FB0D490648FFF79A
:100FD00061FB0A490648FFF75DFB05480849FFF732
:100FE00059FB7CBD76E80000B095FF1FC1E500000D
:100FF000C095FF1F79E800008EE100005DE1000070
:1010000059E20000F7B504460D462E482E49174612
:10101000FFF72BFB21462B4808F03AF92B492948CA
:10102000FFF723FB28492A48FFF71FFB21462848E2
:1010300008F02EF926482549FFF717FB0024022661
:10104000286808F001FD009602460B461D48FFF790
:1010500012FB55F8040B08F0F7FC009602460B460D
:101060001B48FFF708FB192C07D01A491548FFF752
:10107000FCFA17481749FFF7F8FA01341A2CDFD1A8
:1010800015491048FFF7F1FA11481349FFF7EDFA37
:10109000012F0C4805D00F49FFF7FCFA0C480D4909
:1010A0000CE00E49FFF7F6FA0D490648FFF7F2FA91
:1010B0000A490748FFF7EEFA05480949FFF7EAFA37
:1010C000FEBD00BFB095FF1F76E80000C1E500003F
:1010D000C095FF1F79E800008EE100005DE100008F
:1010E00059E2000010B509F0EFF80B4B19680446FF
:1010F00009F03EF9094B196809F032F8084B1860FD
:10110000084B2046196809F033F9074B196809F0B4
:1011100027F8064B186010BD988EFF1F9C8BFF1F91
:10112000408FFF1F9C8EFF1FA08BFF1F448FFF1F50
:101130002DE9F743054638B953495448FFF795FA66
:1011400053485149FFF791FADFF8689151494F48E8
:10115000DFF86481504F514EFFF787FAD9F800004D
:1011600008F072FC022402460B4600944748FFF741
:1011700082FA4B494548FFF778FA4A494348FFF756
:1011800074FAD8F8000008F05FFC009402460B46A1
:101190003E48FFF770FA42493C48FFF766FA424979
:1011A0003A48FFF762FA386808F04EFC00940246AD
:1011B0000B463648FFF75FFA39493448FFF755FACE
:1011C0003A493248FFF751FA306808F03DFC009484
:1011D00002460B462D48FFF74EFA2E492C48FFF7E2
:1011E00044FAD9F8000008F02FFC009402460B46A0
:1011F0002748FFF740FA2A492548FFF736FA2949D8
:101200002348FFF732FAD8F8000008F01DFC0094DC
:1012100002460B461E48FFF72EFA21491C48FFF7ED
:1012200024FA21491A48FFF720FA386808F00CFC24
:10123000009402460B461648FFF71DFA1849144859
:10124000FFF713FA19491248FFF70FFA306808F050
:10125000FBFB009402460B460D48FFF70CFA012DEC
:101260000A4807D10E49FFF700FA0D490848FFF771
:10127000FCF906E00E49FFF70DFA05480C49FFF7A7
:1012800009FABDE8FE8300BFB7E10000B095FF1F7B
:10129000C095FF1FB9E100009C8EFF1FA08BFF1FB0
:1012A00079E80000C5E10000D6E10000E2E10000BD
:1012B0005DE10000988EFF1F9C8BFF1F7FB5244BC4
:1012C0001A680192019D1A6802920C46029A1E4603
:1012D0001DE007211F4805F059FC322007F0DCFA19
:1012E00033680393039B5B1BA34210DD1A491B4821
:1012F000FFF7BBF918491A48FFF7B7F9194917481A
:10130000FFF7B3F917491648FFF7AFF914E005F0F6
:1013100055FC0028DDD00FE001340A2C09DD01E086
:1013200005F05AFC05F04AFC0028F9D100240E4DC6
:1013300007E0322007F0B0FA05F040FC0628EBDDAC
:10134000F4E705F049FC28550134072CF9D17FBD9D
:101350002895FF1F0884FF1FF3E10000B095FF1FD1
:10136000C095FF1F79E80000D48FFF1F08B5C27831
:10137000007900EB022008F0A3FF034B196808F086
:10138000F7FF09F0E1F908BD1084FF1F38B54FF4ED
:10139000FA610C480C4DFFF791FF0C48FFF7E6FF90
:1013A0000446642007F078FA094B1868B4FBF0F0A3
:1013B00008F086FF0146286808F0D2FE2860204623
:1013C00038BD00BF0884FF1F608EFF1FD48FFF1F32
:1013D0001884FF1F012801D8FFF7D8BF704738B520
:1013E0000546002413E04FF47A7007F055FA06F032
:1013F0007FF931280AD1052007F04EFA01E006F006
:101400004FF906F093F90028F9DC2C460134AC4280
:10141000E9DB38BDFFFFFFFF2DE9F74F7C4E30467B
:1014200004F0C0FA08F0FEFA044630460D4604F017
:10143000B3FA08F0F7FA62A3D3E9002308F058FBE7
:101440000022744B08F07EFC0022724B08F07AFCFC
:10145000002206460F46204629466F4B08F048FBFF
:1014600059A3D3E9002308F091F959A3D3E9002344
:1014700082468B4608F088F957A3D3E90023044637
:101480000D4608F035FB0022644B08F07FF954A3A9
:10149000D3E90023804689462046294608F028FBE8
:1014A00022462B4608F024FB02460B46404649469E
:1014B00008F06CF95A4B80461868894608F0C4FA5F
:1014C00002460B464046494608F012FB46A3D3E9C4
:1014D000002308F037FC0022CDE900014D4B3046D7
:1014E000394608F02FFC42A3D3E900238046894601
:1014F0002046294608F0FCFA3FA3D3E9002308F070
:1015000043F93FA3D3E9002306460F462046294668
:1015100008F0EEFA22462B4608F0EAFA02460B469D
:101520003046394608F032F902460B4640464946F5
:1015300008F02AF9524604460D465B465046594685
:1015400008F0D6FA52465B4608F0D2FA52465B469D
:1015500008F0CEFA2CA3D3E9002306460F46204616
:10156000294608F0C5FA22462B4608F0C1FA024681
:101570000B462046294608F009F91BA3D3E90023AE
:1015800004460D46DDE9000108F0DCFB02460B468F
:101590002046294608F0D6FB02460B46304639461F
:1015A00008F0F4F807F0A6FF07F0A4FF06A3D3E9BC
:1015B000002308F0E9F803B0BDE8F08FAFF3008036
:1015C000000000000088634066666666661271402F
:1015D0006666666666A2724079E9263108AC5C3FB1
:1015E000E446D3D15898F1BE00000000D012634108
:1015F000E43C73414320A3BE4DB1B49D00D4FE3EF4
:1016000075466524BDE2333ECDCCCCCCCCCC2A4053
:10161000548FFF1F00408F400000A03F0000F03FAC
:101620001484FF1FAFF3008070B5FFF7F5FE08F0DC
:1016300041FD04461E4804F0BDF94FF47A6007F0FE
:101640002BF920461B49012609F04EF800B9002667
:10165000F6B24EB920461849012509F027F800B91D
:10166000354615F0FF0F13D0144B154C154916488D
:101670001C60FEF7FAFF13491448FEF7F6FF144901
:101680001148FEF7F2FF12491048FEF7EEFF0DE099
:10169000104B0A4D186808F017FE0146204608F066
:1016A0001BFF0146286808F05BFD2860204670BDDE
:1016B000548FFF1F00007A44000070C2BC8EFF1FD1
:1016C0000000C6C211E20000B095FF1FC095FF1FC9
:1016D00079E800001884FF1F012801D8FFF7A4BF94
:1016E000704708B501E005F0DBFF06F01FF80028A1
:1016F000F9DC01E006F000FB06F0F0FA0028F9DC66
:1017000008BDFFFFF7B54EF66020FFF757FB044614
:101710000D46B648B649FEF7A8FFB549B548FEF7ED
:10172000A4FF204629460022002308F049FC002897
:1017300040F03D820226009622462B46AB48FEF73B
:101740009AFF22462B460096AA48FEF794FFAA4924
:10175000A648FEF78AFFA849A648FEF786FF05F0CF
:101760009FFF05F09DFFA54BA04820221A60802214
:101770001A6007F0AFFDA2499C48FEF776FF0021F2
:101780009A48FEF791FF99489E49FEF783FF00268D
:1017900040F6FE77B2B200219B4804F0FDFC3146D2
:1017A0009248FEF766FF94499048FEF75EFF3220AC
:1017B00007F072F8304608F035F922462B4607F05C
:1017C000E5FF08F02FFCB8420646E3DD8F4B874863
:1017D00080221A6007F07EFD89498448FEF745FFA4
:1017E00001218248FEF760FF80488949FEF752FFD9
:1017F000002640F6FE77B2B20121834804F0CCFC0B
:1018000031467A48FEF735FF7B497848FEF72DFFD1
:10181000322007F041F8304608F004F922462B4602
:1018200007F0B4FF08F0FEFBB8420646E3DD774B55
:101830006E4820221A60012243F8042C802243F8CB
:10184000042C07F047FD6E496848FEF70EFF0021A3
:101850006648FEF729FF65486E49FEF71BFF002624
:1018600040F6FE77B2B20021674804F095FC31469D
:101870005E48FEF7FEFE60495C48FEF7F6FE322049
:1018800007F00AF8304608F0CDF822462B4607F05C
:101890007DFF08F0C7FBB8420646E3DD5B4B5348CB
:1018A00080221A6007F016FD55495048FEF7DDFE0C
:1018B00001214E48FEF7F8FE4C485749FEF7EAFE74
:1018C000002640F6FE77B2B201214F4804F064FCD6
:1018D00031464648FEF7CDFE47494448FEF7C5FE6F
:1018E000322006F0D9FF304608F09CF822462B46FD
:1018F00007F04CFF08F096FBB8420646E3DD434B89
:101900003A48012202261A6043F8046C07F0E2FC10
:101910003B493648FEF7A9FE31463448FEF7C4FE7F
:1019200032483E49FEF7B6FE002640F6FE77B2B2D8
:101930000221354804F030FC31462C48FEF799FE70
:101940002D492A48FEF791FE322006F0A5FF3046C9
:1019500008F068F822462B4607F018FF08F062FBF3
:10196000B8420646E3DD294B2048102202261E60BD
:1019700043F8442C07F0AEFC21491C48FEF775FEE5
:1019800031461A48FEF790FE18482549FEF782FEB8
:10199000002640F6FE77B2B202211B4804F0FCFBA1
:1019A00031461248FEF765FE13491048FEF75DFE0A
:1019B000322006F071FF304608F034F822462B46FC
:1019C00007F0E4FE08F02EFBB8420646E3DD154BB7
:1019D0000648102201261A6043F8046C07F07AFCCE
:1019E00007490248FEF741FE31461DE0B095FF1F52
:1019F0003CE20000C095FF1F79E80000C4F00F40F2
:101A00004BE200005AE20000488DFF1FC8F00F4073
:101A10007BE200009DE20000BEE20000E0E2000088
:101A2000F4E2000088F00F406A48FEF73DFE694886
:101A30006949FEF72FFE002640F6FE77B2B2032179
:101A4000664804F0A9FB31466248FEF712FE64497D
:101A50006048FEF70AFE322006F01EFF304607F00F
:101A6000E1FF22462B4607F091FE08F0DBFAB84270
:101A70000646E3DD5B4B574801261E6043F8446C85
:101A800007F028FC58495348FEF7EFFD314651480E
:101A9000FEF70AFE4F485549FEF7FCFD002640F6CA
:101AA000FE77B2B203214D4804F076FB3146494837
:101AB000FEF7DFFD4A494748FEF7D7FD322006F022
:101AC000EBFE304607F0AEFF22462B4607F05EFEE7
:101AD00008F0A8FAB8420646E3DD454B3D484022EF
:101AE00001261E60DA6307F0F5FB3F493948FEF72F
:101AF000BCFD31463748FEF7D7FD36483D49FEF775
:101B0000C9FD002640F6FE77B2B20321334804F047
:101B100043FB31462F48FEF7ACFD31492D48FEF717
:101B2000A4FD322006F0B8FE304607F07BFF2246C7
:101B30002B4607F02BFE08F075FAB8420646E3DDA7
:101B4000284B244840221A60802243F8042C07F0D6
:101B5000C1FB25491F48FEF788FD01211D48FEF7FE
:101B6000A3FD1C482449FEF795FD002640F6FE77AC
:101B7000B2B20321194804F00FFB31461548FEF7B5
:101B800078FD17491348FEF770FD322006F084FEF9
:101B9000304607F047FF22462B4607F0F7FD08F0D6
:101BA00041FAB8420646E3DD0E4B80221A60FFF789
:101BB00098FD12490748FEF76DFD11490548FEF7EB
:101BC00069FD0E490F48FEF765FD0D490D48FEF70A
:101BD00061FDFEBDB095FF1F08E30000488DFF1FAB
:101BE00079E8000088F00F404BE200001AE30000A3
:101BF00048F00F402CE300003EE300005CE10000F1
:101C000059E20000C095FF1F70B58EB006F074F861
:101C1000061E24DD642006F03FFE002401AD66555B
:101C200006F06AF80134262C0646F7D1124E00243D
:101C3000284631688DF82A40252209F0E3FDC0B11D
:101C40000E490F48FEF711FD31680D48FEF722FDE1
:101C50000C490B48FEF709FD0948294605E00A49E9
:101C60000748FEF717FD06480849FEF713FD002058
:101C700000E001200EB070BD2484FF1F50E300007F
:101C8000B095FF1F73E3000096E30000CCE3000073
:101C900030B54949494885B0FEF7E7FC4649484810
:101CA000FEF7E3FC002268464EF66021FFF728F8B5
:101CB0004EF66020FFF782F804460D460D20012104
:101CC00006F0D6FC2946204608F0ACF9430803F19B
:101CD000376303F5D833B3FBF0F005F0A9FE01211B
:101CE0000D2006F099FC4FF47A7006F0D5FD3549C9
:101CF0003348FEF7BAFC4FF47A7006F0CDFD324956
:101D00002F48FEF7B2FC4FF47A7006F0C5FD2F495C
:101D10002A48FEF7AAFC40F2D2412848FEF7C4FC4C
:101D20002B492748FEF7A1FC40F2D2412448FEF798
:101D3000A0FC4FF47A7006F0AFFD26491F48FEF76D
:101D400094FC69461D48FEF79BFC23491C48FEF79E
:101D50008CFC69461A4807F09BFA4FF47A7006F03B
:101D60009BFD1E491548FEF795FC1D491448FEF7DA
:101D70007CFC4FF47A7006F08FFDFFF745FF18B139
:101D80000E481849FEF786FC0D20002106F044FCA1
:101D900015490A48FEF77EFC13490948FEF77AFC0C
:101DA000064807F097FA064807F094FA684607F0E5
:101DB0000BF805B030BD00BF3CE20000B095FF1F3E
:101DC000C095FF1FF4E30000F7E3000002E4000009
:101DD00011E4000018E4000027E400002FE40000F4
:101DE00044E400004DE400005CE100002DE9F04116
:101DF0001428884614461F46069E01D002281CD18E
:101E00002146324803F067FF002821462F4803DDB2
:101E100003F061FF2E4B40E003F05DFF002802DB82
:101E20000020BDE8F081B8F1000FF9DD384600214F
:101E300008F05AFC00283FD1F2E7A0F10B03012B78
:101E400003D9A0F10F03012B18D82146214803F034
:101E500042FF002821461F4803DD03F03CFF1E4BD4
:101E60001BE003F038FF0028DADAB8F1000FD7DD05
:101E70003846002108F038FC00BBD1E720F004050B
:101E80000A2DCDD11146154803F025FF0028214623
:101E9000124804DD03F01FFF114B186012E003F03D
:101EA0001AFF0028BCDAB8F1000FB9DD384600216E
:101EB00008F01AFC20B9B3E7054B02E0064B00E03E
:101EC000074B1E600120BDE8F08100BF4C8FFF1F53
:101ED000B88EFF1FA48EFF1F8C8EFF1F908EFF1FDA
:101EE000A08EFF1F70B50446142C1846049D059A59
:101EF00001D0022C0ED1002A02DD204800212AE068
:101F0000002937DD002108F0EFFB002835D01B4801
:101F100000212AE0A4F10B03012B06D9A4F10F063E
:101F2000012E8CBF002601266EB1002A02DD134867
:101F3000032110E000291DDD002108F0D5FBE0B1F0
:101F40000E48032111E024F004040A2C12D1002AC7
:101F500003DD0A48022192B208E000290CDD0021CD
:101F600008F0C2FB48B105480221AAB204F014F9F6
:101F7000012070BD002070BD304670BD488DFF1F30
:101F800010B5084C0520214606F000FB0320214631
:101F900006F0FCFA19204FF4F471BDE8104006F089
:101FA000F5BA00BF6CDC020070B506460D46002491
:101FB000A119044803F0AEFC28550134042CF7D1D4
:101FC000204670BD7090FF1F70B506460D46002478
:101FD000A1192A5D0348013403F09FFC042CF7D1BA
:101FE000204670BD7090FF1FF7B55F4E5F49604D92
:101FF00007466048FEF739FB306807F025FD0224EC
:1020000002460B4600945B48FEF735FB5A49594897
:10201000FEF740FB59495748FEF727FB50A3D3E989
:10202000002300945348FEF726FB53495148FEF71E
:1020300031FB53494F48FEF718FB286807F004FDB1
:10204000009402460B464B48FEF715FB4D494948A4
:10205000FEF720FB474807F03DF944494A48FEF7A0
:1020600004FB306807F0F0FC009402460B4646483B
:10207000FEF701FB40494448FEF70CFB3F4942484C
:10208000FEF7F3FA36A3D3E9002300943E48FEF7A7
:10209000F2FA39493C48FEF7FDFA39493A48FEF769
:1020A000E4FA286807F0D0FC009402460B46364854
:1020B000FEF7E1FA33493448FEF7ECFA324807F00C
:1020C00009F9012F44D14EF66020FEF777FE07F0A4
:1020D000F1FF306007F0B8FC009402460B4625483B
:1020E000FEF7ECFA306807F0AFFC009402460B46AE
:1020F0002548FEF7E3FA3068244908F0CDFA38BBEA
:1021000031460C20FFF760FF4EF66020FEF756FECA
:1021100007F0D0FF286007F097FC009402460B46BA
:102120001448FEF7CBFA286807F08EFC00940246AC
:102130000B461548FEF7C2FA2868144908F0ACFAB5
:1021400030B914202946FFF73FFF0020FFF74CFF6E
:10215000012006F0A1FB03B0BDE8F040FFF7C1BAD3
:102160001F85EB51B81ED53F188BFF1F64E400009C
:102170000C8BFF1FB095FF1F79E8000073E400008F
:1021800088E400005DE10000C095FF1F000080BFF3
:102190002DE9F34102ADDFF8308045F8041D064615
:1021A00017460024304608F08FF8014654F808001E
:1021B00008F072FA18B1E0192946FFF705FF043458
:1021C000682CEFD1BDE8FC812884FF1F2DE9F34185
:1021D00002ADDFF8308045F8041D0646174600249E
:1021E000304608F071F8014654F8080008F054FA37
:1021F00018B1E0192946FFF7E7FE0434682CEFD147
:10220000BDE8FC812884FF1F30B540F2836085B0B3
:1022100005F00EFC42F2107004F0D2FB4FF4FA709D
:10222000002406F039FB072322460193504800940E
:102230002346214604F002F94E484F4D41F28831C1
:1022400003F08CFF4D484E4903F0C6FE4B484D4904
:1022500003F092FE2146494803F087FE474803F009
:102260001FFF1D20012106F003FA0320214606F07E
:10227000FFF90F20012106F0FBF91020012106F0E3
:10228000F7F90B20012106F0F3F90C20012106F0EB
:10229000EFF91420012106F0EBF90220012106F0EC
:1022A000E7F90E20012106F0E3F90A20012106F0EA
:1022B000DFF90520012106F0DBF9334B80221A609B
:1022C0000620012106F0D4F91520012106F0D0F9ED
:1022D0001620012106F0CCF91120214606F0C8F99C
:1022E0002A4B40221A6002232B6001210D2006F0A8
:1022F000BFF9012005F0C2FE2220214606F0B8F900
:102300002146232006F0B4F9102005F08DFE204B65
:1023100020494FF4803203201A6006F037F9052077
:102320001C4906F033F91720012106F0A1F904A990
:1023300004232B60002341F8083D1020FFF734FEF2
:10234000029807F081FB08A3D3E9002307F038FEC9
:1023500030B904A9104B102041F8043DFFF734FEBA
:1023600005B030BDAFF300801F85EB51B81ED53FDF
:102370007C90FF1F488DFF1F84F00F407C8EFF1F55
:102380000000484300002F44C4F00F40C8F00F4045
:10239000148BFF1F6CDC0200C3F5A83EAFF3008076
:1023A000F8B507460E46002441F21055E119325D9A
:1023B0000348013403F0B1FAAC42F7D12046F8BD2E
:1023C0007090FF1F00B5ADF5A85D85B010B9FEF7A0
:1023D00023F909E00021684641F2105208F058FE46
:1023E0003C206946FFF7DCFF45B00DF5A05D00BD60
:1023F00070B506460D460024A119044803F08AFA78
:1024000028550134082CF7D1204670BD7090FF1F6D
:1024100070B506460D460024A119044803F07AFA67
:1024200028550134682CF7D1204670BD7090FF1FED
:102430001FB50446B5490020FFF7B6FD0420B44996
:10244000FFF7B2FD0820B349FFF7AEFD0C20B249FB
:10245000FFF7AAFD1420B149FFF7A6FD1820B049E7
:10246000FFF7A2FD1C20AF49FFF79EFD2020AE49DB
:10247000FFF79AFD2420AD49FFF796FD2820AC49CF
:10248000FFF7B6FF3C20AB49FFF7C2FFB420AA49D3
:10249000FFF7BEFFA9494FF49670FFF7B9FFA849AF
:1024A0004FF4D270FFF7B4FFA6494FF40770FFF75F
:1024B000AFFFA5494FF42570FFF7AAFFA3494FF4DA
:1024C0005C70FFF7A5FFA2494FF47A70FFF7A0FFF9
:1024D000A0494FF48C60FFF79BFF9F494FF49B602E
:1024E000FFF796FF9D494FF4AA60FFF781FF9C49D3
:1024F0004FF4AB60FFF77CFF9A494FF4AC60FFF7F5
:1025000077FF99494FF4AD60FFF772FF97494FF499
:10251000AE60FFF76DFF4FF4AF609549FFF768FFBE
:10252000012C40F0538193499348FEF79EF891495E
:102530009248FEF79AF82046FEF7FAFD8E4806F01C
:10254000C9FE8E4806F0C6FE2046FEF773FB8A4899
:1025500006F0C0FE894806F0BDFE8949684606F0CF
:1025600074FC002287496846FEF74CFD684606F079
:102570002BFC8549684606F068FC00226D496846D8
:10258000FEF740FD684606F01FFC8049684606F0ED
:102590005CFC002268496846FEF734FD684606F098
:1025A00013FC7B49684606F050FC002263496846EC
:1025B000FEF728FD684606F007FC7649684606F0F7
:1025C00044FC00225E496846FEF71CFD684606F0A2
:1025D000FBFB7149684606F038FC00225949684601
:1025E000FEF710FD684606F0EFFB6C49684606F002
:1025F0002CFC002254496846FEF704FD684606F0AC
:10260000E3FB6749684606F020FC00224F49684614
:10261000FEF7F8FC684606F0D7FB6249684606F00C
:1026200014FC00224A496846FEF7ECFC684606F0B6
:10263000CBFB5D49684606F008FC00224549684628
:10264000FEF7E0FC684606F0BFFB5849684606F016
:10265000FCFB002240496846FEF7D4FC684606F0C1
:10266000B3FB5349684606F0F0FB00223049684648
:10267000FEF74EFC684606F0A7FB4E49684606F09A
:10268000E4FB002235496846FEF742FC684606F046
:102690009BFB4949684606F0D8FB00223049684652
:1026A000FEF736FC684606F08FFB4449684606F0A4
:1026B000CCFB00222B496846FEF72AFC684606F050
:1026C00083FB3F49684606F0C0FB00222649684666
:1026D000FEF71EFC684606F077FB3A49684606F0AE
:1026E000B4FB002221496846FEF712FC684606F05A
:1026F0006BFB3549684606F0A8FB68461C49224634
:10270000FEF706FC684606F05FFB5FE01484FF1FDF
:102710009484FF1F108BFF1F188BFF1F0C8BFF1F54
:10272000988EFF1F9C8BFF1F9C8EFF1FA08BFF1F8F
:102730005C8FFF1FE08CFF1F648FFF1FC48EFF1F85
:10274000308BFF1FF88FFF1F748CFF1FA48BFF1FA0
:102750000C8CFF1F7C8DFF1FE48DFF1F2C8FFF1F34
:10276000CC8FFF1F348FFF1FDC8FFF1FE48FFF1FF5
:10277000EC8FFF1FB7E10000B095FF1FC095FF1F52
:102780009DE400002884FF1FA6E40000B8E40000D8
:10279000C9E40000E3E40000FCE4000017E50000E9
:1027A00031E5000044E5000057E500006AE500005F
:1027B00083E7000090E700009DE70000AAE7000023
:1027C000B7E70000C4E70000D1E700001FBD00BF6D
:1027D0002DE9F34101204EF66028FFF729FE40461F
:1027E000FEF7ECFA07F066FC234F244E386007F042
:1027F0002BF9062402460B4600943046FDF73BFFBA
:1028000038681F4D07F020F9009402460B46284611
:10281000FDF731FF39460420FFF7D6FB4046FEF7AF
:10282000CDFA07F047FC174F386007F00DF9009418
:1028300002460B463046FDF71EFF386807F004F9E4
:10284000009402460B46104C2846FDF714FF39460B
:102850000820FFF7B9FB21463046FDF71BFF214654
:102860002846FDF717FFFEF73CFF012002B0BDE848
:10287000F041FFF7DDBD00BF9484FF1FB095FF1F3F
:10288000C095FF1F108BFF1F7DE500002DE9F34170
:102890004EF660270120FFF7CBFD3846FEF78EFA93
:1028A00007F008FCDFF808813E4EC8F8000007F08A
:1028B000CBF8022402460B4600943046FDF7DBFEBF
:1028C000D8F80000384D07F0BFF8009402460B46D8
:1028D0002846FDF7D0FE41461820FFF775FB384625
:1028E000FEF76CFA07F0E6FBDFF8C880C8F80000D6
:1028F00007F0AAF8009402460B463046FDF7BBFEEF
:10290000D8F8000007F0A0F8009402460B462846CD
:10291000FDF7B1FE41461C20FFF756FB3846FEF797
:102920004DFA07F0C7FBDFF89080C8F8000007F009
:102930008BF8009402460B463046FDF79CFED8F813
:10294000000007F081F8009402460B462846FDF788
:1029500092FE41462020FFF737FB3846FEF72EFA5D
:1029600007F0A8FB114F386007F06EF8009402469C
:102970000B463046FDF77FFE386807F065F8009497
:1029800002460B462846FDF776FE24203946FFF71F
:102990001BFBFEF7A6FE012002B0BDE8F041FFF7E9
:1029A00047BD00BFB095FF1FC095FF1FA08BFF1F45
:1029B000988EFF1F9C8BFF1F9C8EFF1F7FB50646C6
:1029C0000120FFF735FD002406254EF66020FEF7B6
:1029D000F5F907F06FFB039007F036F80095024613
:1029E0000B460C48FDF747FE039807F02DF80095BD
:1029F00002460B460848FDF73EFEA01903A9043421
:102A0000FFF7E2FA082CE0D1FEF76BFE0120FFF79A
:102A10000FFD7FBDB095FF1FC095FF1F2DE9F34748
:102A200080460120FFF704FD4EF66020FEF7C6F950
:102A300007F0F8FA064631462C48FDF735FE2C48DB
:102A40003146FDF731FE731C47D04EF66020FEF78D
:102A5000B5F907F02FFB814606F0F6FF062704467E
:102A60000D460B46224600972048FDF727FE0097AB
:102A70001F4822462B46FDF721FE48461D4907F018
:102A80000BFE50BB4EF66020FEF798F907F012FBE4
:102A9000824606F0D9FF04460D460B4622460097B3
:102AA0001248FDF70BFE0097114822462B46FDF712
:102AB00005FE50460F4907F0EFFD70B93046494614
:102AC0004246FFF783FB3046514608F17802FFF794
:102AD0005FFB012005F0E0FEA6E7FEF702FE012005
:102AE00002B0BDE8F047FFF7A3BC00BFB095FF1FE1
:102AF000C095FF1F000080BF2DE9F04FAA4BAB4CE3
:102B000004221A6085B00021064640F6FF72A848EC
:102B100003F042FB8025012140F6FF72A44803F038
:102B20003BFB022140F6FF722560A14803F034FB15
:102B3000032140F6FF729E4803F02EFB9D4B1D6063
:102B4000FEF7CFFD622E2CD10020FFF771FC274647
:102B50004EF66020FEF732F90022974B04460D46F0
:102B600007F02EFAB8B9FEF7BCFD2946204607F05B
:102B700081FA002182B28E4803F00EFB002320462A
:102B80002946002207F01CFA202310B9894A136055
:102B9000DEE73B60DCE7FEF7A4FD844B20221A60F1
:102BA0006FE0632E6DD10020FFF742FC4EF66020EF
:102BB000FEF704F907F036FA8049DFF824A28046D0
:102BC0007F48FDF752FD7D497E48FDF74EFD00210F
:102BD0000A46774803F0E0FA75480321002203F023
:102BE000DBFA00275FFA88FB40E05AF83B3083F8B5
:102BF00000410BE01FFA89F4002122466C4803F0E3
:102C0000CBFA6B480321224603F0C6FA384606F099
:102C10001BFF04460D460221009122462B466848C0
:102C20000391FDF728FD03996648009122462B4643
:102C3000FDF721FD64496248FDF717FD62496148CF
:102C4000FDF713FD49465E48FDF713FD49465D4813
:102C5000FDF70FFD5C495A48FDF71CFD59485A49DC
:102C6000FDF718FD4FF47A7005F016FE04F05EFDD6
:102C7000022800F3578105F031F8022840F35D8106
:102C800050E10027FEF72DFD642E01D1FEF73AFD3D
:102C9000FEF727FD652E14D14C494948FDF7E5FCA8
:102CA00048484A49FDF7E1FC4FF0020804F03EFDB8
:102CB000022800F3478205F011F8022840F35981F9
:102CC00040E2662E14D142493D48FDF7CEFC3D4816
:102CD0003F49FDF7CAFC4FF0020804F027FD022827
:102CE00000F3308204F0FAFF022840F3698129E200
:102CF000672E14D137493248FDF7B7FC31483549C2
:102D0000FDF7B3FC4FF0020804F010FD022800F3B9
:102D1000198204F0E3FF022840F3768112E2682E64
:102D200014D12D492648FDF7A0FC26482A49FDF775
:102D30009CFC4FF0020804F0F9FC022800F3028228
:102D400004F0CCFF022840F38181FBE1692E14D10D
:102D50001E491B48FDF789FC1A481C49FDF785FCF4
:102D60004FF0020804F0E2FC022800F3EB8104F0CB
:102D7000B5FF022840F3A081E4E16A2E32D1174961
:102D80001048FDF772FC0E481449FDF76EFC4FF039
:102D9000020804F0CBFC022800F3D48104F09EFF6B
:102DA000022840F3AE81CDE188F00F40C8F00F401B
:102DB000488DFF1FC4F00F400000F0BF80E5000009
:102DC000B095FF1FC095FF1F79E8000090E5000057
:102DD000A5E50000B4E50000C5E50000DCE5000065
:102DE000C8EA0000731E202B40D8A949A948DFF883
:102DF000B082FDF73AFCA848A549FDF736FC4EF62F
:102E00006020FDF7DBFF07F00DF9411C054624D0DB
:102E1000ACB2FEF766FC00212246A04803F0BCF9E4
:102E2000012122469D4803F0B7F9022122469B4822
:102E300003F0B2F922469948032103F0ADF958F89E
:102E40003620012382F8803058F8362015B182F8F8
:102E50008030D4E782F80031D1E7FEF742FC904B96
:102E600053F83630012283F8002135E0A6F1220321
:102E7000032B31D8DFF83C828A4D874806F02AFAC6
:102E8000844806F027FA4EF66020FDF797FF07F01A
:102E9000C9F8421C1ED01023C8F8003018B14001F8
:102EA00001387FF4FDAFF0B205F012F910230446AB
:102EB0002B6021467848FDF7DCFB21467548FDF77D
:102EC000D8FB79497448FDF7D0FB77497148FDF785
:102ED000CCFBD2E7FEF705FC744B04221A6038469F
:102EE00006F0B2FD022604460D460B462246009629
:102EF0006948FDF7C0FB22462B4600966548FDF762
:102F0000BAFB6B496448FDF7C5FB69496148FDF7A9
:102F1000C1FB614806F0DEF95E4805B0BDE8F04F40
:102F200006F0D8B9FEF7DDFB5FFA88F85C4B53F882
:102F30003830012283F80021A4E65AF83B300124FE
:102F400083F880402046FDF71FFE07F0BDF9FDF72E
:102F500089FF074607F0D2FB01464046FDF794FF84
:102F600000218146384607F097FB00287FF43DAEEC
:102F700040E60120FDF708FE07F0A6F9FDF772FF15
:102F8000074606F061FD04460D460B462246CDF885
:102F900000804148FDF76FFB22462B46CDF80080AC
:102FA0003C48FDF768FB40493B48FDF75EFB3E4966
:102FB0003848FDF75AFB4FF4FA6005F06DFC75E6F2
:102FC000FEF7E4F907F07CF9074606F03DFD0446FC
:102FD00022460B46CDF800802F480D46FDF74BFBEF
:102FE00031492D48FDF741FB22462B46CDF80080A4
:102FF0002848FDF740FB2C492648FDF736FB4FF4E7
:10300000FA6005F049FC68E6FDF7EAFA074606F0C3
:103010001BFD044622460B46CDF800801E480D4697
:10302000FDF729FB20491C48FDF71FFB22462B46D4
:10303000CDF800801748FDF71EFB1B491548FDF72A
:1030400014FB4FF4FA6005F027FC5DE6FDF7ACFADF
:10305000074606F0F9FC044622460B46CDF80080F0
:103060000D480D46FDF707FB0F490B48FDF7FDFA2C
:1030700022462B46CDF800800648FDF7FCFA0A49A7
:103080000448FDF7F2FA4FF4FA6005F005FC52E649
:10309000FAE50000C095FF1FB095FF1F488DFF1F88
:1030A000C8EA0000C4F00F4079E8000084F00F4047
:1030B0008BE10000C8F00F400120FDF765FD07F02F
:1030C00003F9074606F0C0FC04460D460B462246AF
:1030D000CDF800801D48FDF7CEFA22462B46CDF8EC
:1030E00000801B48FDF7C7FA1A491848FDF7BDFADA
:1030F00018491748FDF7B9FA4FF4FA6005F0CCFB10
:1031000030E6FEF791FA074606F09EFC04460D46AF
:103110000B462246CDF800800C48FDF7ACFA22465B
:103120002B46CDF800800A48FDF7A5FA0949074863
:10313000FDF79BFA07490648FDF797FAC82005F006
:10314000ABFB26E6FEF7CDFA4CE600BFB095FF1FBD
:10315000C095FF1F79E800002DE9F04FADF51E5D29
:1031600087B004AF32200025C7F844D005F094FBA7
:10317000AF4BC7F8F4501B680120C7F8F830D7F8F8
:10318000F83007F089FBC7F8A4000420C7F8FC500A
:10319000C7F8005107F080FBA64BC7F8A0001B68DA
:1031A000073323F00703ADEB030DA34B1B683B650F
:1031B0001B01083304ACADEB030D04AEC7F8B860D7
:1031C00003E0002105F041FE0135D7F8B86006EBB9
:1031D00005103E6DB542F4D1964B974E1A682046C5
:1031E000002107F055FF002507E0D7F8B81001EBE4
:1031F0000510924905F061FE013533689D42F4DB0C
:103200000020FFF715F98E4B10251D600A2005F0F0
:1032100043FB8C4B8C491D6007F5E475284605F08F
:1032200014FE5BE0284605F0DEFEC72842F3B682B6
:1032300002F072BA85498648FDF72CFA8349854821
:10324000FDF728FA4AE0FDF74BFA47E0FEF720FDCC
:1032500044E0FDF76BFA41E0FDF7A8FA3EE00120FB
:10326000FFF7E6F83AE0FFF7B3FA37E000200AE0AC
:10327000FFF70CFB32E03C2001E04FF49670FFF7C3
:10328000CDFB2BE00120FEF7AFFE27E04FF40770E7
:10329000F5E74FF45C70F2E74FF48C60EFE7FDF771
:1032A000BBF91BE00120FFF78DF817E0282010E0A4
:1032B0004FF4AA600DE04FF4AB600AE04FF4AC604D
:1032C00007E04FF4AD6004E04FF4AE6001E04FF46E
:1032D000AF60FFF773FB01E0FDF72CFC04F008FA88
:1032E0005B2802F07A8204F01FFD5B2842F05F82C7
:1032F00002F073BA04F018FD5B280CBF022500250C
:1033000000E0012504F0CCF904F0F6FC012D0DD00D
:10331000022D58D050494E48FDF7BCF900264D48C3
:103320004D49FDF7B7F9C7F8B460AEE048484FF42F
:10333000FA6105F08DFC3F4B45481B682121224670
:10334000002605F087FC41F28735C7F8B460A35D1D
:103350007B2B1BD104E0484605F0E8FD013607E071
:10336000D7F8B410D7F8B8204FEA011802EB0809D3
:10337000A15D7D29EFD1D7F8B83003EB080005F047
:10338000D5FDD7F8B4100131C7F8B4100136AE42FC
:10339000DDDD002412E0D7F8B860302106EB04151B
:1033A00007F5FC7005F0A4FD07F5FC71284605F053
:1033B000E0FD07F5FC7005F007FD0134D7F8B460B7
:1033C000B442E8DB61E023484FF47A7105F040FC39
:1033D000184B20481B6821212246002605F03AFCA4
:1033E00041F28735C7F8B460A35D7B2B1BD104E0A5
:1033F000484605F09BFD013607E0D7F8B410D7F832
:10340000B8204FEA011802EB0809A15D7D29EFD130
:10341000D7F8B83003EB080005F088FDD7F8B410F2
:103420000131C7F8B4100136AE42DDDD002428E0DA
:103430002895FF1F9084FF1F1C84FF1F59E2000086
:10344000C8F00F40C4F00F4042E40000FDE500006A
:10345000B095FF1FC095FF1F0DE60000D7F8B860BC
:10346000302106EB041507F5FC7005F041FD07F56A
:10347000FC71284605F07DFD07F5FC7005F0A4FC05
:103480000134D7F8B460B442E8DB7B497B4D7C481B
:10349000FDF7EBF878497B48FDF7E7F8286806F078
:1034A000D3FA022402460B4600947548FDF7E3F870
:1034B000286806F0C9FA009402460B467148FDF7E9
:1034C000DAF871496E48FDF7D0F86F496D48FDF79D
:1034D000CCF8009466A3D3E900236948FDF7CBF844
:1034E00063A3D3E9002300946648FDF7C4F8674955
:1034F0006448FDF7BAF8002661486449FDF7B5F85D
:10350000C7F89060C7F8A8600D26BE650126FE6565
:1035100007F5DA760024FE645D495A48FDF7A5F800
:1035200057485B49FDF7A1F8002602F097B8D7F895
:10353000A40007F0B9F9D7F89C603401D7F8B86057
:10354000331907F1FC0A9D68681C07F0A5F9315989
:10355000C7F8A4002A4608F0ABF9D7F8A460002405
:10356000745507F5DE7007F5027502F0E5FCD7F833
:10357000A4102A464FF4167307F5DE7002F0BFFB65
:10358000D7F8A410A0420CBF2A462246F86C02F0DD
:1035900014FBFE6C96E803008AE80300002802F0A2
:1035A0002381C9B902F020B9D7F8B810354801EB2A
:1035B00004152946FDF764F8013431482946FDF722
:1035C0005FF8B442F0D1FEF78CF807F5E47005F02F
:1035D000FBFB002502F08FB87C6707F5D6742D49F8
:1035E000504602F03BFB014607F5EC7005F02DFC60
:1035F0002949504602F032FB014607F5F47005F008
:1036000024FC2649504602F01FFB002808BF012079
:10361000B8622349504602F017FB224B08B11860EC
:1036200001E001221A602049204D504602F00CFBB7
:103630001F497862504602F007FB1E49F865504664
:1036400002F002FB1C49B860504602F0FDFA1B492B
:103650003862504602F0F8FA002808BF0120B8642A
:103660001749504602F0F0FA60BB0D232B602EE0A4
:103670001F85EB51B81ED53F64E40000188BFF1F77
:10368000C095FF1FB095FF1F33E600004AE600001B
:1036900056E6000058E6000066E6000072E600000C
:1036A00079E600001884FF1F82E600000484FF1FF3
:1036B00091E600009EE60000B1E60000C1E60000D1
:1036C000CBE6000050467B4902F0BEFA28607A49FA
:1036D000504602F0B9FA7949F861504602F0B4FA5E
:1036E0007749C7F8AC00504602F0AEFA7549386425
:1036F000504602F0A9FA7449B867504602F0A4FA9D
:103700007249B861504602F09FFA07F5827807F5D2
:103710008676C7F8BC00514640466D4A02F086FAEC
:103720003046C7F8E460514607F58A76694A02F0E8
:103730007DFA3046C7F8E060514607F58E76664A56
:1037400002F074FA3046C7F8DC60514607F592760D
:10375000624A02F06BFA3046C7F8D860514607F566
:1037600096765F4A02F062FA3046C7F8D460514656
:1037700007F59A765B4A02F059FA3046C7F8D060EE
:10378000514607F59E76584A02F050FA3046C7F87F
:10379000CC60514607F5A276544A02F047FA30460B
:1037A000C7F8C860514607F5A676514A02F03EFABE
:1037B0003046C7F8C460514607F5AA764D4A02F074
:1037C00035FA07F5AE7B304651464B4AC7F8C06024
:1037D00002F02CFA58465146484A494E02F026FA61
:1037E00007F5B2705146474A02F020FA07F5B67065
:1037F0005146454A02F01AFA07F5BA705146434A53
:1038000002F014FA07F5BE705146414A07F1E80587
:1038100002F00CFA07F5C27051463E4A02F006FA71
:10382000284651463C4A02F001FA95E803003B4A1B
:1038300086E803002846514602F0F8F995E80300AF
:10384000374E384A86E803002846514602F0EEF922
:1038500095E80300344E354A86E8030007F5C67044
:10386000514602F0E3F907F5CA705146304A02F0BA
:10387000DDF9002507F5CE7051462E4A02F0D6F943
:103880007D65FD677CE0294607F5B27002F023FAFA
:1038900007F5CA7181462A46204602F00EFA2046F4
:1038A000FCF719FF7E6D00FB09667E650026B146B8
:1038B00051E000BFCBE60000E0E60000FFE60000BC
:1038C0000AE7000014E7000022E700002DE70000EF
:1038D00038E7000048E7000054E7000063E7000015
:1038E00071E700007FE700008CE7000099E7000027
:1038F000A6E70000B3E70000C0E70000CDE7000046
:103900004C8FFF1FDAE70000E1E70000EDE7000061
:10391000F9E7000005E8000011E8000021E80000D8
:10392000A48EFF1F32E80000908EFF1F42E80000C7
:103930004CE8000058E80000204607F5CA712A4606
:1039400002F0BBF93146204602F0C5F90028C8BF95
:1039500009F101090136204607F5CA712A4602F02D
:10396000ACF92046FCF7B7FE8642E5DB294607F5B1
:10397000B27002F0B0F9FE6F09FB0066FE67013518
:1039800007F5B270FCF7A7FE8542FFF67CAFD7F8CB
:10399000A00006F089FF0421F86F06F007FFB64982
:1039A000C7F8A000B548FCF760FEB349B448FCF77F
:1039B0005CFE07F5F471B14805F06AFC07F5F47197
:1039C000AF4805F065FCAF49AC48FCF74EFEAC488B
:1039D000AC49FCF74AFED7F8BC30012B02D118469F
:1039E000FDF7A6FB07F5EC70A74905F0D0FAC8B9BA
:1039F000A649A248FCF739FEA449A148FCF735FEC8
:103A000007F5EC719D4805F043FC07F5EC719C4807
:103A100005F03EFC9B499948FCF727FE98489949D8
:103A2000FCF723FE07F5FC759949284605F00DFAC9
:103A300098E80300002213468DE80300029595499B
:103A40009548FCF76BFF284605F0BEF993492846D8
:103A500005F0FBF9D7F8E06096E803000022134672
:103A60008DE8030002958E498E48FCF757FF2846E3
:103A700005F0AAF98C49284605F0E7F9D7F8DC608B
:103A800096E80300002213468DE80300029587495B
:103A90008748FCF743FF284605F096F985492846F4
:103AA00005F0D3F9D7F8D86096E803000022134652
:103AB0008DE80300029580498048FCF72FFF2846D7
:103AC00005F082F97E4B7F49D3F800807E4B284673
:103AD0001E6805F0BAF9D7F8E42092E803008DE8F3
:103AE000030000204246014633460295FCF716FFCC
:103AF000284605F069F9754B7549D3F800805E6872
:103B0000284605F0A2F9D7F8D43093E803008DE8F1
:103B1000030000204246014633460295FCF7FEFEB4
:103B2000284605F051F96B4B6B49D3F800805E686D
:103B3000284605F08AF9D7F8D02092E803008DE8EE
:103B4000030000204246014633460295FCF7E6FE9C
:103B5000284605F039F9614B6149D3F800805E6869
:103B6000284605F072F9D7F8CC3093E803008DE8C9
:103B7000030000204246014633460295FCF7CEFE84
:103B8000284605F021F9574B5749D3F800805E6865
:103B9000284605F05AF9D7F8C82092E803008DE8C6
:103BA000030000204246014633460295FCF7B6FE6C
:103BB000284605F009F94D4B4D49D3F800805E6861
:103BC000284605F042F9D7F8C43093E803008DE8A1
:103BD000030000204246014633460295FCF79EFE54
:103BE000284605F0F1F8434B4349D3F800805E685E
:103BF000284605F02AF9D7F8C02092E803008DE89E
:103C0000030000204246014633460295FCF786FE3B
:103C1000284605F0D9F8394B3949D3F800805E6859
:103C2000284605F012F99BE803008DE80300002008
:103C30003346014642460295324EFCF76FFE284657
:103C400005F0C2F83368012B65DD2F490C48FCF7FD
:103C50000CFD2D490948FCF708FD31680848FCF7C0
:103C600008FD31680548FCF704FD28490448FCF7C5
:103C7000FCFC02484CE000BF66E80000B095FF1F66
:103C8000C095FF1F78E8000059E200007BE80000C3
:103C900038E70000748CFF1FF88FFF1F54E7000007
:103CA000648FFF1FE08CFF1F63E700000C8CFF1F79
:103CB000A48BFF1F71E70000E48DFF1F7C8DFF1FA9
:103CC0009484FF1F48E70000108BFF1F5C8FFF1FCD
:103CD0007FE700002C8FFF1F8CE70000CC8FFF1FB9
:103CE00099E70000348FFF1FA6E70000DC8FFF1F5D
:103CF000B3E70000E48FFF1FC0E70000EC8FFF1F59
:103D0000CDE700001884FF1F8EE8000079E800006E
:103D10001749FCF7AAFC174B386C00261E60164B9F
:103D20001E60164B1E60164B1E60164B1E60164B17
:103D30001E60164B1E60164B1E60164B1E60164B07
:103D40001E60FDF7CFF9B96F30234B430022013BD2
:103D5000FB63C7F8BC20C7F88020C7F88420C7F8E9
:103D60008820C7F88C2007F5D27B01F0C9BB00BFC3
:103D700079E80000AC8EFF1F6C90FF1FDC8CFF1FEA
:103D80006890FF1FBC8EFF1F608EFF1F488FFF1FB4
:103D9000588FFF1FB08EFF1FC08EFF1F584607F5BC
:103DA000CE71324601F089FF5846012101F093FFA0
:103DB0008046002859D13246204607F5CE7101F0E1
:103DC0007CFF4146204601F090FF0146284605F061
:103DD0003CF82846BC4905F0DAF810F1000818BF95
:103DE0004FF00108284604F0EFFFB8F1000F3CD077
:103DF0003246204607F5CE7101F05FFF01212046D3
:103E000001F069FFFCF7B6FEB04BD7F8BC101B6899
:103E1000013B994229D1AE49DFF8DC92AD48FCF76D
:103E200024FCAB49AC48FCF720FCD9F8000005F0B5
:103E30000BFE4FF0020802460B46CDF80080A54865
:103E4000FCF719FCA549A348FCF70FFCD9F80000C2
:103E500005F0FAFDCDF8008002460B469E48FCF7BF
:103E60000AFC9D489D49FCF700FC584607F5CE71B9
:103E7000324601F022FF5846012101F02CFF804616
:103E8000002859D13246204607F5CE7101F015FFC2
:103E90004146204601F029FF0146284604F0D5FF9F
:103EA00028468F4905F073F810F1000818BF4FF04D
:103EB0000108284604F088FFB8F1000F3CD03246D4
:103EC000204607F5CE7101F0F8FE0121204601F0F1
:103ED00002FFFCF754FE7D4BD7F8BC201B68013B6A
:103EE0009A4229D17F49DFF814927A48FCF7BDFB4A
:103EF0007C497948FCF7B9FBD9F8000005F0A4FD2E
:103F00004FF0020802460B46CDF800807148FCF7DE
:103F1000B2FB72496F48FCF7A8FBD9F8000005F026
:103F200093FDCDF8008002460B466B48FCF7A3FBDF
:103F300069486A49FCF799FB584607F5CE71324645
:103F400001F0BBFE5846012101F0C5FE8046002865
:103F500059D13246204607F5CE7101F0AEFE4146FA
:103F6000204601F0C2FE0146284604F06EFF2846B6
:103F70005D4905F00CF810F1000818BF4FF001087A
:103F8000284604F021FFB8F1000F3CD0324620460D
:103F900007F5CE7101F091FE0121204601F09BFE54
:103FA000FDF79AFB494BD7F8BC101B68013B9942BF
:103FB00029D14E49DFF848914648FCF756FB4B495A
:103FC0004548FCF752FBD9F8000005F03DFD4FF0E5
:103FD000020802460B46CDF800803E48FCF74BFB3A
:103FE0003E493C48FCF741FBD9F8000005F02CFDA8
:103FF000CDF8008002460B463748FCF73CFB3648BC
:104000003649FCF732FB584607F5CE71324601F0CF
:1040100054FE5846012101F05EFE804600287AD108
:104020003246204607F5CE7101F047FE4146204654
:1040300001F05BFE0146284604F007FF28462C49A4
:1040400004F0A5FF10F1000818BF4FF00108284642
:1040500004F0BAFEB8F1000F5DD03246204607F5F5
:10406000CE7101F02AFE0121204601F034FEFDF759
:10407000B1F9164BD7F8BC201B68013B9A424AD1D4
:104080001C49DFF880901348FCF7EFFA19491248F1
:10409000FCF7EBFAD9F8000005F0D6FC4FF0020867
:1040A00002460B46CDF800800A48FCF7E4FA0B49BB
:1040B0000848FCF7DAFAD9F8000005F0C5FCCDF89D
:1040C000008002460B461FE09BE800001884FF1F9B
:1040D000ADE80000C095FF1FB095FF1F79E8000014
:1040E000DFE80000C3E80000D3E80000EBE80000D0
:1040F00007E900000BE90000DC8CFF1F6890FF1F40
:10410000BC8EFF1F608EFF1FBB48FCF7B4FABA4895
:10411000BA49FCF7AAFA584607F5CE71324601F0C3
:10412000CCFD5846012101F0D6FD8046002840F024
:10413000E4803246204607F5CE7101F0BEFD4146CF
:10414000204601F0D2FD0146284604F07EFE2846B6
:10415000AB4904F01CFF10F1000818BF4FF0010834
:10416000284604F031FEB8F1000F00F0C680324658
:10417000204607F5CE7101F0A0FD0121204601F097
:10418000AAFDFCF701FD9F4BD7F8BC101B68013B53
:10419000994240F0B280DFF890929B499B48FCF72F
:1041A00064FA99499448FCF760FAD9F80000FCF7E2
:1041B00059FE05F049FC4FF0020802460B46CDF8C7
:1041C00000809248FCF757FA8C499048FCF74DFA6A
:1041D000D9F80000DFF85492FCF744FE05F034FCF7
:1041E000CDF8008002460B468348FCF744FA834929
:1041F0008148FCF73AFA86498448FCF736FA844944
:104200007D48FCF732FAD9F80000FCF72BFE05F0E8
:104210001BFCCDF8008002460B467C48FCF72BFACD
:1042200076497A48FCF721FAD9F80000DFF80092C5
:10423000FCF718FE05F008FCCDF8008002460B469E
:104240006D48FCF718FA6D496B48FCF70EFA714996
:104250006E48FCF70AFA6F496748FCF706FAD9F886
:104260000000FCF7FFFD05F0EFFBCDF800800246F3
:104270000B466648FCF7FFF960496448FCF7F5F91E
:10428000D9F80000DFF8AC91FCF7ECFD05F0DCFBA1
:10429000CDF8008002460B465748FCF7ECF9574929
:1042A0005548FCF7E2F95C495848FCF7DEF95A49F1
:1042B0005148FCF7DAF9D9F80000FCF7D3FD05F016
:1042C000C3FBCDF8008002460B465048FCF7D3F9FB
:1042D0004A494E48FCF7C9F9D9F80000FCF7C2FD7D
:1042E00005F0B2FBCDF8008002460B464248FCF7D1
:1042F000C2F941484149FCF7B8F9584607F5CE7173
:10430000324601F0DAFC5846012101F0E4FC804617
:1043100000284FD13246204607F5CE7101F0CDFC82
:104320004146204601F0E1FC0146284604F08DFD9F
:1043300028463A4904F02BFE10F1000918BF4FF04F
:104340000109284604F040FDB9F1000F32D0324691
:10435000204607F5CE7101F0B0FC0221204601F0A5
:10436000BAFC5FFA80F94146484604F081F94846B4
:1043700003F0AEFE234BD7F8BC201B68013B9A42EA
:10438000804617D126492148FCF76FF924491A487D
:10439000FCF76BF941461D48FCF76BF917491B48C0
:1043A000FCF763F941461448FCF763F912481349D6
:1043B000FCF75BF9584607F5CE71324601F07DFCFB
:1043C0005846012101F087FC8046002870D1324612
:1043D000204607F5CE7101F070FC4146204601F001
:1043E00084FC0146284604F030FD28460D4904F0BF
:1043F000CEFD10F100091FE0B095FF1F79E8000025
:10440000EFE600001884FF1F13E90000C095FF1FAE
:1044100027E900002DE9000033E9000039E9000038
:1044200045E9000055E90000488FFF1F588FFF1F26
:10443000B08EFF1FC08EFF1F18BF4FF00109284626
:1044400004F0C2FCB9F1000F32D03246204607F525
:10445000CE7101F032FC0221204601F03CFC5FFAF3
:1044600080F94146484604F003F9484604F0F4F860
:10447000AB4BD7F8BC101B68013B9942804617D163
:10448000A849A948FCF7F1F8A649A848FCF7EDF8B7
:104490004146A548FCF7EDF8A549A348FCF7E5F827
:1044A0004146A248FCF7E5F8A048A149FCF7DDF831
:1044B000584607F5CE71324601F0FFFB5846012100
:1044C00001F009FC8046002844D13246204607F519
:1044D000CE7101F0F2FB4146204601F006FC014698
:1044E000284604F0B2FC2846924904F050FD10F131
:1044F000000818BF4FF00108284604F065FCB8F129
:10450000000F27D03246204607F5CE7101F0D5FBCB
:104510000221204601F0DFFB3246804607F5CE71CE
:10452000204601F0CAFB0321204601F0D4FB5FFACC
:1045300088F881460121404604F09AF87E4A52F8F4
:10454000382019F0FF0F4FF0010314BF82F88030BC
:1045500082F80031584607F5CE71324601F0ADFBC6
:104560005846012101F0B7FB8146002867D1324649
:10457000204607F5CE7101F0A0FB4946204601F028
:10458000B4FB0146284604F060FC28466B4904F061
:10459000FEFC10F1000818BF4FF00108284604F097
:1045A00013FCB8F1000F4AD03246204607F5CE7111
:1045B00001F083FB0221204601F08DFB324680464C
:1045C00007F5CE71204601F078FB0321204601F06B
:1045D00082FB3246844607F5CE712046C7F800C0FC
:1045E00001F06BFB0421204601F075FB3246C7F851
:1045F000B00007F5CE71204601F05FFB0521204693
:1046000001F069FB5FFA88F80346012140467B60B0
:1046100004F02EF84046D7F8B01003F0B7FFD7F8F3
:1046200000C04046614604F03FF87B68184604F03D
:1046300033F94046494604F037F8FDF7A1FC01364E
:1046400000E0002607F5CE70FCF745F88642FFF63D
:10465000A5ABB86A03F012FD394B1868FCF702FCF1
:10466000C7F8980006F04AF8364B01461868FCF780
:104670000BFCD7F8AC606423704390FBF3F3002687
:10468000C7F89430C7F8B0603E67B1464EE2002EDE
:1046900033D1B9F1000F41D103F0C8F8294BB96DFE
:1046A0001B68994206D0CAB2234B53F8323001221C
:1046B00083F8002104F0D2F8BA6F002A804608DBA4
:1046C000214B013A9A4204D820482149FA6B04F060
:1046D00050FD04F0C3F83B6CC8EB00009842F8D3DF
:1046E000B96F00290CDB184B4A1E9A4208D81949A9
:1046F000FA6B194804F03DFD02E0B9F1000F2DD12D
:104700003246204607F5CA7101F0D7FA2046FBF77A
:10471000E2FF0122C7F8A800FA6621E0FE661FE06A
:104720001884FF1F62E90000C095FF1FB095FF1FAE
:1047300079E8000073E90000C8EA000081E90000A0
:10474000488FFF1F0484FF1F545555054C8EFF1FD3
:1047500065050000410500001C8BFF1F0023FB6660
:10476000204607F5CA71324601F0A7FAD7F8F430AF
:10477000D7F8A820B3FBF2F102FB1131204601F07B
:10478000AAFA7A4B07F5C67118603246204601F046
:1047900094FAD7F8F430D7F8A820B3FBF2F102FB73
:1047A0001131204601F097FA714B1860D7F8A83004
:1047B000994580F2EB80B9F1000F5DD1314607F5E4
:1047C000B67001F088FAD7F89410786100913246FB
:1047D000D7F89830D7F8AC10FDF708FB3146B8662B
:1047E00007F5BA7001F077FAD7F894203861009293
:1047F000D7F89830D7F8AC103246FDF7F7FA3146C3
:10480000786607F5BE7001F066FAD7F89430F86064
:1048100000933246D7F89830D7F8AC10FDF7E6FA97
:104820003146386607F5C27001F055FAD7F8941092
:104830000091D7F8AC10D7F8983038603246FDF7C1
:10484000D5FAD7F88020D7F88430D7F88810FA62E4
:10485000D7F88C203B637963BA63D7F800C0FB6854
:1048600039697A69C7F880C08046C7F88430C7F8CC
:104870008810C7F88C2007E04FF00008C7F8608068
:10488000C7F86480C7F86880D7F89430DFF8DCC0D8
:104890000093DCF80000D7F89830C7F800C0D7F8CC
:1048A000AC103246FDF7A2FAD7F800C0DCF80030B1
:1048B000023B122B3BD8DFE803F0283A3A3A3A3A67
:1048C0003A3A2E161C3A340A103A3A3A2200294B48
:1048D00029481A88032101F05FFC264B26481A88D4
:1048E000032101F059FC234B23481A88032101F0CE
:1048F00053FC204B20481A88032101F04DFC1F4B2C
:104900001D481A88002101F047FC1C4B1A481A88E0
:10491000002101F041FC1A4B17481A88022101F0CE
:104920003BFC174B14481A88022101F035FC154A4C
:10493000042313602022013A7FF4FDAF124A136072
:10494000B9F1000F2AD10D4B0B481A88494601F0E6
:1049500023FC084B08481A88032101F01DFC084B72
:1049600005481A88022101F017FC17E06490FF1F28
:10497000B48EFF1F8C8EFF1F488DFF1FB88EFF1F48
:10498000A08EFF1F88F00F4084F00F404FF000080A
:10499000C7F86080C7F86480C7F86880984A99496A
:1049A000136808680028FBD0002BF9D0964B1878C4
:1049B00003F08EFB954B1860954B10221A60FA6E2F
:1049C000012A52D1B96B934BCAB2F96E53F8322017
:1049D00082F80011BA6E012A07D1D7F88C10CAB23A
:1049E000B96E53F8322082F88010796BCAB253F84E
:1049F0003230012283F800217A6E012A08D1D7F8DB
:104A00008830796EDAB2834B53F8323083F88010F5
:104A1000396B804BCAB2012153F8322082F8001161
:104A20003A6E8A4207D1D7F88410CAB2396E53F869
:104A3000322082F88010F96ACAB253F8323001226B
:104A4000904583F8002107D1D7F88030DAB2714B56
:104A500053F8323083F880806F4A04231360202299
:104A6000013A7FF4FDAF6D4A1360B96961B9664BD5
:104A70001B68222B02D0232B06D101E0684B00E0FB
:104A8000684BD3F8008001E04FF00008664B1B68CC
:104A900003B35E4B396FD7F8A0201B6852F8210092
:104AA0007B6005F011FC7B68024618467A6005F0D1
:104AB0000BFC414605F052FB7A680146104605F0B2
:104AC0004FFB05F01BFE3B6FD7F8A02042F82300F8
:104AD00001333B6772B64A4B4FF00008C3F80080C1
:104AE000484BC3F8008009F1010962B6D7F8F430E9
:104AF0003146013307F5B270C7F8F43001F0EBF836
:104B000007F5CA710346324620467B6001F0D5F8AE
:104B10002046FBF7E0FD7B685843814501D1013613
:104B2000C146D7F8B0100131C7F8B010D7F8B0209F
:104B30007B6D9A42FFF6ABADD7F89410DFF8F480A6
:104B40000091FA690192D7F89830D8F80000D7F8A8
:104B5000AC103246FDF7C6F9D8F80030D7F88C60B3
:104B60002C4A9E4205D0F1B2012652F8311081F84C
:104B70000061D7F888609E4205D0F1B252F831202A
:104B8000012182F80011D7F88460224A9E4205D0A4
:104B9000F1B2012652F8311081F80061D7F8806037
:104BA0009E4205D0F1B252F83120012182F8001165
:104BB0000128184A0ED1184E042131602026013EEA
:104BC0007FF4FDAFDBB2154E52F83330316083F81D
:104BD000800005E0DBB252F83330012283F8002177
:104BE000124804F0BDFA124804F0BAFA044B002649
:104BF0001E60044B1E60C7F8F46000F06EBC00BF7E
:104C0000988BFF1F3C8FFF1FB48EFF1FF48FFF1F79
:104C1000C4F00F40C8EA000088F00F4084F00F4055
:104C2000408FFF1F448FFF1F6490FF1F4C8EFF1F9C
:104C30001C8BFF1F0484FF1F584607F5CE713246B8
:104C400001F03BF80121584601F045F80128804663
:104C500059D13246204607F5CE7101F02EF80021D9
:104C6000204601F042F80146284604F0EEF82846B6
:104C7000BE4904F08CF910F1000918BF4FF001098A
:104C8000284604F0A1F8B9F1000F3CD03246204686
:104C900007F5CE7101F011F84146204601F01BF8EE
:104CA000FBF768FFB24BD7F8BC101B68013B994279
:104CB00029D1B049DFF8E492AF48FBF7D6FCAD4903
:104CC000AE48FBF7D2FCD9F8000004F0BDFE4FF06F
:104CD000020802460B46CDF80080A748FBF7CBFC44
:104CE000A749A548FBF7C1FCD9F8000004F0ACFEC9
:104CF000CDF8008002460B46A048FBF7BCFC9F485D
:104D00009F49FBF7B2FC584607F5CE71324600F0DA
:104D1000D4FF0121584600F0DEFF0128804659D11A
:104D20003246204607F5CE7100F0C7FF002120462D
:104D300000F0DBFF0146284604F087F82846914939
:104D400004F025F910F1000918BF4FF001092846B9
:104D500004F03AF8B9F1000F3CD03246204607F58E
:104D6000CE7100F0AAFF4146204600F0B4FFFBF7E9
:104D700006FF7F4BD7F8BC201B68013B9A4229D124
:104D80008149DFF81C927C48FBF76FFC7E497B4829
:104D9000FBF76BFCD9F8000004F056FE4FF0020858
:104DA00002460B46CDF800807348FBF764FC74495B
:104DB0007148FBF75AFCD9F8000004F045FECDF825
:104DC000008002460B466D48FBF755FC6B486C496A
:104DD000FBF74BFC584607F5CE71324600F06DFFED
:104DE0000121584600F077FF0128804659D132460C
:104DF000204607F5CE7100F060FF0021204600F04C
:104E000074FF0146284604F020F828465F4904F064
:104E1000BEF810F1000918BF4FF00109284603F051
:104E2000D3FFB9F1000F3CD03246204607F5CE71D2
:104E300000F043FF4146204600F04DFFFCF74CFCDC
:104E40004B4BD7F8BC101B68013B994229D1504904
:104E5000DFF850914848FBF708FC4D494748FBF7FD
:104E600004FCD9F8000004F0EFFD4FF00208024600
:104E70000B46CDF800804048FBF7FDFB40493E481B
:104E8000FBF7F3FBD9F8000004F0DEFDCDF800805D
:104E900002460B463948FBF7EEFB38483849FBF72A
:104EA000E4FB584607F5CE71324600F006FF0121BB
:104EB000584600F010FF012880467BD1324620463C
:104EC00007F5CE7100F0F9FE0021204600F00DFF3D
:104ED0000146284603F0B9FF28462E4904F057F84A
:104EE00010F1000918BF4FF00109284603F06CFFCC
:104EF000B9F1000F5ED03246204607F5CE7100F0C2
:104F0000DCFE4146204600F0E6FEFCF763FA184B53
:104F1000D7F8BC201B68013B9A424BD11E49DFF8F1
:104F200088901548FBF7A1FB1B491448FBF79DFB34
:104F3000D9F8000004F088FD4FF0020802460B4645
:104F4000CDF800800C48FBF796FB0D490A48FBF7AB
:104F50008CFBD9F8000004F077FDCDF80080024604
:104F60000B460648FBF787FB20E000BF9BE80000EC
:104F70001884FF1FADE80000C095FF1FB095FF1F0C
:104F800079E80000DFE80000C3E80000D3E8000093
:104F9000EBE8000007E900000BE90000DC8CFF1FD4
:104FA0006890FF1FBC8EFF1F608EFF1FBD48BE496B
:104FB000FBF75BFB584607F5CE71324600F07DFEED
:104FC0000121584600F087FE0128804640F0E48029
:104FD0003246204607F5CE7100F06FFE00212046D4
:104FE00000F083FE0146284603F02FFF2846AF4914
:104FF00003F0CDFF10F1000918BF4FF0010928465A
:1050000003F0E2FEB9F1000F00F0C6803246204600
:1050100007F5CE7100F051FE4146204600F05BFEE0
:10502000FBF7B2FDA24BD7F8BC101B68013B9942BD
:1050300040F0B280DFF89C929E499F48FBF715FB39
:105040009C499848FBF711FBD9F80000FBF70AFFD1
:1050500004F0FAFC4FF0020802460B46CDF800803F
:105060009548FBF708FB90499348FBF7FEFAD9F8FF
:105070000000DFF86492FBF7F5FE04F0E5FCCDF8E4
:10508000008002460B468748FBF7F5FA86498548BB
:10509000FBF7EBFA89498848FBF7E7FA874981482B
:1050A000FBF7E3FAD9F80000FBF7DCFE04F0CCFCD8
:1050B000CDF8008002460B467F48FBF7DCFA7A49C0
:1050C0007D48FBF7D2FAD9F80000DFF81092FBF721
:1050D000C9FE04F0B9FCCDF8008002460B467148C9
:1050E000FBF7C9FA70496F48FBF7BFFA7449724879
:1050F000FBF7BBFA72496B48FBF7B7FAD9F8000027
:10510000FBF7B0FE04F0A0FCCDF8008002460B4691
:105110006948FBF7B0FA64496748FBF7A6FAD9F883
:105120000000DFF8BC91FBF79DFE04F08DFCCDF88C
:10513000008002460B465B48FBF79DFA5A495948E6
:10514000FBF793FA5F495C48FBF78FFA5D495548D6
:10515000FBF78BFAD9F80000FBF784FE04F074FC2F
:10516000CDF8008002460B465348FBF784FA4E49BF
:105170005148FBF77AFAD9F80000FBF773FE04F008
:1051800063FCCDF8008002460B464648FBF773FAF5
:1051900044484549FBF769FA584607F5CE7132464F
:1051A00000F08BFD0121584600F095FD01284FD1FC
:1051B0003246204607F5CE7100F07FFD00212046E3
:1051C00000F093FD0146284603F03FFE28463E4985
:1051D00003F0DDFE10F1000818BF4FF0010828466B
:1051E00003F0F2FDB8F1000F32D03246204607F549
:1051F000CE7100F062FD0221204600F06CFD5FFAE6
:1052000080F84046002103F033FA404602F060FF88
:10521000274BD7F8BC201B68013B9A42804617D128
:105220002A492548FBF721FA28491E48FBF71DFAB1
:1052300041462148FBF71DFA1B491F48FBF715FAA9
:1052400041461848FBF715FA16481749FBF70DFABF
:10525000584607F5CE71324600F02FFD0121584621
:1052600000F039FD012870D13246204607F5CE7195
:1052700000F023FD0021204600F037FD01462846BE
:1052800003F0E3FD2846124903F081FE10F1000807
:1052900018BF4FF00108284603F096FDB8F1000F43
:1052A00053D01FE0B095FF1F79E80000EFE6000043
:1052B0001884FF1F13E90000C095FF1F27E90000B5
:1052C0002DE9000033E9000039E9000045E900005C
:1052D00055E90000488FFF1F588FFF1FB08EFF1F3A
:1052E000C08EFF1F3246204607F5CE7100F0E5FC68
:1052F0000221204600F0EFFC5FFA80F800214046D2
:1053000003F0B6F9404603F0A7F9A94BD7F8BC1053
:105310001B68013B9942804617D1A649A648FBF776
:10532000A4F9A449A548FBF7A0F94146A248FBF718
:10533000A0F9A349A048FBF798F941469F48FBF71D
:1053400098F99E489E49FBF790F9584607F5CE71AB
:10535000324600F0B2FC0121584600F0BCFC0128A6
:10536000804644D13246204607F5CE7100F0A5FCB8
:105370000021204600F0B9FC0146284603F065FDF7
:105380002846904903F003FE10F1000918BF4FF0C2
:105390000109284603F018FDB9F1000F27D0324665
:1053A000204607F5CE7100F088FC0221204600F06F
:1053B00092FC3246814607F5CE71204600F07DFC16
:1053C0000321204600F087FC5FFA89F90346414635
:1053D00048467B6003F04CF97B6813F0FF0F7A4B73
:1053E00053F8393014BF83F8808083F80081584621
:1053F00007F5CE71324600F060FC0121584600F0FE
:105400006AFC0128814667D13246204607F5CE71F5
:1054100000F053FC0021204600F067FC01462846BE
:1054200003F013FD2846694903F0B1FD10F10008AF
:1054300018BF4FF00108284603F0C6FCB8F1000F72
:105440004AD03246204607F5CE7100F036FC0221E4
:10545000204600F040FC3246804607F5CE712046DB
:1054600000F02BFC0321204600F035FC3246844638
:1054700007F5CE712046C7F800C000F01EFC0421DD
:10548000204600F028FC3246C7F8B00007F5CE7180
:10549000204600F012FC0521204600F01CFC5FFABB
:1054A00088F80346494640467B6003F0E1F84046F1
:1054B000D7F8B01003F06AF8D7F800C0404661464C
:1054C00003F0F2F87B68184603F0E6F94046002145
:1054D00003F0EAF8FCF754FD013607F5CE70FBF750
:1054E000FAF88642FFF6A8AB314BD7F8BC601B68D0
:1054F00001369E42C7F8BC6002DA786AFBF76FFF9C
:10550000DFF8AC80D7F8BC60D8F800309E42FFF6D8
:1055100098A82F492848FBF7A8F828482C49FBF7FA
:10552000A4F8002645461CE0D7F8A010234851F8FF
:105530002680296898FBF1F103F012FF29681E48C4
:1055400098FBF1F103F00CFFFA6F531E9E4207D057
:105550001B491A48FBF789F817481949FBF785F8E2
:105560000136FB6F9E42DFDB1A491348FBF792F8C6
:1055700012481849FBF78EF8D7F8B460721EBE6C5B
:10558000731E7E6F9E4203DBD7F89C60964223DA3F
:105590000B490A48FBF769F809490748FBF765F822
:1055A0003E6A4FF47A70704303F076F923E000BF4F
:1055B0001884FF1F62E90000C095FF1FB095FF1F10
:1055C00079E8000073E90000C8EA000081E9000002
:1055D0008EE900008BE10000D7F89C6096420AD16A
:1055E0007E6F9E4207D18D498D48FBF73EF88D486E
:1055F0008A49FBF73AF88C4B01221A608B4A002348
:1056000013608B4A13608B4A13608B4A13608B4B79
:10561000002119608A4B19608A4B19608A4B196006
:105620008A4B19608A4B19608A4B19608A4B196042
:105630008A4B1B6807F5F470BB6503F0C5FB07F5E3
:10564000EC7003F0C1FB7E6FB96C01368E427E6751
:10565000FDF6C5AFD7F89C60BC680136C7F89C6002
:10566000D7F89C60D7F8B4108E42FDF660AFFCF717
:1056700038F8FE6D731ED7F890609E420CDA7849B8
:105680006748FAF7F2FF67487549FAF7EEFF4FF4FB
:105690007A70604303F000F9D7F89060F96D013635
:1056A0008E42C7F89060FDF637AF6E495C48FAF756
:1056B000F1FF6D495A48FAF7EDFF6A495948FAF780
:1056C000E9FF69495748FAF7E5FF644B674A1978DB
:1056D000D7F8A00052F83120012582F800510D22A0
:1056E0001A6005F0E1F8D7F8A40005F0DDF807F539
:1056F000E47003F069FBD7F8B8103E6D01EB0614B7
:10570000D7F8B860B44204D0103C204603F05CFBEC
:10571000F6E77E6CB5467AE0284603F064FCA0F517
:105720007A701A283DF6DAAD01A151F820F000BFD9
:1057300035320000473200004D3200005332000085
:10574000593200005F320000673200006D32000005
:1057500071320000DD320000DD32000077320000DF
:105760007B320000853200008D3200009332000051
:10577000993200009F320000A5320000AD320000D7
:10578000B1320000B7320000BD320000C332000069
:10579000C9320000CF320000D9320000284603F0A1
:1057A00022FCFDF7A9F9FBF79CFFFDF797BD01224D
:1057B000322107F5FC70FBF7A3FA07F5FC712846C8
:1057C00003F073FB07F5FC7003F0FEFA284603F0C4
:1057D0000AFC00283DF726AD9EE701F089FF5B2813
:1057E0007DF488ADFDF78DBD0D4803F073FD0D48C8
:1057F00003F070FD1E490A48FAF74CFF09481C499E
:10580000FAF748FF002441F28836FDF7CDBE07F5D0
:10581000637707F51057BD46BDE8F08F8EE10000B5
:10582000B095FF1FC095FF1F1884FF1FB48EFF1F88
:10583000B88EFF1F8C8EFF1FA08EFF1FDC8CFF1FFA
:105840006890FF1FBC8EFF1F608EFF1F488FFF1FD9
:10585000588FFF1FB08EFF1FC08EFF1F0484FF1FD5
:1058600079E800008BE1000059E20000C8EA00007E
:105870009BE90000AFF30080184B194870B5002475
:105880001C605C60174B184E1C605C60174D184B19
:1058900004701C605C6031462A4604F075FF1548B0
:1058A00031462A46047004F06FFF13482A463146F9
:1058B000047004F069FF114800F088F84221104894
:1058C00000F03EF80F49104A104800F03CFB104829
:1058D0002146BDE8704000F039BC00BF4C8FFF1F6F
:1058E0004C8EFF1FA48EFF1FD90400000084FF1FF1
:1058F000908EFF1F1C8BFF1F648EFF1F788EFF1F73
:10590000548FFF1F11050000E50400007C8EFF1F6F
:10591000488DFF1F084601F095BE0846114601F06C
:10592000A5BE01F053BEFFFF014800F094BD00BFCB
:105930007C90FF1F08B50368C9B21B68984708BD73
:105940000170704770B5134C05460E462046297805
:1059500000F00AFF3146204600F02AFC204601F004
:1059600018F82046297800F0FFFE29780222204608
:1059700000F0F8FF204600F05DFC85B2204600F004
:1059800059FC2D02ADB20543204601F002F8A8B241
:1059900070BD00BF7C90FF1F08B50021FFF7D2FF4C
:1059A00000B208BD08B50121FFF7CCFF40F38D0020
:1059B00008BDFFFF08B5FFF7F5FF04F033F800223C
:1059C000014B04F095F808BD0000A03F7047FFFFB1
:1059D00042EA01220649172322FA03F0C00748BF12
:1059E0004A40013B4908072BF6D1D0B2704700BFAF
:1059F00000809800FFFFFFFF70B5402105462C484E
:105A000000F0C4FEF3212A48FFF794FF284800F075
:105A1000C0FF372002F040FF25484021032200F05C
:105A2000A1FF652404E0012002F036FF013C31D0E3
:105A30001F4800F0F5FB0228F5DD1D4800F0FAFBD9
:105A400004461B4800F0F6FB0646194800F0F2FB3E
:105A5000E4B2F6B246EA0424C2B221462846FFF771
:105A6000B7FFC8B94FF6FC70204004F029FC4FF096
:105A70005E5104F07DFC03F0E7FF09A3D3E90023A6
:105A800004F036F808A3D3E9002303F07DFE04F008
:105A900011FB70BD074870BD074870BDAFF30080B3
:105AA000D7A3703D0AF76540CDCCCCCCCC6C474039
:105AB0007C90FF1F0080794400C07944AFF30080E0
:105AC00070B540210546234800F060FEF5212148CD
:105AD000FFF730FF1F4800F05CFF372002F0DCFECC
