:1000000000800020BD01000031D4000031D4000088
:1000100031D4000031D4000031D40000FDD3000001
:10002000FDD30000FDD30000FDD3000031D400005B
:1000300031D40000FDD3000031D40000EDD3000026
:1000400031D4000031D4000031D4000031D400009C
:1000500031D4000031D4000031D4000031D400008C
:1000600031D4000031D4000031D4000031D400007C
:1000700031D4000031D4000031D4000031D400006C
:1000800031D4000031D4000031D4000031D400005C
:1000900031D4000025BA000031D4000031D4000072
:1000A0002DAB000031D4000031D4000031D4000069
:1000B00031D4000031D4000031D4000031D400002C
:1000C00031D4000031D4000031D4000031D400001C
:1000D00031D4000031D4000031D4000031D400000C
:1000E00031D4000031D4000031D4000031D40000FC
:1000F00031D4000015C9000031D4000045E90000EA
:1001000031D4000011DB000031D4000031D40000F4
:1001100031D4000031D4000031D4000031D40000CB
:1001200031D4000031D4000031D4000031D40000BB
:1001300031D4000031D4000031D4000031D40000AB
:1001400031D4000031D4000031D4000031D400009B
:10015000BDDB0000D5DB0000EDDB000005DC0000AE
:1001600031D40000A1BE000031D4000031D4000021
:1001700031D4000031D4000031D4000031D400006B
:1001800031D4000031D4000031D4000031D400005B
:1001900031D4000031D4000031D4000091CD0000F2
:1001A000E1CD000069CE000025CF0000A9CF0000FE
:1001B00031D4000031D4000031D40000544B4CF253
:1001C000205210B51A804DF628121A8000BF00BFC9
:1001D0000BF06CFC4F4B4FF010621A604E4A9A6065
:1001E0004E4ADA604E4B1A6812F4807204D14D49BF
:1001F0000A604FF4A8521A604B4B1A7802F00802BA
:10020000D2B21AB11A7842F008021A70474B484825
:10021000484C2A221A700023474A02E01959995083
:10022000043399188142F9D3444B454A002101E037
:1002300043F8041B9342FBD34249434800231A5816
:100240005A500433B3F5DE7FF9D1404B404A802148
:1002500003F8011B9342FBD13A4A3E4B1A603E4BD6
:100260000A221A703D4B24221A70A02203F8012C96
:100270003B4A137803F00203DBB2002BF9D0384A73
:10028000137803F01003DBB2002BF9D1344A137852
:1002900003F00C03082BFAD1324B03221A704022D0
:1002A0005A702F4A137803F02003DBB2002BF9D0E9
:1002B0002B4A137803F04003DBB2002BF9D02A4B12
:1002C0002A4A1A6002225A60294B20221A70244AB4
:1002D000137803F00C030C2BFAD1264A264B1A6034
:1002E000264B274A1A60072243F8042C62B60DF009
:1002F0003DF80C4B1B68DC0702D522480CF06CFE65
:100300000FF034FD0DF097F80DF080FEFEE700BF12
:100310000E20054030800440823F04000100002B85
:1003200010D0034014D0034002D0074000E0074043
:100330005890FF1F0C4E01006089FF1F5890FF1F4F
:1003400074A4FF1F0084FF1F0000000000E400E011
:100350005FE400E008ED00E0005006400140064088
:10036000064006400440064044800440000003016B
:1003700000400640C01005000480044014E000E086
:10038000FF760100CFC88F56FFFFFFFFFFFFFFFF83
:10039000FFFFFFFFFFFFFFFFFFFFFFFFFFFFFFFF6D
:1003A000FFFFFFFFFFFFFFFFFFFFFFFFFFFFFFFF5D
:1003B000FFFFFFFFFFFFFFFFFFFFFFFFFFFFFFFF4D
:1003C000FFFFFFFFFFFFFFFFFFFFFFFFFFFFFFFF3D
:1003D000FFFFFFFFFFFFFFFFFFFFFFFFFFFFFFFF2D
:1003E000FFFFFFFFFFFFFFFFFFFFFFFFFFFFFFFF1D
:1003F000FFFFFFFFFFFFFFFFFFFFFFFFFFFFFFFF0D
:10040000FFFFFFFFFFFFFFFFFFFFFFFFFEFFFFFFFD
:1004100008B549F25800074BC1F6FF701B1A062BAE
:1004200000D808BD40F20003C0F20003002BF8D052
:100430009847F6E75B90FF1F08B549F2580049F26C
:100440005803C1F6FF70C1F6FF731B1A9B1003EB34
:10045000D373591000D108BD40F20002C0F200026F
:10046000002AF8D09047F6E710B549F25804C1F6D3
:10047000FF74237873B9FFF7CBFF40F20003C0F29B
:1004800000032BB144F60C60C0F20100AFF3008012
:100490000123237010BD00BF08B540F20003C0F275
:1004A00000034BB144F60C6049F25C01C0F201005C
:1004B000C1F6FF71AFF3008049F25800C1F6FF703A
:1004C00003682BB140F20003C0F2000303B1984768
:1004D000BDE80840B0E700BF024B4FF400121A60BD
:1004E000704700BF80E100E010B504460DF024FC29
:1004F000204610BD70B503460D46164607481946FE
:100500002A460AF08FFD002404E004480AF0F2F9BC
:1005100030550134E3B2AB42F7D370BD849DFF1F69
:1005200070B50B4C06460D4620461D210AF08EFC88
:10053000314620460AF09CF9294620460AF098F9EF
:1005400020460AF092FD4023013BFDD170BD00BF63
:10055000849DFF1F034670B509480D46194616468F
:1005600000240AF061FC03E0315D0AF081F90134F6
:10057000E3B2AB420248F7D3BDE870400AF075BD64
:10058000849DFF1F064B10221A60064B1A78064BFB
:1005900053F83220012382F88030044A13607047F8
:1005A000C8F00F40689DFF1F304801001C91FF1FDD
:1005B000054B1A78054B53F83220012382F800319D
:1005C000034A1360704700BF689DFF1F3048010059
:1005D000649BFF1F38B50A480A4D09F0D1FD0A4B4C
:1005E000044618680FF006F9014620460FF00AFA93
:1005F000014628680FF04AF82860204638BD00BF41
:100600003C99FF1F7490FF1FE089FF1F38B50A480F
:100610000A4D09F051FD0A4B044618680FF0EAF83C
:10062000014620460FF0EEF9014628680FF02EF83B
:100630002860204638BD00BF3C99FF1FA490FF1FD3
:10064000E089FF1F30B5ADF5B05D81B0684600218F
:100650004FF4B0520FF0B2FF00246D4621462A5DE0
:100660000548013409F0BFFCB4F5B05FF6D10DF5D3
:10067000017D0DF5A05D30BD789DFF1F38B50446A6
:1006800008460D460CF0B4F9236802465B68204624
:100690002946984738BD08B503681B68984708BDC8
:1006A00008B5FFF7EBFF08BD0DF0CCBB0A22002315
:1006B0000DF090BB9DF8001000910DF0CDBB38B54A
:1006C00004460DF058FB054620460DF075FB401919
:1006D00038BD38B50446FFF7D1FF054620460DF07A
:1006E0006BFB281838BD38B504460DF0ABFB05464A
:1006F00020460DF061FB281838BD37B59DF818105D
:10070000009104460DF0A8FB054620460DF054FB71
:1007100028183EBD08B50368C9B21B68984708BDD4
:10072000406800B1C06870470D4B70B540241C6034
:1007300032200CF005FE0B4B0B4D0C4E1C600C4C8C
:1007400031462846FFF7C5FF31462046FFF7C1FF77
:1007500028460DF031FB2046BDE870400DF02CBB63
:10076000C4F00F40C8F00F4074A2FF1F74360100A0
:1007700098A2FF1F10B517491748184CFFF790FFB4
:1007800017481449FFF78CFF236863B915491248CD
:10079000FFF79FFF12481349FFF79BFF124B0222FE
:1007A0001A6001230DE0012B0CD110490A48FFF714
:1007B00090FF0B480D49FFF78CFF0D4B02221A608A
:1007C0000023236004480DF0F7FA0548BDE8104007
:1007D0000DF0F2BA8736010074A2FF1F0C9AFF1FBA
:1007E00098A2FF1F8036010084F00F409C36010064
:1007F00088F00F402DE9F74F002140F6FF724D4879
:100800000AF02AF84C4A0423202413602246013AB5
:10081000FDD14A4A4A4F136011200CF005FF494BA5
:10082000494E1C6005460A200CF08AFD11200CF090
:10083000FBFE83466E200CF083FD11200CF0F4FECD
:10084000424BDFF818911C60414C824621463846E5
:10085000FFF726FF21463046FFF722FF28460EF01D
:10086000C9FF3C490FF0CEF80EF084FB4FF00208B0
:1008700004460D460B462246CDF800803846FFF769
:1008800019FF22462B46CDF800803046FFF712FFB5
:1008900049463846FFF704FF49463046FFF700FF58
:1008A00058460EF0A7FF2B490FF0ACF80EF062FB94
:1008B00004460D460B462246CDF800803846FFF729
:1008C000F9FE22462B46CDF800803046FFF7F2FEB7
:1008D00049463846FFF7E4FE49463046FFF7E0FE5A
:1008E00050460EF087FF1B490FF08CF80EF042FBCC
:1008F00004460B462246CDF8008038460D46FFF7E9
:10090000D9FE2246144CCDF800802B463046FFF726
:10091000D1FE21463846FFF7DCFE21463046FFF780
:10092000D8FE38460DF048FA304603B0BDE8F04F27
:100930000DF042BAF89AFF1F88F00F4084F00F4084
:1009400074A2FF1FC4F00F4098A2FF1FC8F00F4011
:10095000A236010000601345B336010021450100B5
:100960002DE9F34707460E460AA80021144698468B
:100970000C9D09F0E7FC002840F3EA8075497648B1
:10098000FFF78EFE294674480DF0F5F97349724859
:10099000FFF786FE6F497248FFF782FE29467048CE
:1009A0000DF0E9F96D496E48FFF77AFE2046002107
:1009B0000FF008F9002840F0BA8020460EF0DAFA6D
:1009C000022704460D460B46224600976248FFF771
:1009D00071FE0097624822462B46FFF76BFE306897
:1009E00000210FF0EFF8002840F0AA805D495A4836
:1009F000FFF756FE40460EF0BDFA044622460B466F
:100A0000009755480D46FFF755FE56495448FFF7E5
:100A100047FE009722462B465148FFF74BFE8FE0DA
:100A200051494D48FFF73CFE21460AA809F08AFCCF
:100A3000014649480DF006FA4A494748FFF730FE9B
:100A400049494748FFF72CFE21460AA809F07AFCDD
:100A5000014643480DF0F6F941484249FFF720FEB0
:100A600000254FE021460AA858F825A009F06AFCA5
:100A70000EF0C0FE014650464FEA85090FF0A2F87D
:100A800000283ED057F809000EF074FA02250246FD
:100A90000B4600953048FFF70DFE57F809000EF0A1
:100AA00069FA009502460B462D48FFF703FE3068B1
:100AB00000210FF087F8D8B92A492748FFF7F0FD41
:100AC00056F809000EF056FA009502460B462248E9
:100AD000FFF7F0FD23492248FFF7E2FD56F8090031
:100AE0000EF048FA009502460B461D48FFF7E2FD5E
:100AF0001E491948FFF7D4FD1C491948FFF7D0FDDE
:100B000002E001351A2DADD101200CF019FC0AA824
:100B1000FFF706FE0138844207D012490E48FFF75E
:100B2000BFFD0F480F49FFF7BBFD013402E0DFF8BE
:100B3000448000240AA8FFF7F3FD8442FFF670AF5B
:100B40000B490548FFF7ACFD05480949FFF7A8FD2B
:100B5000BDE8FC87623D010074A2FF1FC33601009F
:100B600098A2FF1F21450100C6360100BD460100C5
:100B7000DC4601007489FF1F10B5282000210CF00D
:100B8000CBFA28210A2200230A480DF023F909484C
:100B90000DF012F9642428200CF046FD01460548AA
:100BA000FFF7A1FD4FF4FA600CF0CAFB013CF2D153
:100BB00010BD00BF74A2FF1F70B50C200CF01CFA12
:100BC000282001210CF0A8FA40F2DC553BE0044655
:100BD000214628200CF0BCFA03200CF0B1FB1A20AF
:100BE0000CF022FD214606461C48FFF75DFD1C491E
:100BF0001A48FFF755FD31461848FFF755FD0134F7
:100C000016481749FFF765FDAC42E1D1214628207F
:100C10000CF09EFA03200CF093FB1A200CF004FD5C
:100C2000214606460D48FFF73FFD0D490B48FFF7EB
:100C300037FD31460948FFF737FD08480849FFF7F7
:100C400048FD013CE2D10BF07FFF0028BFD00BF044
:100C500035FFBDE870400BF031BF00BF74A2FF1F2D
:100C600021450100012801D8FFF7B4BC70470128D5
:100C700001D8FFF7CBBC70472DE9F84304463F4845
:100C80003F4F404E404D09F0B5FD0EF0AFFD3860CE
:100C90003A4809F0A8FD0EF0A9FD3060374809F088
:100CA0009BFD0EF0A3FD2860344809F08EFD0EF088
:100CB0009DFD364B804618603CBB354BDFF8EC9011
:100CC00018680EF097FD044621463868314F0EF043
:100CD00099FE0146D9F800000EF0D8FC2146C9F86B
:100CE000000030682C4E0EF08DFE014638680EF084
:100CF000CDFC214638602868284D0EF083FE014661
:100D000030680EF0C3FC306028E0012C2FD1204B5E
:100D1000DFF89C9018680EF06DFD04462146386897
:100D20001F4F0EF06FFE0146D9F800000EF0AEFC2A
:100D30002146C9F8000030681A4E0EF063FE0146E5
:100D400038680EF0A3FC214638602868164D0EF076
:100D500059FE014630680EF099FC3060214640464D
:100D60000EF050FE014628680EF090FC2860044BFF
:100D700018680EF059FFBDE8F88300BFFC97FF1F0D
:100D80002098FF1FCC9AFF1FB09AFF1F9490FF1F5F
:100D9000E089FF1F4099FF1F0891FF1F709DFF1FF3
:100DA000049AFF1F089AFF1FF095FF1FF495FF1F7D
:100DB0003499FF1F2DE9F74F2A4DDFF8B4B0DFF863
:100DC000B4A0294EDFF8B090DFF8B080274C594628
:100DD0002846FFF765FCDAF800000EF0CBF8022792
:100DE00002460B4600972846FFF764FC314628462A
:100DF000FFF756FC49462846FFF752FCD8F800009A
:100E00000EF0B8F8009702460B462846FFF752FC52
:100E100059462046FFF744FCDAF800000EF0AAF825
:100E2000009702460B462046FFF744FC3146204619
:100E3000FFF736FC49462046FFF732FCD8F80000A1
:100E40000EF098F8009702460B462046FFF732FC5A
:100E500031462846FFF724FC20463146FFF720FCA8
:100E6000BDE8FE8F74A2FF1F2145010098A2FF1F5D
:100E7000693701006889FF1F78370100A097FF1FBD
:100E80002DE9F0410D46ADF57E7D04462B48DFF897
:100E9000B88016460DF078F8294629480DF074F808
:100EA0004FF47A72002104A80FF088FB204600213D
:100EB0000DF0F9F9234B1A680192019D1A6802920C
:100EC000029A1F460DE03B6803930398401B0EF007
:100ED00091FCD8F800100EF09DFE10B1FFF724FC35
:100EE00005E00BF031FE10B90BF0BCFCE8B10BF0E3
:100EF0002BFE002805DD0BF009FE5B2818D00F48FB
:100F000008E00BF0AFFC002812DD0BF0D1FC5B28F1
:100F10000ED00B482B2104AA4FF47A730DF036F84B
:100F2000204604A90DF0F7F902E0012ED9D1CAE755
:100F300020460DF57E7DBDE8F08100BF74A2FF1F45
:100F400098A2FF1FE0A1FF1F6C89FF1FF0B50446A8
:100F500091B0224821460DF017F8214821460DF0A6
:100F600013F82022002108A80FF028FB04A8002174
:100F70000DF099F91B4B1A680192019E1A680292B2
:100F8000029A1F460BF0E0FD10B90BF06BFCC0B1EC
:100F90000BF068FC002801DD114804E00BF0D4FDE3
:100FA000002815DD0D4808AA20232B210CF0EEFFA8
:100FB00008A904A80DF0AFF904980EF085FE0546C7
:100FC00006E03B680393039B9B1BA342DADDDFE74C
:100FD00004A80DF027F9284611B0F0BD74A2FF1F38
:100FE00098A2FF1FE0A1FF1F2DE9F041064690B037
:100FF000244831460CF0C8FF234831460CF0C4FFAA
:101000002022002108A80FF0D9FA04A800210DF031
:101010004AF91E4B1A680192019F1A680292029ABD
:1010200098460BF091FD10B90BF01CFCC8B10BF009
:101030008BFD002801DD134804E00BF013FC0028B1
:1010400017DD114808AA20232B210CF09FFF08A9C7
:1010500004A80DF060F904980EF032FE04460D4627
:1010600007E0D8F800300393039BDB1BB342D8DDC5
:10107000DDE704A80DF0D6F82046294610B0BDE8FB
:10108000F08100BF74A2FF1F98A2FF1FE0A1FF1F05
:1010900008B5044B19680EF0F7FA034B19680EF007
:1010A000B1FC08BDA097FF1F6889FF1F2DE9F04123
:1010B000314D06468846002430460EF09BFB014623
:1010C00055F824000EF07EFD002830D02B4B53F84D
:1010D00024602B4B53F824702A4B53F824502A4B8E
:1010E000304653F824100EF0CFFA31460EF08AFC49
:1010F000014628460EF0D2FB014628460EF0C6FAFD
:10110000224B53F82460224B054653F824103846EE
:101110000EF0BAFA39460EF075FC014630460EF074
:10112000BDFB014630460EF0B1FA044604E001343E
:101130001A2CC1D1002425462046002101270EF09B
:1011400041FD00B10027FFB247B928460021012622
:101150000EF038FD00B13E46F0B250B140460EF000
:1011600049FB21460EF090FA29460EF04BFC0EF09A
:1011700081FDBDE8F08100BF7489FF1FC898FF1F83
:101180001C9AFF1FD096FF1F6098FF1F3897FF1F04
:101190008C99FF1F2DE9F34106460C463048314932
:1011A00017461D46FFF77CFA31462D480CF0E3FD4B
:1011B0002D492B48FFF774FA2A492C48FFF770FA9B
:1011C00031462A480CF0D7FD28482749FFF768FA2E
:1011D0004FF0000806261FE020680DF0CBFE0096B9
:1011E00002460B461E48FFF765FA54F8040B0DF053
:1011F000C1FE009602460B461C48FFF75BFA6B1EC9
:10120000984507D01A491648FFF74AFA174818496F
:10121000FFF746FA08F10108A845DDDB154910483B
:10122000FFF73EFA11481349FFF73AFA012F0C482D
:1012300005D00F49FFF74DFA0C480D490CE00E4957
:10124000FFF747FA0D490648FFF743FA0A490748EE
:10125000FFF73FFA05480949FFF73BFABDE8FC8173
:1012600074A2FF1F623D01008138010098A2FF1F98
:1012700021450100BD46010085360100BA3B010051
:10128000F7B504460D462E482E491746FFF708FAD3
:1012900021462B480CF06FFD2B492948FFF700FA37
:1012A00028492A48FFF7FCF9214628480CF063FD3D
:1012B00026482549FFF7F4F90024022628680DF096
:1012C00059FE009602460B461D48FFF7F3F955F804
:1012D000040B0DF04FFE009602460B461B48FFF72D
:1012E000E9F9192C07D01A491548FFF7D9F9174819
:1012F0001749FFF7D5F901341A2CDFD115491048E9
:10130000FFF7CEF911481349FFF7CAF9012F0C482E
:1013100005D00F49FFF7DDF90C480D490CE00E49E7
:10132000FFF7D7F90D490648FFF7D3F90A490748EF
:10133000FFF7CFF905480949FFF7CBF9FEBD00BF1C
:1013400074A2FF1F623D01008138010098A2FF1FB7
:1013500021450100BD46010085360100BA3B010070
:1013600010B50EF047FA0B4B196804460EF096FACA
:10137000094B19680EF08AF9084B1860084B204693
:1013800019680EF08BFA074B19680EF07FF9064BBF
:10139000186010BD1491FF1FF499FF1F8C9AFF1F56
:1013A0001891FF1FF899FF1F6C9DFF1F2DE9F74350
:1013B000054638B953495448FFF772F95348514923
:1013C000FFF76EF9DFF8689151494F48DFF8648103
:1013D000504F514EFFF764F9D9F800000DF0CAFDE7
:1013E000022402460B4600944748FFF763F94B4935
:1013F0004548FFF755F94A494348FFF751F9D8F8EE
:1014000000000DF0B7FD009402460B463E48FFF782
:1014100051F942493C48FFF743F942493A48FFF73E
:101420003FF938680DF0A6FD009402460B46364899
:10143000FFF740F939493448FFF732F93A49324861
:10144000FFF72EF930680DF095FD009402460B462B
:101450002D48FFF72FF92E492C48FFF721F9D9F82D
:1014600000000DF087FD009402460B462748FFF769
:1014700021F92A492548FFF713F929492348FFF79D
:101480000FF9D8F800000DF075FD009402460B46E8
:101490001E48FFF70FF921491C48FFF701F92149C0
:1014A0001A48FFF7FDF838680DF064FD0094024615
:1014B0000B461648FFF7FEF818491448FFF7F0F8F6
:1014C00019491248FFF7ECF830680DF053FD00940D
:1014D00002460B460D48FFF7EDF8012D0A4807D1EB
:1014E0000E49FFF7DDF80D490848FFF7D9F806E087
:1014F0000E49FFF7EEF805480C49FFF7EAF8BDE89A
:10150000FE8300BF8D37010074A2FF1F98A2FF1F4A
:101510008F3701001891FF1FF899FF1F2145010027
:101520009B370100AC370100B83701008536010058
:101530001491FF1FF499FF1F01282DE9F3418846FC
:1015400016461D463DD1A64FA649A748FFF7A8F865
:1015500038680DF00FFD062402460B460094A248A1
:10156000FFF7A8F8A149A048FFF79AF878680DF0AE
:1015700001FD009402460B469B48FFF79BF89C49EF
:101580009948FFF78DF897499A48FFF789F8386826
:101590000DF0F0FC009402460B469648FFF78AF8DF
:1015A00092499448FFF77CF878680DF0E3FC0094CA
:1015B00002460B468F48FFF77DF88E488C49FFF7AF
:1015C0006FF8B8F1010F3DD18B4F8C498648FFF77A
:1015D00067F838680DF0CEFC062402460B460094EE
:1015E0008148FFF767F881497F48FFF759F8786825
:1015F0000DF0C0FC009402460B467B48FFF75AF8FA
:101600007B497948FFF74CF87C497A48FFF748F85E
:1016100038680DF0AFFC009402460B467548FFF7A2
:1016200049F872497348FFF73BF878680DF0A2FC5F
:10163000009402460B466F48FFF73CF86D486C4932
:10164000FFF72EF8012E3DD16D4E6E496648FFF72B
:1016500027F830680DF08EFC062402460B460094F5
:101660006148FFF727F861495F48FFF719F870688C
:101670000DF080FC009402460B465B48FFF71AF819
:101680005B495948FFF70CF85E495A48FFF708F8DC
:1016900030680DF06FFC009402460B465548FFF78A
:1016A00009F852495348FEF7FBFF70680DF062FCE1
:1016B000009402460B464F48FEF7FCFF4D484C494C
:1016C000FEF7EEFF012D3DD14F4D50494648FEF744
:1016D000E7FF28680DF04EFC062402460B460094F6
:1016E0004148FEF7E7FF41493F48FEF7D9FF6868E8
:1016F0000DF040FC009402460B463B48FEF7DAFF33
:101700003B493948FEF7CCFF40493A48FEF7C8FF4D
:1017100028680DF02FFC009402460B463548FEF772
:10172000C9FF32493348FEF7BBFF68680DF022FC61
:10173000009402460B462F48FEF7BCFF2D482C496B
:10174000FEF7AEFF089B012B3DD1314D31492648B4
:10175000FEF7A6FF28680DF00DFC062402460B4696
:1017600000942148FEF7A6FF20491F48FEF798FF86
:1017700068680DF0FFFB009402460B461A48FEF71E
:1017800099FF1B491848FEF78BFF22491948FEF7BD
:1017900087FF28680DF0EEFB009402460B461548C3
:1017A000FEF788FF11491348FEF77AFF68680DF0CD
:1017B000E1FB009402460B460E48FEF77BFF0D4806
:1017C0000B49FEF76DFF099B012B5ED1124D1349AA
:1017D0000548FEF765FF28680DF0CCFB06241FE0E6
:1017E000A09AFF1FC937010074A2FF1F2145010005
:1017F000DC46010098A2FF1FA89AFF1FDA370100FC
:10180000B49AFF1FEB3701006499FF1FFC370100FA
:10181000BC9AFF1F0D380100C49AFF1F1E3801003B
:1018200002460B460094A548FEF744FFA449A3488E
:10183000FEF736FF68680DF09DFB009402460B46EC
:101840009E48FEF737FF9F499C48FEF729FF9E49B7
:101850009E48FEF725FF28680DF08CFB0094024699
:101860000B469A48FEF726FF95499848FEF718FF61
:1018700068680DF07FFB009402460B469348FEF724
:1018800019FF92488F49FEF70BFF0A9B012B3DD1B0
:101890008F4D90498948FEF703FF28680DF06AFBD9
:1018A000062402460B4600948448FEF703FF844951
:1018B0008248FEF7F5FE68680DF05CFB0094024676
:1018C0000B467E48FEF7F6FE7E497C48FEF7E8FEB2
:1018D00080497E48FEF7E4FE28680DF04BFB00943B
:1018E00002460B467948FEF7E5FE75497748FEF754
:1018F000D7FE68680DF03EFB009402460B46734825
:10190000FEF7D8FE71486F49FEF7CAFE0B9B012B0C
:101910003DD1714D71496948FEF7C2FE28680DF04E
:1019200029FB062402460B4600946448FEF7C2FEDB
:1019300063496248FEF7B4FE68680DF01BFB009433
:1019400002460B465D48FEF7B5FE5E495B48FEF772
:10195000A7FE62495D48FEF7A3FE28680DF00AFB6A
:10196000009402460B465948FEF7A4FE54495748D6
:10197000FEF796FE68680DF0FDFA009402460B46ED
:101980005248FEF797FE51484E49FEF789FE0C9BE0
:10199000012B3DD1524D53494848FEF781FE28683E
:1019A0000DF0E8FA062402460B4600944348FEF781
:1019B00081FE43494148FEF773FE68680DF0DAFA8C
:1019C000009402460B463D48FEF774FE3D493B48F5
:1019D000FEF766FE43493D48FEF762FE28680DF0BB
:1019E000C9FA009402460B463848FEF763FE3449B4
:1019F0003648FEF755FE68680DF0BCFA00940246C2
:101A00000B463248FEF756FE30482E49FEF748FE98
:101A10000D9B012B3DD1344D34492848FEF740FE43
:101A200028680DF0A7FA062402460B4600942348C6
:101A3000FEF740FE22492148FEF732FE68680DF0AD
:101A400099FA009402460B461C48FEF733FE1D49E6
:101A50001A48FEF725FE25491C48FEF721FE286896
:101A60000DF088FA009402460B461848FEF722FE55
:101A700013491648FEF714FE68680DF07BFA0094CF
:101A800002460B461148FEF715FE10480D49FEF7B9
:101A900007FE0E9B012B5DD1154D16490748FEF739
:101AA000FFFD28680DF066FA062402460B460094F6
:101AB0000248FEF7FFFD02491EE000BF74A2FF1FAF
:101AC00021450100DC4601001E38010098A2FF1FDD
:101AD0008090FF1F2F380100D89AFF1F4038010067
:101AE0008C90FF1F513801008499FF1F623801005C
:101AF000A897FF1F73380100A548FEF7D1FD68685D
:101B00000DF038FA009402460B46A148FEF7D2FDCC
:101B1000A0499F48FEF7C4FD9F49A048FEF7C0FDBD
:101B200028680DF027FA009402460B469B48FEF702
:101B3000C1FD9B499948FEF7B3FD68680DF01AFA9C
:101B4000009402460B469548FEF7B4FD9348914930
:101B5000FEF7A6FD0F9B012B3DD1924D92498C487B
:101B6000FEF79EFD28680DF005FA062402460B4696
:101B700000948748FEF79EFD89498548FEF790FD51
:101B800068680DF0F7F9009402460B468048FEF7AE
:101B900091FD80497E48FEF783FD83497F48FEF72B
:101BA0007FFD28680DF0E6F9009402460B467B485D
:101BB000FEF780FD7A497948FEF772FD68680DF0FE
:101BC000D9F9009402460B467448FEF773FD73483A
:101BD0007049FEF765FD109B012B3DD1734D744993
:101BE0006B48FEF75DFD28680DF0C4F90624024637
:101BF0000B4600946648FEF75DFD69496448FEF7B0
:101C00004FFD68680DF0B6F9009402460B46604837
:101C1000FEF750FD5F495E48FEF742FD64495F48AC
:101C2000FEF73EFD28680DF0A5F9009402460B462C
:101C30005A48FEF73FFD5A495848FEF731FD68689B
:101C40000DF098F9009402460B465448FEF732FD19
:101C500052485049FEF724FD119B012B3DD1554DB3
:101C600055494B48FEF71CFD28680DF083F9062402
:101C700002460B4600944648FEF71CFD484944487E
:101C8000FEF70EFD68680DF075F9009402460B46EC
:101C90003F48FEF70FFD3F493D48FEF701FD46492D
:101CA0003E48FEF7FDFC28680DF064F900940246FA
:101CB0000B463A48FEF7FEFC39493848FEF7F0FC7F
:101CC00068680DF057F9009402460B463348FEF75A
:101CD000F1FC32482F49FEF7E3FC129B012B3DD16A
:101CE000364D37492A48FEF7DBFC28680DF042F9EB
:101CF000062402460B4600942548FEF7DBFC2849E3
:101D00002348FEF7CDFC68680DF034F900940246D4
:101D10000B461F48FEF7CEFC1E491D48FEF7C0FCCF
:101D200027491E48FEF7BCFC28680DF023F90094F3
:101D300002460B461948FEF7BDFC19491748FEF745
:101D4000AFFC68680DF016F9009402460B46134884
:101D5000FEF7B0FC11480F49FEF7A2FC139B012BC4
:101D60005CD1184D18490A48FEF79AFC28680DF016
:101D700001F9062402460B4600940548FEF79AFC3A
:101D800007490348FEF78CFC68680DF0F3F81DE086
:101D900074A2FF1FDC4601007338010098A2FF1FE8
:101DA00021450100B097FF1F85380100B897FF1F3C
:101DB00097380100C097FF1FA9380100C897FF1F7F
:101DC000BB380100D097FF1FCD38010000940246B8
:101DD0000B46A548FEF76EFCA449A348FEF760FC3D
:101DE000A349A448FEF75CFC28680DF0C3F80094F2
:101DF00002460B469F48FEF75DFC9F499D48FEF753
:101E00004FFC68680DF0B6F8009402460B469948FE
:101E1000FEF750FC97489549FEF742FC149B012BB6
:101E20003DD1964D96499048FEF73AFC28680DF052
:101E3000A1F8062402460B4600948B48FEF73AFCB4
:101E40008D498948FEF72CFC68680DF093F80094E2
:101E500002460B468448FEF72DFC84498248FEF773
:101E60001FFC87498348FEF71BFC28680DF082F8A9
:101E7000009402460B467F48FEF71CFC7E497D48D5
:101E8000FEF70EFC68680DF075F8009402460B46EC
:101E90007848FEF70FFC77487449FEF701FC159B64
:101EA000012B3DD1774D78496F48FEF7F9FB286843
:101EB0000DF060F8062402460B4600946A48FEF7CF
:101EC000F9FB6D496848FEF7EBFB68680DF052F8C6
:101ED000009402460B466448FEF7ECFB63496248F7
:101EE000FEF7DEFB68496348FEF7DAFB28680DF071
:101EF00041F8009402460B465E48FEF7DBFB5E4964
:101F00005C48FEF7CDFB68680DF034F8009402469B
:101F10000B465848FEF7CEFB56485449FEF7C0FB27
:101F2000169B012B3DD1594D59494F48FEF7B8FB3F
:101F300028680DF01FF8062402460B4600944A4814
:101F4000FEF7B8FB4C494848FEF7AAFB68680DF05D
:101F500011F8009402460B464348FEF7ABFB434999
:101F60004148FEF79DFB4A494248FEF799FB286825
:101F70000DF000F8009402460B463E48FEF79AFB2F
:101F80003D493C48FEF78CFB68680CF0F3FF009479
:101F900002460B463748FEF78DFB36483349FEF7BD
:101FA0007FFB179B012B3DD13A4D3B492E48FEF755
:101FB00077FB28680CF0DEFF062402460B460094EF
:101FC0002948FEF777FB2C492748FEF769FB68682C
:101FD0000CF0D0FF009402460B462348FEF76AFB44
:101FE00022492148FEF75CFB2B492248FEF758FBAB
:101FF00028680CF0BFFF009402460B461D48FEF710
:1020000059FB1D491B48FEF74BFB68680CF0B2FFFB
:10201000009402460B461748FEF74CFB154813493F
:10202000FEF73EFB189B012B5DD11C4D1C490E4851
:10203000FEF736FB28680CF09DFF062402460B468F
:1020400000940948FEF736FB0B490748FEF728FBCA
:1020500068680CF08FFF009402460B460248FEF7BA
:1020600029FB02491EE000BF74A2FF1FDC460100ED
:10207000CD38010098A2FF1F21450100D897FF1F0E
:10208000DF380100E097FF1FF1380100E897FF1FDC
:1020900003390100F097FF1F153901004499FF1F14
:1020A00027390100A448FEF7FBFAA449A448FEF72B
:1020B000F7FA28680CF05EFF009402460B46A04831
:1020C000FEF7F8FA9F499E48FEF7EAFA68680CF0B6
:1020D00051FF009402460B469948FEF7EBFA9848E8
:1020E0009949FEF7DDFA199B012B3DD1974D98498F
:1020F0009148FEF7D5FA28680CF03CFF062402460A
:102100000B4600948C48FEF7D5FA8E498A48FEF7B4
:10211000C7FA68680CF02EFF009402460B4686480A
:10212000FEF7C8FA88498448FEF7BAFA8849844815
:10213000FEF7B6FA28680CF01DFF009402460B4625
:102140007F48FEF7B7FA7F497D48FEF7A9FA68682D
:102150000CF010FF009402460B467948FEF7AAFAED
:1021600077487949FEF79CFA1A9B012B3DD1794DAE
:1021700079497148FEF794FA28680CF0FBFE0624B2
:1021800002460B4600946C48FEF794FA6D496A4883
:10219000FEF786FA68680CF0EDFE009402460B46E6
:1021A0006548FEF787FA68496348FEF779FA6A4995
:1021B0006348FEF775FA28680CF0DCFE00940246CE
:1021C0000B465F48FEF776FA5E495D48FEF768FA0F
:1021D00068680CF0CFFE009402460B465848FEF7A4
:1021E00069FA57485849FEF75BFA1B9B012B3DD112
:1021F0005A4D5B495048FEF753FA28680CF0BAFE76
:10220000062402460B4600944B48FEF753FA4D490C
:102210004948FEF745FA68680CF0ACFE00940246A7
:102220000B464548FEF746FA47494348FEF738FA59
:102230004B494348FEF734FA28680CF09BFE0094A3
:1022400002460B463E48FEF735FA3E493C48FEF74B
:1022500027FA68680CF08EFE009402460B46384858
:10226000FEF728FA36483849FEF71AFA1C9B012B6C
:102270003DD13C4D3C493048FEF712FA28680CF03D
:1022800079FE062402460B4600942B48FEF712FA0C
:102290002C492948FEF704FA68680CF06BFE00949C
:1022A00002460B462448FEF705FA27492248FEF766
:1022B000F7F92D492248FEF7F3F928680CF05AFE89
:1022C000009402460B461E48FEF7F4F91D491C48CF
:1022D000FEF7E6F968680CF04DFE009402460B46E6
:1022E0001748FEF7E7F916481749FEF7D9F91D9B7D
:1022F000012B5CD11D4D1E490F48FEF7D1F928680E
:102300000CF038FE062402460B4600940A48FEF7FD
:10231000D1F90C490848FEF7C3F968680CF02AFEA9
:10232000009402460B460448FEF7C4F906490248E9
:10233000FEF7B6F90E491DE074A2FF1F2739010010
:1023400098A2FF1F21450100DC4601004C99FF1FA8
:10235000393901005499FF1F4B3901005C99FF1F67
:102360005D390100109AFF1F6F3901006C99FF1F42
:1023700081390100A548FEF793F928680CF0FAFDB1
:10238000009402460B46A148FEF794F9A0499F48E5
:10239000FEF786F968680CF0EDFD009402460B46E6
:1023A0009A48FEF787F999489A49FEF779F91E9BF2
:1023B000012B3DD1984D99499948FEF771F928684C
:1023C0000CF0D8FD062402460B4600949448FEF714
:1023D00071F98F499248FEF763F968680CF0CAFDFD
:1023E000009402460B468E48FEF764F989498C48F2
:1023F000FEF756F989498548FEF752F928680CF02E
:10240000B9FD009402460B468048FEF753F9804917
:102410007E48FEF745F968680CF0ACFD0094024672
:102420000B467A48FEF746F978487A49FEF738F9BC
:102430001F9B012B3DD17B4D7B497948FEF730F93D
:1024400028680CF097FD062402460B460094744859
:10245000FEF730F96E497248FEF722F968680CF011
:1024600089FD009402460B466D48FEF723F9694941
:102470006B48FEF715F96C496448FEF711F92868B6
:102480000CF078FD009402460B466048FEF712F906
:102490005F495E48FEF704F968680CF06BFD009434
:1024A00002460B465948FEF705F958485949FEF7C8
:1024B000F7F8209B012B3DD15C4D5D495848FEF754
:1024C000EFF828680CF056FD062402460B460094EF
:1024D0005348FEF7EFF84E495148FEF7E1F86868B7
:1024E0000CF048FD009402460B464D48FEF7E2F81A
:1024F00048494B48FEF7D4F84D494448FEF7D0F818
:1025000028680CF037FD009402460B463F48FEF762
:10251000D1F83F493D48FEF7C3F868680CF02AFD42
:10252000009402460B463948FEF7C4F8374839494B
:10253000FEF7B6F8219B012B3DD13E4D3E49384870
:10254000FEF7AEF828680CF015FD062402460B468F
:1025500000943348FEF7AEF82D493148FEF7A0F855
:1025600068680CF007FD009402460B462C48FEF705
:10257000A1F828492A48FEF793F82F492348FEF787
:102580008FF828680CF0F6FC009402460B461F48B2
:10259000FEF790F81E491D48FEF782F868680CF0B7
:1025A000E9FC009402460B461848FEF783F81748EA
:1025B0001849FEF775F8229B012B5AD11F4D20496F
:1025C0001748FEF76DF828680CF0D4FC0624024684
:1025D0000B4600941248FEF76DF80D491048FEF7BF
:1025E0005FF868680CF0C6FC009402460B460C4885
:1025F000FEF760F807490A48FEF752F81049034809
:10260000FEF74EF828680CF0B5FC1BE098A2FF1FFF
:1026100021450100DC4601007499FF1F9339010038
:1026200074A2FF1F849AFF1FA5390100909AFF1F13
:10263000B73901007C99FF1FC9390100E09AFF1FDB
:10264000DB390100009402460B46A548FEF732F83C
:10265000A449A348FEF724F868680CF08BFC0094AA
:1026600002460B469E48FEF725F89D489E49FEF718
:1026700017F8239B012B3DD19C4D9D499D48FEF7AA
:102680000FF828680CF076FC062402460B460094EE
:102690009848FEF70FF893499648FEF701F86868E6
:1026A0000CF068FC009402460B469248FEF702F8D4
:1026B0008D499048FDF7F4FF8D498948FDF7F0FFFB
:1026C00028680CF057FC009402460B468448FDF73E
:1026D000F1FF84498248FDF7E3FF68680CF04AFC8B
:1026E000009402460B467E48FDF7E4FF7C487E4995
:1026F000FDF7D6FF249B012B3DD17F4D7F497D48BF
:10270000FDF7CEFF28680CF035FC062402460B4688
:1027100000947848FDF7CEFF72497648FDF7C0FF78
:1027200068680CF027FC009402460B467148FDF7E0
:10273000C1FF6D496F48FDF7B3FF70496848FDF769
:10274000AFFF28680CF016FC009402460B46644864
:10275000FDF7B0FF63496248FDF7A2FF68680CF01F
:1027600009FC009402460B465D48FDF7A3FF5C4858
:102770005D49FDF795FF259B012B3DD1604D6149DA
:102780005C48FDF78DFF28680CF0F4FB0624024638
:102790000B4600945748FDF78DFF52495548FDF709
:1027A0007FFF68680CF0E6FB009402460B46514838
:1027B000FDF780FF4C494F48FDF772FF51494848EB
:1027C000FDF76EFF28680CF0D5FB009402460B461F
:1027D0004348FDF76FFF43494148FDF761FF6868D3
:1027E0000CF0C8FB009402460B463D48FDF762FF23
:1027F0003B483D49FDF754FF269B012B3DD1424DFF
:1028000042493C48FDF74CFF28680CF0B3FB062416
:1028100002460B4600943748FDF74CFF31493548D6
:10282000FDF73EFF68680CF0A5FB009402460B46DE
:102830003048FDF73FFF2C492E48FDF731FF334963
:102840002748FDF72DFF28680CF094FB0094024602
:102850000B462348FDF72EFF22492148FDF720FFB4
:1028600068680CF087FB009402460B461C48FDF795
:1028700021FF1B481C49FDF713FF279B012B5BD150
:10288000234D24491B48FDF70BFF28680CF072FB11
:10289000062402460B4600941648FDF70BFF11492B
:1028A0001448FDF7FDFE68680CF064FB00940246D6
:1028B0000B461048FDF7FEFE0B490E48FDF7F0FEF3
:1028C00014490748FDF7ECFE28680CF053FB009410
:1028D00002460B460248FDF7EDFE02491CE000BF30
:1028E00098A2FF1F21450100DC460100E89AFF1F66
:1028F000ED39010074A2FF1FF09AFF1FFF3901009C
:102900006096FF1F113A01002C9BFF1F233A010024
:10291000349BFF1F353A0100A548FDF7C1FE6868EA
:102920000CF028FB009402460B46A148FDF7C2FEBE
:102930009F48A049FDF7B4FE289B012B3DD19E4D39
:102940009E499F48FDF7ACFE28680CF013FB062457
:1029500002460B4600949A48FDF7ACFE9949984808
:10296000FDF79EFE68680CF005FB009402460B46DE
:102970009348FDF79FFE8F499148FDF791FE8F49DF
:102980008B48FDF78DFE28680CF0F4FA009402469F
:102990000B468748FDF78EFE8A498548FDF780FE85
:1029A00068680CF0E7FA009402460B468048FDF791
:1029B00081FE7F487F49FDF773FE299B012B3DD1A6
:1029C000814D82497E48FDF76BFE28680CF0D2FAF3
:1029D000062402460B4600947948FDF76BFE7949C0
:1029E0007748FDF75DFE68680CF0C4FA0094024673
:1029F0000B467348FDF75EFE6E497148FDF750FEC9
:102A000072496B48FDF74CFE28680CF0B3FA00944D
:102A100002460B466648FDF74DFE6A496448FDF7DD
:102A20003FFE68680CF0A6FA009402460B46604828
:102A3000FDF740FE5E485F49FDF732FE2A9B012B01
:102A40003DD1634D63495E48FDF72AFE28680CF0CE
:102A500091FA062402460B4600945948FDF72AFED7
:102A600058495748FDF71CFE68680CF083FA00943B
:102A700002460B465248FDF71DFE4E495048FDF7F1
:102A80000FFE54494A48FDF70BFE28680CF072FA15
:102A9000009402460B464648FDF70CFE494944485F
:102AA000FDF7FEFD68680CF065FA009402460B46DF
:102AB0003F48FDF7FFFD3E483E49FDF7F1FD2B9BEA
:102AC000012B3DD1444D45493D48FDF7E9FD2868BE
:102AD0000CF050FA062402460B4600943848FDF7E5
:102AE000E9FD38493648FDF7DBFD68680CF042FA2D
:102AF000009402460B463248FDF7DCFD2D49304874
:102B0000FDF7CEFD35492A48FDF7CAFD28680CF0CF
:102B100031FA009402460B462548FDF7CBFD2949C2
:102B20002348FDF7BDFD68680CF024FA00940246C6
:102B30000B461F48FDF7BEFD1D481E49FDF7B0FDC1
:102B40002C9B012B5AD1264D26491D48FDF7A8FD87
:102B500028680CF00FFA062402460B460094184829
:102B6000FDF7A8FD17491648FDF79AFD68680CF0B7
:102B700001FA009402460B461148FDF79BFD0D49F2
:102B80000F48FDF78DFD17490948FDF789FD2868B5
:102B90000CF0F0F9009402460B460548FDF78AFD5B
:102BA00008490348FDF77CFD68680CF0E3F91BE079
:102BB00098A2FF1FDC4601003C9BFF1F473A010023
:102BC00074A2FF1F21450100449BFF1F593A0100D9
:102BD0004C9BFF1F6B3A0100549BFF1F7D3A010085
:102BE000989AFF1F8F3A0100009402460B46A548B1
:102BF000FDF760FDA348A449FDF752FD2D9B012B75
:102C00003DD1A24DA249A348FDF74AFD28680CF02A
:102C1000B1F9062402460B4600949E48FDF74AFD92
:102C20009D499C48FDF73CFD68680CF0A3F90094B1
:102C300002460B469748FDF73DFD93499548FDF741
:102C40002FFD93498F48FDF72BFD28680CF092F972
:102C5000009402460B468B48FDF72CFD8E498948AF
:102C6000FDF71EFD68680CF085F9009402460B46DE
:102C70008448FDF71FFD83488349FDF711FD2E9B16
:102C8000012B3DD1854D86498248FDF709FD286815
:102C90000CF070F9062402460B4600947D48FDF7BF
:102CA00009FD7D497B48FDF7FBFC68680CF062F983
:102CB000009402460B467748FDF7FCFC72497548C4
:102CC000FDF7EEFC76496F48FDF7EAFC28680CF04A
:102CD00051F9009402460B466A48FDF7EBFC6E4939
:102CE0006848FDF7DDFC68680CF044F90094024682
:102CF0000B466448FDF7DEFC62486349FDF7D0FCF3
:102D00002F9B012B3DD1674D67496248FDF7C8FCF9
:102D100028680CF02FF9062402460B4600945D4803
:102D2000FDF7C8FC5C495B48FDF7BAFC68680CF02D
:102D300021F9009402460B465648FDF7BBFC524968
:102D40005448FDF7ADFC58494E48FDF7A9FC2868EA
:102D50000CF010F9009402460B464A48FDF7AAFC15
:102D60004D494848FDF79CFC68680CF003F9009455
:102D700002460B464348FDF79DFC42484249FDF799
:102D80008FFC309B012B3DD1484D49494148FDF70F
:102D900087FC28680CF0EEF8062402460B460094E7
:102DA0003C48FDF787FC3C493A48FDF779FC6868E8
:102DB0000CF0E0F8009402460B463648FDF77AFC2A
:102DC00031493448FDF76CFC39492E48FDF768FC61
:102DD00028680CF0CFF8009402460B462948FDF70E
:102DE00069FC2D492748FDF75BFC68680CF0C2F8C8
:102DF000009402460B462348FDF75CFC214822491B
:102E0000FDF74EFC319B012B5BD12A4D2A4921480D
:102E1000FDF746FC28680CF0ADF8062402460B4688
:102E200000941C48FDF746FC1B491A48FDF738FC86
:102E300068680CF09FF8009402460B461548FDF7B1
:102E400039FC11491348FDF72BFC1B490D48FDF7D0
:102E500027FC28680CF08EF8009402460B460948BF
:102E6000FDF728FC0C490748FDF71AFC68680CF0D0
:102E700081F8009402460B460248FDF71BFC01480E
:102E80001CE000BF98A2FF1FDC460100A890FF1FB6
:102E9000A13A010074A2FF1F21450100B090FF1F5D
:102EA000B33A0100B890FF1FC53A0100C090FF1F60
:102EB000D73A0100C890FF1FE93A0100A549FDF784
:102EC000EFFB329B012B57D1A34DA449A448FDF73A
:102ED000E7FB28680CF04EF8062402460B460094E7
:102EE0009F48FDF7E7FB9F499D48FDF7D9FB6868C0
:102EF0000CF040F8009402460B469948FDF7DAFBC7
:102F000098499748FDF7CCFBA8680CF033F800947B
:102F100002460B469248FDF7CDFB8E499048FDF7DF
:102F2000BFFB8E499048FDF7BBFB28680CF022F8E8
:102F3000009402460B468C48FDF7BCFB89498A4841
:102F4000FDF7AEFB68680CF015F8009402460B46DE
:102F50008548FDF7AFFB83498348FDF7A1FBA868CF
:102F60000CF008F8009402460B467F48FDF7A2FBE0
:102F70007D487849FDF794FB339B012B57D17B4D5E
:102F80007B497748FDF78CFB28680BF0F3FF06249C
:102F900002460B4600947248FDF78CFB714970485D
:102FA000FDF77EFB68680BF0E5FF009402460B46D8
:102FB0006B48FDF77FFB6B496948FDF771FBA8681B
:102FC0000BF0D8FF009402460B466548FDF772FBF4
:102FD00060496348FDF764FB65496348FDF760FBA2
:102FE00028680BF0C7FF009402460B465E48FDF7C9
:102FF00061FB5C495C48FDF753FB68680BF0BAFF66
:10300000009402460B465848FDF754FB5549564874
:10301000FDF746FBA8680BF0ADFF009402460B4697
:103020005148FDF747FB50484A49FDF739FB349BAF
:10303000012B57D14F4D50494948FDF731FB2868C6
:103040000BF098FF062402460B4600944448FDF717
:1030500031FB44494248FDF723FB68680BF08AFFC7
:10306000009402460B463E48FDF724FB3D493C4890
:10307000FDF716FBA8680BF07DFF009402460B4697
:103080003748FDF717FB33493548FDF709FB3A4947
:103090003548FDF705FB28680BF06CFF00940246ED
:1030A0000B463148FDF706FB2E492F48FDF7F8FA8D
:1030B00068680BF05FFF009402460B462A48FDF754
:1030C000F9FA28492848FDF7EBFAA8680BF052FFF7
:1030D000009402460B462448FDF7ECFA22481D49AD
:1030E000FDF7DEFA359B012B70D1244D24491C4895
:1030F000FDF7D6FA28680BF03DFF062402460B4682
:1031000000941748FDF7D6FA16491548FDF7C8FA96
:1031100068680BF02FFF009402460B461048FDF73D
:10312000C9FA10490E48FDF7BBFAA8680BF022FF58
:10313000009402460B460A48FDF7BCFA05490848C8
:10314000FDF7AEFA0E490848FDF7AAFA28680BF019
:1031500011FF17E0DC460100D090FF1FFB3A010091
:1031600074A2FF1F2145010098A2FF1FDC90FF1FE2
:103170000D3B0100E890FF1F1F3B0100F490FF1F73
:10318000313B0100009402460B463F48FDF792FA9E
:103190003E493D48FDF784FA68680BF0EBFE009469
:1031A00002460B463848FDF785FA38493648FDF7A0
:1031B00077FAA8680BF0DEFE009402460B46324810
:1031C000FDF778FA30483249FDF76AFA369B012B51
:1031D00057D1304D30493148FDF762FA28680BF07D
:1031E000C9FE062402460B4600942C48FDF762FAFD
:1031F00026492A48FDF754FA68680BF0BBFE009494
:1032000002460B462548FDF755FA20492348FDF7AD
:1032100047FAA8680BF0AEFE009402460B461F4822
:10322000FDF748FA1A491D48FDF73AFA1A491648B7
:10323000FDF736FA28680BF09DFE009402460B4617
:103240001148FDF737FA11490F48FDF729FA686868
:103250000BF090FE009402460B460B48FDF72AFA4D
:103260000A490948FDF71CFAA8680BF083FE009490
:1032700002460B460448FDF71DFA03480449FDF7D2
:103280000FFABDE8FC8100BF98A2FF1F2145010095
:10329000DC4601000C98FF1F433B010074A2FF1F96
:1032A0007FB5244B1A680192019D1A6802920C4660
:1032B000029A1E461DE007211F480AF0BBFB322080
:1032C0000AF03EF833680393039B5B1BA34210DDB7
:1032D0001A491B48FDF7E4F918491A48FDF7E0F9C7
:1032E00019491748FDF7DCF917491648FDF7D8F9D1
:1032F00014E00AF0C7FB0028DDD00FE001340A2CEF
:1033000009DD01E00AF0CCFB0AF0BCFB0028F9D192
:1033100000240E4D07E032200AF012F80AF0B2FB4A
:103320000628EBDDF4E70AF0BBFB28550134072C37
:10333000F9D17FBDE0A1FF1FF489FF1F553B0100BC
:1033400074A2FF1F98A2FF1F214501007890FF1F64
:1033500008B5C278007900EB02200CF047FA034B65
:1033600019680CF09BFA0CF085FC08BDF089FF1F72
:1033700038B54FF4FA610C480C4DFFF791FF0C483B
:10338000FFF7E6FF0446642009F0DAFF094B1868EE
:10339000B4FBF0F00CF02AFA014628680CF076F93C
:1033A0002860204638BD00BFF489FF1F3099FF1FF9
:1033B0007890FF1FE089FF1F012801D8FFF7D8BFD1
:1033C0007047FFFFFFFFFFFF2DE9F74F7C4E3046B0
:1033D00006F048FE0BF0BCFD044630460D4606F0F4
:1033E0003BFE0BF0B5FD62A3D3E900230BF016FE04
:1033F0000022744B0BF03CFF0022724B0BF038FFA5
:10340000002206460F46204629466F4B0BF006FE6B
:1034100059A3D3E900230BF04FFC59A3D3E90023B0
:1034200082468B460BF046FC57A3D3E900230446A3
:103430000D460BF0F3FD0022644B0BF03DFC54A352
:10344000D3E9002380468946204629460BF0E6FD55
:1034500022462B460BF0E2FD02460B46404649460B
:103460000BF02AFC5A4B8046186889460BF082FD07
:1034700002460B46404649460BF0D0FD46A3D3E931
:1034800000230BF0F5FE0022CDE900014D4B304644
:1034900039460BF0EDFE42A3D3E90023804689466E
:1034A000204629460BF0BAFD3FA3D3E900230BF0D9
:1034B00001FC3FA3D3E9002306460F4620462946D8
:1034C0000BF0ACFD22462B460BF0A8FD02460B4646
:1034D000304639460BF0F0FB02460B464046494663
:1034E0000BF0E8FB524604460D465B4650465946F3
:1034F0000BF094FD52465B460BF090FD52465B4646
:103500000BF08CFD2CA3D3E9002306460F46204682
:1035100029460BF083FD22462B460BF07FFD024629
:103520000B46204629460BF0C7FB1BA3D3E900231B
:1035300004460D46DDE900010BF09AFE02460B46FB
:10354000204629460BF094FE02460B46304639468B
:103550000BF0B2FB0BF064FA0BF062FA06A3D3E9AE
:1035600000230BF0A7FB03B0BDE8F08FAFF30080A2
:10357000000000000088634066666666661271405F
:103580006666666666A2724079E9263108AC5C3FE1
:10359000E446D3D15898F1BE00000000D012634138
:1035A000E43C73414320A3BE4DB1B49D00D4FE3E24
:1035B00075466524BDE2333ECDCCCCCCCCCC2A4084
:1035C000F897FF1F00408F400000A03F0000F03F31
:1035D000EC89FF1FAFF3008070B5FFF7F5FE0BF02D
:1035E000FFFF04461E4806F045FD4FF47A6009F0DF
:1035F000A7FE20461B4901260CF00CFB00B9002653
:10360000F6B24EB92046184901250CF0E5FA00B98A
:10361000354615F0FF0F13D0144B154C15491648BD
:103620001C60FDF73DF813491448FDF739F81449BB
:103630001148FDF735F812491048FDF731F80DE053
:10364000104B0A4D18680CF0D5F8014620460CF0D6
:10365000D9F9014628680CF019F82860204670BD99
:10366000F897FF1F00007A44000070C23899FF1FCE
:103670000000C6C2733B010074A2FF1F98A2FF1F87
:1036800021450100E089FF1F012801D8FFF7A4BFF1
:10369000704708B501E009F011FA09F055FA002861
:1036A000F9DC01E009F0ECF809F0DCF80028F9DCBD
:1036B00008BDFFFFF7B54EF66020FDF795FC044608
:1036C0000D46B648B649FCF7EBFFB549B548FCF7DF
:1036D000E7FF20462946002200230BF007FF0028C1
:1036E00040F03D820226009622462B46AB48FCF76E
:1036F000E1FF22462B460096AA48FCF7DBFFAA49C9
:10370000A648FCF7CDFFA849A648FCF7C9FF09F079
:10371000D5F909F0D3F9A54BA04820221A608022E0
:103720001A600AF049FBA2499C48FCF7B9FF002146
:103730009A48FCF7D8FF99489E49FCF7CAFF002633
:1037400040F6FE77B2B200219B4807F085F831467B
:103750009248FCF7A9FF94499048FCF7A1FF32205A
:1037600009F0EEFD30460BF0F3FB22462B460BF042
:10377000A3FA0BF0EDFEB8420646E3DD8F4B874817
:1037800080221A600AF018FB89498448FCF788FFF8
:1037900001218248FCF7A7FF80488949FCF799FF7F
:1037A000002640F6FE77B2B20121834807F054F8B4
:1037B00031467A48FCF778FF7B497848FCF770FF80
:1037C000322009F0BDFD30460BF0C2FB22462B46ED
:1037D0000BF072FA0BF0BCFEB8420646E3DD774B05
:1037E0006E4820221A60012243F8042C802243F8FC
:1037F000042C0AF0E1FA6E496848FCF751FF0021F9
:103800006648FCF770FF65486E49FCF762FF0026CA
:1038100040F6FE77B2B20021674807F01DF8314646
:103820005E48FCF741FF60495C48FCF739FF3220F5
:1038300009F086FD30460BF08BFB22462B460BF041
:103840003BFA0BF085FEB8420646E3DD5B4B53487E
:1038500080221A600AF0B0FA55495048FCF720FF60
:1038600001214E48FCF73FFF4C485749FCF731FF18
:10387000002640F6FE77B2B201214F4806F0ECFF79
:1038800031464648FCF710FF47494448FCF708FF1B
:10389000322009F055FD30460BF05AFB22462B46EC
:1038A0000BF00AFA0BF054FEB8420646E3DD434B38
:1038B0003A48012202261A6043F8046C0AF07CFAA6
:1038C0003B493648FCF7ECFE31463448FCF70BFF29
:1038D00032483E49FCF7FDFE002640F6FE77B2B2C4
:1038E0000221354806F0B8FF31462C48FCF7DCFED3
:1038F0002D492A48FCF7D4FE322009F021FD30463C
:103900000BF026FB22462B460BF0D6F90BF020FEDF
:10391000B8420646E3DD294B2048102202261E60ED
:1039200043F8442C0AF048FA21491C48FCF7B8FE39
:1039300031461A48FCF7D7FE18482549FCF7C9FE5E
:10394000002640F6FE77B2B202211B4806F084FF43
:1039500031461248FCF7A8FE13491048FCF7A0FEB8
:10396000322009F0EDFC30460BF0F2FA22462B46ED
:103970000BF0A2F90BF0ECFDB8420646E3DD154B67
:103980000648102201261A6043F8046C0AF014FA63
:1039900007490248FCF784FE31461DE074A2FF1F70
:1039A0009E3B010098A2FF1F21450100C4F00F407B
:1039B000AC3B0100BB3B0100F89AFF1FC8F00F4071
:1039C000DC3B0100FE3B01001F3C0100413C0100CB
:1039D000553C010088F00F406A48FCF784FE6948B6
:1039E0006949FCF776FE002640F6FE77B2B2032165
:1039F000664806F031FF31466248FCF755FE6449DF
:103A00006048FCF74DFE322009F09AFC30460BF07E
:103A10009FFA22462B460BF04FF90BF099FDB84266
:103A20000646E3DD5B4B574801261E6043F8446CB5
:103A30000AF0C2F958495348FCF732FE3146514862
:103A4000FCF751FE4F485549FCF743FE002640F66F
:103A5000FE77B2B203214D4806F0FEFE31464948DA
:103A6000FCF722FE4A494748FCF71AFE322009F0CB
:103A700067FC30460BF06CFA22462B460BF01CF923
:103A80000BF066FDB8420646E3DD454B3D4840225B
:103A900001261E60DA630AF08FF93F493948FCF7C6
:103AA000FFFD31463748FCF71EFE36483D49FCF71E
:103AB00010FE002640F6FE77B2B20321334806F02E
:103AC000CBFE31462F48FCF7EFFD31492D48FCF77E
:103AD000E7FD322009F034FC30460BF039FA22467B
:103AE0002B460BF0E9F80BF033FDB8420646E3DD58
:103AF000284B244840221A60802243F8042C0AF004
:103B00005BF925491F48FCF7CBFD01211D48FCF757
:103B1000EAFD1C482449FCF7DCFD002640F6FE7750
:103B2000B2B20321194806F097FE31461548FCF75A
:103B3000BBFD17491348FCF7B3FD322009F000FC28
:103B400030460BF005FA22462B460BF0B5F80BF089
:103B5000FFFCB8420646E3DD0E4B80221A60FFF7F9
:103B600098FD12490748FCF7B4FD11490548FCF7D8
:103B7000B0FD0E490F48FCF7ACFD0D490D48FCF7B0
:103B8000A8FDFEBD74A2FF1F693C0100F89AFF1F4B
:103B90002145010088F00F40AC3B01007B3C010057
:103BA00048F00F408D3C01009F3C0100843601002D
:103BB000BA3B010098A2FF1F70B58EB008F060FEFE
:103BC000061E24DD642009F0BBFB002401AD665510
:103BD00008F056FE0134262C0646F7D1124E00247A
:103BE000284631688DF82A4025220DF0A1F8C0B191
:103BF0000E490F48FCF754FD31680D48FCF769FD8C
:103C00000C490B48FCF74CFD0948294605E00A49D8
:103C10000748FCF75EFD06480849FCF75AFD0020FE
:103C200000E001200EB070BDE889FF1FB13C01002B
:103C300074A2FF1FD43C0100F73C01002D3D0100A0
:103C400030B54949494885B0FCF72AFD46494848FE
:103C5000FCF726FD002268464EF66021FDF710F9BC
:103C60004EF66020FDF7C0F904460D460D200121F7
:103C700009F052FA294620460BF06AFC430803F18A
:103C8000376303F5D833B3FBF0F008F073FC012180
:103C90000D2009F015FA4FF47A7009F051FB3549FF
:103CA0003348FCF7FDFC4FF47A7009F049FB3249C8
:103CB0002F48FCF7F5FC4FF47A7009F041FB2F49CF
:103CC0002A48FCF7EDFC40F2D2412848FCF70BFDF6
:103CD0002B492748FCF7E4FC40F2D2412448FCF78A
:103CE000E3FC4FF47A7009F02BFB26491F48FCF7E0
:103CF000D7FC69461D48FCF7E2FC23491C48FCF749
:103D0000CFFC69461A480AF036F84FF47A7009F089
:103D100017FB1E491548FCF7DCFC1D491448FCF74D
:103D2000BFFC4FF47A7009F00BFBFFF745FF18B1A9
:103D30000E481849FCF7CDFC0D20002109F0C0F910
:103D400015490A48FCF7C5FC13490948FCF7C1FCB2
:103D500006480AF031F806480AF02EF868460AF0DC
:103D600061FA05B030BD00BF553D010074A2FF1FD0
:103D700098A2FF1F643D0100673D0100723D0100F4
:103D8000813D0100883D0100973D01009F3D0100FC
:103D9000B43D0100BD3D01008436010014282DE929
:103DA000F04105460E4614461F4601D002281BD19D
:103DB0002146404806F0C6FA002821463D4803DD6A
:103DC00006F0C0FA3C4B46E006F0BCFA002802DBE5
:103DD0000020BDE8F081002EFADD384600210BF00E
:103DE00019FF002845D1F3E7A0F10B03012B0BD9F4
:103DF000A0F10F08B8F1010F8CBF4FF000084FF091
:103E00000108B8F1000F17D021462C4806F09AFAA5
:103E100000282146294803DD06F094FA284B1AE0D1
:103E200006F090FA0028D3DA002ED1DD38460021C2
:103E30000BF0F0FE50BBCBE720F004050A2DC7D1F4
:103E40001146204806F07EFA002821461D4804DD70
:103E500006F078FA1C4B186029E006F073FA002887
:103E6000B6DA002EB4DD384600210BF0D3FED8B907
:103E7000AEE738460BF0D8FE01462846FDF716F9A6
:103E80006423704390FBF3F60B4B0BE038460BF0CA
:103E9000CBFE01462846FDF709F96423704390FBE9
:103EA000F3F6074B1E6002E0074BC3F800800120C9
:103EB000BDE8F0819890FF1FA497FF1F0091FF1F9E
:103EC0008890FF1FD09AFF1F1091FF1F2DE9D84146
:103ED000142804460E461F46069A01D0022818D11F
:103EE000002A00DD12E0002E54DD384600210BF0E0
:103EF00091FE00284ED038460BF096FE0146204633
:103F0000FDF7D4F86423704390FBF3F224480021BA
:103F10002FE0A0F10B03012B0BD9A0F10F08B8F192
:103F2000010F8CBF4FF000084FF00108B8F1000FEF
:103F300017D0002A00DD11E0002E2BDD38460021CD
:103F40000BF068FE30B338460BF06EFE014620469B
:103F5000FDF7ACF86423704390FBF3F210480321A3
:103F600007E020F004040A2C14D1002A03DD0C48D9
:103F7000022192B209E000290FDD384600210BF042
:103F800049FE58B106480221424606F065FC012070
:103F9000BDE8D8810020BDE8D8814046BDE8D88181
:103FA000F89AFF1F10B5084C0520214609F030F89B
:103FB0000320214609F02CF819204FF4F471BDE8D4
:103FC000104009F025B800BF6CDC02002DE9F84371
:103FD000274C8146884620461D21174606F036FFAD
:103FE00000212046FCF796FB204600214FF47A7210
:103FF00007F029F84023013BFDD11D21072220466F
:1040000007F010F8204606F075FC204606F072FC1A
:104010000546204606F06EFC4FF47A7640EA05200D
:1040200010FB06F34FF4804593FBF5F3C9F800301D
:10403000204606F05FFC8146204606F05BFC40EA25
:10404000092010FB06F393FBF5F3C8F80030204677
:1040500006F050FC8046204606F04CFC40EA082062
:1040600010FB06F696FBF5F53D60BDE8F88300BF52
:10407000849DFF1F10B50D4C1D21204606F0E6FE65
:104080000D212046FCF746FB2046002106F0E9FF03
:104090004023013BFDD11D210122204606F0C2FF35
:1040A000204606F027FCC0B210BD00BF849DFF1F54
:1040B00008B52A200021FCF733FA0E200021FCF776
:1040C0002FFA2A200121FCF72BFAFFF7D3FF5A28F9
:1040D00014BF4FF0FF30002008BDFFFF10B50F4C9C
:1040E0000E21204606F0B2FE07212046FCF712FB07
:1040F000204601214FF47A7206F0A5FF4023013BD0
:10410000FDD10E210122204606F08CFF022009F08D
:1041100017F9204606F0EEFBC0B210BD849DFF1FCC
:1041200008B5012009F00CF90E21104806F08EFEAA
:1041300010210E48FCF7EEFA29210C48FCF7EAFAA8
:10414000A0210A48FCF7E6FA01214FF47A720748E9
:1041500006F079FF012009F0F3F8FFF7BFFFC4284C
:1041600014BF4FF0FF30002008BD00BF849DFF1F2B
:104170002DE9F04180460F462F480E21164606F0E5
:1041800065FE01212C48FCF7C5FA01214FF47A7233
:10419000294806F058FF4023013BFDD126480E2157
:1041A000062206F03FFF0023336023483B60C8F837
:1041B000003006F095FB20B11F4806F09BFBC5B20E
:1041C00000E005461C4806F08BFB20B11A4806F0BB
:1041D00091FBC4B200E0044644EA05231BB2C8F8D0
:1041E0000030154806F07CFB18B1134806F082FB3E
:1041F000C5B2114806F074FB18B10F4806F07AFBFF
:10420000C4B244EA05231BB23B600B4806F068FBCE
:1042100018B1094806F06EFBC5B2074806F060FB0E
:1042200018B1054806F066FBC4B244EA052424B27E
:104230003460BDE8F08100BF849DFF1F38B5144C89
:1042400005465A21204606F001FE236820461B68D9
:104250000DB1062100E00721984700210C4806F027
:1042600000FF5A2102220A4806F0E5FE084806F03F
:1042700041FB0446064806F03DFB0546044806F0AF
:10428000F4FEE4B205F07F0004EB002038BD00BF6F
:10429000849DFF1FFFFFFFFF70B5194E852333700C
:1042A0000446052009F04CF82046FFF7C7FF0AF046
:1042B0004FFE0DA3D3E900230AF0B0FE0CA3D3E90F
:1042C00000230AF0F7FC0B2304460D46337005204B
:1042D00009F036F808A3D3E90023204629460AF05E
:1042E000E9FC0BF07DF970BD7B14AE47E17A943F99
:1042F0007B14AE47E17A843F66666666661271405B
:1043000001600640AFF300802DE9F74F07460E46E7
:10431000924601934C014FF480750820002108F06B
:10432000CFFE14B12346013BFDD10820012108F046
:10433000C7FE14B12346013BFDD1013DEDD108205C
:10434000294608F0BDFE14B12346013BFDD10820EB
:10435000012108F0B5FE0720002108F0B1FE14B1DC
:104360002346013BFDD10820002108F0A9FE14B12D
:104370002346013BFDD10820012108F0A1FE0720C2
:10438000012108F09DFE14B12346013BFDD14FF4FD
:104390007A735F43F30097FBF3F700253EE008F0E4
:1043A0008FFE14B12346013BFDD10820012108F006
:1043B00087FE14B12346013BFDD10820002108F0FF
:1043C0007FFE14B12346013BFDD10820012108F0F6
:1043D00077FE14B12346013BFDD10820002108F0EF
:1043E0006FFE14B12346013BFDD10820012108F0E6
:1043F00067FE14B12346013BFDD10820002108F0DF
:104400005FFE14B12346013BFDD10820012108F0D5
:1044100057FE14B12346013BFDD101350820002190
:10442000BD42BCDB08F04CFE14B12346013BFDD17C
:104430000820012108F044FE0720002108F040FE7A
:1044400014B12346013BFDD10820002108F038FEBD
:1044500014B12346013BFDD10820012108F030FEB4
:104460000720012108F02CFE14B12346013BFDD1A9
:10447000434D444FDFF810B10023CAEB06092B600F
:104480004FEA49194FF480780820002108F018FEFF
:1044900014B12346013BFDD10820012108F010FE94
:1044A00014B12346013BFDD10820002108F008FE8D
:1044B000019B83B92B682220009309F0B5F8009B7B
:1044C00027F813002B685BF8232037F813108A189D
:1044D0004BF8232008E0222009F0A6F82B6837F8D3
:1044E0001320101827F813002B68013356452B6052
:1044F00005DDB9F1000F02D04B46013BFDD108208C
:10450000012108F0DDFD14B12346013BFDD1082057
:10451000002108F0D5FD14B12346013BFDD1082050
:10452000012108F0CDFD14B12346013BFDD1082047
:10453000002108F0C5FD14B12346013BFDD1082040
:10454000012108F0BDFD14B12346013BFDD1B8F1B6
:10455000010899D14FF480750820002108F0B0FDC2
:1045600014B12346013BFDD10820012108F0A8FD2C
:1045700014B12346013BFDD1013DEDD1BDE8FE8FD5
:104580000C91FF1F689BFF1F8891FF1F38B51549CD
:104590001548164DFCF784F815481249FCF780F8C9
:1045A000002469881048FCF77FF8114835F8021F8D
:1045B000FCF77AF8FF2C07D02C210B48FCF76BF89E
:1045C0000B482C21FCF767F80134B4F5807FE8D163
:1045D00008490548FCF77DF806490548FCF779F8D5
:1045E00038BD00BFD43D010074A2FF1F669BFF1FB2
:1045F00098A2FF1FBD46010070B506460D46002477
:10460000A119044805F0ECFC28550134042CF7D11D
:10461000204670BD789DFF1F70B506460D460024EC
:10462000A1192A5D0348013405F0DDFC042CF7D103
:10463000204670BD789DFF1F2DE9F34102ADDFF8E4
:10464000308045F8041D06461746002430460BF01E
:10465000D1F8014654F808000BF0B4FA18B1E0198B
:104660002946FFF7D9FF0434682CEFD1BDE8FC815F
:104670007489FF1F2DE9F34102ADDFF8308045F862
:10468000041D06461746002430460BF0B3F80146D9
:1046900054F808000BF096FA18B1E0192946FFF714
:1046A000BBFF0434682CEFD1BDE8FC817489FF1F87
:1046B0007FB540F2836007F05DFF42F21070002486
:1046C00009F0BCF803254FF4FA7008F039FE2246D1
:1046D000234621468DE830005448554E06F00EFA28
:1046E000544841F2883106F099F85348534905F08F
:1046F000D3FF5148524905F09FFF21464E4805F02F
:1047000094FF4D4806F02CF81D20012108F004FD0F
:104710002146284608F000FD0F20012108F0FCFC8E
:104720001020012108F0F8FC0B20012108F0F4FC16
:104730000C20012108F0F0FC1420012108F0ECFC11
:104740000121022008F0E8FC0E20012108F0E4FC21
:104750000A20012108F0E0FC0520012108F0DCFC22
:10476000384B80221A600620012108F0D5FC152064
:10477000012108F0D1FC1620012108F0CDFC112008
:10478000214608F0C9FC304B40221A6002233360F6
:104790000D20012108F0C0FC2220214608F0BCFCBD
:1047A0002320214608F0B8FC2846284908F030FCB0
:1047B0000520264908F02CFC1720012108F0ACFC4C
:1047C000042333601C20012108F0A6FC07200121EE
:1047D00008F0A2FC0820012108F09EFC21461C20C4
:1047E00008F06EFC0720012108F06AFC0820012176
:1047F00008F066FC1C20012108F062FC04A90023DB
:10480000134C41F8083D1020FFF7F6FE02982146B0
:104810000BF0D8F928B904A9102041F8044DFFF78E
:10482000FBFEFFF77DFCFFF743FC7FBD849DFF1F70
:1048300084F00F40F89AFF1FFC97FF1F00004843C9
:1048400000002F44C4F00F40C8F00F406CDC0200A1
:104850008B6CE73E70B506460D460024A11904484E
:1048600005F0BEFB28550134082CF7D1204670BD59
:10487000789DFF1FFFFFFFFF2DE9F041664E67495E
:10488000674D86B007466748FBF70AFF30680AF0B5
:1048900071FB022402460B4600946248FBF70AFFB4
:1048A00061496048FBF715FF4FF003085F495D4819
:1048B000FBF7F6FE56A3D3E90023CDF80080594854
:1048C000FBF7F8FE58495748FBF703FF584955488E
:1048D000FBF7E6FE28680AF04DFB009402460B4603
:1048E0005048FBF7E7FE50494E48FBF7F2FE4B49B4
:1048F0005048FBF7D5FE30680AF03CFB00940246B6
:104900000B464C48FBF7D6FE47494A48FBF7E1FE09
:1049100046494848FBF7C4FE3DA3D3E90023CDF840
:1049200000804448FBF7C6FE3F494248FBF7D1FEF2
:104930003F494048FBF7B4FE28680AF01BFB00948F
:1049400002460B463B48FBF7B5FE37493948FBF7B3
:10495000C0FE39494FF4B460FFF77CFF374902A825
:1049600009F0A1FC012202A833492346FCF712FCFE
:1049700002A809F057FC012F44D14EF66020FCF745
:1049800033FB0AF02DFE30600AF0F4FA0094024680
:104990000B462448FBF7B1FE30680AF0EBFA0094AE
:1049A00002460B462348FBF7A8FE306824490BF06B
:1049B00009F938BB31460C20FFF72EFE4EF6602079
:1049C000FCF712FB0AF00CFE28600AF0D3FA009400
:1049D00002460B461348FBF790FE28680AF0CAFA15
:1049E000009402460B461348FBF787FE28681449DB
:1049F0000BF0E8F830B914202946FFF70DFE00202F
:104A0000FFF73AFF012008F09BFC06B0BDE8F081FB
:104A100021B0726891EDDC3F5C9BFF1FE13D01001E
:104A2000009AFF1F74A2FF1F21450100EF3D010006
:104A3000033E010098A2FF1F6C89FF1F173E010073
:104A4000000080BFAFF30080F8B507460E46002493
:104A500041F21055E119325D0348013405F0C3FA03
:104A6000AC42F7D12046F8BD789DFF1F00B5ADF5EB
:104A7000A85D85B010B9FBF7E5FD09E000216846A7
:104A800041F210520BF09AFD3C206946FFF7DCFF23
:104A900045B00DF5A05D00BD70B506460D4600247D
:104AA000A119044805F09CFA28550134682CF7D167
:104AB000204670BD789DFF1F70B506460D46002448
:104AC000A119044805F08CFA285501340C2CF7D1B3
:104AD000204670BD789DFF1F1FB50446CD490020BC
:104AE000FFF78AFD0420CC49FFF786FD0820CB495B
:104AF000FFF782FD0C20CA49FFF77EFD1420C9494B
:104B0000FFF77AFD1820C849FFF776FD1C20C7493A
:104B1000FFF772FD2020C649FFF76EFD2420C5492E
:104B2000FFF76AFD2820C449FFF794FE3C20C349E3
:104B3000FFF7B2FFB420C249FFF7AEFFC1494FF4FF
:104B40009670FFF7A9FFC0494FF4D270FFF7A4FF9A
:104B5000BE494FF40770FFF79FFFBD494FF4257022
:104B6000FFF79AFFBB494FF45C70FFF795FFBA4916
:104B70004FF47A70FFF790FFB8494FF48C60FFF75D
:104B80008BFFB7494FF49B60FFF786FFB5494FF4A1
:104B9000AA60FFF75FFEB4494FF4AB60FFF75AFE1F
:104BA000B2494FF4AC60FFF755FEB1494FF4AD6028
:104BB000FFF750FEAF494FF4AE60FFF74BFEAE4932
:104BC0004FF4AF60FFF746FEAC494FF4B060FFF71B
:104BD00041FEAB494FF4B160FFF73CFEA9494FF4E9
:104BE000B260FFF737FEA8494FF4B360FFF732FE1B
:104BF000A6494FF4B460FFF72DFEA5494FF4B56008
:104C0000FFF728FEA3494FF4B660FFF723FEA24941
:104C10004FF4B760FFF71EFEA0494FF4DC60FFF7CA
:104C200019FE9F494FF4B860FFF714FE9D494FF4F9
:104C3000B960FFF70FFE9C494FF4BA60FFF70AFE18
:104C40009A494FF4BB60FFF705FE99494FF4BC60E9
:104C5000FFF700FE97494FF4BD60FFF7FBFD964953
:104C60004FF4BE60FFF7F6FD94494FF4BF60FFF7C5
:104C7000F1FD93494FF4C060FFF7ECFD91494FF40B
:104C8000C160FFF7E7FD90494FF4C260FFF7E2FD16
:104C90008E494FF4C360FFF7DDFD8D494FF4C460CA
:104CA000FFF7D8FD8B494FF4C560FFF7D3FD8A4964
:104CB0004FF4C660FFF7CEFD88494FF4C760FFF799
:104CC000C9FD87494FF4C860FFF7C4FD85494FF41B
:104CD000C960FFF7BFFD84494FF4CA60FFF7BAFD12
:104CE00082494FF4CB60FFF7B5FD81494FF4CC60AA
:104CF000FFF7B0FD7F494FF4CD60FFF7ABFD7E4974
:104D00004FF4CE60FFF7A6FD7C494FF4CF60FFF76C
:104D1000A1FD7B494FF4D060FFF79CFD79494FF42A
:104D2000D160FFF797FD78494FF4D260FFF792FD0D
:104D300076494FF4D360FFF78DFD75494FF4D46089
:104D4000FFF788FD73494FF4D560FFF783FD724983
:104D50004FF4D660FFF77EFD70494FF4D760FFF740
:104D6000ABFE6F4940F2C460FFF7A6FE6D494FF4F9
:104D7000DA60FFF7A1FE6C4940F2DC60FFF79CFEB1
:104D80004FF4DD606949FFF797FE012C40F0C484C1
:104D900067496848FBF784FC65496748FBF780FC76
:104DA0002046FCF703FB634809F006F8624809F067
:104DB00003F82046FBF7FEFF6049684609F073FAE6
:104DC00000225F496846FCF75BFA684609F02AFA58
:104DD0005C49684609F067FA002218496846FCF702
:104DE0004FFA684609F01EFA5749684609F05BFA1F
:104DF000002213496846FCF743FA684609F012FAA4
:104E00005249684609F04FFA00220E496846FCF7FD
:104E100037FA9DE0EC89FF1F6889FF1FA097FF1FED
:104E20005C9BFF1F009AFF1F1491FF1FF499FF1F47
:104E30001891FF1FF899FF1FA09AFF1F6098FF1F8E
:104E40008C99FF1FC898FF1F1C9AFF1F2091FF1FFE
:104E50008895FF1FF895FF1F6896FF1FD096FF1FCC
:104E60003897FF1FA89AFF1FB49AFF1F6499FF1F6E
:104E7000BC9AFF1FC49AFF1F8090FF1FD89AFF1F84
:104E80008C90FF1F8499FF1FA897FF1F6C89FF1F3D
:104E9000B097FF1FB897FF1FC097FF1FC897FF1F4E
:104EA000D097FF1FD897FF1FE097FF1FE897FF1FBE
:104EB000F097FF1F4499FF1F4C99FF1F5499FF1F44
:104EC0005C99FF1F109AFF1F6C99FF1F7499FF1FB9
:104ED000849AFF1F909AFF1F7C99FF1FE09AFF1F83
:104EE000E89AFF1FF09AFF1F6096FF1F2C9BFF1F81
:104EF000349BFF1F3C9BFF1F449BFF1F4C9BFF1FCE
:104F0000549BFF1F989AFF1FA890FF1FB090FF1F90
:104F1000B890FF1FC090FF1FC890FF1FD090FF1FC9
:104F2000DC90FF1FE890FF1FF490FF1F0C98FF1FFD
:104F30008D37010074A2FF1F98A2FF1F223E0100BF
:104F40007489FF1F2B3E01003D3E01004E3E0100D3
:104F5000684609F067F9B749684609F0A4F90022E4
:104F6000B5496846FCF78CF9684609F05BF9B34926
:104F7000684609F098F90022B1496846FCF780F9C3
:104F8000684609F04FF9AF49684609F08CF90022EC
:104F9000AD496846FCF774F9684609F043F9AB4936
:104FA000684609F080F90022A9496846FCF768F9CB
:104FB000684609F037F9A749684609F074F90022F4
:104FC000A5496846FCF75CF9684609F02BF9A34946
:104FD000684609F068F90022A1496846FCF750F9D3
:104FE000684609F01FF99F49684609F05CF90022FC
:104FF0009D496846FCF744F9684609F013F99B4956
:10500000684609F050F90022022399496846FCF7E6
:10501000C1F8684609F006F99649684609F043F96F
:105020000022022394496846FCF7B4F8684609F068
:10503000F9F89249684609F036F9022300229049AE
:105040006846FCF7A7F8684609F0ECF88D49684611
:1050500009F029F900228C4902236846FCF79AF8E6
:10506000684609F0DFF88949684609F01CF9002212
:10507000022387496846FCF78DF8684609F0D2F8A4
:105080008449684609F00FF90022022382496846E4
:10509000FCF780F8684609F0C5F88049684609F0D1
:1050A00002F9002202237E496846FCF773F868463D
:1050B00009F0B8F87B49684609F0F5F800220223A8
:1050C00079496846FCF766F8684609F0ABF8774915
:1050D000684609F0E8F80022022375496846FCF7A3
:1050E00059F8684609F09EF87249684609F0DBF8FD
:1050F0000022022370496846FCF74CF8684609F024
:1051000091F86E49684609F0CEF8002202236C49F6
:105110006846FCF73FF8684609F084F86949684634
:1051200009F0C1F80022022367496846FCF732F80B
:10513000684609F077F86549684609F0B4F8002236
:10514000022363496846FCF725F8684609F06AF8C7
:105150006049684609F0A7F8002202235E496846C4
:10516000FCF718F8684609F05DF85C49684609F0F4
:105170009AF8002202235A496846FCF70BF8684661
:1051800009F050F85749684609F08DF800220223CB
:1051900055496846FBF7FEFF684609F043F8534956
:1051A000684609F080F80022514902236846FBF75F
:1051B000F1FF684609F036F84E49684609F073F881
:1051C000002202234C496846FBF7E4FF684609F0D9
:1051D00029F84A49684609F066F80022022348493E
:1051E0006846FBF7D7FF684609F01CF84549684652
:1051F00009F059F80022022343496846FBF7CAFF29
:10520000684609F00FF84149684609F04CF8002259
:1052100002233F496846FBF7BDFF684609F002F8E4
:105220003C49684609F03FF8002202233A496846A3
:1052300074E000BF683E01001C9AFF1F813E010020
:105240002091FF1F9C3E01008895FF1FB63E010084
:10525000F895FF1FC93E01006896FF1FDC3E010064
:10526000D096FF1FEF3E01003897FF1F8F410100CE
:10527000A09AFF1F9C410100A89AFF1FA9410100AD
:10528000B49AFF1FB64101006499FF1FC34101009A
:10529000BC9AFF1FD0410100C49AFF1FDD410100ED
:1052A0008090FF1FEA410100D89AFF1FF7410100DB
:1052B0008C90FF1F044201008499FF1F11420100DE
:1052C000A897FF1F1F420100B097FF1F2D4201004A
:1052D000B897FF1F3B420100C097FF1F49420100E2
:1052E000C897FF1F57420100D097FF1F654201007A
:1052F000D897FF1F73420100E097FF1F8142010012
:10530000E897FF1F8F420100F097FF1F9D420100A9
:105310004499FF1FAB4201004C99FF1FFBF73AFF76
:10532000684608F07FFFB749684608F0BCFF0022D6
:105330000223B5496846FBF72DFF684608F072FF67
:10534000B249684608F0AFFF00220223B049684620
:10535000FBF720FF684608F065FFAE49684608F095
:10536000A2FF00220223AC496846FBF713FF684600
:1053700008F058FFA949684608F095FF002202236B
:10538000A7496846FBF706FF684608F04BFFA549AA
:10539000684608F088FF00220223A3496846FBF70D
:1053A000F9FE684608F03EFFA049684608F07BFF1A
:1053B000002202239E496846FBF7ECFE684608F08F
:1053C00031FF9C49684608F06EFF002202239A498B
:1053D0006846FBF7DFFE684608F024FF97496846F9
:1053E00008F061FF0022022395496846FBF7D2FED0
:1053F000684608F017FF9349684608F054FF0022FA
:10540000022391496846FBF7C5FE684608F00AFF8B
:105410008E49684608F047FF002202238C496846FF
:10542000FBF7B8FE684608F0FDFE8A49684608F0BA
:105430003AFF0022022388496846FBF7ABFE684624
:1054400008F0F0FE8549684608F02DFF002202238F
:1054500083496846FBF79EFE684608F0E3FE8149F3
:10546000684608F020FF002202237F496846FBF7C8
:1054700091FE684608F0D6FE7C49684608F013FFA6
:10548000022300227A496846FBF784FE684608F04A
:10549000C9FE7849684608F006FF002276490223D3
:1054A0006846FBF777FE684608F0BCFE734968461D
:1054B00008F0F9FE0022022371496846FBF76AFEF4
:1054C000684608F0AFFE6F49684608F0ECFE00221F
:1054D00002236D496846FBF75DFE684608F0A2FEB0
:1054E0006A49684608F0DFFE0022022368496846E0
:1054F000FBF750FE684608F095FE6649684608F0DE
:10550000D2FE0022022364496846FBF743FE684648
:1055100008F088FE6149684608F0C5FE00220223B3
:105520005F496846FBF736FE684608F07BFE5D493A
:10553000684608F0B8FE002202235B496846FBF784
:1055400029FE684608F06EFE5849684608F0ABFE32
:105550000022022356496846FBF71CFE684608F005
:1055600061FE5449684608F09EFE0022022352491B
:105570006846FBF70FFE684608F054FE4F49684640
:1055800008F091FE002202234D496846FBF702FE17
:10559000684608F047FE4B49684608F084FE002242
:1055A000032349496846FBF7F5FD684608F03AFED3
:1055B0004649684608F077FE0022032344496846BE
:1055C000FBF7E8FD684608F02DFE4249684608F002
:1055D0006AFE0022032340496846FBF7DBFD68466C
:1055E00008F020FE3D49684608F05DFE00223C4977
:1055F00003236846FBF7CEFD684608F013FE3949E1
:10560000684671E0B94201005499FF1FC74201008A
:105610005C99FF1FD5420100109AFF1FE342010071
:105620006C99FF1FF14201007499FF1FFF420100B6
:10563000849AFF1F0D430100909AFF1F1B43010036
:105640007C99FF1F29430100E09AFF1F37430100A7
:10565000E89AFF1F45430100F09AFF1F53430100E2
:105660006096FF1F614301002C9BFF1F6F430100E9
:10567000349BFF1F7D4301003C9BFF1F8B430100B8
:10568000449BFF1F994301004C9BFF1FA743010050
:10569000549BFF1FB5430100989AFF1FC3430100AD
:1056A000A890FF1FD1430100B090FF1FDF4301000E
:1056B000B890FF1FED430100C090FF1FFB430100A6
:1056C000C890FF1F09440100D090FF1F174401003C
:1056D000DC90FF1F25440100E890FF1F33440100C8
:1056E000F490FF1F4144010008F0DDFD0022032378
:1056F0000A496846FBF74EFD684608F093FD0849E5
:10570000684608F0D0FD6846064922460223FBF7AA
:1057100041FD684608F086FD1FBD00BF0C98FF1FC5
:10572000173E01006C89FF1F2DE9F34101204EF661
:105730006028FFF7D1F94046FBF756FC09F050FF0F
:10574000224F234E386009F015FC062402460B4612
:1057500000943046FAF7AEFF38681E4D09F00AFC97
:10576000009402460B462846FAF7A4FF3946042067
:10577000FEF752FF4046FBF737FC09F031FF164FAA
:10578000386009F0F7FB009402460B463046FAF702
:1057900091FF386809F0EEFB009402460B460F4C6F
:1057A0002846FAF787FF39460820FEF735FF2146DD
:1057B0003046FAF78EFF28462146FAF78AFF012085
:1057C00002B0BDE8F041FFF787B900BF6889FF1F4D
:1057D00074A2FF1F98A2FF1FA097FF1F023F0100A6
:1057E0002DE9F3414EF660270120FFF775F93846A1
:1057F000FBF7FAFB09F0F4FEDFF804813D4EC8F830
:10580000000009F0B7FB022402460B460094304624
:10581000FAF750FFD8F80000374D09F0ABFB0094C1
:1058200002460B462846FAF745FF41461820FEF788
:10583000F3FE3846FBF7D8FB09F0D2FEDFF8C48050
:10584000C8F8000009F096FB009402460B4630466B
:10585000FAF730FFD8F8000009F08CFB00940246FC
:105860000B462846FAF726FF41461C20FEF7D4FED9
:105870003846FBF7B9FB09F0B3FEDFF88C80C8F8B7
:10588000000009F077FB009402460B463046FAF719
:1058900011FFD8F8000009F06DFB009402460B469A
:1058A0002846FAF707FF41462020FEF7B5FE3846A6
:1058B000FBF79AFB09F094FE104F386009F05AFB91
:1058C000009402460B463046FAF7F4FE386809F0B9
:1058D00051FB009402460B462846FAF7EBFE2420C3
:1058E0003946FEF799FE012002B0BDE8F041FFF70E
:1058F000F3B800BF74A2FF1F98A2FF1FF899FF1F03
:105900001491FF1FF499FF1F1891FF1F2DE9F04F0D
:10591000012B85B005460F46904605D00024DFF8E0
:10592000E8A0DFF8E8B060E01846FFF7D5F80024FB
:1059300006261DE04EF66020FBF756FB09F050FEF0
:10594000039009F017FB009602460B462B48FAF726
:10595000B1FE039809F00EFB009602460B4628485C
:10596000FAF7A8FE284603A9FEF756FE013445447F
:10597000BC42DFDB3CE04EF66020FBF735FB09F074
:105980002FFE002106460AF045F938B130461D4980
:105990000AF022F910B1CDF80CB008E03046002131
:1059A0000AF01AF908B9039601E0CDF80CA00398A3
:1059B00009F0E0FA4FF0060904AE02460B46CDF8B6
:1059C00000900E48FAF776FE56F8040D09F0D2FA68
:1059D000CDF8009002460B460948FAF76BFE2846C0
:1059E0003146FEF719FE01344544BC42C3DB02E0F8
:1059F0000120FFF771F805B0BDE8F08F74A2FF1F1A
:105A000098A2FF1F00409C4520BCBE4C0060EA47A6
:105A10002DE9F34780460120FFF75EF84EF660203F
:105A2000FBF7E2FA09F094FD064631462B48FAF7F7
:105A30005AFE2B483146FAF756FE731C47D04EF6F5
:105A40006020FBF7D1FA09F0CBFD814609F092FA0C
:105A5000062704460D460B46224600971F48FAF7D4
:105A60004CFE00971E4822462B46FAF746FE484653
:105A70001C490AF0A7F850BB4EF66020FBF7B4FAB9
:105A800009F0AEFD824609F075FA04460D460B4654
:105A9000224600971148FAF730FE00971048224638
:105AA0002B46FAF72AFE50460E490AF08BF870B9D9
:105AB000304649464246FEF7DDFD3046514608F184
:105AC0007802FEF7B9FD012007F03AFCA6E70120B5
:105AD00002B0BDE8F047FEF7FFBF00BF74A2FF1F92
