:1000000000800020BD0100005DD4000029D4000064
:1000100029D4000029D4000029D4000029D40000EC
:1000200029D4000029D4000029D400005DD40000A8
:100030005DD4000029D400005DD4000019D4000074
:100040005DD400005DD400005DD400005DD40000EC
:100050005DD400005DD400005DD400005DD40000DC
:100060005DD400005DD400005DD400005DD40000CC
:100070005DD400005DD400005DD400005DD40000BC
:100080005DD400005DD400005DD400005DD40000AC
:100090005DD40000D1B900005DD400005DD4000043
:1000A00069AB00005DD400005DD400005DD40000A9
:1000B0005DD400005DD400005DD400005DD400007C
:1000C0005DD400005DD400005DD400005DD400006C
:1000D0005DD400005DD400005DD400005DD400005C
:1000E0005DD400005DD400005DD400005DD400004C
:1000F0005DD40000D9C800005DD40000A5EC00006C
:100100005DD40000DDDB00005DD400005DD40000A4
:100110005DD400005DD400005DD400005DD400001B
:100120005DD400005DD400005DD400005DD400000B
:100130005DD400005DD400005DD400005DD40000FB
:100140005DD400005DD400005DD400005DD40000EB
:10015000ADDC0000C5DC0000DDDC0000F5DC0000EB
:100160005DD40000D9BD00005DD400005DD4000066
:100170005DD400005DD400005DD400005DD40000BB
:100180005DD400005DD400005DD400005DD40000AB
:100190005DD400005DD400005DD400005DD400009B
:1001A0005DD400005DD400005DD400005DD400008B
:1001B0005DD400005DD400005DD40000564B4CF2CD
:1001C000205210B51A804DF628121A8000BF00BFC9
:1001D0000BF044FC514B4FF010621A60504A9A6089
:1001E000504ADA60A3F53043203B1A6812F480725B
:1001F00004D14D490A604FF4A8521A604B4B1A784B
:10020000110703D51A7842F008021A70484B2A22C7
:100210001A700023474A48499818884204D247492F
:10022000595899500433F5E7454A464B9A424FF0E6
:10023000000302D242F8043BF7E74349434A5958C6
:1002400099500433B3F5DE7FF7D1414B802103F899
:10025000011B40498B42F9D13F4B1A603F4B0A22A8
:100260001A70A3F5805324225A70A0221A709A792A
:100270009207FCD59A79D406FCD4394B9A7902F0CE
:100280000C02082AF9D103221A7140225A719A7974
:100290009006FCD5324B9A795106FBD5314A32494A
:1002A00011600221516020221A702D4B9B7903F0BE
:1002B0000C030C2BF9D12D4B2D4A1A602D4B2E4AD5
:1002C0001A6000225A60072243F8042C2B4AC3F814
:1002D0000C2D62B60DF052F8134B1B68DA0705D5EA
:1002E00027480CF055FE274B274A1A60274B1B78EE
:1002F0005B0609D5234C244A2368934204D1204845
:100300000CF046FE0023236010F0CCFE0DF0A9F89F
:100310000DF0F8FEFEE700BF0E20054030800440DF
:10032000823F04000100002B14D0034002D007409C
:1003300000E007406089FF1F4C8BFF1F6C470100E6
:100340004C8BFF1FD89FFF1F000000000084FF1F81
:1003500000E400E05FE400E008ED00E0005006404B
:100360000040064044800440000003010480044033
:10037000C010050014E000E0FF760100000020201E
:100380009A3FF9561CE00340A5C3945A00F0074079
:10039000FFFFFFFFFFFFFFFFFFFFFFFFFFFFFFFF6D
:1003A000FFFFFFFFFFFFFFFFFFFFFFFFFFFFFFFF5D
:1003B000FFFFFFFFFFFFFFFFFFFFFFFFFFFFFFFF4D
:1003C000FFFFFFFFFFFFFFFFFFFFFFFFFFFFFFFF3D
:1003D000FFFFFFFFFFFFFFFFFFFFFFFFFFFFFFFF2D
:1003E000FFFFFFFFFFFFFFFFFFFFFFFFFFFFFFFF1D
:1003F000FFFFFFFFFFFFFFFFFFFFFFFFFFFFFFFF0D
:10040000FFFFFFFFFFFFFFFFFFFFFFFFFEFFFFFFFD
:1004100010B5054C237833B9044B13B10448AFF33E
:1004200000800123237010BD4C8BFF1F00000000D3
:100430006C47010008B5064B1BB106480649AFF3EF
:1004400000800648036813B1054B03B1984708BD07
:10045000000000006C470100508BFF1F4C8BFF1FFA
:1004600000000000024B4FF400121A60704700BFFA
:1004700080E100E0064B10221A60064B1A78064B0A
:1004800053F83220012382F88030044A1360704709
:10049000C8F00F40EC99FF1F60410100708CFF1FF6
:1004A000054B1A78054B53F83220012382F80031AE
:1004B000034A1360704700BFEC99FF1F60410100C1
:1004C000E497FF1F10B504460DF0C8FC204610BD90
:1004D00038B50A480A4D09F02DFE0A4B0446186843
:1004E00010F054FB0146204610F058FC01462868E5
:1004F00010F098FA2860204638BD00BF2894FF1FEE
:10050000D08BFF1FE089FF1F38B50A480A4D09F05C
:1005100065FE0A4B0446186810F038FB0146204679
:1005200010F03CFC0146286810F07CFA2860204658
:1005300038BD00BF2894FF1F008CFF1FE089FF1FFC
:1005400010B5ADF5B05D684600214FF4B05210F023
:10055000DFFD002420461DF8041001340DF052F98F
:10056000B4F5B05FF6D10DF5B05D10BD38B50446F9
:1005700008460D4610F0A6FE236802465B6820463A
:100580002946984738BD08B503681B68984708BDD9
:1005900008B5FFF7EBFF08BD0DF0D2BC0A2200231F
:1005A0000DF096BC9DF8001000910DF0D1BC38B54F
:1005B00004460DF05CFC054620460DF079FC28440D
:1005C00038BD38B50446FFF7D1FF054620460DF08B
:1005D0006FFC284438BD38B504460DF0B1FC054623
:1005E00020460DF065FC284438BD37B59DF818103D
:1005F000009104460DF0ACFC054620460DF058FC79
:10060000284403B030BDFFFF002A10B50ADB064BBB
:10061000541E9C4206D830235A43013ABDE810408C
:100620000DF006BC002010BD5755550508B50368F0
:10063000C9B21B68984708BD0D4B70B540241C60BB
:1006400032200CF085FE0B4B0B4D0C4E1C600C4CFD
:1006500031462846FFF7B5FF31462046FFF7B1FF88
:1006600028460DF025FC2046BDE870400DF020BC6A
:10067000C4F00F40C8F00F40FC9EFF1F902F0100F8
:10068000209FFF1F10B517491748184CFFF780FF30
:1006900017481449FFF77CFF236863B915491248CE
:1006A000FFF78FFF12481349FFF78BFF124B02220F
:1006B0001A6001230DE0012B0CD110490A48FFF705
:1006C00080FF0B480D49FFF77CFF0D4B02221A609B
:1006D0000023236004480DF0EBFB0548BDE8104003
:1006E0000DF0E6BBA32F0100FC9EFF1FFC94FF1F33
:1006F000209FFF1F9C2F010084F00F40B82F0100A6
:1007000088F00F402DE9F74F002140F6FF724E4868
:100710000AF0CAF84D4A0423202413602246013A05
:100720007FF4FDAF4A4A4B4F136011200CF08EFF4F
:10073000494B4A4E1C6005460A200CF009FE112068
:100740000CF084FF83466E200CF002FE11200CF0AA
:100750007DFF434BDFF818911C60424C82462146D6
:100760003846FFF715FF21463046FFF711FF2846B0
:1007700010F00CFA3C4910F011FB0FF0C7FD4FF0E0
:10078000020804460D460B462246CDF80080384646
:10079000FFF708FF22462B46CDF800803046FFF7D2
:1007A00001FF49463846FFF7F3FE49463046FFF75A
:1007B000EFFE584610F0EAF92B4910F0EFFA0FF06F
:1007C000A5FD04460D460B462246CDF8008038466E
:1007D000FFF7E8FE22462B46CDF800803046FFF7B3
:1007E000E1FE49463846FFF7D3FE49463046FFF75B
:1007F000CFFE504610F0CAF91B4910F0CFFA0FF0A7
:1008000085FD04460B462246CDF8008038460D464D
:10081000FFF7C8FE2246154CCDF800802B46304627
:10082000FFF7C0FE21463846FFF7CBFE2146304693
:10083000FFF7C7FE38460DF03BFB304603B0BDE87E
:10084000F04F0DF035BB00BF7897FF1F88F00F40C9
:1008500084F00F40FC9EFF1FC4F00F40209FFF1F3D
:10086000C8F00F40BE2F010000601345CF2F0100DC
:100870003D3E01002DE9F74307460E460AA8002138
:10088000144698460C9D09F088FD002840F3E98045
:1008900075497648FFF77CFE294674480DF0E7FA63
:1008A00073497248FFF774FE6F497248FFF770FE94
:1008B000294670480DF0DBFA6D496E48FFF768FE77
:1008C0002046002110F04AFB08B10024B9E0204680
:1008D0000FF01CFD022704460D460B4622460097EA
:1008E0006248FFF75FFE0097624822462B46FFF7FB
:1008F00059FE3068002110F031FB002840F0A9803B
:100900005D495A48FFF744FE40460FF0FFFC04469D
:1009100022460B46009755480D46FFF743FE5649C1
:100920005448FFF735FE009722462B465148FFF703
:1009300039FE8EE09C4280F28C8050494B48FFF794
:1009400027FE21460AA809F028FD014647480DF078
:10095000F7FA49494548FFF71BFE48494548FFF764
:1009600017FE21460AA809F018FD014641480DF07E
:10097000E7FA40484049FFF70BFE00251A2D4ED0FC
:100980003F4B21460AA853F8259009F006FD10F0C8
:10099000FDF8014648464FEA850810F0DFFA0028C6
:1009A00055D057F808000FF0B1FC022502460B465F
:1009B00000952E48FFF7F6FD57F808000FF0A6FC4B
:1009C000009502460B462B48FFF7ECFD30680021EE
:1009D00010F0C4FAD8B928492448FFF7D9FD56F8D1
:1009E00008000FF093FC009502460B461F48FFF7E6
:1009F000D9FD21491F48FFF7CBFD56F808000FF03D
:100A000085FC009502460B461A48FFF7CBFD1D49B1
:100A10001648FFF7BDFD17481A49FFF7B9FD012039
:100A20000CF096FC0B9B03B1DB68013B9C4207D0AA
:100A300011490E48FFF7ACFD0E480F49FFF7A8FD1E
:100A400001340B9B002B3FF475AFDB6872E7013577
:100A500094E70D490548FFF79BFD06480A49FFF753
:100A600097FD03B0BDE8F0837E360100FC9EFF1FBA
:100A7000DF2F0100209FFF1F3D3E0100E22F0100FC
:100A80007489FF1FD93F0100F83F010010B52820ED
:100A900000210CF03FFB28210A2200230A480DF018
:100AA00017FA09480DF004FA642428200CF0CEFD52
:100AB00001460548FFF78FFD4FF4FA600CF048FC43
:100AC000013CF2D110BD00BFFC9EFF1F0C2038B5C9
:100AD0000CF06EFA282001210CF01CFB0CF002F83F
:100AE00000283ED10446214628200CF02FFB03208D
:100AF0000CF02EFC1A200CF0A9FD214605461C48DE
:100B0000FFF74AFD1B491A48FFF742FD29461848DE
:100B1000FFF742FD16481749FFF753FD013440F235
:100B2000DC539C42DFD1214628200CF00FFB032030
:100B30000CF00EFC1A200CF089FD214605460C48ED
:100B4000FFF72AFD0B490A48FFF722FD294608480E
:100B5000FFF722FD06480749FFF733FD013CE2D1CC
:100B6000BCE70BF07DFFBDE838400BF079BF00BF5C
:100B7000FC9EFF1F3D3E0100012801D8FFF7A8BCE5
:100B80007047012801D8FFF7BFBC70472DE9F84333
:100B900004464148414D424F424E09F03DFE0FF0A0
:100BA000F1FF28603C4809F03EFE0FF0EBFF386093
:100BB000394809F03FFE0FF0E5FF3060364809F094
:100BC00040FE0FF0DFFF384B8046186054BB374BB8
:100BD000DFF8EC9018680FF0D9FF0446214628682A
:100BE00010F0DCF80146D9F800000FF01BFF214699
:100BF000C9F800003868DFF8CC902D4F10F0CEF81F
:100C00000146D9F800000FF00DFF2146C9F8000099
:100C10003068284E10F0C2F8014638680FF002FF25
:100C200038602BE0012C32D1204BDFF89C90186803
:100C30000FF0ACFF04462146286810F0AFF80146DB
:100C4000D9F800000FF0EEFE2146C9F80000386820
:100C5000DFF87890184F10F0A1F80146D9F800009D
:100C60000FF0E0FE2146C9F800003068134E10F086
:100C700095F8014638680FF0D5FE386021464046A9
:100C800010F08CF8014630680FF0CCFE3060286818
:100C900010F096F9BDE8F8834C93FF1F7093FF1F87
:100CA0004897FF1F3C97FF1FF08BFF1FE089FF1F36
:100CB000608CFF1FF499FF1FF894FF1F4491FF1FE2
:100CC0004891FF1F2C94FF1F2094FF1FF494FF1FD7
:100CD0002DE9F74F2B4DDFF8B8B0DFF8B8A02A4E5A
:100CE000DFF8B490DFF8B480284C59462846FFF767
:100CF0004FFCDAF800000FF009FB022702460B4612
:100D000000972846FFF74EFC31462846FFF740FC87
:100D100049462846FFF73CFCD8F800000FF0F6FAE9
:100D2000009702460B462846FFF73CFC59462046F2
:100D3000FFF72EFCDAF800000FF0E8FA0097024601
:100D40000B462046FFF72EFC31462046FFF720FCDD
:100D500049462046FFF71CFCD8F800000FF0D6FAF1
:100D6000009702460B462046FFF71CFC31462846FA
:100D7000FFF70EFC20463146FFF70AFC03B0BDE842
:100D8000F08F00BFFC9EFF1F3D3E0100209FFF1F14
:100D9000853001006889FF1F94300100F492FF1F25
:100DA000F0B50D46ADF57B7D0446264816460DF0A0
:100DB00067F9294624480DF063F94FF47A7200214F
:100DC000684610F0A5F9204600210DF007FB1F4BE7
:100DD0001D681A681F460BF085FE10B90BF006FD62
:100DE000E8B10BF07FFE002805DD0BF05FFE5B280D
:100DF00024D0144808E00BF0F9FC00281EDD0BF0AD
:100E00002FFD5B281AD010482B216A464FF47A73C5
:100E10000DF038F9204669460DF018FB0EE0012E62
:100E2000D9D13868401B0FF0B1FE094B196810F09A
:100E3000BDF80028CFD0FFF7FFFBD2E720460DF525
:100E40007B7DF0BDFC9EFF1F209FFF1F649EFF1F48
:100E50006C89FF1FF0B504468DB01F4821460DF088
:100E60000FF91E4821460DF00BF92022002104A89D
:100E700010F04EF9684600210DF0B0FA184B1E68CC
:100E80001A681F460BF02EFE10B90BF0AFFCC0B174
:100E90000BF0ACFC002801DD104804E00BF022FE52
:100EA000002813DD0C4804AA20232B210DF0EAF8BA
:100EB00004A968460DF0CAFA009810F0CFF805466C
:100EC00004E03B689B1BA342DCDDE1E768460DF0D4
:100ED00045FA28460DB0F0BDFC9EFF1F209FFF1F66
:100EE000649EFF1F2DE9F04106468CB02148314633
:100EF0000DF0C6F8204831460DF0C2F8202200213E
:100F000004A810F005F9684600210DF067FA1B4BA4
:100F10001F681A6898460BF0E5FD10B90BF066FCE7
:100F2000C8B10BF0DFFD002801DD124804E00BF032
:100F30005DFC002815DD104804AA20232B210DF0AC
:100F4000A1F804A968460DF081FA009810F083F822
:100F500004460D4605E0D8F80030DB1BB342DADD6D
:100F6000DFE768460DF0FAF9204629460CB0BDE8E7
:100F7000F08100BFFC9EFF1F209FFF1F649EFF1F8C
:100F800008B5044B19680FF04BFD034B19680FF0BF
:100F900005FF08BDF492FF1F6889FF1F70B5054665
:100FA0000E46002428460FF0F1FD1E4B014653F873
:100FB00024000FF0D3FFE8B11B4B53F8245000215D
:100FC00028460FF037FE014628460FF02BFD174B41
:100FD00053F824400546002120460FF02BFE014621
:100FE00020460FF01FFD0021044628460FF0B6FFF3
:100FF00048B103E001341A2CD4D10EE02046002180
:101000000FF0ACFF48B930460FF0C0FD21460FF09D
:1010100007FD29460FF0C2FE00E000200FF0D0FFD0
:1010200070BD00BF7489FF1F2492FF1F8C92FF1FA9
:101030002DE9F34104460D463148324917461E4614
:10104000FFF7A6FA21462E480CF011FF2E492C4836
:10105000FFF79EFA2B492D48FFF79AFA21462B48B5
:101060000CF005FF29482849FFF792FA0024B44202
:1010700023DA28680FF04AF94FF0060802460B46BB
:10108000CDF800801E48FFF78DFA55F8040B0FF0DD
:101090003DF9CDF8008002460B461C48FFF782FA66
:1010A000731E9C4207D01A491548FFF771FA17487A
:1010B0001749FFF76DFA0134D9E716491048FFF7D1
:1010C00067FA12481349FFF763FA012F0C4805D05D
:1010D0000F49FFF776FA0D480D490CE00E49FFF76E
:1010E00070FA0E490648FFF76CFA0B490748FFF7FC
:1010F00068FA06480949FFF764FA02B0BDE8F081D2
:10110000FC9EFF1F7E3601009D310100209FFF1FC6
:101110003D3E0100D93F0100A12F0100D63401005E
:10112000F7B504460D462E482E491646FFF730FA0D
:1011300021462B480CF09BFE2B492948FFF728FA43
:1011400028492A48FFF724FA214628480CF08FFE48
:1011500026482549FFF71CFA002428680FF0D6F826
:10116000022702460B4600971D48FFF71BFA55F869
:10117000040B0FF0CBF8009702460B461B48FFF715
:1011800011FA192C07D01A491548FFF701FA174828
:101190001749FFF7FDF901341A2CDED11549104823
:1011A000FFF7F6F911481349FFF7F2F9012E0C4841
:1011B00005D00F49FFF705FA0C480D490CE00E4920
:1011C000FFF7FFF90D490648FFF7FBF90A49074801
:1011D000FFF7F7F905480949FFF7F3F903B0F0BD48
:1011E000FC9EFF1F7E3601009D310100209FFF1FE6
:1011F0003D3E0100D93F0100A12F0100D63401007E
:1012000010B50FF0C3FC0B4B196804460FF012FD2C
:10121000094B19680FF006FC084B1860084B204674
:1012200019680FF007FD074B19680FF0FBFB064B21
:10123000186010BD688CFF1FE494FF1FE899FF1F22
:101240006C8CFF1FE894FF1FF099FF1F2DE9F743F7
:10125000054638B953495448FFF79AF9534851495C
:10126000FFF796F9DFF8689151494F48DFF864813C
:10127000504F514EFFF78CF9D9F800000FF046F8A7
:10128000022402460B4600944748FFF78BF94B496E
:101290004548FFF77DF94A494348FFF779F9D8F8FF
:1012A00000000FF033F8009402460B463E48FFF76B
:1012B00079F942493C48FFF76BF942493A48FFF750
:1012C00067F938680FF022F8009402460B4636485A
:1012D000FFF768F939493448FFF75AF93A49324873
:1012E000FFF756F930680FF011F8009402460B46EC
:1012F0002D48FFF757F92E492C48FFF749F9D9F83F
:1013000000000FF003F8009402460B462748FFF751
:1013100049F92A492548FFF73BF929492348FFF7AE
:1013200037F9D8F800000EF0F1FF009402460B46A2
:101330001E48FFF737F921491C48FFF729F92149D1
:101340001A48FFF725F938680EF0E0FF00940246CE
:101350000B461648FFF726F918491448FFF718F905
:1013600019491248FFF714F930680EF0CFFF0094C6
:1013700002460B460D48FFF715F9012D0A4807D123
:101380000E49FFF705F90D490848FFF701F906E096
:101390000E49FFF716F905480C49FFF712F903B09B
:1013A000BDE8F083A9300100FC9EFF1F209FFF1FB6
:1013B000AB3001006C8CFF1FE894FF1F3D3E010025
:1013C000B7300100C8300100D4300100A12F010066
:1013D000688CFF1FE494FF1F01282DE9F341884624
:1013E00016461D463DD1A64FA649A748FFF7D0F89F
:1013F00038680EF08BFF062402460B460094A24884
:10140000FFF7D0F8A149A048FFF7C2F878680EF0BE
:101410007DFF009402460B469B48FFF7C3F89C49AA
:101420009948FFF7B5F897499A48FFF7B1F8386837
:101430000EF06CFF009402460B469648FFF7B2F898
:1014400092499448FFF7A4F878680EF05FFF009483
:1014500002460B468F48FFF7A5F88E488C49FFF7E8
:1014600097F8B8F1010F3DD18B4F8C498648FFF7B3
:101470008FF838680EF04AFF062402460B460094A7
:101480008148FFF78FF881497F48FFF781F8786836
:101490000EF03CFF009402460B467B48FFF782F8B3
:1014A0007B497948FFF774F87C497A48FFF770F870
:1014B00038680EF02BFF009402460B467548FFF784
:1014C00071F872497348FFF763F878680EF01EFFF1
:1014D000009402460B466F48FFF764F86D486C496C
:1014E000FFF756F8012E3DD16D4E6E496648FFF765
:1014F0004FF830680EF00AFF062402460B460094AF
:101500006148FFF74FF861495F48FFF741F870689D
:101510000EF0FCFE009402460B465B48FFF742F8D3
:101520005B495948FFF734F85E495A48FFF730F8ED
:1015300030680EF0EBFE009402460B465548FFF76C
:1015400031F852495348FFF723F870680EF0DEFE79
:10155000009402460B464F48FFF724F84D484C498B
:10156000FFF716F8012D3DD14F4D50494648FFF782
:101570000FF828680EF0CAFE062402460B460094B7
:101580004148FFF70FF841493F48FFF701F8686805
:101590000EF0BCFE009402460B463B48FFF702F8F3
:1015A0003B493948FEF7F4FF40493A48FEF7F0FF5F
:1015B00028680EF0ABFE009402460B463548FEF755
:1015C000F1FF32493348FEF7E3FF68680EF09EFEF4
:1015D000009402460B462F48FEF7E4FF2D482C49A5
:1015E000FEF7D6FF089B012B3DD1314D31492648EE
:1015F000FEF7CEFF28680EF089FE062402460B4651
:1016000000942148FEF7CEFF20491F48FEF7C0FF97
:1016100068680EF07BFE009402460B461A48FEF7FF
:10162000C1FF1B491848FEF7B3FF22491948FEF7CE
:10163000AFFF28680EF06AFE009402460B4615487C
:10164000FEF7B0FF11491348FEF7A2FF68680EF0DD
:101650005DFE009402460B460E48FEF7A3FF0D48C0
:101660000B49FEF795FF099B012B5ED1124D1349E3
:101670000548FEF78DFF28680EF048FE06241FE09F
:101680002C97FF1FE5300100FC9EFF1F3D3E01002F
:10169000F83F0100209FFF1F3497FF1FF630010025
:1016A0004097FF1F073101005094FF1F18310100C0
:1016B0005894FF1F293101006094FF1F3A31010047
:1016C00002460B460094A548FEF76CFFA449A348C8
:1016D000FEF75EFF68680EF019FE009402460B46A6
:1016E0009E48FEF75FFF9F499C48FEF751FF9E49C9
:1016F0009E48FEF74DFF28680EF008FE0094024653
:101700000B469A48FEF74EFF95499848FEF740FF72
:1017100068680EF0FBFD009402460B469348FEF706
:1017200041FF92488F49FEF733FF0A9B012B3DD1C1
:101730008F4D90498948FEF72BFF28680EF0E6FD93
:10174000062402460B4600948448FEF72BFF84498A
:101750008248FEF71DFF68680EF0D8FD009402462F
:101760000B467E48FEF71EFF7E497C48FEF710FFC1
:1017700080497E48FEF70CFF28680EF0C7FD0094F4
:1017800002460B467948FEF70DFF75497748FEF78C
:10179000FFFE68680EF0BAFD009402460B467348DF
:1017A000FEF700FF71486F49FEF7F2FE0B9B012B1D
:1017B0003DD1714D71496948FEF7EAFE28680EF087
:1017C000A5FD062402460B4600946448FEF7EAFE97
:1017D00063496248FEF7DCFE68680EF097FD0094EE
:1017E00002460B465D48FEF7DDFE5E495B48FEF7AC
:1017F000CFFE62495D48FEF7CBFE28680EF086FDFD
:10180000009402460B465948FEF7CCFE544957480F
:10181000FEF7BEFE68680EF079FD009402460B46A6
:101820005248FEF7BFFE51484E49FEF7B1FE0C9BF1
:10183000012B3DD1524D53494848FEF7A9FE286877
:101840000EF064FD062402460B4600944348FEF762
:10185000A9FE43494148FEF79BFE68680EF056FD1D
:10186000009402460B463D48FEF79CFE3D493B482E
:10187000FEF78EFE43493D48FEF78AFE28680EF0CB
:1018800045FD009402460B463848FEF78BFE34496E
:101890003648FEF77DFE68680EF038FD009402467B
:1018A0000B463248FEF77EFE30482E49FEF770FEAA
:1018B0000D9B012B3DD1344D34492848FEF768FE7D
:1018C00028680EF023FD062402460B4600942348A8
:1018D000FEF768FE22492148FEF75AFE68680EF0BE
:1018E00015FD009402460B461C48FEF75BFE1D49A1
:1018F0001A48FEF74DFE25491C48FEF749FE2868A8
:101900000EF004FD009402460B461848FEF74AFE0E
:1019100013491648FEF73CFE68680EF0F7FC009489
:1019200002460B461148FEF73DFE10480D49FEF7F2
:101930002FFE0E9B012B5DD1154D16490748FEF772
:1019400027FE28680EF0E2FC062402460B460094AF
:101950000248FEF727FE02491EE000BFFC9EFF1F63
:101960003D3E0100F83F01003A310100209FFF1F7A
:10197000D88BFF1F4B310100E08BFF1F5C31010052
:10198000E88BFF1F6D3101007094FF1F7E31010055
:10199000F892FF1F8F310100A548FEF7F9FD686836
:1019A0000EF0B4FC009402460B46A148FEF7FAFD87
:1019B000A0499F48FEF7ECFD9F49A048FEF7E8FDCF
:1019C00028680EF0A3FC009402460B469B48FEF7E5
:1019D000E9FD9B499948FEF7DBFD68680EF096FC2F
:1019E000009402460B469548FEF7DCFD934891496A
:1019F000FEF7CEFD0F9B012B3DD1924D92498C48B5
:101A0000FEF7C6FD28680EF081FC062402460B4650
:101A100000948748FEF7C6FD89498548FEF7B8FD62
:101A200068680EF073FC009402460B468048FEF78F
:101A3000B9FD80497E48FEF7ABFD83497F48FEF73C
:101A4000A7FD28680EF062FC009402460B467B4816
:101A5000FEF7A8FD7A497948FEF79AFD68680EF00E
:101A600055FC009402460B467448FEF79BFD7348F4
:101A70007049FEF78DFD109B012B3DD1734D7449CC
:101A80006B48FEF785FD28680EF040FC06240246F0
:101A90000B4600946648FEF785FD69496448FEF7E9
:101AA00077FD68680EF032FC009402460B466048F1
:101AB000FEF778FD5F495E48FEF76AFD64495F48BE
:101AC000FEF766FD28680EF021FC009402460B46E6
:101AD0005A48FEF767FD5A495848FEF759FD6868AD
:101AE0000EF014FC009402460B465448FEF75AFDD3
:101AF00052485049FEF74CFD119B012B3DD1554DED
:101B000055494B48FEF744FD28680EF0FFFB0624BC
:101B100002460B4600944648FEF744FD48494448B7
:101B2000FEF736FD68680EF0F1FB009402460B46A6
:101B30003F48FEF737FD3F493D48FEF729FD46493E
:101B40003E48FEF725FD28680EF0E0FB00940246B3
:101B50000B463A48FEF726FD39493848FEF718FD8E
:101B600068680EF0D3FB009402460B463348FEF73C
:101B700019FD32482F49FEF70BFD129B012B3DD179
:101B8000364D37492A48FEF703FD28680EF0BEFBA4
:101B9000062402460B4600942548FEF703FD28491B
:101BA0002348FEF7F5FC68680EF0B0FB009402468F
:101BB0000B461F48FEF7F6FC1E491D48FEF7E8FCE1
:101BC00027491E48FEF7E4FC28680EF09FFB0094AE
:101BD00002460B461948FEF7E5FC19491748FEF77F
:101BE000D7FC68680EF092FB009402460B4613483F
:101BF000FEF7D8FC11480F49FEF7CAFC139B012BD6
:101C00005CD1184D18490A48FEF7C2FC28680EF04E
:101C10007DFB062402460B4600940548FEF7C2FCF5
:101C200007490348FEF7B4FC68680EF06FFB1DE03F
:101C3000FC9EFF1FF83F01008F310100209FFF1F16
:101C40003D3E01000093FF1FA13101000893FF1FDB
:101C5000B33101001093FF1FC53101001893FF1F1E
:101C6000D73101002093FF1FE931010000940246A3
:101C70000B46A548FEF796FCA449A348FEF788FC4E
:101C8000A349A448FEF784FC28680EF03FFB0094AB
:101C900002460B469F48FEF785FC9F499D48FEF78C
:101CA00077FC68680EF032FB009402460B469948B8
:101CB000FEF778FC97489549FEF76AFC149B012BC8
:101CC0003DD1964D96499048FEF762FC28680EF08B
:101CD0001DFB062402460B4600948B48FEF762FC6F
:101CE0008D498948FEF754FC68680EF00FFB00949C
:101CF00002460B468448FEF755FC84498248FEF7AD
:101D000047FC87498348FEF743FC28680EF0FEFA3B
:101D1000009402460B467F48FEF744FC7E497D480E
:101D2000FEF736FC68680EF0F1FA009402460B46A6
:101D30007848FEF737FC77487449FEF729FC159B75
:101D4000012B3DD1774D78496F48FEF721FC28687B
:101D50000EF0DCFA062402460B4600946A48FEF7B1
:101D600021FC6D496848FEF713FC68680EF0CEFA56
:101D7000009402460B466448FEF714FC634962482F
:101D8000FEF706FC68496348FEF702FC28680EF07F
:101D9000BDFA009402460B465E48FEF703FC5E491E
:101DA0005C48FEF7F5FB68680EF0B0FA0094024656
:101DB0000B465848FEF7F6FB56485449FEF7E8FB39
:101DC000169B012B3DD1594D59494F48FEF7E0FB79
:101DD00028680EF09BFA062402460B4600944A48F7
:101DE000FEF7E0FB4C494848FEF7D2FB68680EF06E
:101DF0008DFA009402460B464348FEF7D3FB434955
:101E00004148FEF7C5FB4A494248FEF7C1FB286836
:101E10000EF07CFA009402460B463E48FEF7C2FBE9
:101E20003D493C48FEF7B4FB68680EF06FFA009439
:101E300002460B463748FEF7B5FB36483349FEF7F6
:101E4000A7FB179B012B3DD13A4D3B492E48FEF78E
:101E50009FFB28680EF05AFA062402460B460094AF
:101E60002948FEF79FFB2C492748FEF791FB68683D
:101E70000EF04CFA009402460B462348FEF792FB04
:101E800022492148FEF784FB2B492248FEF780FBBC
:101E900028680EF03BFA009402460B461D48FEF7F8
:101EA00081FB1D491B48FEF773FB68680EF02EFA94
:101EB000009402460B461748FEF774FB1548134979
:101EC000FEF766FB189B012B5DD11C4D1C490E488B
:101ED000FEF75EFB28680EF019FA062402460B4650
:101EE00000940948FEF75EFB0B490748FEF750FBDC
:101EF00068680EF00BFA009402460B460248FEF7A3
:101F000051FB02491EE000BFFC9EFF1FF83F01008D
:101F1000E9310100209FFF1F3D3E01002893FF1F74
:101F2000FB3101003093FF1F0D3201003893FF1F7A
:101F30001F3201004093FF1F313201003094FF1F18
:101F400043320100A448FEF723FBA449A448FEF74E
:101F50001FFB28680EF0DAF9009402460B46A048F1
:101F6000FEF720FB9F499E48FEF712FB68680EF0C3
:101F7000CDF9009402460B469948FEF713FB9848AA
:101F80009949FEF705FB199B012B3DD1974D9849C7
:101F90009148FEF7FDFA28680EF0B8F906240246CB
:101FA0000B4600948C48FEF7FDFA8E498A48FEF7EE
:101FB000EFFA68680EF0AAF9009402460B468648CC
:101FC000FEF7F0FA88498448FEF7E2FA8849844827
:101FD000FEF7DEFA28680EF099F9009402460B46E7
:101FE0007F48FEF7DFFA7F497D48FEF7D1FA68683F
:101FF0000EF08CF9009402460B467948FEF7D2FAAF
:1020000077487949FEF7C4FA1A9B012B3DD1794DE7
:1020100079497148FEF7BCFA28680EF077F9062472
:1020200002460B4600946C48FEF7BCFA6D496A48BC
:10203000FEF7AEFA68680EF069F9009402460B46A6
:102040006548FEF7AFFA68496348FEF7A1FA6A49A6
:102050006348FEF79DFA28680EF058F9009402468E
:102060000B465F48FEF79EFA5E495D48FEF790FA20
:1020700068680EF04BF9009402460B465848FEF78C
:1020800091FA57485849FEF783FA1B9B012B3DD123
:102090005A4D5B495048FEF77BFA28680EF036F936
:1020A000062402460B4600944B48FEF77BFA4D4946
:1020B0004948FEF76DFA68680EF028F90094024668
:1020C0000B464548FEF76EFA47494348FEF760FA6B
:1020D0004B494348FEF75CFA28680EF017F9009464
:1020E00002460B463E48FEF75DFA3E493C48FEF785
:1020F0004FFA68680EF00AF9009402460B46384819
:10210000FEF750FA36483849FEF742FA1C9B012B7D
:102110003DD13C4D3C493048FEF73AFA28680EF074
:10212000F5F8062402460B4600942B48FEF73AFACF
:102130002C492948FEF72CFA68680EF0E7F800945D
:1021400002460B462448FEF72DFA27492248FEF79F
:102150001FFA2D492248FEF71BFA28680EF0D6F820
:10216000009402460B461E48FEF71CFA1D491C4807
:10217000FEF70EFA68680EF0C9F8009402460B46A6
:102180001748FEF70FFA16481749FEF701FA1D9B8C
:10219000012B5CD11D4D1E490F48FEF7F9F9286847
:1021A0000EF0B4F8062402460B4600940A48FEF7E7
:1021B000F9F90C490848FEF7EBF968680EF0A6F843
:1021C000009402460B460448FEF7ECF90649024823
:1021D000FEF7DEF90E491DE0FC9EFF1F43320100B1
:1021E000209FFF1F3D3E0100F83F01003894FF1F74
:1021F000553201004094FF1F673201004894FF1FD1
:10220000793201009096FF1F8B3201009C96FF1FD0
:102210009D320100A548FEF7BBF928680EF076F85C
:10222000009402460B46A148FEF7BCF9A0499F481E
:10223000FEF7AEF968680EF069F8009402460B46A6
:102240009A48FEF7AFF999489A49FEF7A1F91E9B03
:10225000012B3DD1984D99499948FEF799F9286885
:102260000EF054F8062402460B4600949448FEF7FC
:1022700099F98F499248FEF78BF968680EF046F895
:10228000009402460B468E48FEF78CF989498C482B
:10229000FEF77EF989498548FEF77AF928680EF03D
:1022A00035F8009402460B468048FEF77BF98049DA
:1022B0007E48FEF76DF968680EF028F80094024633
:1022C0000B467A48FEF76EF978487A49FEF760F9CE
:1022D0001F9B012B3DD17B4D7B497948FEF758F977
:1022E00028680EF013F8062402460B460094744842
:1022F000FEF758F96E497248FEF74AF968680EF021
:1023000005F8009402460B466D48FEF74BF9694903
:102310006B48FEF73DF96C496448FEF739F92868C7
:102320000DF0F4FF009402460B466048FEF73AF9C0
:102330005F495E48FEF72CF968680DF0E7FF0094EE
:1023400002460B465948FEF72DF958485949FEF701
:102350001FF9209B012B3DD15C4D5D495848FEF78C
:1023600017F928680DF0D2FF062402460B460094A8
:102370005348FEF717F94E495148FEF709F96868C6
:102380000DF0C4FF009402460B464D48FEF70AF9D3
:1023900048494B48FEF7FCF84D494448FEF7F8F829
:1023A00028680DF0B3FF009402460B463F48FEF745
:1023B000F9F83F493D48FEF7EBF868680DF0A6FFD5
:1023C000009402460B463948FEF7ECF83748394985
:1023D000FEF7DEF8219B012B3DD13E4D3E493848AA
:1023E000FEF7D6F828680DF091FF062402460B464A
:1023F00000943348FEF7D6F82D493148FEF7C8F867
:1024000068680DF083FF009402460B462C48FEF7E7
:10241000C9F828492A48FEF7BBF82F492348FEF798
:10242000B7F828680DF072FF009402460B461F486B
:10243000FEF7B8F81E491D48FEF7AAF868680DF0C7
:1024400065FF009402460B461848FEF7ABF81748A4
:102450001849FEF79DF8229B012B5AD11F4D2049A8
:102460001748FEF795F828680DF050FF062402463D
:102470000B4600941248FEF795F80D491048FEF7F8
:1024800087F868680DF042FF009402460B460C483E
:10249000FEF788F807490A48FEF77AF8104903481A
:1024A000FEF776F828680DF031FF1BE0209FFF1F34
:1024B0003D3E0100F83F01000C97FF1FAF320100C5
:1024C000FC9EFF1F1497FF1FC13201001C97FF1FC6
:1024D000D33201006894FF1FE53201006097FF1FAF
:1024E000F7320100009402460B46A548FEF75AF861
:1024F000A449A348FEF74CF868680DF007FF009464
:1025000002460B469E48FEF74DF89D489E49FEF751
:102510003FF8239B012B3DD19C4D9D499D48FEF7E3
:1025200037F828680DF0F2FE062402460B460094A8
:102530009848FEF737F893499648FEF729F86868F7
:102540000DF0E4FE009402460B469248FEF72AF88E
:102550008D499048FEF71CF88D498948FEF718F818
:1025600028680DF0D3FE009402460B468448FEF71F
:1025700019F884498248FEF70BF868680DF0C6FE2A
:10258000009402460B467E48FEF70CF87C487E49D4
:10259000FDF7FEFF249B012B3DD17F4D7F497D48F8
:1025A000FDF7F6FF28680DF0B1FE062402460B4643
:1025B00000947848FDF7F6FF72497648FDF7E8FF8A
:1025C00068680DF0A3FE009402460B467148FDF7C3
:1025D000E9FF6D496F48FDF7DBFF70496848FDF77B
:1025E000D7FF28680DF092FE009402460B4664481F
:1025F000FDF7D8FF63496248FDF7CAFF68680DF030
:1026000085FE009402460B465D48FDF7CBFF5C4813
:102610005D49FDF7BDFF259B012B3DD1604D614913
:102620005C48FDF7B5FF28680DF070FE06240246F1
:102630000B4600945748FDF7B5FF52495548FDF742
:10264000A7FF68680DF062FE009402460B465148F1
:10265000FDF7A8FF4C494F48FDF79AFF51494848FC
:10266000FDF796FF28680DF051FE009402460B46D8
:102670004348FDF797FF43494148FDF789FF6868E4
:102680000DF044FE009402460B463D48FDF78AFFDC
:102690003B483D49FDF77CFF269B012B3DD1424D38
:1026A00042493C48FDF774FF28680DF02FFE0624D0
:1026B00002460B4600943748FDF774FF3149354810
:1026C000FDF766FF68680DF021FE009402460B4698
:1026D0003048FDF767FF2C492E48FDF759FF334975
:1026E0002748FDF755FF28680DF010FE00940246BC
:1026F0000B462348FDF756FF22492148FDF748FFC6
:1027000068680DF003FE009402460B461C48FDF776
:1027100049FF1B481C49FDF73BFF279B012B5BD161
:10272000234D24491B48FDF733FF28680DF0EEFDCB
:10273000062402460B4600941648FDF733FF114964
:102740001448FDF725FF68680DF0E0FD009402468F
:102750000B461048FDF726FF0B490E48FDF718FF02
:1027600014490748FDF714FF28680DF0CFFD0094C9
:1027700002460B460248FDF715FF02491CE000BF68
:10278000209FFF1F3D3E0100F83F01006897FF1F9B
:1027900009330100FC9EFF1F7097FF1F1B330100D0
:1027A000B491FF1F2D330100AC97FF1F3F33010091
:1027B000B497FF1F51330100A548FDF7E9FE686893
:1027C0000DF0A4FD009402460B46A148FDF7EAFE79
:1027D0009F48A049FDF7DCFE289B012B3DD19E4D73
:1027E0009E499F48FDF7D4FE28680DF08FFD062412
:1027F00002460B4600949A48FDF7D4FE9949984842
:10280000FDF7C6FE68680DF081FD009402460B4698
:102810009348FDF7C7FE8F499148FDF7B9FE8F49F0
:102820008B48FDF7B5FE28680DF070FD0094024658
:102830000B468748FDF7B6FE8A498548FDF7A8FE96
:1028400068680DF063FD009402460B468048FDF772
:10285000A9FE7F487F49FDF79BFE299B012B3DD1B7
:10286000814D82497E48FDF793FE28680DF04EFDAC
:10287000062402460B4600947948FDF793FE7949F9
:102880007748FDF785FE68680DF040FD009402462C
:102890000B467348FDF786FE6E497148FDF778FEDA
:1028A00072496B48FDF774FE28680DF02FFD009407
:1028B00002460B466648FDF775FE6A496448FDF717
:1028C00067FE68680DF022FD009402460B466048E2
:1028D000FDF768FE5E485F49FDF75AFE2A9B012B13
:1028E0003DD1634D63495E48FDF752FE28680DF007
:1028F0000DFD062402460B4600945948FDF752FE92
:1029000058495748FDF744FE68680DF0FFFC0094F5
:1029100002460B465248FDF745FE4E495048FDF72A
:1029200037FE54494A48FDF733FE28680DF0EEFCA7
:10293000009402460B464648FDF734FE4949444898
:10294000FDF726FE68680DF0E1FC009402460B4698
:102950003F48FDF727FE3E483E49FDF719FE2B9BF9
:10296000012B3DD1444D45493D48FDF711FE2868F6
:102970000DF0CCFC062402460B4600943848FDF7C7
:1029800011FE38493648FDF703FE68680DF0BEFCBD
:10299000009402460B463248FDF704FE2D493048AC
:1029A000FDF7F6FD35492A48FDF7F2FD28680DF0E0
:1029B000ADFC009402460B462548FDF7F3FD29497E
:1029C0002348FDF7E5FD68680DF0A0FC0094024681
:1029D0000B461F48FDF7E6FD1D481E49FDF7D8FDD3
:1029E0002C9B012B5AD1264D26491D48FDF7D0FDC1
:1029F00028680DF08BFC062402460B46009418480C
:102A0000FDF7D0FD17491648FDF7C2FD68680DF0C7
:102A10007DFC009402460B461148FDF7C3FD0D49AD
:102A20000F48FDF7B5FD17490948FDF7B1FD2868C6
:102A30000DF06CFC009402460B460548FDF7B2FD14
:102A400008490348FDF7A4FD68680DF05FFC1BE032
:102A5000209FFF1FF83F0100BC97FF1F6333010059
:102A6000FC9EFF1F3D3E0100C497FF1F7533010010
:102A7000CC97FF1F87330100D497FF1F99330100C4
:102A80002497FF1FAB330100009402460B46A54874
:102A9000FDF788FDA348A449FDF77AFD2D9B012B86
:102AA0003DD1A24DA249A348FDF772FD28680DF063
:102AB0002DFC062402460B4600949E48FDF772FD4D
:102AC0009D499C48FDF764FD68680DF01FFC00946B
:102AD00002460B469748FDF765FD93499548FDF77B
:102AE00057FD93498F48FDF753FD28680DF00EFC04
:102AF000009402460B468B48FDF754FD8E498948E9
:102B0000FDF746FD68680DF001FC009402460B4697
:102B10008448FDF747FD83488349FDF739FD2E9B27
:102B2000012B3DD1854D86498248FDF731FD28684E
:102B30000DF0ECFB062402460B4600947D48FDF7A1
:102B400031FD7D497B48FDF723FD68680DF0DEFB14
:102B5000009402460B467748FDF724FD72497548FC
:102B6000FDF716FD76496F48FDF712FD28680DF058
:102B7000CDFB009402460B466A48FDF713FD6E49F3
:102B80006848FDF705FD68680DF0C0FB009402463B
:102B90000B466448FDF706FD62486349FDF7F8FC03
:102BA0002F9B012B3DD1674D67496248FDF7F0FC33
:102BB00028680DF0ABFB062402460B4600945D48E6
:102BC000FDF7F0FC5C495B48FDF7E2FC68680DF03E
:102BD0009DFB009402460B465648FDF7E3FC524924
:102BE0005448FDF7D5FC58494E48FDF7D1FC2868FC
:102BF0000DF08CFB009402460B464A48FDF7D2FCD0
:102C00004D494848FDF7C4FC68680DF07FFB00940F
:102C100002460B464348FDF7C5FC42484249FDF7D2
:102C2000B7FC309B012B3DD1484D49494148FDF748
:102C3000AFFC28680DF06AFB062402460B460094A0
:102C40003C48FDF7AFFC3C493A48FDF7A1FC6868F9
:102C50000DF05CFB009402460B463648FDF7A2FCE3
:102C600031493448FDF794FC39492E48FDF790FC72
:102C700028680DF04BFB009402460B462948FDF7EF
:102C800091FC2D492748FDF783FC68680DF03EFB59
:102C9000009402460B462348FDF784FC2148224954
:102CA000FDF776FC319B012B5BD12A4D2A49214847
:102CB000FDF76EFC28680DF029FB062402460B4642
:102CC00000941C48FDF76EFC1B491A48FDF760FC98
:102CD00068680DF01BFB009402460B461548FDF793
:102CE00061FC11491348FDF753FC1B490D48FDF7E2
:102CF0004FFC28680DF00AFB009402460B46094879
:102D0000FDF750FC0C490748FDF742FC68680DF0E0
:102D1000FDFA009402460B460248FDF743FC0148C9
:102D20001CE000BF209FFF1FF83F0100048CFF1F25
:102D3000BD330100FC9EFF1F3D3E01000C8CFF1FB8
:102D4000CF330100148CFF1FE13301001C8CFF1FE7
:102D5000F3330100248CFF1F05340100A549FDF762
:102D600017FC329B012B57D1A34DA449A448FDF772
:102D70000FFC28680DF0CAFA062402460B460094A0
:102D80009F48FDF70FFC9F499D48FDF701FC6868CF
:102D90000DF0BCFA009402460B469948FDF702FC80
:102DA00098499748FDF7F4FBA8680DF0AFFA009436
:102DB00002460B469248FDF7F5FB8E499048FDF719
:102DC000E7FB8E499048FDF7E3FB28680DF09EFA7B
:102DD000009402460B468C48FDF7E4FB89498A487B
:102DE000FDF7D6FB68680DF091FA009402460B4699
:102DF0008548FDF7D7FB83498348FDF7C9FBA868E1
:102E00000DF084FA009402460B467F48FDF7CAFB9A
:102E10007D487849FDF7BCFB339B012B57D17B4D97
:102E20007B497748FDF7B4FB28680DF06FFA06245C
:102E300002460B4600947248FDF7B4FB7149704896
:102E4000FDF7A6FB68680DF061FA009402460B4698
:102E50006B48FDF7A7FB6B496948FDF799FBA8682C
:102E60000DF054FA009402460B466548FDF79AFBB4
:102E700060496348FDF78CFB65496348FDF788FBB3
:102E800028680DF043FA009402460B465E48FDF7B1
:102E900089FB5C495C48FDF77BFB68680DF036FAFE
:102EA000009402460B465848FDF77CFB55495648AE
:102EB000FDF76EFBA8680DF029FA009402460B4658
:102EC0005148FDF76FFB50484A49FDF761FB349BC1
:102ED000012B57D14F4D50494948FDF759FB286800
:102EE0000DF014FA062402460B4600944448FDF700
:102EF00059FB44494248FDF74BFB68680DF006FA60
:102F0000009402460B463E48FDF74CFB3D493C48C9
:102F1000FDF73EFBA8680DF0F9F9009402460B4658
:102F20003748FDF73FFB33493548FDF731FB3A4958
:102F30003548FDF72DFB28680DF0E8F900940246AE
:102F40000B463148FDF72EFB2E492F48FDF720FB9D
:102F500068680DF0DBF9009402460B462A48FDF73D
:102F600021FB28492848FDF713FBA8680DF0CEF98E
:102F7000009402460B462448FDF714FB22481D49E5
:102F8000FDF706FB359B012B70D1244D24491C48CD
:102F9000FDF7FEFA28680DF0B9F9062402460B4643
:102FA00000941748FDF7FEFA16491548FDF7F0FAA8
:102FB00068680DF0ABF9009402460B461048FDF727
:102FC000F1FA10490E48FDF7E3FAA8680DF09EF9F2
:102FD000009402460B460A48FDF7E4FA0549084802
:102FE000FDF7D6FA0E490848FDF7D2FA28680DF029
:102FF0008DF917E0F83F01002C8CFF1F17340100FA
:10300000FC9EFF1F3D3E0100209FFF1F388CFF1FCD
:1030100029340100448CFF1F3B3401005497FF1FEB
:103020004D340100009402460B463F48FDF7BAFAC2
:103030003E493D48FDF7ACFA68680DF067F9009429
:1030400002460B463848FDF7ADFA38493648FDF7D9
:103050009FFAA8680DF05AF9009402460B463248D0
:10306000FDF7A0FA30483249FDF792FA369B012B62
:1030700057D1304D30493148FDF78AFA28680DF0B4
:1030800045F9062402460B4600942C48FDF78AFABF
:1030900026492A48FDF77CFA68680DF037F9009454
:1030A00002460B462548FDF77DFA20492348FDF7E7
:1030B0006FFAA8680DF02AF9009402460B461F48E3
:1030C000FDF770FA1A491D48FDF762FA1A491648C9
:1030D000FDF75EFA28680DF019F9009402460B46D8
:1030E0001148FDF75FFA11490F48FDF751FA68687A
:1030F0000DF00CF9009402460B460B48FDF752FA0E
:103100000A490948FDF744FAA8680DF0FFF8009451
:1031100002460B460448FDF745FA03480449FDF70B
:1031200037FA02B0BDE8F081209FFF1F3D3E01004D
:10313000F83F01005C93FF1F5F340100FC9EFF1FFE
:103140001F4B70B51D681A680C461E460AF0E2FC5B
:1031500008BB1C4807210AF0B5FC32200AF0F8F839
:1031600033685B1BA342F1DD17491848FDF710FADD
:1031700015491748FDF70CFA16491448FDF708FAE7
:1031800014491348FDF704FA05E001340A2C07DC62
:1031900032200AF0DDF80AF0BDFC0628F5DD05E076
:1031A0000AF0B8FC10B10AF0C5FCF9E700240AF0F7
:1031B000C1FC094B18550134072CF8D170BD00BF74
:1031C000649EFF1FF489FF1F71340100FC9EFF1FE6
:1031D000209FFF1F3D3E0100508CFF1F08B5C278A5
:1031E000007900EB02200DF0CDFC034B19680DF0C7
:1031F00021FD0DF00BFF08BDF089FF1F38B54FF41E
:10320000FA610C480C4DFFF79BFF0C48FFF7E6FFF7
:10321000044664200AF09CF8094B1868B4FBF0F0EF
:103220000DF0B0FC014628680DF0FCFB286020463C
:1032300038BD00BFF489FF1F1C94FF1F508CFF1F77
:10324000E089FF1F012801D8FFF7D8BF7047FFFFB3
:103250002DE9F74F7A4E304606F03CFF0DF044F86A
:10326000044630460D4606F049FF0DF03DF862A3D6
:10327000D3E900230DF09EF80022724B0DF0C4F943
:103280000022704B0DF0C0F9002206460F46204682
:1032900029466D4B0DF08EF859A3D3E900230CF0AD
:1032A000D7FE59A3D3E9002382468B460CF0CEFE0D
:1032B00057A3D3E9002304460D460DF07BF8002206
:1032C000624B0CF0C5FE54A3D3E900238046894627
:1032D000204629460DF06EF822462B460DF06AF87E
:1032E00002460B46404649460CF0B2FE584B80461B
:1032F000186889460DF00AF802460B4640464946D2
:103300000DF058F846A3D3E900230DF07DF9002213
:10331000CDE900014B4B304639460DF075F942A31B
:10332000D3E9002380468946204629460DF042F81D
:103330004FF02042474B0CF089FE3DA3D3E9002318
:1033400006460F46204629460DF034F822462B4605
:103350000DF030F802460B46304639460CF078FE48
:1033600002460B46404649460CF070FE5246044663
:103370000D465B46504659460DF01CF852465B46DA
:103380000DF018F852465B460DF014F82AA3D3E965
:10339000002306460F46204629460DF00BF822462C
:1033A0002B460DF007F802460B46204629460CF046
:1033B0004FFE1BA3D3E9002304460D46DDE90001BF
:1033C0000DF022F902460B46204629460DF01CF965
:1033D00002460B46304639460CF03AFE0BF080FEB2
:1033E0000BF07EFE06A3D3E900230CF02FFE03B002
:1033F000BDE8F08FAFF3008000000000008863405C
:1034000000000060661271400000006066A2724019
:103410000000004008AC5C3F000000E05898F1BE9E
:1034200000000000D0126341000000404320A3BE12
:1034300000000020BDE2333E000000C0CCCC2A409A
:103440004893FF1F00408F400000A03F0000F03F66
:10345000EC89FF1F00D4FE3E70B5FFF7F9FE0DF0BA
:103460008BFA04461F4806F03DFE4FF47A6009F0DF
:103470006FFF20461C494FF001050DF097FD00B984
:10348000054615F0FF0F194D0AD1204618494FF097
:1034900001060DF06DFD00B9064616F0FF0F12D0C3
:1034A000144C154915482C60FDF772F81249144860
:1034B000FDF76EF813491148FDF76AF811491048F5
:1034C000FDF766F80CE0104B18680DF05FFB014645
:1034D00020460DF063FC014628680DF0A3FA286031
:1034E000204670BD4893FF1F00007A442494FF1FBC
:1034F000000070C20000C6C28F340100FC9EFF1F96
:10350000209FFF1F3D3E0100E089FF1F012801D8D9
:10351000FFF7A2BF704708B509F0E4FA002802DD02
:1035200009F09EFAF8E709F061F9002802DD09F0D8
:103530006DF9F8E708BDFFFF2DE9F3414EF6602075
:10354000FDF7D0FC04460D46B548B649FDF720F816
:10355000B449B548FDF71CF820462946002200234F
:103560000DF090F90646002840F03B8202270097B4
:1035700022462B46AA48FDF715F822462B4600970F
:10358000A948AA4FFDF70EF8A949A548FDF700F88C
:10359000A749A548FCF7FCFF09F062FA09F060FAB8
:1035A00020233B6080233B609D480AF081FCA149B9
:1035B0009B48FCF7EDFF31469948FDF70CF8984819
:1035C0009D49FCF7FEFFB846B2B200219B4807F0C8
:1035D0006BF931469248FCF7DFFF95499048FCF7BC
:1035E000D7FF322009F0B4FE30460CF07DFE2B46AA
:1035F00022460CF02DFD0DF077F940F6FE7398424F
:103600000646E1DD8E4F864880233B600AF050FC81
:1036100088498348FCF7BCFF01218148FCF7DBFFA8
:103620007F488849FCF7CDFF0026B2B201218348CC
:1036300007F03AF931467A48FCF7AEFF7C49784802
:10364000FCF7A6FF322009F083FE30460CF04CFE5A
:103650002B4622460CF0FCFC0DF046F940F6FE73BA
:1036600098420646E1DD20233B600123C8F8003084
:103670008023C8F800306A480AF01AFC6D4968488F
:10368000FCF786FF00216648FCF7A5FF64486E49F9
:10369000FCF797FF0026B2B20021684807F004F952
:1036A00031465F48FCF778FF61495D48FCF770FFE1
:1036B000322009F04DFE30460CF016FE2B46224615
:1036C0000CF0C6FC0DF010F940F6FE739842064669
:1036D000E1DD80233B6052480AF0EAFB554950483F
:1036E000FCF756FF01214E48FCF775FF4C4857493F
:1036F000FCF767FF0026B2B20121504807F0D4F86A
:1037000031464748FCF748FF49494548FCF740FF28
:10371000322009F01DFE30460CF0E6FD2B46224615
:103720000CF096FC0DF0E0F840F6FE739842064669
:10373000E1DD012302263B603948C8F800600AF049
:10374000B7FB3C493648FCF723FF31463448FCF7C9
:1037500042FF33483E49FCF734FF0026B2B2022153
:10376000364807F0A1F831462D48FCF715FF3049DF
:103770002B48FCF70DFF322009F0EAFD30460CF033
:10378000B3FD2B4622460CF063FC0DF0ADF840F67D
:10379000FE7398420646E1DD02263E602D4F20482A
:1037A00010233B600AF084FB22491D48FCF7F0FE21
:1037B00031461B48FCF70FFF19482749FCF701FF6A
:1037C0000026B846B2B202211C4807F06DF8314617
:1037D0001348FCF7E1FE16491148FCF7D9FE3220E8
:1037E00009F0B6FD30460CF07FFD2B4622460CF06A
:1037F0002FFC0DF079F840F6FE7398420646E1DDA5
:10380000164F0748102301263B60C8F800600AF0F5
:103810004FFB08490248FCF7BBFE314620E000BFE1
:10382000FC9EFF1FBA340100209FFF1FC4F00F4011
:103830003D3E0100C8340100D73401007897FF1FD6
:10384000C8F00F40F83401001A3501003B35010083
:103850005D35010084F00F407135010088F00F40A4
:103860006A48FCF7B8FE69486949FCF7AAFE0026D9
:10387000B2B20321674807F017F831466348FCF7F6
:103880008BFE65496148FCF783FE322009F060FD3C
:1038900030460CF029FD2B4622460CF0D9FB0DF0EA
:1038A00023F840F6FE7398420646E1DD5B4B57482D
:1038B00001263E601E600AF0FBFA59495348FCF7A6
:1038C00067FE31465148FCF786FE50485549FCF7E3
:1038D00078FE0026B2B203214E4806F0E5FF3146DD
:1038E0004A48FCF759FE4C494848FCF751FE322043
:1038F00009F02EFD30460CF0F7FC2B4622460CF06A
:10390000A7FB0CF0F1FF40F6FE7398420646E1DD9E
:10391000454B3E4801261E604023C8F800300AF09F
:10392000C7FA3F493948FCF733FE31463748FCF7C0
:1039300052FE36483D49FCF744FE0026B2B2032150
:10394000344806F0B1FF31463048FCF725FE3249D5
:103950002E48FCF71DFE322009F0FAFC30460CF030
:10396000C3FC2B4622460CF073FB0CF0BDFF40F667
:10397000FE7398420646E1DD40233B608023C8F891
:10398000003022480AF094FA25492048FCF700FE4E
:1039900001211E48FCF71FFE1C482549FCF711FEBB
:1039A0000026B2B203211B4806F07EFF31461748BD
:1039B000FCF7F2FD18491548FCF7EAFD322009F042
:1039C000C7FC30460CF090FC2B4622460CF040FB26
:1039D0000CF08AFF40F6FE7398420646E1DD802334
:1039E0003B60FFF798FD13490848FCF7EAFD1249D0
:1039F0000648FCF7E6FD0F491048FCF7E2FD0E49CA
:103A00000E48FCF7DEFD02B0BDE8F081FC9EFF1F12
:103A1000853501007897FF1F3D3E010044F00F40BF
:103A2000C83401009735010048F00F40A935010066
:103A3000BB350100A02F0100D6340100209FFF1FDD
:103A400070B58EB008F0E2FE061E24DD642009F099
:103A50007FFC002401AD665508F0D8FE0134262C09
:103A60000646F7D1124E0024284631688DF82A40C8
:103A700025220DF02FFCC0B10E490F48FCF788FD40
:103A800031680D48FCF79DFD0C490B48FCF780FDA3
:103A90000948294605E00A490748FCF792FD06480F
:103AA0000849FCF78EFD002000E001200EB070BD3B
:103AB000E889FF1FCD350100FC9EFF1FF035010096
:103AC000133601004936010030B54949494885B0EF
:103AD000FCF75EFD46494848FCF75AFD002268465F
:103AE0004EF66021FDF75CF94EF66020FDF7FAF91D
:103AF00004460D460D20012109F00CFB2946204605
:103B00000CF0F2FE430803F1376303F5D833B3FB3F
:103B1000F0F008F09FFC01210D2009F0CDFA4FF4E0
:103B20007A7009F015FC35493348FCF731FD4FF444
:103B30007A7009F00DFC32492F48FCF729FD4FF44B
:103B40007A7009F005FC2F492A48FCF721FD40F264
:103B5000D2412848FCF73FFD2B492748FCF718FDC8
:103B600040F2D2412448FCF717FD4FF47A7009F077
:103B7000EFFB26491F48FCF70BFD69461D48FCF783
:103B800016FD23491C48FCF703FD69461A480AF054
:103B90006EF94FF47A7009F0DBFB1E491548FCF70B
:103BA00010FD1D491448FCF7F3FC4FF47A7009F03E
:103BB000CFFBFFF745FF18B10E481849FCF701FD90
:103BC0000D20002109F078FA15490A48FCF7F9FCA4
:103BD00013490948FCF7F5FC06480AF069F906485C
:103BE0000AF066F968460AF0B9FB05B030BD00BFBF
:103BF00071360100FC9EFF1F209FFF1F80360100D1
:103C0000833601008E3601009D360100A436010086
:103C1000B3360100BB360100D0360100D9360100B1
:103C2000A02F010014282DE9F84305460C4616463E
:103C30001F4601D0022851D13146834806F0ADFB22
:103C400000283146804803DD06F0A7FB7F4BACE03F
:103C500006F0A3FB002802DB0020BDE8F883002C5F
:103C6000FADD384600210DF0A1F90028F4D03146E4
:103C7000754806F092FB804638460DF0A1F90146E2
:103C80002846FDF78BF905466FEA08000CF02CFB7F
:103C900002460B4600204FF080410BF0A5F86C4324
:103CA0008046642094FBF0F089460CF01DFB002256
:103CB00004460D46664B404649460CF07BFB0B46DE
:103CC0000246294620460CF0C3F90CF00DFE5F4B6E
:103CD000B0F5006FA8BF4FF40060ADE0A0F10B039A
:103CE000012B03D9A0F10F03012B4ED831465948BF
:103CF00006F053FB00283146564803DD06F04DFB25
:103D0000554B52E006F049FB0028A5DA002CA3DD54
:103D1000384600210DF04AF900289DD031464D4823
:103D200006F03BFB804638460DF04AF9014628462E
:103D3000FDF734F905466FEA08000CF0D5FA0246A3
:103D40000B4600204FF080410BF04EF86C4380464C
:103D5000642094FBF0F089460CF0C6FA0022044679
:103D60000D463B4B404649460CF024FB0B460246B1
:103D7000294620460CF06CF90CF0B6FD364BB0F538
:103D8000006FA8BF4FF4006056E020F004030A2B38
:103D90007FF462AF1146314806F0FFFA0028314641
:103DA0002E4804DD06F0F9FA2D4B186048E006F0C5
:103DB000F4FA0028BFF650AF002C7FF74DAF38461D
:103DC00000210DF0F3F800283FF446AF31462348B8
:103DD00006F0E3FA804638460DF0F2F80146284630
:103DE000FDF7DCF805466FEA08000CF07DFA0246A4
:103DF0000B4600204FF080410AF0F6FF6C438046EE
:103E0000642094FBF0F089460CF06EFA0022044620
:103E10000D460F4B404649460CF0CCFA0B46024685
:103E2000294620460CF014F90CF05EFD0C4BB0F561
:103E3000006FA8BF4FF4006018600A4B43F82600DB
:103E40000120BDE8F88300BFF48BFF1FD48BFF1F58
:103E500000003040588CFF1FE094FF1F4C97FF1F5D
:103E60001894FF1F0095FF1F2DE9D8411428044620
:103E70000E461F46069A01D0022817D1002A12DCEE
:103E8000002E53DD384600210DF090F8002851D067
:103E900038460DF095F801462046FDF77FF864237B
:103EA000704390FBF3F2244800212EE0A0F10B03B5
:103EB000012B0BD9A0F10F08B8F1010F8CBF4FF007
:103EC00000084FF00108B8F1000F16D0002A11DCED
:103ED000002E2BDD384600210DF068F850B338462F
:103EE0000DF06EF801462046FDF758F86423704344
:103EF00090FBF3F21048032107E020F004040A2CA1
:103F000014D1002A03DD0C48022192B209E00029F5
:103F10000FDD384600210DF049F858B1064802215E
:103F2000424606F0C1FC0120BDE8D8810020BDE872
:103F3000D8814046BDE8D8817897FF1F10B5074C5F
:103F40000520214609F040F82146032009F03CF8FD
:103F500019200349BDE8104009F036B8001B374866
:103F6000D723F4432DE9F74F07460E4691469A466C
:103F70004C014FF480750820002109F09DF81CB118
:103F80002346013B7FF4FDAF0820012109F094F89E
:103F90001CB12346013B7FF4FDAF013DEBD108206E
:103FA000294609F089F81CB12346013B7FF4FDAF97
:103FB0000820012109F080F80720002109F07CF891
:103FC0001CB12346013B7FF4FDAF0820002109F01E
:103FD00073F81CB12346013B7FF4FDAF082001219B
:103FE00009F06AF80720012109F066F81CB12346A0
:103FF000013B7FF4FDAF4FF47A735F43F30097FB0F
:10400000F3F70025BD424FF008004FF0000147DAFA
:1040100009F052F81CB12346013B7FF4FDAF0820A4
:10402000012109F049F81CB12346013B7FF4FDAFA3
:104030000820002109F040F81CB12346013B7FF421
:10404000FDAF0820012109F037F81CB12346013BE0
:104050007FF4FDAF0820002109F02EF81CB12346A3
:10406000013B7FF4FDAF0820012109F025F81CB1C8
:104070002346013B7FF4FDAF0820002109F01CF826
:104080001CB12346013B7FF4FDAF0820012109F05C
:1040900013F81CB12346013B7FF4FDAF0135B1E7B6
:1040A00009F00AF81CB12346013B7FF4FDAF08205C
:1040B000012109F001F80720002108F0FDFF1CB1E3
:1040C0002346013B7FF4FDAF0820002108F0F4FFF8
:1040D0001CB12346013B7FF4FDAF0820012108F00D
:1040E000EBFF0720012108F0E7FF1CB12346013B4D
:1040F0007FF4FDAF494D0023C9EB060B2B604FEA5F
:104100004B1B4FF480780820002108F0D5FF1CB12C
:104110002346013B7FF4FDAF0820012108F0CCFFCE
:104120001CB12346013B7FF4FDAF0820002108F0BD
:10413000C3FF3B4FBAF1000F11D12B68019322202E
:1041400009F084FA019B374A27F813002B6852F8CC
:10415000231037F81300014442F8231008E022200E
:1041600009F074FA2B6837F81320104427F813006D
:104170002B684E4503F101032B6006DDBBF1000FF8
:1041800003D05B46013B7FF4FDAF0820012108F01E
:1041900093FF1CB12346013B7FF4FDAF08200021B3
:1041A00008F08AFF1CB12346013B7FF4FDAF0820D5
:1041B000012108F081FF1CB12346013B7FF4FDAFD4
:1041C0000820002108F078FF1CB12346013B7FF452
:1041D000FDAF0820012108F06FFF1CB12346013B11
:1041E0007FF4FDAFB8F101088DD14FF48075082040
:1041F000002108F061FF1CB12346013B7FF4FDAFB5
:104200000820012108F058FF1CB12346013B7FF430
:10421000FDAF013DEBD103B0BDE8F08F648CFF1F13
:10422000E897FF1FDC8CFF1F38B515491548164D60
:10423000FCF7AEF915481249FCF7AAF90024698881
:104240001048FCF7A9F9114835F8021FFCF7A4F94A
:10425000FF2C07D02C210B48FCF795F90B482C219B
:10426000FCF791F90134B4F5807FE8D1084905489D
:10427000FCF7A7F906490548FCF7A3F938BD00BFCC
:10428000F0360100FC9EFF1FE697FF1F209FFF1FD7
:10429000D93F010070B505460E460024601909F0AB
:1042A0009DFA30550134042CF8D1204670BD70B50C
:1042B00006460D460024A019295D013409F0A2FA32
:1042C000042CF8D1204670BD73B505460191164601
:1042D000002428460CF05AFC074B0146E0580CF02D
:1042E0003DFE18B1A01901A9FFF7E1FF0434682CC5
:1042F000EFD102B070BD00BF7489FF1F73B50546D2
:1043000001911646002428460CF040FC074B01465C
:10431000E0580CF023FE18B1A01901A9FFF7C7FF60
:104320000434682CEFD102B070BD00BF7489FF1F48
:1043300070B505460E460024601909F04FFA305555
:104340000134082CF8D1204670BDFFFFFFFFFFFFAE
:104350002DE9F041684E6949694D86B007466948C4
:10436000FCF716F930680BF0D1FF022402460B4629
:1043700000946448FCF716F963496248FCF721F998
:104380004FF0030861495F48FCF702F958A3D3E9ED
:104390000023CDF800805B48FCF704F95A495948DE
:1043A000FCF70FF95A495748FCF7F2F828680BF068
:1043B000ADFF009402460B465248FCF7F3F8524911
:1043C0005048FCF7FEF84D495248FCF7E1F83068D8
:1043D0000BF09CFF009402460B464E48FCF7E2F8B7
:1043E00049494C48FCF7EDF848494A48FCF7D0F8F1
:1043F0003FA3D3E90023CDF800804648FCF7D2F86C
:1044000041494448FCF7DDF841494248FCF7C0F80F
:1044100028680BF07BFF009402460B463D48FCF7F2
:10442000C1F839493B48FCF7CCF83B494FF4B4603C
:10443000FFF77EFF394902A809F0D0FF02A83649EC
:1044400001222346FCF7F4FD02A809F087FF012FA3
:1044500045D14EF66020FCF745FD0CF08DFA30603A
:104460000BF054FF009402460B462648FCF7BDF8BB
:1044700030680BF04BFF009402460B462548FCF7D2
:10448000B4F8306826490CF069FD40BB31460C2079
:10449000FFF70DFF4EF66020FCF724FD0CF06CFAE0
:1044A00028600BF033FF009402460B461548FCF7DA
:1044B0009CF828680BF02AFF009402460B4615482A
:1044C000FCF793F8286816490CF048FD044630B90B
:1044D00014202946FFF7EBFE2046FFF739FF0120A5
:1044E00008F036FF06B0BDE8F08100BFAFF30080F2
:1044F00000000000560EDD3FDC97FF1FFD36010077
:10450000F094FF1FFC9EFF1F3D3E01000B37010092
:104510001F370100209FFF1F6C89FF1F33370100E9
:10452000000080BFAFF3008070B506460D46002442
:10453000A019295D09F066F9013441F210539C423B
:10454000F6D1204670BD00B5ADF5A85D85B010B9B7
:10455000FBF7F6FF09E00021684641F210520CF02B
:10456000D7FD3C206946FFF7DFFF0DF5A85D05B0DC
:104570005DF804FB70B505460E460024601909F08D
:104580002DF930550134682CF8D1204670BD70B536
:1045900005460E460024601909F020F93055013413
:1045A0000C2CF8D1204670BD1FB50446CC49002024
:1045B000FFF770FECB490420FFF76CFECA490820C4
:1045C000FFF768FEC9490C20FFF764FEC8491420B4
:1045D000FFF760FEC7491820FFF75CFEC6491C20A4
:1045E000FFF758FEC5492020FFF754FEC449242098
:1045F000FFF750FEC3492820FFF79AFEC2493C202E
:10460000FFF7B8FFC149B420FFF7B4FFC0494FF42A
:104610009670FFF7AFFFBF494FF4D270FFF7AAFFC4
:10462000BD494FF40770FFF7A5FFBC494FF4257053
:10463000FFF7A0FFBA494FF45C70FFF79BFFB94941
:104640004FF47A70FFF796FFB7494FF48C60FFF78D
:1046500091FFB6494FF49B60FFF78CFFB4494FF4CC
:10466000AA60FFF765FEB3494FF4AB60FFF760FE49
:10467000B1494FF4AC60FFF75BFEB0494FF4AD6059
:10468000FFF756FEAE494FF4AE60FFF751FEAD495D
:104690004FF4AF60FFF74CFEAB494FF4B060FFF74B
:1046A00047FEAA494FF4B160FFF742FEA8494FF414
:1046B000B260FFF73DFEA7494FF4B360FFF738FE45
:1046C000A5494FF4B460FFF733FEA4494FF4B56039
:1046D000FFF72EFEA2494FF4B660FFF729FEA1496D
:1046E0004FF4B760FFF724FE9F494FF4DC60FFF7FB
:1046F0001FFE9E494FF4B860FFF71AFE9C494FF425
:10470000B960FFF715FE9B494FF4BA60FFF710FE42
:1047100099494FF4BB60FFF70BFE98494FF4BC601A
:10472000FFF706FE96494FF4BD60FFF701FE95497D
:104730004FF4BE60FFF7FCFD93494FF4BF60FFF7F5
:10474000F7FD92494FF4C060FFF7F2FD90494FF436
:10475000C160FFF7EDFD8F494FF4C260FFF7E8FD40
:104760008D494FF4C360FFF7E3FD8C494FF4C460FB
:10477000FFF7DEFD8A494FF4C560FFF7D9FD89498F
:104780004FF4C660FFF7D4FD87494FF4C760FFF7C9
:10479000CFFD86494FF4C860FFF7CAFD84494FF446
:1047A000C960FFF7C5FD83494FF4CA60FFF7C0FD3C
:1047B00081494FF4CB60FFF7BBFD80494FF4CC60DB
:1047C000FFF7B6FD7E494FF4CD60FFF7B1FD7D499F
:1047D0004FF4CE60FFF7ACFD7B494FF4CF60FFF79D
:1047E000A7FD7A494FF4D060FFF7A2FD78494FF456
:1047F000D160FFF79DFD77494FF4D260FFF798FD38
:1048000075494FF4D360FFF793FD74494FF4D460BA
:10481000FFF78EFD72494FF4D560FFF789FD7149AE
:104820004FF4D660FFF784FD6F494FF4D760FFF770
:10483000AEFE6E4940F2C460FFF7A9FE6C494FF42A
:10484000DA60FFF7A4FE6B4940F2DC60FFF79FFEE1
:104850004FF4DD606849FFF79AFE012C40F0C384F5
:1048600066496748FBF794FE64496648FBF790FE8B
:104870002046FCF7EBFC624809F01AFB614809F09E
:1048800017FB2046FCF724FA5F49684609F0A6FDAD
:1048900000225E496846FCF743FC684609F05EFD6D
:1048A0005B49684609F09AFD002217496846FCF703
:1048B00037FC684609F052FD5649684609F08EFDFE
:1048C000002212496846FCF72BFC684609F046FDB9
:1048D0005149684609F082FD00220D4968469DE075
:1048E000EC89FF1F6889FF1FF492FF1FDC97FF1FF1
:1048F000F094FF1F688CFF1FE494FF1F6C8CFF1F58
:10490000E894FF1F2C97FF1FB093FF1F7894FF1FA1
:10491000688BFF1FA496FF1F748CFF1FDC90FF1F86
:104920004C91FF1FBC91FF1F2492FF1F8C92FF1F11
:104930003497FF1F4097FF1F5094FF1F5894FF1F8D
:104940006094FF1FD88BFF1FE08BFF1FE88BFF1FBA
:104950007094FF1FF892FF1F6C89FF1F0093FF1FC9
:104960000893FF1F1093FF1F1893FF1F2093FF1F33
:104970002893FF1F3093FF1F3893FF1F4093FF1FA3
:104980003094FF1F3894FF1F4094FF1F4894FF1F6F
:104990009096FF1F9C96FF1F0C97FF1F1497FF1FF9
:1049A0001C97FF1F6894FF1F6097FF1F6897FF1FEA
:1049B0007097FF1FB491FF1FAC97FF1FB497FF1FA5
:1049C000BC97FF1FC497FF1FCC97FF1FD497FF1FF3
:1049D0002497FF1F048CFF1F0C8CFF1F148CFF1FDC
:1049E0001C8CFF1F248CFF1F2C8CFF1F388CFF1F7B
:1049F000448CFF1F5497FF1F5C93FF1FA9300100D9
:104A0000FC9EFF1F209FFF1F3E3701007489FF1F80
:104A100047370100593701006A370100FCF780FB76
:104A2000684609F09BFCB649684609F0D7FC0022AD
:104A3000B4496846FCF774FB684609F08FFCB2493C
:104A4000684609F0CBFC0022B0496846FCF768FBD9
:104A5000684609F083FCAE49684609F0BFFC0022B5
:104A6000AC496846FCF75CFB684609F077FCAA494C
:104A7000684609F0B3FC0022A8496846FCF750FBE1
:104A8000684609F06BFCA649684609F0A7FC0022BD
:104A9000A4496846FCF744FB684609F05FFCA2495C
:104AA000684609F09BFC0022A0496846FCF738FBE9
:104AB000684609F053FC9E49684609F08FFC0022C5
:104AC0009C496846FCF72CFB684609F047FC9A496C
:104AD000684609F083FC0022022398496846FCF7E7
:104AE000A7FA684609F03AFC9549684609F076FC51
:104AF0000022022393496846FCF79AFA684609F0B7
:104B00002DFC9149684609F069FC002202238F4977
:104B10006846FCF78DFA684609F020FC8C49684627
:104B200009F05CFC002202238A496846FCF780FAFF
:104B3000684609F013FC8849684609F04FFC0022DA
:104B4000022386496846FCF773FA684609F006FCBA
:104B50008349684609F042FC0022022381496846E5
:104B6000FCF766FA684609F0F9FB7F49684609F0E8
:104B700035FC002202237D496846FCF759FA684655
:104B800009F0ECFB7A49684609F028FC0022022370
:104B900078496846FCF74CFA684609F0DFFB76492D
:104BA000684609F01BFC0022022374496846FCF7A2
:104BB0003FFA684609F0D2FB7149684609F00EFCDD
:104BC000002202236F496846FCF732FA684609F072
:104BD000C5FB6D49684609F001FC002202236B49C0
:104BE0006846FCF725FA684609F0B8FB684968464C
:104BF00009F0F4FB0022022366496846FCF718FA24
:104C0000684609F0ABFB6449684609F0E7FB0022FF
:104C1000022362496846FCF70BFA684609F09EFBDE
:104C20005F49684609F0DAFB002202235D496846C5
:104C3000FCF7FEF9684609F091FB5B49684609F00C
:104C4000CDFB0022022359496846FCF7F1F968467A
:104C500009F084FB5649684609F0C0FB0022022394
:104C600054496846FCF7E4F9684609F077FB524975
:104C7000684609F0B3FB0022022350496846FCF75E
:104C8000D7F9684609F06AFB4D49684609F0A6FB6A
:104C9000002202234B496846FCF7CAF9684609F02E
:104CA0005DFB4949684609F099FB00220223474908
:104CB0006846FCF7BDF9684609F050FB4449684670
:104CC00009F08CFB0022022342496846FCF7B0F948
:104CD000684609F043FB4049684609F07FFB002223
:104CE00002233E496846FCF7A3F9684609F036FB03
:104CF0003B49684609F072FB0022022372E000BFC4
:104D000084370100A496FF1F9D370100748CFF1F9C
:104D1000B8370100DC90FF1FD23701004C91FF1F14
:104D2000E5370100BC91FF1FF83701002492FF1FF7
:104D30000B3801008C92FF1FAB3A01002C97FF1F2C
:104D4000B83A01003497FF1FC53A01004097FF1F92
:104D5000D23A01005094FF1FDF3A01005894FF1F20
:104D6000EC3A01006094FF1FF93A0100D88BFF1F55
:104D7000063B0100E08BFF1F133B0100E88BFF1F88
:104D8000203B01007094FF1F2D3B0100F892FF1F94
:104D90003B3B01000093FF1F493B01000893FF1FAD
:104DA000573B01001093FF1F653B01001893FF1F45
:104DB000733B01002093FF1F813B01002893FF1FDD
:104DC0008F3B01003093FF1F9D3B01003893FF1F75
:104DD000AB3B01004093FF1FB93B01003094FF1F24
:104DE000C73B0100B7496846FCF722F9684609F05D
:104DF000B5FAB549684609F0F1FA00220223B34931
:104E00006846FCF715F9684609F0A8FAB049684603
:104E100009F0E4FA00220223AE496846FCF708F9DB
:104E2000684609F09BFAAC49684609F0D7FA0022B7
:104E30000223AA496846FCF7FBF8684609F08EFA97
:104E4000A749684609F0CAFA00220223A549684624
:104E5000FCF7EEF8684609F081FAA349684609F0C4
:104E6000BDFA00220223A1496846FCF7E1F8684632
:104E700009F074FA9E49684609F0B0FA002202234C
:104E80009C496846FCF7D4F8684609F067FA9A49E5
:104E9000684609F0A3FA0022022398496846FCF705
:104EA000C7F8684609F05AFA9549684609F096FA33
:104EB0000022022393496846FCF7BAF8684609F0D5
:104EC0004DFA9149684609F089FA002202238F4978
:104ED0006846FCF7ADF8684609F040FA8C49684628
:104EE00009F07CFA002202238A496846FCF7A0F800
:104EF000684609F033FA8849684609F06FFA0022DB
:104F0000022386496846FCF793F8684609F026FABA
:104F10008349684609F062FA002202238149684603
:104F2000FCF786F8684609F019FA7F49684609F0E7
:104F300055FA002202237D496846FCF779F8684655
:104F400009F00CFA7A49684609F048FA002202236F
:104F500078496846FCF76CF8684609F0FFF976492D
:104F6000684609F03BFA0022022374496846FCF7C0
:104F70005FF8684609F0F2F97149684609F02EFABF
:104F8000002202236F496846FCF752F8684609F090
:104F9000E5F96D49684609F021FA002202236B49C0
:104FA0006846FCF745F8684609F0D8F9684968464C
:104FB00009F014FA0022022366496846FCF738F823
:104FC000684609F0CBF96449684609F007FA0022FF
:104FD000022362496846FCF72BF8684609F0BEF9DF
:104FE0005F49684609F0FAF9002202235D496846E4
:104FF000FCF71EF8684609F0B1F95B49684609F00C
:10500000EDF90022022359496846FCF711F8684679
:1050100009F0A4F95649684609F0E0F90022022394
:1050200054496846FCF704F8684609F097F9524974
:10503000684609F0D3F90022022350496846FBF77D
:10504000F7FF684609F08AF94D49684609F0C6F944
:10505000002202234B496846FBF7EAFF684609F045
:105060007DF94949684609F0B9F900220323474907
:105070006846FBF7DDFF684609F070F94449684669
:1050800009F0ACF90022032342496846FBF7D0FF40
:10509000684609F063F94049684609F09FF9002223
:1050A00003233E496846FBF7C3FF684609F056F9FB
:1050B0003B49684609F092F90022032339496846C2
:1050C00072E000BF3894FF1FD53B01004094FF1FE2
:1050D000E33B01004894FF1FF13B01009096FF1F46
:1050E000FF3B01009C96FF1F0D3C01000C97FF1F2A
:1050F0001B3C01001497FF1F293C01001C97FF1F58
:10510000373C01006894FF1F453C01006097FF1F7A
:10511000533C01006897FF1F613C01007097FF1F1F
:105120006F3C0100B491FF1F7D3C0100AC97FF1F55
:105130008B3C0100B497FF1F993C0100BC97FF1FF7
:10514000A73C0100C497FF1FB53C0100CC97FF1F8F
:10515000C33C0100D497FF1FD13C01002497FF1FDF
:10516000DF3C0100048CFF1FED3C01000C8CFF1F95
:10517000FB3C0100148CFF1F093D01001C8CFF1F2C
:10518000173D0100248CFF1F253D01002C8CFF1FC3
:10519000333D0100388CFF1F413D0100448CFF1F4F
:1051A0004F3D01005497FF1FFBF742FF684609F08F
:1051B000D5F80E49684609F011F9002203230C497D
:1051C0006846FBF735FF684609F0C8F809496846A4
:1051D00009F004F96846084922460223FBF728FF34
:1051E000684609F0BBF804B010BD00BF5D3D01008A
:1051F0005C93FF1F333701006C89FF1F2DE9F04FCF
:10520000B84BB94FB94D04221A6085B0064600214B
:1052100040F6FF72B64805F047FB8024012140F6B6
:10522000FF72B34805F040FB022140F6FF723C607C
:10523000AF4805F039FB032140F6FF72AC4805F09A
:1052400033FB2C60FEF767F9622EA8462BD10020B5
:10525000FFF7AAF94EF66020FBF744FE0022A54BAB
:1052600004460D460BF00EFB8146B8B9FEF753F924
:10527000294620460BF060FB494682B29C4805F067
:1052800013FB00232046294600220BF0FBFA2023C3
:1052900010B9C8F80030DDE73B60DBE7FEF73BF90B
:1052A00020233B602DE0632E2BD10020FFF77CF9FB
:1052B0004EF66020FBF716FE0BF016FB8E49834678
:1052C0008E48FBF765F98C498D48FBF761F90021A1
:1052D0000A46874805F0E8FA85480321002205F0D0
:1052E000E3FA4FF0000907F0FDFB0228854C5FFA56
:1052F0008BF500F31E8207F079FA022840F3218231
:1053000017E24FF00009FEF706F9642E01D1FEF70F
:1053100013F9FEF700F9652E3AD17B497748FBF780
:1053200037F977487849FBF733F907F0DBFB0228B8
:1053300000F3628107F05AFA022800F35D81012030
:10534000FBF724FC0BF022FCFBF71AFE81460AF067
:10535000DDFF4FF0020A04460D460B462246CDF80B
:1053600000A06648FBF71EF922462B46CDF800A0A8
:105370006348FBF717F965496048FBF709F963498A
:105380005F48FBF705F94FF4FA6007F0E1FFCCE75F
:10539000662E37D15E495948FBF7FAF858485C4900
:1053A000FBF7F6F807F09EFB022800F3258107F0D3
:1053B0001DFA022800F32081FDF720FF0BF0E2FB2D
:1053C00081460AF0A3FF4FF0020A044622460B462C
:1053D000CDF800A049480D46FBF7E4F84B49474893
:1053E000FBF7D6F822462B46CDF800A04448FBF741
:1053F000D9F846494248FBF7CBF84FF4FA6007F07A
:10540000A7FFCFE7672E35D142493C48FBF7C0F8EC
:105410003B484049FBF7BCF807F064FB022800F367
:10542000EB8007F0E3F9022800F3E680FBF76CF865
:1054300081460AF06BFF4FF0020A044622460B46F3
:10544000CDF800A02D480D46FBF7ACF82F492B48AE
:10545000FBF79EF822462B46CDF800A02848FBF724
:10546000A1F82A492648FBF793F84FF4FA6007F0B1
:105470006FFFD1E7682E51D127492048FBF788F804
:105480001F482549FBF784F807F02CFB022800F39E
:10549000B38007F0ABF9022800F3AE80FBF718F8F1
:1054A00081460AF033FF4FF0020A044622460B46BB
:1054B000CDF800A011480D46FBF774F813490F48CA
:1054C000FBF766F822462B46CDF800A00C48FBF708
:1054D00069F80E490A48FBF75BF84FF4FA6007F0E9
:1054E00037FFD1E788F00F40C8F00F40C4F00F40FD
:1054F0007897FF1F0000F0BF1E380100FC9EFF1FC1
:10550000209FFF1F604101002E3801003D3E010039
:10551000433801005238010063380100692E36D14A
:1055200098499948FBF734F898489649FBF730F8C2
:1055300007F0D8FA02285FDC07F058F902285BDC94
:105540000020FBF723FB0BF021FB81460AF0DEFE77
:105550004FF0020A04460D460B462246CDF800A045
:105560008948FBF71FF822462B46CDF800A0874854
:10557000FBF718F886498448FBF70AF88449834802
:10558000FBF706F84FF4FA6007F0E2FED0E76A2E68
:1055900034D180497D48FAF7FBFF7B487D49FAF713
:1055A000F7FF07F09FFA022826DC07F01FF9022810
:1055B00022DCFDF751FF81460AF0A8FE4FF0020AF7
:1055C00004460D460B462246CDF800A06E48FAF779
:1055D000E9FF22462B46CDF800A06C48FAF7E2FF1F
:1055E0006B496948FAF7D4FF69496848FAF7D0FF70
:1055F000C82007F0ADFED4E7FDF78DFF731E202B0A
:105600003ED865496148FAF7C3FF5F486249FAF737
:10561000BFFF4EF66020FBF765FC0BF065F9421CFE
:1056200007465E4D24D0BCB2FDF775FF002122462F
:105630005B4805F039F901212246594805F034F953
:1056400002212246564805F02FF9224654480321EC
:1056500005F02AF955F83620012382F8803055F8F4
:10566000362017B182F88030D3E782F80031D0E7D6
:10567000FDF751FF55F83630012283F8002132E062
:10568000A6F12203032B2ED83F4808F011FC3F4817
:1056900008F00EFC4EF66020FBF724FC0BF024F91A
:1056A000431C1ED0102340013B6002D001387FF420
:1056B000FDAFF0B207F0CAFF10230446C8F800306F
:1056C00021463148FAF768FF21463048FAF764FF6F
:1056D0002F492D48FAF75CFF2D492C48FAF758FF5F
:1056E000D2E7FDF718FF2F4B04221A6048460AF054
:1056F0000DFE022604460D460B4622460096224821
:10570000FAF750FF22462B4600962048FAF74AFF48
:1057100025491D48FAF755FF23491C48FAF751FF60
:10572000194808F0C5FB194805B0BDE8F04F08F06E
:10573000BFBBFDF7F0FE54F83530012283F800219D
:10574000E1E554F83520012382F8803000200393EE
:10575000FBF71CFA0BF01AFAFBF712FC81460BF070
:105760002FFC01465846FBF719FC002182464846AB
:105770000BF0F4FB039B0146C0B154F8352082F8CE
:1057800000311EE07A380100FC9EFF1F209FFF1FA2
:105790003D3E010093380100B03801006041010036
:1057A0007897FF1F84F00F40CF2F01001FFA8AF473
:1057B00022461C4805F078F81A480321224605F0D5
:1057C00073F848460AF0A2FD04460D4602210091F6
:1057D00022462B4614480391FAF7E4FE0399009100
:1057E00022462B461148FAF7DDFE11490E48FAF71A
:1057F000CFFE0F490D48FAF7CBFE51460A48FAF79B
:10580000CBFE51460948FAF7C7FE09490648FAF7A0
:10581000D8FE07490548FAF7D4FE4FF47A7007F02E
:1058200097FD60E57897FF1FFC9EFF1F209FFF1FDD
:105830003D3E01002DE9F34780460120FEF7B4FE0E
:105840004EF66020FBF74EFB0BF04EF80646314655
:105850002B48FAF7C0FE2B483146FAF7BCFE731C02
:1058600047D04EF66020FBF73DFB0BF085F88146F4
:105870000AF04CFD062704460D460B4622460097CB
:105880001F48FAF7B2FE00971E4822462B46FAF749
:10589000ACFE48461C490BF061FB50BB4EF6602045
:1058A000FBF720FB0BF068F882460AF02FFD044658
:1058B0000D460B46224600971148FAF796FE0097D0
:1058C000104822462B46FAF790FE50460E490BF040
:1058D00045FB70B9304649464246FEF7F5FC304676
:1058E000514608F17802FEF709FD012007F030FD6E
:1058F000A6E7012002B0BDE8F047FEF755BE00BFA5
:10590000FC9EFF1F209FFF1F000080BF2DE9F0437A
:10591000012B85B007460C46154601D000265CE0F9
:105920001846FEF741FE0026A64264DA4EF66020D5
:10593000FBF7D8FA0BF020F803900AF0E7FC4FF0E1
:1059400006080DF1100902460B46CDF800802D48DF
:10595000FAF728FE59F8040D0AF0D8FCCDF80080BB
:1059600002460B462848FAF71DFE38464946FEF720
:105970009EFC01362F44D7E74EF66020FBF7B2FAC3
:105980000AF0FAFF002180460BF010FB40BB4046B6
:1059900000210BF0EDFA58BBCDF80C8003980AF00B
:1059A000B5FC4FF006080DF1100902460B46CDF884
:1059B00000801448FAF7F6FD59F8040D0AF0A6FC29
:1059C000CDF8008002460B460F48FAF7EBFD38464B
:1059D0004946FEF76CFC01362F44A642CCDB0DE0B5
:1059E00040460A490BF0C4FA0028D0D0084B00E02A
:1059F000084B0393D2E70120FEF7D6FD05B0BDE8C2
:105A0000F08300BFFC9EFF1F209FFF1F00409C45AE
:105A10000060EA4720BCBE4CF7B50120FEF7C4FD8C
:105A20004EF66020FBF75EFA0AF0A6FF3B4F3C4EB5
:105A300038600AF06BFC022402460B4600943046A4
:105A4000FAF7B0FD3868374D0AF060FC0094024662
:105A50000B462846FAF7A6FD39461820FEF727FC24
:105A60004EF66020FBF73EFA0AF086FF2E4F3860B4
:105A70000AF04CFC009402460B463046FAF792FDC1
:105A800038680AF043FC009402460B462846FAF7B1
:105A900089FD39461C20FEF70AFC4EF66020FBF714
:105AA00021FA0AF069FF214F38600AF02FFC0094B8
:105AB00002460B463046FAF775FD38680AF026FCB8
:105AC000009402460B462846FAF76CFD3946202022
:105AD000FEF7EDFB4EF66020FBF704FA0AF04CFFF0
