:1000000000800020BD010000C19C0000C19C0000D8
:10001000C19C0000C19C0000C19C00008D9C0000A0
:100020008D9C00008D9C00008D9C0000C19C0000F8
:10003000C19C00008D9C0000C19C00007D9C0000C4
:10004000C19C0000C19C0000C19C0000C19C00003C
:10005000C19C0000C19C0000C19C0000C19C00002C
:10006000C19C0000C19C0000C19C0000C19C00001C
:10007000C19C0000C19C0000C19C0000C19C00000C
:10008000C19C0000C19C0000C19C0000C19C0000FC
:10009000C19C00004D860000C19C0000C19C000076
:1000A0006D770000C19C0000C19C0000C19C000055
:1000B000C19C0000C19C0000C19C0000C19C0000CC
:1000C000C19C0000C19C0000C19C0000C19C0000BC
:1000D000C19C0000C19C0000C19C0000C19C0000AC
:1000E000C19C0000C19C0000C19C0000C19C00009C
:1000F000C19C0000BD920000C19C000071B50000D1
:10010000C19C0000258E0000C19C0000C19C000025
:10011000C19C0000C19C0000C19C0000C19C00006B
:10012000C19C0000C19C0000C19C0000C19C00005B
:10013000C19C0000C19C0000C19C0000C19C00004B
:10014000C19C0000C19C0000C19C0000C19C00003B
:1001500099AC0000B1AC0000C9AC0000E1AC0000FB
:10016000C19C000039950000C19C0000C19C0000AA
:10017000C19C0000C19C0000C19C0000C19C00000B
:10018000C19C0000C19C0000C19C0000C19C0000FB
:10019000C19C0000C19C0000C19C0000A59E000005
:1001A000F59E00007D9F000039A00000BDA000006A
:1001B000C19C0000C19C0000C19C0000544B4CF24B
:1001C000205210B51A804DF628121A8000BF00BFC9
:1001D00008F080FA4F4B4FF010621A604E4A9A6056
:1001E0004E4ADA604E4B1A6812F4807204D14D49BF
:1001F0000A604FF4A8521A604B4B1A7802F00802BA
:10020000D2B21AB11A7842F008021A70474B484825
:10021000484C2A221A700023474A02E01959995083
:10022000043399188142F9D3444B454A002101E037
:1002300043F8041B9342FBD34249434800231A5816
:100240005A500433B3F5DE7FF9D1404B404A802148
:1002500003F8011B9342FBD13A4A3E4B1A603E4BD6
:100260000A221A703D4B24221A70A02203F8012C96
:100270003B4A137803F00203DBB2002BF9D0384A73
:10028000137803F01003DBB2002BF9D1344A137852
:1002900003F00C03082BFAD1324B03221A704022D0
:1002A0005A702F4A137803F02003DBB2002BF9D0E9
:1002B0002B4A137803F04003DBB2002BF9D02A4B12
:1002C0002A4A1A6002225A60294B20221A70244AB4
:1002D000137803F00C030C2BFAD1264A264B1A6034
:1002E000264B274A1A60072243F8042C62B60AF00C
:1002F000C7F80C4B1B68DC0702D5224809F0F6FE54
:100300000CF04AFB09F0DFFC0AF016FBFEE700BF29
:100310000E20054030800440823F04000100002B85
:1003200010D0034014D0034002D0074000E0074043
:100330005890FF1F5C1401006089FF1F5890FF1F39
:10034000009DFF1F0084FF1F0000000000E400E08C
:100350005FE400E008ED00E0005006400140064088
:10036000064006400440064044800440000003016B
:1003700000400640C01005000480044014E000E086
:10038000FF7601008C163A55FFFFFFFFFFFFFFFFCE
:10039000FFFFFFFFFFFFFFFFFFFFFFFFFFFFFFFF6D
:1003A000FFFFFFFFFFFFFFFFFFFFFFFFFFFFFFFF5D
:1003B000FFFFFFFFFFFFFFFFFFFFFFFFFFFFFFFF4D
:1003C000FFFFFFFFFFFFFFFFFFFFFFFFFFFFFFFF3D
:1003D000FFFFFFFFFFFFFFFFFFFFFFFFFFFFFFFF2D
:1003E000FFFFFFFFFFFFFFFFFFFFFFFFFFFFFFFF1D
:1003F000FFFFFFFFFFFFFFFFFFFFFFFFFFFFFFFF0D
:10040000FFFFFFFFFFFFFFFFFFFFFFFFFEFFFFFFFD
:1004100008B549F25800074BC1F6FF701B1A062BAE
:1004200000D808BD40F20003C0F20003002BF8D052
:100430009847F6E75B90FF1F08B549F2580049F26C
:100440005803C1F6FF70C1F6FF731B1A9B1003EB34
:10045000D373591000D108BD40F20002C0F200026F
:10046000002AF8D09047F6E710B549F25804C1F6D3
:10047000FF74237873B9FFF7CBFF40F20003C0F29B
:1004800000032BB141F25C40C0F20100AFF30080E9
:100490000123237010BD00BF08B540F20003C0F275
:1004A00000034BB141F25C4049F25C01C0F2010033
:1004B000C1F6FF71AFF3008049F25800C1F6FF703A
:1004C00003682BB140F20003C0F2000303B1984768
:1004D000BDE80840B0E700BF024B4FF400121A60BD
:1004E000704700BF80E100E010B504460AF092FCBE
:1004F000204610BD70B503460D46164607481946FE
:100500002A4607F0AFFB002404E0044807F012F885
:1005100030550134E3B2AB42F7D370BD0896FF1FEC
:10052000034670B509480D4619461646002407F0E3
:100530009BFA03E0315D06F0BBFF0134E3B2AB424E
:100540000248F7D3BDE8704007F0A3BB0896FF1F31
:10055000064B10221A60064B1A78064B53F83220CD
:10056000012382F88030044A13607047C8F00F40BE
:10057000F893FF1FE80E01006091FF1F054B1A78EA
:10058000054B53F83220012382F80031034A1360EF
:10059000704700BFF893FF1FE80E0100B894FF1FDB
:1005A00038B50A480A4D06F00BFC0A4B0446186899
:1005B0000BF036FF014620460CF03AF80146286859
:1005C0000BF07AFE2860204638BD00BFCC94FF1F98
:1005D0004892FF1F7889FF1F38B50A480A4D06F078
:1005E0008BFB0A4B044618680BF01AFF01462046A5
:1005F0000CF01EF8014628680BF05EFE28602046CD
:1006000038BD00BFCC94FF1F2494FF1F7889FF1FC3
:1006100030B5ADF5B05D81B0684600214FF4B05201
:100620000CF0E2FD00246D4621462A5D05480134A8
:1006300006F0F5FAB4F5B05FF6D10DF5017D0DF5D4
:10064000A05D30BDFC95FF1F38B5044608460D4639
:1006500008F03EFC236802465B682046294698471E
:1006600038BD08B5FFF7F0FF08BD0AF02BBD9DF8B7
:10067000001000910AF030BD38B504460AF0BAFC0B
:10068000054620460AF0D8FC401938BD38B5044666
:10069000FFF7DAFF054620460AF0CEFC281838BDE1
:1006A00038B504460AF00EFD054620460AF0C4FCA3
:1006B000281838BD37B59DF81810009104460AF087
:1006C0000BFD054620460AF0B7FC28183EBD4068E1
:1006D00000B1C0687047FFFF0D4B70B540241C602F
:1006E000322009F0B7FE0B4B0B4D0C4E1C600C4C2E
:1006F00031462846FFF7CAFF31462046FFF7C6FFBE
:1007000028460AF099FC2046BDE870400AF094BCE7
:10071000C4F00F40C8F00F40249BFF1FA40201004B
:10072000E89AFF1F10B517491748184CFFF799FFB3
:1007300017481449FFF795FF236863B91549124814
:10074000FFF7A4FF12481349FFF7A0FF124B022244
:100750001A6001230DE0012B0CD110490A48FFF764
:1007600095FF0B480D49FFF791FF0D4B02221A60D0
:100770000023236004480AF05FFC0548BDE81040F0
:100780000AF05ABCB7020100249BFF1FF095FF1F1F
:10079000E89AFF1FB002010084F00F40CC02010074
:1007A00088F00F402DE9F74F002140F6FF724D48C9
:1007B00006F072FE4C4A0423202413602246013ABC
:1007C000FDD14A4A4A4F1360112009F06BFF494B93
:1007D000494E1C6005460A2009F03CFE112009F034
:1007E00061FF83466E2009F035FE112009F05AFFA3
:1007F000424BDFF818911C60414C82462146384636
:10080000FFF72FFF21463046FFF72BFF28460BF05E
:1008100007FE3C490BF00CFF0BF0C2F94FF0020849
:1008200004460D460B462246CDF800803846FFF7B9
:100830001EFF22462B46CDF800803046FFF717FFFB
:1008400049463846FFF70DFF49463046FFF709FF96
:1008500058460BF0E5FD2B490BF0EAFE0BF0A0F932
:1008600004460D460B462246CDF800803846FFF779
:10087000FEFE22462B46CDF800803046FFF7F7FEFD
:1008800049463846FFF7EDFE49463046FFF7E9FE98
:1008900050460BF0C5FD1B490BF0CAFE0BF080F96A
:1008A00004460B462246CDF8008038460D46FFF739
:1008B000DEFE2246144CCDF800802B463046FFF772
:1008C000D6FE21463846FFF7E1FE21463046FFF7C7
:1008D000DDFE38460AF0B0FB304603B0BDE8F04F0D
:1008E0000AF0AABBB492FF1F88F00F4084F00F40BB
:1008F000249BFF1FC4F00F40E89AFF1FC8F00F4071
:10090000D202010000601345E3020100BF0B0100A9
:100910002DE9F34707460E460AA8002114469846DB
:100920000C9D06F0D4FA002840F3EA807549764819
:10093000FFF797FE294674480AF05CFB734972483A
:10094000FFF78FFE6F497248FFF78BFE294670480C
:100950000AF050FB6D496E48FFF783FE20460021E8
:100960000BF046FF002840F0BA8020460BF018F943
:10097000022704460D460B46224600976248FFF7C1
:1009800076FE0097624822462B46FFF770FE3068DD
:1009900000210BF02DFF002840F0AA805D495A4845
:1009A000FFF75FFE40460BF0FBF8044622460B467D
:1009B000009755480D46FFF75AFE56495448FFF731
:1009C00050FE009722462B465148FFF750FE8FE01D
:1009D00051494D48FFF745FE21460AA806F077FA2F
:1009E000014649480AF06EFB4A494748FFF739FE7D
:1009F00049494748FFF735FE21460AA806F067FA3D
:100A0000014643480AF05EFB41484249FFF729FE90
:100A100000254FE021460AA858F825A006F057FA0D
:100A20000BF0FEFC014650464FEA85090BF0E0FE54
:100A300000283ED057F809000BF0B2F80225024614
:100A40000B4600953048FFF712FE57F809000BF0EF
:100A5000A7F8009502460B462D48FFF708FE3068C0
:100A600000210BF0C5FED8B92A492748FFF7F9FD48
:100A700056F809000BF094F8009502460B46224800
:100A8000FFF7F5FD23492248FFF7EBFD56F8090073
:100A90000BF086F8009502460B461D48FFF7E7FD70
:100AA0001E491948FFF7DDFD1C491948FFF7D9FD1C
:100AB00002E001351A2DADD1012009F0CBFC0AA8C6
:100AC000FFF705FE0138844207D012490E48FFF7B0
:100AD000C8FD0F480F49FFF7C4FD013402E0DFF8FD
:100AE000448000240AA8FFF7F2FD8442FFF670AFAD
:100AF0000B490548FFF7B5FD05480949FFF7B1FD6A
:100B0000BDE8FC87C2060100249BFF1FF302010021
:100B1000E89AFF1FBF0B0100F6020100050D01005E
:100B2000240D01008889FF1F10B52820002109F03D
:100B30007DFB28210A2200230A480AF08BFA094883
:100B40000AF07AFA6424282009F0ACFD0146054831
:100B5000FFF7A6FD4FF4FA6009F07CFC013CF2D1EE
:100B600010BD00BF249BFF1F70B50C2009F0CEFA0A
:100B70002820012109F05AFB40F2DC553BE00446F5
:100B80002146282009F06EFB032009F063FC1A209F
:100B900009F088FD214606461C48FFF766FD1C4902
:100BA0001A48FFF75EFD31461848FFF75EFD013435
:100BB00016481749FFF76AFDAC42E1D121462820CB
:100BC00009F050FB032009F045FC1A2009F06AFDEA
:100BD000214606460D48FFF748FD0D490B48FFF733
:100BE00040FD31460948FFF740FD08480849FFF736
:100BF0004DFD013CE2D107F0DDFE0028BFD007F03B
:100C000093FEBDE8704007F08FBE00BF249BFF1F1E
:100C1000BF0B0100012801D8FFF7C2BC70470128B3
:100C200001D8FFF7D9BC704701282DE9F8438CBFE4
:100C3000002401240CB903283DD1204806F0FAFB1A
:100C400005461E4806F0EFFB80461C4806F0E4FB14
:100C500007461A4806F0D9FB81464CB3184B194E8B
:100C60001C68B5FBF4F00BF0D7FB014630680BF0C5
:100C700023FB3060B8FBF4F00BF0CEFB124E0146C4
:100C800030680BF019FB3060B7FBF4F00BF0C4FBDD
:100C90000E4E014630680BF00FFB3060B9FBF4F0EC
:100CA0000BF0BAFB0A4E014630680BF005FB3060D2
:100CB0002846BDE8F883BDE8F88300BFE893FF1F2E
:100CC0007889FF1FC494FF1FD094FF1F2094FF1F3B
:100CD0003894FF1F2DE9F74F2A4DDFF8B4B0DFF845
:100CE000B4A0294EDFF8B090DFF8B080274C594609
:100CF0002846FFF7B6FCDAF800000AF051FF022799
:100D000002460B4600972846FFF7B1FC31462846BD
:100D1000FFF7A7FC49462846FFF7A3FCD8F80000D8
:100D20000AF03EFF009702460B462846FFF79FFC5D
:100D300059462046FFF795FCDAF800000AF030FF2C
:100D4000009702460B462046FFF791FC31462046AD
:100D5000FFF787FC49462046FFF783FCD8F80000E0
:100D60000AF01EFF009702460B462046FFF77FFC65
:100D700031462846FFF775FC20463146FFF771FCE7
:100D8000BDE8FE8F249BFF1FBF0B0100E89AFF1FE9
:100D900099030100F089FF1FA8030100F495FF1FCC
:100DA0002DE9F0410D46ADF57E7D04462B48DFF878
:100DB000B88016460AF06AF8294629480AF066F80B
:100DC0004FF47A72002104A80CF00EFA204600219C
:100DD00009F0FBFD234B1A680192019D1A680292EB
:100DE000029A1F460DE03B6803930398401B0BF0EB
:100DF00017FBD8F800100BF023FD10B1FFF76CFCC7
:100E000005E007F0D7FD10B908F000FAE8B107F0E7
:100E1000D1FD002805DD07F0AFFD5B2818D00F4895
:100E200008E008F0F3F9002812DD08F015FA5B2855
:100E30000ED00B482B2104AA4FF47A730AF028F83D
:100E4000204604A909F0F9FD02E0012ED9D1CAE734
:100E500020460DF57E7DBDE8F08100BF249BFF1F7D
:100E6000E89AFF1FDC9AFF1FF489FF1FF0B50446C4
:100E700091B0224821460AF009F8214821460AF09B
:100E800005F82022002108A80CF0AEF904A80021E2
:100E900009F09BFD1B4B1A680192019E1A68029291
:100EA000029A1F4607F086FD10B908F0AFF9C0B1ED
:100EB00008F0ACF9002801DD114804E007F07AFDE4
:100EC000002815DD0D4808AA20232B2109F0E0FF9A
:100ED00008A904A809F0B1FD04980BF00BFD054624
:100EE00006E03B680393039B9B1BA342DADDDFE72D
:100EF00004A809F029FD284611B0F0BD249BFF1F6E
:100F0000E89AFF1FDC9AFF1F2DE9F041064690B0DA
:100F10002448314609F0BAFF2348314609F0B6FFAC
:100F20002022002108A80CF05FF904A8002109F094
:100F30004CFD1E4B1A680192019F1A680292029A98
:100F4000984607F037FD10B908F060F9C8B107F00E
:100F500031FD002801DD134804E008F057F90028AE
:100F600017DD114808AA20232B2109F091FF08A9B9
:100F700004A809F062FD04980BF0B8FC04460D4685
:100F800007E0D8F800300393039BDB1BB342D8DDA6
:100F9000DDE704A809F0D8FC2046294610B0BDE8DA
:100FA000F08100BF249BFF1FE89AFF1FDC9AFF1F00
:100FB00008B5064B19680BF07DF9054B19680BF065
:100FC00037FB0BF047FC0BF02BFA08BDF495FF1F25
:100FD000F089FF1F2DE9F041314D06468846002477
:100FE00030460BF01DFA014655F824000BF000FCCA
:100FF000002830D02B4B53F824602B4B53F824702F
:101000002A4B53F824502A4B304653F824100BF047
:1010100051F931460BF00CFB014628460BF054FA0F
:10102000014628460BF048F9224B53F82460224B26
:10103000054653F8241038460BF03CF939460BF0BE
:10104000F7FA014630460BF03FFA014630460BF006
:1010500033F9044604E001341A2CC1D1002425469A
:101060002046002101270BF0C3FB00B10027FFB28F
:1010700047B92846002101260BF0BAFB00B13E46D5
:10108000F0B250B140460BF0CBF921460BF012F90B
:1010900029460BF0CDFA0BF003FCBDE8F08100BF50
:1010A0008889FF1F4094FF1FE090FF1FE892FF1FF9
:1010B0004C92FF1F5093FF1FDC94FF1F73B50D462A
:1010C0000446334933481646FFF7CBFA21463148E8
:1010D00009F090FF30492F48FFF7C3FA2C492F48F9
:1010E000FFF7BFFA21462D4809F084FF2A492B4813
:1010F000FFF7B7FA28680AF053FD022402460B46B0
:1011000000942448FFF7B3FA28680AF049FD0094D8
:1011100002460B462148FFF7AAFA21491D48FFF76E
:10112000A0FA1F491D48FFF79CFA68680AF038FDCD
:10113000009402460B461748FFF799FA68680AF0D0
:101140002FFD009402460B461448FFF790FA15490C
:101150001048FFF786FA11481249FFF782FA012E6C
:101160000C4805D00E49FFF791FA0C480C490CE0E9
:101170000D49FFF78BFA0D490648FFF787FA0A4930
:101180000648FFF783FA05480849FFF77FFA7CBD58
:10119000C2060100249BFF1FB1040100E89AFF1F53
:1011A000BF0B0100050D0100B50201001A05010089
:1011B000F7B504460D462E482E491746FFF751FA5B
:1011C00021462B4809F016FF2B492948FFF749FA19
:1011D00028492A48FFF745FA2146284809F00AFF1E
:1011E00026482549FFF73DFA0024022628680AF020
:1011F000D7FC009602460B461D48FFF738FA55F813
:10120000040B0AF0CDFC009602460B461B48FFF784
:101210002EFA192C07D01A491548FFF722FA174859
:101220001749FFF71EFA01341A2CDFD1154910486F
:10123000FFF717FA11481349FFF713FA012F0C486B
:1012400005D00F49FFF722FA0C480D490CE00E4972
:10125000FFF71CFA0D490648FFF718FA0A49074834
:10126000FFF714FA05480949FFF710FAFEBD00BF61
:10127000249BFF1FC2060100B1040100E89AFF1F72
:10128000BF0B0100050D0100B50201001A050100A8
:1012900010B50BF0C5F80B4B196804460BF014F9A8
:1012A000094B19680BF008F8084B1860084B2046EA
:1012B00019680BF009F9074B19680AF0FDFF064B96
:1012C000186010BD0494FF1F6491FF1FBC94FF1FA2
:1012D0000894FF1F6891FF1FC094FF1F2DE9F7437B
:1012E000054638B953495448FFF7BBF953485149AB
:1012F000FFF7B7F9DFF8689151494F48DFF864818B
:10130000504F514EFFF7ADF9D9F800000AF048FCF4
:10131000022402460B4600944748FFF7A8F94B49C0
:101320004548FFF79EF94A494348FFF79AF9D8F82C
:1013300000000AF035FC009402460B463E48FFF7D9
:1013400096F942493C48FFF78CF942493A48FFF781
:1013500088F938680AF024FC009402460B463648A7
:10136000FFF785F939493448FFF77BF93A493248A4
:10137000FFF777F930680AF013FC009402460B4639
:101380002D48FFF774F92E492C48FFF76AF9D9F870
:1013900000000AF005FC009402460B462748FFF7C0
:1013A00066F92A492548FFF75CF929492348FFF7E0
:1013B00058F9D8F800000AF0F3FB009402460B46F7
:1013C0001E48FFF754F921491C48FFF74AF9214903
:1013D0001A48FFF746F938680AF0E2FB0094024623
:1013E0000B461648FFF743F918491448FFF739F937
:1013F00019491248FFF735F930680AF0D1FB00941B
:1014000002460B460D48FFF732F9012D0A4807D175
:101410000E49FFF726F90D490848FFF722F906E0C3
:101420000E49FFF733F905480C49FFF72FF9BDE8DE
:10143000FE8300BFBD030100249BFF1FE89AFF1F2E
:10144000BF0301000894FF1F6891FF1FBF0B01003D
:10145000CB030100DC030100E8030100B502010039
:101460000494FF1F6491FF1F01282DE9F341884672
:1014700016461D463DD1A64FA649A748FFF7F1F8ED
:1014800038680AF08DFB022402460B460094A248FD
:10149000FFF7EDF8A149A048FFF7E3F878680AF0F4
:1014A0007FFB009402460B469B48FFF7E0F89C49FF
:1014B0009948FFF7D6F897499A48FFF7D2F8386865
:1014C0000AF06EFB009402460B469648FFF7CFF8F1
:1014D00092499448FFF7C5F878680AF061FB0094D8
:1014E00002460B468F48FFF7C2F88E488C49FFF73B
:1014F000B8F8B8F1010F3DD18B4F8C498648FFF702
:10150000B0F838680AF04CFB022402460B460094FF
:101510008148FFF7ACF881497F48FFF7A2F8786867
:101520000AF03EFB009402460B467B48FFF79FF80B
:101530007B497948FFF795F87C497A48FFF791F89D
:1015400038680AF02DFB009402460B467548FFF7F9
:101550008EF872497348FFF784F878680AF020FB28
:10156000009402460B466F48FFF781F86D486C49BE
:10157000FFF777F8012E3DD16D4E6E496648FFF7B3
:1015800070F830680AF00CFB022402460B46009407
:101590006148FFF76CF861495F48FFF762F87068CF
:1015A0000AF0FEFA009402460B465B48FFF75FF82C
:1015B0005B495948FFF755F85E495A48FFF751F81B
:1015C00030680AF0EDFA009402460B465548FFF7E2
:1015D0004EF852495348FFF744F870680AF0E0FAB1
:1015E000009402460B464F48FFF741F84D484C49DE
:1015F000FFF737F8012D3DD14F4D50494648FFF7D1
:1016000030F828680AF0CCFA022402460B4600940F
:101610004148FFF72CF841493F48FFF722F8686836
:101620000AF0BEFA009402460B463B48FFF71FF84B
:101630003B493948FFF715F840493A48FFF711F898
:1016400028680AF0ADFA009402460B463548FFF7C9
:101650000EF832493348FFF704F868680AF0A0FA38
:10166000009402460B462F48FFF701F82D482C49FD
:10167000FEF7F7FF089B012B3DD1314D314926483C
:10168000FEF7EFFF28680AF08BFA022402460B46A9
:1016900000942148FEF7EBFF20491F48FEF7E1FFC9
:1016A00068680AF07DFA009402460B461A48FEF775
:1016B000DEFF1B491848FEF7D4FF22491948FEF700
:1016C000D0FF28680AF06CFA009402460B461548D1
:1016D000FEF7CDFF11491348FEF7C3FF68680AF013
:1016E0005FFA009402460B460E48FEF7C0FF0D4815
:1016F0000B49FEF7B6FF099B012B5ED1124D134932
:101700000548FEF7AEFF28680AF04AFA02241FE0F7
:10171000D494FF1FF9030100249BFF1FBF0B01009E
:10172000240D0100E89AFF1FA894FF1F0A0401007E
:101730004495FF1F1B040100B094FF1F2C040100FF
:101740005495FF1F3D0401005C95FF1F4E040100EE
:1017500002460B460094A548FEF789FFA449A3481A
:10176000FEF77FFF68680AF01BFA009402460B46FA
:101770009E48FEF77CFF9F499C48FEF772FF9E49FA
:101780009E48FEF76EFF28680AF00AFA00940246A7
:101790000B469A48FEF76BFF95499848FEF761FFA4
:1017A00068680AF0FDF9009402460B469348FEF77C
:1017B0005EFF92488F49FEF754FF0A9B012B3DD1F3
:1017C0008F4D90498948FEF74CFF28680AF0E8F9E8
:1017D000022402460B4600948448FEF748FF8449E1
:1017E0008248FEF73EFF68680AF0DAF90094024684
:1017F0000B467E48FEF73BFF7E497C48FEF731FFF3
:1018000080497E48FEF72DFF28680AF0C9F9009448
:1018100002460B467948FEF72AFF75497748FEF7DE
:1018200020FF68680AF0BCF9009402460B46734832
:10183000FEF71DFF71486F49FEF713FF0B9B012B4D
:101840003DD1714D71496948FEF70BFF28680AF0D8
:10185000A7F9022402460B4600946448FEF707FFEE
:1018600063496248FEF7FDFE68680AF099F9009442
:1018700002460B465D48FEF7FAFE5E495B48FEF7FE
:10188000F0FE62495D48FEF7ECFE28680AF088F930
:10189000009402460B465948FEF7E9FE5449574862
:1018A000FEF7DFFE68680AF07BF9009402460B46FB
:1018B0005248FEF7DCFE51484E49FEF7D2FE0C9B23
:1018C000012B3DD1524D53494848FEF7CAFE2868C6
:1018D0000AF066F9022402460B4600944348FEF7DC
:1018E000C6FE43494148FEF7BCFE68680AF058F955
:1018F000009402460B463D48FEF7B9FE3D493B4881
:10190000FEF7AFFE43493D48FEF7ABFE28680AF0FC
:1019100047F9009402460B463848FEF7A8FE3449C2
:101920003648FEF79EFE68680AF03AF900940246CF
:101930000B463248FEF79BFE30482E49FEF791FEDB
:101940000D9B012B3DD1344D34492848FEF789FECB
:1019500028680AF025F9022402460B460094234821
:10196000FEF785FE22492148FEF77BFE68680AF0F3
:1019700017F9009402460B461C48FEF778FE1D49F5
:101980001A48FEF76EFE25491C48FEF76AFE2868D5
:101990000AF006F9009402460B461848FEF767FE67
:1019A00013491648FEF75DFE68680AF0F9F80094DE
:1019B00002460B461148FEF75AFE10480D49FEF745
:1019C00050FE0E9B012B5DD1154D16490748FEF7C1
:1019D00048FE28680AF0E4F8022402460B46009408
:1019E0000248FEF744FE02491EE000BF249BFF1F91
:1019F000BF0B0100240D01004E040100E89AFF1FF7
:101A00006495FF1F5F0401006C95FF1F70040100C7
:101A10007495FF1F810401007C95FF1F9204010053
:101A20006C91FF1FA30401001748FEF71AFE6868B7
:101A30000AF0B6F8009402460B461348FEF717FE6C
:101A400012491148FEF70DFE11491248FEF709FE32
:101A500028680AF0A5F8009402460B460D48FEF7E8
:101A600006FE0D490B48FEF7FCFD68680AF098F881
:101A7000009402460B460748FEF7F9FD0548034966
:101A8000FEF7EFFDBDE8FC81249BFF1F240D010044
:101A9000A3040100E89AFF1FBF0B01007FB5244B90
:101AA0001A680192019D1A6802920C46029A1E461B
:101AB0001DE007211F4807F047F9322008F0CAFC53
:101AC00033680393039B5B1BA34210DD1A491B4839
:101AD000FEF7C7FD18491A48FEF7C3FD1949174814
:101AE000FEF7BFFD17491648FEF7BBFD14E007F0EF
:101AF00053F90028DDD00FE001340A2C09DD01E0A4
:101B000007F058F907F048F90028F9D100240E4DE4
:101B100007E0322008F09EFC07F03EF90628EBDDD6
:101B2000F4E707F047F928550134072CF9D17FBDB8
:101B3000DC9AFF1F6889FF1FB5040100249BFF1F6B
:101B4000E89AFF1FBF0B01004C95FF1F08B5C27834
:101B5000007900EB02200AF05FFC034B19680AF0E1
:101B6000B3FC0AF09DFE08BD7089FF1F38B54FF425
:101B7000FA610C480C4DFFF791FF0C48FFF7E6FFA8
:101B80000446642008F066FC094B1868B4FBF0F0CA
:101B90000AF042FC014628680AF08EFB28602046C5
:101BA00038BD00BF6889FF1FCC93FF1F4C95FF1FF6
:101BB0007889FF1F012801D8FFF7D8BF7047FFFFC2
:101BC0002DE9F74F7C4E304605F06EF809F0D6FF50
:101BD000044630460D4605F061F809F0CFFF62A3D8
:101BE000D3E900230AF030F80022744B0AF056F9CA
:101BF0000022724B0AF052F9002206460F46204698
:101C000029466F4B0AF020F859A3D3E9002309F0C5
:101C100069FE59A3D3E9002382468B4609F060FE92
:101C200057A3D3E9002304460D460AF00DF800221D
:101C3000644B09F057FE54A3D3E90023804689463C
:101C4000204629460AF000F822462B4609F0FCFF00
:101C500002460B464046494609F044FE5A4B804630
:101C60001868894609F09CFF02460B4640464946E3
:101C700009F0EAFF46A3D3E900230AF00FF9002296
:101C8000CDE900014D4B304639460AF007F942A331
:101C9000D3E90023804689462046294609F0D4FF2F
:101CA0003FA3D3E9002309F01BFE3FA3D3E90023A0
:101CB00006460F462046294609F0C6FF22462B4617
:101CC00009F0C2FF02460B463046394609F00AFECB
:101CD00002460B464046494609F002FE524604467B
:101CE0000D465B465046594609F0AEFF52465B46EC
:101CF00009F0AAFF52465B4609F0A6FF2CA3D3E9E0
:101D0000002306460F462046294609F09DFF22463D
:101D10002B4609F099FF02460B462046294609F05A
:101D2000E1FD1BA3D3E9002304460D46DDE90001D4
:101D30000AF0B4F802460B46204629460AF0AEF8EF
:101D400002460B463046394609F0CCFD09F07EFCD0
:101D500009F07CFC06A3D3E9002309F0C1FD03B020
:101D6000BDE8F08FAFF30080000000000088634002
:101D700066666666661271406666666666A2724050
:101D800079E9263108AC5C3FE446D3D15898F1BEDE
:101D900000000000D0126341E43C73414320A3BE25
:101DA0004DB1B49D00D4FE3E75466524BDE2333E80
:101DB000CDCCCCCCCCCC2A404891FF1F00408F40EA
:101DC0000000A03F0000F03F7489FF1FAFF30080C8
:101DD00070B5FFF7F5FE0AF019FA04461E4804F044
:101DE0006BFF4FF47A6008F035FB20461B49012653
:101DF0000AF026FD00B90026F6B24EB92046184971
:101E000001250AF0FFFC00B9354615F0FF0F13D08D
:101E1000144B154C154916481C60FEF722FC13495B
:101E20001448FEF71EFC14491148FEF71AFC12492B
:101E30001048FEF716FC0DE0104B0A4D18680AF02A
:101E4000EFFA014620460AF0F3FB014628680AF043
:101E500033FA2860204670BD4891FF1F00007A4485
:101E6000000070C23494FF1F0000C6C2D3040100FA
:101E7000249BFF1FE89AFF1FBF0B01007889FF1FFB
:101E8000012801D8FFF7A4BF704708B501E006F0AC
:101E90004BFD06F08FFD0028F9DC01E007F0C4F9E6
:101EA00007F0B4F90028F9DC08BDFFFFF7B54EF6DE
:101EB0006020FFF729F804460D46B648B649FEF7FC
:101EC000D0FBB549B548FEF7CCFB20462946002299
:101ED00000230AF021F9002840F03D8202260096F6
:101EE00022462B46AB48FEF7C2FB22462B46009605
:101EF000AA48FEF7BCFBAA49A648FEF7B2FBA849D0
:101F0000A648FEF7AEFB06F00FFD06F00DFDA54B53
:101F1000A04820221A6080221A6009F08DF8A24998
:101F20009C48FEF79EFB00219A48FEF7B9FB9948B2
:101F30009E49FEF7ABFB002640F6FE77B2B20021C9
:101F40009B4805F0A9FA31469248FEF78EFB94496A
:101F50009048FEF786FB322008F07CFA304609F004
:101F60000DFE22462B4609F0BDFC0AF007F9B842E7
:101F70000646E3DD8F4B874880221A6009F05CF843
:101F800089498448FEF76DFB01218248FEF788FBF2
:101F900080488949FEF77AFB002640F6FE77B2B208
:101FA0000121834805F078FA31467A48FEF75DFB57
:101FB0007B497848FEF755FB322008F04BFA304653
:101FC00009F0DCFD22462B4609F08CFC0AF0D6F81D
:101FD000B8420646E3DD774B6E4820221A600122A4
:101FE00043F8042C802243F8042C09F025F86E49AC
:101FF0006848FEF736FB00216648FEF751FB65484E
:102000006E49FEF743FB002640F6FE77B2B2002190
:10201000674805F041FA31465E48FEF726FB604905
:102020005C48FEF71EFB322008F014FA304609F037
:10203000A5FD22462B4609F055FC0AF09FF8B84250
:102040000646E3DD5B4B534880221A6008F0F4FF3C
:1020500055495048FEF705FB01214E48FEF720FB8D
:102060004C485749FEF712FB002640F6FE77B2B205
:1020700001214F4805F010FA31464648FEF7F5FABF
:1020800047494448FEF7EDFA322008F0E3F93046BC
:1020900009F074FD22462B4609F024FC0AF06EF884
:1020A000B8420646E3DD434B3A48012202261A6055
:1020B00043F8046C08F0C0FF3B493648FEF7D1FAFC
:1020C00031463448FEF7ECFA32483E49FEF7DEFA74
:1020D000002640F6FE77B2B20221354805F0DCF961
:1020E00031462C48FEF7C1FA2D492A48FEF7B9FAC5
:1020F000322008F0AFF9304609F040FD22462B4669
:1021000009F0F0FB0AF03AF8B8420646E3DD294B45
:102110002048102202261E6043F8442C08F08CFF51
:1021200021491C48FEF79DFA31461A48FEF7B8FAD5
:1021300018482549FEF7AAFA002640F6FE77B2B203
:1021400002211B4805F0A8F931461248FEF78DFA26
:1021500013491048FEF785FA322008F07BF9304623
:1021600009F00CFD22462B4609F0BCFB0AF006F8EC
:10217000B8420646E3DD154B0648102201261A60D8
:1021800043F8046C08F058FF07490248FEF769FA63
:1021900031461DE0249BFF1FFE040100E89AFF1F4B
:1021A000BF0B0100C4F00F400C0501001B0501002E
:1021B000B492FF1FC8F00F403C0501005E0501000E
:1021C0007F050100A1050100B505010088F00F4061
:1021D0006A48FEF765FA69486949FEF757FA00262A
:1021E00040F6FE77B2B20321664805F055F9314654
:1021F0006248FEF73AFA64496048FEF732FA322044
:1022000008F028F9304609F0B9FC22462B4609F0BF
:1022100069FB09F0B3FFB8420646E3DD5B4B574864
:1022200001261E6043F8446C08F006FF58495348E5
:10223000FEF717FA31465148FEF732FA4F48554932
:10224000FEF724FA002640F6FE77B2B203214D488D
:1022500005F022F931464948FEF707FA4A4947484E
:10226000FEF7FFF9322008F0F5F8304609F086FC59
:1022700022462B4609F036FB09F080FFB84206469D
:10228000E3DD454B3D48402201261E60DA6308F03D
:10229000D3FE3F493948FEF7E4F931463748FEF7A7
:1022A000FFF936483D49FEF7F1F9002640F6FE7782
:1022B000B2B20321334805F0EFF831462F48FEF75C
:1022C000D4F931492D48FEF7CCF9322008F0C2F894
:1022D000304609F053FC22462B4609F003FB09F077
:1022E0004DFFB8420646E3DD284B244840221A60E1
:1022F000802243F8042C08F09FFE25491F48FEF772
:10230000B0F901211D48FEF7CBF91C482449FEF71E
:10231000BDF9002640F6FE77B2B20321194805F058
:10232000BBF831461548FEF7A0F917491348FEF7E8
:1023300098F9322008F08EF8304609F01FFC22464A
:102340002B4609F0CFFA09F019FFB8420646E3DD43
:102350000E4B80221A60FFF798FD12490748FEF7DE
:1023600095F911490548FEF791F90E490F48FEF716
:102370008DF90D490D48FEF789F9FEBD249BFF1F1D
:10238000C9050100B492FF1FBF0B010088F00F4088
:102390000C050100DB05010048F00F40ED050100D0
:1023A000FF050100B40201001A050100E89AFF1FB1
:1023B00070B58EB006F038FF061E24DD642008F0EC
:1023C00049F8002401AD665506F02EFF0134262C95
:1023D0000646F7D1124E0024284631688DF82A406F
:1023E00025220BF0BBFAC0B10E490F48FEF739F9B0
:1023F00031680D48FEF74AF90C490B48FEF731F9F0
:102400000948294605E00A490748FEF73FF906480A
:102410000849FEF73BF9002000E001200EB070BD36
:102420008089FF1F11060100249BFF1F3406010055
:10243000570601008D06010030B54949494885B06D
:10244000FEF70FF946494848FEF70BF900226846A7
:102450004EF66021FEF7A4FC4EF66020FEF754FD18
:1024600004460D460D20012107F0E0FE29462046D6
:1024700009F084FE430803F1376303F5D833B3FB57
:10248000F0F006F04BFD01210D2007F0A3FE4FF404
:102490007A7007F0DFFF35493348FEF7E2F84FF472
:1024A0007A7007F0D7FF32492F48FEF7DAF84FF479
:1024B0007A7007F0CFFF2F492A48FEF7D2F840F292
:1024C000D2412848FEF7ECF82B492748FEF7C9F817
:1024D00040F2D2412448FEF7C8F84FF47A7007F072
:1024E000B9FF26491F48FEF7BCF869461D48FEF7AC
:1024F000C3F823491C48FEF7B4F869461A4808F0A7
:1025000079FD4FF47A7007F0A5FF1E491548FEF7D4
:10251000BDF81D491448FEF7A4F84FF47A7007F08F
:1025200099FFFFF745FF18B10E481849FEF7AEF8BE
:102530000D20002107F04EFE15490A48FEF7A6F8C7
:1025400013490948FEF7A2F8064808F075FD064849
:1025500008F072FD684608F0F7F905B030BD00BF1D
:10256000B5060100249BFF1FE89AFF1FC406010067
:10257000C7060100D2060100E1060100E8060100DD
:10258000F7060100FF060100140701001D07010006
:10259000B402010014282DE9F04105460E46144608
:1025A0001F4601D002281BD12146404804F08FFC71
:1025B000002821463D4803DD04F089FC3C4B46E001
:1025C00004F085FC002802DB0020BDE8F081002E2D
:1025D000FADD384600210AF033F9002845D1F3E747
:1025E000A0F10B03012B0BD9A0F10F08B8F1010FDB
:1025F0008CBF4FF000084FF00108B8F1000F17D062
:1026000021462C4804F063FC00282146294803DDBC
:1026100004F05DFC284B1AE004F059FC0028D3DAE2
:10262000002ED1DD384600210AF00AF950BBCBE775
:1026300020F004050A2DC7D11146204804F047FCBC
:10264000002821461D4804DD04F041FC1C4B1860A5
:1026500029E004F03CFC0028B6DA002EB4DD384650
:1026600000210AF0EDF8D8B9AEE738460AF0F2F8E2
:1026700001462846FEF7AEFC6423704390FBF3F658
:102680000B4B0BE038460AF0E5F801462846FEF70A
:10269000A1FC6423704390FBF3F6074B1E6002E03D
:1026A000074BC3F800800120BDE8F0812C94FF1F88
:1026B000DC91FF1F1494FF1FF895FF1FFC93FF1F71
:1026C0000C94FF1F2DE9D841142804460E461F46DE
:1026D000069A01D0022818D1002A00DD12E0002E4F
:1026E00054DD384600210AF0ABF800284ED03846B9
:1026F0000AF0B0F801462046FEF76CFC64237043F4
:1027000090FBF3F2244800212FE0A0F10B03012BF2
:102710000BD9A0F10F08B8F1010F8CBF4FF00008E2
:102720004FF00108B8F1000F17D0002A00DD11E0CA
:10273000002E2BDD384600210AF082F830B33846EF
:102740000AF088F801462046FEF744FC64237043F3
:1027500090FBF3F21048032107E020F004040A2C58
:1027600014D1002A03DD0C48022192B209E00029AD
:102770000FDD384600210AF063F858B106480221FF
:10278000424604F089FE0120BDE8D8810020BDE862
:10279000D8814046BDE8D881B492FF1F10B5084CDF
:1027A0000520214607F0BEFC0320214607F0BAFCB5
:1027B00019204FF4F471BDE8104007F0B3BC00BF1E
:1027C0006CDC020070B506460D460024A1190448D1
:1027D00004F022FA28550134042CF7D1204670BDAC
:1027E000FC95FF1F70B506460D460024A1192A5D11
:1027F0000348013404F013FA042CF7D1204670BDCD
:10280000FC95FF1F2DE9F34102ADDFF8308045F85C
:10281000041D064617460024304609F001FE014615
:1028200054F8080009F0E4FF18B1E0192946FFF751
:10283000D9FF0434682CEFD1BDE8FC818889FF1FE3
:102840002DE9F34102ADDFF8308045F8041D06465E
:1028500017460024304609F0E3FD014654F808000D
:1028600009F0C6FF18B1E0192946FFF7BBFF043491
:10287000682CEFD1BDE8FC818889FF1F30B540F29C
:10288000836085B006F04AFB42F2107006F060F9F2
:102890004FF4FA70002407F0DDFD0723224621469D
:1028A000009401934548464D234604F047FF4548B0
:1028B00041F2883104F0D2FD4348444904F00CFD54
:1028C0004148434904F0D8FC21463F4804F0CDFC80
:1028D0003D4804F065FD1D20012107F0A7FC032001
:1028E000214607F0A3FC0F20012107F09FFC1020D8
:1028F000012107F09BFC0B20012107F097FC0C2025
:10290000012107F093FC1420012107F08FFC022025
:10291000012107F08BFC0E20012107F087FC0A2023
:10292000012107F083FC0520012107F07FFC294BE2
:1029300080221A600620012107F078FC1520012171
:1029400007F074FC1620012107F070FC11202146CD
:1029500007F06CFC204B40221A6002232B600D20F4
:10296000012107F063FC2220214607F05FFC2320B1
:10297000214607F05BFC03201849194C07F0D2FBF5
:102980000520164907F0CEFB1720012107F04EFC69
:1029900004A904232B60002341F8083D1020FFF711
:1029A00011FF0298214609F023FF28B904A910203D
:1029B00041F8044DFFF716FF05B030BD0896FF1F24
:1029C00084F00F40B492FF1FE893FF1F00004843BC
:1029D00000002F44C4F00F40C8F00F406CDC020030
:1029E000DF4FCD3E70B506460D460024A1190448C0
:1029F00004F012F928550134082CF7D1204670BD97
:102A0000FC95FF1FFFFFFFFF2DE9F041664E674970
:102A1000674D86B007466748FDF723FE306809F02A
:102A2000BFF8022402460B4600946248FDF71FFEE1
:102A300061496048FDF72AFE4FF003085F495D4891
:102A4000FDF70FFE56A3D3E90023CDF800805948C7
:102A5000FDF70DFE58495748FDF718FE58495548EF
:102A6000FDF7FFFD286809F09BF8009402460B462D
:102A70005048FDF7FCFD50494E48FDF707FE4B4915
:102A80005048FDF7EEFD306809F08AF800940246E0
:102A90000B464C48FDF7EBFD47494A48FDF7F6FD6C
:102AA00046494848FDF7DDFD3DA3D3E90023CDF8B5
:102AB00000804448FDF7DBFD3F494248FDF7E6FD55
:102AC0003F494048FDF7CDFD286809F069F80094BA
:102AD0000B4602463B48FDF7CAFD37493948FDF72A
:102AE000D5FD394940F29E50FFF77CFF374902A8D7
:102AF00007F06BFF012202A83349FEF7DFFA02A8B4
:102B000007F022FF012F44D14EF66020FEF7FCF9BA
:102B100009F07CFB306009F043F8009402460B4654
:102B20002448FDF7C7FD306809F03AF800940246E2
:102B30000B462448FDF7BEFD3068254909F058FED4
:102B400038BB31460C20FFF74DFE4EF66020FEF7F5
:102B5000DBF909F05BFB286009F022F800940246DB
:102B60000B461448FDF7A6FD286809F019F80094F3
:102B700002460B461348FDF79DFD2868144909F0ED
:102B800037FE30B914202946FFF72CFE0020FFF74E
:102B90003BFF012007F05EFC06B0BDE8F08100BFFE
:102BA000448B6CE7FBA9D93F1094FF1F3407010049
:102BB000DC90FF1F249BFF1FBF0B01004207010099
:102BC00056070100E89AFF1FF489FF1F6A070100FA
:102BD000000080BFAFF30080F8B507460E46002422
:102BE00041F21055E119325D0348013404F017F841
:102BF000AC42F7D12046F8BDFC95FF1F00B5ADF5FE
:102C0000A85D85B010B9FDF703FD09E00021684615
:102C100041F210520AF0E8FA3C206946FFF7DCFF67
:102C200045B00DF5A05D00BD70B506460D4600240B
:102C3000A119044803F0F0FF28550134682CF7D19E
:102C4000204670BDFC95FF1F1FB50446BE490020FD
:102C5000FFF7B8FD0420BD49FFF7B4FD0820BC49CB
:102C6000FFF7B0FD0C20BB49FFF7ACFD1420BA49BB
:102C7000FFF7A8FD1820B949FFF7A4FD1C20B849AB
:102C8000FFF7A0FD2020B749FFF79CFD2420B6499F
:102C9000FFF798FD2820B549FFF7A4FE3C20B44972
:102CA000FFF7C2FFB420B349FFF7BEFFB2494FF4AC
:102CB0009670FFF7B9FFB1494FF4D270FFF7B4FF38
:102CC000AF494FF40770FFF7AFFFAE494FF42570DF
:102CD000FFF7AAFFAC494FF45C70FFF7A5FFAB49C3
:102CE0004FF47A70FFF7A0FFA9494FF48C60FFF70B
:102CF0009BFFA8494FF49B60FFF796FFA6494FF44E
:102D0000AA60FFF76FFEA5494FF4AB60FFF76AFEBC
:102D1000A3494FF4AC60FFF765FEA2494FF4AD60E4
:102D2000FFF760FEA0494FF4AE60FFF75BFE9F49DE
:102D30004FF4AF60FFF756FE9D494FF4B060FFF7C8
:102D400051FE9C494FF4B160FFF74CFE9A494FF495
:102D5000B260FFF747FE994940F29650FFF742FEF6
:102D600040F29E509649FFF73DFE012C40F09481C1
:102D700094499548FDF775FC92499448FDF771FC1C
:102D80002046FEF7ABFA904808F056F98F4808F055
:102D900053F92046FDF79EFF8D49684607F015FE62
:102DA00000228C496846FEF703FA684607F0CCFD1E
:102DB0008949684607F009FE00226D496846FEF71A
:102DC000F7F9684607F0C0FD8449684607F0FDFD45
:102DD000002268496846FEF7EBF9684607F0B4FD43
:102DE0007F49684607F0F1FD002263496846FEF717
:102DF000DFF9684607F0A8FD7A49684607F0E5FD67
:102E000000225E496846FEF7D3F9684607F09CFD4C
:102E10007549684607F0D9FD002259496846FEF712
:102E2000C7F9684607F090FD7049684607F0CDFD88
:102E3000002254496846FEF7BBF9684607F084FD56
:102E40006B49684607F0C1FD00224F496846FEF70E
:102E5000AFF9684607F078FD6649684607F0B5FDAA
:102E600000224A496846FEF7A3F9684607F06CFD60
:102E70006149684607F0A9FD002245496846FEF70A
:102E800097F9684607F060FD5C49684607F09DFDCC
:102E9000002240496846FEF78BF9684607F054FD6A
:102EA0005749684607F091FD002230496846FEF711
:102EB00005F9684607F048FD5249684607F085FD68
:102EC000002235496846FEF7F9F8684607F03CFDF0
:102ED0004D49684607F079FD002230496846FEF703
:102EE000EDF8684607F030FD4849684607F06DFD8B
:102EF00000222B496846FEF7E1F8684607F024FDFA
:102F00004349684607F061FD002226496846FEF7FE
:102F1000D5F8684607F018FD3E49684607F055FDAC
:102F2000002221496846FEF7C9F8684607F00CFD03
:102F30003949684607F049FD00221C496846FEF7FA
:102F4000BDF868466AE000BF7489FF1FF089FF1F63
:102F5000F495FF1F1094FF1FDC90FF1F0494FF1FC8
:102F60006491FF1F0894FF1F6891FF1FD494FF1FF7
:102F70004C92FF1FDC94FF1F4094FF1FE090FF1F47
:102F80008895FF1FE091FF1F7490FF1F7491FF1F32
:102F9000E892FF1F5093FF1FA894FF1F4495FF1F47
:102FA000B094FF1F5495FF1F5C95FF1F6495FF1F92
:102FB0006C95FF1F7495FF1F7C95FF1F6C91FF1F81
:102FC000F489FF1FBD030100249BFF1FE89AFF1F28
:102FD000750701008889FF1F7E0701009007010027
:102FE000A1070100BB070100D4070100EF070100A2
:102FF000090801001C0801002F0801004208010017
:103000008E0A01009B0A0100A80A0100B50A01000E
:10301000C20A0100CF0A0100DC0A010007F094FC9B
:103020001E49684607F0D1FC00221D496846FEF79C
:1030300045F8684607F088FC1A49684607F0C5FC61
:10304000002219496846FEF739F8684607F07CFC0B
:103050001649684607F0B9FC002215496846FEF794
:103060002DF8684607F070FC1249684607F0ADFC81
:10307000002211496846FEF721F8684607F064FC13
:103080000E49684607F0A1FC68460D492246FEF746
:1030900015F8684607F058FC1FBD00BFE90A01009B
:1030A0006C95FF1FF60A01007495FF1F030B0100CA
:1030B0007C95FF1F100B01006C91FF1F6A07010038
:1030C000F489FF1F2DE9F34101204EF66028FFF738
:1030D000BBFD4046FDF718FF09F098F8224F234E3C
:1030E000386008F05DFD062402460B460094304629
:1030F000FDF7BDFA38681E4D08F052FD00940246F7
:103100000B462846FDF7B3FA39460420FFF76AFB61
:103110004046FDF7F9FE09F079F8164F386008F0DF
:103120003FFD009402460B463046FDF7A0FA386892
:1031300008F036FD009402460B460F4C2846FDF77A
:1031400096FA39460820FFF74DFB21463046FDF739
:103150009DFA28462146FDF799FA012002B0BDE804
:10316000F041FFF771BD00BFF089FF1F249BFF1FD7
:10317000E89AFF1FF495FF1F550801002DE9F34160
:103180004EF660270120FFF75FFD3846FDF7BCFED5
:1031900009F03CF8DFF804813D4EC8F8000008F063
:1031A000FFFC022402460B4600943046FDF75FFA0E
:1031B000D8F80000374D08F0F3FC009402460B46A7
:1031C0002846FDF754FA41461820FFF70BFB384616
:1031D000FDF79AFE09F01AF8DFF8C480C8F800007D
:1031E00008F0DEFC009402460B463046FDF73FFA3D
:1031F000D8F8000008F0D4FC009402460B4628469C
:10320000FDF735FA41461C20FFF7ECFA3846FDF78A
:103210007BFE08F0FBFFDFF88C80C8F8000008F0A8
:10322000BFFC009402460B463046FDF720FAD8F862
:10323000000008F0B5FC009402460B462846FDF756
:1032400016FA41462020FFF7CDFA3846FDF75CFE1E
:1032500008F0DCFF104F386008F0A2FC0094024632
:103260000B463046FDF703FA386808F099FC0094E5
:1032700002460B462846FDF7FAF924203946FFF7A7
:10328000B1FA012002B0BDE8F041FFF7DDBC00BF9C
:10329000249BFF1FE89AFF1F6891FF1F0494FF1FE4
:1032A0006491FF1F0894FF1F2DE9F04F012B85B09B
:1032B00005460F46904605D00024DFF8E8A0DFF869
:1032C000E8B060E01846FFF7BFFC002406261DE0CA
:1032D0004EF66020FDF718FE08F098FF039008F006
:1032E0005FFC009602460B462B48FDF7C0F9039899
:1032F00008F056FC009602460B462848FDF7B7F941
:10330000284603A9FFF76EFA01344544BC42DFDBCF
:103310003CE04EF66020FDF7F7FD08F077FF002156
:10332000064609F08DFA38B130461D4909F06AFAAF
:1033300010B1CDF80CB008E03046002109F062FA77
:1033400008B9039601E0CDF80CA0039808F028FC1A
:103350004FF0060904AE02460B46CDF800900E4829
:10336000FDF785F956F8040D08F01AFCCDF8009029
:1033700002460B460948FDF77AF928463146FFF721
:1033800031FA01344544BC42C3DB02E00120FFF7BF
:103390005BFC05B0BDE8F08F249BFF1FE89AFF1F80
:1033A00000409C4520BCBE4C0060EA472DE9F34735
:1033B00080460120FFF748FC4EF66020FDF7A4FD93
:1033C00008F0DCFE064631462B48FDF769F92B482C
:1033D0003146FDF765F9731C47D04EF66020FDF7C6
:1033E00093FD08F013FF814608F0DAFB0627044638
:1033F0000D460B46224600971F48FDF75BF90097E4
:103400001E4822462B46FDF755F948461C4909F04F
:10341000EFF950BB4EF66020FDF776FD08F0F6FEA2
:10342000824608F0BDFB04460D460B462246009737
:103430001148FDF73FF90097104822462B46FDF74B
:1034400039F950460E4909F0D3F970B9304649466A
:103450004246FFF7F5F93046514608F17802FFF78A
:10346000D1F9012006F0F6FFA6E7012002B0BDE881
:10347000F047FFF7E9BB00BF249BFF1FE89AFF1F3F
:10348000000080BF2DE9F04FAA4BAB4C04221A601C
:1034900085B00021064640F6FF72A84803F0FCFF05
:1034A0008025012140F6FF72A44803F0F5FF0221B8
:1034B00040F6FF722560A14803F0EEFF032140F6BD
:1034C000FF729E4803F0E8FF9D4B1D60FEF7DDFC98
:1034D000622E2CD10020FFF7B7FB27464EF6602066
:1034E000FDF712FD0022974B04460D4608F014FE2E
:1034F000B8B9FEF7CAFC2946204608F067FE00214D
:1035000082B28E4803F0C8FF0023204629460022DD
:1035100008F002FE202310B9894A1360DEE73B6001
:10352000DCE7FEF7B2FC844B20221A606FE0632ECA
:103530006DD10020FFF788FB4EF66020FDF7E4FC1C
:1035400008F01CFE8049DFF824A280467F48FDF782
:1035500088F87D497E48FDF784F800210A467748BF
:1035600003F09AFF75480321002203F095FF00271E
:103570005FFA88FB40E05AF83B3083F800410BE0EB
:103580001FFA89F4002122466C4803F085FF6B483E
:103590000321224603F080FF384608F001FB044671
:1035A0000D460221009122462B4668480391FDF703
:1035B0005EF803996648009122462B46FDF757F8BE
:1035C00064496248FDF74DF862496148FDF749F8E2
:1035D00049465E48FDF749F849465D48FDF745F81C
:1035E0005C495A48FDF752F859485A49FDF74EF8D8
:1035F0004FF47A7006F02EFF05F0DCF9022800F394
:10360000568105F003FE022840F35C814FE100275C
:10361000FEF73BFC642E01D1FEF748FCFEF735FCBB
:10362000652E14D14C494948FDF71BF848484A49D2
:10363000FDF717F84FF0020805F0BCF9022800F377
:10364000478205F0E3FD022840F3588140E2662EF0
:1036500014D142493D48FDF704F83D483F49FDF784
:1036600000F84FF0020805F0A5F9022800F33082B7
:1036700005F0CCFD022840F3688129E2672E14D1C1
:1036800037493248FCF7EDFF31483549FCF7E9FF8F
:103690004FF0020805F08EF9022800F3198205F0B8
:1036A000B5FD022840F3758112E2682E14D12D4930
:1036B0002648FCF7D6FF26482A49FCF7D2FF4FF0F0
:1036C000020805F077F9022800F3028205F09EFD5A
:1036D000022840F38081FBE1692E14D11E491B486A
:1036E000FCF7BFFF1A481C49FCF7BBFF4FF002086C
:1036F00005F060F9022800F3EB8105F087FD022850
:1037000040F3A081E4E16A2E32D117491048FCF75A
:10371000A8FF0E481449FCF7A4FF4FF0020805F07B
:1037200049F9022800F3D48105F070FD022840F326
:10373000AE81CDE188F00F40C8F00F40B492FF1F7A
:10374000C4F00F400000F0BF58080100249BFF1F89
:10375000E89AFF1FBF0B0100680801007D08010007
:103760008C0801009D080100B4080100E80E01006A
:10377000731E202B40D8A949A948DFF8B082FCF776
:1037800070FFA848A549FCF76CFF4EF66020FDF7D6
:10379000BBFB08F0F3FC411C054624D0ACB2FEF79D
:1037A00074FB00212246A04803F076FE0121224648
:1037B0009D4803F071FE022122469B4803F06CFEF7
:1037C00022469948032103F067FE58F8362001236A
:1037D00082F8803058F8362015B182F88030D4E76E
:1037E00082F80031D1E7FEF750FB904B53F83630AA
:1037F000012283F8002134E0A6F12203032B30D804
:10380000DFF83C828A4D874807F016FC844807F0B1
:1038100013FC4EF66020FDF777FB08F0AFFC421C6E
:103820001DD010234001C8F8003001D00138FDD16F
:10383000F0B206F037FF102304462B60214679488A
:10384000FCF713FF21467648FCF70FFF79497548CE
:10385000FCF707FF77497248FCF703FFD3E7FEF751
:1038600014FB754B04221A60384608F099F90226B9
:1038700004460D460B46224600966A48FCF7F7FEC2
:1038800022462B4600966648FCF7F1FE6B496548D8
:10389000FCF7FCFE69496248FCF7F8FE614807F056
:1038A000CBFB5F4805B0BDE8F04F07F0C5BBFEF7A6
:1038B000ECFA5FFA88F85D4B53F83830012283F850
:1038C0000021A5E65AF83B30012483F880402046C9
:1038D000FDF7AAF908F0A4FDFDF76AFB074608F01A
:1038E000B9FF01464046FDF775FB00218146384689
:1038F00008F07EFF00287FF43EAE41E60120FDF790
:1039000093F908F08DFDFDF753FB074608F048F9E1
:1039100004460D460B462246CDF800804148FCF790
:10392000A6FE22462B46CDF800803D48FCF79FFEC0
:1039300040493C48FCF795FE3E493948FCF791FE6A
:103940004FF4FA6006F086FD76E6FEF70FF908F010
:1039500063FD074608F024F9044622460B46CDF8DD
:10396000008030480D46FCF782FE32492D48FCF7B6
:1039700078FE22462B46CDF800802948FCF777FEDA
:103980002C492748FCF76DFE4FF4FA6006F062FD03
:1039900069E6FCF721FE074608F002F904462246D4
:1039A0000B46CDF800801F480D46FCF760FE21490C
:1039B0001C48FCF756FE22462B46CDF800801848DE
:1039C000FCF755FE1B491648FCF74BFE4FF4FA6016
:1039D00006F040FD5EE6FCF7E3FD074608F0E0F880
:1039E000044622460B46CDF800800E480D46FCF7F3
:1039F0003EFE10490B48FCF734FE22462B46CDF81C
:103A000000800748FCF733FE0A490548FCF729FE09
:103A10004FF4FA6006F01EFD53E600BFD108010026
:103A2000E89AFF1F249BFF1FB492FF1FE80E0100BE
:103A3000C4F00F40BF0B010084F00F40E30201000F
:103A4000C8F00F400120FDF7EFF808F0E9FC074649
:103A500008F0A6F804460D460B462246CDF8008035
:103A60001D48FCF704FE22462B46CDF800801B487B
:103A7000FCF7FDFD1A491848FCF7F3FD18491748F3
:103A8000FCF7EFFD4FF4FA6006F0E4FC30E6FEF7D9
:103A90009FF9074608F084F804460D460B46224677
:103AA000CDF800800C48FCF7E2FD22462B46CDF80D
:103AB00000800A48FCF7DBFD09490748FCF7D1FD07
:103AC00007490648FCF7CDFDC82006F0C3FC26E6F2
:103AD000FEF7DBF94CE600BF249BFF1FE89AFF1FAF
:103AE000BF0B0100FFFFFFFF2DE9F04FADF5215D9A
:103AF00081B008AF32200025C7F844D006F0AAFCF8
:103B0000C14BC7F8F4501B680120C7F8F830D7F84C
:103B1000F83008F06DFFC7F8A0000420C7F8FC508B
:103B2000C7F8005108F064FFB84BC7F89C001B6849
:103B3000073323F00703ADEB030DB54B1B687B6622
:103B40001B01083308ACADEB030D08AEC7F8CC6021
:103B500003E0002106F039FF0135D7F8CC6006EB11
:103B600005107E6EB542F4D1A84BA94E1A682046C6
:103B7000002109F039FB002507E0D7F8CC1001EB54
:103B80000510A44906F059FF013533689D42F4DB66
:103B90000020FFF759F8A04B10251D600A2006F001
:103BA00059FC9E4B9E491D6007F5CC7006F00DFF39
:103BB00040F2F93598E007F5CC7006F0D4FFC7283D
:103BC00042F34A8702F0C0BE0A2006F043FC8BE0B5
:103BD00094499548FCF75AFD92499448FCF756FDE4
:103BE00082E0FCF779FD7FE0FEF726FC7CE0FCF745
:103BF00099FD79E0FCF7D6FD76E00120FFF724F887
:103C000072E0FFF75FFA6FE000200AE0FFF7B6FA14
:103C10006AE03C2001E04FF49670FFF7C7FB63E0D9
:103C20000120FEF7F1FE5FE04FF40770F5E74FF477
:103C30005C70F2E74FF48C60EFE7FCF7E9FC53E0CF
:103C40000120FEF7DBFF4FE0282024E04FF4AA60BC
:103C500021E04FF4AB601EE04FF4AC601BE04FF48A
:103C6000AD6018E04FF4AE6015E04FF4AF6012E0C5
:103C7000FCF75AFF38E005F05DFCFCF775FF33E018
:103C80004FF4B06007E04FF4B16004E04FF4B2606D
:103C900001E040F29650022104220123FFF704FBC9
:103CA00022E00422002340F29E500121FFF7FCFA9B
:103CB0005F495D48FCF7D5FC5D495C48FCF7D1FCE9
:103CC0005C4940F29E50FEF78DFE5B4907F5E470BB
:103CD00006F07BFE07F5E47056490122FDF7EEF988
:103CE00007F5E47006F030FE04F046FE5B2802F0B3
:103CF000D58605F0B1FA5B2842F0B88602F0CEBE58
:103D000005F0AAFA5B280CBF0225002500E001257A
:103D100004F00AFE05F088FA012D0DD0022D58D0CE
:103D200046494148FCF7B2FC002640484349FCF7AD
:103D3000ADFCC7F8C860B5E03B484FF4FA6107F046
:103D4000A5F8324B38481B6821212246002607F08F
:103D50009FF841F28735C7F8C860A35D7B2B1BD164
:103D600004E0484606F0A2FE013607E0D7F8C81086
:103D7000D7F8CC204FEA011802EB0809A15D7D2994
:103D8000EFD1D7F8CC3003EB080006F08FFED7F860
:103D9000C8100131C7F8C8100136AE42DDDD00247D
:103DA00012E0D7F8CC60302106EB041507F5E4707B
:103DB00006F05EFE07F5E471284606F09AFE07F568
:103DC000E47006F0C1FD0134D7F8C860B442E8DB06
:103DD00068E016484FF47A7107F058F80B4B134817
:103DE0001B6821212246002607F052F841F2873550
:103DF000C7F8C860A35D7B2B38D121E0484606F0A8
:103E000055FE013624E000BFDC9AFF1F8489FF1FA6
:103E10007C89FF1F1A050100C8F00F40C4F00F4055
:103E200012070100D4080100249BFF1FE89AFF1F1E
:103E3000BD030100F489FF1F6A070100E4080100C7
:103E4000D7F8C810D7F8CC204FEA011802EB0809C0
:103E5000A15D7D29D2D1D7F8CC3003EB080006F064
:103E600025FED7F8C8100131C7F8C8100136AE4298
:103E7000C0DD002412E0D7F8CC60302106EB041539
:103E800007F5E47006F0F4FD07F5E471284606F046
:103E900030FE07F5E47006F057FD0134D7F8C8602E
:103EA000B442E8DB7849794D7948FCF7DAFB76498A
:103EB0007848FCF7D6FB286807F072FE0224024619
:103EC0000B4600947248FCF7D2FB286807F068FEA6
:103ED000009402460B466F48FCF7C9FB6E496C48DC
:103EE000FCF7BFFB03246C496A48FCF7BAFB00945B
:103EF00063A3D3E900236648FCF7B9FB60A3D3E9C9
:103F0000002300946348FCF7B2FB64496148002633
:103F1000FCF7A7FB5E486149FCF7A3FBC7F8BC6050
:103F2000C7F8A460C7F8D4600D26BE650126FE66FA
:103F300007F5C27600243E6659495648FCF791FBC6
:103F400053485749FCF78DFB002602F097BCD7F881
:103F5000A00008F055FDD7F898603401D7F8CC6080
:103F6000331907F1FC0A9D68681C08F041FD3159BE
:103F7000C7F8A0002A4609F047FDD7F8A060002442
:103F8000745507F5C67007F5287503F055F9D7F88D
:103F9000A0102A464FF4167307F5C67003F02FF8E9
:103FA000D7F8A010A0420CBF2A462246386E02F075
:103FB000A2FF3E6E96E803008AE80300002802F0A4
:103FC0007485C9B902F071BDD7F8CC10314801EB46
:103FD00004152946FCF750FB01342D482946FCF70F
:103FE0004BFBB442F0D1FDF750FF07F5CC7006F063
:103FF000ABFC002502F097BC07F582767C67C7F81A
:10400000DC6007F5BE742749504602F0C5FF014643
:1040100007F5D47006F0D9FC2349504602F0B2FFF0
:104020005046224902F0AEFF214B186008B9012228
:104030001A602049204D504602F0A4FF1F49C7F8DE
:10404000D000504602F09EFF1D49F866504602F02F
:1040500099FF1C493861504602F094FF1A493862B2
:10406000504602F08FFF002808BF012078651749ED
:10407000504602F087FF58BB0D232B602DE000BF98
:10408000448B6CE7FBA9D93F0A0901001094FF1F7C
:10409000E89AFF1F249BFF1F190901002F09010047
:1040A000F60201003C090100480901004F09010026
:1040B0007889FF1F580901006489FF1F6709010003
:1040C000740901008709010097090100A109010095
:1040D00050468E4902F056FF28608D49504602F046
:1040E00051FF002808BF0A20B8628A49504602F0F2
:1040F00049FF002808BF102078628749504602F027
:1041000041FF002808BF032038658449504602F06B
:1041100039FF002808BF0320F8648149504602F0A7
:1041200031FF8049F861504602F02CFF7E49C7F804
:104130009000504602F026FF7C493864504602F059
:1041400021FF7B49B867504602F01CFF7949B861EE
:10415000504602F017FF07F5867BC7F8D800514696
:1041600007F58270744A02F0FFFE07F58A7658461A
:104170005146724A02F0F8FE3046C7F8E4605146F4
:1041800007F58E766E4A02F0EFFE07F5927930461B
:1041900051466C4AC7F8E06002F0E6FE6A4A6B4E90
:1041A0004846514602F0E0FE6949504602F0EAFEF8
:1041B0006849C7F8C400504602F0E4FE6649C7F8F3
:1041C000C000504602F0DEFE6449C7F8B800504611
:1041D00002F0D8FE6249C7F8B400504602F0D2FEA1
:1041E0006049C7F8B000504602F0CCFE5E49C7F8FF
:1041F000AC00504602F0C6FE5C49C7F8A800504625
:1042000002F0C0FE5A49C7F88C00504602F0BAFED0
:104210005849C7F88800504602F0B4FE5649C7F81E
:104220008400504602F0AEFE5146C7F88000534A63
:1042300007F5967002F098FE07F59A705146504ABD
:1042400002F092FE07F59E7051464E4A02F08CFE37
:1042500007F5A27051464C4A02F086FE07F1E805C8
:1042600007F5A6705146494A02F07EFE284651469F
:10427000474A02F079FE95E80300464A86E80300C3
:104280002846514602F070FE95E80300424E434A2C
:1042900086E803002846514602F066FE95E80300D2
:1042A0003F4E404A86E8030007F5AA70514602F0E7
:1042B0005BFE07F5AE7051463B4A02F055FE07F52E
:1042C000B2705146394A02F04FFE002507F5B6702C
:1042D0005146374A02F048FEBD66FD678EE029462A
:1042E00007F5967002F0F3FD07F5AE7106462A4613
:1042F000204602F0DEFD2046FCF7E9F9BB6E4FF0E8
:10430000000800FB0633BB66464662E0A1090100D7
:10431000B6090100C0090100CB090100DC09010058
:10432000EB0901000A0A0100150A01001F0A010039
:104330002D0A0100380A0100430A0100530A010056
:104340005F0A01006E0A01007C0A01002C94FF1F25
:104350008A0A0100970A0100A40A0100B10A0100BB
:10436000BE0A0100CB0A0100D80A0100E50A0100DB
:10437000F20A0100FF0A01000C0B01001A0B0100F8
:10438000210B01002D0B0100390B0100450B010031
:10439000510B0100610B01001494FF1F720B01000F
:1043A000FC93FF1F820B01008C0B0100980B010096
:1043B000A60B0100204607F5AE712A4602F079FDF2
:1043C0004146204602F083FD0028C8BF013608F1AF
:1043D0000108204607F5AE712A4602F06AFD204624
:1043E000FCF775F98045E5DB294607F5967002F084
:1043F0006EFDF96F06FB0011F967013507F5967040
:10440000FCF765F98542FFF66AAFD7F89C0008F023
:10441000F7FA0421F86F08F075FA8449C7F89C0090
:104420008348FCF71EF981498248FCF71AF90520F8
:10443000FCF71CFD8049C7F894007D48FCF711F992
:104440007D497C48FCF70DF907F5D471784806F0F2
:10445000D1FD07F5D471774806F0CCFD7749744853
:10446000FCF7FFF873487549FCF7FBF8D7F8D8302C
:10447000012B02D11846FCF731FFD7F8B060009647
:10448000D7F8AC300193D7F8A8600296D7F88C30F3
:104490000393D7F888600496D7F884300593D7F84B
:1044A0008060069607F5E475D7F8B820D7F8B430E1
:1044B000D7F8C400D7F8C010FCF7D6FF60492846EB
:1044C00006F083FAD7F8DC6096E803000022134672
:1044D0008DE8030002955B495B48FCF719FA284612
:1044E00006F032FA5949284606F06FFAD7F8E46028
:1044F00096E80300002213468DE803000295544914
:104500005448FCF705FA284606F01EFA5249284698
:1045100006F05BFAD7F8E06096E803000022134645
:104520008DE8030002954D494D48FCF7F1F9284606
:1045300006F00AFA4B49284606F047FA99E80300C4
:10454000002213468DE80300029547494748FCF7CF
:10455000DFF9284606F0F8F9454B4649D3F80080C4
:10456000454B28461E6806F030FA9BE803008DE8AC
:104570000300002033460146424602953F4EFCF7B9
:10458000C7F9284606F0E0F93368012B17DD3C49EE
:104590002848FCF766F83A492548FCF762F8316884
:1045A0002448FCF762F831682148FCF75EF8354989
:1045B0002048FCF756F81E483249FCF752F8324BB7
:1045C000386C00261E60314B1E60314B1E60314B33
:1045D0001E60314B1E60314B1E60314B1E60314BF3
:1045E0001E60314B1E60314B1E60FCF751FEB96FEF
:1045F000D7F8D02030234B43013BFB634FF47A7351
:1046000053437B6107F1F4060023C7F8D830C7F89D
:10461000AC30C7F8B030C7F8B430C7F8B83007F5D9
:10462000BA7BC7F8A86002F06CB800BFBD030100F8
:10463000249BFF1FE89AFF1FAE0B0100BE0B010079
:10464000430A0100E091FF1F8895FF1F5F0A0100E8
:10465000DC94FF1F4C92FF1F6E0A01007491FF1F34
:104660007490FF1F7C0A01005093FF1FE892FF1F08
:10467000F089FF1F530A0100F495FF1F7889FF1F7F
:10468000C10B0100BF0B01001C94FF1FE493FF1F2F
:104690004892FF1F2494FF1F3494FF1FCC93FF1FE9
:1046A000C494FF1FD094FF1F2094FF1F3894FF1F56
:1046B000584607F5B271324602F0FBFB584601211D
:1046C00002F005FC8046002859D13246204607F505
:1046D000B27102F0EEFB4146204602F002FC0146B8
:1046E000284606F072F92846BC4906F010FA10F187
:1046F000000818BF4FF00108284606F025F9B8F168
:10470000000F3CD03246204607F5B27102F0D1FBD3
:104710000121204602F0DBFBFCF77CFAB04BD7F816
:10472000D8101B68013B994229D1AE49DFF8DC92D1
:10473000AD48FBF796FFAB49AC48FBF792FFD9F8C1
:10474000000007F02DFA4FF0020802460B46CDF8A4
:104750000080A548FBF78BFFA549A348FBF781FF25
:10476000D9F8000007F01CFACDF8008002460B468D
:104770009E48FBF77CFF9D489D49FBF772FF58461A
:1047800007F5B271324602F094FB5846012102F05F
:104790009EFB8046002859D13246204607F5B2716B
:1047A00002F087FB4146204602F09BFB014628466B
:1047B00006F00BF928468F4906F0A9F910F1000818
:1047C00018BF4FF00108284606F0BEF8B8F1000FF8
:1047D0003CD03246204607F5B27102F06AFB012157
:1047E000204602F074FBFCF71AFA7D4BD7F8D8206C
:1047F0001B68013B9A4229D17F49DFF814927A481D
:10480000FBF72FFF7C497948FBF72BFFD9F8000015
:1048100007F0C6F94FF0020802460B46CDF80080BB
:104820007148FBF724FF72496F48FBF71AFFD9F86C
:10483000000007F0B5F9CDF8008002460B466B4842
:10484000FBF715FF69486A49FBF70BFF584607F568
:10485000B271324602F02DFB5846012102F037FBBF
:104860008046002859D13246204607F5B27102F041
:1048700020FB4146204602F034FB0146284606F064
:10488000A4F828465D4906F042F910F1000818BF67
:104890004FF00108284606F057F8B8F1000F3CD059
:1048A0003246204607F5B27102F003FB0121204693
:1048B00002F00DFBFDF7E4FA494BD7F8D8101B685E
:1048C000013B994229D14E49DFF848914648FBF710
:1048D000C8FE4B494548FBF7C4FED9F8000007F075
:1048E0005FF94FF0020802460B46CDF800803E48C3
:1048F000FBF7BDFE3E493C48FBF7B3FED9F800008C
:1049000007F04EF9CDF8008002460B463748FBF71A
:10491000AEFE36483649FBF7A4FE584607F5B2719D
:10492000324602F0C6FA5846012102F0D0FA80461B
:1049300000287AD13246204607F5B27102F0B9FA62
:104940004146204602F0CDFA0146284606F03DF8E1
:1049500028462C4906F0DBF810F1000818BF4FF08C
:104960000108284605F0F0FFB8F1000F5DD032468F
:10497000204607F5B27102F09CFA0121204602F0B0
:10498000A6FAFDF717F9164BD7F8D8201B68013B9C
:104990009A424AD11C49DFF880901348FBF761FE28
:1049A00019491248FBF75DFED9F8000007F0F8F846
:1049B0004FF0020802460B46CDF800800A48FBF78C
:1049C00056FE0B490848FBF74CFED9F8000007F0EB
:1049D000E7F8CDF8008002460B461FE0CD0B010042
:1049E0007889FF1FDF0B0100E89AFF1F249BFF1F40
:1049F000BF0B01000F0C0100F40B0100030C0100C0
:104A00001B0C0100360C01003A0C01004892FF1FFC
:104A10002494FF1F3494FF1FCC93FF1FC148FBF762
:104A200026FEC048C049FBF71CFE584607F5B27188
:104A3000324602F03EFA5846012102F048FA80461A
:104A4000002840F0E4803246204607F5B27102F0BB
:104A500030FA4146204602F044FA0146284605F065
:104A6000B4FF2846B14906F052F810F1000818BF0B
:104A70004FF00108284605F067FFB8F1000F00F07D
:104A8000C6803246204607F5B27102F012FA0121C3
:104A9000204602F01CFAFCF7C7F8A54BD7F8D8104F
:104AA0001B68013B994240F0B280DFF8A492A14913
:104AB000A148FBF7D6FD9F499A48FBF7D2FDD9F8EC
:104AC0000000FCF775FA07F06BF84FF00208024699
:104AD0000B46CDF800809848FBF7C9FD92499648EF
:104AE000FBF7BFFDD9F80000DFF86892FCF760FA29
:104AF00007F056F8CDF8008002460B468948FBF7D0
:104B0000B6FD89498748FBF7ACFD8C498A48FBF71D
:104B1000A8FD8A498348FBF7A4FDD9F80000FCF7FB
:104B200047FA07F03DF8CDF8008002460B46824870
:104B3000FBF79DFD7C498048FBF793FDD9F8000009
:104B4000DFF81492FCF734FA07F02AF8CDF8008069
:104B500002460B467348FBF78AFD73497148FBF721
:104B600080FD77497448FBF77CFD75496D48FBF77C
:104B700078FDD9F80000FCF71BFA07F011F8CDF822
:104B8000008002460B466C48FBF771FD66496A4897
:104B9000FBF767FDD9F80000DFF8C091FCF708FAD1
:104BA00006F0FEFFCDF8008002460B465D48FBF79D
:104BB0005EFD5D495B48FBF754FD62495E48FBF7CB
:104BC00050FD60495748FBF74CFDD9F80000FCF751
:104BD000EFF906F0E5FFCDF8008002460B46564897
:104BE000FBF745FD50495448FBF73BFDD9F8000061
:104BF000FCF7DEF906F0D4FFCDF8008002460B4644
:104C00004848FBF734FD47484749FBF72AFD58461B
:104C100007F5B271324602F04CF95846012102F014
:104C200056F98046002840F0F4803246204607F5C9
:104C3000B27102F03EF94146204602F052F90146B7
:104C4000284605F0C2FE28463F4905F060FF10F1F6
:104C5000000818BF4FF00108284605F075FEB8F1AE
:104C6000000F00F0D6803246204607F5B27102F000
:104C700020F90121204602F02AF9FBF7D5FF2C4B41
:104C8000D7F8D8201B68013B9A4240F0C280DFF879
:104C9000C0902E492848FBF7E4FC2C492148FBF73B
:104CA000E0FCD9F8000006F07BFF4FF00208024656
:104CB0000B46CDF800802048FBF7D9FC1A491E4866
:104CC000FBF7CFFCD9F80000DFF8889006F068FF0A
:104CD000CDF8008002460B461248FBF7C8FC12498B
:104CE0001048FBF7BEFC15491348FBF7BAFC134903
:104CF0000C48FBF7B6FCD9F8000006F051FFCDF8E0
:104D0000008002460B460C48FBF7B1FC06490A48F6
:104D1000FBF7A7FCD9F80000DFF83C9006F040FF55
:104D20001EE000BF249BFF1FBF0B0100FA0901001A
:104D30007889FF1F410C0100E89AFF1F540C010005
:104D4000590C01005E0C0100630C0100770C01009E
:104D5000C494FF1FD094FF1F2094FF1F3894FF1F9F
:104D6000CDF8008002460B46B048FBF780FCB04906
:104D7000AE48FBF776FCAF49AF48FBF772FCAD4994
:104D8000AA48FBF76EFCD9F8000006F009FFCDF841
:104D9000008002460B46A848FBF769FCA449A648D8
:104DA000FBF75FFCD9F80000DFF8B09206F0F8FEE0
:104DB000CDF8008002460B469C48FBF758FC9C4906
:104DC0009A48FBF74EFC9D499B48FBF74AFC9B49E0
:104DD0009648FBF746FCD9F8000006F0E1FECDF856
:104DE000008002460B469448FBF741FC90499248EC
:104DF000FBF737FCD9F8000006F0D2FECDF80080B2
:104E000002460B468948FBF732FC88488849FBF785
:104E100028FC584607F5B271324602F04AF8584667
:104E2000012102F054F8804600284FD13246204636
:104E300007F5B27102F03DF84146204602F051F804
:104E40000146284605F0C1FD28467D4905F05FFE74
:104E500010F1000918BF4FF00109284605F074FD54
:104E6000B9F1000F32D03246204607F5B27102F098
:104E700020F80221204602F02AF85FFA80F9414624
:104E8000484605F0D3F9484605F00CFC6D4BD7F8C1
:104E9000D8101B68013B9942804617D16A49664881
:104EA000FBF7DFFB68496148FBF7DBFB41466248E3
:104EB000FBF7DBFB5E496048FBF7D3FB41465B48F1
:104EC000FBF7D3FB59485A49FBF7CBFB584607F58C
:104ED000B271324601F0EDFF5846012101F0F7FFB3
:104EE000804600284FD13246204607F5B27101F0C6
:104EF000E0FF4146204601F0F4FF0146284605F058
:104F000064FD2846514905F002FE10F1000918BF62
:104F10004FF00109284605F017FDB9F1000F32D016
:104F20003246204607F5B27101F0C3FF0221204648
:104F300001F0CDFF5FFA80F94146484605F076F969
:104F4000484605F067F93F4BD7F8D8201B68013B6E
:104F50009A42804617D13E493748FBF782FB3C49CD
:104F60003248FBF77EFB41463348FBF77EFB304976
:104F70003148FBF776FB41462C48FBF776FB2B4884
:104F80002B49FBF76EFB584607F5B271324601F02C
:104F900090FF5846012101F09AFF804600285FD11A
:104FA0003246204607F5B27101F083FF41462046A4
:104FB00001F097FF0146284605F007FD28462549E0
:104FC00005F0A5FD10F1000818BF4FF001082846B4
:104FD00005F0BAFCB8F1000F42D03246204607F582
:104FE000B27101F066FF0221204601F070FF3246E7
:104FF000804607F5B271204601F05BFF0321204691
:1050000001F065FF5FFA88F881460121404605F00E
:105010000DF9114A52F8382019F0FF0F4FF0010333
:1050200014BF82F8803082F8003119E0249BFF1F02
:10503000BF0B0100590C0100E89AFF1F5E0C010034
:105040008E0C01007889FF1F9A0C0100A90C010049
:10505000B60C0100C60C0100E80E01003894FF1FD9
:10506000584607F5B271324601F023FF5846012138
:1050700001F02DFF8146002867D13246204607F512
:10508000B27101F016FF4946204601F02AFF0146A1
:10509000284605F09AFC2846A84905F038FD10F18D
:1050A000000818BF4FF00108284605F04DFCB8F184
:1050B000000F4AD03246204607F5B27101F0F9FEE2
:1050C0000221204601F003FF3246804607F5B27107
:1050D000204601F0EEFE0321204601F0F8FE3246A4
:1050E000844607F5B2712046C7F804C001F0E1FE1E
:1050F0000421204601F0EBFE3246C7F8D00007F548
:10510000B271204601F0D5FE0521204601F0DFFEF8
:105110005FFA88F8034601214046BB6005F086F837
:105120004046D7F8D01004F0FDFFD7F804C0404641
:10513000614605F097F8BB68184605F08BF94046C4
:10514000494605F08FF8FDF729FB584607F5B2717F
:10515000324601F0AEFE5846012101F0B8FE80460D
:10516000002840D13246204607F5B27101F0A1FE79
:105170004146204601F0B5FE0146284605F025FCD3
:1051800028466F4905F0C3FC10F1000818BF4FF026
:105190000108284605F0D8FBB8F1000F23D0D7F856
:1051A000D83003BB67496848FBF75BFA6549674835
:1051B000FBF757FAD7F8D82065492846FBF7F0FDEA
:1051C0002946614805F016FF62495F48FBF749FA36
:1051D00029465E4805F00EFF5C485E49FBF741FA40
:1051E000284605F0B1FB013600E0002607F5B27055
:1051F000FBF76DFA8642FFF65BAABA6A564ED1B249
:105200003068002202F090FD7B6A3068D9B200223B
:1052100002F066FD396D052919D8DFE801F00307B2
:105220000A0D1013002130680A460EE03068012193
:105230000AE03068022107E03068032104E03068AA
:10524000042101E030680521002202F055FDFB6CCD
:10525000052B19D8DFE803F003070A0D101300210E
:1052600030680A460EE0306801210AE03068022109
:1052700007E03068032104E03068042101E0306871
:105280000521002202F044FD022005F0E3F8334B33
:105290001868FBF78DFE0026C7F8C000C7F8C46089
:1052A000BE64C7F88C60C7F8D060FAE3D7F8D46062
:1052B000002E2FD1D7F8D060002E3CD103F0FAFB9E
:1052C000BE6D274BF2B253F83230012283F8002131
:1052D00005F0A2F8B96F0029064608DB214B4A1EEB
:1052E0009A4204D820482149FA6B05F09CFD05F04C
:1052F00093F83A6C801B9042F9D3BE6F002E0CDB02
:10530000184B721E9A4208D81949FA6B194805F0D1
:105310008AFD02E0D7F8D06076BB204607F5AE7173
:10532000D7F8D42001F0C5FD2046FBF7D0F90126BF
:10533000C7F8A40021E0D7F8D4601EE0D40C010027
:10534000E10C0100E60C0100E89AFF1F249BFF1FFF
:10535000C0C62D00BE0B0100C894FF1FC494FF1FE0
:10536000E80E010054555505B893FF1F5105000084
:105370007D0500004C91FF1F0026D7F8D420C7F808
:105380008860204607F5AE7101F093FDD7F8A8605C
:105390003368D7F8A460B3FBF6F106FB1131204661
:1053A00001F095FD8C4BD7F8D420186007F5AA7151
:1053B000204601F07EFDD7F8A8603368D7F8A460D6
:1053C000B3FBF6F106FB1131204601F080FDD7F862
:1053D000D010824BB142186080F2FF81002940F06A
:1053E0008B81D7F8D420204607F5B67101F061FD16
:1053F000D7F8D010204601F074FD014607F5DC70A7
:1054000005F0E3FA07F5DC70754905F080FB20B183
:10541000D7F89460013640F00E81D7F8D860002E9E
:1054200001F0568307E16F496F48FBF71AF901262F
:105430006E486C49FBF715F9BE64D7F894600136E5
:105440000CD16B496848FBF70CF94FF0FF36674801
:105450006749FBF706F9C7F8946047E10520FBF7B9
:1054600005FDC7F894000130EBD062495E48FBF7B8
:10547000F8F860495D48FBF7F4F807F5DC715A4825
:1054800005F0B8FD07F5DC71584805F0B3FD5A4941
:105490005548FBF7E6F858495448FBF7E2F85749F6
:1054A0005148FBF7DEF855495048FBF7DAF8D7F8D2
:1054B000D420204607F5B67101F0FBFC01212046FF
:1054C00001F00FFD01464848FBF7CBF8D7F8D42090
:1054D000204607F5B67101F0ECFC0121204601F0F1
:1054E00000FD01464148FBF7BCF843493E48FBF745
:1054F000B8F841493D48FBF7B4F807F5DC7040497E
:1055000005F005FB30B13F493748FBF7AAF83748AB
:105510003C4910E007F5DC703B4905F0F8FA68B14A
:105520003A48FBF7A3FC0130FAD139492E48FBF782
:1055300098F82E483649FBF794F83DE007F5DC7003
:10554000344905F0E4FA064680B13048FBF78EFC9A
:10555000012808D130492448FBF783F82E49234815
:10556000FBF77FF8C2E00130EFD1DEE707F5DC7032
:105570002A4905F0CCFAF8B1324628462349FBF710
:105580000FFC1E491848FBF76CF81C491748FBF73D
:1055900068F82946154805F02DFD2946124805F002
:1055A00029FD1F491048FBF75CF810481C49FBF720
:1055B00058F8284605F0C8F907F59670FBF787F804
:1055C000D7F8D4600138864207482DD01549FBF73B
:1055D00048F8064813492CE0F893FF1F2894FF1F52
:1055E0001A050100EF0C0100E89AFF1F249BFF1F22
:1055F000FB0C0100000D0100BE0B0100C206010002
:1056000012070100030D0100070D0100C0C62D00A7
:105610000D0D0100130D01001B0D0100270D0100F0
:10562000040D0100BF0B0100A949FBF71AF8A948B6
:10563000A749FBF716F8D7F8D41007F59A7001F0D0
:1056400046FCD7F8D420D7F8C030D7F89010804661
:10565000FCF7A0FFD7F8D410C7F8840007F59E70B8
:1056600001F035FCD7F8D420D7F8C030D7F8901027
:105670008146FCF78FFFD7F8D410C7F8800007F5F4
:10568000A27001F024FCD7F8D420D7F8C030D7F8A6
:1056900090107860FCF77EFFD7F8D410386707F5D4
:1056A000A67001F014FCD7F89010D7F8D420D7F8E2
:1056B000C030F865FCF76EFF064607F5DC7005F0B4
:1056C00043F907F1AC010EC9F9623A63D7F8B81093
:1056D000FA6DD7F804C07B63B963C7F8AC20C7F88C
:1056E000B0C0C7F8B490C7F8B8800BE007F5DC701D
:1056F00005F02AF901F00CB800263E67C7F8806073
:10570000C7F88460DFF80082D7F8C030D8F800000E
:10571000D7F89010D7F8D420FCF73CFFD8F8003029
:10572000023B122B3BD8DFE803F0283A3A3A3A3AE8
:105730003A3A2E161C3A340A103A3A3A2200664B8C
:1057400066481A88032101F0A7FE634B63481A8854
:10575000032101F0A1FE604B60481A88032101F08B
:105760009BFE5D4B5D481A88032101F095FE5C4B62
:105770005A481A88002101F08FFE594B57481A8861
:10578000002101F089FE574B54481A88022101F08C
:1057900083FE544B51481A88022101F07DFE524A83
:1057A000042313602022013AFDD1504A1360D7F838
:1057B000D020C2B94A4B494811461A8801F06CFE04
:1057C000454B46481A88032101F066FE454B434885
:1057D0001A88022101F060FE05E000263E67C7F846
:1057E0008060C7F88460424A42491368086800280C
:1057F000FBD0D3F1010838BF4FF00008B8F1000F1B
:10580000F3D14FF4C853013BFDD104F005FEC1466E
:10581000F86507F5EC78384B3849002208681978A4
:1058200002F08EFA06F0FCFD48F8090009F10409BF
:10583000B9F1C80FEFD104F0EFFD4FF00009844635
:1058400058F80900C7F804C006F0AAF90B4602216F
:10585000024600911F48FAF70AFF09F104091D48A2
:105860002749FAF7FEFEB9F1C80FD7F804C0E7D10F
:10587000FA6D1848C2EB0C0105F024FC21491548CB
:10588000FAF704FF13481F49FAF700FF00221CE053
:1058900058F802C058F80930FA6060461946BB60F3
:1058A000C7F804C006F0CCFFFA68BB68D7F804C09C
:1058B00018B148F8023048F809C009F10409B9F1F3
:1058C000C80FE5D10432C82A20D04FF00009DFE725
:1058D000240D0100249BFF1FF895FF1FB492FF1FAA
:1058E000DC91FF1F0C94FF1F88F00F4084F00F40E5
:1058F0006091FF1FB894FF1F2894FF1FC894FF1FDB
:10590000BF0B01001A050100F893FF1FD8F86000D3
:1059100006F0A0FF954B1860954B10221A60D7F83F
:105920008830012B56D1B96B924BCAB2D7F8881088
:1059300053F8322082F80011D7F88420012A08D1C8
:10594000D7F8B810CAB2D7F8841053F8322082F8CA
:105950008010796BCAB253F83230012283F80021EB
:10596000D7F88020012A09D1D7F8B430D7F88010B1
:10597000DAB2804B53F8323083F88010396B7D4BAC
:10598000CAB2012153F8322082F800113A6F8A42DC
:1059900007D1D7F8B010CAB2396F53F8322082F865
:1059A0008010F96ACAB253F832300122964283F865
:1059B000002107D1D7F8AC30DAB26E4B53F8323051
:1059C00083F880606C4A042313602022013AFDD1E1
:1059D0006A4A1360BE695EB9694B1B68222B02D00C
:1059E000232B05D101E0674B00E0674B1E6800E008
:1059F0000026664B1B6803B3D7F88C20D7F89C10A1
:105A00005A4B51F82200D3F8009006F009FD804669
:105A1000484606F005FD314606F04CFC014640467E
:105A200006F04AFC06F016FFD7F88C10D7F89C60F9
:105A300046F821000131C7F88C1072B6544BD7F8E4
:105A4000D02000261E60534B01321E60C7F8D020C4
:105A500062B6D7F8A8100B6801330B6007F5967093
:105A6000D7F8D41001F033FAD7F8D420804607F5E0
:105A7000AE71204601F01DFA2046FAF728FED7F84D
:105A8000D02000FB08F0824206D1D7F8D430C7F806
:105A9000D0600133C7F8D430D7F8C4600136C7F8F6
:105AA000C460D7F8C460B96E8E42FFF6FFABFA69E6
:105AB000394E00923068D7F8D420D7F8C030D7F8E4
:105AC0009010FCF7FFFD3368D7F8B860294A9E4272
:105AD00005D0F1B2012652F8311081F80061D7F8F3
