:1000000000800020BD0100005580000055800000E8
:1000100055800000558000005580000021800000C0
:100020002180000021800000218000005580000018
:1000300055800000218000005580000011800000E4
:10004000558000005580000055800000558000005C
:10005000558000005580000055800000558000004C
:10006000558000005580000055800000558000003C
:10007000558000005580000055800000558000002C
:10008000558000005580000055800000558000001C
:10009000558000005580000055800000558000000C
:1000A000656B000055800000558000005580000001
:1000B00055800000558000005580000055800000EC
:1000C00055800000558000005580000055800000DC
:1000D00055800000558000005580000055800000CC
:1000E00055800000558000005580000055800000BC
:1000F000558000008D84000055800000459200006E
:1001000055800000417300005580000055800000BC
:10011000558000005580000055800000558000008B
:10012000558000005580000055800000558000007B
:10013000558000005580000055800000558000006B
:10014000558000005580000055800000558000005B
:10015000E996000001970000199700003197000010
:10016000558000008D75000055800000558000000E
:10017000558000005580000055800000558000002B
:10018000558000005580000055800000558000001B
:10019000558000005580000055800000A5890000B2
:1001A000F58900007D8A0000398B0000BD8B0000BE
:1001B00055800000558000004D9400004F4B4CF2DC
:1001C000205210B51A804DF628121A80102223F8FA
:1001D0000E2C07F042FF4A4B4FF010621A60494A5A
:1001E0009A60494ADA60494B1A6812F4807204D165
:1001F00047490A604FF4A8521A60464B1A7802F039
:100200000802D2B21AB11A7842F008021A7000231A
:10021000414A4248424C02E0195999500433991816
:100220008142F9D33F4B404A002101E043F8041BCF
:100230009342FBD33D4B00221A603D4B3D4A802147
:1002400003F8011B9342FBD13B4B0A221A703B4B34
:1002500024221A70A02203F8012C394A137803F0E3
:100260000203DBB2002BF9D0354A137803F01003F8
:10027000DBB2002BF9D1324A137803F00C03082BC0
:10028000FAD1304B03221A7040225A702C4A13784C
:1002900003F02003DBB2002BF9D0294A137803F0D6
:1002A0004003DBB2002BF9D0274A284B1A60284BB9
:1002B00020221A70224A137803F00C030C2BFAD177
:1002C000244B02221A60244A43F8442C234B244A2C
:1002D0001A60072243F8042C62B608F097FC0C4B16
:1002E0001B68DC0702D51F4808F080FC0AF024FEDA
:1002F00007F0B3FE09F0CFFAFEE700BF0E2005407D
:1003000030800440823F04000100002B10D00340E5
:1003100014D0034002D007400084FF1FF08AFF1F63
:1003200070FC0000F08AFF1F6097FF1F08ED00E0DF
:1003300000E400E05FE400E00050064001400640B9
:10034000064006400440064000000301448004408B
:100350000040064048800440C010050014E000E062
:10036000FF7601001759F753FFFFFFFFFFFFFFFF65
:10037000FFFFFFFFFFFFFFFFFFFFFFFFFFFFFFFF8D
:10038000FFFFFFFFFFFFFFFFFFFFFFFFFFFFFFFF7D
:10039000FFFFFFFFFFFFFFFFFFFFFFFFFFFFFFFF6D
:1003A000FFFFFFFFFFFFFFFFFFFFFFFFFFFFFFFF5D
:1003B000FFFFFFFFFFFFFFFFFFFFFFFFFFFFFFFF4D
:1003C000FFFFFFFFFFFFFFFFFFFFFFFFFFFFFFFF3D
:1003D000FFFFFFFFFFFFFFFFFFFFFFFFFFFFFFFF2D
:1003E000FFFFFFFFFFFFFFFFFFFFFFFFFFFFFFFF1D
:1003F000FFFFFFFFFFFFFFFFFFFFFFFFFFFFFFFF0D
:10040000FFFFFFFFFFFFFFFFFFFFFFFFFEFFFFFFFD
:1004100008B548F6F020074BC1F6FF701B1A062BF3
:1004200000D808BD40F20003C0F20003002BF8D052
:100430009847F6E7F38AFF1F08B548F6F02048F61C
:10044000F023C1F6FF70C1F6FF731B1A9B1003EB7C
:10045000D373591000D108BD40F20002C0F200026F
:10046000002AF8D09047F6E710B548F6F024C1F618
:10047000FF74237873B9FFF7CBFF40F20003C0F29B
:1004800000032BB14FF67040C0F20000AFF30080C4
:100490000123237010BD00BF08B540F20003C0F275
:1004A00000034BB14FF6704048F6F421C0F2000053
:1004B000C1F6FF71AFF3008048F6F020C1F6FF707F
:1004C00003682BB140F20003C0F2000303B1984768
:1004D000BDE80840FFF7B0BF10B5044609F0BCF90D
:1004E000204610BD70B503460D461646074819460E
:1004F0002A4606F0B3FD002404E0044806F016FA8C
:1005000030550134E3B2AB42F7D370BD7C90FF1F8E
:10051000034670B509480D4619461646002406F0F4
:100520009FFC03E0315D06F0BFF90134E3B2AB425A
:100530000248F7D3BDE8704006F0A7BD7C90FF1FCE
:10054000054B1A78054B53F83220012382F800310D
:10055000034A1360704700BF6490FF1F60F70000FC
:100560003C8FFF1F0A4B102210B51A60094B1A78F6
:10057000094B53F83230012483F88040074B187838
:1005800008F022F9064B1860064B1C6010BD00BF36
:10059000C8F00F406490FF1F60F70000B48EFF1F8B
:1005A000F48FFF1F988BFF1F30B5ADF5B05D81B0A4
:1005B000684600214FF4B0520BF0E6F800246D4677
:1005C00021462A5D0548013405F023FDB4F5B05FEE
:1005D000F6D10DF5017D0DF5A05D30BD7090FF1FCA
:1005E00038B5044608460D4607F0EAFC2368024683
:1005F0005B6820462946984738BD08B5FFF7F0FFED
:1006000008BD09F029BA0A22002309F0EDB9D2B2D7
:10061000002309F0E9B99DF80010009109F028BA0B
:1006200037B51348134D05F0C7FD13490446284656
:10063000FFF7E3FF204609F083FD0B460221024647
:1006400000912846FFF7E7FF0C492846FFF7D5FF42
:100650000B4B0C4D18680AF0B3F9014620460AF01E
:10066000B7FA014628680AF0F7F8286020463EBD30
:10067000788EFF1FB095FF1F44E80000DBF20000FA
:100680001884FF1FDC8CFF1F37B51348134D05F08E
:100690002FFD134904462846FFF7AFFF204609F017
:1006A0004FFD0B460221024600912846FFF7B3FF9B
:1006B0000C492846FFF7A1FF0B4B0C4D18680AF0B8
:1006C0007FF9014620460AF083FA014628680AF0BD
:1006D000C3F8286020463EBD788EFF1FB095FF1FEF
:1006E0005AE80000DBF200001884FF1F6890FF1F2B
:1006F00038B5044609F048F90546204609F066F980
:10070000401938BD38B50446FFF76AFF0546204654
:1007100009F05CF9281838BD38B5044609F09CF991
:100720000546204609F052F9281838BD38B5044668
:1007300009F092F90546204609F048F9401938BDFC
:1007400037B59DF818100091044609F091F9054657
:10075000204609F03BF928183EBD406800B1C0684A
:100760007047FFFF0D4B70B540241C60322008F02D
:100770000FFC0B4B0B4D0C4E1C600C4C31462846AD
:10078000FFF7C0FF31462046FFF7BCFF284609F0BF
:100790001DF92046BDE8704009F018B9C4F00F40BB
:1007A000C8F00F40B095FF1F6AE80000C095FF1F1A
:1007B00010B517491748184CFFF71FFF1748144981
:1007C000FFF71BFF236863B915491248FFF79AFF2B
:1007D00012481349FFF796FF124B02221A600123B9
:1007E0000DE0012B0CD110490A48FFF78BFF0B4895
:1007F0000D49FFF787FF0D4B02221A60002323608B
:10080000044809F0E3F80548BDE8104009F0DEB8F7
:100810007DE80000B095FF1F6090FF1FC095FF1F8F
:1008200076E8000084F00F4092E8000088F00F4066
:100830002DE9F74F002140F6FF724E4806F028F8E8
:100840004D4A0423202413602246013A7FF4FDAF71
:100850004A4A4B4F1360112007F0B6FF494B4A4EEE
:100860001C6005460A2008F093FB112007F0ACFF3E
:1008700083466E2008F08CFB112007F0A5FF434B48
:10088000DFF818911C60424C824621463846FFF73B
:10089000B4FE21463046FFF7B0FE28460AF090F835
:1008A0003C490AF095F909F04BFC4FF00208044668
:1008B0000D460B462246CDF800803846FFF7ABFECA
:1008C00022462B46CDF800803046FFF7A4FE49466D
:1008D0003846FFF792FE49463046FFF78EFE5846EF
:1008E0000AF06EF82B490AF073F909F029FC044666
:1008F0000D460B462246CDF800803846FFF78BFEAA
:1009000022462B46CDF800803046FFF784FE49464C
:100910003846FFF772FE49463046FFF76EFE5046F6
:100920000AF04EF81B490AF053F909F009FC044695
:100930000B462246CDF8008038460D46FFF76BFE89
:100940002246154CCDF800802B463046FFF763FE5B
:1009500021463846FFF7D6FE21463046FFF7D2FE45
:10096000384609F033F8304603B0BDE8F04F09F0DF
:100970002DB800BF488DFF1F88F00F4084F00F4056
:10098000B095FF1FC4F00F40C095FF1FC8F00F4087
:1009900098E8000000601345A9E80000DBF20000C1
:1009A0002DE9F74F81460F460CA8002192469B4641
:1009B0000E9C05F00CFD002840F3E7807449754853
:1009C000FFF71BFE2146734808F0DEFF72497148AD
:1009D000FFF713FE6E497148FFF70FFE21466F487F
:1009E00008F0D2FF6D486C49FFF707FE0026BEE015
:1009F0006B49FFF702FE31460CA805F0E8FC014602
:100A0000644809F029F867496248FFF7F6FD644930
:100A10006248FFF7F2FD31460CA805F0D8FC01460C
:100A20005E4809F019F85D485E49FFF7E6FD0024CD
:100A300088E05D4B31460CA853F8248005F0C7FCD4
:100A400009F0BEFF01464046A5000AF0A1F90028C2
:100A500077D0504600210AF09BF9002833D059F88E
:100A6000050009F06DFB022402460B46009449483C
:100A7000FFF7D1FD59F8050009F062FB009402462A
:100A80000B464648FFF7C7FD386800210AF080F999
:100A900000284DD143493F48FFF7AFFD785909F091
:100AA0004FFB009402460B463A48FFF7B4FD3D4920
:100AB0003A48FFF7A2FD785909F042FB009402463C
:100AC0000B46364832E0504609F03AFB4FF0020838
:100AD00004460D460B462246CDF800802D48FFF710
:100AE0009AFDCDF800802D4822462B46FFF793FD56
:100AF000386800210AF04CF9D0B92A492548FFF797
:100B00007CFD584609F01CFB04460B462246CDF8F6
:100B1000008020480D46FFF77EFD20482149FFF761
:100B20006CFD1E48CDF8008022462B46FFF773FD72
:100B30001E491848FFF761FD1C491848FFF75DFD85
:100B400003E001341A2C7FF474AF012008F020FA7E
:100B50000CA8FFF702FE0138864207D011490D4864
:100B6000FFF74BFD0D480F49FFF747FD01360CA875
:100B7000FFF7F3FD86420748FFF63AAF0C49FFF74F
:100B80003CFD06480A49FFF738FDBDE8FE8F00BF6F
:100B9000D8F20000B095FF1F2EF00000C095FF1F97
:100BA00031F00000DBF200002884FF1FACE80000F9
:100BB000AEE80000012801D8FFF732BD70470128D8
:100BC00001D8FFF761BD704701282DE9F8438CBFBC
:100BD000002401240CB9032871D13A4805F026FEFF
:100BE0000546384805F01BFE8146364805F010FEE4
:100BF0008046344805F005FE334907463348FFF781
:100C0000FCFC0A2229463148FFF701FD30492F48F4
:100C1000FFF7F3FC2F492D48FFF7EFFC0A22494666
:100C20002A48FFF7F4FC2A492848FFF7E6FC2A493E
:100C30002648FFF7E2FC0A2241462448FFF7E7FC7A
:100C400023492248FFF7D9FC24492048FFF7D5FC67
:100C500039461E480A22FFF7DAFC1C481C49FFF7F8
:100C6000CCFC4CB31E4B1F4E1C68B5FBF4F009F0D6
:100C7000A3FE0146306809F0EFFD3060B9FBF4F0E7
:100C800009F09AFE184E0146306809F0E5FD306023
:100C9000B8FBF4F009F090FE144E0146306809F0FC
:100CA000DBFD3060B7FBF4F009F086FE104E014624
:100CB000306809F0D1FD30602846BDE8F883BDE812
:100CC000F88300BF7C8EFF1FB1E80000B095FF1FC6
:100CD000DBF20000C5E80000CDE80000D7E8000026
:100CE0001884FF1F488FFF1F588FFF1FB08EFF1FF4
:100CF000C08EFF1F2DE9F74F2A4DDFF8B4B0DFF8A3
:100D0000B4A0294EDFF8B090DFF8B080274C5946E8
:100D10002846FFF772FCDAF8000009F011FA022702
:100D200002460B4600972846FFF775FC31462846D9
:100D3000FFF763FC49462846FFF75FFCD8F8000040
:100D400009F0FEF9009702460B462846FFF763FCC0
:100D500059462046FFF751FCDAF8000009F0F0F997
:100D6000009702460B462046FFF755FC31462046C9
:100D7000FFF743FC49462046FFF73FFCD8F8000048
:100D800009F0DEF9009702460B462046FFF743FCC8
:100D900031462846FFF731FC20463146FFF72DFC4F
:100DA000BDE8FE8FB095FF1FDBF20000C095FF1F6E
:100DB000E0E800009484FF1FEFE80000108BFF1FA5
:100DC0002DE9F041064690B02448314608F0BCFABF
:100DD0002348314608F0B8FA2022002108A80AF07A
:100DE000D3FC04A8002108F0ACFB1E4B1A6801924A
:100DF000019F1A680292029A984607F013F810B9F8
:100E000007F0E8FAC8B107F00DF8002801DD134833
:100E100004E007F0DFFA002817DD114808AA2023B4
:100E20002B2108F093FA08A904A808F0C2FB049843
:100E30000AF02CF804460D4607E0D8F8003003937A
:100E4000039BDB1BB342D8DDDDE704A808F038FBC9
:100E50002046294610B0BDE8F08100BFB095FF1FC5
:100E6000C095FF1F2895FF1F2DE9F743DFF89090ED
:100E7000DFF89080D9F800101F4C204F054609F08C
:100E8000E9FCD8F8001009F0A3FE09F0B3FF06460C
:100E9000284609F055F9022502460B4600952046E2
:100EA000FFF7B9FB39462046FFF7A7FBD9F800004A
:100EB00009F046F9009502460B462046FFF7ABFBCA
:100EC00039462046FFF799FBD8F8000009F038F9B9
:100ED000009502460B462046FFF79DFB394620460B
:100EE000FFF78BFB20463146FFF716FC304609F032
:100EF00067FDBDE8FE8300BFB095FF1FDBF2000079
:100F0000108BFF1F9484FF1F2DE9F341374D0646D8
:100F10000F460024304609F053FD014655F82400E1
:100F200009F036FF30B1324B53F82450314B53F8AF
:100F3000244004E001341A2CECD10024254620463C
:100F400000214FF0010809F023FF08B14FF000081D
:100F50005FFA88F8B8F1000F08D128460021012671
:100F600009F016FF00B14646F6B25EB1384609F008
:100F700027FD214609F06EFC294609F029FE09F0FB
:100F80005FFF06461C491D48FFF737FB39461B48E3
:100F9000FFF737FB1A491948FFF72FFB284609F0DE
:100FA000CFF8022502460B4600951448FFF733FBA5
:100FB00013491248FFF721FB204609F0C1F80095BC
:100FC00002460B460D48FFF726FB0D490B48FFF77D
:100FD00014FB31460A220023084808F005FD0748A3
:100FE00008F0F4FC3046BDE8FC8100BF2884FF1FF8
:100FF000E08CFF1F648FFF1F04E90000B095FF1F06
:10100000DBF2000073B50D460446334933481646FB
:10101000FFF7F3FA2146314808F0B6FC30492F4873
:10102000FFF7EBFA2C492F48FFF7E7FA21462D4846
:1010300008F0AAFC2A492B48FFF7DFFA286809F0D4
:101040007FF8022402460B4600942448FFF7E3FA97
:10105000286809F075F8009402460B462148FFF70E
:10106000DAFA21491D48FFF7C8FA1F491D48FFF762
:10107000C4FA686809F064F8009402460B46174801
:10108000FFF7C9FA686809F05BF8009402460B465E
:101090001448FFF7C0FA15491048FFF7AEFA114897
:1010A0001249FFF7AAFA012E0C4805D00E49FFF7A6
:1010B00029FB0C480C490CE00D49FFF723FB0D49B7
:1010C0000648FFF71FFB0A490648FFF71BFB0548C8
:1010D0000849FFF717FB7CBDD8F20000B095FF1F51
:1010E00057EF0000C095FF1FDBF20000ACE80000E6
:1010F0007BE8000068F50000F7B504460D462E4871
:101100002E491746FFF779FA21462B4808F03CFC98
:101110002B492948FFF771FA28492A48FFF76DFA49
:101120002146284808F030FC26482549FFF765FA93
:1011300000240226286809F003F8009602460B46B0
:101140001D48FFF768FA55F8040B08F0F9FF009600
:1011500002460B461B48FFF75EFA192C07D01A49C6
:101160001548FFF74AFA17481749FFF746FA0134BE
:101170001A2CDFD115491048FFF73FFA11481349DF
:10118000FFF73BFA012F0C4805D00F49FFF7BAFAD9
:101190000C480D490CE00E49FFF7B4FA0D4906481A
:1011A000FFF7B0FA0A490748FFF7ACFA05480949C2
:1011B000FFF7A8FAFEBD00BFB095FF1FD8F20000F0
:1011C00057EF0000C095FF1FDBF20000ACE8000005
:1011D0007BE8000068F5000073B509F0F1FB194BDE
:1011E000194E1968194D044609F03EFC184B196850
:1011F00009F032FB174B30601968204609F034FCC7
:10120000154B164C196809F027FB15492860204634
:10121000FFF7F3F9306808F093FF022602460B4609
:1012200000962046FFF7F7F920460E49FFF7E5F94B
:10123000286808F085FF009602460B462046FFF717
:101240007FFA7CBD988EFF1F408FFF1F448FFF1FCA
:101250009C8BFF1F9C8EFF1FA08BFF1FB095FF1F55
:101260003BE90000DBF200002DE9F743054638B901
:1012700053495448FFF7C1F953485149FFF7BDF9A5
:10128000DFF8689151494F48DFF86481504F514E63
:10129000FFF7B3F9D9F8000008F052FF0224024624
:1012A0000B4600944748FFF7B6F94B494548FFF70E
:1012B000A4F94A494348FFF7A0F9D8F8000008F01C
:1012C0003FFF009402460B463E48FFF7A4F942490F
:1012D0003C48FFF792F942493A48FFF78EF93868DF
:1012E00008F02EFF009402460B463648FFF793F9AC
:1012F00039493448FFF781F93A493248FFF77DF917
:10130000306808F01DFF009402460B462D48FFF799
:1013100082F92E492C48FFF770F9D9F8000008F03F
:101320000FFF009402460B462748FFF774F92A493D
:101330002548FFF762F929492348FFF75EF9D8F8F5
:10134000000008F0FDFE009402460B461E48FFF721
:1013500062F921491C48FFF750F921491A48FFF763
:101360004CF9386808F0ECFE009402460B4616482B
:10137000FFF751F918491448FFF73FF91949124886
:10138000FFF73BF9306808F0DBFE009402460B469D
:101390000D48FFF740F9012D0A4807D10E49FFF724
:1013A0002CF90D490848FFF728F906E00E49FFF728
:1013B000A9F905480C49FFF7A5F9BDE8FE8300BF70
:1013C00059E90000B095FF1FC095FF1F5BE90000C1
:1013D0009C8EFF1FA08BFF1FDBF2000067E900005F
:1013E00078E9000084E900007BE80000988EFF1F88
:1013F0009C8BFF1F7FB5284B1A680192019D1A68CC
:1014000002920C46029A1E461DE00721234805F071
:1014100039FF322007F0BCFD33680393039B5B1B4D
:10142000A34210DD1E491F48FFF7E7F81C491E487C
:10143000FFF7E3F81D491B48FFF7DFF81B491A487F
:10144000FFF7DBF818E005F035FF0028DDD013E0EA
:1014500001340A2C0DDD16491248FFF753F901E05B
:1014600005F036FF05F026FF0028F9D10024114DC4
:1014700007E0322007F08CFD05F01CFF0628E7DDB1
:10148000F4E705F025FF0C49285506480134FFF71D
:1014900039F9072CF5D17FBD2895FF1F0884FF1F60
:1014A00095E90000B095FF1FC095FF1FDBF200001B
:1014B000B3E90000D48FFF1FC0E9000008B5C2786F
:1014C000007900EB022009F077FA034B196809F064
:1014D000CBFA09F0B5FC08BD1084FF1FF8B54FF436
:1014E000FA611A481A4E1B4F1B4DFFF783FF1B482A
:1014F000FFF7E4FF394604463046FFF77EF83946E9
:101500002846174FFFF779F821463046FFF77BF85A
:1015100039463046FFF771F821462846FFF773F841
:1015200039462846FFF769F8642007F031FD0D4B76
:101530000D4D1868B4FBF0F009F03EFA014628683A
:1015400009F08AF928602046F8BD00BF0884FF1F13
:10155000C095FF1FCAE90000B095FF1FD48FFF1F81
:10156000DBF200001884FF1F608EFF1F012801D8E6
:10157000FFF7B4BF7047FFFF38B50546002425E0EC
:1015800014491548FFF739F8291B1348FFF739F8B4
:1015900012491148FFF731F806F044FC01460E48A5
:1015A000FFF7BAF84FF47A7007F0F2FC06F01CFC73
:1015B00031280AD1052007F0EBFC01E006F0ECFB36
:1015C00006F030FC0028F9DC2C460134AC42D7DBB5
:1015D00038BD00BFDAE90000B095FF1FEBE900005D
:1015E0002DE9F74F7C4E304604F058FD08F096FD8B
:1015F000044630460D4604F04BFD08F08FFD62A313
:10160000D3E9002308F0F0FD0022744B08F016FF28
:101610000022724B08F012FF002206460F462046B9
:1016200029466F4B08F0E0FD59A3D3E9002308F0E9
:1016300029FC59A3D3E9002382468B4608F020FCFD
:1016400057A3D3E9002304460D4608F0CDFD002240
:10165000644B08F017FC54A3D3E900238046894665
:101660002046294608F0C0FD22462B4608F0BCFD66
:1016700002460B464046494608F004FC5A4B804659
:101680001868894608F05CFD02460B46404649460C
:1016900008F0AAFD46A3D3E9002308F0CFFE0022FC
:1016A000CDE900014D4B3046394608F0C7FE42A354
:1016B000D3E90023804689462046294608F094FD58
:1016C0003FA3D3E9002308F0DBFB3FA3D3E90023CA
:1016D00006460F462046294608F086FD22462B4640
:1016E00008F082FD02460B463046394608F0CAFB38
:1016F00002460B464046494608F0C2FB52460446A5
:101700000D465B465046594608F06EFD52465B4614
:1017100008F06AFD52465B4608F066FD2CA3D3E94B
:10172000002306460F462046294608F05DFD224666
:101730002B4608F059FD02460B462046294608F084
:10174000A1FB1BA3D3E9002304460D46DDE90001FC
:1017500008F074FE02460B462046294608F06EFE4D
:1017600002460B463046394608F08CFB08F03EFA3C
:1017700008F03CFA06A3D3E9002308F081FB03B08C
:10178000BDE8F08FAFF300800000000000886340E8
:1017900066666666661271406666666666A2724036
:1017A00079E9263108AC5C3FE446D3D15898F1BEC4
:1017B00000000000D0126341E43C73414320A3BE0B
:1017C0004DB1B49D00D4FE3E75466524BDE2333E66
:1017D000CDCCCCCCCCCC2A40548FFF1F00408F40C6
:1017E0000000A03F0000F03F1484FF1FAFF3008013
:1017F00070B5FFF7F5FE08F0D9FF04461E4804F067
:1018000055FC4FF47A6007F0C3FB20461B490126C4
:1018100009F0E6FA00B90026F6B24EB9204618499A
:10182000012509F0BFFA00B9354615F0FF0F13D0B6
:10183000144B154C154916481C60FEF7DEFE134983
:101840001448FEF7DAFE14491148FEF7D6FE124995
:101850001048FEF7D2FE0DE0104B0A4D186809F053
:10186000AFF80146204609F0B3F90146286808F0B0
:10187000F3FF2860204670BD548FFF1F00007A449C
:10188000000070C2BC8EFF1F0000C6C2EEE900005F
:10189000B095FF1FC095FF1FDBF200001884FF1FEB
:1018A000012801D8FFF7A4BF704708B501E006F092
:1018B00073FA06F0B7FA0028F9DC01E006F098FDAB
:1018C00006F088FD0028F9DC08BDFFFF2DE9F04196
:1018D0000D468CB004462A48DFF8B080164607F063
:1018E00033FD2946274807F02FFD2022002104A8B8
:1018F00009F04AFF0021204607F023FEFFF7D5FF3D
:10190000214B1A680192019D1A680292029A1F46A1
:101910000AE03B680393039AD8F80030521B9A42BE
:1019200002DDFEF71FFF05E006F07CFA10B906F0B5
:1019300051FDF0B106F076FA002805DD06F054FA04
:101940005B2819D00E4808E006F044FD002813DD9E
:1019500006F066FD5B280FD00A482B2104AA20233D
:1019600007F0F4FC04A9204607F023FEFFF79DFFD3
:1019700002E0012ED8D1CCE720460CB0BDE8F081C2
:10198000B095FF1FC095FF1F2895FF1F2084FF1FE4
:10199000F7B54EF66020FFF713FA04460D46B64839
:1019A000B649FEF72AFEB549B548FEF726FE2046A1
:1019B00029460022002308F07FFE002840F03D82E7
:1019C0000226009622462B46AB48FEF724FE22460E
:1019D0002B460096AA48FEF71EFEAA49A648FEF727
:1019E0000CFEA849A648FEF708FE06F0D5F906F059
:1019F000D3F9A54BA04820221A6080221A6007F074
:101A0000E5FFA2499C48FEF7F8FD00219A48FEF741
:101A100083FE99489E49FEF775FE002640F6FE7744
:101A2000B2B200219B4804F033FF31469248FEF7E2
:101A3000E8FD94499048FEF7E0FD322007F0A8FA4F
:101A4000304608F06BFB22462B4608F01BFA08F0E4
:101A500065FEB8420646E3DD8F4B874880221A6058
:101A600007F0B4FF89498448FEF7C7FD0121824889
:101A7000FEF752FE80488949FEF744FE002640F6F4
:101A8000FE77B2B20121834804F002FF31467A4862
:101A9000FEF7B7FD7B497848FEF7AFFD322007F02F
:101AA00077FA304608F03AFB22462B4608F0EAF96E
:101AB00008F034FEB8420646E3DD774B6E4820223C
:101AC0001A60012243F8042C802243F8042C07F00A
:101AD0007DFF6E496848FEF790FD00216648FEF7DD
:101AE0001BFE65486E49FEF70DFE002640F6FE77A8
:101AF000B2B20021674804F0CBFE31465E48FEF7E3
:101B000080FD60495C48FEF778FD322007F040FA1E
:101B1000304608F003FB22462B4608F0B3F908F0E4
:101B2000FDFDB8420646E3DD5B4B534880221A6058
:101B300007F04CFF55495048FEF75FFD01214E4824
:101B4000FEF7EAFD4C485749FEF7DCFD002640F65B
:101B5000FE77B2B201214F4804F09AFE3146464862
:101B6000FEF74FFD47494448FEF747FD322007F096
:101B70000FFA304608F0D2FA22462B4608F082F9D6
:101B800008F0CCFDB8420646E3DD434B3A4801225B
:101B900002261A6043F8046C07F018FF3B493648E8
:101BA000FEF72BFD31463448FEF7B6FD32483E497C
:101BB000FEF7A8FD002640F6FE77B2B202213548B6
:101BC00004F066FE31462C48FEF71BFD2D492A48DD
:101BD000FEF713FD322007F0DBF9304608F09EFADD
:101BE00022462B4608F04EF908F098FDB84206460A
:101BF000E3DD294B2048102202261E6043F8442CC6
:101C000007F0E4FE21491C48FEF7F7FC31461A486C
:101C1000FEF782FD18482549FEF774FD002640F6C0
:101C2000FE77B2B202211B4804F032FE3146124860
:101C3000FEF7E7FC13491048FEF7DFFC322007F0FF
:101C4000A7F9304608F06AFA22462B4608F01AF93E
:101C500008F064FDB8420646E3DD154B0648102245
:101C600001261A6043F8046C07F0B0FE07490248E9
:101C7000FEF7C3FC31461DE0B095FF1F19EA0000D6
:101C8000C095FF1FDBF20000C4F00F4028EA0000FF
:101C900037EA0000488DFF1FC8F00F4058EA0000E7
:101CA0007AEA00009BEA0000BDEA0000D1EA0000E9
:101CB00088F00F406A48FEF72FFD69486949FEF732
:101CC00021FD002640F6FE77B2B20321664804F0FB
:101CD000DFFD31466248FEF794FC64496048FEF738
:101CE0008CFC322007F054F9304608F017FA2246EF
:101CF0002B4608F0C7F808F011FDB8420646E3DDB0
:101D00005B4B574801261E6043F8446C07F05EFEAB
:101D100058495348FEF771FC31465148FEF7FCFC28
:101D20004F485549FEF7EEFC002640F6FE77B2B26A
:101D300003214D4804F0ACFD31464948FEF761FCF3
:101D40004A494748FEF759FC322007F021F930464E
:101D500008F0E4F922462B4608F094F808F0DEFC7F
:101D6000B8420646E3DD454B3D48402201261E6051
:101D7000DA6307F02BFE3F493948FEF73EFC314657
:101D80003748FEF7C9FC36483D49FEF7BBFC002644
:101D900040F6FE77B2B20321334804F079FD3146B4
:101DA0002F48FEF72EFC31492D48FEF726FC322045
:101DB00007F0EEF8304608F0B1F922462B4608F05D
:101DC00061F808F0ABFCB8420646E3DD284B244836
:101DD00040221A60802243F8042C07F0F7FD2549C1
:101DE0001F48FEF70AFC01211D48FEF795FC1C4820
:101DF0002449FEF787FC002640F6FE77B2B20321A5
:101E0000194804F045FD31461548FEF7FAFB17491D
:101E10001348FEF7F2FB322007F0BAF8304608F01C
:101E20007DF922462B4608F02DF808F077FCB842E1
:101E30000646E3DD0E4B80221A60FFF736FD12499D
:101E40000748FEF75FFC11490548FEF75BFC0E49A9
:101E50000F48FEF757FC0D490D48FEF753FCFEBD39
:101E6000B095FF1FE5EA0000488DFF1FDBF2000080
:101E700088F00F4028EA0000F7EA000048F00F4021
:101E800009EB00001BEB00007AE8000068F5000099
:101E9000C095FF1F70B58EB006F0AAFA061E24DDAD
:101EA000642007F075F8002401AD665506F0A0FA2D
:101EB0000134262C0646F7D1124E002428463168FC
:101EC0008DF82A4025220AF019F8C0B10E490F48B2
:101ED000FEF793FB31680D48FEF714FC0C490B48E4
:101EE000FEF78BFB0948294605E00A490748FEF73B
:101EF00009FC06480849FEF705FC002000E0012027
:101F00000EB070BD2484FF1F2DEB0000B095FF1FA5
:101F100050EB000073EB0000A9EB000030B549491D
:101F2000494885B0FEF769FB46494848FEF765FB1E
:101F3000002268464EF66021FFF7C8FC4EF660208E
:101F4000FEF73EFF04460D460D20012106F00CFF72
:101F50002946204608F0E2FB430803F1376303F506
:101F6000D833B3FBF0F006F0DFF801210D2006F0C6
:101F7000CFFE4FF47A7007F00BF835493348FEF77F
:101F80003CFB4FF47A7007F003F832492F48FEF714
:101F900034FB4FF47A7006F0FBFF2F492A48FEF716
:101FA0002CFB40F2D2412848FEF7B6FB2B492748CC
:101FB000FEF723FB40F2D2412448FEF722FB4FF408
:101FC0007A7006F0E5FF26491F48FEF716FB6946C2
:101FD0001D48FEF78DFB23491C48FEF70EFB6946A2
:101FE0001A4807F0D1FC4FF47A7006F0D1FF1E4971
:101FF0001548FEF787FB1D491448FEF7FEFA4FF41B
:102000007A7006F0C5FFFFF745FF18B10E48184972
:10201000FEF778FB0D20002106F07AFE15490A48EC
:10202000FEF770FB13490948FEF76CFB064807F002
:10203000CDFC064807F0CAFC684607F041FA05B037
:1020400030BD00BF19EA0000B095FF1FC095FF1F0B
:10205000D1EB0000D4EB0000DFEB0000EEEB000062
:10206000F5EB000004EC00000CEC000021EC00009B
:102070002AEC00007AE800002DE9F3410546884685
:1020800060486149089E14461F46FEF7B6FA5F494C
:102090005C48FEF7B2FA29465A48FEF7B2FA5B49A5
:1020A0005848FEF7AAFA41465648FEF7AAFA574999
:1020B0005448FEF7A2FA21465248FEF7A2FA5349C5
:1020C0005048FEF79AFA384608F03AF80B460221D3
:1020D000024600914B48FEF79EFA4C494948FEF7EC
:1020E0008CFA31464748FEF78CFA48494548FEF7D6
:1020F00084FA2146464804F06AF90146414807F04F
:10210000ABFC42493F48FEF778FA2146414804F0CB
:102110005EF901463B4807F09FFC3C493948FEF711
:102120006CFA21463C4804F052F901463548FEF766
:10213000FDFA142D01D0022D1BD12146344804F0A4
:1021400046F900282146324803DD04F040F9334BBC
:102150003FE004F03CF9002801DB00204FE0B8F13B
:10216000000FFADD3846002108F03AFE00283FD182
:10217000F3E7A5F10B03012B03D9A5F10F03012B05
:1021800018D82146234804F022F900282146214886
:1021900003DD04F01CF9224B1BE004F018F90028C1
:1021A000DBDAB8F1000FD8DD3846002108F018FE60
:1021B00000BBD2E725F004050A2DCED121461648F2
:1021C00004F005F900282146134804DD04F0FFF867
:1021D000144B186012E004F0FAF80028BDDAB8F1E8
:1021E000000FBADD3846002108F0FAFD20B9B4E747
:1021F0000A4B02E00A4B00E00A4B1E600120BDE8DA
:10220000FC8100BFB095FF1F41EC0000DBF2000035
:102210004C8FFF1FA48EFF1F908EFF1FB88EFF1FD5
:102220008C8EFF1FA08EFF1F2DE9D34F0746554808
:10223000DDF828800B9E91469A460C4607F0C6FBB7
:1022400051495048FEF7D9F950494E48FEF7D5F9A3
:1022500039464C48FEF7D5F94C494A48FEF7CDF9C6
:1022600021464848FEF7CDF948494648FEF7C5F9EA
:1022700049464448FEF7C5F944494248FEF7BDF9CE
:10228000504607F05DFF4FF0020B02460B46CDF8BB
:1022900000B03C48FEF7BFF93C493A48FEF7ADF9BB
:1022A00041463848FEF7ADF938493648FEF7A5F9FA
:1022B0004946374804F08BF80146324807F0CCFB1A
:1022C00032493048FEF799F94946324804F07FF820
:1022D00001462C4807F0C0FB2C492A48FEF78DF92F
:1022E00049462D4804F073F801462648FEF71EFAC9
:1022F000142F01D05F450FD1002E02DD27480021A9
:102300002CE0002C3BDD5046002108F069FD002840
:1023100036D0224800212CE0A7F10B03012B06D96F
:10232000A7F10F0001288CBF0020012070B1002E02
:1023300002DD1A48032111E0002C20DD5046002167
:1023400008F04EFDE0B11548032112E027F0040724
:102350000A2F15D1002E03DD10485946B2B20AE00B
:10236000002C0DDD5046002108F03AFD40B10B482D
:1023700059461FFA88F204F08BFA012000E0002091
:10238000BDE8DC8FB095FF1FEFEC0000DBF2000032
:102390004C8FFF1FA48EFF1F908EFF1F488DFF1FC5
:1023A00070B506460D460024A119044803F02EFE20
:1023B00028550134042CF7D1204670BD7090FF1FC2
:1023C00070B506460D460024A1192A5D0348013464
:1023D00003F01FFE042CF7D1204670BD7090FF1F44
:1023E000F7B5614E614D0746FFF75FFA60496148F6
:1023F000FEF703F9306807F0A3FE022402460B46FD
:1024000000945C48FEF707F95B495A48FEF77AF9F1
:102410005A495848FEF7F1F851A3D3E90023009434
:102420005448FEF7F8F854495248FEF76BF95449FE
:102430005048FEF7E2F8286807F082FE0094024652
:102440000B464C48FEF7E7F84E494A48FEF75AF962
:10245000484807F0BBFA46494B48FEF7CEF83068CB
:1024600007F06EFE009402460B464748FEF7D3F88D
:1024700041494548FEF746F940494348FEF7BDF853
:1024800037A3D3E9002300943F48FEF7C4F83A4944
:102490003D48FEF737F93A493B48FEF7AEF8286861
:1024A00007F04EFE009402460B463748FEF7B3F89D
:1024B00034493548FEF726F9334807F087FA012FEB
:1024C00044D14EF66020FEF77BFC08F06FF93060D7
:1024D00007F036FE009402460B462648FEF730F918
:1024E000306807F02DFE009402460B462648FEF7A2
:1024F00027F93068254908F04BFC50BB31460C20C9
:10250000FFF75EFF4EF66020FEF75AFC08F04EF92A
:10251000286007F015FE009402460B461548FEF7AA
:102520000FF9286807F00CFE009402460B46164887
:10253000FEF706F92868154908F02AFC48B9142066
:102540002946FFF73DFF0020FFF74AFF012006F074
:102550001FFD03B0BDE8F040FFF7A7B9AFF300805F
:102560007B14AE47E17AD43F188BFF1F0C8BFF1F03
:10257000A8ED0000B095FF1FDBF20000B7ED0000F2
:10258000CCED00007BE80000C095FF1F000080BF7D
:102590002DE9F34102ADDFF8308045F8041D064611
:1025A00017460024304608F00BFA014654F808009C
:1025B00008F0EEFB18B1E0192946FFF701FF0434DB
:1025C000682CEFD1BDE8FC812884FF1F2DE9F34181
:1025D00002ADDFF8308045F8041D0646174600249A
:1025E000304608F0EDF9014654F8080008F0D0FB39
:1025F00018B1E0192946FFF7E3FE0434682CEFD147
:10260000BDE8FC812884FF1F30B55D495D485E4D03
:1026100085B0FEF777F840F2836005F085FD5B49F1
:102620005848FEF76FF842F2107004F045FD584923
:102630005448FEF767F84FF4FA7006F0A9FC00243E
:10264000072322460193534800942346214604F071
:1026500071FA51494B48FEF755F8504841F288311C
:1026600004F0F8F84E484F4904F032F84C484E490F
:1026700003F0FEFF21464A4803F0F3FF484804F008
:102680008BF80F20012106F06FFB1020012106F0CE
:102690006BFB0B20012106F067FB0C20012106F0EB
:1026A00063FB1420012106F05FFB0121022006F0EC
:1026B0005BFB0E20012106F057FB0A20012106F0EA
:1026C00053FB0520012106F04FFB384B80221A6096
:1026D0000620012106F048FB1520012106F044FBED
:1026E0001620012106F040FB1120214606F03CFB9C
:1026F0002F4B40221A6002232B6001210D2006F08F
:1027000033FB012006F036F82220214606F02CFB90
:102710002320214606F028FB102006F001F8254B67
:1027200025494FF4803203201A6006F0ABFA0520E9
:10273000214906F0A7FA1720012106F015FB04A98C
:1027400004232B60002341F8083D1020FFF728FEEA
:10275000029807F0F5FC08A3D3E9002307F0ACFFCB
:1027600030B904A9154B102041F8043DFFF728FEAD
:1027700005B030BDAFF300807B14AE47E17AD43FA3
:10278000E1ED0000B095FF1F84F00F40EEED00007A
:10279000FCED00007C90FF1F0AEE0000488DFF1F3B
:1027A0007C8EFF1F0000484300002F44C4F00F4000
:1027B000C8F00F40148BFF1F6CDC02000AD7A33E49
:1027C000F8B507460E46002441F21055E119325D76
:1027D0000348013403F01DFCAC42F7D12046F8BD9C
:1027E0007090FF1F00B5ADF5A85D85B010B9FDF77D
:1027F000DBFE09E00021684641F2105208F0C4FFF8
:102800003C206946FFF7DCFF45B00DF5A05D00BD3B
:1028100070B506460D460024A119044803F0F6FBE6
:1028200028550134082CF7D1204670BD7090FF1F49
:1028300070B506460D460024A119044803F0E6FBD6
:1028400028550134682CF7D1204670BD7090FF1FC9
:102850001FB50446B5490020FFF7A2FD0420B44986
:10286000FFF79EFD0820B349FFF79AFD0C20B249FF
:10287000FFF796FD1420B149FFF792FD1820B049EB
:10288000FFF78EFD1C20AF49FFF78AFD2020AE49DF
:10289000FFF786FD2420AD49FFF782FD2820AC49D3
:1028A000FFF7B6FF3C20AB49FFF7C2FFB420AA49AF
:1028B000FFF7BEFFA9494FF49670FFF7B9FFA8498B
:1028C0004FF4D270FFF7B4FFA6494FF40770FFF73B
:1028D000AFFFA5494FF42570FFF7AAFFA3494FF4B6
:1028E0005C70FFF7A5FFA2494FF47A70FFF7A0FFD5
:1028F000A0494FF48C60FFF79BFF9F494FF49B600A
:10290000FFF796FF9D494FF4AA60FFF781FF9C49AE
:102910004FF4AB60FFF77CFF9A494FF4AC60FFF7D0
:1029200077FF99494FF4AD60FFF772FF97494FF475
:10293000AE60FFF76DFF4FF4AF609549FFF768FF9A
:10294000012C40F0538193499348FDF756FE91497D
:102950009248FDF752FE2046FEF786FC8E4807F0AF
:1029600035F88E4807F032F82046FEF7C3F98A485A
:1029700007F02CF8894807F029F88949684606F0DD
:10298000E0FD002287496846FEF7B6FB684606F080
:1029900097FD8549684606F0D4FD00226D496846DA
:1029A000FEF7AAFB684606F08BFD8049684606F0F4
:1029B000C8FD002268496846FEF79EFB684606F09F
:1029C0007FFD7B49684606F0BCFD002263496846EE
:1029D000FEF792FB684606F073FD7649684606F0FE
:1029E000B0FD00225E496846FEF786FB684606F0A9
:1029F00067FD7149684606F0A4FD00225949684602
:102A0000FEF77AFB684606F05BFD6C49684606F007
:102A100098FD002254496846FEF76EFB684606F0B2
:102A20004FFD6749684606F08CFD00224F49684615
:102A3000FEF762FB684606F043FD6249684606F011
:102A400080FD00224A496846FEF756FB684606F0BC
:102A500037FD5D49684606F074FD00224549684629
:102A6000FEF74AFB684606F02BFD5849684606F01B
:102A700068FD002240496846FEF73EFB684606F0C6
:102A80001FFD5349684606F05CFD00223049684648
:102A9000FEF7B8FA684606F013FD4E49684606F0A0
:102AA00050FD002235496846FEF7ACFA684606F04C
:102AB00007FD4949684606F044FD00223049684652
:102AC000FEF7A0FA684606F0FBFC4449684606F0AB
:102AD00038FD00222B496846FEF794FA684606F056
:102AE000EFFC3F49684606F02CFD00222649684667
:102AF000FEF788FA684606F0E3FC3A49684606F0B5
:102B000020FD002221496846FEF77CFA684606F05F
:102B1000D7FC3549684606F014FD68461C49224634
:102B2000FEF770FA684606F0CBFC5FE01484FF1FE6
:102B30009484FF1F108BFF1F188BFF1F0C8BFF1F30
:102B4000988EFF1F9C8BFF1F9C8EFF1FA08BFF1F6B
:102B50005C8FFF1FE08CFF1F648FFF1FC48EFF1F61
:102B6000308BFF1FF88FFF1F748CFF1FA48BFF1F7C
:102B70000C8CFF1F7C8DFF1FE48DFF1F2C8FFF1F10
:102B8000CC8FFF1F348FFF1FDC8FFF1FE48FFF1FD1
:102B9000EC8FFF1F59E90000B095FF1FC095FF1F84
:102BA00022EE00002884FF1F2BEE00003DEE000007
:102BB0004EEE000068EE000081EE00009CEE00008A
:102BC000B6EE0000C9EE0000DCEE0000EFEE000003
:102BD0005EF100006BF1000078F1000085F100006B
:102BE00092F100009FF10000ACF100001FBD00BF9A
:102BF0002DE9F34101204EF66028FFF729FE4046FB
:102C0000FEF7DEF807F0D2FD2D4F2E4D386007F0AD
:102C100097FA062602460B4600962846FDF7FBFC6F
:102C20003868294C07F08CFA009602460B4620467D
:102C3000FDF7F1FC3946254F0420FFF7C1FB39466B
:102C40002846FDF7DAFC39462046FDF7D6FCFEF7AC
:102C50002CFE4046FEF7B4F807F0A8FD1C4F386084
:102C600007F06EFA009602460B462846FDF7D3FCA5
:102C7000386807F065FA009602460B46154E204666
:102C8000FDF7C9FC39460820FFF79AFB3146284674
:102C9000FDF7B3FC3146104E2046FDF7AEFCFEF7C3
:102CA00004FE31462846FDF72DFD20463146FDF74E
:102CB00029FD012002B0BDE8F041FFF7C9BD00BF0A
:102CC0009484FF1FB095FF1FC095FF1F02EF000007
:102CD000108BFF1F0AEF000013EF00002DE9F341F6
:102CE0004EF660270120FFF7B3FD3846FEF768F87F
:102CF00007F05CFDDFF81481414EC8F8000007F0D2
:102D00001FFA022402460B4600943046FDF783FC6E
:102D1000D8F800003B4D07F013FA009402460B462A
:102D20002846FDF778FC41461820FFF749FBFEF7DF
:102D3000BCFD3846FEF744F807F038FDDFF8D080D8
:102D4000C8F8000007F0FCF9009402460B46304634
:102D5000FDF761FCD8F8000007F0F2F90094024694
:102D60000B462846FDF757FC41461C20FFF728FB81
:102D7000FEF79BFD3846FEF723F807F017FDDFF856
:102D80009480C8F8000007F0DBF9009402460B4677
:102D90003046FDF740FCD8F8000007F0D1F9009468
:102DA00002460B462846FDF736FC41462020FFF739
:102DB00007FBFEF77AFD3846FEF702F807F0F6FC4F
:102DC000114F386007F0BCF9009402460B463046BC
:102DD000FDF721FC386807F0B3F9009402460B4672
:102DE0002846FDF718FC39462420FFF7E9FAFEF7DC
:102DF0005CFD012002B0BDE8F041FFF729BD00BF36
:102E0000B095FF1FC095FF1FA08BFF1F988EFF1F5F
:102E10009C8BFF1F9C8EFF1F7FB506460120FFF78E
:102E200017FD002402254EF66020FDF7C9FF07F0CC
:102E3000BDFC039007F084F9009502460B460C4850
:102E4000FDF7E9FB039807F07BF9009502460B4676
:102E50000848FDF7E0FBA01903A90434FFF7B0FA16
:102E6000FEF723FD082CDED10120FFF7F1FC7FBD2A
:102E7000B095FF1FC095FF1F2DE9F3478046012045
:102E8000FFF7E6FC4EF66020FDF79AFF07F046FCE0
:102E9000064631462C48FDF73FFC2C483146FDF7ED
:102EA0003BFC731C47D04EF66020FDF789FF07F00E
:102EB0007DFC814607F044F9062704460D460B4683
:102EC000224600972048FDF73BFC00971F4822460A
:102ED0002B46FDF735FC48461D4907F059FF50BB0E
:102EE0004EF66020FDF76CFF07F060FC824607F0AD
:102EF00027F904460D460B46224600971248FDF777
:102F00001FFC0097114822462B46FDF719FC50463E
:102F10000F4907F03DFF70B9304649464246FFF77A
:102F200055FB3046514608F17802FFF731FB01208E
:102F300006F02EF8A6E7FEF7B8FC012002B0BDE8C7
:102F4000F047FFF785BC00BFB095FF1FC095FF1F7E
:102F5000000080BF2DE9F04FA84BA94C04221A6055
:102F600085B00021064640F6FF72A64803F090FCAB
:102F70008025012140F6FF72A24803F089FC02215E
:102F800040F6FF7225609F4803F082FC032140F663
:102F9000FF729C4803F07CFC9B4B1D60FEF785FC98
:102FA000622E2CD10020FFF753FC27464EF66020FE
:102FB000FDF706FF0022954B04460D4607F07CFB0B
:102FC000B8B9FEF772FC2946204607F0CFFB002176
:102FD00082B28C4803F05CFC002320462946002284
:102FE00007F06AFB202310B9874A1360DEE73B60D5
:102FF000DCE7FEF75AFC824B20221A606BE0632E5E
:1030000069D10020FFF724FC4EF66020FDF7D8FEC2
:1030100007F084FB7E4903907E48DFF818A2FDF795
:10302000ECFA7B497C48FDF7E8FA00210A4675482E
:1030300003F02EFC73480321002203F029FC039BBC
:1030400000275FFA83FB3BE05AF83B3083F800C16E
:103050000AE01FFA89F842466A4803F019FC6948F9
:103060000321424603F014FC4FF0020822462B468F
:10307000CDF800806748FDF7CEFA22462B46CDF802
:1030800000806548FDF7C7FA64496248FDF7B5FA64
:1030900062496148FDF7B1FA49465E48FDF7B1FA69
:1030A00049465D48FDF7ADFA5C495A48FDF72AFBF1
:1030B00059485A49FDF726FB4FF47A7005F068FF2E
:1030C00004F0B0FE022800F3578105F083F90228CE
:1030D00040F35D8150E10027FEF7E7FB642E01D14C
:1030E000FEF756FCFEF7E1FB652E14D14C4949482A
:1030F000FDF783FA48484A49FDF77FFA4FF0020886
:1031000004F090FE022800F3998205F063F902288A
:1031100040F3AA8192E2662E14D142493D48FDF760
:103120006CFA3D483F49FDF768FA4FF0020804F099
:1031300079FE022800F3828205F04CF9022840F360
:10314000BA817BE2672E14D137493248FDF755FA30
:1031500031483549FDF751FA4FF0020804F062FE9C
:10316000022800F36B8205F035F9022840F3DC8178
:1031700064E2682E14D12D492648FDF73EFA264810
:103180002A49FDF73AFA4FF0020804F04BFE0228F4
:1031900000F3548205F01EF9022840F3E7814DE266
:1031A000692E14D11E491B48FDF727FA1A481C49FD
:1031B000FDF723FA4FF0020804F034FE022800F372
:1031C0003D8205F007F9022840F3F28136E26A2ECB
:1031D00032D117491048FDF710FA0E481449FDF78F
:1031E0000CFA4FF0020804F01DFE022800F32682BC
:1031F00005F0F0F8022840F300821FE288F00F404B
:10320000C8F00F40488DFF1FC4F00F400000F0BF12
:1032100016EF0000B095FF1FC095FF1FDBF2000006
:1032200026EF00003BEF00004AEF00005BEF0000DC
:1032300072EF000060F70000731E202B40D8B049E9
:10324000B048DFF8CC82FDF7D8F9AF48AC49FDF7BC
:10325000D4F94EF66020FDF7B3FD07F05FFA411C8C
:10326000054624D0ACB2FEF720FB00212246A74839
:1032700003F00EFB01212246A44803F009FB0221C2
:103280002246A24803F004FB2246A048032103F093
:10329000FFFA58F83620012382F8803058F836209B
:1032A00015B182F88030D4E782F80031D1E7FEF71B
:1032B000FCFA974B53F83630012283F8002135E0B1
:1032C000A6F12203032B31D8DFF85882914D8E48A6
:1032D00006F07CFB8B4806F079FB4EF66020FDF78C
:1032E0006FFD07F01BFA421C1ED01023C8F80030F7
:1032F00018B1400101387FF4FDAFF0B205F064FA77
:10330000102304462B6021467F48FDF77AF92146B9
:103310007C48FDF776F980497B48FDF76EF97E49D8
:103320007848FDF76AF9D2E7FEF7BFFA7B4B042233
:103330001A60384606F004FF022604460D460B4686
:10334000224600967048FDF766F922462B46009605
:103350006C48FDF760F972496B48FDF7D3F9704985
:103360006848FDF7CFF9684806F030FB654805B0BE
:10337000BDE8F04F06F02ABBFEF797FA039BDAB2DE
:10338000634B53F83230012283F80021A4E65AF847
:103390003B304FF0010C83F880C06046CDF808C088
:1033A000FDF712FC07F00CFBFDF75EFD074607F08A
:1033B00021FD01460398FDF7A7FD8146384606F03A
:1033C000BFFE4FF0020804460D460B462246CDF8DC
:1033D00000804D48FDF71FF922462B46CDF80080AE
:1033E0004848FDF718F94C494748FDF706F94A499E
:1033F0004448FDF702F93846FDF736FD06F0A0FE19
:10340000CDF8008002460B463F48FDF704F93846E8
:10341000FDF72AFD06F094FECDF8008002460B462B
:103420003848FDF7F8F83C493748FDF7E6F83A49DF
:103430003448FDF7E2F864213348FDF7E2F86421EF
:103440003048FDF7DEF8304806F0C0FA2D4806F0A7
:10345000BDFA0021384607F09BFCDDF808C00146A4
:1034600000287FF4F1ADF4E50120FDF7ADFB07F096
:10347000A7FAFDF7F9FC074606F062FE04460D4682
:103480000B462246CDF800801F48FDF7C4F82246BF
:103490002B46CDF800801B48FDF7BDF81E491A48A1
:1034A000FDF7ABF81C491748FDF7A7F84FF4FA6091
:1034B00005F06EFD24E6FEF711F807F07DFA0746E9
:1034C00006F03EFE044622460B46CDF800800E482C
:1034D0000D46FDF7A0F810490B48FDF78EF822467F
:1034E0002B46CDF800800748FDF795F80A490548B6
:1034F000FDF783F84FF4FA6005F04AFD17E600BFC8
:1035000090EF0000C095FF1FB095FF1F488DFF1F73
:1035100060F70000C4F00F40DBF2000084F00F40C1
:10352000A9E80000C8F00F40FDF7AEF8074606F026
:1035300007FE044622460B46CDF8008041480D4662
:10354000FDF769F840493F48FDF757F822462B46FA
:10355000CDF800803D48FDF75EF83B493B48FDF75C
:103560004CF84FF4FA6005F013FDF7E5FDF758F855
:10357000074606F0E5FD044622460B46CDF80080DE
:1035800030480D46FDF747F82F492E48FDF735F82E
:1035900022462B46CDF800802C48FDF73CF82A49FE
:1035A0002A48FDF72AF84FF4FA6005F0F1FCECE543
:1035B0000120FDF709FB07F003FA074606F0C0FDFE
:1035C00004460D460B462246CDF800801D48FDF707
:1035D00022F822462B46CDF800801C48FDF71BF848
:1035E00019491848FDF709F817491848FDF705F873
:1035F0004FF4FA6005F0CCFCDEE5FEF7F9F807467B
:1036000006F09EFD04460D460B462246CDF800808E
:103610000C48FDF700F822462B46CDF800800B48F9
:10362000FCF7F9FF08490748FCF7E7FF0649074898
:10363000FCF7E3FFC82005F0ABFCD4E5FEF735F955
:10364000FAE500BFB095FF1FDBF20000C095FF1F39
:103650002DE9F04FADF51E5D87B004AF3220002597
:10366000C7F844D005F094FCBF4BC7F8F4501B6872
:103670000120C7F8F830D7F8F83007F089FCC7F810
:1036800094000420C7F8FC50C7F8005107F080FCF4
:10369000B64BC7F8A8001B68073323F00703ADEB50
:1036A000030DB34B1B68FB641B01083304ACADEB8B
:1036B000030D04A9C7F8B01003E0002105F041FF95
:1036C0000135FB6CD7F8B0209D4202EB0510F4D118
:1036D000A64BA74E1A682046002108F055F8002591
:1036E00007E0D7F8B01001EB0510A24905F061FF23
:1036F000013533689D42F4DB0020FFF7A9F89E4BAB
:1037000010251D600A2005F043FC9C4B9C491D6060
:1037100007F5E475284605F014FFBEE0284605F0DD
:10372000DEFF002842F37183284605F0D8FFC72842
:1037300042F3648302F069BB04F02EFB04F058FEF0
:1037400090499148FCF7DEFF8E499048FCF7DAFF7C
:10375000A3E004F021FB04F04BFEFDF703F89CE02E
:1037600004F01AFB04F044FEFEF7D8FB95E004F0E9
:1037700013FB04F03DFEFDF71BF88EE004F00CFB9C
:1037800004F036FEFDF754F887E004F005FB04F082
:103790002FFE0120FFF75CF87FE004F0FDFA04F053
:1037A00027FEFFF725FA78E004F0F6FA04F020FE91
:1037B00000201AE004F0F0FA04F01AFEFFF78EFA87
:1037C0006BE004F0E9FA04F013FE3C2005E004F09D
:1037D000E3FA04F00DFE4FF49670FFF74DFB5CE04A
:1037E00004F0DAFA04F004FE0120FEF7F9FD54E0DB
:1037F00004F0D2FA04F0FCFD4FF40770EDE704F09A
:10380000CBFA04F0F5FD4FF45C70E6E704F0C4FA7F
:1038100004F0EEFD4FF48C60DFE704F0BDFA04F035
:10382000E7FDFCF7C1FE38E004F0B6FA04F0E0FD75
:103830000120FEF7D7FF30E004F0AEFA04F0D8FD27
:10384000282028E004F0A8FA04F0D2FD4FF4AA6082
:1038500021E004F0A1FA04F0CBFD4FF4AB601AE0D4
:1038600004F09AFA04F0C4FD4FF4AC6013E004F0E5
:1038700093FA04F0BDFD4FF4AD600CE004F08CFA57
:1038800004F0B6FD4FF4AE6005E004F085FA04F0F4
:10389000AFFD4FF4AF60FFF7BFFA04F0A5FA5B2865
:1038A00004D004F0BDFD5B2842F0EE8204F09CFAE7
:1038B0005B2805D134483649FCF724FF01250AE08E
:1038C00004F0AEFD5B2805D12F483249FCF71AFF02
:1038D000022500E0002504F05FFA04F089FD012DC7
:1038E0000DD0022D7CD02C492748FCF70BFF00257A
:1038F00026482949FCF706FFC7F8B450C6E022481D
:103900004FF4FA6105F020FD184B1F481B68212178
:103910002246002605F01AFD41F28735C7F8B4604B
:10392000A35D7B2B1BD104E0484605F07BFE0136EE
:1039300007E0D7F8B410D7F8B0204FEA011802EB2F
:103940000809A15D7D29EFD1D7F8B03003EB08005D
:1039500005F068FED7F8B4100131C7F8B41001368D
:10396000AE42DDDD002536E02895FF1F9084FF1F65
:103970001C84FF1F68F50000C8F00F40C4F00F4022
:103980001FEC000093EF0000B095FF1FC095FF1FD4
:10399000A3EF0000AFEF0000C0EF0000D7F8B020A9
:1039A000302102EB051407F5FC7005F01DFE2046E2
:1039B00007F5FC7105F059FE064607F5FC7005F0A9
:1039C0007FFD3EB9AC49AD48FCF717FEAB48214638
:1039D000FCF78EFE0135D7F8B4309D42DEDB55E0B2
:1039E000A7484FF47A7105F0AFFCA64BA4481B68BA
:1039F00021212246002605F0A9FC41F28735C7F8AF
:103A0000B460A35D7B2B1BD104E0484605F00AFEA1
:103A1000013607E0D7F8B410D7F8B0204FEA011804
:103A200002EB0809A15D7D29EFD1D7F8B03003EB97
:103A3000080005F0F7FDD7F8B4100131C7F8B4104D
:103A40000136AE42DDDD00251CE0D7F8B020302184
:103A500002EB051407F5FC7005F0C6FD204607F5DE
:103A6000FC7105F002FE064607F5FC7005F028FD26
:103A70003EB981498148FCF7C0FD80482146FCF7EA
:103A800037FE0135D7F8B4309D42DEDB7E4D7F49ED
:103A90007B48FCF7B2FD7D497848FCF7AEFD28680D
:103AA00006F04EFB022402460B4600947448FCF7D5
:103AB000B2FD286806F044FB009402460B466F48AE
:103AC000FCF7A9FD72496E48FCF797FD70496B48F9
:103AD000FCF793FD009466A3D3E900236848FCF744
:103AE0009AFD63A3D3E9002300946448FCF793FD97
:103AF00068496248FCF781FD002561486549FCF78B
:103B00007CFDC7F88450C7F8A0500D25FD65012540
:103B1000BD6507F5DA750024BD645F495748FCF7B9
:103B20006CFD57485C49FCF768FD002502F008B9B8
:103B3000D7F8940007F034FAD7F89C502C01D7F846
:103B4000B0502B1907F1FC0A9D68681C07F020FA99
:103B5000D7F8B020C7F8940011592A4608F024FA83
:103B6000D7F8943000245C5507F5DE7007F5027530
:103B700002F05EFD2A46D7F894104FF4167307F54D
:103B8000DE7002F038FCD7F89410A0420CBF2A4631
:103B90002246B86C02F08DFBBD6C95E803008AE804
:103BA0000300002802F0C281A1B902F0BFB9D7F822
:103BB000B010324801EB04152946FCF799FD013499
:103BC0002F482946FCF794FDB442F0D1FDF76DFE75
:103BD00002F0FFB8C7F8884007F5D67B2F4950465A
:103BE00002F0B8FB014607F5EC7005F0AAFC2C4981
:103BF000504602F0AFFB014607F5F47005F0A1FC5A
:103C00002849504602F09CFB002808BF0120B862FA
:103C10002549504602F094FB244B08B1186001E09E
:103C200001221A602249234C504602F089FB2249A6
:103C30003862504602F084FB2049B865504602F0D5
:103C40007FFB1F497862504602F07AFB1D49F861FC
:103C5000504602F075FB002808BF012078651A491C
:103C6000504602F06DFB88BB0D23236033E000BF9C
:103C70007B14AE47E17AD43FE6EF0000B095FF1F1A
:103C8000C095FF1F9084FF1F188BFF1FA8ED000039
:103C90000EF0000025F0000031F0000033F00000CD
:103CA00041F000004DF0000054F000001884FF1FA8
:103CB0005DF000000484FF1F6CF0000079F000004C
:103CC0008CF000009CF00000A6F000005046A749D0
:103CD00002F036FB2060A649504602F031FBA549B0
:103CE000B861504602F02CFBA349C7F89800504633
:103CF00002F026FBA1493864504602F021FBA0499E
:103D00003866504602F01CFB9E497861504602F02E
:103D100017FB07F5827607F5867551469A4A814664
:103D2000304602F0FFFA2846C7F8E450514607F53E
:103D30008A75964A02F0F6FA2846C7F8E0505146CE
:103D400007F58E75924A02F0EDFA2846C7F8DC5066
:103D5000514607F592758F4A02F0E4FA2846C7F8F3
:103D6000D850514607F596758B4A02F0DBFA284683
:103D7000C7F8D450514607F59A75884A02F0D2FA2E
:103D80002846C7F8D050514607F59E75844A02F080
:103D9000C9FA2846C7F8CC50514607F5A275814AA2
:103DA00002F0C0FA2846C7F8C850514607F5A67574
:103DB0007D4A02F0B7FA2846C7F8C450514607F5C5
:103DC000AA757A4A02F0AEFA2846C7F8C0505146A2
:103DD00007F5AE75764A02F0A5FA28465146754AAF
:103DE000C7F8BC5002F09EFA07F5B2705146724A0D
:103DF000724D02F097FA07F5B6705146704A02F01C
:103E000091FA07F5BA7051466E4A02F08BFA07F53F
:103E1000BE7051466C4A07F1E80402F083FA07F5D8
:103E2000C2705146694A02F07DFA20465146684AFE
:103E300002F078FA94E80300664A85E80300204619
:103E4000514602F06FFA94E80300634D634A85E837
:103E500003002046514602F065FA94E80300604DE5
:103E6000604A85E8030007F5C670514602F05AFA29
:103E700007F5CA7051465C4A02F054FA002407F56F
:103E8000CE705146594A02F04DFA3C67C7F8A4403B
:103E90003BE0214607F5B27002F099FA07F5CA71C6
:103EA00080462246584602F084FA5846FCF755FCF4
:103EB0003D6F00FB08553D670025A8460EE05846BB
:103EC00007F5CA71224602F074FA2946584602F0F4
:103ED0007EFA0028C8BF08F101080135584607F5E9
:103EE000CA71224602F065FA5846FCF736FC854254
:103EF000E5DB214607F5B27002F069FAD7F8A45065
:103F000008FB0055C7F8A450013407F5B270FCF760
:103F100024FC8442BDDBD7F8A80007F041F8042157
:103F2000D7F8A40006F0BEFFC7F8A800304805F097
:103F30004DFD30492E48FCF760FBD7F8A4102C4803
:103F4000FCF7F4FB2A4805F041FD2B492848FCF713
:103F500054FB396F2648FCF7E9FB254805F036FD90
:103F600023482649FCF749FB002450E0A6F0000056
:103F7000BBF00000DAF00000E5F00000EFF0000018
:103F8000FDF0000008F1000013F1000023F1000033
:103F90002FF100003EF100004CF100005AF100004A
:103FA00067F1000074F1000081F100008EF1000063
:103FB0009BF10000A8F10000B5F100004C8FFF1F3D
:103FC000BCF10000C8F10000D4F10000E0F10000F5
:103FD000ECF10000FCF10000A48EFF1F0DF20000C8
:103FE000908EFF1F1DF2000027F2000033F2000048
:103FF000B095FF1F41F2000055F200006FF2000083
:10400000D7F8A85055F8241005F026FD0134D7F84C
:10401000A4501648AC42F3DB05F0D8FC134805F079
:10402000D5FC13491148FCF7E8FA07F5B270FCF724
:1040300094FB01460D48FCF76FFB0C4805F0C6FCED
:104040000C490A48FCF7D9FA07F5CA70FCF785FB5A
:1040500001460648FCF760FB044805F0B7FC03483E
:104060000549FCF7CAFA00241AE000BFB095FF1F0B
:104070005BF200008FF20000A8F20000224607F574
:10408000CA71584602F095F95846FCF766FB01469E
:10409000B348FCF7B6FAB248B249FCF7AEFA0134BD
:1040A00007F5CA70FCF759FB8442E7DBAC4805F022
:1040B0008DFCAD49AA48FCF7A0FAAB49AB48FCF728
:1040C0009CFA07F5F471A64805F05EFC07F5F4715B
:1040D000A64805F059FCA649A148FCF78EFAA3486A
:1040E000A349FCF78AFAB9F1010F02D14846FDF75E
:1040F000BBF807F5EC709F4905F0C5FAC8B99E49B1
:104100009748FCF77AFA9C499848FCF776FA07F545
:10411000EC71934805F038FC07F5EC71934805F015
:1041200033FC93498E48FCF768FA90489049FCF7B5
:1041300064FA07F5FC749149204605F002FA96E806
:104140000300002213468DE8030002948C498D4839
:10415000FCF726FC204605F0B3F98B49204605F014
:10416000F0F9D7F8E05095E80300002213468DE8F7
:104170000300029485498648FCF712FC204605F0AE
:104180009FF98449204605F0DCF9D7F8DC5095E822
:104190000300002213468DE8030002947E497F4805
:1041A000FCF7FEFB204605F08BF97D49204605F023
:1041B000C8F9D7F8D85095E80300002213468DE8D7
:1041C0000300029477497848FCF7EAFB204605F0A3
:1041D00077F9764B76491E68764B20461D6805F0C8
:1041E000B0F9D7F8E42092E803008DE8030000203E
:1041F000324601462B460294FCF7D2FB204605F0DE
:104200005FF96D4B6D491E685D68204605F099F9B0
:10421000D7F8D43093E803008DE80300002032463D
:1042200001462B460294FCF7BBFB204605F048F9FB
:10423000634B64491E685D68204605F082F9D7F833
:10424000D02092E803008DE80300002032460146AA
:104250002B460294FCF7A4FB204605F031F95A4B9B
:104260005A491E685D68204605F06BF9D7F8CC30D6
:1042700093E803008DE803000020324601462B46F8
:104280000294FCF78DFB204605F01AF9504B51497A
:104290001E685D68204605F054F9D7F8C82092E8FA
:1042A00003008DE803000020324601462B460294AD
:1042B000FCF776FB204605F003F9474B47491E689B
:1042C0005D68204605F03DF9D7F8C43093E8030057
:1042D0008DE803000020324601462B460294FCF78D
:1042E0005FFB204605F0ECF83D4B3E491E685D68DB
:1042F000204605F026F9D7F8C02092E803008DE8A3
:1043000003000020324601462B460294FCF748FB8E
:10431000204605F0D5F8344B34495D681E682046C8
:1043200005F00FF9D7F8BC3093E803008DE80300DF
:1043300000202B460146324602942D4DFCF730FBFF
:10434000204605F0BDF82B68012B64DD294907489C
:10435000FCF753F927490248FCF74FF929684BE06D
:10436000B095FF1FEBE90000C8F20000C095FF1FE9
:10437000DAF2000068F50000DDF2000013F1000041
:10438000748CFF1FF88FFF1F2FF10000648FFF1F39
:10439000E08CFF1F3EF100000C8CFF1FA48BFF1F61
:1043A0004CF10000E48DFF1F7C8DFF1F9484FF1FE4
:1043B00023F10000108BFF1F5C8FFF1F5AF10000DC
:1043C0002C8FFF1F67F10000CC8FFF1F74F10000DE
:1043D000348FFF1F81F10000DC8FFF1F8EF1000082
:1043E000E48FFF1F9BF10000EC8FFF1FA8F100007E
:1043F0001884FF1FF0F200002A48FCF702F9296830
:104400002948FCF7FEF829492648FCF7F6F8264823
:104410002649FCF7F2F8264B386C00251D60254B29
:104420001D60254B1D60254B1D60254B1D60254BD8
:104430001D60254B1D60254B1D60254B1D60254BC8
:104440001D60FCF7C9FE184805F0C0FA224916485D
:10445000FCF7D3F8214B186805F072FE02260246DD
:104460000B4600961048FCF7D6F810490E48FCF7AA
:10447000C4F81B4B186805F063FE009602460B4615
:104480000948FCF75DF9396E30234B430022013BAC
:10449000FB63C7F8B8207A67BA67FA67C7F8802065
:1044A00001F066BBC095FF1FB095FF1FDBF2000057
:1044B000AC8EFF1F6C90FF1FDC8CFF1F6890FF1FEE
:1044C000BC8EFF1F608EFF1F488FFF1F588FFF1F7E
:1044D000B08EFF1FC08EFF1FFDF20000408FFF1F38
:1044E000448FFF1FAC49AD48FCF70CF92A465846EB
:1044F00007F5CE7101F05DFF0021584601F071FF14
:104500000146A648FCF779F8A549A448FCF775F8D8
:104510002A46584607F5CE7101F04BFF0121584657
:1045200001F055FF01469D48FCF700F9304607F5BC
:10453000CE712A4601F03DFF3046012101F047FFD0
:104540008046002859D12A46584607F5CE7101F019
:1045500030FF4146584601F044FF0146204604F032
:10456000F0FF20468F4905F08EF810F1000818BFC3
:104570004FF00108204604F0A3FFB8F1000F3CD033
:104580002A46584607F5CE7101F013FF012158461F
:1045900001F01DFFFCF70EFB834BD7F8B8101B682A
:1045A000013B994229D18149DFF81C928048FCF7F0
:1045B00024F87E497948FCF720F8D9F8000005F086
:1045C000BFFD4FF0020802460B46CDF80080784848
:1045D000FCF721F877497648FCF70FF8D9F8000086
:1045E00005F0AEFDCDF8008002460B466B48FCF7A7
:1045F00012F86A486F49FCF700F8304607F5CE71AB
:104600002A4601F0D6FE3046012101F0E0FE804648
:10461000002859D12A46584607F5CE7101F0C9FE47
:104620004146584601F0DDFE0146204604F089FF70
:104630002046614905F027F810F1000818BF4FF037
:104640000108204604F03CFFB8F1000F3CD02A4698
:10465000584607F5CE7101F0ACFE0121584601F035
:10466000B6FEFCF7ACFA504BD7F8B8201B68013BFC
:104670009A4229D15149DFF854914D48FBF7BDFFCB
:104680004E494648FBF7B9FFD9F8000005F058FD40
:104690004FF0020802460B46CDF800804448FBF775
:1046A000BAFF44494248FBF7A8FFD9F8000005F0DB
:1046B00047FDCDF8008002460B463848FBF7ABFFBC
:1046C00036483C49FBF799FF304607F5CE712A463C
:1046D00001F06FFE3046012101F079FE804600288E
:1046E00078D12A46584607F5CE7101F062FE414660
:1046F000584601F076FE0146204604F022FF20468F
:104700002F4904F0C0FF10F1000818BF4FF0010856
:10471000204604F0D5FEB8F1000F5BD02A4658467B
:1047200007F5CE7101F045FE0121584601F04FFE1C
:10473000FDF7B6F81C4BD7F8B8101B68013B99423F
:1047400048D12049DFF888901948FBF756FF1D49EA
:104750001248FBF752FFD9F8000005F0F1FC4FF0CA
:10476000020802460B46CDF800801148FBF753FFC4
:1047700010490F48FBF741FFD9F8000005F0E0FCB5
:10478000CDF8008002460B460448FBF744FF03487F
:104790000849FBF732FF1DE009F30000B095FF1F49
:1047A000EBE900003BF300001884FF1F44E8000021
:1047B000C095FF1FDBF2000059F300005AE800002B
:1047C0004DF3000065F30000DC8CFF1F6890FF1FB5
:1047D000BC8EFF1F304607F5CE712A4601F0E9FD79
:1047E0003046012101F0F3FD8046002859D12A46C8
:1047F000584607F5CE7101F0DCFD4146584601F000
:10480000F0FD0146204604F09CFE2046C04904F01D
:104810003AFF10F1000818BF4FF00108204604F0DD
:104820004FFEB8F1000F3CD02A46584607F5CE712E
:1048300001F0BFFD0121584601F0C9FDFCF796FECD
:10484000B44BD7F8B8201B68013B9A4229D1B24932
:10485000DFF8EC92B148FBF7D0FEAF49B048FBF768
:10486000CCFED9F8000005F06BFC4FF002080246C0
:104870000B46CDF80080A948FBF7CDFEA949A74813
:10488000FBF7BBFED9F8000005F05AFCCDF800801C
:1048900002460B46A248FBF7BEFEA148A149FBF722
:1048A000ACFE304607F5CE712A4601F082FD304657
:1048B000012101F08CFD8046002840F0E4802A466A
:1048C000584607F5CE7101F074FD4146584601F097
:1048D00088FD0146204604F034FE2046924904F04B
:1048E000D2FE10F1000818BF4FF00108204604F076
:1048F000E7FDB8F1000F00F0C6802A46584607F5DC
:10490000CE7101F056FD0121584601F060FDFCF723
:104910005BF9804BD7F8B8101B68013B994240F017
:10492000B280DFF8209281497C48FBF766FE7F4920
:104930007B48FBF762FED9F80000FCF795FA05F01A
:10494000FFFB4FF0020802460B46CDF8008073488B
:10495000FBF761FE73497148FBF74FFED9F8000081
:10496000DFF8E491FCF780FA05F0EAFBCDF800806F
:1049700002460B466A48FBF74EFE6A496848FBF759
:104980003CFE6B496548FBF738FE69496448FBF714
:1049900034FED9F80000FCF767FA05F0D1FBCDF83A
:1049A000008002460B465D48FBF735FE5D495B48DB
:1049B000FBF723FED9F80000DFF89091FCF754FADA
:1049C00005F0BEFBCDF8008002460B465448FBF7CD
:1049D00022FE54495248FBF710FE56494F48FBF758
:1049E0000CFE54494E48FBF708FED9F80000FCF7CE
:1049F0003BFA05F0A5FBCDF8008002460B46474880
:104A0000FBF709FE47494548FBF7F7FDD9F80000D9
:104A1000DFF83C91FCF728FA05F092FBCDF8008016
:104A200002460B463E48FBF7F6FD3E493C48FBF785
:104A3000E4FD41493948FBF7E0FD3F493848FBF7C1
:104A4000DCFDD9F80000FCF70FFA05F079FBCDF892
:104A5000008002460B463148FBF7DDFD31492F4807
:104A6000FBF7CBFDD9F80000FCF7FEF905F068FB79
:104A7000CDF8008002460B462948FBF7CCFD2848BC
:104A80002849FBF7BAFD304607F5CE712A4601F0FA
:104A900090FC3046012101F09AFC8046002873D139
:104AA0002A46584607F5CE7101F083FC4146584628
:104AB00001F097FC0146204604F043FD20461F49C3
:104AC00004F0E1FD10F1000918BF4FF00109204684
:104AD00004F0F6FCB9F1000F56D02A46584607F507
:104AE000CE7101F066FC0221584601F070FC5FFABD
:104AF00080F94146484604F037F9484603F064FE21
:104B0000044BD7F8B8201B68013B9A4222E000BF53
:104B100081F300001884FF1F85F30000C095FF1F7C
:104B2000B095FF1FDBF20000CAF00000B1E8000002
:104B30008DF3000093F3000099F300009FF3000051
:104B4000608EFF1F488FFF1F588FFF1FB08EFF1F03
:104B5000C08EFF1F804617D1A049A148FBF74DFD2D
:104B60009E49A048FBF749FD41469D48FBF749FD9A
:104B70009D499B48FBF741FD41469A48FBF741FDA3
:104B800098489949FBF739FD304607F5CE712A461A
:104B900001F00FFC3046012101F019FC804600288D
:104BA0004FD12A46584607F5CE7101F002FC414626
:104BB000584601F016FC0146204604F0C2FC20468F
:104BC0008A4904F060FD10F1000918BF4FF0010997
:104BD000204604F075FCB9F1000F32D02A46584641
:104BE00007F5CE7101F0E5FB0221584601F0EFFB1D
:104BF0005FFA80F94146484604F0B6F8484604F0AA
:104C0000A7F87B4BD7F8B8101B68013B9942804648
:104C100017D178497248FBF7F0FC76497148FBF7E9
:104C2000ECFC41466E48FBF7ECFC6F496C48FBF727
:104C3000E4FC41466B48FBF7E4FC6A486A49FBF731
:104C4000DCFC304607F5CE712A4601F0B2FB304657
:104C5000012101F0BCFB8046002844D12A46584679
:104C600007F5CE7101F0A5FB4146584601F0B9FBAE
:104C70000146204604F065FC20465F4904F003FD30
:104C800010F1000818BF4FF00108204604F018FC8E
:104C9000B8F1000F27D02A46584607F5CE7101F02B
:104CA00088FB0221584601F092FB2A46804607F510
:104CB000CE71584601F07DFB0321584601F087FB79
:104CC0005FFA88F881460121404604F04DF84B4ACE
:104CD00052F8382019F0FF0F4FF0010314BF82F88B
:104CE000803082F80031304607F5CE712A4601F057
:104CF00060FB3046012101F06AFB814600286AD141
:104D00002A46584607F5CE7101F053FB49465846EE
:104D100001F067FB0146204604F013FC20463849A9
:104D200004F0B1FC10F1000818BF4FF00108204654
:104D300004F0C6FBB8F1000F4DD02A46584607F5DF
:104D4000CE7101F036FB0221584601F040FB2A46A5
:104D5000804607F5CE71584601F02BFB04215846DA
:104D600001F035FB2A46844607F5CE715846C7F850
:104D700000C001F01EFB0321584601F028FB2A4623
:104D8000034607F5CE7158467B6001F012FB032104
:104D9000584601F01CFB5FFA88F8C7F8AC00012107
:104DA000404603F0E1FF4046D7F8AC1003F06AFF3D
:104DB0007B684046194603F0F3FFD7F800C0604611
:104DC00004F0E6F84046494603F0EAFF4046D7F8CB
:104DD000AC1003F057FF013517E000BFABF3000044
:104DE000C095FF1FB095FF1FDBF20000BBF3000072
:104DF0001884FF1FC8F30000D9F3000060F700001B
:104E0000E7F30000002507F5D27607F5CE70FBF733
:104E1000A4FC8542FFF666ABAB4DB86AAB4E03F01F
:104E2000A9FC2868FCF720F8C7F88C0005F0E2FF21
:104E300001463068FCF768F8D7F898305843642387
:104E400090FBF3F3A248C7F8AC3004F0BFFDA149D2
:104E50009F48FBF7D2FBD7F8AC109D48FBF75CFCF2
:104E60009D499B48FBF7C9FB2868FBF7FDFF05F050
:104E700067F90B460221024600919548FBF760FC5A
:104E800096499348FBF7B9FB2868D6F80080FBF7F2
:104E9000EBFF05F0AFFF01464046FCF735F8002573
:104EA00001468B48FBF738FCA946C7F89050FD66D1
:104EB000F4E2002D31D1B9F1000F2ED103F032F818
:104EC0008249FA6D0B689A4206D0D2B2844B53F8ED
:104ED0003230012283F8002104F03CF83B6E002BB5
:104EE000064608DB5A1E7F4B9A4204D87E487F490B
:104EF000FA6B04F0BAFC04F02DF8396C801B884280
:104F0000F9D33A6E002A08DB764B013A9A4204D86C
:104F100077487849FA6B04F0A8FC6D4804F056FD18
:104F200075496B48FBF769FB29466948FBF769FB44
:104F300072496748FBF761FBD7F8F4106448FBF748
:104F400062FB6E496248FBF758FBD7F8A010604837
:104F5000FBF757FB6A495E48FBF74FFB396F5C482C
:104F6000FBF7E4FB67495A48FBF747FB664B584899
:104F70001968FBF746FB61495548FBF73EFB634B5D
:104F800053481968FBF7C8FBB9F1000F0FD107F5BB
:104F9000D67007F5CA712A4601F00BFA07F5D670EC
:104FA000FBF7DBFB0123C7F8A0003B6501E0002114
:104FB000396507F5D67007F5CA712A4601F0F9F987
:104FC000D7F8F430D7F8A020B3FBF2F102FB11318F
:104FD00007F5D67001F0FBF94B4B07F5C671186069
:104FE0002A4607F5D67001F0E4F9D7F8F430D7F87F
:104FF000A020B3FBF2F102FB113107F5D67001F0EE
:10500000E6F9424B1860D7F8A030994580F2378115
:10501000B9F1000F7CD1294607F5B67001F0D7F938
:10502000D7F8AC10386100912A46D7F88C30D7F801
:105030009810FDF721F82946804607F5BA7001F06F
:10504000C6F9D7F8AC20F8600092D7F88C30D7F8C2
:1050500098102A46FDF710F82946B86607F5BE7085
:1050600001F0B5F9D7F8AC30B86000932A46D7F80C
:105070008C30D7F89810FCF7FFFF2946786607F5C3
:10508000C27001F0A4F9D7F8AC100091D7F89810CD
:10509000D7F88C3038602A46FCF7EEFF7A6FBB6F8A
:1050A000F96FFA62D7F880203B637963BA63D7F867
:1050B00000C0BB68F9683A69C7F874C00646BB67A8
:1050C000F967C7F8802027E0488FFF1F0484FF1F7F
:1050D000B095FF1FF4F3000001F4000017F4000086
:1050E00060F70000545555054C8EFF1F6505000004
:1050F0001C8BFF1F4105000031F40000EBE90000AC
:10510000DBF2000071F400006490FF1FB48EFF1FFB
:1051100000267E66BE66B046D7F8AC30DFF890C297
:105120000093DCF80000D7F88C30C7F800C0D7F83F
:1051300098102A46FCF7A0FFD7F800C0DCF8003032
:10514000DFF828C2023B122B3FD8DFE803F02C3EE9
:105150003E3E3E3E3E3E321A203E380A143E3E3E21
:105160002600BCF800208048C7F800C0032101F0E9
:105170008FFBD7F800C07C48BCF80020032101F069
:1051800087FB7A4B78481A88032101F081FB774B23
:1051900075481A88032101F07BFB754B72481A8809
:1051A000002101F075FB724B6F481A88002101F055
:1051B0006FFB704B6C481A88022101F069FB6D4B44
:1051C00069481A88022101F063FB6B4A04231360CB
:1051D0002022013A7FF4FDAF684A1360B9F1000F55
:1051E00011D1634B60481A88494601F051FB5F4B6F
:1051F0005D481A88032101F04BFB5E4B5A481A8820
:10520000022101F045FB5E495E48FBF7F6F9584B79
:105210005C481968FBF7F5F95B495A48FBF7EDF96B
:10522000524B58481968FBF7ECF957495548FBF7BA
:10523000E4F9504B53481968FBF76EFA534951484B
:10524000FBF760FA41464F48FBF7DBF94E494D4802
:10525000FBF7D3F9B96E4B48FBF7D3F94A494948F4
:10526000FBF7CBF9796E4748FBF7CBF94649454840
:10527000FBF7C3F931464348FBF74EFA03E000263B
:105280007E66BE66B046424A4249136808680028F6
:10529000FBD0002BF9D0404B187803F095FA3F4B28
:1052A00018603F4B10221A603A6D002A4ED0B96B3D
:1052B0003C4BCAB2396D53F83220B8F1010F82F875
:1052C000001106D1D7F88010CAB253F8322082F804
:1052D0008080796BCAB253F83230012283F8002102
:1052E000BA6E012A07D1FB6FB96EDAB22D4B53F8B3
:1052F000323083F88010396B2A4BCAB2012153F83F
:10530000322082F800117A6E8A4206D1B96FCAB291
:10531000796E53F8322082F88010F96ACAB253F8D5
:1053200032300122964283F8002106D17B6FDAB237
:105330001C4B53F8323083F880600F4A042313600B
:105340002022013A7FF4FDAF0C4A1360796989BBD2
:10535000114B1B68222B02D0232B2BD101E0124BC7
:1053600000E0124B1E6826E0488DFF1F8C8EFF1F49
:10537000B88EFF1FA08EFF1F88F00F4084F00F40F3
:10538000B1F40000B095FF1FDBF20000EEF4000066
:10539000988BFF1F3C8FFF1FB48EFF1FF48FFF1FE2
:1053A000C4F00F4060F70000408FFF1F448FFF1FC5
:1053B0006490FF1F00266B496B48FBF71EF9F96EDE
:1053C000694804F049FB69496748FBF716F96648E4
:1053D000D7F8A410FBF7AAF9654B1B68F3B1654B2E
:1053E000D7F8A820F96E1B6852F821007B6005F001
:1053F000E7FA7B688046184605F0E2FA314605F088
:1054000029FA0146404605F027FA05F0F3FCFB6E49
:10541000D7F8A82042F823000133FB6672B6564B3A
:105420005649514800261E60554B1E60FBF7E5F8B3
:10543000D7F8F430D7F8A8204B4852F8231004F0DE
:105440000BFB50494848FBF7D8F84A4B46481968C7
:10545000FBF76CF909F1010962B6D7F8F430294677
:10546000013307F5B270C7F8F43000F0B0FF07F56C
:10547000CA7180462A4607F5D67000F09AFF07F5F4
:10548000D670FBF76AF900FB08F0814501D10135C0
:10549000B146D7F890300133C7F89030D7F8901064
:1054A0003A6F9142FFF605ADD7F8AC30364E009317
:1054B000B96901912A46D7F88C303068D7F898102E
:1054C000FCF7B2FE3368D7F88050304A9D4205D0D1
:1054D000E9B2012552F8311081F80051FD6F9D426B
:1054E00005D0E9B252F83120012182F80011BD6FD8
:1054F000264A9D4205D0E9B2012552F8311081F8C3
:1055000000517D6F9D4205D0E9B252F83120012152
:1055100082F8001101281D4A0ED11D4D0421296079
:105520002025013D7FF4FDAFDBB21A4D52F8333038
:10553000296083F8800005E0DBB252F833300122A5
:1055400083F80021144804F087F9144804F084F922
:10555000094B00251D600A4B07F5D2761D60C7F880
:10556000F450F2E229F50000B095FF1FDBF20000D5
:105570006490FF1FF48FFF1F988BFF1F69F50000D9
:105580003C8FFF1FC8E900000484FF1F60F7000084
:1055900088F00F4084F00F404C8EFF1F1C8BFF1FC4
:1055A000BC49BD48FBF7AEF82A46584607F5CE7110
:1055B00000F0FFFE0021584600F013FF0146B648F8
:1055C000FBF71BF8B549B448FBF717F82A465846CD
:1055D00007F5CE7100F0EDFE0121584600F0F7FE10
:1055E0000146AD48FBF7A2F8304607F5CE712A46D2
:1055F00000F0DFFE0121304600F0E9FE0128804680
:1056000059D12A46584607F5CE7100F0D2FE002146
:10561000584600F0E6FE0146204603F092FF204681
:105620009F4904F030F810F1000918BF4FF001094C
:10563000204603F045FFB9F1000F3CD02A465846FA
:1056400007F5CE7100F0B5FE4146584600F0BFFEAA
:10565000FBF7B0FA934BD7F8B8201B68013B9A428E
:1056600029D19149DFF860929048FAF7C6FF8E4938
:105670008948FAF7C2FFD9F8000004F061FD4FF045
:10568000020802460B46CDF800808848FAF7C3FFAF
:1056900087498648FAF7B1FFD9F8000004F050FDB9
:1056A000CDF8008002460B467B48FAF7B4FF7A48F3
:1056B0007F49FAF7A2FF304607F5CE712A4600F07F
:1056C00078FE0121304600F082FE0128804659D143
:1056D0002A46584607F5CE7100F06BFE0021584669
:1056E00000F07FFE0146204603F02BFF2046714963
:1056F00003F0C9FF10F1000918BF4FF0010920465F
:1057000003F0DEFEB9F1000F3CD02A46584607F5FB
:10571000CE7100F04EFE4146584600F058FEFBF7B1
:105720004EFA604BD7F8B8101B68013B994229D15B
:105730006149DFF898915D48FAF75FFF5E49564886
:10574000FAF75BFFD9F8000004F0FAFC4FF002080A
:1057500002460B46CDF800805448FAF75CFF5449E6
:105760005248FAF74AFFD9F8000004F0E9FCCDF8F6
:10577000008002460B464848FAF74DFF46484C4920
:10578000FAF73BFF304607F5CE712A4600F011FECE
:105790000121304600F01BFE0128804659D12A46DF
:1057A000584607F5CE7100F004FE0021584600F07F
:1057B00018FE0146204603F0C4FE20463F4903F090
:1057C00062FF10F1000918BF4FF00109204603F0F5
:1057D00077FEB9F1000F3CD02A46584607F5CE7146
:1057E00000F0E7FD4146584600F0F1FDFCF758F89F
:1057F0002C4BD7F8B8201B68013B9A4229D130497D
:10580000DFF8CC902948FAF7F8FE2D492248FAF73C
:10581000F4FED9F8000004F093FC4FF002080246B1
:105820000B46CDF800802148FAF7F5FE20491F48C5
:10583000FAF7E3FED9F8000004F082FCCDF800800E
:1058400002460B461448FAF7E6FE13481849FAF7E1
:10585000D4FE304607F5CE712A4600F0AAFD01219C
:10586000304600F0B4FD012880467BD12A465846D8
:1058700007F5CE7100F09DFD0021584600F0B1FD06
:105880000146204603F05DFE20460E4903F0FBFE74
:1058900020E000BF09F30000B095FF1FEBE9000016
:1058A0003BF300001884FF1F44E80000C095FF1F71
:1058B000DBF2000059F300005AE800004DF300004D
:1058C00065F3000081F30000DC8CFF1F6890FF1F70
:1058D000BC8EFF1F10F1000918BF4FF001092046D0
:1058E00003F0EEFDB9F1000F3CD02A46584607F50B
:1058F000CE7100F05EFD4146584600F068FDFBF7B2
:1059000035FEA44BD7F8B8101B68013B994229D14A
:10591000A149DFF8AC92A148FAF76FFE9E49A04872
:10592000FAF76BFED9F8000004F00AFC4FF0020809
:1059300002460B46CDF800809848FAF76CFE99496C
:105940009648FAF75AFED9F8000004F0F9FBCDF8B2
:10595000008002460B469248FAF75DFE9048914956
:10596000FAF74BFE304607F5CE712A4600F021FDCE
:105970000121304600F02BFD0128804640F0E480F4
:105980002A46584607F5CE7100F013FD002158460F
:1059900000F027FD0146204603F0D3FD2046824952
:1059A00003F071FE10F1000918BF4FF00109204605
:1059B00003F086FDB9F1000F00F0C6802A46584674
:1059C00007F5CE7100F0F5FC4146584600F0FFFCAB
:1059D000FBF7FAF86F4BD7F8B8201B68013B9A42E7
:1059E00040F0B280DFF8DC9170496C48FAF705FEB0
:1059F0006E496B48FAF701FED9F80000FBF734FA5C
:105A000004F09EFB4FF0020802460B46CDF80080E2
:105A10006248FAF700FE63496048FAF7EEFDD9F8EC
:105A20000000DFF8A491FBF71FFA04F089FBCDF822
:105A3000008002460B465A48FAF7EDFD594958488E
:105A4000FAF7DBFD5A495548FAF7D7FD584954484B
:105A5000FAF7D3FDD9F80000FBF706FA04F070FB63
:105A6000CDF8008002460B464C48FAF7D4FD4D496C
:105A70004A48FAF7C2FDD9F80000DFF85091FBF769
:105A8000F3F904F05DFBCDF8008002460B46444874
:105A9000FAF7C1FD43494248FAF7AFFD45493F488F
:105AA000FAF7ABFD43493E48FAF7A7FDD9F80000E5
:105AB000FBF7DAF904F044FBCDF8008002460B4610
:105AC0003648FAF7A8FD37493448FAF796FDD9F871
:105AD0000000DFF8FC90FBF7C7F904F031FBCDF8CC
