:1000000000800020BD010000599B0000599B0000AA
:10001000599B0000599B0000599B0000259B000044
:10002000259B0000259B0000259B0000599B00009C
:10003000599B0000259B0000599B0000159B000068
:10004000599B0000599B0000599B0000599B0000E0
:10005000599B0000599B0000599B0000599B0000D0
:10006000599B0000599B0000599B0000599B0000C0
:10007000599B0000599B0000599B0000599B0000B0
:10008000599B0000599B0000599B0000599B0000A0
:10009000599B0000E5840000599B0000599B00001B
:1000A00005760000599B0000599B0000599B0000F9
:1000B000599B0000599B0000599B0000599B000070
:1000C000599B0000599B0000599B0000599B000060
:1000D000599B0000599B0000599B0000599B000050
:1000E000599B0000599B0000599B0000599B000040
:1000F000599B000055910000599B000009B4000075
:10010000599B0000BD8C0000599B0000599B0000CA
:10011000599B0000599B0000599B0000599B00000F
:10012000599B0000599B0000599B0000599B0000FF
:10013000599B0000599B0000599B0000599B0000EF
:10014000599B0000599B0000599B0000599B0000DF
:1001500031AB000049AB000061AB000079AB00009F
:10016000599B0000D1930000599B0000599B00004F
:10017000599B0000599B0000599B0000599B0000AF
:10018000599B0000599B0000599B0000599B00009F
:10019000599B0000599B0000599B00003D9D0000A9
:1001A0008D9D0000159E0000D19E0000559F00000F
:1001B000599B0000599B0000599B0000544B4CF286
:1001C000205210B51A804DF628121A8000BF00BFC9
:1001D00008F0CCF94F4B4FF010621A604E4A9A600B
:1001E0004E4ADA604E4B1A6812F4807204D14D49BF
:1001F0000A604FF4A8521A604B4B1A7802F00802BA
:10020000D2B21AB11A7842F008021A70474B484825
:10021000484C2A221A700023474A02E01959995083
:10022000043399188142F9D3444B454A002101E037
:1002300043F8041B9342FBD34249434800231A5816
:100240005A500433B3F5DE7FF9D1404B404A802148
:1002500003F8011B9342FBD13A4A3E4B1A603E4BD6
:100260000A221A703D4B24221A70A02203F8012C96
:100270003B4A137803F00203DBB2002BF9D0384A73
:10028000137803F01003DBB2002BF9D1344A137852
:1002900003F00C03082BFAD1324B03221A704022D0
:1002A0005A702F4A137803F02003DBB2002BF9D0E9
:1002B0002B4A137803F04003DBB2002BF9D02A4B12
:1002C0002A4A1A6002225A60294B20221A70244AB4
:1002D000137803F00C030C2BFAD1264A264B1A6034
:1002E000264B274A1A60072243F8042C62B60AF00C
:1002F00013F80C4B1B68DC0702D5224809F042FEBC
:100300000CF096FA09F02BFC0AF062FAFEE700BF47
:100310000E20054030800440823F04000100002B85
:1003200010D0034014D0034002D0074000E0074043
:100330005890FF1FF41201006089FF1F5890FF1FA3
:10034000009DFF1F0084FF1F0000000000E400E08C
:100350005FE400E008ED00E0005006400140064088
:10036000064006400440064044800440000003016B
:1003700000400640C01005000480044014E000E086
:10038000FF760100AAFF2455FFFFFFFFFFFFFFFFDD
:10039000FFFFFFFFFFFFFFFFFFFFFFFFFFFFFFFF6D
:1003A000FFFFFFFFFFFFFFFFFFFFFFFFFFFFFFFF5D
:1003B000FFFFFFFFFFFFFFFFFFFFFFFFFFFFFFFF4D
:1003C000FFFFFFFFFFFFFFFFFFFFFFFFFFFFFFFF3D
:1003D000FFFFFFFFFFFFFFFFFFFFFFFFFFFFFFFF2D
:1003E000FFFFFFFFFFFFFFFFFFFFFFFFFFFFFFFF1D
:1003F000FFFFFFFFFFFFFFFFFFFFFFFFFFFFFFFF0D
:10040000FFFFFFFFFFFFFFFFFFFFFFFFFEFFFFFFFD
:1004100008B549F25800074BC1F6FF701B1A062BAE
:1004200000D808BD40F20003C0F20003002BF8D052
:100430009847F6E75B90FF1F08B549F2580049F26C
:100440005803C1F6FF70C1F6FF731B1A9B1003EB34
:10045000D373591000D108BD40F20002C0F200026F
:10046000002AF8D09047F6E710B549F25804C1F6D3
:10047000FF74237873B9FFF7CBFF40F20003C0F29B
:1004800000032BB141F2F420C0F20100AFF3008071
:100490000123237010BD00BF08B540F20003C0F275
:1004A00000034BB141F2F42049F25C01C0F20100BB
:1004B000C1F6FF71AFF3008049F25800C1F6FF703A
:1004C00003682BB140F20003C0F2000303B1984768
:1004D000BDE80840B0E700BF024B4FF400121A60BD
:1004E000704700BF80E100E010B504460AF0DEFB73
:1004F000204610BD70B503460D46164607481946FE
:100500002A4607F0FBFA002404E0044806F05EFFE8
:1005100030550134E3B2AB42F7D370BD0896FF1FEC
:10052000034670B509480D4619461646002407F0E3
:10053000E7F903E0315D06F007FF0134E3B2AB42B7
:100540000248F7D3BDE8704007F0EFBA0896FF1FE6
:10055000064B10221A60064B1A78064B53F83220CD
:10056000012382F88030044A13607047C8F00F40BE
:10057000F893FF1F800D01006091FF1F054B1A7853
:10058000054B53F83220012382F80031034A1360EF
:10059000704700BFF893FF1F800D0100B894FF1F44
:1005A00038B50A480A4D06F057FB0A4B044618684E
:1005B0000BF082FE014620460BF086FF01462868BC
:1005C0000BF0C6FD2860204638BD00BFCC94FF1F4D
:1005D0004892FF1F7889FF1F38B50A480A4D06F078
:1005E000D7FA0A4B044618680BF066FE014620460F
:1005F0000BF06AFF014628680BF0AAFD2860204630
:1006000038BD00BFCC94FF1F2494FF1F7889FF1FC3
:1006100030B5ADF5B05D81B0684600214FF4B05201
:100620000CF02EFD00246D4621462A5D054801345C
:1006300006F041FAB4F5B05FF6D10DF5017D0DF588
:10064000A05D30BDFC95FF1F38B5044608460D4639
:1006500008F08AFB236802465B68204629469847D3
:1006600038BD08B5FFF7F0FF08BD0AF077BC9DF86C
:10067000001000910AF07CBC38B504460AF006FC74
:10068000054620460AF024FC401938BD38B504461A
:10069000FFF7DAFF054620460AF01AFC281838BD95
:1006A00038B504460AF05AFC054620460AF010FC0C
:1006B000281838BD37B59DF81810009104460AF087
:1006C00057FC054620460AF003FC28183EBD40684A
:1006D00000B1C0687047FFFF0D4B70B540241C602F
:1006E000322009F003FE0B4B0B4D0C4E1C600C4CE2
:1006F00031462846FFF7CAFF31462046FFF7C6FFBE
:1007000028460AF0E5FB2046BDE870400AF0E0BB51
:10071000C4F00F40C8F00F40249BFF1F3C010100B4
:10072000E89AFF1F10B517491748184CFFF799FFB3
:1007300017481449FFF795FF236863B91549124814
:10074000FFF7A4FF12481349FFF7A0FF124B022244
:100750001A6001230DE0012B0CD110490A48FFF764
:1007600095FF0B480D49FFF791FF0D4B02221A60D0
:100770000023236004480AF0ABFB0548BDE81040A5
:100780000AF0A6BB4F010100249BFF1FF095FF1F3D
:10079000E89AFF1F4801010084F00F406401010046
:1007A00088F00F402DE9F74F002140F6FF724D48C9
:1007B00006F0BEFD4C4A0423202413602246013A71
:1007C000FDD14A4A4A4F1360112009F0B7FE494B48
:1007D000494E1C6005460A2009F088FD112009F0E9
:1007E000ADFE83466E2009F081FD112009F0A6FEC2
:1007F000424BDFF818911C60414C82462146384636
:10080000FFF72FFF21463046FFF72BFF28460BF05E
:1008100053FD3C490BF058FE0BF00EF94FF0020867
:1008200004460D460B462246CDF800803846FFF7B9
:100830001EFF22462B46CDF800803046FFF717FFFB
:1008400049463846FFF70DFF49463046FFF709FF96
:1008500058460BF031FD2B490BF036FE0BF0ECF84F
:1008600004460D460B462246CDF800803846FFF779
:10087000FEFE22462B46CDF800803046FFF7F7FEFD
:1008800049463846FFF7EDFE49463046FFF7E9FE98
:1008900050460BF011FD1B490BF016FE0BF0CCF887
:1008A00004460B462246CDF8008038460D46FFF739
:1008B000DEFE2246144CCDF800802B463046FFF772
:1008C000D6FE21463846FFF7E1FE21463046FFF7C7
:1008D000DDFE38460AF0FCFA304603B0BDE8F04FC2
:1008E0000AF0F6BAB492FF1F88F00F4084F00F4070
:1008F000249BFF1FC4F00F40E89AFF1FC8F00F4071
:100900006A010100006013457B010100570A0100E4
:100910002DE9F34707460E460AA8002114469846DB
:100920000C9D06F020FA002840F3EA8075497648CD
:10093000FFF797FE294674480AF0A8FA73497248EF
:10094000FFF78FFE6F497248FFF78BFE294670480C
:100950000AF09CFA6D496E48FFF783FE204600219D
:100960000BF092FE002840F0BA8020460BF064F8AD
:10097000022704460D460B46224600976248FFF7C1
:1009800076FE0097624822462B46FFF770FE3068DD
:1009900000210BF079FE002840F0AA805D495A48FA
:1009A000FFF75FFE40460BF047F8044622460B4631
:1009B000009755480D46FFF75AFE56495448FFF731
:1009C00050FE009722462B465148FFF750FE8FE01D
:1009D00051494D48FFF745FE21460AA806F0C3F9E4
:1009E000014649480AF0BAFA4A494748FFF739FE32
:1009F00049494748FFF735FE21460AA806F0B3F9F2
:100A0000014643480AF0AAFA41484249FFF729FE45
:100A100000254FE021460AA858F825A006F0A3F9C2
:100A20000BF04AFC014650464FEA85090BF02CFEBC
:100A300000283ED057F809000AF0FEFF02250246C2
:100A40000B4600953048FFF712FE57F809000AF0F0
:100A5000F3FF009502460B462D48FFF708FE30686D
:100A600000210BF011FED8B92A492748FFF7F9FDFC
:100A700056F809000AF0E0FF009502460B462248AE
:100A8000FFF7F5FD23492248FFF7EBFD56F8090073
:100A90000AF0D2FF009502460B461D48FFF7E7FD1E
:100AA0001E491948FFF7DDFD1C491948FFF7D9FD1C
:100AB00002E001351A2DADD1012009F017FC0AA87A
:100AC000FFF705FE0138844207D012490E48FFF7B0
:100AD000C8FD0F480F49FFF7C4FD013402E0DFF8FD
:100AE000448000240AA8FFF7F2FD8442FFF670AFAD
:100AF0000B490548FFF7B5FD05480949FFF7B1FD6A
:100B0000BDE8FC875A050100249BFF1F8B010100F3
:100B1000E89AFF1F570A01008E0101009D0B01009A
:100B2000BC0B01008889FF1F10B52820002109F0A7
:100B3000C9FA28210A2200230A480AF0D7F90948ED
:100B40000AF0C6F96424282009F0F8FC014605489B
:100B5000FFF7A6FD4FF4FA6009F0C8FB013CF2D1A3
:100B600010BD00BF249BFF1F70B50C2009F01AFABE
:100B70002820012109F0A6FA40F2DC553BE00446AA
:100B80002146282009F0BAFA032009F0AFFB1A2009
:100B900009F0D4FC214606461C48FFF766FD1C49B7
:100BA0001A48FFF75EFD31461848FFF75EFD013435
:100BB00016481749FFF76AFDAC42E1D121462820CB
:100BC00009F09CFA032009F091FB1A2009F0B6FC09
:100BD000214606460D48FFF748FD0D490B48FFF733
:100BE00040FD31460948FFF740FD08480849FFF736
:100BF0004DFD013CE2D107F029FE0028BFD007F0EF
:100C0000DFFDBDE8704007F0DBBD00BF249BFF1F88
:100C1000570A0100012801D8FFF7C2BC704701281C
:100C200001D8FFF7D9BC704701282DE9F8438CBFE4
:100C3000002401240CB903283DD1204806F046FBCE
:100C400005461E4806F03BFB80461C4806F030FB7C
:100C500007461A4806F025FB81464CB3184B194E3F
:100C60001C68B5FBF4F00BF023FB014630680BF079
:100C70006FFA3060B8FBF4F00BF01AFB124E01462D
:100C800030680BF065FA3060B7FBF4F00BF010FB46
:100C90000E4E014630680BF05BFA3060B9FBF4F0A1
:100CA0000BF006FB0A4E014630680BF051FA30603B
:100CB0002846BDE8F883BDE8F88300BFE893FF1F2E
:100CC0007889FF1FC494FF1FD094FF1F2094FF1F3B
:100CD0003894FF1F2DE9F74F2A4DDFF8B4B0DFF845
:100CE000B4A0294EDFF8B090DFF8B080274C594609
:100CF0002846FFF7B6FCDAF800000AF09DFE02274E
:100D000002460B4600972846FFF7B1FC31462846BD
:100D1000FFF7A7FC49462846FFF7A3FCD8F80000D8
:100D20000AF08AFE009702460B462846FFF79FFC12
:100D300059462046FFF795FCDAF800000AF07CFEE1
:100D4000009702460B462046FFF791FC31462046AD
:100D5000FFF787FC49462046FFF783FCD8F80000E0
:100D60000AF06AFE009702460B462046FFF77FFC1A
:100D700031462846FFF775FC20463146FFF771FCE7
:100D8000BDE8FE8F249BFF1F570A0100E89AFF1F52
:100D900031020100F089FF1F40020100F495FF1F9E
:100DA0002DE9F0410D46ADF57E7D04462B48DFF878
:100DB000B880164609F0B6FF2946294809F0B2FF67
:100DC0004FF47A72002104A80CF05AF92046002151
:100DD00009F047FD234B1A680192019D1A6802929F
:100DE000029A1F460DE03B6803930398401B0BF0EB
:100DF00063FAD8F800100BF06FFC10B1FFF76CFC31
:100E000005E007F023FD10B908F04CF9E8B107F050
:100E10001DFD002805DD07F0FBFC5B2818D00F48FE
:100E200008E008F03FF9002812DD08F061F95B28BE
:100E30000ED00B482B2104AA4FF47A7309F074FFEB
:100E4000204604A909F045FD02E0012ED9D1CAE7E8
:100E500020460DF57E7DBDE8F08100BF249BFF1F7D
:100E6000E89AFF1FDC9AFF1FF489FF1FF0B50446C4
:100E700091B02248214609F055FF2148214609F04A
:100E800051FF2022002108A80CF0FAF804A8002144
:100E900009F0E7FC1B4B1A680192019E1A68029246
:100EA000029A1F4607F0D2FC10B908F0FBF8C0B157
:100EB00008F0F8F8002801DD114804E007F0C6FC4E
:100EC000002815DD0D4808AA20232B2109F02CFF4E
:100ED00008A904A809F0FDFC04980BF057FC05468E
:100EE00006E03B680393039B9B1BA342DADDDFE72D
:100EF00004A809F075FC284611B0F0BD249BFF1F23
:100F0000E89AFF1FDC9AFF1F2DE9F041064690B0DA
:100F10002448314609F006FF2348314609F002FF14
:100F20002022002108A80CF0ABF804A8002109F049
:100F300098FC1E4B1A680192019F1A680292029A4D
:100F4000984607F083FC10B908F0ACF8C8B107F078
:100F50007DFC002801DD134804E008F0A3F8002818
:100F600017DD114808AA20232B2109F0DDFE08A96E
:100F700004A809F0AEFC04980BF004FC04460D46EE
:100F800007E0D8F800300393039BDB1BB342D8DDA6
:100F9000DDE704A809F024FC2046294610B0BDE88E
:100FA000F08100BF249BFF1FE89AFF1FDC9AFF1F00
:100FB00008B5064B19680BF0C9F8054B19680BF01A
:100FC00083FA0BF093FB0BF077F908BDF495FF1F44
:100FD000F089FF1F2DE9F041314D06468846002477
:100FE00030460BF069F9014655F824000BF04CFB34
:100FF000002830D02B4B53F824602B4B53F824702F
:101000002A4B53F824502A4B304653F824100BF047
:101010009DF831460BF058FA014628460BF0A0F92E
:10102000014628460BF094F8224B53F82460224BDB
:10103000054653F8241038460BF088F839460BF073
:1010400043FA014630460BF08BF9014630460BF06F
:101050007FF8044604E001341A2CC1D1002425464F
:101060002046002101270BF00FFB00B10027FFB243
:1010700047B92846002101260BF006FB00B13E4689
:10108000F0B250B140460BF017F921460BF05EF874
:1010900029460BF019FA0BF04FFBBDE8F08100BFB9
:1010A0008889FF1F4094FF1FE090FF1FE892FF1FF9
:1010B0004C92FF1F5093FF1FDC94FF1F73B50D462A
:1010C0000446334933481646FFF7CBFA21463148E8
:1010D00009F0DCFE30492F48FFF7C3FA2C492F48AE
:1010E000FFF7BFFA21462D4809F0D0FE2A492B48C8
:1010F000FFF7B7FA28680AF09FFC022402460B4665
:1011000000942448FFF7B3FA28680AF095FC00948D
:1011100002460B462148FFF7AAFA21491D48FFF76E
:10112000A0FA1F491D48FFF79CFA68680AF084FC82
:10113000009402460B461748FFF799FA68680AF0D0
:101140007BFC009402460B461448FFF790FA1549C1
:101150001048FFF786FA11481249FFF782FA012E6C
:101160000C4805D00E49FFF791FA0C480C490CE0E9
:101170000D49FFF78BFA0D490648FFF787FA0A4930
:101180000648FFF783FA05480849FFF77FFA7CBD58
:101190005A050100249BFF1F49030100E89AFF1F25
:1011A000570A01009D0B01004D010100B20301002F
:1011B000F7B504460D462E482E491746FFF751FA5B
:1011C00021462B4809F062FE2B492948FFF749FACE
:1011D00028492A48FFF745FA2146284809F056FED3
:1011E00026482549FFF73DFA0024022628680AF020
:1011F00023FC009602460B461D48FFF738FA55F8C7
:10120000040B0AF019FC009602460B461B48FFF738
:101210002EFA192C07D01A491548FFF722FA174859
:101220001749FFF71EFA01341A2CDFD1154910486F
:10123000FFF717FA11481349FFF713FA012F0C486B
:1012400005D00F49FFF722FA0C480D490CE00E4972
:10125000FFF71CFA0D490648FFF718FA0A49074834
:10126000FFF714FA05480949FFF710FAFEBD00BF61
:10127000249BFF1F5A05010049030100E89AFF1F44
:10128000570A01009D0B01004D010100B20301004E
:1012900010B50BF011F80B4B196804460BF060F811
:1012A000094B19680AF054FF084B1860084B204698
:1012B00019680BF055F8074B19680AF049FF064BFF
:1012C000186010BD0494FF1F6491FF1FBC94FF1FA2
:1012D0000894FF1F6891FF1FC094FF1F2DE9F7437B
:1012E000054638B953495448FFF7BBF953485149AB
:1012F000FFF7B7F9DFF8689151494F48DFF864818B
:10130000504F514EFFF7ADF9D9F800000AF094FBA9
:10131000022402460B4600944748FFF7A8F94B49C0
:101320004548FFF79EF94A494348FFF79AF9D8F82C
:1013300000000AF081FB009402460B463E48FFF78E
:1013400096F942493C48FFF78CF942493A48FFF781
:1013500088F938680AF070FB009402460B4636485C
:10136000FFF785F939493448FFF77BF93A493248A4
:10137000FFF777F930680AF05FFB009402460B46EE
:101380002D48FFF774F92E492C48FFF76AF9D9F870
:1013900000000AF051FB009402460B462748FFF775
:1013A00066F92A492548FFF75CF929492348FFF7E0
:1013B00058F9D8F800000AF03FFB009402460B46AB
:1013C0001E48FFF754F921491C48FFF74AF9214903
:1013D0001A48FFF746F938680AF02EFB00940246D7
:1013E0000B461648FFF743F918491448FFF739F937
:1013F00019491248FFF735F930680AF01DFB0094CF
:1014000002460B460D48FFF732F9012D0A4807D175
:101410000E49FFF726F90D490848FFF722F906E0C3
:101420000E49FFF733F905480C49FFF72FF9BDE8DE
:10143000FE8300BF55020100249BFF1FE89AFF1F97
:10144000570201000894FF1F6891FF1F570A01000F
:101450006302010074020100800201004D010100DD
:101460000494FF1F6491FF1F01282DE9F341884672
:1014700016461D463DD1A64FA649A748FFF7F1F8ED
:1014800038680AF0D9FA022402460B460094A248B2
:10149000FFF7EDF8A149A048FFF7E3F878680AF0F4
:1014A000CBFA009402460B469B48FFF7E0F89C49B4
:1014B0009948FFF7D6F897499A48FFF7D2F8386865
:1014C0000AF0BAFA009402460B469648FFF7CFF8A6
:1014D00092499448FFF7C5F878680AF0ADFA00948D
:1014E00002460B468F48FFF7C2F88E488C49FFF73B
:1014F000B8F8B8F1010F3DD18B4F8C498648FFF702
:10150000B0F838680AF098FA022402460B460094B4
:101510008148FFF7ACF881497F48FFF7A2F8786867
:101520000AF08AFA009402460B467B48FFF79FF8C0
:101530007B497948FFF795F87C497A48FFF791F89D
:1015400038680AF079FA009402460B467548FFF7AE
:101550008EF872497348FFF784F878680AF06CFADD
:10156000009402460B466F48FFF781F86D486C49BE
:10157000FFF777F8012E3DD16D4E6E496648FFF7B3
:1015800070F830680AF058FA022402460B460094BC
:101590006148FFF76CF861495F48FFF762F87068CF
:1015A0000AF04AFA009402460B465B48FFF75FF8E0
:1015B0005B495948FFF755F85E495A48FFF751F81B
:1015C00030680AF039FA009402460B465548FFF796
:1015D0004EF852495348FFF744F870680AF02CFA65
:1015E000009402460B464F48FFF741F84D484C49DE
:1015F000FFF737F8012D3DD14F4D50494648FFF7D1
:1016000030F828680AF018FA022402460B460094C3
:101610004148FFF72CF841493F48FFF722F8686836
:101620000AF00AFA009402460B463B48FFF71FF8FF
:101630003B493948FFF715F840493A48FFF711F898
:1016400028680AF0F9F9009402460B463548FFF77E
:101650000EF832493348FFF704F868680AF0ECF9ED
:10166000009402460B462F48FFF701F82D482C49FD
:10167000FEF7F7FF089B012B3DD1314D314926483C
:10168000FEF7EFFF28680AF0D7F9022402460B465E
:1016900000942148FEF7EBFF20491F48FEF7E1FFC9
:1016A00068680AF0C9F9009402460B461A48FEF72A
:1016B000DEFF1B491848FEF7D4FF22491948FEF700
:1016C000D0FF28680AF0B8F9009402460B46154886
:1016D000FEF7CDFF11491348FEF7C3FF68680AF013
:1016E000ABF9009402460B460E48FEF7C0FF0D48CA
:1016F0000B49FEF7B6FF099B012B5ED1124D134932
:101700000548FEF7AEFF28680AF096F902241FE0AC
:10171000D494FF1F91020100249BFF1F570A010070
:10172000BC0B0100E89AFF1FA894FF1FA202010052
:101730004495FF1FB3020100B094FF1FC4020100D3
:101740005495FF1FD50201005C95FF1FE6020100C2
:1017500002460B460094A548FEF789FFA449A3481A
:10176000FEF77FFF68680AF067F9009402460B46AF
:101770009E48FEF77CFF9F499C48FEF772FF9E49FA
:101780009E48FEF76EFF28680AF056F9009402465C
:101790000B469A48FEF76BFF95499848FEF761FFA4
:1017A00068680AF049F9009402460B469348FEF730
:1017B0005EFF92488F49FEF754FF0A9B012B3DD1F3
:1017C0008F4D90498948FEF74CFF28680AF034F99C
:1017D000022402460B4600948448FEF748FF8449E1
:1017E0008248FEF73EFF68680AF026F90094024638
:1017F0000B467E48FEF73BFF7E497C48FEF731FFF3
:1018000080497E48FEF72DFF28680AF015F90094FC
:1018100002460B467948FEF72AFF75497748FEF7DE
:1018200020FF68680AF008F9009402460B467348E6
:10183000FEF71DFF71486F49FEF713FF0B9B012B4D
:101840003DD1714D71496948FEF70BFF28680AF0D8
:10185000F3F8022402460B4600946448FEF707FFA3
:1018600063496248FEF7FDFE68680AF0E5F80094F7
:1018700002460B465D48FEF7FAFE5E495B48FEF7FE
:10188000F0FE62495D48FEF7ECFE28680AF0D4F8E5
:10189000009402460B465948FEF7E9FE5449574862
:1018A000FEF7DFFE68680AF0C7F8009402460B46B0
:1018B0005248FEF7DCFE51484E49FEF7D2FE0C9B23
:1018C000012B3DD1524D53494848FEF7CAFE2868C6
:1018D0000AF0B2F8022402460B4600944348FEF791
:1018E000C6FE43494148FEF7BCFE68680AF0A4F80A
:1018F000009402460B463D48FEF7B9FE3D493B4881
:10190000FEF7AFFE43493D48FEF7ABFE28680AF0FC
:1019100093F8009402460B463848FEF7A8FE344977
:101920003648FEF79EFE68680AF086F80094024684
:101930000B463248FEF79BFE30482E49FEF791FEDB
:101940000D9B012B3DD1344D34492848FEF789FECB
:1019500028680AF071F8022402460B4600942348D6
:10196000FEF785FE22492148FEF77BFE68680AF0F3
:1019700063F8009402460B461C48FEF778FE1D49AA
:101980001A48FEF76EFE25491C48FEF76AFE2868D5
:101990000AF052F8009402460B461848FEF767FE1C
:1019A00013491648FEF75DFE68680AF045F8009492
:1019B00002460B461148FEF75AFE10480D49FEF745
:1019C00050FE0E9B012B5DD1154D16490748FEF7C1
:1019D00048FE28680AF030F8022402460B460094BC
:1019E0000248FEF744FE02491EE000BF249BFF1F91
:1019F000570A0100BC0B0100E6020100E89AFF1F34
:101A00006495FF1FF70201006C95FF1F080301009A
:101A10007495FF1F190301007C95FF1F2A03010025
:101A20006C91FF1F3B0301001748FEF71AFE686820
:101A30000AF002F8009402460B461348FEF717FE20
:101A400012491148FEF70DFE11491248FEF709FE32
:101A5000286809F0F1FF009402460B460D48FEF796
:101A600006FE0D490B48FEF7FCFD686809F0E4FF2F
:101A7000009402460B460748FEF7F9FD0548034966
:101A8000FEF7EFFDBDE8FC81249BFF1FBC0B0100AE
:101A90003B030100E89AFF1F570A01007FB5244B62
:101AA0001A680192019D1A6802920C46029A1E461B
:101AB0001DE007211F4807F093F8322008F016FCBC
:101AC00033680393039B5B1BA34210DD1A491B4839
:101AD000FEF7C7FD18491A48FEF7C3FD1949174814
:101AE000FEF7BFFD17491648FEF7BBFD14E007F0EF
:101AF0009FF80028DDD00FE001340A2C09DD01E059
:101B000007F0A4F807F094F80028F9D100240E4D4E
:101B100007E0322008F0EAFB07F08AF80628EBDD40
:101B2000F4E707F093F828550134072CF9D17FBD6D
:101B3000DC9AFF1F6889FF1F4D030100249BFF1FD4
:101B4000E89AFF1F570A01004C95FF1F08B5C2789D
:101B5000007900EB02200AF0ABFB034B19680AF096
:101B6000FFFB0AF0E9FD08BD7089FF1F38B54FF48F
:101B7000FA610C480C4DFFF791FF0C48FFF7E6FFA8
:101B80000446642008F0B2FB094B1868B4FBF0F07F
:101B90000AF08EFB014628680AF0DAFA286020462F
:101BA00038BD00BF6889FF1FCC93FF1F4C95FF1FF6
:101BB0007889FF1F012801D8FFF7D8BF7047FFFFC2
:101BC0002DE9F74F7C4E304604F0BAFF09F022FFB2
:101BD000044630460D4604F0ADFF09F01BFF62A33A
:101BE000D3E9002309F07CFF0022744B0AF0A2F82D
:101BF0000022724B0AF09EF8002206460F4620464D
:101C000029466F4B09F06CFF59A3D3E9002309F073
:101C1000B5FD59A3D3E9002382468B4609F0ACFDFC
:101C200057A3D3E9002304460D4609F059FF0022CB
:101C3000644B09F0A3FD54A3D3E9002380468946F1
:101C40002046294609F04CFF22462B4609F048FF62
:101C500002460B464046494609F090FD5A4B8046E5
:101C60001868894609F0E8FE02460B464046494698
:101C700009F036FF46A3D3E900230AF05BF80022FF
:101C8000CDE900014D4B304639460AF053F842A3E6
:101C9000D3E90023804689462046294609F020FFE3
:101CA0003FA3D3E9002309F067FD3FA3D3E9002355
:101CB00006460F462046294609F012FF22462B46CB
:101CC00009F00EFF02460B463046394609F056FD34
:101CD00002460B464046494609F04EFD5246044630
:101CE0000D465B465046594609F0FAFE52465B46A1
:101CF00009F0F6FE52465B4609F0F2FE2CA3D3E94A
:101D0000002306460F462046294609F0E9FE2246F2
:101D10002B4609F0E5FE02460B462046294609F00F
:101D20002DFD1BA3D3E9002304460D46DDE9000188
:101D30000AF000F802460B462046294609F0FAFF51
:101D400002460B463046394609F018FD09F0CAFB39
:101D500009F0C8FB06A3D3E9002309F00DFD03B089
:101D6000BDE8F08FAFF30080000000000088634002
:101D700066666666661271406666666666A2724050
:101D800079E9263108AC5C3FE446D3D15898F1BEDE
:101D900000000000D0126341E43C73414320A3BE25
:101DA0004DB1B49D00D4FE3E75466524BDE2333E80
:101DB000CDCCCCCCCCCC2A404891FF1F00408F40EA
:101DC0000000A03F0000F03F7489FF1FAFF30080C8
:101DD00070B5FFF7F5FE0AF065F904461E4804F0F9
:101DE000B7FE4FF47A6008F081FA20461B490126BD
:101DF0000AF072FC00B90026F6B24EB92046184926
:101E000001250AF04BFC00B9354615F0FF0F13D041
:101E1000144B154C154916481C60FEF722FC13495B
:101E20001448FEF71EFC14491148FEF71AFC12492B
:101E30001048FEF716FC0DE0104B0A4D18680AF02A
:101E40003BFA014620460AF03FFB014628680AF0AB
:101E50007FF92860204670BD4891FF1F00007A443A
:101E6000000070C23494FF1F0000C6C26B03010063
:101E7000249BFF1FE89AFF1F570A01007889FF1F64
:101E8000012801D8FFF7A4BF704708B501E006F0AC
:101E900097FC06F0DBFC0028F9DC01E007F010F904
:101EA00007F000F90028F9DC08BDFFFFF7B54EF692
:101EB0006020FFF729F804460D46B648B649FEF7FC
:101EC000D0FBB549B548FEF7CCFB20462946002299
:101ED00000230AF06DF8002840F03D8202260096AB
:101EE00022462B46AB48FEF7C2FB22462B46009605
:101EF000AA48FEF7BCFBAA49A648FEF7B2FBA849D0
:101F0000A648FEF7AEFB06F05BFC06F059FCA54BBD
:101F1000A04820221A6080221A6008F0D9FFA24946
:101F20009C48FEF79EFB00219A48FEF7B9FB9948B2
:101F30009E49FEF7ABFB002640F6FE77B2B20021C9
:101F40009B4805F0F5F931469248FEF78EFB94491F
:101F50009048FEF786FB322008F0C8F9304609F0B9
:101F600059FD22462B4609F009FC0AF053F8B84205
:101F70000646E3DD8F4B874880221A6008F0A8FFF1
:101F800089498448FEF76DFB01218248FEF788FBF2
:101F900080488949FEF77AFB002640F6FE77B2B208
:101FA0000121834805F0C4F931467A48FEF75DFB0C
:101FB0007B497848FEF755FB322008F097F9304608
:101FC00009F028FD22462B4609F0D8FB0AF022F83A
:101FD000B8420646E3DD774B6E4820221A600122A4
:101FE00043F8042C802243F8042C08F071FF6E495A
:101FF0006848FEF736FB00216648FEF751FB65484E
:102000006E49FEF743FB002640F6FE77B2B2002190
:10201000674805F08DF931465E48FEF726FB6049BA
:102020005C48FEF71EFB322008F060F9304609F0EC
:10203000F1FC22462B4609F0A1FB09F0EBFFB84268
:102040000646E3DD5B4B534880221A6008F040FFF0
:1020500055495048FEF705FB01214E48FEF720FB8D
:102060004C485749FEF712FB002640F6FE77B2B205
:1020700001214F4805F05CF931464648FEF7F5FA74
:1020800047494448FEF7EDFA322008F02FF9304670
:1020900009F0C0FC22462B4609F070FB09F0BAFF9C
:1020A000B8420646E3DD434B3A48012202261A6055
:1020B00043F8046C08F00CFF3B493648FEF7D1FAB0
:1020C00031463448FEF7ECFA32483E49FEF7DEFA74
:1020D000002640F6FE77B2B20221354805F028F915
:1020E00031462C48FEF7C1FA2D492A48FEF7B9FAC5
:1020F000322008F0FBF8304609F08CFC22462B46D3
:1021000009F03CFB09F086FFB8420646E3DD294BA7
:102110002048102202261E6043F8442C08F0D8FE06
:1021200021491C48FEF79DFA31461A48FEF7B8FAD5
:1021300018482549FEF7AAFA002640F6FE77B2B203
:1021400002211B4805F0F4F831461248FEF78DFADB
:1021500013491048FEF785FA322008F0C7F83046D8
:1021600009F058FC22462B4609F008FB09F052FF03
:10217000B8420646E3DD154B0648102201261A60D8
:1021800043F8046C08F0A4FE07490248FEF769FA18
:1021900031461DE0249BFF1F96030100E89AFF1FB4
:1021A000570A0100C4F00F40A4030100B30301006B
:1021B000B492FF1FC8F00F40D4030100F6030100E2
:1021C00017040100390401004D04010088F00F409C
:1021D0006A48FEF765FA69486949FEF757FA00262A
:1021E00040F6FE77B2B20321664805F0A1F8314609
:1021F0006248FEF73AFA64496048FEF732FA322044
:1022000008F074F8304609F005FC22462B4609F028
:10221000B5FA09F0FFFEB8420646E3DD5B4B5748CE
:1022200001261E6043F8446C08F052FE584953489A
:10223000FEF717FA31465148FEF732FA4F48554932
:10224000FEF724FA002640F6FE77B2B203214D488D
:1022500005F06EF831464948FEF707FA4A49474803
:10226000FEF7FFF9322008F041F8304609F0D2FBC2
:1022700022462B4609F082FA09F0CCFEB842064607
:10228000E3DD454B3D48402201261E60DA6308F03D
:102290001FFE3F493948FEF7E4F931463748FEF75B
:1022A000FFF936483D49FEF7F1F9002640F6FE7782
:1022B000B2B20321334805F03BF831462F48FEF710
:1022C000D4F931492D48FEF7CCF9322008F00EF848
:1022D000304609F09FFB22462B4609F04FFA09F0E1
:1022E00099FEB8420646E3DD284B244840221A6096
:1022F000802243F8042C08F0EBFD25491F48FEF727
:10230000B0F901211D48FEF7CBF91C482449FEF71E
:10231000BDF9002640F6FE77B2B20321194805F058
:1023200007F831461548FEF7A0F917491348FEF79C
:1023300098F9322007F0DAFF304609F06BFB2246AD
:102340002B4609F01BFA09F065FEB8420646E3DDAC
:102350000E4B80221A60FFF798FD12490748FEF7DE
:1023600095F911490548FEF791F90E490F48FEF716
:102370008DF90D490D48FEF789F9FEBD249BFF1F1D
:1023800061040100B492FF1F570A010088F00F405A
:10239000A40301007304010048F00F40850401000C
:1023A000970401004C010100B2030100E89AFF1FED
:1023B00070B58EB006F084FE061E24DD642007F0A2
:1023C00095FF002401AD665506F07AFE0134262CF7
:1023D0000646F7D1124E0024284631688DF82A406F
:1023E00025220BF007FAC0B10E490F48FEF739F964
:1023F00031680D48FEF74AF90C490B48FEF731F9F0
:102400000948294605E00A490748FEF73FF906480A
:102410000849FEF73BF9002000E001200EB070BD36
:102420008089FF1FA9040100249BFF1FCC04010029
:10243000EF0401002505010030B54949494885B040
:10244000FEF70FF946494848FEF70BF900226846A7
:102450004EF66021FEF7A4FC4EF66020FEF754FD18
:1024600004460D460D20012107F02CFE294620468A
:1024700009F0D0FD430803F1376303F5D833B3FB0C
:10248000F0F006F097FC01210D2007F0EFFD4FF46E
:102490007A7007F02BFF35493348FEF7E2F84FF426
:1024A0007A7007F023FF32492F48FEF7DAF84FF42D
:1024B0007A7007F01BFF2F492A48FEF7D2F840F246
:1024C000D2412848FEF7ECF82B492748FEF7C9F817
:1024D00040F2D2412448FEF7C8F84FF47A7007F072
:1024E00005FF26491F48FEF7BCF869461D48FEF760
:1024F000C3F823491C48FEF7B4F869461A4808F0A7
:10250000C5FC4FF47A7007F0F1FE1E491548FEF73E
:10251000BDF81D491448FEF7A4F84FF47A7007F08F
:10252000E5FEFFF745FF18B10E481849FEF7AEF873
:102530000D20002107F09AFD15490A48FEF7A6F87C
:1025400013490948FEF7A2F8064808F0C1FC0648FE
:1025500008F0BEFC684608F043F905B030BD00BF86
:102560004D050100249BFF1FE89AFF1F5C05010039
:102570005F0501006A050100790501008005010081
:102580008F05010097050100AC050100B5050100AC
:102590004C01010014282DE9F04105460E46144671
:1025A0001F4601D002281BD12146404804F0DBFB26
:1025B000002821463D4803DD04F0D5FB3C4B46E0B6
:1025C00004F0D1FB002802DB0020BDE8F081002EE2
:1025D000FADD384600210AF07FF8002845D1F3E7FC
:1025E000A0F10B03012B0BD9A0F10F08B8F1010FDB
:1025F0008CBF4FF000084FF00108B8F1000F17D062
:1026000021462C4804F0AFFB00282146294803DD71
:1026100004F0A9FB284B1AE004F0A5FB0028D3DA4C
:10262000002ED1DD384600210AF056F850BBCBE72A
:1026300020F004050A2DC7D11146204804F093FB71
:10264000002821461D4804DD04F08DFB1C4B18605A
:1026500029E004F088FB0028B6DA002EB4DD384605
:1026600000210AF039F8D8B9AEE738460AF03EF84A
:1026700001462846FEF7AEFC6423704390FBF3F658
:102680000B4B0BE038460AF031F801462846FEF7BE
:10269000A1FC6423704390FBF3F6074B1E6002E03D
:1026A000074BC3F800800120BDE8F0812C94FF1F88
:1026B000DC91FF1F1494FF1FF895FF1FFC93FF1F71
:1026C0000C94FF1F2DE9D841142804460E461F46DE
:1026D000069A01D0022818D1002A00DD12E0002E4F
:1026E00054DD3846002109F0F7FF00284ED0384667
:1026F00009F0FCFF01462046FEF76CFC64237043A2
:1027000090FBF3F2244800212FE0A0F10B03012BF2
:102710000BD9A0F10F08B8F1010F8CBF4FF00008E2
:102720004FF00108B8F1000F17D0002A00DD11E0CA
:10273000002E2BDD3846002109F0CEFF30B338469D
:1027400009F0D4FF01462046FEF744FC64237043A1
:1027500090FBF3F21048032107E020F004040A2C58
:1027600014D1002A03DD0C48022192B209E00029AD
:102770000FDD3846002109F0AFFF58B106480221AD
:10278000424604F0D5FD0120BDE8D8810020BDE817
:10279000D8814046BDE8D881B492FF1F10B5084CDF
:1027A0000520214607F00AFC0320214607F006FC1D
:1027B00019204FF4F471BDE8104007F0FFBB00BFD3
:1027C0006CDC020070B506460D460024A1190448D1
:1027D00004F06EF928550134042CF7D1204670BD61
:1027E000FC95FF1F70B506460D460024A1192A5D11
:1027F0000348013404F05FF9042CF7D1204670BD82
:10280000FC95FF1FFFFFFFFF2DE9F341604E61497B
:10281000614D07466148FDF724FF306809F00CF967
:10282000022402460B4600945C48FDF720FF5C49F9
:102830005A48FDF72BFF4FF003085A495748FDF758
:1028400010FF51A3D3E90023CDF800805348FDF7D2
:102850000EFF53495148FDF719FF53494F48FDF703
:1028600000FF286809F0E8F8009402460B464B4840
:10287000FDF7FDFE4D494948FDF708FF474808F0C0
:1028800027FB44494A48FDF7ECFE306809F0D4F8CC
:10289000009402460B464648FDF7E9FE404944488D
:1028A000FDF7F4FE3F494248FDF7DBFE36A3D3E9CE
:1028B0000023CDF800803E48FDF7D9FE38493C485A
:1028C000FDF7E4FE38493A48FDF7CBFE286809F0E9
:1028D000B3F8009402460B463548FDF7C8FE33496D
:1028E0003348FDF7D3FE324808F0F2FA012F44D105
:1028F0004EF66020FEF708FB09F0D4FB306009F0CB
:102900009BF8009402460B462448FDF7D3FE30683E
:1029100009F092F8009402460B462548FDF7CAFEDE
:102920003068244909F0B0FE38BB31460C20FFF76F
:1029300059FF4EF66020FEF7E7FA09F0B3FB286076
:1029400009F07AF8009402460B461448FDF7B2FEEF
:10295000286809F071F8009402460B461448FDF708
:10296000A9FE2868134909F08FFE30B914202946C2
:10297000FFF738FF0020FFF747FF012002B0BDE856
:10298000F04107F0B3BC00BFF6285C8FC2F5D83F1A
:102990001094FF1FCC050100DC90FF1F249BFF1F3C
:1029A000570A0100DA050100EE0501004D010100A2
:1029B000E89AFF1F000080BF2DE9F34102ADDFF868
:1029C000308045F8041D064617460024304609F0BD
:1029D00073FC014654F8080009F056FE18B1E019DE
:1029E0002946FFF7FFFE0434682CEFD1BDE8FC81D7
:1029F0008889FF1F2DE9F34102ADDFF8308045F8EB
:102A0000041D064617460024304609F055FC0146D1
:102A100054F8080009F038FE18B1E0192946FFF70C
:102A2000E1FE0434682CEFD1BDE8FC818889FF1FEA
:102A300030B540F2836085B006F0BCF942F2107008
:102A400005F0D2FF4FF4FA70002407F04FFC072383
:102A500022462146009401934548464D234604F002
:102A6000B9FD454841F2883104F044FC43484449EB
:102A700004F07EFB4148434904F04AFB21463F48AD
:102A800004F03FFB3D4804F0D7FB1D20012107F077
:102A900019FB0320214607F015FB0F20012107F049
:102AA00011FB1020012107F00DFB0B20012107F085
:102AB00009FB0C20012107F005FB1420012107F080
:102AC00001FB0220012107F0FDFA0E20012107F091
:102AD000F9FA0A20012107F0F5FA0520012107F093
:102AE000F1FA294B80221A600620012107F0EAFA48
:102AF0001520012107F0E6FA1620012107F0E2FA7D
:102B00001120214607F0DEFA204B40221A600223F2
:102B10002B600D20012107F0D5FA2220214607F075
:102B2000D1FA2320214607F0CDFA03201849194C89
:102B300007F044FA0520164907F040FA1720012152
:102B400007F0C0FA04A904232B60002341F8083DD4
:102B50001020FFF737FE0298214609F095FD28B9AD
:102B600004A9102041F8044DFFF73CFE05B030BD2C
:102B70000896FF1F84F00F40B492FF1FE893FF1FD9
:102B80000000484300002F44C4F00F40C8F00F403D
:102B90006CDC020014AEC73EF8B507460E460024B2
:102BA00041F21055E119325D0348013403F083FF0F
:102BB000AC42F7D12046F8BDFC95FF1F00B5ADF53E
:102BC000A85D85B010B9FDF723FD09E00021684636
:102BD00041F210520AF054FA3C206946FFF7DCFF3C
:102BE00045B00DF5A05D00BD70B506460D4600244C
:102BF000A119044803F05CFF28550134082CF7D1D3
:102C0000204670BDFC95FF1F70B506460D4600249A
:102C1000A119044803F04CFF28550134682CF7D162
:102C2000204670BDFC95FF1FF0B55449544D85B04A
:102C300004460020FFF7C6FD04205249FFF7C2FDFD
:102C400008205149FFF7BEFD0C205049FFF7BAFD9F
:102C500014204F49FFF7B6FD18204E49FFF7B2FD8B
:102C60001C204D49FFF7AEFD20204C49FFF7AAFD7F
:102C700024204B49FFF7A6FD28204A49FFF7B4FF5F
:102C80003C204949FFF7C0FFB4204849FFF7BCFF8B
:102C900047494FF49670FFF7B7FF46494FF4D2709B
:102CA000FFF7B2FF44494FF40770FFF7ADFF434908
:102CB0004FF42570FFF7A8FF41494FF45C70FFF710
:102CC000A3FF40494FF47A70FFF79EFF3E494FF44F
:102CD0008C60FFF799FF3D494FF49B60FFF794FF2D
:102CE0003B494FF4AA60FFF77FFF3A494FF4AB60CE
:102CF000FFF77AFF38494FF4AC60FFF775FF3749AB
:102D00004FF4AD60FFF770FF35494FF4AE60FFF749
:102D10006BFF34494FF4AF60FFF766FF32494FF461
:102D2000B060FFF761FF31494FF4B160FFF75CFF1E
:102D30002F494FF4B260FFF757FF2E4940F29650EB
:102D4000FFF752FF294640F29E50FFF74DFF2D68D6
:102D500029492846012709F0A1FC00B90027FFB244
:102D60004FB928460021012609F0B6FC00B93E46BD
:102D700016F0FF0F44D0214A48E000BF7489FF1FBE
:102D8000F489FF1FF089FF1FF495FF1F1094FF1FA8
:102D9000DC90FF1F0494FF1F6491FF1F0894FF1F26
:102DA0006891FF1FD494FF1F4C92FF1FDC94FF1FFC
:102DB0004094FF1FE090FF1F8895FF1FE091FF1FC9
:102DC0007490FF1F7491FF1FE892FF1F5093FF1F25
:102DD000A894FF1F4495FF1FB094FF1F5495FF1F39
:102DE0005C95FF1F6495FF1F6C95FF1F7495FF1F77
:102DF0007C95FF1F6C91FF1F00409C450060EA47D7
:102E00002846002109F04AFC10B1984A984B1A60F4
:102E1000012C40F0288197499748FDF722FC9549FD
:102E20009648FDF71EFC2046FEF758FA924808F037
:102E30004FF8924808F04CF82046FDF74BFF9049B8
:102E4000684607F00EFD00228E496846FEF7B0F98D
:102E5000684607F0C5FC8C49684607F002FD002271
:102E60008A496846FEF7A4F9684607F0B9FC884924
:102E7000684607F0F6FC002286496846FEF798F996
:102E8000684607F0ADFC8449684607F0EAFC00227A
:102E900082496846FEF78CF9684607F0A1FC804934
:102EA000684607F0DEFC00227E496846FEF780F99E
:102EB000684607F095FC7C49684607F0D2FC002282
:102EC0007A496846FEF774F9684607F089FC784944
:102ED000684607F0C6FC002276496846FEF768F9A6
:102EE000684607F07DFC7449684607F0BAFC00228A
:102EF00072496846FEF75CF9684607F071FC704954
:102F0000684607F0AEFC00226E496846FEF750F9AD
:102F1000684607F065FC6C49684607F0A2FC002291
:102F20006A496846FEF744F9684607F059FC684963
:102F3000684607F096FC002266496846FEF738F9B5
:102F4000684607F04DFC6449684607F08AFC002299
:102F500062496846FEF7B2F8684607F041FC6049EE
:102F6000684607F07EFC00225E496846FEF7A6F838
:102F7000684607F035FC5C49684607F072FC0022A1
:102F80005A496846FEF79AF8684607F029FC5849FE
:102F9000684607F066FC002256496846FEF78EF840
:102FA000684607F01DFC5449684607F05AFC0022A9
:102FB00052496846FEF782F8684607F011FC50490E
:102FC000684607F04EFC00224E496846FEF776F848
:102FD000684607F005FC4C49684607F042FC0022B1
:102FE0004A496846FEF76AF8684607F0F9FB48491F
:102FF000684607F036FC002246496846FEF75EF850
:10300000684607F0EDFB4449684607F02AFC0022B9
:1030100042496846FEF752F8684607F0E1FB40492E
:10302000684607F01EFC00223E496846FEF746F857
:10303000684607F0D5FB3C49684607F012FC0022C1
:103040003A496846FEF73AF8684607F0C9FB38493E
:10305000684607F006FC684605492246FEF72EF84A
:10306000684607F0BDFB05B0F0BD00BFB743BA51DD
:10307000F489FF1F55020100249BFF1FE89AFF1FE0
:10308000020601008889FF1F0B0601004C92FF1FFA
:103090001D060100DC94FF1F2E0601004094FF1F57
:1030A00048060100E090FF1F610601008895FF1FA0
:1030B0007C060100E091FF1F960601007490FF1F3F
:1030C000A90601007491FF1FBC060100E892FF1FD2
:1030D000CF0601005093FF1F26090100D494FF1F63
:1030E00033090100A894FF1F400901004495FF1F08
:1030F0004D090100B094FF1F5A0901005495FF1FAC
:10310000670901005C95FF1F740901006495FF1FAA
:10311000810901006C95FF1F8E0901007495FF1F46
:103120009B0901007C95FF1FA80901006C91FF1FFE
:10313000E20601002DE9F34101204EF66028FFF779
:1031400073FD4046FDF7E0FE08F0ACFF224F234E32
:10315000386008F071FC062402460B4600943046A5
:10316000FDF785FA38681E4D08F066FC00940246AB
:103170000B462846FDF77BFA39460420FFF732FB61
:103180004046FDF7C1FE08F08DFF164F386008F08D
:1031900053FC009402460B463046FDF768FA386847
:1031A00008F04AFC009402460B460F4C2846FDF7F7
:1031B0005EFA39460820FFF715FB21463046FDF739
:1031C00065FA28462146FDF761FA012002B0BDE804
:1031D000F041FFF729BD00BFF089FF1F249BFF1FAF
:1031E000E89AFF1FF495FF1FED0601002DE9F3415A
:1031F0004EF660270120FFF717FD3846FDF784FEE5
:1032000008F050FFDFF804813D4EC8F8000008F0D8
:1032100013FC022402460B4600943046FDF727FAC1
:10322000D8F80000374D08F007FC009402460B4622
:103230002846FDF71CFA41461820FFF7D3FA384616
:10324000FDF762FE08F02EFFDFF8C480C8F800002A
:1032500008F0F2FB009402460B463046FDF707FAF1
:10326000D8F8000008F0E8FB009402460B46284618
:10327000FDF7FDF941461C20FFF7B4FA3846FDF78B
:1032800043FE08F00FFFDFF88C80C8F8000008F05C
:10329000D3FB009402460B463046FDF7E8F9D8F818
:1032A000000008F0C9FB009402460B462846FDF7D3
:1032B000DEF941462020FFF795FA3846FDF724FE57
:1032C00008F0F0FE104F386008F0B6FB009402469C
:1032D0000B463046FDF7CBF9386808F0ADFB00949B
:1032E00002460B462846FDF7C2F924203946FFF76F
:1032F00079FA012002B0BDE8F041FFF795BC00BFAC
:10330000249BFF1FE89AFF1F6891FF1F0494FF1F73
:103310006491FF1F0894FF1F2DE9FF4180460120A3
:103320000E4617460024FFF77FFC06251DE04EF6EB
:103330006020FDF7E9FD08F0B5FE039008F07CFB86
:10334000009502460B460C48FDF791F9039808F0EA
:1033500073FB009502460B460848FDF788F9404686
:1033600003A9FFF73FFA0134B844B442DFDB012080
:10337000FFF75AFCBDE8FF81249BFF1FE89AFF1F5F
:103380002DE9F34780460120FFF74EFC4EF6602002
:10339000FDF7BAFD08F03EFE064631462B48FDF724
:1033A0007FF92B483146FDF77BF9731C47D04EF669
:1033B0006020FDF7A9FD08F075FE814608F03CFB92
:1033C000062704460D460B46224600971F48FDF788
:1033D00071F900971E4822462B46FDF76BF94846C7
:1033E0001C4909F051F950BB4EF66020FDF78CFDE9
:1033F00008F058FE824608F01FFB04460D460B46B7
:10340000224600971148FDF755F9009710482246CB
:103410002B46FDF74FF950460E4909F035F970B9C2
:10342000304649464246FFF7E5FA3046514608F134
:103430007802FFF7C1FA012006F058FFA6E7012045
:1034400002B0BDE8F047FFF7EFBB00BF249BFF1FB2
:10345000E89AFF1F000080BF2DE9F04FAA4BAB4C4C
:1034600004221A6085B00021064640F6FF72A84883
:1034700003F05EFF8025012140F6FF72A44803F0AF
:1034800057FF022140F6FF722560A14803F050FF6C
:10349000032140F6FF729E4803F04AFF9D4B1D60DA
:1034A000FEF7F3FC622E2CD10020FFF7BDFB274670
:1034B0004EF66020FDF728FD0022974B04460D468E
:1034C00008F076FDB8B9FEF7E0FC2946204608F082
:1034D000C9FD002182B28E4803F02AFF0023204656
:1034E0002946002208F064FD202310B9894A1360A0
:1034F000DEE73B60DCE7FEF7C8FC844B20221A6065
:103500006FE0632E6DD10020FFF78EFB4EF660203A
:10351000FDF7FAFC08F07EFD8049DFF824A2804622
:103520007F48FDF79EF87D497E48FDF79AF8002117
:103530000A46774803F0FCFE75480321002203F099
:10354000F7FE00275FFA88FB40E05AF83B3083F82B
:1035500000410BE01FFA89F4002122466C4803F079
:10356000E7FE6B480321224603F0E2FE384608F0EE
:1035700063FA04460D460221009122462B46684814
:103580000391FDF774F803996648009122462B4693
:10359000FDF76DF864496248FDF763F862496148D8
:1035A000FDF75FF849465E48FDF75FF849465D481C
:1035B000FDF75BF85C495A48FDF768F859485A49E5
:1035C000FDF764F84FF47A7006F090FE05F03EF9CE
:1035D000022800F3568105F065FD022840F35C8166
:1035E0004FE10027FEF751FC642E01D1FEF75EFC8F
:1035F000FEF74BFC652E14D14C494948FDF731F8D4
:1036000048484A49FDF72DF84FF0020805F01EF929
:10361000022800F3478205F045FD022840F3588157
:1036200040E2662E14D142493D48FDF71AF83D4864
:103630003F49FDF716F84FF0020805F007F9022898
:1036400000F3308205F02EFD022840F3688129E264
:10365000672E14D137493248FDF703F83148354910
:10366000FCF7FFFF4FF0020805F0F0F8022800F326
:10367000198205F017FD022840F3758112E2682EC9
:1036800014D12D492648FCF7ECFF26482A49FCF7BF
:10369000E8FF4FF0020805F0D9F8022800F3028293
:1036A00005F000FD022840F38081FBE1692E14D172
:1036B0001E491B48FCF7D5FF1A481C49FCF7D1FFEF
:1036C0004FF0020805F0C2F8022800F3EB8105F084
:1036D000E9FC022840F3A081E4E16A2E32D11749C7
:1036E0001048FCF7BEFF0E481449FCF7BAFF4FF034
:1036F000020805F0ABF8022800F3D48105F0D2FCF3
:10370000022840F3AE81CDE188F00F40C8F00F40B1
:10371000B492FF1FC4F00F400000F0BFF00601009C
:10372000249BFF1FE89AFF1F570A010000070100B2
:103730001507010024070100350701004C070100AF
:10374000800D0100731E202B40D8A949A948DFF83D
:10375000B082FCF786FFA848A549FCF782FF4EF629
:103760006020FDF7D1FB08F055FC411C054624D034
:10377000ACB2FEF78AFB00212246A04803F0D8FD38
:10378000012122469D4803F0D3FD022122469B4899
:1037900003F0CEFD22469948032103F0C9FD58F8F5
:1037A0003620012382F8803058F8362015B182F88F
:1037B0008030D4E782F80031D1E7FEF766FB904B0A
:1037C00053F83630012283F8002134E0A6F12203B9
:1037D000032B30D8DFF83C828A4D874807F078FB0E
:1037E000844807F075FB4EF66020FDF78DFB08F06E
:1037F00011FC421C1DD010234001C8F8003001D03C
:103800000138FDD1F0B206F099FE102304462B607A
:1038100021467948FCF729FF21467648FCF725FF29
:1038200079497548FCF71DFF77497248FCF719FF85
:10383000D3E7FEF72AFB754B04221A60384608F0DE
:10384000FBF8022604460D460B46224600966A48BF
:10385000FCF70DFF22462B4600966648FCF707FF53
:103860006B496548FCF712FF69496248FCF70EFF97
:10387000614807F02DFB5F4805B0BDE8F04F07F049
:1038800027BBFEF702FB5FFA88F85D4B53F8383030
:10389000012283F80021A5E65AF83B30012483F881
:1038A00080402046FDF7C0F908F006FDFDF780FBDB
:1038B000074608F01BFF01464046FDF78BFB002141
:1038C0008146384608F0E0FE00287FF43EAE41E62F
:1038D0000120FDF7A9F908F0EFFCFDF769FB0746A9
:1038E00008F0AAF804460D460B462246CDF80080A3
:1038F0004148FCF7BCFE22462B46CDF800803D48EF
:10390000FCF7B5FE40493C48FCF7ABFE3E49394860
:10391000FCF7A7FE4FF4FA6006F0E8FC76E6FEF747
:1039200025F908F0C5FC074608F086F8044622464B
:103930000B46CDF8008030480D46FCF798FE324922
:103940002D48FCF78EFE22462B46CDF800802948F4
:10395000FCF78DFE2C492748FCF783FE4FF4FA60F4
:1039600006F0C4FC69E6FCF737FE074608F064F889
:10397000044622460B46CDF800801F480D46FCF752
:1039800076FE21491C48FCF76CFE22462B46CDF8FA
:1039900000801848FCF76BFE1B491648FCF761FED7
:1039A0004FF4FA6006F0A2FC5EE6FCF7F9FD07466C
:1039B00008F042F8044622460B46CDF800800E4837
:1039C0000D46FCF754FE10490B48FCF74AFE224610
:1039D0002B46CDF800800748FCF749FE0A49054808
:1039E000FCF73FFE4FF4FA6006F080FC53E600BFA0
:1039F00069070100E89AFF1F249BFF1FB492FF1F75
:103A0000800D0100C4F00F40570A010084F00F4000
:103A10007B010100C8F00F400120FDF705F908F017
:103A20004BFC074608F008F804460D460B462246B4
:103A3000CDF800801D48FCF71AFE22462B46CDF833
:103A400000801B48FCF713FE1A491848FCF709FED2
:103A500018491748FCF705FE4FF4FA6006F046FCDB
:103A600030E6FEF7B5F9074607F0E6FF04460D46D7
:103A70000B462246CDF800800C48FCF7F8FD2246A4
:103A80002B46CDF800800A48FCF7F1FD09490748AC
:103A9000FCF7E7FD07490648FCF7E3FDC82006F000
:103AA00025FC26E6FEF7F1F94CE600BF249BFF1F3C
:103AB000E89AFF1F570A01002DE9F04FADF51D5D93
:103AC0008DB008AF32200025C7F848D006F00EFCB4
:103AD000BE4BC7F8EC501B680120C7F8F030D7F890
:103AE000F03008F0D1FEC7F89C000420C7F8F4506D
:103AF000C7F8F85008F0C8FEB54BC7F898001B6827
:103B0000073323F00703ADEB030DB24B1B683B6695
:103B10001B01083308ACADEB030D08AEC7F8C46059
:103B200003E0002106F09DFE0135D7F8C46006EBE6
:103B300005103E6EB542F4D1A54BA64E1A6820463C
:103B4000002109F09DFA002507E0D7F8C41001EB29
:103B50000510A14906F0BDFE013533689D42F4DB36
:103B60000020FFF761F89D4B10251D600A2006F02C
:103B7000BDFB9B4B9B491D6007F5C87006F071FEAD
:103B800040F2F93577E007F5C87006F038FFC7282E
:103B900042F3AE8602F024BE0A2006F0A7FB6AE0DC
:103BA00091499248FCF772FD8F499148FCF76EFDF0
:103BB00061E0FCF791FD5EE0FEF73EFC5BE0FCF7A8
:103BC000B1FD58E0FCF7EEFD55E00120FFF72CF8C1
:103BD00051E0FFF7AFFA4EE000200AE0FFF706FBE6
:103BE00049E03C2001E04FF49670FFF7C9FB42E04A
:103BF0000120FEF709FE3EE04FF40770F5E74FF4B1
:103C00005C70F2E74FF48C60EFE7FCF701FD32E007
:103C10000120FEF7D3FF2EE0282024E04FF4AA6015
:103C200021E04FF4AB601EE04FF4AC601BE04FF4BA
:103C3000AD6018E04FF4AE6015E04FF4AF6012E0F5
:103C4000FCF772FF17E005F0C1FBFCF78DFF12E0F7
:103C50004FF4B06007E04FF4B16004E04FF4B2609D
:103C600001E040F29650022102E040F29E50012114
:103C70000422FFF751FB04F0CBFD5B2802F05A86CB
:103C800005F036FA5B2842F03D8602F053BE05F09F
:103C90002FFA5B280CBF0225002500E0012504F067
:103CA0008FFD05F00DFA012D0DD0022D58D0514990
:103CB0004E48FCF7EBFC00264D484E49FCF7E6FC6D
:103CC000C7F8C060AFE049484FF4FA6107F02AF83E
:103CD0003F4B46481B6821212246002607F024F866
:103CE00041F28735C7F8C060A35D7B2B1BD104E090
:103CF000484606F027FE013607E0D7F8C010D7F88F
:103D0000C4204FEA011802EB0809A15D7D29EFD11B
:103D1000D7F8C43003EB080006F014FED7F8C01043
:103D20000131C7F8C0100136AE42DDDD002412E0DB
:103D3000D7F8C460302106EB041507F5E07006F0F3
:103D4000E3FD07F5E071284606F01FFE07F5E07079
:103D500006F046FD0134D7F8C060B442E8DB62E00B
:103D600023484FF47A7106F0DDFF194B20481B6899
:103D700021212246002606F0D7FF41F28735C7F8F9
:103D8000C060A35D7B2B1BD104E0484606F0DAFD42
:103D9000013607E0D7F8C010D7F8C4204FEA011861
:103DA00002EB0809A15D7D29EFD1D7F8C43003EB00
:103DB000080006F0C7FDD7F8C0100131C7F8C010E1
:103DC0000136AE42DDDD002429E000BFDC9AFF1F92
:103DD0008489FF1F7C89FF1FB2030100C8F00F40D8
:103DE000C4F00F40AA0501006C070100249BFF1FCF
:103DF000E89AFF1F7C070100D7F8C460302106EB6A
:103E0000041507F5E07006F07FFD07F5E071284620
:103E100006F0BBFD07F5E07006F0E2FC0134D7F8D0
:103E2000C060B442E8DB7A497A4D7B48FCF719FC64
:103E300077497A48FCF715FC286807F0FDFD022455
:103E400002460B4600947448FCF711FC286807F002
:103E5000F3FD009402460B467048FCF708FC7049DD
:103E60006D48FCF7FEFB03246D496C48FCF7F9FB39
:103E7000009465A3D3E900236748FCF7F8FB62A32D
:103E8000D3E9002300946548FCF7F1FB65496348DA
:103E90000026FCF7E6FB60486249FCF7E2FBC7F846
:103EA000B860C7F8A060C7F8CC600D26BE650126D3
:103EB000BE6607F5BE760024FE655B495748FCF7F1
:103EC000D0FB55485849FCF7CCFB002602F022BC39
:103ED000D7F89C0008F0E0FCD7F894603501D7F8DB
:103EE000C460731907F1F40A9C68601C08F0CCFCEC
:103EF0007159C7F89C00224609F0D2FCD7F89C60A3
:103F00000025355507F5C27007F5E87403F0E0F8B1
:103F1000D7F89C1022464FF4167307F5C27002F0D2
:103F2000BAFFD7F89C10A8420CBF22462A46F86D6B
:103F300002F02DFFFE6D96E803008AE803000028DA
:103F400002F0FF84C9B902F0FCBCD7F8C4103348B2
:103F500001EB04152946FCF78FFB01342E48294656
:103F6000FCF78AFBB442F0D1FDF78FFF07F5C8706C
:103F700006F036FC002502F022BC07F1FC063D6786
:103F8000C7F8D46007F5BA742849504602F050FFCC
:103F9000014607F5D07006F064FC2549504602F052
:103FA0003DFF5046234902F039FF234B08B118600A
:103FB00001E001221A602149214D504602F02EFFF6
:103FC0002049C7F8C800504602F028FF1E49B866CD
:103FD000504602F023FF1D49B860504602F01EFF14
:103FE0001B497862504602F019FF002808BF0120E3
:103FF00078651849504602F011FF68BB0D232B600D
:104000002FE000BFAFF30080F6285C8FC2F5D83FE9
:10401000A20701001094FF1FE89AFF1F249BFF1FB7
:10402000B1070100C70701008E010100D40701009C
:10403000E0070100E70701007889FF1FF007010092
:104040006489FF1FFF0701000C0801001F08010021
:104050002F0801003908010050468D4902F0DEFEAC
:1040600028608C49504602F0D9FE002808BF0A207B
:10407000F8628949504602F0D1FE002808BF10209E
:10408000B8628649504602F0C9FE002808BF0320E6
:1040900038658349504602F0C1FE002808BF03205E
:1040A000F8648049504602F0B9FE7F4938625046B4
:1040B00002F0B4FE7D49C7F88C00504602F0AEFE17
:1040C0007B497864504602F0A9FE7A4978675046E9
:1040D00002F0A4FE7849F861504602F09FFE07F511
:1040E000827BC7F8D000514607F1FC00734A02F00A
:1040F00087FE07F5867658465146714A02F080FEE3
:104100003046C7F8DC60514607F58A766D4A02F002
:1041100077FE07F58E79304651466B4AC7F8D8606E
:1041200002F06EFE694A6A4E4846514602F068FE49
:104130006849504602F072FE6749C7F8BC00504615
:1041400002F06CFE6549C7F8B400504602F066FE06
:104150006349C7F8B000504602F060FE6149C7F8F5
:10416000AC00504602F05AFE5F49C7F8A80050461E
:1041700002F054FE5D49C7F8A400504602F04EFE1E
:104180005B49C7F88800504602F048FE5949C7F815
:104190008400504602F042FE5749C7F8800050465E
:1041A00002F03CFE5549F867504602F037FE514692
:1041B000F866534A07F5927002F022FE07F59670F2
:1041C0005146504A02F01CFE07F59A7051464E4A7D
:1041D00002F016FE07F59E7051464C4A02F010FEA2
:1041E00007F1E00507F5A2705146494A02F008FEC2
:1041F00028465146474A02F003FE95E80300464A26
:1042000086E803002846514602F0FAFD95E80300CF
:10421000424E434A86E803002846514602F0F0FD2C
:1042200095E803003F4E404A86E8030007F5A67074
:10423000514602F0E5FD07F5AA7051463B4A02F0EF
:10424000DFFD07F5AE705146394A02F0D9FD002571
:1042500007F5B2705146374A02F0D2FD7D66BD6760
:104260008EE0294607F5927002F07DFD07F5AA71F0
:1042700006462A46204602F068FD2046FCF727FA4B
:104280007B6E4FF0000800FB06337B66464662E01B
:10429000390801004E0801005808010063080100B8
:1042A0007408010083080100A2080100AD080100A4
:1042B000B7080100C5080100D0080100DB080100B3
:1042C000EB080100F70801000609010014090100CC
:1042D0002C94FF1F220901002F0901003C09010055
:1042E0004909010056090100630901007009010034
:1042F0007D0901008A09010097090100A409010054
:10430000B2090100B9090100C5090100D109010084
:10431000DD090100E9090100F90901001494FF1FFA
:104320000A0A0100FC93FF1F1A0A0100240A010077
:10433000300A01003E0A0100204607F5AA712A460C
:1043400002F003FD4146204602F00DFD0028C8BFE3
:10435000013608F10108204607F5AA712A4602F045
:10436000F4FC2046FCF7B3F98045E5DB294607F568
:10437000927002F0F8FCB96F06FB0011B9670135C5
:1043800007F59270FCF7A3F98542FFF66AAFD7F8FC
:10439000980008F081FA0421B86F08F0FFF983490A
:1043A000C7F898008248FCF75CF980498148FCF71F
:1043B00058F90520FCF75AFD7F49C7F890007C4862
:1043C000FCF74FF97C497B48FCF74BF907F5D071B6
:1043D000774806F05BFD07F5D071764806F056FD8C
:1043E00076497348FCF73DF972487449FCF739F98E
:1043F000D7F8D030012B02D11846FCF76FFFD7F861
:10440000A8600096D7F8A4300193D7F88860029688
:10441000D7F884300393D7F880600496FB6F059338
:10442000FE6E069607F5E075D7F8B020D7F8AC30E9
:10443000D7F8BC00D7F8B410FDF716F86049284645
:1044400006F00FFAD7F8D46096E80300002213466E
:104450008DE8030002955B495B48FCF759FA284652
:1044600006F0BEF95949284606F0FBF9D7F8DC609A
:1044700096E80300002213468DE803000295544994
:104480005448FCF745FA284606F0AAF9524928464E
:1044900006F0E7F9D7F8D86096E803000022134643
:1044A0008DE8030002954D494D48FCF731FA284646
:1044B00006F096F94B49284606F0D3F999E803002F
:1044C000002213468DE80300029547494748FCF750
:1044D0001FFA284606F084F9454B4649D3F8008078
:1044E000454B28461E6806F0BCF99BE803008DE8A2
:1044F0000300002033460146424602953F4EFCF73A
:1045000007FA284606F06CF93368012B17DD3C49A1
:104510002848FCF7A6F83A492548FCF7A2F8316884
:104520002448FCF7A2F831682148FCF79EF8354989
:104530002048FCF796F81E483249FCF792F8324BB7
:10454000786C00261E60314B1E60314B1E60314B73
:104550001E60314B1E60314B1E60314B1E60314B73
:104560001E60314B1E60314B1E60FCF791FE796F6F
:10457000D7F8C82030234B43013B3B644FF47A7398
:104580005343FB6007F1EC060023C7F8D030C7F8AF
:10459000A830C7F8AC30C7F8B030C7F8B43007F56A
:1045A000B67BC7F8A46001F0F8BF00BF5502010058
:1045B000249BFF1FE89AFF1F460A0100560A0100CC
:1045C000DB080100E091FF1F8895FF1FF70801003D
:1045D000DC94FF1F4C92FF1F060901007491FF1F1E
:1045E0007490FF1F140901005093FF1FE892FF1FF2
:1045F000F089FF1FEB080100F495FF1F7889FF1F6A
:10460000590A0100570A01001C94FF1FE493FF1F81
:104610004892FF1F2494FF1F3494FF1FCC93FF1F69
:10462000C494FF1FD094FF1F2094FF1F3894FF1FD6
:10463000584607F5AE71324602F087FB5846012115
:1046400002F091FB8046002859D13246204607F5FA
:10465000AE7102F07AFB4146204602F08EFB014625
:10466000284606F0FEF82846BC4906F09CF910F1F1
:10467000000818BF4FF00108284606F0B1F8B8F15D
:10468000000F3CD03246204607F5AE7102F05DFBCC
:104690000121204602F067FBFCF7BCFAB04BD7F8CB
:1046A000D0101B68013B994229D1AE49DFF8DC925A
:1046B000AD48FBF7D6FFAB49AC48FBF7D2FFD9F8C2
:1046C000000007F0B9F94FF0020802460B46CDF89A
:1046D0000080A548FBF7CBFFA549A348FBF7C1FF26
:1046E000D9F8000007F0A8F9CDF8008002460B4683
:1046F0009E48FBF7BCFF9D489D49FBF7B2FF58461B
:1047000007F5AE71324602F020FB5846012102F057
:104710002AFB8046002859D13246204607F5AE7163
:1047200002F013FB4146204602F027FB01462846D3
:1047300006F097F828468F4906F035F910F1000881
:1047400018BF4FF00108284606F04AF8B8F1000FEC
:104750003CD03246204607F5AE7102F0F6FA012150
:10476000204602F000FBFCF75AFA7D4BD7F8D02028
:104770001B68013B9A4229D17F49DFF814927A489D
:10478000FBF76FFF7C497948FBF76BFFD9F8000016
:1047900007F052F94FF0020802460B46CDF80080B0
:1047A0007148FBF764FF72496F48FBF75AFFD9F86D
:1047B000000007F041F9CDF8008002460B466B4837
:1047C000FBF755FF69486A49FBF74BFF584607F569
:1047D000AE71324602F0B9FA5846012102F0C3FA2E
:1047E0008046002859D13246204607F5AE7102F0C6
:1047F000ACFA4146204602F0C0FA0146284606F0CF
:1048000030F828465D4906F0CEF810F1000818BFD0
:104810004FF00108284605F0E3FFB8F1000F3CD047
:104820003246204607F5AE7102F08FFA012120468C
:1048300002F099FAFDF724FB494BD7F8D0101B681A
:10484000013B994229D14E49DFF848914648FBF790
:1048500008FF4B494548FBF704FFD9F8000007F073
:10486000EBF84FF0020802460B46CDF800803E48B8
:10487000FBF7FDFE3E493C48FBF7F3FED9F800008C
:1048800007F0DAF8CDF8008002460B463748FBF710
:10489000EEFE36483649FBF7E4FE584607F5AE71A2
:1048A000324602F052FA5846012102F05CFA804684
:1048B00000287AD13246204607F5AE7102F045FA5B
:1048C0004146204602F059FA0146284605F0C9FF44
:1048D00028462C4906F067F810F1000818BF4FF081
:1048E0000108284605F07CFFB8F1000F5DD0324684
:1048F000204607F5AE7102F028FA0121204602F0A9
:1049000032FAFDF757F9164BD7F8D0201B68013B58
:104910009A424AD11C49DFF880901348FBF7A1FE68
:1049200019491248FBF79DFED9F8000007F084F8FA
:104930004FF0020802460B46CDF800800A48FBF70C
:1049400096FE0B490848FBF78CFED9F8000007F0EB
:1049500073F8CDF8008002460B461FE0650A01009F
:104960007889FF1F770A0100E89AFF1F249BFF1F29
:10497000570A0100A70A01008C0A01009B0A0100E6
:10498000B30A0100CE0A0100D20A01004892FF1FBB
:104990002494FF1F3494FF1FCC93FF1FC148FBF7E3
:1049A00066FEC048C049FBF75CFE584607F5AE718D
:1049B000324602F0CAF95846012102F0D4F9804685
:1049C000002840F0E4803246204607F5AE7102F040
:1049D000BCF94146204602F0D0F90146284605F0D0
:1049E00040FF2846B14905F0DEFF10F1000818BF6E
:1049F0004FF00108284605F0F3FEB8F1000F00F073
:104A0000C6803246204607F5AE7102F09EF90121BC
:104A1000204602F0A8F9FCF707F9A54BD7F8D0100B
:104A20001B68013B994240F0B280DFF8A492A14993
:104A3000A148FBF716FE9F499A48FBF712FED9F8EA
:104A40000000FCF7B5FA06F0F7FF4FF00208024647
:104A50000B46CDF800809848FBF709FE924996482E
:104A6000FBF7FFFDD9F80000DFF86892FCF7A0FA29
:104A700006F0E2FFCDF8008002460B468948FBF7BE
:104A8000F6FD89498748FBF7ECFD8C498A48FBF71E
:104A9000E8FD8A498348FBF7E4FDD9F80000FCF7FC
:104AA00087FA06F0C9FFCDF8008002460B4682481F
:104AB000FBF7DDFD7C498048FBF7D3FDD9F800000A
:104AC000DFF81492FCF774FA06F0B6FFCDF8008018
:104AD00002460B467348FBF7CAFD73497148FBF762
:104AE000C0FD77497448FBF7BCFD75496D48FBF77D
:104AF000B8FDD9F80000FCF75BFA06F09DFFCDF891
:104B0000008002460B466C48FBF7B1FD66496A48D7
:104B1000FBF7A7FDD9F80000DFF8C091FCF748FAD1
:104B200006F08AFFCDF8008002460B465D48FBF791
:104B30009EFD5D495B48FBF794FD62495E48FBF7CB
:104B400090FD60495748FBF78CFDD9F80000FCF751
:104B50002FFA06F071FFCDF8008002460B4656484A
:104B6000FBF785FD50495448FBF77BFDD9F8000061
:104B7000FCF71EFA06F060FFCDF8008002460B46F7
:104B80004848FBF774FD47484749FBF76AFD58461C
:104B900007F5AE71324602F0D8F85846012102F00E
:104BA000E2F88046002840F0F4803246204607F5BF
:104BB000AE7102F0CAF84146204602F0DEF8014626
:104BC000284605F04EFE28463F4905F0ECFE10F160
:104BD000000818BF4FF00108284605F001FEB8F1A3
:104BE000000F00F0D6803246204607F5AE7102F085
:104BF000ACF80121204602F0B6F8FCF715F82C4B72
:104C0000D7F8D0201B68013B9A4240F0C280DFF801
:104C1000C0902E492848FBF724FD2C492148FBF77A
:104C200020FDD9F8000006F007FF4FF00208024609
:104C30000B46CDF800802048FBF719FD1A491E48A5
:104C4000FBF70FFDD9F80000DFF8889006F0F4FEBE
:104C5000CDF8008002460B461248FBF708FD1249CA
:104C60001048FBF7FEFC15491348FBF7FAFC134903
:104C70000C48FBF7F6FCD9F8000006F0DDFECDF895
:104C8000008002460B460C48FBF7F1FC06490A4837
:104C9000FBF7E7FCD9F80000DFF83C9006F0CCFE0B
:104CA0001EE000BF249BFF1F570A0100920801006D
:104CB0007889FF1FD90A0100E89AFF1FEC0A01005A
:104CC000F10A0100F60A0100FB0A01000F0B0100C6
:104CD000C494FF1FD094FF1F2094FF1F3894FF1F20
:104CE000CDF8008002460B46B048FBF7C0FCB04947
:104CF000AE48FBF7B6FCAF49AF48FBF7B2FCAD4995
:104D0000AA48FBF7AEFCD9F8000006F095FECDF8F6
:104D1000008002460B46A848FBF7A9FCA449A64818
:104D2000FBF79FFCD9F80000DFF8B09206F084FE94
:104D3000CDF8008002460B469C48FBF798FC9C4946
:104D40009A48FBF78EFC9D499B48FBF78AFC9B49E0
:104D50009648FBF786FCD9F8000006F06DFECDF80A
:104D6000008002460B469448FBF781FC904992482C
:104D7000FBF777FCD9F8000006F05EFECDF8008066
:104D800002460B468948FBF772FC88488849FBF7C6
:104D900068FC584607F5AE71324601F0D6FF58461A
:104DA000012101F0E0FF804600284FD13246204625
:104DB00007F5AE7101F0C9FF4146204601F0DDFF65
:104DC0000146284605F04DFD28467D4905F0EBFDDE
:104DD00010F1000918BF4FF00109284605F000FD49
:104DE000B9F1000F32D03246204607F5AE7101F01E
:104DF000ACFF0221204601F0B6FF5FFA80F9414680
:104E0000484605F05FF9484605F098FB6D4BD7F82A
:104E1000D0101B68013B9942804617D16A49664809
:104E2000FBF71FFC68496148FBF71BFC41466248E1
:104E3000FBF71BFC5E496048FBF713FC41465B48EF
:104E4000FBF713FC59485A49FBF70BFC584607F58A
:104E5000AE71324601F079FF5846012101F083FF1F
:104E6000804600284FD13246204607F5AE7101F04A
:104E70006CFF4146204601F080FF0146284605F0C0
:104E8000F0FC2846514905F08EFD10F1000918BFCD
:104E90004FF00109284605F0A3FCB9F1000F32D00C
:104EA0003246204607F5AE7101F04FFF0221204641
:104EB00001F059FF5FFA80F94146484605F002F9D2
:104EC000484605F0F3F83F4BD7F8D0201B68013B6C
:104ED0009A42804617D13E493748FBF7C2FB3C490E
:104EE0003248FBF7BEFB41463348FBF7BEFB304977
:104EF0003148FBF7B6FB41462C48FBF7B6FB2B4885
:104F00002B49FBF7AEFB584607F5AE71324601F070
:104F10001CFF5846012101F026FF804600285FD182
:104F20003246204607F5AE7101F00FFF414620469C
:104F300001F023FF0146284605F093FC2846254949
:104F400005F031FD10F1000818BF4FF001082846A8
:104F500005F046FCB8F1000F42D03246204607F576
:104F6000AE7101F0F2FE0221204601F0FCFE324655
:104F7000804607F5AE71204601F0E7FE032120468A
:104F800001F0F1FE5FFA88F881460121404605F004
:104F900099F8114A52F8382019F0FF0F4FF0010329
:104FA00014BF82F8803082F8003119E0249BFF1F83
:104FB000570A0100F10A0100E89AFF1FF60A0100F2
:104FC000260B01007889FF1F320B0100410B010005
:104FD0004E0B01005E0B0100800D01003894FF1F95
:104FE000584607F5AE71324601F0AFFE5846012132
:104FF00001F0B9FE8146002867D13246204607F508
:10500000AE7101F0A2FE4946204601F0B6FE01460F
:10501000284605F026FC2846A84905F0C4FC10F1F6
:10502000000818BF4FF00108284605F0D9FBB8F179
:10503000000F4AD03246204607F5AE7101F085FEDA
:105040000221204601F08FFE3246804607F5AE7100
:10505000204601F07AFE0321204601F084FE32460C
:10506000844607F5AE712046C7F800C001F06DFE1A
:105070000421204601F077FE3246C7F8C80007F544
:10508000AE71204601F061FE0521204601F06BFE65
:105090005FFA88F80346012140467B6005F012F86C
:1050A0004046D7F8C81004F089FFD7F800C0404642
:1050B000614605F023F87B68184605F017F940466D
:1050C000494605F01BF8FDF769FB584607F5AE7138
:1050D000324601F03AFE5846012101F044FE804676
:1050E000002840D13246204607F5AE7101F02DFE72
:1050F0004146204601F041FE0146284605F0B1FB3D
:1051000028466F4905F04FFC10F1000818BF4FF01A
:105110000108284605F064FBB8F1000F23D0D7F84A
:10512000D03003BB67496848FBF79BFA654967487D
:10513000FBF797FAD7F8D02065492846FBF730FEF1
:105140002946614805F0A2FE62495F48FBF789FAEB
:1051500029465E4805F09AFE5C485E49FBF781FAF5
:10516000284605F03DFB013600E0002607F5AE704D
:10517000FBF7ADFA8642FFF65BAAFA6A564ED1B249
:105180003068002202F01CFDBB6A3068D9B20022F0
:1051900002F0F2FC396D052919D8DFE801F00307A8
:1051A0000A0D1013002130680A460EE03068012114
:1051B0000AE03068022107E03068032104E030682B
:1051C000042101E030680521002202F0E1FCFB6CC3
:1051D000052B19D8DFE803F003070A0D101300218F
:1051E00030680A460EE0306801210AE0306802218A
:1051F00007E03068032104E03068042101E03068F2
:105200000521002202F0D0FC022005F06FF8334B9C
:105210001868FBF7CDFE4FF00009C7F8BC00C7F8CF
:105220006C90C7F88890C7F8C89086E3D7F8CC6030
:10523000002E2FD1D7F8C860002E3CD103F086FB9A
:10524000BE6D274BF2B253F83230012283F80021B1
:1052500005F02EF8796F0029064608DB214B4A1E1F
:105260009A4204D8204821493A6C05F028FD05F0FF
:105270001FF87A6C801B9042F9D37E6F002E0CDBF6
:10528000184B721E9A4208D819493A6C194805F011
:1052900016FD02E0D7F8C86076BB204607F5AA7174
:1052A000D7F8CC2001F051FD2046FBF710FA01267B
:1052B000C7F8A00021E0D7F8CC601EE06C0B01001D
:1052C000790B01007E0B0100E89AFF1F249BFF1F52
:1052D000C0C62D00560A0100C894FF1FC494FF1FCA
:1052E000800D010054555505B893FF1F510500006E
:1052F0007D0500004C91FF1F0026D7F8CC20C7F891
:105300008460204607F5AA7101F01FFDD7F8A4605C
:105310003368D7F8A060B3FBF6F106FB11312046E5
:1053200001F021FD8C4BD7F8CC20186007F5A67151
:10533000204601F00AFDD7F8A4603368D7F8A060D2
:10534000B3FBF6F106FB1131204601F00CFDD7F856
:10535000C810824BB142186080F21682002940F0DA
:105360008C81D7F8CC20204607F5B27101F0EDFC16
:10537000D7F8C810204601F000FD014607F5D870A7
:1053800005F06FFA07F5D870754905F00CFB20B1F0
:10539000D7F89060013640F00E81D7F8D060002E2B
:1053A00001F0E28207E16F496F48FBF75AF90126E5
:1053B0006E486C49FBF755F9FE66D7F890600136E8
:1053C0000CD16B496848FBF74CF94FF0FF36674842
:1053D0006749FBF746F9C7F8906048E10520FBF7FD
:1053E00045FDC7F890000130EBD062495E48FBF7FD
:1053F00038F960495D48FBF734F907F5D8715A4828
:1054000005F044FD07F5D871584805F03FFD5A49AD
:105410005548FBF726F958495448FBF722F95749F4
:105420005148FBF71EF955495048FBF71AF9D7F8D0
:10543000CC20204607F5B27101F087FC01212046FF
:1054400001F09BFC01464848FBF70BF9D7F8CC204C
:10545000204607F5B27101F078FC0121204601F0E9
:105460008CFC01464148FBF7FCF843493E48FBF7FA
:10547000F8F841493D48FBF7F4F807F5D870404982
:1054800005F091FA30B13F493748FBF7EAF8374861
:105490003C4910E007F5D8703B4905F084FA68B143
:1054A0003A48FBF7E3FC0130FAD139492E48FBF7C3
:1054B000D8F82E483649FBF7D4F83DE007F5D87008
:1054C000344905F070FA064680B13048FBF7CEFC4F
:1054D000012808D130492448FBF7C3F82E49234856
:1054E000FBF7BFF8C3E00130EFD1DEE707F5D87076
:1054F0002A4905F058FAF8B1324628462349FBF705
:105500004FFC1E491848FBF7ACF81C491748FBF73D
:10551000A8F82946154805F0B9FC2946124805F0B7
:10552000B5FC1F491048FBF79CF810481C49FBF7D5
:1055300098F8284605F054F907F59270FBF7C7F87C
:10554000D7F8CC600138864207482DD01549FBF7C3
:1055500088F8064813492CE0F893FF1F2894FF1F92
:10556000B2030100870B0100E89AFF1F249BFF1F75
:10557000930B0100980B0100560A01005A05010027
:10558000AA0501009B0B01009F0B0100C0C62D0066
:10559000A50B0100AB0B0100B30B0100BF0B010019
:1055A0009C0B0100570A01006E49FBF75AF86E4840
:1055B0006C49FBF756F8D7F8CC1007F5967001F058
:1055C000D2FBD7F8CC20D7F8BC30D7F88C10B86114
:1055D000FCF7E0FFD7F8CC10804607F59A7001F091
:1055E000C2FBD7F8CC20D7F8BC30D7F88C10786144
:1055F000FCF7D0FFD7F8CC10C7F8800007F59E70F5
:1056000001F0B1FBD7F8CC20D7F8BC30D7F88C101C
:105610003861FCF7BFFFD7F8CC10F86707F5A27028
:1056200001F0A1FBD7F88C10D7F8CC20D7F8BC300C
:105630003860FCF7AFFF064607F5D87005F0D0F8E4
:1056400007F1A8010EC93963D7F8B4107A63BB63B8
:10565000F963D7F800C03A697B69B969C7F8A8C08F
:10566000C7F8AC20C7F8B030C7F8B4100AE007F5A7
:10567000D87005F0B5F800F097BF0026FE67C7F8B0
:105680008060B046DFF8FCC0D7F8BC30DCF8000022
:10569000D7F88C10D7F8CC20C7F800C0FCF77AFFF9
:1056A000D7F800C0DCF80030023B122B3BD8DFE813
:1056B00003F0283A3A3A3A3A3A3A2E161C3A340A61
:1056C000103A3A3A2200294B29481A88032101F05E
:1056D0002FFE264B26481A88032101F029FE234B72
:1056E00023481A88032101F023FE204B20481A8802
:1056F000032101F01DFE1F4B1D481A88002101F0F7
:1057000017FE1C4B1A481A88002101F011FE1A4B93
:1057100017481A88022101F00BFE174B14481A880B
:10572000022101F005FE154A042313602022013AEC
:10573000FDD1134A1360D7F8C83053BB19460D4B3F
:105740000B481A8801F0F4FD084B09481A88032118
:1057500001F0EEFD084B06481A88022101F0E8FD31
:1057600017E000BFBC0B0100249BFF1FF895FF1F33
:10577000B492FF1FDC91FF1F0C94FF1F88F00F40B5
:1057800084F00F40F893FF1F0026FE67C7F8806083
:10579000B0469B4B9B491A6808680028FBD0D2F1A1
:1057A000010238BF0022002AF5D1974B1868974BA9
:1057B000197802F011FA964BD7F884101860954BBF
:1057C000102201291A6053D1F96B934BCAB2D7F852
:1057D000841053F83220B8F1010F82F8001106D17D
:1057E000D7F8B410CAB253F8322082F88080B96B6F
:1057F000CAB253F83230012283F80021D7F8802052
:10580000012A09D1D7F8B030D7F88010DAB2824B2C
:1058100053F8323083F88010796B7F4BCAB2012184
:1058200053F8322082F80011FA6F8A4207D1D7F874
:10583000AC10CAB2F96F53F8322082F88010396B7D
:10584000CAB253F832300122964283F8002107D1C0
:10585000D7F8A830DAB2704B53F8323083F8806052
:105860006E4A042313602022013AFDD16C4A136072
:10587000FE695EB9654B1B68222B02D0232B05D134
:1058800001E0684B00E0684B1E6800E00026674BB3
:105890001B680BB35E4BD7F88820D7F898101B68AD
:1058A00051F822007B6006F007FD7B6880461846B1
:1058B00006F002FD314606F049FC0146404606F07E
:1058C00047FC06F013FFD7F88810D7F8986046F821
:1058D00021000131C7F8881072B6494BD7F8C820AB
:1058E00000261E60474B01321E60C7F8C82062B612
:1058F000D7F8A4100B6801330B6007F59270D7F846
:10590000CC1001F030FAD7F8CC20804607F5AA7108
:10591000204601F01AFA2046FAF7D9FED7F8C82037
:1059200000FB08F0824206D1D7F8CC30C7F8C86037
:105930000133C7F8CC3009F101097E6EB145FFF69D
:1059400075AC396A3A4E00913068D7F8CC20D7F858
:10595000BC30D7F88C10FCF7B5FE3368D7F8B460CC
:105960002D4A9E4205D0F1B2012652F8311081F83D
:105970000061D7F8B0609E4205D0F1B252F83120F4
:10598000012182F80011D7F8AC60234A9E4205D06D
:10599000F1B2012652F8311081F80061D7F8A86001
:1059A0009E4205D0F1B252F83120012182F8001157
:1059B0000128194A0DD1194E042131602026013EDB
:1059C000FDD1DBB2164E52F83330316083F88000DF
:1059D00005E0DBB252F83330012283F8002115488C
:1059E00005F064F9144805F061F9054BD7F8A410E7
:1059F00000261E60034B1E600E6000F0B8BD00BFA5
:105A00006091FF1FB894FF1FC894FF1F2894FF1FC9
:105A10008495FF1FC4F00F40800D010088F00F40F7
:105A200084F00F40BC94FF1FC094FF1FF893FF1F2A
:105A30006489FF1FB893FF1F4C91FF1F584607F55D
:105A4000AE71324601F081F90121584601F08BF91F
:105A50000128804659D13246204607F5AE7101F043
:105A600074F90021204601F088F90146284604F027
:105A7000F8FE2846BE4904F096FF10F1000918BF51
:105A80004FF00109284604F0ABFEB9F1000F3CD0FD
:105A90003246204607F5AE7101F057F941462046DF
:105AA00001F061F9FBF7B6F8B24BD7F8D0201B68CC
:105AB000013B9A4229D1B049DFF8E492AF48FAF7A6
:105AC000D0FDAD49AE48FAF7CCFDD9F8000005F09D
:105AD000B3FF4FF0020802460B46CDF80080A748FE
