:1000000000800020BD010000F9D30000F9D30000FA
:10001000F9D30000F9D30000F9D30000C5D30000E4
:10002000C5D30000C5D30000C5D30000F9D300003C
:10003000F9D30000C5D30000F9D30000B5D3000008
:10004000F9D30000F9D30000F9D30000F9D3000080
:10005000F9D30000F9D30000F9D30000F9D3000070
:10006000F9D30000F9D30000F9D30000F9D3000060
:10007000F9D30000F9D30000F9D30000F9D3000050
:10008000F9D30000F9D30000F9D30000F9D3000040
:10009000F9D30000EDB90000F9D30000F9D3000056
:1000A000F5AA0000F9D30000F9D30000F9D300004D
:1000B000F9D30000F9D30000F9D30000F9D3000010
:1000C000F9D30000F9D30000F9D30000F9D3000000
:1000D000F9D30000F9D30000F9D30000F9D30000F0
:1000E000F9D30000F9D30000F9D30000F9D30000E0
:1000F000F9D30000DDC80000F9D300000DE90000CD
:10010000F9D30000D9DA0000F9D30000F9D30000D8
:10011000F9D30000F9D30000F9D30000F9D30000AF
:10012000F9D30000F9D30000F9D30000F9D300009F
:10013000F9D30000F9D30000F9D30000F9D300008F
:10014000F9D30000F9D30000F9D30000F9D300007F
:1001500085DB00009DDB0000B5DB0000CDDB00008F
:10016000F9D3000069BE0000F9D30000F9D3000004
:10017000F9D30000F9D30000F9D30000F9D300004F
:10018000F9D30000F9D30000F9D30000F9D300003F
:10019000F9D30000F9D30000F9D3000059CD0000D5
:1001A000A9CD000031CE0000EDCE000071CF0000DF
:1001B000F9D30000F9D30000F9D30000544B4CF2FE
:1001C000205210B51A804DF628121A8000BF00BFC9
:1001D0000BF050FC4F4B4FF010621A604E4A9A6081
:1001E0004E4ADA604E4B1A6812F4807204D14D49BF
:1001F0000A604FF4A8521A604B4B1A7802F00802BA
:10020000D2B21AB11A7842F008021A70474B484825
:10021000484C2A221A700023474A02E01959995083
:10022000043399188142F9D3444B454A002101E037
:1002300043F8041B9342FBD34249434800231A5816
:100240005A500433B3F5DE7FF9D1404B404A802148
:1002500003F8011B9342FBD13A4A3E4B1A603E4BD6
:100260000A221A703D4B24221A70A02203F8012C96
:100270003B4A137803F00203DBB2002BF9D0384A73
:10028000137803F01003DBB2002BF9D1344A137852
:1002900003F00C03082BFAD1324B03221A704022D0
:1002A0005A702F4A137803F02003DBB2002BF9D0E9
:1002B0002B4A137803F04003DBB2002BF9D02A4B12
:1002C0002A4A1A6002225A60294B20221A70244AB4
:1002D000137803F00C030C2BFAD1264A264B1A6034
:1002E000264B274A1A60072243F8042C62B60DF009
:1002F00021F80C4B1B68DC0702D522480CF050FE9D
:100300000FF018FD0DF07BF80DF064FEFEE700BF66
:100310000E20054030800440823F04000100002B85
:1003200010D0034014D0034002D0074000E0074043
:100330006490FF1FD44D01006089FF1F6490FF1F70
:1003400084A4FF1F0084FF1F0000000000E400E001
:100350005FE400E008ED00E0005006400140064088
:10036000064006400440064044800440000003016B
:1003700000400640C01005000480044014E000E086
:10038000FF760100DB4BE755FFFFFFFFFFFFFFFF9D
:10039000FFFFFFFFFFFFFFFFFFFFFFFFFFFFFFFF6D
:1003A000FFFFFFFFFFFFFFFFFFFFFFFFFFFFFFFF5D
:1003B000FFFFFFFFFFFFFFFFFFFFFFFFFFFFFFFF4D
:1003C000FFFFFFFFFFFFFFFFFFFFFFFFFFFFFFFF3D
:1003D000FFFFFFFFFFFFFFFFFFFFFFFFFFFFFFFF2D
:1003E000FFFFFFFFFFFFFFFFFFFFFFFFFFFFFFFF1D
:1003F000FFFFFFFFFFFFFFFFFFFFFFFFFFFFFFFF0D
:10040000FFFFFFFFFFFFFFFFFFFFFFFFFEFFFFFFFD
:1004100008B549F26400074BC1F6FF701B1A062BA2
:1004200000D808BD40F20003C0F20003002BF8D052
:100430009847F6E76790FF1F08B549F2640049F254
:100440006403C1F6FF70C1F6FF731B1A9B1003EB28
:10045000D373591000D108BD40F20002C0F200026F
:10046000002AF8D09047F6E710B549F26404C1F6C7
:10047000FF74237873B9FFF7CBFF40F20003C0F29B
:1004800000032BB144F6D450C0F20100AFF300805A
:100490000123237010BD00BF08B540F20003C0F275
:1004A00000034BB144F6D45049F26801C0F2010098
:1004B000C1F6FF71AFF3008049F26400C1F6FF702E
:1004C00003682BB140F20003C0F2000303B1984768
:1004D000BDE80840B0E700BF024B4FF400121A60BD
:1004E000704700BF80E100E010B504460DF008FC45
:1004F000204610BD70B503460D46164607481946FE
:100500002A460AF073FD002404E004480AF0D6F9F4
:1005100030550134E3B2AB42F7D370BD949DFF1F59
:1005200070B50B4C06460D4620461D210AF072FCA4
:10053000314620460AF080F9294620460AF07CF927
:1005400020460AF076FD4023013BFDD170BD00BF7F
:10055000949DFF1F034670B509480D46194616467F
:1005600000240AF045FC03E0315D0AF065F901342E
:10057000E3B2AB420248F7D3BDE870400AF059BD80
:10058000949DFF1F064B10221A60064B1A78064BEB
:1005900053F83220012382F88030044A13607047F8
:1005A000C8F00F40789DFF1FF84701002891FF1FFA
:1005B000054B1A78054B53F83220012382F800319D
:1005C000034A1360704700BF789DFF1FF847010082
:1005D000749BFF1F38B50A480A4D09F0B5FD0A4B58
:1005E000044618680FF0EAF8014620460FF0EEF9CD
:1005F000014628680FF02EF82860204638BD00BF5D
:100600004899FF1F8090FF1FE489FF1F38B50A48F3
:100610000A4D09F035FD0A4B044618680FF0CEF874
:10062000014620460FF0D2F9014628680FF012F873
:100630002860204638BD00BF4899FF1FB090FF1FBB
:10064000E489FF1F30B5ADF5B05D81B0684600218B
:100650004FF4B0520FF096FF00246D4621462A5DFC
:100660000548013409F0A3FCB4F5B05FF6D10DF5EF
:10067000017D0DF5A05D30BD889DFF1F38B5044696
:1006800008460D460CF098F9236802465B68204640
:100690002946984738BD08B503681B68984708BDC8
:1006A00008B5FFF7EBFF08BD0DF0B0BB0A22002331
:1006B0000DF074BB9DF8001000910DF0B1BB38B582
:1006C00004460DF03CFB054620460DF059FB401951
:1006D00038BD38B50446FFF7D1FF054620460DF07A
:1006E0004FFB281838BD38B504460DF08FFB054682
:1006F00020460DF045FB281838BD37B59DF8181079
:10070000009104460DF08CFB054620460DF038FBA9
:1007100028183EBD08B50368C9B21B68984708BDD4
:10072000406800B1C06870470D4B70B540241C6034
:1007300032200CF0E9FD0B4B0B4D0C4E1C600C4CA9
:1007400031462846FFF7C5FF31462046FFF7C1FF77
:1007500028460DF015FB2046BDE870400DF010BB9B
:10076000C4F00F40C8F00F4084A2FF1F3C360100C8
:10077000A8A2FF1F10B517491748184CFFF790FFA4
:1007800017481449FFF78CFF236863B915491248CD
:10079000FFF79FFF12481349FFF79BFF124B0222FE
:1007A0001A6001230DE0012B0CD110490A48FFF714
:1007B00090FF0B480D49FFF78CFF0D4B02221A608A
:1007C0000023236004480DF0DBFA0548BDE8104023
:1007D0000DF0D6BA4F36010084A2FF1F1C9AFF1FEE
:1007E000A8A2FF1F4836010084F00F4064360100C4
:1007F00088F00F402DE9F74F002140F6FF724D4879
:100800000AF00EF84C4A0423202413602246013AD1
:10081000FDD14A4A4A4F136011200CF0E9FE494BC2
:10082000494E1C6005460A200CF06EFD11200CF0AC
:10083000DFFE83466E200CF067FD11200CF0D8FE21
:10084000424BDFF818911C60414C824621463846E5
:10085000FFF726FF21463046FFF722FF28460EF01D
:10086000ADFF3C490FF0B2F80EF068FB4FF0020804
:1008700004460D460B462246CDF800803846FFF769
:1008800019FF22462B46CDF800803046FFF712FFB5
:1008900049463846FFF704FF49463046FFF700FF58
:1008A00058460EF08BFF2B490FF090F80EF046FBE8
:1008B00004460D460B462246CDF800803846FFF729
:1008C000F9FE22462B46CDF800803046FFF7F2FEB7
:1008D00049463846FFF7E4FE49463046FFF7E0FE5A
:1008E00050460EF06BFF1B490FF070F80EF026FB20
:1008F00004460B462246CDF8008038460D46FFF7E9
:10090000D9FE2246144CCDF800802B463046FFF726
:10091000D1FE21463846FFF7DCFE21463046FFF780
:10092000D8FE38460DF02CFA304603B0BDE8F04F43
:100930000DF026BA089BFF1F88F00F4084F00F408F
:1009400084A2FF1FC4F00F40A8A2FF1FC8F00F40F1
:100950006A360100006013457B360100E94401005E
:100960002DE9F34707460E460AA80021144698468B
:100970000C9D09F0CBFC002840F3EA8075497648CD
:10098000FFF78EFE294674480DF0D9F97349724875
:10099000FFF786FE6F497248FFF782FE29467048CE
:1009A0000DF0CDF96D496E48FFF77AFE2046002123
:1009B0000FF0ECF8002840F0BA8020460EF0BEFAA6
:1009C000022704460D460B46224600976248FFF771
:1009D00071FE0097624822462B46FFF76BFE306897
:1009E00000210FF0D3F8002840F0AA805D495A4852
:1009F000FFF756FE40460EF0A1FA044622460B468B
:100A0000009755480D46FFF755FE56495448FFF7E5
:100A100047FE009722462B465148FFF74BFE8FE0DA
:100A200051494D48FFF73CFE21460AA809F06EFCEB
:100A3000014649480DF0EAF94A494748FFF730FEB8
:100A400049494748FFF72CFE21460AA809F05EFCF9
:100A5000014643480DF0DAF941484249FFF720FECC
:100A600000254FE021460AA858F825A009F04EFCC1
:100A70000EF0A4FE014650464FEA85090FF086F8B5
:100A800000283ED057F809000EF058FA0225024619
:100A90000B4600953048FFF70DFE57F809000EF0A1
:100AA0004DFA009502460B462D48FFF703FE3068CD
:100AB00000210FF06BF8D8B92A492748FFF7F0FD5D
:100AC00056F809000EF03AFA009502460B46224805
:100AD000FFF7F0FD23492248FFF7E2FD56F8090031
:100AE0000EF02CFA009502460B461D48FFF7E2FD7A
:100AF0001E491948FFF7D4FD1C491948FFF7D0FDDE
:100B000002E001351A2DADD101200CF0FDFB0AA841
:100B1000FFF706FE0138844207D012490E48FFF75E
:100B2000BFFD0F480F49FFF7BBFD013402E0DFF8BE
:100B3000448000240AA8FFF7F3FD8442FFF670AF5B
:100B40000B490548FFF7ACFD05480949FFF7A8FD2B
:100B5000BDE8FC872A3D010084A2FF1F8B360100FF
:100B6000A8A2FF1FE94401008E360100854601005E
:100B7000A44601007889FF1F10B5282000210CF041
:100B8000AFFA28210A2200230A480DF007F9094884
:100B90000DF0F6F8642428200CF02AFD01460548E3
:100BA000FFF7A1FD4FF4FA600CF0AEFB013CF2D16F
:100BB00010BD00BF84A2FF1F70B50C200CF000FA1E
:100BC000282001210CF08CFA40F2DC553BE0044671
:100BD000214628200CF0A0FA03200CF095FB1A20E7
:100BE0000CF006FD214606461C48FFF75DFD1C493A
:100BF0001A48FFF755FD31461848FFF755FD0134F7
:100C000016481749FFF765FDAC42E1D1214628207F
:100C10000CF082FA03200CF077FB1A200CF0E8FCB1
:100C2000214606460D48FFF73FFD0D490B48FFF7EB
:100C300037FD31460948FFF737FD08480849FFF7F7
:100C400048FD013CE2D10BF063FF0028BFD00BF060
:100C500019FFBDE870400BF015BF00BF84A2FF1F55
:100C6000E9440100012801D8FFF7B4BC704701280E
:100C700001D8FFF7CBBC70472DE9F84304463F4845
:100C80003F4F404E404D09F099FD0EF093FD386006
:100C90003A4809F08CFD0EF08DFD3060374809F0C0
:100CA0007FFD0EF087FD2860344809F072FD0EF0DC
:100CB00081FD364B804618603CBB354BDFF8EC902D
:100CC00018680EF07BFD044621463868314F0EF05F
:100CD0007DFE0146D9F800000EF0BCFC2146C9F8A3
:100CE000000030682C4E0EF071FE014638680EF0A0
:100CF000B1FC214638602868284D0EF067FE014699
:100D000030680EF0A7FC306028E0012C2FD1204B7A
:100D1000DFF89C9018680EF051FD044621463868B3
:100D20001F4F0EF053FE0146D9F800000EF092FC62
:100D30002146C9F8000030681A4E0EF047FE014601
:100D400038680EF087FC214638602868164D0EF092
:100D50003DFE014630680EF07DFC30602146404685
:100D60000EF034FE014628680EF074FC2860044B37
:100D700018680EF03DFFBDE8F88300BF0898FF1F1C
:100D80002C98FF1FDC9AFF1FC09AFF1FA090FF1F27
:100D9000E489FF1F4C99FF1F1491FF1F809DFF1FC7
:100DA000149AFF1F189AFF1FFC95FF1F0096FF1F44
:100DB0004099FF1F2DE9F74F2A4DDFF8B4B0DFF857
:100DC000B4A0294EDFF8B090DFF8B080274C594628
:100DD0002846FFF765FCDAF800000EF0AFF80227AE
:100DE00002460B4600972846FFF764FC314628462A
:100DF000FFF756FC49462846FFF752FCD8F800009A
:100E00000EF09CF8009702460B462846FFF752FC6E
:100E100059462046FFF744FCDAF800000EF08EF841
:100E2000009702460B462046FFF744FC3146204619
:100E3000FFF736FC49462046FFF732FCD8F80000A1
:100E40000EF07CF8009702460B462046FFF732FC76
:100E500031462846FFF724FC20463146FFF720FCA8
:100E6000BDE8FE8F84A2FF1FE9440100A8A2FF1F76
:100E7000313701006889FF1F40370100AC97FF1F21
:100E80002DE9F0410D46ADF57E7D04462B48DFF897
:100E9000B88016460DF05CF8294629480DF058F840
:100EA0004FF47A72002104A80FF06CFB2046002159
:100EB0000DF0DDF9234B1A680192019D1A68029228
:100EC000029A1F460DE03B6803930398401B0EF007
:100ED00075FCD8F800100EF081FE10B1FFF724FC6D
:100EE00005E00BF015FE10B90BF0A0FCE8B10BF01B
:100EF0000FFE002805DD0BF0EDFD5B2818D00F4834
:100F000008E00BF093FC002812DD0BF0B5FC5B2829
:100F10000ED00B482B2104AA4FF47A730DF01AF867
:100F2000204604A90DF0DBF902E0012ED9D1CAE771
:100F300020460DF57E7DBDE8F08100BF84A2FF1F35
:100F4000A8A2FF1FF0A1FF1F7089FF1FF0B5044684
:100F500091B0224821460CF0FBFF214821460CF0BD
:100F6000F7FF2022002108A80FF00CFB04A80021A5
:100F70000DF07DF91B4B1A680192019E1A680292CE
:100F8000029A1F460BF0C4FD10B90BF04FFCC0B124
:100F90000BF04CFC002801DD114804E00BF0B8FD1B
:100FA000002815DD0D4808AA20232B210CF0D2FFC4
:100FB00008A904A80DF093F904980EF069FE0546FF
:100FC00006E03B680393039B9B1BA342DADDDFE74C
:100FD00004A80DF00BF9284611B0F0BD84A2FF1F44
:100FE000A8A2FF1FF0A1FF1F2DE9F041064690B017
:100FF000244831460CF0ACFF234831460CF0A8FFE2
:101000002022002108A80FF0BDFA04A800210DF04D
:101010002EF91E4B1A680192019F1A680292029AD9
:1010200098460BF075FD10B90BF000FCC8B10BF041
:101030006FFD002801DD134804E00BF0F7FB0028EA
:1010400017DD114808AA20232B210CF083FF08A9E3
:1010500004A80DF044F904980EF016FE04460D465F
:1010600007E0D8F800300393039BDB1BB342D8DDC5
:10107000DDE704A80DF0BAF82046294610B0BDE817
:10108000F08100BF84A2FF1FA8A2FF1FF0A1FF1FD5
:1010900008B5044B19680EF0DBFA034B19680EF023
:1010A00095FC08BDAC97FF1F6889FF1F2DE9F04133
:1010B000314D06468846002430460EF07FFB01463F
:1010C00055F824000EF062FD002830D02B4B53F869
:1010D00024602B4B53F824702A4B53F824502A4B8E
:1010E000304653F824100EF0B3FA31460EF06EFC81
:1010F000014628460EF0B6FB014628460EF0AAFA35
:10110000224B53F82460224B054653F824103846EE
:101110000EF09EFA39460EF059FC014630460EF0AC
:10112000A1FB014630460EF095FA044604E0013476
:101130001A2CC1D1002425462046002101270EF09B
:1011400025FD00B10027FFB247B92846002101263E
:101150000EF01CFD00B13E46F0B250B140460EF01C
:101160002DFB21460EF074FA29460EF02FFC0EF0EE
:1011700065FDBDE8F08100BF7889FF1FD498FF1F8F
:101180002C9AFF1FDC96FF1F6C98FF1F4497FF1FD0
:101190009C99FF1F2DE9F34106460C463048314922
:1011A00017461D46FFF77CFA31462D480CF0C7FD67
:1011B0002D492B48FFF774FA2A492C48FFF770FA9B
:1011C00031462A480CF0BBFD28482749FFF768FA4A
:1011D0004FF0000806261FE020680DF0AFFE0096D5
:1011E00002460B461E48FFF765FA54F8040B0DF053
:1011F000A5FE009602460B461C48FFF75BFA6B1EE5
:10120000984507D01A491648FFF74AFA174818496F
:10121000FFF746FA08F10108A845DDDB154910483B
:10122000FFF73EFA11481349FFF73AFA012F0C482D
:1012300005D00F49FFF74DFA0C480D490CE00E4957
:10124000FFF747FA0D490648FFF743FA0A490748EE
:10125000FFF73FFA05480949FFF73BFABDE8FC8173
:1012600084A2FF1F2A3D010049380100A8A2FF1FE8
:10127000E9440100854601004D360100823B010032
:10128000F7B504460D462E482E491746FFF708FAD3
:1012900021462B480CF053FD2B492948FFF700FA53
:1012A00028492A48FFF7FCF9214628480CF047FD59
:1012B00026482549FFF7F4F90024022628680DF096
:1012C0003DFE009602460B461D48FFF7F3F955F820
:1012D000040B0DF033FE009602460B461B48FFF749
:1012E000E9F9192C07D01A491548FFF7D9F9174819
:1012F0001749FFF7D5F901341A2CDFD115491048E9
:10130000FFF7CEF911481349FFF7CAF9012F0C482E
:1013100005D00F49FFF7DDF90C480D490CE00E49E7
:10132000FFF7D7F90D490648FFF7D3F90A490748EF
:10133000FFF7CFF905480949FFF7CBF9FEBD00BF1C
:1013400084A2FF1F2A3D010049380100A8A2FF1F07
:10135000E9440100854601004D360100823B010051
:1013600010B50EF02BFA0B4B196804460EF07AFA02
:10137000094B19680EF06EF9084B1860084B2046AF
:1013800019680EF06FFA074B19680EF063F9064BF7
:10139000186010BD2091FF1F049AFF1F9C9AFF1F29
:1013A0002491FF1F089AFF1F7C9DFF1F2DE9F74323
:1013B000054638B953495448FFF772F95348514923
:1013C000FFF76EF9DFF8689151494F48DFF8648103
:1013D000504F514EFFF764F9D9F800000DF0AEFD03
:1013E000022402460B4600944748FFF763F94B4935
:1013F0004548FFF755F94A494348FFF751F9D8F8EE
:1014000000000DF09BFD009402460B463E48FFF79E
:1014100051F942493C48FFF743F942493A48FFF73E
:101420003FF938680DF08AFD009402460B463648B5
:10143000FFF740F939493448FFF732F93A49324861
:10144000FFF72EF930680DF079FD009402460B4647
:101450002D48FFF72FF92E492C48FFF721F9D9F82D
:1014600000000DF06BFD009402460B462748FFF785
:1014700021F92A492548FFF713F929492348FFF79D
:101480000FF9D8F800000DF059FD009402460B4604
:101490001E48FFF70FF921491C48FFF701F92149C0
:1014A0001A48FFF7FDF838680DF048FD0094024631
:1014B0000B461648FFF7FEF818491448FFF7F0F8F6
:1014C00019491248FFF7ECF830680DF037FD009429
:1014D00002460B460D48FFF7EDF8012D0A4807D1EB
:1014E0000E49FFF7DDF80D490848FFF7D9F806E087
:1014F0000E49FFF7EEF805480C49FFF7EAF8BDE89A
:10150000FE8300BF5537010084A2FF1FA8A2FF1F62
:10151000573701002491FF1F089AFF1FE94401007B
:101520006337010074370100803701004D36010038
:101530002091FF1F049AFF1F01282DE9F3418846DF
:1015400016461D463DD1A64FA649A748FFF7A8F865
:1015500038680DF0F3FC062402460B460094A248BE
:10156000FFF7A8F8A149A048FFF79AF878680DF0AE
:10157000E5FC009402460B469B48FFF79BF89C490C
:101580009948FFF78DF897499A48FFF789F8386826
:101590000DF0D4FC009402460B469648FFF78AF8FB
:1015A00092499448FFF77CF878680DF0C7FC0094E6
:1015B00002460B468F48FFF77DF88E488C49FFF7AF
:1015C0006FF8B8F1010F3DD18B4F8C498648FFF77A
:1015D00067F838680DF0B2FC062402460B4600940A
:1015E0008148FFF767F881497F48FFF759F8786825
:1015F0000DF0A4FC009402460B467B48FFF75AF816
:101600007B497948FFF74CF87C497A48FFF748F85E
:1016100038680DF093FC009402460B467548FFF7BE
:1016200049F872497348FFF73BF878680DF086FC7B
:10163000009402460B466F48FFF73CF86D486C4932
:10164000FFF72EF8012E3DD16D4E6E496648FFF72B
:1016500027F830680DF072FC062402460B46009411
:101660006148FFF727F861495F48FFF719F870688C
:101670000DF064FC009402460B465B48FFF71AF835
:101680005B495948FFF70CF85E495A48FFF708F8DC
:1016900030680DF053FC009402460B465548FFF7A6
:1016A00009F852495348FEF7FBFF70680DF046FCFD
:1016B000009402460B464F48FEF7FCFF4D484C494C
:1016C000FEF7EEFF012D3DD14F4D50494648FEF744
:1016D000E7FF28680DF032FC062402460B46009412
:1016E0004148FEF7E7FF41493F48FEF7D9FF6868E8
:1016F0000DF024FC009402460B463B48FEF7DAFF4F
:101700003B493948FEF7CCFF40493A48FEF7C8FF4D
:1017100028680DF013FC009402460B463548FEF78E
:10172000C9FF32493348FEF7BBFF68680DF006FC7D
:10173000009402460B462F48FEF7BCFF2D482C496B
:10174000FEF7AEFF089B012B3DD1314D31492648B4
:10175000FEF7A6FF28680DF0F1FB062402460B46B3
:1017600000942148FEF7A6FF20491F48FEF798FF86
:1017700068680DF0E3FB009402460B461A48FEF73A
:1017800099FF1B491848FEF78BFF22491948FEF7BD
:1017900087FF28680DF0D2FB009402460B461548DF
:1017A000FEF788FF11491348FEF77AFF68680DF0CD
:1017B000C5FB009402460B460E48FEF77BFF0D4822
:1017C0000B49FEF76DFF099B012B5ED1124D1349AA
:1017D0000548FEF765FF28680DF0B0FB06241FE002
:1017E000B09AFF1F9137010084A2FF1FE944010056
:1017F000A4460100A8A2FF1FB89AFF1FA23701004C
:10180000C49AFF1FB33701007499FF1FC43701004A
:10181000CC9AFF1FD5370100D49AFF1FE63701008D
:1018200002460B460094A548FEF744FFA449A3488E
:10183000FEF736FF68680DF081FB009402460B4608
:101840009E48FEF737FF9F499C48FEF729FF9E49B7
:101850009E48FEF725FF28680DF070FB00940246B5
:101860000B469A48FEF726FF95499848FEF718FF61
:1018700068680DF063FB009402460B469348FEF740
:1018800019FF92488F49FEF70BFF0A9B012B3DD1B0
:101890008F4D90498948FEF703FF28680DF04EFBF5
:1018A000062402460B4600948448FEF703FF844951
:1018B0008248FEF7F5FE68680DF040FB0094024692
:1018C0000B467E48FEF7F6FE7E497C48FEF7E8FEB2
:1018D00080497E48FEF7E4FE28680DF02FFB009457
:1018E00002460B467948FEF7E5FE75497748FEF754
:1018F000D7FE68680DF022FB009402460B46734841
:10190000FEF7D8FE71486F49FEF7CAFE0B9B012B0C
:101910003DD1714D71496948FEF7C2FE28680DF04E
:101920000DFB062402460B4600946448FEF7C2FEF7
:1019300063496248FEF7B4FE68680DF0FFFA009450
:1019400002460B465D48FEF7B5FE5E495B48FEF772
:10195000A7FE62495D48FEF7A3FE28680DF0EEFA87
:10196000009402460B465948FEF7A4FE54495748D6
:10197000FEF796FE68680DF0E1FA009402460B4609
:101980005248FEF797FE51484E49FEF789FE0C9BE0
:10199000012B3DD1524D53494848FEF781FE28683E
:1019A0000DF0CCFA062402460B4600944348FEF79D
:1019B00081FE43494148FEF773FE68680DF0BEFAA8
:1019C000009402460B463D48FEF774FE3D493B48F5
:1019D000FEF766FE43493D48FEF762FE28680DF0BB
:1019E000ADFA009402460B463848FEF763FE3449D0
:1019F0003648FEF755FE68680DF0A0FA00940246DE
:101A00000B463248FEF756FE30482E49FEF748FE98
:101A10000D9B012B3DD1344D34492848FEF740FE43
:101A200028680DF08BFA062402460B4600942348E2
:101A3000FEF740FE22492148FEF732FE68680DF0AD
:101A40007DFA009402460B461C48FEF733FE1D4902
:101A50001A48FEF725FE25491C48FEF721FE286896
:101A60000DF06CFA009402460B461848FEF722FE71
:101A700013491648FEF714FE68680DF05FFA0094EB
:101A800002460B461148FEF715FE10480D49FEF7B9
:101A900007FE0E9B012B5DD1154D16490748FEF739
:101AA000FFFD28680DF04AFA062402460B46009412
:101AB0000248FEF7FFFD02491EE000BF84A2FF1F9F
:101AC000E9440100A4460100E6370100A8A2FF1F77
:101AD0008C90FF1FF7370100E89AFF1F08380100BC
:101AE0009890FF1F193801009499FF1F2A380100B0
:101AF000B497FF1F3B380100A548FEF7D1FD686889
:101B00000DF01CFA009402460B46A148FEF7D2FDE8
:101B1000A0499F48FEF7C4FD9F49A048FEF7C0FDBD
:101B200028680DF00BFA009402460B469B48FEF71E
:101B3000C1FD9B499948FEF7B3FD68680DF0FEF9B9
:101B4000009402460B469548FEF7B4FD9348914930
:101B5000FEF7A6FD0F9B012B3DD1924D92498C487B
:101B6000FEF79EFD28680DF0E9F9062402460B46B3
:101B700000948748FEF79EFD89498548FEF790FD51
:101B800068680DF0DBF9009402460B468048FEF7CA
:101B900091FD80497E48FEF783FD83497F48FEF72B
:101BA0007FFD28680DF0CAF9009402460B467B4879
:101BB000FEF780FD7A497948FEF772FD68680DF0FE
:101BC000BDF9009402460B467448FEF773FD734856
:101BD0007049FEF765FD109B012B3DD1734D744993
:101BE0006B48FEF75DFD28680DF0A8F90624024653
:101BF0000B4600946648FEF75DFD69496448FEF7B0
:101C00004FFD68680DF09AF9009402460B46604853
:101C1000FEF750FD5F495E48FEF742FD64495F48AC
:101C2000FEF73EFD28680DF089F9009402460B4648
:101C30005A48FEF73FFD5A495848FEF731FD68689B
:101C40000DF07CF9009402460B465448FEF732FD35
:101C500052485049FEF724FD119B012B3DD1554DB3
:101C600055494B48FEF71CFD28680DF067F906241E
:101C700002460B4600944648FEF71CFD484944487E
:101C8000FEF70EFD68680DF059F9009402460B4608
:101C90003F48FEF70FFD3F493D48FEF701FD46492D
:101CA0003E48FEF7FDFC28680DF048F90094024616
:101CB0000B463A48FEF7FEFC39493848FEF7F0FC7F
:101CC00068680DF03BF9009402460B463348FEF776
:101CD000F1FC32482F49FEF7E3FC129B012B3DD16A
:101CE000364D37492A48FEF7DBFC28680DF026F907
:101CF000062402460B4600942548FEF7DBFC2849E3
:101D00002348FEF7CDFC68680DF018F900940246F0
:101D10000B461F48FEF7CEFC1E491D48FEF7C0FCCF
:101D200027491E48FEF7BCFC28680DF007F900940F
:101D300002460B461948FEF7BDFC19491748FEF745
:101D4000AFFC68680DF0FAF8009402460B461348A1
:101D5000FEF7B0FC11480F49FEF7A2FC139B012BC4
:101D60005CD1184D18490A48FEF79AFC28680DF016
:101D7000E5F8062402460B4600940548FEF79AFC57
:101D800007490348FEF78CFC68680DF0D7F81DE0A2
:101D900084A2FF1FA44601003B380100A8A2FF1F38
:101DA000E9440100BC97FF1F4D380100C497FF1F95
:101DB0005F380100CC97FF1F71380100D497FF1FD7
:101DC00083380100DC97FF1F95380100009402461C
:101DD0000B46A548FEF76EFCA449A348FEF760FC3D
:101DE000A349A448FEF75CFC28680DF0A7F800940E
:101DF00002460B469F48FEF75DFC9F499D48FEF753
:101E00004FFC68680DF09AF8009402460B4699481A
:101E1000FEF750FC97489549FEF742FC149B012BB6
:101E20003DD1964D96499048FEF73AFC28680DF052
:101E300085F8062402460B4600948B48FEF73AFCD0
:101E40008D498948FEF72CFC68680DF077F80094FE
:101E500002460B468448FEF72DFC84498248FEF773
:101E60001FFC87498348FEF71BFC28680DF066F8C5
:101E7000009402460B467F48FEF71CFC7E497D48D5
:101E8000FEF70EFC68680DF059F8009402460B4608
:101E90007848FEF70FFC77487449FEF701FC159B64
:101EA000012B3DD1774D78496F48FEF7F9FB286843
:101EB0000DF044F8062402460B4600946A48FEF7EB
:101EC000F9FB6D496848FEF7EBFB68680DF036F8E2
:101ED000009402460B466448FEF7ECFB63496248F7
:101EE000FEF7DEFB68496348FEF7DAFB28680DF071
:101EF00025F8009402460B465E48FEF7DBFB5E4980
:101F00005C48FEF7CDFB68680DF018F800940246B7
:101F10000B465848FEF7CEFB56485449FEF7C0FB27
:101F2000169B012B3DD1594D59494F48FEF7B8FB3F
:101F300028680DF003F8062402460B4600944A4830
:101F4000FEF7B8FB4C494848FEF7AAFB68680CF05E
:101F5000F5FF009402460B464348FEF7ABFB4349AE
:101F60004148FEF79DFB4A494248FEF799FB286825
:101F70000CF0E4FF009402460B463E48FEF79AFB45
:101F80003D493C48FEF78CFB68680CF0D7FF009495
:101F900002460B463748FEF78DFB36483349FEF7BD
:101FA0007FFB179B012B3DD13A4D3B492E48FEF755
:101FB00077FB28680CF0C2FF062402460B4600940B
:101FC0002948FEF777FB2C492748FEF769FB68682C
:101FD0000CF0B4FF009402460B462348FEF76AFB60
:101FE00022492148FEF75CFB2B492248FEF758FBAB
:101FF00028680CF0A3FF009402460B461D48FEF72C
:1020000059FB1D491B48FEF74BFB68680CF096FF17
:10201000009402460B461748FEF74CFB154813493F
:10202000FEF73EFB189B012B5DD11C4D1C490E4851
:10203000FEF736FB28680CF081FF062402460B46AB
:1020400000940948FEF736FB0B490748FEF728FBCA
:1020500068680CF073FF009402460B460248FEF7D6
:1020600029FB02491EE000BF84A2FF1FA446010015
:1020700095380100A8A2FF1FE9440100E497FF1F63
:10208000A7380100EC97FF1FB9380100F497FF1F34
:10209000CB380100FC97FF1FDD3801005499FF1F6A
:1020A000EF380100A448FEF7FBFAA449A448FEF764
:1020B000F7FA28680CF042FF009402460B46A0484D
:1020C000FEF7F8FA9F499E48FEF7EAFA68680CF0B6
:1020D00035FF009402460B469948FEF7EBFA984804
:1020E0009949FEF7DDFA199B012B3DD1974D98498F
:1020F0009148FEF7D5FA28680CF020FF0624024626
:102100000B4600948C48FEF7D5FA8E498A48FEF7B4
:10211000C7FA68680CF012FF009402460B46864826
:10212000FEF7C8FA88498448FEF7BAFA8849844815
:10213000FEF7B6FA28680CF001FF009402460B4641
:102140007F48FEF7B7FA7F497D48FEF7A9FA68682D
:102150000CF0F4FE009402460B467948FEF7AAFA0A
:1021600077487949FEF79CFA1A9B012B3DD1794DAE
:1021700079497148FEF794FA28680CF0DFFE0624CE
:1021800002460B4600946C48FEF794FA6D496A4883
:10219000FEF786FA68680CF0D1FE009402460B4602
:1021A0006548FEF787FA68496348FEF779FA6A4995
:1021B0006348FEF775FA28680CF0C0FE00940246EA
:1021C0000B465F48FEF776FA5E495D48FEF768FA0F
:1021D00068680CF0B3FE009402460B465848FEF7C0
:1021E00069FA57485849FEF75BFA1B9B012B3DD112
:1021F0005A4D5B495048FEF753FA28680CF09EFE92
:10220000062402460B4600944B48FEF753FA4D490C
:102210004948FEF745FA68680CF090FE00940246C3
:102220000B464548FEF746FA47494348FEF738FA59
:102230004B494348FEF734FA28680CF07FFE0094BF
:1022400002460B463E48FEF735FA3E493C48FEF74B
:1022500027FA68680CF072FE009402460B46384874
:10226000FEF728FA36483849FEF71AFA1C9B012B6C
:102270003DD13C4D3C493048FEF712FA28680CF03D
:102280005DFE062402460B4600942B48FEF712FA28
:102290002C492948FEF704FA68680CF04FFE0094B8
:1022A00002460B462448FEF705FA27492248FEF766
:1022B000F7F92D492248FEF7F3F928680CF03EFEA5
:1022C000009402460B461E48FEF7F4F91D491C48CF
:1022D000FEF7E6F968680CF031FE009402460B4602
:1022E0001748FEF7E7F916481749FEF7D9F91D9B7D
:1022F000012B5CD11D4D1E490F48FEF7D1F928680E
:102300000CF01CFE062402460B4600940A48FEF719
:10231000D1F90C490848FEF7C3F968680CF00EFEC5
:10232000009402460B460448FEF7C4F906490248E9
:10233000FEF7B6F90E491DE084A2FF1FEF38010039
:10234000A8A2FF1FE9440100A44601005C99FF1FF9
:10235000013901006499FF1F133901006C99FF1FB7
:1023600025390100209AFF1F373901007C99FF1F92
:1023700049390100A548FEF793F928680CF0DEFD05
:10238000009402460B46A148FEF794F9A0499F48E5
:10239000FEF786F968680CF0D1FD009402460B4602
:1023A0009A48FEF787F999489A49FEF779F91E9BF2
:1023B000012B3DD1984D99499948FEF771F928684C
:1023C0000CF0BCFD062402460B4600949448FEF730
:1023D00071F98F499248FEF763F968680CF0AEFD19
:1023E000009402460B468E48FEF764F989498C48F2
:1023F000FEF756F989498548FEF752F928680CF02E
:102400009DFD009402460B468048FEF753F9804933
:102410007E48FEF745F968680CF090FD009402468E
:102420000B467A48FEF746F978487A49FEF738F9BC
:102430001F9B012B3DD17B4D7B497948FEF730F93D
:1024400028680CF07BFD062402460B460094744875
:10245000FEF730F96E497248FEF722F968680CF011
:102460006DFD009402460B466D48FEF723F969495D
:102470006B48FEF715F96C496448FEF711F92868B6
:102480000CF05CFD009402460B466048FEF712F922
:102490005F495E48FEF704F968680CF04FFD009450
:1024A00002460B465948FEF705F958485949FEF7C8
:1024B000F7F8209B012B3DD15C4D5D495848FEF754
:1024C000EFF828680CF03AFD062402460B4600940B
:1024D0005348FEF7EFF84E495148FEF7E1F86868B7
:1024E0000CF02CFD009402460B464D48FEF7E2F836
:1024F00048494B48FEF7D4F84D494448FEF7D0F818
:1025000028680CF01BFD009402460B463F48FEF77E
:10251000D1F83F493D48FEF7C3F868680CF00EFD5E
:10252000009402460B463948FEF7C4F8374839494B
:10253000FEF7B6F8219B012B3DD13E4D3E49384870
:10254000FEF7AEF828680CF0F9FC062402460B46AC
:1025500000943348FEF7AEF82D493148FEF7A0F855
:1025600068680CF0EBFC009402460B462C48FEF722
:10257000A1F828492A48FEF793F82F492348FEF787
:102580008FF828680CF0DAFC009402460B461F48CE
:10259000FEF790F81E491D48FEF782F868680CF0B7
:1025A000CDFC009402460B461848FEF783F8174806
:1025B0001849FEF775F8229B012B5AD11F4D20496F
:1025C0001748FEF76DF828680CF0B8FC06240246A0
:1025D0000B4600941248FEF76DF80D491048FEF7BF
:1025E0005FF868680CF0AAFC009402460B460C48A1
:1025F000FEF760F807490A48FEF752F81049034809
:10260000FEF74EF828680CF099FC1BE0A8A2FF1F0B
:10261000E9440100A44601008499FF1F5B390100D1
:1026200084A2FF1F949AFF1F6D390100A09AFF1F1B
:102630007F3901008C99FF1F91390100F09AFF1F2B
:10264000A3390100009402460B46A548FEF732F874
:10265000A449A348FEF724F868680CF06FFC0094C6
:1026600002460B469E48FEF725F89D489E49FEF718
:1026700017F8239B012B3DD19C4D9D499D48FEF7AA
:102680000FF828680CF05AFC062402460B4600940A
:102690009848FEF70FF893499648FEF701F86868E6
:1026A0000CF04CFC009402460B469248FEF702F8F0
:1026B0008D499048FDF7F4FF8D498948FDF7F0FFFB
:1026C00028680CF03BFC009402460B468448FDF75A
:1026D000F1FF84498248FDF7E3FF68680CF02EFCA7
:1026E000009402460B467E48FDF7E4FF7C487E4995
:1026F000FDF7D6FF249B012B3DD17F4D7F497D48BF
:10270000FDF7CEFF28680CF019FC062402460B46A4
:1027100000947848FDF7CEFF72497648FDF7C0FF78
:1027200068680CF00BFC009402460B467148FDF7FC
:10273000C1FF6D496F48FDF7B3FF70496848FDF769
:10274000AFFF28680CF0FAFB009402460B46644881
:10275000FDF7B0FF63496248FDF7A2FF68680CF01F
:10276000EDFB009402460B465D48FDF7A3FF5C4875
:102770005D49FDF795FF259B012B3DD1604D6149DA
:102780005C48FDF78DFF28680CF0D8FB0624024654
:102790000B4600945748FDF78DFF52495548FDF709
:1027A0007FFF68680CF0CAFB009402460B46514854
:1027B000FDF780FF4C494F48FDF772FF51494848EB
:1027C000FDF76EFF28680CF0B9FB009402460B463B
:1027D0004348FDF76FFF43494148FDF761FF6868D3
:1027E0000CF0ACFB009402460B463D48FDF762FF3F
:1027F0003B483D49FDF754FF269B012B3DD1424DFF
:1028000042493C48FDF74CFF28680CF097FB062432
:1028100002460B4600943748FDF74CFF31493548D6
:10282000FDF73EFF68680CF089FB009402460B46FA
:102830003048FDF73FFF2C492E48FDF731FF334963
:102840002748FDF72DFF28680CF078FB009402461E
:102850000B462348FDF72EFF22492148FDF720FFB4
:1028600068680CF06BFB009402460B461C48FDF7B1
:1028700021FF1B481C49FDF713FF279B012B5BD150
:10288000234D24491B48FDF70BFF28680CF056FB2D
:10289000062402460B4600941648FDF70BFF11492B
:1028A0001448FDF7FDFE68680CF048FB00940246F2
:1028B0000B461048FDF7FEFE0B490E48FDF7F0FEF3
:1028C00014490748FDF7ECFE28680CF037FB00942C
:1028D00002460B460248FDF7EDFE02491CE000BF30
:1028E000A8A2FF1FE9440100A4460100F89AFF1FB7
:1028F000B539010084A2FF1F009BFF1FC7390100EB
:102900006C96FF1FD93901003C9BFF1FEB3901007A
:10291000449BFF1FFD390100A548FDF7C1FE686813
:102920000CF00CFB009402460B46A148FDF7C2FEDA
:102930009F48A049FDF7B4FE289B012B3DD19E4D39
:102940009E499F48FDF7ACFE28680CF0F7FA062474
:1029500002460B4600949A48FDF7ACFE9949984808
:10296000FDF79EFE68680CF0E9FA009402460B46FB
:102970009348FDF79FFE8F499148FDF791FE8F49DF
:102980008B48FDF78DFE28680CF0D8FA00940246BB
:102990000B468748FDF78EFE8A498548FDF780FE85
:1029A00068680CF0CBFA009402460B468048FDF7AD
:1029B00081FE7F487F49FDF773FE299B012B3DD1A6
:1029C000814D82497E48FDF76BFE28680CF0B6FA0F
:1029D000062402460B4600947948FDF76BFE7949C0
:1029E0007748FDF75DFE68680CF0A8FA009402468F
:1029F0000B467348FDF75EFE6E497148FDF750FEC9
:102A000072496B48FDF74CFE28680CF097FA009469
:102A100002460B466648FDF74DFE6A496448FDF7DD
:102A20003FFE68680CF08AFA009402460B46604844
:102A3000FDF740FE5E485F49FDF732FE2A9B012B01
:102A40003DD1634D63495E48FDF72AFE28680CF0CE
:102A500075FA062402460B4600945948FDF72AFEF3
:102A600058495748FDF71CFE68680CF067FA009457
:102A700002460B465248FDF71DFE4E495048FDF7F1
:102A80000FFE54494A48FDF70BFE28680CF056FA31
:102A9000009402460B464648FDF70CFE494944485F
:102AA000FDF7FEFD68680CF049FA009402460B46FB
:102AB0003F48FDF7FFFD3E483E49FDF7F1FD2B9BEA
:102AC000012B3DD1444D45493D48FDF7E9FD2868BE
:102AD0000CF034FA062402460B4600943848FDF701
:102AE000E9FD38493648FDF7DBFD68680CF026FA49
:102AF000009402460B463248FDF7DCFD2D49304874
:102B0000FDF7CEFD35492A48FDF7CAFD28680CF0CF
:102B100015FA009402460B462548FDF7CBFD2949DE
:102B20002348FDF7BDFD68680CF008FA00940246E2
:102B30000B461F48FDF7BEFD1D481E49FDF7B0FDC1
:102B40002C9B012B5AD1264D26491D48FDF7A8FD87
:102B500028680CF0F3F9062402460B460094184846
:102B6000FDF7A8FD17491648FDF79AFD68680CF0B7
:102B7000E5F9009402460B461148FDF79BFD0D490F
:102B80000F48FDF78DFD17490948FDF789FD2868B5
:102B90000CF0D4F9009402460B460548FDF78AFD77
:102BA00008490348FDF77CFD68680CF0C7F91BE095
:102BB000A8A2FF1FA44601004C9BFF1F0F3A010073
:102BC00084A2FF1FE9440100549BFF1F213A01002A
:102BD0005C9BFF1F333A0100649BFF1F453A0100D5
:102BE000A89AFF1F573A0100009402460B46A548D9
:102BF000FDF760FDA348A449FDF752FD2D9B012B75
:102C00003DD1A24DA249A348FDF74AFD28680CF02A
:102C100095F9062402460B4600949E48FDF74AFDAE
:102C20009D499C48FDF73CFD68680CF087F90094CD
:102C300002460B469748FDF73DFD93499548FDF741
:102C40002FFD93498F48FDF72BFD28680CF076F98E
:102C5000009402460B468B48FDF72CFD8E498948AF
:102C6000FDF71EFD68680CF069F9009402460B46FA
:102C70008448FDF71FFD83488349FDF711FD2E9B16
:102C8000012B3DD1854D86498248FDF709FD286815
:102C90000CF054F9062402460B4600947D48FDF7DB
:102CA00009FD7D497B48FDF7FBFC68680CF046F99F
:102CB000009402460B467748FDF7FCFC72497548C4
:102CC000FDF7EEFC76496F48FDF7EAFC28680CF04A
:102CD00035F9009402460B466A48FDF7EBFC6E4955
:102CE0006848FDF7DDFC68680CF028F9009402469E
:102CF0000B466448FDF7DEFC62486349FDF7D0FCF3
:102D00002F9B012B3DD1674D67496248FDF7C8FCF9
:102D100028680CF013F9062402460B4600945D481F
:102D2000FDF7C8FC5C495B48FDF7BAFC68680CF02D
:102D300005F9009402460B465648FDF7BBFC524984
:102D40005448FDF7ADFC58494E48FDF7A9FC2868EA
:102D50000CF0F4F8009402460B464A48FDF7AAFC32
:102D60004D494848FDF79CFC68680CF0E7F8009472
:102D700002460B464348FDF79DFC42484249FDF799
:102D80008FFC309B012B3DD1484D49494148FDF70F
:102D900087FC28680CF0D2F8062402460B46009403
:102DA0003C48FDF787FC3C493A48FDF779FC6868E8
:102DB0000CF0C4F8009402460B463648FDF77AFC46
:102DC00031493448FDF76CFC39492E48FDF768FC61
:102DD00028680CF0B3F8009402460B462948FDF72A
:102DE00069FC2D492748FDF75BFC68680CF0A6F8E4
:102DF000009402460B462348FDF75CFC214822491B
:102E0000FDF74EFC319B012B5BD12A4D2A4921480D
:102E1000FDF746FC28680CF091F8062402460B46A4
:102E200000941C48FDF746FC1B491A48FDF738FC86
:102E300068680CF083F8009402460B461548FDF7CD
:102E400039FC11491348FDF72BFC1B490D48FDF7D0
:102E500027FC28680CF072F8009402460B460948DB
:102E6000FDF728FC0C490748FDF71AFC68680CF0D0
:102E700065F8009402460B460248FDF71BFC01482A
:102E80001CE000BFA8A2FF1FA4460100B490FF1FD2
:102E9000693A010084A2FF1FE9440100BC90FF1FB2
:102EA0007B3A0100C490FF1F8D3A0100CC90FF1FB8
:102EB0009F3A0100D490FF1FB13A0100A549FDF7E8
:102EC000EFFB329B012B57D1A34DA449A448FDF73A
:102ED000E7FB28680CF032F8062402460B46009403
:102EE0009F48FDF7E7FB9F499D48FDF7D9FB6868C0
:102EF0000CF024F8009402460B469948FDF7DAFBE3
:102F000098499748FDF7CCFBA8680CF017F8009497
:102F100002460B469248FDF7CDFB8E499048FDF7DF
:102F2000BFFB8E499048FDF7BBFB28680CF006F804
:102F3000009402460B468C48FDF7BCFB89498A4841
:102F4000FDF7AEFB68680BF0F9FF009402460B46F4
:102F50008548FDF7AFFB83498348FDF7A1FBA868CF
:102F60000BF0ECFF009402460B467F48FDF7A2FBF6
:102F70007D487849FDF794FB339B012B57D17B4D5E
:102F80007B497748FDF78CFB28680BF0D7FF0624B8
:102F900002460B4600947248FDF78CFB714970485D
:102FA000FDF77EFB68680BF0C9FF009402460B46F4
:102FB0006B48FDF77FFB6B496948FDF771FBA8681B
:102FC0000BF0BCFF009402460B466548FDF772FB10
:102FD00060496348FDF764FB65496348FDF760FBA2
:102FE00028680BF0ABFF009402460B465E48FDF7E5
:102FF00061FB5C495C48FDF753FB68680BF09EFF82
:10300000009402460B465848FDF754FB5549564874
:10301000FDF746FBA8680BF091FF009402460B46B3
:103020005148FDF747FB50484A49FDF739FB349BAF
:10303000012B57D14F4D50494948FDF731FB2868C6
:103040000BF07CFF062402460B4600944448FDF733
:1030500031FB44494248FDF723FB68680BF06EFFE3
:10306000009402460B463E48FDF724FB3D493C4890
:10307000FDF716FBA8680BF061FF009402460B46B3
:103080003748FDF717FB33493548FDF709FB3A4947
:103090003548FDF705FB28680BF050FF0094024609
:1030A0000B463148FDF706FB2E492F48FDF7F8FA8D
:1030B00068680BF043FF009402460B462A48FDF770
:1030C000F9FA28492848FDF7EBFAA8680BF036FF13
:1030D000009402460B462448FDF7ECFA22481D49AD
:1030E000FDF7DEFA359B012B70D1244D24491C4895
:1030F000FDF7D6FA28680BF021FF062402460B469E
:1031000000941748FDF7D6FA16491548FDF7C8FA96
:1031100068680BF013FF009402460B461048FDF759
:10312000C9FA10490E48FDF7BBFAA8680BF006FF74
:10313000009402460B460A48FDF7BCFA05490848C8
:10314000FDF7AEFA0E490848FDF7AAFA28680BF019
:10315000F5FE17E0A4460100DC90FF1FC33A010012
:1031600084A2FF1FE9440100A8A2FF1FE890FF1FEF
:10317000D53A0100F490FF1FE73A01000091FF1FCC
:10318000F93A0100009402460B463F48FDF792FAD7
:103190003E493D48FDF784FA68680BF0CFFE009485
:1031A00002460B463848FDF785FA38493648FDF7A0
:1031B00077FAA8680BF0C2FE009402460B4632482C
:1031C000FDF778FA30483249FDF76AFA369B012B51
:1031D00057D1304D30493148FDF762FA28680BF07D
:1031E000ADFE062402460B4600942C48FDF762FA19
:1031F00026492A48FDF754FA68680BF09FFE0094B0
:1032000002460B462548FDF755FA20492348FDF7AD
:1032100047FAA8680BF092FE009402460B461F483E
:10322000FDF748FA1A491D48FDF73AFA1A491648B7
:10323000FDF736FA28680BF081FE009402460B4633
:103240001148FDF737FA11490F48FDF729FA686868
:103250000BF074FE009402460B460B48FDF72AFA69
:103260000A490948FDF71CFAA8680BF067FE0094AC
:1032700002460B460448FDF71DFA03480449FDF7D2
:103280000FFABDE8FC8100BFA8A2FF1FE9440100BE
:10329000A44601001898FF1F0B3B010084A2FF1FEA
:1032A0007FB5244B1A680192019D1A6802920C4660
:1032B000029A1E461DE007211F480AF09FFB32209C
:1032C0000AF022F833680393039B5B1BA34210DDD3
:1032D0001A491B48FDF7E4F918491A48FDF7E0F9C7
:1032E00019491748FDF7DCF917491648FDF7D8F9D1
:1032F00014E00AF0ABFB0028DDD00FE001340A2C0B
:1033000009DD01E00AF0B0FB0AF0A0FB0028F9D1CA
:1033100000240E4D07E0322009F0F6FF0AF096FB7C
:103320000628EBDDF4E70AF09FFB28550134072C53
:10333000F9D17FBDF0A1FF1F008AFF1F1D3B0100D7
:1033400084A2FF1FA8A2FF1FE94401008490FF1F71
:1033500008B5C278007900EB02200CF02BFA034B81
:1033600019680CF07FFA0CF069FC08BDFC89FF1F9E
:1033700038B54FF4FA610C480C4DFFF791FF0C483B
:10338000FFF7E6FF0446642009F0BEFF094B18680A
:10339000B4FBF0F00CF00EFA014628680CF05AF974
:1033A0002860204638BD00BF008AFF1F3C99FF1FE0
:1033B0008490FF1FE489FF1F012801D8FFF7D8BFC1
:1033C0007047FFFFFFFFFFFF2DE9F74F7C4E3046B0
:1033D00006F02CFE0BF0A0FD044630460D4606F02C
:1033E0001FFE0BF099FD62A3D3E900230BF0FAFD59
:1033F0000022744B0BF020FF0022724B0BF01CFFDD
:10340000002206460F46204629466F4B0BF0EAFD88
:1034100059A3D3E900230BF033FC59A3D3E90023CC
:1034200082468B460BF02AFC57A3D3E900230446BF
:103430000D460BF0D7FD0022644B0BF021FC54A38A
:10344000D3E9002380468946204629460BF0CAFD71
:1034500022462B460BF0C6FD02460B464046494627
:103460000BF00EFC5A4B8046186889460BF066FD3F
:1034700002460B46404649460BF0B4FD46A3D3E94D
:1034800000230BF0D9FE0022CDE900014D4B304660
:1034900039460BF0D1FE42A3D3E90023804689468A
:1034A000204629460BF09EFD3FA3D3E900230BF0F5
:1034B000E5FB3FA3D3E9002306460F4620462946F5
:1034C0000BF090FD22462B460BF08CFD02460B467E
:1034D000304639460BF0D4FB02460B46404649467F
:1034E0000BF0CCFB524604460D465B46504659460F
:1034F0000BF078FD52465B460BF074FD52465B467E
:103500000BF070FD2CA3D3E9002306460F4620469E
:1035100029460BF067FD22462B460BF063FD024661
:103520000B46204629460BF0ABFB1BA3D3E9002337
:1035300004460D46DDE900010BF07EFE02460B4617
:10354000204629460BF078FE02460B4630463946A7
:103550000BF096FB0BF048FA0BF046FA06A3D3E902
:1035600000230BF08BFB03B0BDE8F08FAFF30080BE
:10357000000000000088634066666666661271405F
:103580006666666666A2724079E9263108AC5C3FE1
:10359000E446D3D15898F1BE00000000D012634138
:1035A000E43C73414320A3BE4DB1B49D00D4FE3E24
:1035B00075466524BDE2333ECDCCCCCCCCCC2A4084
:1035C0000498FF1F00408F400000A03F0000F03F24
:1035D000F089FF1FAFF3008070B5FFF7F5FE0BF029
:1035E000E3FF04461E4806F029FD4FF47A6009F017
:1035F0008BFE20461B4901260CF0F0FA00B900268C
:10360000F6B24EB92046184901250CF0C9FA00B9A6
:10361000354615F0FF0F13D0144B154C15491648BD
:103620001C60FDF73DF813491448FDF739F81449BB
:103630001148FDF735F812491048FDF731F80DE053
:10364000104B0A4D18680CF0B9F8014620460CF0F2
:10365000BDF9014628680BF0FDFF2860204670BDCB
:103660000498FF1F00007A44000070C24499FF1FB5
:103670000000C6C23B3B010084A2FF1FA8A2FF1F9F
:10368000E9440100E489FF1F012801D8FFF7A4BF26
:10369000704708B501E009F0F5F909F039FA00289A
:1036A000F9DC01E009F0D0F809F0C0F80028F9DCF5
:1036B00008BDFFFFF7B54EF66020FDF795FC044608
:1036C0000D46B648B649FCF7EBFFB549B548FCF7DF
:1036D000E7FF20462946002200230BF0EBFE0028DE
:1036E00040F03D820226009622462B46AB48FCF76E
:1036F000E1FF22462B460096AA48FCF7DBFFAA49C9
:10370000A648FCF7CDFFA849A648FCF7C9FF09F079
:10371000B9F909F0B7F9A54BA04820221A60802218
:103720001A600AF02DFBA2499C48FCF7B9FF002162
:103730009A48FCF7D8FF99489E49FCF7CAFF002633
:1037400040F6FE77B2B200219B4807F069F8314697
:103750009248FCF7A9FF94499048FCF7A1FF32205A
:1037600009F0D2FD30460BF0D7FB22462B460BF07A
:1037700087FA0BF0D1FEB8420646E3DD8F4B87484F
:1037800080221A600AF0FCFA89498448FCF788FF15
:1037900001218248FCF7A7FF80488949FCF799FF7F
:1037A000002640F6FE77B2B20121834807F038F8D0
:1037B00031467A48FCF778FF7B497848FCF770FF80
:1037C000322009F0A1FD30460BF0A6FB22462B4625
:1037D0000BF056FA0BF0A0FEB8420646E3DD774B3D
:1037E0006E4820221A60012243F8042C802243F8FC
:1037F000042C0AF0C5FA6E496848FCF751FF002115
:103800006648FCF770FF65486E49FCF762FF0026CA
:1038100040F6FE77B2B20021674807F001F8314662
:103820005E48FCF741FF60495C48FCF739FF3220F5
:1038300009F06AFD30460BF06FFB22462B460BF079
:103840001FFA0BF069FEB8420646E3DD5B4B5348B6
:1038500080221A600AF094FA55495048FCF720FF7C
:1038600001214E48FCF73FFF4C485749FCF731FF18
:10387000002640F6FE77B2B201214F4806F0D0FF95
:1038800031464648FCF710FF47494448FCF708FF1B
:10389000322009F039FD30460BF03EFB22462B4624
:1038A0000BF0EEF90BF038FEB8420646E3DD434B71
:1038B0003A48012202261A6043F8046C0AF060FAC2
:1038C0003B493648FCF7ECFE31463448FCF70BFF29
:1038D00032483E49FCF7FDFE002640F6FE77B2B2C4
:1038E0000221354806F09CFF31462C48FCF7DCFEEF
:1038F0002D492A48FCF7D4FE322009F005FD304658
:103900000BF00AFB22462B460BF0BAF90BF004FE33
:10391000B8420646E3DD294B2048102202261E60ED
:1039200043F8442C0AF02CFA21491C48FCF7B8FE55
:1039300031461A48FCF7D7FE18482549FCF7C9FE5E
:10394000002640F6FE77B2B202211B4806F068FF5F
:1039500031461248FCF7A8FE13491048FCF7A0FEB8
:10396000322009F0D1FC30460BF0D6FA22462B4625
:103970000BF086F90BF0D0FDB8420646E3DD154B9F
:103980000648102201261A6043F8046C0AF0F8F980
:1039900007490248FCF784FE31461DE084A2FF1F60
:1039A000663B0100A8A2FF1FE9440100C4F00F40DC
:1039B000743B0100833B0100089BFF1FC8F00F40D0
:1039C000A43B0100C63B0100E73B0100093C0100AC
:1039D0001D3C010088F00F406A48FCF784FE6948EE
:1039E0006949FCF776FE002640F6FE77B2B2032165
:1039F000664806F015FF31466248FCF755FE6449FB
:103A00006048FCF74DFE322009F07EFC30460BF09A
:103A100083FA22462B460BF033F90BF07DFDB842BA
:103A20000646E3DD5B4B574801261E6043F8446CB5
:103A30000AF0A6F958495348FCF732FE314651487E
:103A4000FCF751FE4F485549FCF743FE002640F66F
:103A5000FE77B2B203214D4806F0E2FE31464948F6
:103A6000FCF722FE4A494748FCF71AFE322009F0CB
:103A70004BFC30460BF050FA22462B460BF000F977
:103A80000BF04AFDB8420646E3DD454B3D48402277
:103A900001261E60DA630AF073F93F493948FCF7E2
:103AA000FFFD31463748FCF71EFE36483D49FCF71E
:103AB00010FE002640F6FE77B2B20321334806F02E
:103AC000AFFE31462F48FCF7EFFD31492D48FCF79A
:103AD000E7FD322009F018FC30460BF01DFA2246B3
:103AE0002B460BF0CDF80BF017FDB8420646E3DD90
:103AF000284B244840221A60802243F8042C0AF004
:103B00003FF925491F48FCF7CBFD01211D48FCF773
:103B1000EAFD1C482449FCF7DCFD002640F6FE7750
:103B2000B2B20321194806F07BFE31461548FCF776
:103B3000BBFD17491348FCF7B3FD322009F0E4FB45
:103B400030460BF0E9F922462B460BF099F80BF0C2
:103B5000E3FCB8420646E3DD0E4B80221A60FFF715
:103B600098FD12490748FCF7B4FD11490548FCF7D8
:103B7000B0FD0E490F48FCF7ACFD0D490D48FCF7B0
:103B8000A8FDFEBD84A2FF1F313C0100089BFF1F62
:103B9000E944010088F00F40743B0100433C010000
:103BA00048F00F40553C0100673C01004C360100D5
:103BB000823B0100A8A2FF1F70B58EB008F044FE42
:103BC000061E24DD642009F09FFB002401AD66552C
:103BD00008F03AFE0134262C0646F7D1124E002496
:103BE000284631688DF82A4025220DF085F8C0B1AD
:103BF0000E490F48FCF754FD31680D48FCF769FD8C
:103C00000C490B48FCF74CFD0948294605E00A49D8
:103C10000748FCF75EFD06480849FCF75AFD0020FE
:103C200000E001200EB070BDEC89FF1F793C01005F
:103C300084A2FF1F9C3C0100BF3C0100F53C010039
:103C400030B54949494885B0FCF72AFD46494848FE
:103C5000FCF726FD002268464EF66021FDF710F9BC
:103C60004EF66020FDF7C0F904460D460D200121F7
:103C700009F036FA294620460BF04EFC430803F1C2
:103C8000376303F5D833B3FBF0F008F057FC01219C
:103C90000D2009F0F9F94FF47A7009F035FB354938
:103CA0003348FCF7FDFC4FF47A7009F02DFB3249E4
:103CB0002F48FCF7F5FC4FF47A7009F025FB2F49EB
:103CC0002A48FCF7EDFC40F2D2412848FCF70BFDF6
:103CD0002B492748FCF7E4FC40F2D2412448FCF78A
:103CE000E3FC4FF47A7009F00FFB26491F48FCF7FC
:103CF000D7FC69461D48FCF7E2FC23491C48FCF749
:103D0000CFFC69461A480AF01AF84FF47A7009F0A5
:103D1000FBFA1E491548FCF7DCFC1D491448FCF76A
:103D2000BFFC4FF47A7009F0EFFAFFF745FF18B1C6
:103D30000E481849FCF7CDFC0D20002109F0A4F92C
:103D400015490A48FCF7C5FC13490948FCF7C1FCB2
:103D500006480AF015F806480AF012F868460AF014
:103D600045FA05B030BD00BF1D3D010084A2FF1F14
:103D7000A8A2FF1F2C3D01002F3D01003A3D01008C
:103D8000493D0100503D01005F3D0100673D0100DC
:103D90007C3D0100853D01004C36010014282DE9D1
:103DA000F04105460E4614461F4601D002281BD19D
:103DB0002146404806F0AAFA002821463D4803DD86
:103DC00006F0A4FA3C4B46E006F0A0FA002802DB1D
:103DD0000020BDE8F081002EFADD384600210BF00E
:103DE000FDFE002845D1F3E7A0F10B03012B0BD911
:103DF000A0F10F08B8F1010F8CBF4FF000084FF091
:103E00000108B8F1000F17D021462C4806F07EFAC1
:103E100000282146294803DD06F078FA284B1AE0ED
:103E200006F074FA0028D3DA002ED1DD38460021DE
:103E30000BF0D4FE50BBCBE720F004050A2DC7D110
:103E40001146204806F062FA002821461D4804DD8C
:103E500006F05CFA1C4B186029E006F057FA0028BF
:103E6000B6DA002EB4DD384600210BF0B7FED8B923
:103E7000AEE738460BF0BCFE01462846FDF716F9C2
:103E80006423704390FBF3F60B4B0BE038460BF0CA
:103E9000AFFE01462846FDF709F96423704390FB05
:103EA000F3F6074B1E6002E0074BC3F800800120C9
:103EB000BDE8F081A490FF1FB097FF1F0C91FF1F7A
:103EC0009490FF1FE09AFF1F1C91FF1F2DE9D8411E
:103ED000142804460E461F46069A01D0022818D11F
:103EE000002A00DD12E0002E54DD384600210BF0E0
:103EF00075FE00284ED038460BF07AFE014620466B
:103F0000FDF7D4F86423704390FBF3F224480021BA
:103F10002FE0A0F10B03012B0BD9A0F10F08B8F192
:103F2000010F8CBF4FF000084FF00108B8F1000FEF
:103F300017D0002A00DD11E0002E2BDD38460021CD
:103F40000BF04CFE30B338460BF052FE01462046D3
:103F5000FDF7ACF86423704390FBF3F210480321A3
:103F600007E020F004040A2C14D1002A03DD0C48D9
:103F7000022192B209E000290FDD384600210BF042
:103F80002DFE58B106480221424606F049FC0120A8
:103F9000BDE8D8810020BDE8D8814046BDE8D88181
:103FA000089BFF1F10B5084C0520214609F014F8A6
:103FB0000320214609F010F819204FF4F471BDE8F0
:103FC000104009F009B800BF6CDC02002DE9F8438D
:103FD000274C8146884620461D21174606F01AFFC9
:103FE00000212046FCF796FB204600214FF47A7210
:103FF00007F00DF84023013BFDD11D21072220468B
:1040000006F0F4FF204606F059FC204606F056FC68
:104010000546204606F052FC4FF47A7640EA052029
:1040200010FB06F34FF4804593FBF5F3C9F800301D
:10403000204606F043FC8146204606F03FFC40EA5D
:10404000092010FB06F393FBF5F3C8F80030204677
:1040500006F034FC8046204606F030FC40EA08209A
:1040600010FB06F696FBF5F53D60BDE8F88300BF52
:10407000949DFF1F10B50D4C1D21204606F0CAFE71
:104080000D212046FCF746FB2046002106F0CDFF1F
:104090004023013BFDD11D210122204606F0A6FF51
:1040A000204606F00BFCC0B210BD00BF949DFF1F60
:1040B00008B52A200021FCF733FA0E200021FCF776
:1040C0002FFA2A200121FCF72BFAFFF7D3FF5A28F9
:1040D00014BF4FF0FF30002008BDFFFF10B50F4C9C
:1040E0000E21204606F096FE07212046FCF712FB23
:1040F000204601214FF47A7206F089FF4023013BEC
:10410000FDD10E210122204606F070FF022009F0A9
:10411000FBF8204606F0D2FBC0B210BD949DFF1FF5
:1041200008B5012009F0F0F80E21104806F072FEE3
:1041300010210E48FCF7EEFA29210C48FCF7EAFAA8
:10414000A0210A48FCF7E6FA01214FF47A720748E9
:1041500006F05DFF012009F0D7F8FFF7BFFFC42884
:1041600014BF4FF0FF30002008BD00BF949DFF1F1B
:104170002DE9F04180460F462F480E21164606F0E5
:1041800049FE01212C48FCF7C5FA01214FF47A724F
:10419000294806F03CFF4023013BFDD126480E2173
:1041A000062206F023FF0023336023483B60C8F853
:1041B000003006F079FB20B11F4806F07FFBC5B246
:1041C00000E005461C4806F06FFB20B11A4806F0D7
:1041D00075FBC4B200E0044644EA05231BB2C8F8EC
:1041E0000030154806F060FB18B1134806F066FB76
:1041F000C5B2114806F058FB18B10F4806F05EFB37
:10420000C4B244EA05231BB23B600B4806F04CFBEA
:1042100018B1094806F052FBC5B2074806F044FB46
:1042200018B1054806F04AFBC4B244EA052424B29A
:104230003460BDE8F08100BF949DFF1F38B5144C79
:1042400005465A21204606F0E5FD236820461B68F6
:104250000DB1062100E00721984700210C4806F027
:10426000E4FE5A2102220A4806F0C9FE084806F078
:1042700025FB0446064806F021FB0546044806F0E7
:10428000D8FEE4B205F07F0004EB002038BD00BF8B
:10429000949DFF1FFFFFFFFF70B5194E85233370FC
:1042A0000446052009F030F82046FFF7C7FF0AF062
:1042B00033FE0DA3D3E900230AF094FE0CA3D3E947
:1042C00000230AF0DBFC0B2304460D463370052067
:1042D00009F01AF808A3D3E90023204629460AF07A
:1042E000CDFC0BF061F970BD7B14AE47E17A943FD1
:1042F0007B14AE47E17A843F66666666661271405B
:1043000001600640AFF300802DE9F047814D4FF486
:1043100080742E461920002108F0B6FE2B685B0140
:1043200001D0013BFDD11920012108F0ADFE336819
:104330005B0101D0013BFDD1013CEBD119202146AD
:1043400008F0A2FE734A13685B01144601D0013BDA
:10435000FDD11920012108F097FE1A20002108F054
:1043600093FE23685B0101D0013BFDD119200021A0
:1043700008F08AFE674A13685B01144601D0013BCE
:10438000FDD11920012108F07FFE1A20012108F03B
:104390007BFE23685A0101D0013AFDD15E4A5D4C93
:1043A00012684FF47A775743DB0097FBF3F7002549
:1043B000264646E008F068FE23685B0101D0013B19
:1043C000FDD11920012108F05FFE23685B0101D0B7
:1043D000013BFDD11920002108F056FE33685B0136
:1043E00001D0013BFDD11920012108F04DFE2368C9
:1043F0005B0101D0013BFDD11920002108F044FEF2
:104400003268520101D0013AFDD11920012108F092
:104410003BFE2268520101D0013AFDD11920002152
:1044200008F032FE3268520101D0013AFDD1192064
:10443000012108F029FE2268520101D0013AFDD184
:10444000013519200021BD42B4DB08F01DFE314BBF
:104450001B685B0101D0013BFDD11920012108F04F
:1044600013FE1A20002108F00FFE2A4A13685B0190
:10447000144601D0013BFDD11920002108F004FEB3
:1044800023685B0101D0013BFDD11920012108F017
:10449000FBFD1A20012108F0F7FD1E4B1B685B0194
:1044A00001D0013BFDD11D4B1A4CDFF87C9000225E
:1044B0001A604FF4807725461920002108F0E4FDAA
:1044C00023685B0101D0013BFDD11920012108F0D7
:1044D000DBFD2B685B0101D0013BFDD119200021E0
:1044E00008F0D2FDD9F80030DFF830800C4EEBB97F
:1044F0002220D8F800A009F07BF8D8F80030094A4B
:1045000026F81A0052F8231036F81300411842F822
:10451000231015E0F489FF1F6C89FF1F1891FF1FFE
:10452000789BFF1F9491FF1F5099FF1F222009F0D5
:104530005FF8D8F8003036F81320101826F813006A
:104540002B4B1A6801321A602A4B22681B689A4268
:1045500004DDD31A5B0101D0013BFDD119200121FB
:1045600008F092FD2B685B0101D0013BFDD11920C1
:10457000002108F089FD23685B0101D0013BFDD1DA
:104580001920012108F080FD2B685B0101D0013B5F
:10459000FDD11920002108F077FD23685B0101D0CF
:1045A000013BFDD11920012108F06EFD2B685B0154
:1045B00001D0013BFDD1013F7FF47EAF0E4D4FF4A2
:1045C00080742E461920002108F05EFD2B685B01E7
:1045D00001D0013BFDD11920012108F055FD3368C0
:1045E0005B0101D0013BFDD1013CEBD1BDE8F0877F
:1045F0001891FF1FF889FF1FF489FF1F38B515496F
:104600001548164DFCF74CF815481249FCF748F8C8
:10461000002469881048FCF747F8114835F8021F54
:10462000FCF742F8FF2C07D02C210B48FCF733F89D
:104630000B482C21FCF72FF80134B4F5807FE8D12A
:1046400008490548FCF745F806490548FCF741F8D4
:1046500038BD00BF9C3D010084A2FF1F769BFF1F59
:10466000A8A2FF1F8546010070B506460D4600242E
:10467000A119044805F098FC28550134042CF7D101
:10468000204670BD889DFF1F70B506460D4600246C
:10469000A1192A5D0348013405F089FC042CF7D1E7
:1046A000204670BD889DFF1F2DE9F34102ADDFF864
:1046B000308045F8041D06461746002430460BF0AE
:1046C0007DF8014654F808000BF060FA18B1E019C3
:1046D0002946FFF7D9FF0434682CEFD1BDE8FC81EF
:1046E0007889FF1F2DE9F34102ADDFF8308045F8EE
:1046F000041D06461746002430460BF05FF80146BD
:1047000054F808000BF042FA18B1E0192946FFF7F7
:10471000BBFF0434682CEFD1BDE8FC817889FF1F12
:104720007FB540F2836007F009FF42F21070002469
:1047300009F068F803254FF4FA7008F0E5FD224609
:10474000234621468DE830005448554E06F0BAF90C
:10475000544841F2883106F045F85348534905F072
:104760007FFF5148524905F04BFF21464E4805F066
:1047700040FF4D4805F0D8FF1D20012108F0B0FC96
:104780002146284608F0ACFC0F20012108F0A8FCC7
:104790001020012108F0A4FC0B20012108F0A0FC4E
:1047A0000C20012108F09CFC1420012108F098FC49
:1047B0000121022008F094FC0E20012108F090FC59
:1047C0000A20012108F08CFC0520012108F088FC5A
:1047D000384B80221A600620012108F081FC152048
:1047E000012108F07DFC1620012108F079FC112040
:1047F000214608F075FC304B40221A6002233360DA
:104800000D20012108F06CFC2220214608F068FCF4
:104810002320214608F064FC2846284908F0DCFBE8
:104820000520264908F0D8FB1720012108F058FC84
:10483000042333601C20012108F052FC1A200121BE
:1048400008F04EFC1920012108F04AFC21461C20EA
:1048500008F01AFC1A20012108F016FC1920012189
:1048600008F012FC1C20012108F00EFC04A9002312
:10487000134C41F8083D1020FFF7F6FE0298214640
:104880000BF084F928B904A9102041F8044DFFF772
:10489000FBFEFFF745FCFFF70BFC7FBD949DFF1F60
:1048A00084F00F40089BFF1F0898FF1F000048433B
:1048B00000002F44C4F00F40C8F00F406CDC020031
:1048C0006666E63E70B506460D460024A11904480A
:1048D00005F06AFB28550134082CF7D1204670BD3D
:1048E000889DFF1FFFFFFFFF2DE9F041664E6749DE
:1048F000674D86B007466748FBF7D2FE30680AF07E
:104900001DFB022402460B4600946248FBF7D2FED0
:1049100061496048FBF7DDFE4FF003085F495D48E1
:10492000FBF7BEFE56A3D3E90023CDF8008059481B
:10493000FBF7C0FE58495748FBF7CBFE584955488E
:10494000FBF7AEFE28680AF0F9FA009402460B461F
:104950005048FBF7AFFE50494E48FBF7BAFE4B49B3
:104960005048FBF79DFE30680AF0E8FA00940246D2
:104970000B464C48FBF79EFE47494A48FBF7A9FE09
:1049800046494848FBF78CFE3DA3D3E90023CDF808
:1049900000804448FBF78EFE3F494248FBF799FEF2
:1049A0003F494048FBF77CFE28680AF0C7FA0094AC
:1049B00002460B463B48FBF77DFE37493948FBF77B
:1049C00088FE39494FF4B460FFF77CFF374902A8ED
:1049D00009F04DFC012202A833492346FCF7DAFB1B
:1049E00002A809F003FC012F44D14EF66020FCF729
:1049F000FBFA0AF0D9FD30600AF0A0FA00940246F2
:104A00000B462448FBF779FE30680AF097FA0094C9
:104A100002460B462348FBF770FE306824490BF032
:104A2000B5F838BB31460C20FFF72EFE4EF660205D
:104A3000FCF7DAFA0AF0B8FD28600AF07FFA009471
:104A400002460B461348FBF758FE28680AF076FA30
:104A5000009402460B461348FBF74FFE28681449A2
:104A60000BF094F830B914202946FFF70DFE002012
:104A7000FFF73AFF012008F047FC06B0BDE8F081DF
:104A8000CDCCCCCCCCCCDC3F6C9BFF1FA93D010036
:104A9000109AFF1F84A2FF1FE9440100B73D0100E7
:104AA000CB3D0100A8A2FF1F7089FF1FDF3D010061
:104AB000000080BFAFF30080F8B507460E46002423
:104AC00041F21055E119325D0348013405F06FFAE7
:104AD000AC42F7D12046F8BD889DFF1F00B5ADF56B
:104AE000A85D85B010B9FBF7ADFD09E0002168466F
:104AF00041F210520BF046FD3C206946FFF7DCFF07
:104B000045B00DF5A05D00BD70B506460D4600240C
:104B1000A119044805F048FA28550134682CF7D14A
:104B2000204670BD889DFF1F70B506460D460024C7
:104B3000A119044805F038FA285501340C2CF7D196
:104B4000204670BD889DFF1F1FB50446CD4900203B
:104B5000FFF78AFD0420CC49FFF786FD0820CB49EA
:104B6000FFF782FD0C20CA49FFF77EFD1420C949DA
:104B7000FFF77AFD1820C849FFF776FD1C20C749CA
:104B8000FFF772FD2020C649FFF76EFD2420C549BE
:104B9000FFF76AFD2820C449FFF794FE3C20C34973
:104BA000FFF7B2FFB420C249FFF7AEFFC1494FF48F
:104BB0009670FFF7A9FFC0494FF4D270FFF7A4FF2A
:104BC000BE494FF40770FFF79FFFBD494FF42570B2
:104BD000FFF79AFFBB494FF45C70FFF795FFBA49A6
:104BE0004FF47A70FFF790FFB8494FF48C60FFF7ED
:104BF0008BFFB7494FF49B60FFF786FFB5494FF431
:104C0000AA60FFF75FFEB4494FF4AB60FFF75AFEAE
:104C1000B2494FF4AC60FFF755FEB1494FF4AD60B7
:104C2000FFF750FEAF494FF4AE60FFF74BFEAE49C1
:104C30004FF4AF60FFF746FEAC494FF4B060FFF7AA
:104C400041FEAB494FF4B160FFF73CFEA9494FF478
:104C5000B260FFF737FEA8494FF4B360FFF732FEAA
:104C6000A6494FF4B460FFF72DFEA5494FF4B56097
:104C7000FFF728FEA3494FF4B660FFF723FEA249D1
:104C80004FF4B760FFF71EFEA0494FF4DC60FFF75A
:104C900019FE9F494FF4B860FFF714FE9D494FF489
:104CA000B960FFF70FFE9C494FF4BA60FFF70AFEA8
:104CB0009A494FF4BB60FFF705FE99494FF4BC6079
:104CC000FFF700FE97494FF4BD60FFF7FBFD9649E3
:104CD0004FF4BE60FFF7F6FD94494FF4BF60FFF755
:104CE000F1FD93494FF4C060FFF7ECFD91494FF49B
:104CF000C160FFF7E7FD90494FF4C260FFF7E2FDA6
:104D00008E494FF4C360FFF7DDFD8D494FF4C46059
:104D1000FFF7D8FD8B494FF4C560FFF7D3FD8A49F3
:104D20004FF4C660FFF7CEFD88494FF4C760FFF728
:104D3000C9FD87494FF4C860FFF7C4FD85494FF4AA
:104D4000C960FFF7BFFD84494FF4CA60FFF7BAFDA1
:104D500082494FF4CB60FFF7B5FD81494FF4CC6039
:104D6000FFF7B0FD7F494FF4CD60FFF7ABFD7E4903
:104D70004FF4CE60FFF7A6FD7C494FF4CF60FFF7FC
:104D8000A1FD7B494FF4D060FFF79CFD79494FF4BA
:104D9000D160FFF797FD78494FF4D260FFF792FD9D
:104DA00076494FF4D360FFF78DFD75494FF4D46019
:104DB000FFF788FD73494FF4D560FFF783FD724913
:104DC0004FF4D660FFF77EFD70494FF4D760FFF7D0
:104DD000ABFE6F4940F2C460FFF7A6FE6D494FF489
:104DE000DA60FFF7A1FE6C4940F2DC60FFF79CFE41
:104DF0004FF4DD606949FFF797FE012C40F0C48451
:104E000067496848FBF74CFC65496748FBF748FC75
:104E10002046FCF7CBFA634808F0B2FF624808F07E
:104E2000AFFF2046FBF7C6FF6049684609F01FFA4E
:104E300000225F496846FCF723FA684609F0D6F974
:104E40005C49684609F013FA002218496846FCF7E5
:104E500017FA684609F0CAF95749684609F007FA8F
:104E6000002213496846FCF70BFA684609F0BEF9C0
:104E70005249684609F0FBF900220E496846FCF7E2
:104E8000FFF99DE0F089FF1F6889FF1FAC97FF1FA6
:104E90006C9BFF1F109AFF1F2091FF1F049AFF1F9A
:104EA0002491FF1F089AFF1FB09AFF1F6C98FF1FE5
:104EB0009C99FF1FD498FF1F2C9AFF1F2C91FF1F56
:104EC0009495FF1F0496FF1F7496FF1FDC96FF1F2B
:104ED0004497FF1FB89AFF1FC49AFF1F7499FF1FC2
:104EE000CC9AFF1FD49AFF1F8C90FF1FE89AFF1FD8
:104EF0009890FF1F9499FF1FB497FF1F7089FF1FA1
:104F0000BC97FF1FC497FF1FCC97FF1FD497FF1FAD
:104F1000DC97FF1FE497FF1FEC97FF1FF497FF1F1D
:104F2000FC97FF1F5499FF1F5C99FF1F6499FF1F97
:104F30006C99FF1F209AFF1F7C99FF1F8499FF1F08
:104F4000949AFF1FA09AFF1F8C99FF1FF09AFF1FD2
:104F5000F89AFF1F009BFF1F6C96FF1F3C9BFF1FD3
:104F6000449BFF1F4C9BFF1F549BFF1F5C9BFF1F1D
:104F7000649BFF1FA89AFF1FB490FF1FBC90FF1FE8
:104F8000C490FF1FCC90FF1FD490FF1FDC90FF1F29
:104F9000E890FF1FF490FF1F0091FF1F1898FF1F5C
:104FA0005537010084A2FF1FA8A2FF1FEA3D0100A0
:104FB0007889FF1FF33D0100053E0100163E010008
:104FC000684609F013F9B749684609F050F900221C
:104FD000B5496846FCF754F9684609F007F9B34942
:104FE000684609F044F90022B1496846FCF748F9DF
:104FF000684609F0FBF8AF49684609F038F9002225
:10500000AD496846FCF73CF9684609F0EFF8AB4952
:10501000684609F02CF90022A9496846FCF730F9E6
:10502000684609F0E3F8A749684609F020F900222C
:10503000A5496846FCF724F9684609F0D7F8A34962
:10504000684609F014F90022A1496846FCF718F9EE
:10505000684609F0CBF89F49684609F008F9002234
:105060009D496846FCF70CF9684609F0BFF89B4972
:10507000684609F0FCF80022022399496846FCF7CB
:1050800089F8684609F0B2F89649684609F0EFF8E1
:105090000022022394496846FCF77CF8684609F030
:1050A000A5F89249684609F0E2F8022300229049E7
:1050B0006846FCF76FF8684609F098F88D4968462D
:1050C00009F0D5F800228C4902236846FCF762F803
:1050D000684609F08BF88949684609F0C8F800224B
:1050E000022387496846FCF755F8684609F07EF8C0
:1050F0008449684609F0BBF80022022382496846C9
:10510000FCF748F8684609F071F88049684609F0EC
:10511000AEF8002202237E496846FCF73BF8684659
:1051200009F064F87B49684609F0A1F800220223DF
:1051300079496846FCF72EF8684609F057F8774930
:10514000684609F094F80022022375496846FCF786
:1051500021F8684609F04AF87249684609F087F86C
:105160000022022370496846FCF714F8684609F0EB
:105170003DF86E49684609F07AF8002202236C492E
:105180006846FCF707F8684609F030F86949684650
:1051900009F06DF80022022367496846FBF7FAFF21
:1051A000684609F023F86549684609F060F800226E
:1051B000022363496846FBF7EDFF684609F016F8DD
:1051C0006049684609F053F8002202235E496846A8
:1051D000FBF7E0FF684609F009F85C49684609F00A
:1051E00046F8002202235A496846FBF7D3FF684677
:1051F00008F0FCFF5749684609F039F800220223FD
:1052000055496846FBF7C6FF684608F0EFFF53496B
:10521000684609F02CF80022514902236846FBF742
:10522000B9FF684608F0E2FF4E49684609F01FF8EA
:10523000002202234C496846FBF7ACFF684608F0A1
:10524000D5FF4A49684609F012F80022022348496E
:105250006846FBF79FFF684608F0C8FF4549684667
:1052600009F005F80022022343496846FBF792FF44
:10527000684608F0BBFF4149684608F0F8FF002285
:1052800002233F496846FBF785FF684608F0AEFFFA
:105290003C49684608F0EBFF002202233A49684681
:1052A00074E000BF303E01002C9AFF1F493E010010
:1052B0002C91FF1F643E01009495FF1F7E3E01006C
:1052C0000496FF1F913E01007496FF1FA43E01004B
:1052D000DC96FF1FB73E01004497FF1F57410100B6
:1052E000B09AFF1F64410100B89AFF1F714101008D
:1052F000C49AFF1F7E4101007499FF1F8B4101007A
:10530000CC9AFF1F98410100D49AFF1FA5410100CC
:105310008C90FF1FB2410100E89AFF1FBF410100BE
:105320009890FF1FCC4101009499FF1FD9410100C3
:10533000B497FF1FE7410100BC97FF1FF541010033
:10534000C497FF1F03420100CC97FF1F11420100C9
:10535000D497FF1F1F420100DC97FF1F2D42010061
:10536000E497FF1F3B420100EC97FF1F49420100F9
:10537000F497FF1F57420100FC97FF1F6542010091
:105380005499FF1F734201005C99FF1FFBF702FF56
:10539000684608F02BFFB749684608F068FF00220E
:1053A0000223B5496846FBF7F5FE684608F01EFF84
:1053B000B249684608F05BFF00220223B049684604
:1053C000FBF7E8FE684608F011FFAE49684608F0B2
:1053D0004EFF00220223AC496846FBF7DBFE68461D
:1053E00008F004FFA949684608F041FF00220223A3
:1053F000A7496846FBF7CEFE684608F0F7FEA549C8
:10540000684608F034FF00220223A3496846FBF7F0
:10541000C1FE684608F0EAFEA049684608F027FF8A
:10542000002202239E496846FBF7B4FE684608F056
:10543000DDFE9C49684608F01AFF002202239A49C3
:105440006846FBF7A7FE684608F0D0FE9749684615
:1054500008F00DFF0022022395496846FBF79AFEEB
:10546000684608F0C3FE9349684608F000FF002232
:10547000022391496846FBF78DFE684608F0B6FEA8
:105480008E49684608F0F3FE002202238C496846E4
:10549000FBF780FE684608F0A9FE8A49684608F0D6
:1054A000E6FE0022022388496846FBF773FE684641
:1054B00008F09CFE8549684608F0D9FE00220223C8
:1054C00083496846FBF766FE684608F08FFE81490F
:1054D000684608F0CCFE002202237F496846FBF7AD
:1054E00059FE684608F082FE7C49684608F0BFFE17
:1054F000022300227A496846FBF74CFE684608F012
:1055000075FE7849684608F0B2FE0022764902230B
:105510006846FBF73FFE684608F068FE7349684638
:1055200008F0A5FE0022022371496846FBF732FE0F
:10553000684608F05BFE6F49684608F098FE002256
:1055400002236D496846FBF725FE684608F04EFECB
:105550006A49684608F08BFE0022022368496846C3
:10556000FBF718FE684608F041FE6649684608F0F9
:105570007EFE0022022364496846FBF70BFE684664
:1055800008F034FE6149684608F071FE00220223EB
:105590005F496846FBF7FEFD684608F027FE5D4957
:1055A000684608F064FE002202235B496846FBF768
:1055B000F1FD684608F01AFE5849684608F057FEA3
:1055C0000022022356496846FBF7E4FD684608F0CE
:1055D0000DFE5449684608F04AFE00220223524953
:1055E0006846FBF7D7FD684608F000FE4F4968465D
:1055F00008F03DFE002202234D496846FBF7CAFD34
:10560000684608F0F3FD4B49684608F030FE00227A
:10561000032349496846FBF7BDFD684608F0E6FDEF
:105620004649684608F023FE0022032344496846A1
:10563000FBF7B0FD684608F0D9FD4249684608F01E
:1056400016FE0022032340496846FBF7A3FD684687
:1056500008F0CCFD3D49684608F009FE00223C49AF
:1056600003236846FBF796FD684608F0BFFD3949FD
:10567000684671E0814201006499FF1F8F4201007A
:105680006C99FF1F9D420100209AFF1FAB42010051
:105690007C99FF1FB94201008499FF1FC742010096
:1056A000949AFF1FD5420100A09AFF1FE342010018
:1056B0008C99FF1FF1420100F09AFF1FFF42010089
:1056C000F89AFF1F0D430100009BFF1F1B430100C1
:1056D0006C96FF1F294301003C9BFF1F37430100CD
:1056E000449BFF1F454301004C9BFF1F5343010098
:1056F000549BFF1F614301005C9BFF1F6F43010030
:10570000649BFF1F7D430100A89AFF1F8B4301008C
:10571000B490FF1F99430100BC90FF1FA7430100F5
:10572000C490FF1FB5430100CC90FF1FC34301008D
:10573000D490FF1FD1430100DC90FF1FDF43010025
:10574000E890FF1FED430100F490FF1FFB430100B1
:105750000091FF1F0944010008F089FD0022032386
:105760000A496846FBF716FD684608F03FFD084900
:10577000684608F07CFD6846064922460223FBF78E
:1057800009FD684608F032FD1FBD00BF1898FF1FD5
:10579000DF3D01007089FF1F2DE9F34101204EF626
:1057A0006028FFF7D1F94046FBF71EFC09F0FCFE2C
:1057B000224F234E386009F0C1FB062402460B46F7
:1057C00000943046FAF776FF38681E4D09F0B6FBB4
:1057D000009402460B462846FAF76CFF394604202F
:1057E000FEF752FF4046FBF7FFFB09F0DDFE164FC8
:1057F000386009F0A3FB009402460B463046FAF7E6
:1058000059FF386809F09AFB009402460B460F4C8A
:105810002846FAF74FFF39460820FEF735FF2146A4
:105820003046FAF756FF28462146FAF752FF012084
:1058300002B0BDE8F041FFF787B900BF6889FF1FDC
:1058400084A2FF1FA8A2FF1FAC97FF1FCA3E010042
:105850002DE9F3414EF660270120FFF775F9384630
:10586000FBF7C2FB09F0A0FEDFF804813D4EC8F84B
:10587000000009F063FB022402460B460094304608
:10588000FAF718FFD8F80000374D09F057FB0094DD
:1058900002460B462846FAF70DFF41461820FEF750
:1058A000F3FE3846FBF7A0FB09F07EFEDFF8C4806C
:1058B000C8F8000009F042FB009402460B4630464F
:1058C000FAF7F8FED8F8000009F038FB0094024619
:1058D0000B462846FAF7EEFE41461C20FEF7D4FEA2
:1058E0003846FBF781FB09F05FFEDFF88C80C8F8D3
:1058F000000009F023FB009402460B463046FAF7FD
:10590000D9FED8F8000009F019FB009402460B46B6
:105910002846FAF7CFFE41462020FEF7B5FE38466E
:10592000FBF762FB09F040FE104F386009F006FB00
:10593000009402460B463046FAF7BCFE386809F080
:10594000FDFA009402460B462846FAF7B3FE2420DF
:105950003946FEF799FE012002B0BDE8F041FFF79D
:10596000F3B800BF84A2FF1FA8A2FF1F089AFF1F61
:105970002091FF1F049AFF1F2491FF1F2DE9F04F74
:10598000012B85B005460F46904605D00024DFF870
:10599000E8A0DFF8E8B060E01846FFF7D5F800248B
:1059A00006261DE04EF66020FBF71EFB09F0FCFD0D
:1059B000039009F0C3FA009602460B462B48FAF70B
:1059C00079FE039809F0BAFA009602460B46284879
:1059D000FAF770FE284603A9FEF756FE0134454447
:1059E000BC42DFDB3CE04EF66020FBF7FDFA09F03D
:1059F000DBFD002106460AF0F1F838B130461D49BA
:105A00000AF0CEF810B1CDF80CB008E03046002115
:105A10000AF0C6F808B9039601E0CDF80CA0039887
:105A200009F08CFA4FF0060904AE02460B46CDF899
:105A300000900E48FAF73EFE56F8040D09F07EFA83
:105A4000CDF8009002460B460948FAF733FE284687
:105A50003146FEF719FE01344544BC42C3DB02E087
:105A60000120FFF771F805B0BDE8F08F84A2FF1F99
:105A7000A8A2FF1F00409C4520BCBE4C0060EA4726
:105A80002DE9F34780460120FFF75EF84EF66020CF
:105A9000FBF7AAFA09F040FD064631462B48FAF713
:105AA00022FE2B483146FAF71EFE731C47D04EF6F5
:105AB0006020FBF799FA09F077FD814609F03EFA7C
:105AC000062704460D460B46224600971F48FAF764
:105AD00014FE00971E4822462B46FAF70EFE484653
