:1000000000800020BD01000029EC0000EDEB0000A5
:10001000EDEB0000EDEB0000EDEB0000EDEB000080
:10002000EDEB0000EDEB0000EDEB000029EC000033
:1000300029EC0000EDEB000029EC0000DDEB0000F6
:1000400029EC000029EC000029EC000029EC00005C
:1000500029EC000029EC000029EC000029EC00004C
:1000600029EC000029EC000029EC000029EC00003C
:1000700029EC000029EC000029EC000029EC00002C
:1000800029EC000029EC000029EC000029EC00001C
:1000900029EC000029EC000029EC000029EC00000C
:1000A000B1DC0000C1DC000029EC000029EC0000FC
:1000B00029EC000029EC000029EC000029EC0000EC
:1000C00029EC000029EC000029EC000029EC0000DC
:1000D00029EC000029EC000029EC000029EC0000CC
:1000E00029EC000029EC000029EC000029EC0000BC
:1000F00029EC000045FA000029EC00005D1F01001A
:1001000029EC000065FF000029EC000029EC00004C
:1001100029EC000029EC000029EC000029EC00008B
:1001200029EC000029EC000029EC000029EC00007B
:1001300029EC000029EC000029EC000029EC00006B
:1001400029EC000029EC000029EC000029EC00005B
:100150001D110100351101004D1101006511010053
:1001600029EC00001902010029EC000029EC000034
:1001700029EC000029EC000029EC000029EC00002B
:1001800029EC000029EC000029EC000029EC00001B
:1001900029EC000029EC000029EC000029EC00000B
:1001A00029EC000029EC000029EC000029EC0000FB
:1001B00029EC000029EC000029EC0000574B4CF220
:1001C000205210B51A804DF628121A8000BF00BFC9
:1001D0000EF02EFD524B4FF010621A60514A9A6099
:1001E000514ADA60A3F53043203B1A6812F480725A
:1001F00004D14E490A604FF4A8521A604C4B1A7849
:10020000110703D51A7842F008021A70494B4A4C7C
:100210004A482A221A704A4A00239918A14203D256
:10022000195899500433F8E7464B474900228B424E
:1002300002D243F8042BFAE74448454900235A58B0
:100240001A500433B3F5DE7FF9D1424B424A802184
:1002500003F8011B9342FBD1404B3C4A1A60404BD0
:100260000A221A70A3F5805324225A70A0221A7011
:100270009A799207FCD59A79D406FCD4394A9379B5
:1002800003F00C03082B374BF9D103221A714022DB
:100290005A719A799006FCD5324A9179314B4906C8
:1002A000FBD5314A314911600221516020221A7078
:1002B0009A7902F00C020C2AFAD12D4B2D4A1A60C1
:1002C0002D4B2E4A1A6000225A60072243F8042C54
:1002D0002B4AC3F80C2D62B60FF0E2F8134B1B68E3
:1002E000DA0705D527480EF09BFE274B274A1A60F0
:1002F000274B1B785B0609D5234C244A236893427D
:1003000004D120480EF08CFE0023236014F080F806
:100310000EF094FC11F09AFAFEE700BF0E200540A3
:1003200030800440823F04000100002B14D00340C1
:1003300002D0074000E007400096FF1FD491010063
:100340006087FF1F0096FF1F90ACFF1F0082FF1FFA
:100350000000000000E400E05FE400E008ED00E0E1
:100360000050064000400640448004400000030165
:1003700004800440C010050014E000E0FF76010096
:10038000000020206EFC3E571CE00340A5C3945A99
:1003900000F00740FFFFFFFFFFFFFFFFFFFFFFFF32
:1003A000FFFFFFFFFFFFFFFFFFFFFFFFFFFFFFFF5D
:1003B000FFFFFFFFFFFFFFFFFFFFFFFFFFFFFFFF4D
:1003C000FFFFFFFFFFFFFFFFFFFFFFFFFFFFFFFF3D
:1003D000FFFFFFFFFFFFFFFFFFFFFFFFFFFFFFFF2D
:1003E000FFFFFFFFFFFFFFFFFFFFFFFFFFFFFFFF1D
:1003F000FFFFFFFFFFFFFFFFFFFFFFFFFFFFFFFF0D
:10040000FFFFFFFFFFFFFFFFFFFFFFFFFEFFFFFFFD
:1004100010B5054C237833B9044B13B10448AFF33E
:1004200000800123237010BD0096FF1F0000000014
:10043000D491010008B5064B1BB106480649AFF33D
:1004400000800648036813B1054B03B1984708BD07
:1004500000000000D49101000496FF1F0096FF1FCA
:100460000000000001707047F0B583B006460D46ED
:10047000184C204631780CF0FBFD204629460CF044
:10048000EBF82169627B00250095204601230DF0E1
:10049000C9F8204631780CF0EBFD2069617B327899
:1004A00001260096019502230DF0D0F820690DF089
:1004B000EBF887B220690DF0E7F83F02BFB20743BF
:1004C0002169627B0095204633460DF0ABF8B8B247
:1004D00003B0F0BDC0A8FF1F08B50121FFF7C4FF9E
:1004E00040F38D0008BD00BF08B5FFF7F5FF13F01E
:1004F00087F80022014B13F0E9F808BD0000A03F87
:1005000008B50021FFF7B0FF00B208BD704700BF7B
:1005100010B442EA01221723074C22FA03F111F02A
:10052000010F18BF62406408013B072BF5D1D0B220
:100530005DF8044B704700BF00809800F0B583B0B1
:1005400007462C4C204640210CF092FD23681B6886
:100550002046F52198472169627B002500952046B9
:1005600001230DF05FF837200EF084FF2069617BD6
:10057000012300930195402203230DF067F86524C1
:100580001C4D012604E030460EF074FF013C2CD0D7
:100590002869D0F83811D0F834218A1A022AF2DDFD
:1005A0000DF072F80646134C20690DF06DF8054603
:1005B00020690DF069F8F4B2EDB245EA0424C2B244
:1005C00038462146FFF7A4FF88B94FF6FC7020405B
:1005D00013F064FC4FF05E5113F0B8FC064913F0C1
:1005E000B5FC064913F0A8FB02E0054800E0054809
:1005F00003B0F0BDC0A8FF1F0000FA420000C040D9
:100600000080794400C07944F0B583B007462C4C93
:10061000204640210CF02CFD23681B682046F32166
:1006200098472169627B00250095204601230CF044
:10063000F9FF37200EF01EFF2069617B0123009334
:100640000195402203230DF001F865241C4D01267D
:1006500004E030460EF00EFF013C2CD02869D0F8A3
:100660003811D0F834218A1A022AF2DD0DF00CF884
:100670000646134C20690DF007F8054620690DF079
:1006800003F8F4B2EDB245EA0424C2B2384621467A
:10069000FFF73EFF88B94FF6FC70204013F0FEFBD9
:1006A0004FF05E5113F052FC064913F04FFC06491F
:1006B00013F042FB02E0054800E0054803B0F0BD3E
:1006C000C0A8FF1F52B82F4366663B4200807944A2
:1006D00000C079441022064B1A60064B1A78064B6C
:1006E00053F83220012382F88030044A13607047A7
:1006F000C8F00F40A0A8FF1F488B01008C97FF1F78
:10070000054B1A78054B53F83220012382F800314B
:10071000034A1360704700BFA0A8FF1F488B010069
:100720009CA6FF1F10B5044610F0ECFD204610BD3E
:10073000F0B583B004460D4617460D4B1869597B3A
:10074000012300930023019322462B460CF07EFFE9
:100750005DB17C1E6E1E57FA86F6054D28690CF0B9
:1007600093FF04F8010FB442F8D103B0F0BD00BF0D
:10077000C0A8FF1F38B505460C46084614F036FDE4
:1007800002462B685B6828462146984738BD00BF63
:1007900038B505460C46084614F028FD02462B687D
:1007A0005B6828462146984738BD00BF38B50446E7
:1007B0000D46084614F01AFD024623685B68204681
:1007C000294698470546204610F0CCFD284438BD00
:1007D00070B54024114B1C600A200EF04BFE104BEC
:1007E0001C60104D2B68104E5B6828463146122263
:1007F0009847284610F0B6FD0C4C23685B682046ED
:10080000314612229847204610F0ACFD284610F0E1
:10081000A9FD204610F0A6FD70BD00BFC4F00F403A
:10082000C8F00F40B4ABFF1F587701006CABFF1F3F
:1008300038B528480368284C5B682146142298473D
:10084000264803685B68214614229847244B1B689E
:10085000DBB9204C2368234D5B68204629460622DD
:100860009847204610F07EFD1C4C23685B682046AC
:10087000294606229847204610F074FD02221A4BA2
:100880001A600122164B1A601CE0012B1AD1114C80
:100890002368164D5B682046294605229847204666
:1008A00010F060FD0D4C23685B6820462946052248
:1008B0009847204610F056FD02220D4B1A60002288
:1008C000074B1A60034810F04DFD044810F04AFD34
:1008D00038BD00BFB4ABFF1F6C7701006CABFF1FCE
:1008E000B8A3FF1F6477010084F00F4084770100F4
:1008F00088F00F402DE9F04F83B05A48002140F6B0
:10090000FF720BF023FC0423574A13602024224675
:10091000013A7FF4FDAF554A136011200EF032F812
:100920000546534B1C600A200EF0A4FD11200EF06A
:1009300029F883466E200EF09DFD11200EF022F85E
:1009400081464C4B1C604C4F3B684C4C5B683846B6
:100950002146102298474A4E33685B68304621464C
:1009600010229847284613F09DFA464913F0A2FB3F
:1009700012F058FE04460D464FF00208CDF80080F4
:10098000384622460B4610F043FDCDF80080304635
:1009900022462B4610F03CFD3B68DFF8F0A05B6878
:1009A000384651460122984733685B6830465146C5
:1009B00001229847584613F075FA324913F07AFB32
:1009C00012F030FE04460D46CDF80080384622462F
:1009D0000B4610F01DFDCDF80080304622462B4618
:1009E00010F016FD3B685B68384651460122984777
:1009F00033685B683046514601229847484613F0F9
:100A000051FA204913F056FB12F00CFE04460D4635
:100A1000CDF80080384622460B4610F0F9FCCDF8A0
:100A20000080304622462B4610F0F2FC3B68164C04
:100A30005B683846214642469847384610F092FC9B
:100A400033685B683046214642469847304610F08E
:100A500089FC384610F086FC304610F083FC03B069
:100A6000BDE8F08F30A6FF1F88F00F4084F00F40E4
:100A7000C4F00F40C8F00F40B4ABFF1F8C770100EB
:100A80006CABFF1F00601345A4770100A077010045
:100A90002DE9F04F85B08346039191461F46109D86
:100AA0000EA800210BF096FB002840F32A81964CFB
:100AB0002368DFF870825B68204641460122984730
:100AC0002046294610F028FC2368904E5B6820469B
:100AD0003146042298478E4C23685B682046414685
:100AE000012298472046294610F016FC23685B68CF
:100AF00020463146042298474846002113F0BAFBAD
:100B000028B10027DFF80092DFF81CA2E4E0484695
:100B100012F088FD04460D46022600967A482246C9
:100B20000B4610F075FC0096794822462B4610F0D3
:100B30006FFC039B1868002113F09CFB002840F019
:100B4000D380714EDFF8CC8130464146FFF712FE6C
:100B5000384612F067FD04460D46022700973046DE
:100B600022460B4610F054FC694E30464146FFF7D2
:100B700001FE0097304622462B4610F049FCB3E0B8
:100B8000D9F800305B6848465146012298470EA8C4
:100B900039460BF01FFB0146484610F02FFCD9F8F0
:100BA00000305C4D5B684846294601229847584C06
:100BB00023685B6820465146012298470EA83946B3
:100BC0000BF008FB0146204610F018FC23685B6818
:100BD00020462946012298474F4D4FF000084446D1
:100BE00055F8046F0EA839460BF0F4FA13F05AF9D1
:100BF0000146304613F03EFB00284FD05BF828003A
:100C000012F010FD02460B4602240094484610F0F4
:100C1000FFFB5BF8280012F005FD02460B4600942E
:100C20003B4810F0F5FB039B1868002113F022FBF2
:100C300028BBD9F80030374D5B6848462946012269
:100C40009847039B53F8280012F0ECFC02460B4631
:100C500026460094484610F0DBFB2D4C23685B6869
:100C60002046294601229847039B53F8280012F09A
:100C7000D9FC02460B460096204610F0C9FBD9F875
:100C80000030264C5B6848462146012298472048A0
:100C900003685B6821460122984703E00134A046BF
:100CA0001A2C9DD101200EF0E5FB0F9B0BB1DB68E8
:100CB00000E00023013B9F420DD0D9F80030154CD5
:100CC0005B684846214601229847114803685B68E3
:100CD00021460122984701370F9B0BB1DB6800E0EA
:100CE00000239F42FFF64CAF074803680C4C5B683B
:100CF000214602229847064803685B682146022283
:100D0000984705B0BDE8F08FB4ABFF1F987701009E
:100D10006CABFF1FA07701007087FF1FB089010037
:100D2000BC7701004C7D0100B8770100F8B52820A0
:100D300000210EF063FA0F4C204628210A220023DE
:100D400010F020FB204610F00DFB64242827094DED
:100D50004FF4FA6638460DF015FE0146284610F0AD
:100D60004DFB284610F0FEFA30460EF083FB013CA6
:100D7000F0D1F8BDB4ABFF1F2DE9F8430C200EF005
:100D80005FF9282001210EF039FA2F4E2F4F3546FA
:100D90004CE0484621460EF053FA03200EF06AFB61
:100DA0001A200DF0EFFD80462846214610F026FB64
:100DB00033685B68284639460122984728464146F1
:100DC00010F01CFB33685B682846394601229847BF
:100DD000284610F0C7FA013440F2DC539C42D8D1C7
:100DE0004FF02809484621460EF02AFA03200EF05B
:100DF00041FB1A200DF0C6FD80462846214610F022
:100E0000FDFA33685B682846394601229847284630
:100E1000414610F0F3FA33685B68284639460122F0
:100E20009847284610F09EFA013CDBD10FF04EFEA9
:100E300018B900244FF02809ABE70FF0FBFD0FF0C5
:100E4000F9FDBDE8F88300BFB4ABFF1FA077010038
:100E500038B5012812D80A48FFF770FB0446094D3F
:100E6000094B186813F01EF80146204613F022F9CA
:100E7000296812F063FF2860204638BD002038BD85
:100E800044A3FF1F8496FF1FE087FF1F38B501288A
:100E900012D80A48FFF7B8FB0446094D094B1868F9
:100EA00013F000F80146204613F004F9296812F007
:100EB00045FF2860204638BD002038BD44A3FF1FF1
:100EC0001C97FF1FE087FF1F70B505463F4C20466B
:100ED0000BF0E8F812F0E2FF3D4B186020460BF0F3
:100EE000EBF812F0DBFF3B4B186020460BF0EEF8FE
:100EF00012F0D4FF384B186020460BF0F1F812F0D6
:100F0000CDFF0446354B1860002D2CD1344B1868AA
:100F100012F0C8FF0546334E2D4B1868294613F0D2
:100F2000C9F8316812F00AFF30602F4E294B18685B
:100F3000294613F0BFF8316812F000FF30602B4EE5
:100F4000254B1868294613F0B5F8316812F0F6FE03
:100F50003060274E2046294613F0ACF8316812F075
:100F6000EDFE30602DE0012D2BD11D4B186812F0E5
:100F700099FF05461F4E164B1868294613F09AF83C
:100F8000316812F0DBFE30601B4E124B18682946A8
:100F900013F090F8316812F0D1FE3060174E0E4B0E
:100FA0001868294613F086F8316812F0C7FE3060E1
:100FB000134E2046294613F07DF8316812F0BEFE2C
:100FC0003060034B186813F087F970BD689EFF1FEF
:100FD0008CA2FF1F00A6FF1FF4A5FF1F0C97FF1F89
:100FE000E087FF1F649CFF1F48A3FF1F7C97FF1F24
:100FF000A4A8FF1F3CA3FF1FB0A3FF1FB4A3FF1FA4
:10100000609CFF1F2DE9F04F83B0074660B945484B
:101010000368454C5B6821460122984743480368B2
:101020005B682146012298473E4C2368DFF808B1EF
:101030005B68204659460E229847DFF800A1DAF88F
:10104000000012F0EFFA02460B46022500952046FA
:1010500010F0DEF92368DFF8E8905B682046494627
:10106000012298472368DFF8DC805B682046414610
:10107000142298472E4E306812F0D4FA02460B46DE
:101080000095204610F0C4F9284C23685B68204680
:1010900059460E229847DAF8000012F0C3FA0246C9
:1010A0000B460095204610F0B3F923685B68204694
:1010B00049460122984723685B682046414614222E
:1010C0009847306812F0AEFA02460B46009520466B
:1010D00010F09EF9012F0CD1124803685B68494655
:1010E00001229847114803685B68494601229847E6
:1010F00014E00C4C23680F4D5B6820462946012202
:101100009847204610F02EF9084C23685B6820466B
:10111000294601229847204610F024F903B0BDE883
:10112000F08F00BFB4ABFF1F647801006CABFF1FF2
:10113000109EFF1F88770100687801006887FF1FF5
:10114000A0770100787801002DE9F041ADF57A7DB6
:1011500080460D4614462B4810F016FA2A482946B8
:1011600010F012FA684600214FF47A7213F084FCF2
:101170004046002110F07AFA244B1F681B68234E6A
:10118000234D0CE0012C0AD13068C01B12F08AFEFE
:10119000296813F097F810B1FFF71AFB06E00FF07B
:1011A00095FC18B90EF0C4FB0028EBD00FF08EFCB4
:1011B00000280FDD0FF06AFC5B281ED011482B21A0
:1011C0006A464FF47A7310F0E1F94046694610F030
:1011D00087FA12E00EF0ACFB00280EDD0EF0F2FBF9
:1011E0005B280AD008482B216A464FF47A7310F026
:1011F000CDF94046694610F073FA40460DF57A7D08
:10120000BDE8F081B4ABFF1F6CABFF1F64A9FF1FEB
:101210006C87FF1F70B58CB004462848214610F03B
:10122000B3F92748214610F0AFF900210491059148
:1012300006910791089109910A910B91684610F067
:1012400015FA204B1E681B681E4D03E02B689B1B84
:101250009C4206DB0FF03AFC18B90EF069FB00283F
:10126000F4D00EF065FB00280EDD15482B2104AAF2
:10127000202310F08BF9684604A910F031FA009889
:1012800013F07AF8044613E00FF020FC00280EDD7E
:101290000A482B2104AA202310F078F9684604A9F3
:1012A00010F01EFA009813F067F8044600E00024DE
:1012B000684610F08FF920460CB070BDB4ABFF1F2C
:1012C0006CABFF1F64A9FF1F70B58CB004462A48A1
:1012D000214610F059F92948214610F055F900210E
:1012E0000491059106910791089109910A910B913A
:1012F000684610F0BBF9224B1E681B68204D03E0C6
:101300002B689B1B9C4206DB0FF0E0FB18B90EF02C
:101310000FFB0028F4D00FF0D9FB00280FDD164892
:101320002B2104AA202310F031F9684604A910F0FB
:10133000D7F9009813F01CF804460D4615E00EF09E
:10134000F7FA00280FDD0D482B2104AA202310F006
:101350001DF9684604A910F0C3F9009813F008F8C5
:1013600004460D4601E000240025684610F032F9DD
:10137000204629460CB070BDB4ABFF1F6CABFF1FFD
:1013800064A9FF1F08B5044B196812F0D5FC034B84
:10139000196812F08FFE08BD109EFF1F6887FF1F9F
:1013A000F8B50F4612F07EFD0646234B186831460D
:1013B00012F060FF40B9204D012455F8040F31466A
:1013C00012F058FFF8B100E000241C4B53F82450F1
:1013D0002846002112F0BAFD0146284612F0AEFC64
:1013E0000546174B53F824402046002112F0AEFD6D
:1013F0000146204612F0A2FC04462846002112F0C5
:1014000039FF48B103E001341A2CD6D10EE0204652
:10141000002112F02FFF58B9384612F043FD214643
:1014200012F08AFC294612F045FE02E0002000E09E
:10143000002012F051FFF8BD7487FF1F409DFF1F71
:10144000A89DFF1F2DE9F04F83B0074688469346BD
:101450009946544C2368544D5B6820462946012226
:101460009847204639460FF057FF23684F4E5B6878
:1014700020463146032298474D4C23685B6820463E
:10148000294601229847204639460FF045FF236838
:101490005B682046314603229847B9F1000F2FDDE3
:1014A000454600243F4F424EDFF80CA1286812F059
:1014B000B9F802460B464FF00608CDF800803846D2
:1014C0000FF0A6FF55F8040B12F0ACF802460B46DD
:1014D000CDF8008030460FF09BFF09F1FF33A342A7
:1014E0000BD03B685B683846514601229847336809
:1014F0005B68304651460122984701344C45D5D1AE
:10150000284803682B4C5B682146012298472848ED
:1015100003685B68214601229847BBF1010F15D093
:10152000204C2368244D5B682046294601229847B9
:1015300020460FF017FF1E4C23685B6820462946A3
:101540000122984720460FF00DFF27E0154C236835
:101550001A4E5B68204631460122984720460FF01C
:1015600001FF2368164D5B682046294600229847F4
:1015700020460FF0F7FE0E4C23685B68204631468C
:101580000122984720460FF0EDFE23685B68204655
:1015900029460022984720460FF0E4FE03B0BDE83C
:1015A000F08F00BFB4ABFF1F4C7D0100908901009C
:1015B0006CABFF1FB0890100A077010088770100A4
:1015C000807701002DE9F047074689469246984604
:1015D0004C4C23684C4D5B682046294601229847B5
:1015E000204639460FF098FE2368484E5B68204637
:1015F000314603229847464C23685B6820462946BB
:1016000001229847204639460FF086FE23685B6822
:101610002046314603229847B8F1000F21DD4D46A0
:101620000024384F3A4EDFF8F090384629880FF002
:10163000E5FE304635F8021B0FF0E0FE08F1FF33FF
:10164000A3420BD03B685B68384649460122984765
:1016500033685B6830464946012298470134444567
:10166000E3D1284803682B4C5B6821460122984748
:10167000274803685B68214601229847BAF1010FA9
:1016800016D0204C2368244D5B6820462946012251
:10169000984720460FF066FE1D4C23685B68204685
:1016A00029460122984720460FF05CFEBDE8F087EE
:1016B000144C2368194E5B68204631460122984736
:1016C00020460FF04FFE2368154D5B6820462946E3
:1016D0000022984720460FF045FE0D4C23685B68BA
:1016E000204631460122984720460FF03BFE2368F2
:1016F0005B68204629460022984720460FF032FEBC
:10170000BDE8F087B4ABFF1F4C7D0100908901005C
:101710006CABFF1FB0890100A07701008877010042
:10172000807701002DE9F04F83B080460F46924646
:10173000594E3368DFF87C915B6830464946012298
:101740009847304641460FF0E7FD3368534D5B68DC
:101750003046294603229847514C23685B6820464F
:10176000494601229847204641460FF0D5FD23689F
:101770005B682046294603229847386811F052FFDB
:1017800002460B460225009530460FF041FE3868B0
:1017900011F048FF02460B46009520460FF038FE38
:1017A00019263D4DDFF800912B685B6828464946B5
:1017B0000122984723685B682046494601229847E2
:1017C000BB4657F8040F11F02DFF02460B464FF0B1
:1017D0000208CDF8008028460FF01AFEDBF804005E
:1017E00011F020FF02460B46CDF8008020460FF096
:1017F0000FFE013ED8D1284803682A4C5B68214679
:1018000001229847264803685B68214601229847D1
:10181000BAF1010F15D0204C2368234D5B68204698
:1018200029460122984720460FF09CFD1C4C236856
:101830005B68204629460122984720460FF092FD1A
:1018400027E0154C2368194E5B682046314601227B
:10185000984720460FF086FD2368154D5B682046AB
:1018600029460022984720460FF07CFD0C4C236847
:101870005B68204631460122984720460FF072FDF2
:1018800023685B68204629460022984720460FF0CF
:1018900069FD03B0BDE8F08FB4ABFF1F9089010074
:1018A0006CABFF1FB0890100A077010088770100B1
:1018B000807701004C7D010070B5ADF5B05D80B959
:1018C000684600214FF4B05213F0D6F800242046A9
:1018D0001DF804100DF06AF90134B4F5B05FF6D1CB
:1018E00013E06846002141F2105213F0C5F86C462F
:1018F0006E460DF5A85510350134A01B3B3014F889
:10190000011C0DF053F9AC42F6D10DF5B05D70BD80
:1019100010B512F0C7FA04460A4B196812F016FB0C
:10192000094B196812F00AFA084B18602046084B58
:10193000196812F00BFB074B196812F0FFF9064B00
:10194000186010BD8497FF1FA0A3FF1FD4A5FF1F21
:101950008897FF1FA4A3FF1FD8A5FF1F2DE9F04FF5
:1019600085B0039060B972480368724C5B68214689
:1019700001229847704803685B6821460122984716
:101980006B4C2368DFF8CCB15B68204659460B22CC
:1019900098476A4B186811F045FE02460B4602252F
:1019A000009520460FF034FD2368654E5B682046A5
:1019B0003146012298472368DFF89CA15B682046E6
:1019C0005146102298475F4B186811F02BFE0246D3
:1019D0000B46009520460FF01BFD23685B682046F0
:1019E0003146012298472368DFF870915B682046F2
:1019F00049460B229847544B186811F013FE0246D3
:101A00000B46009520460FF003FD23685B682046D7
:101A10003146012298472368DFF844815B682046FD
:101A2000414610229847494F386811F0FBFD0246A5
:101A30000B46009520460FF0EBFC3F4C23685B689B
:101A4000204659460B2298473C4B186811F0EAFD96
:101A500002460B46009520460FF0DAFC23685B68CF
:101A6000204631460122984723685B68204651464C
:101A700010229847334B186811F0D4FD02460B46EC
:101A8000009520460FF0C4FC23685B682046314671
:101A90000122984723685B68204649460B229847F5
:101AA000294B186811F0BEFD02460B4600952046F2
:101AB0000FF0AEFC23685B68204631460122984750
:101AC00023685B682046414610229847386811F029
:101AD000A9FD02460B46009520460FF099FC039B9A
:101AE000012B0CD1124803685B68314601229847EC
:101AF000114803685B6831460122984714E00C4C9A
:101B00002368134D5B6820462946012298472046EA
:101B10000FF028FC084C23685B6820462946012208
:101B2000984720460FF01EFC05B0BDE8F08F00BFBF
:101B3000B4ABFF1F647801006CABFF1F8497FF1FDD
:101B4000A0770100A0A3FF1F8897FF1FA4A3FF1F7A
:101B500088770100907801009C780100B07801003E
:101B6000BC7801002DE9F04F83B00E4615461C46A7
:101B700001284DD1B14FDFF8D8B238465946FEF7AB
:101B8000F9FDDFF8D092D9F8000011F04BFD0246C4
:101B90000B464FF00608CDF8008038460FF038FCB1
:101BA000DFF8B4A238465146FEF7E4FDD9F8040048
:101BB00011F038FD02460B46CDF8008038460FF094
:101BC00027FC38469E49FEF7D5FD9E4F38465946BC
:101BD000FEF7D0FDD9F8000011F024FD02460B46B7
:101BE000CDF8008038460FF013FC38465146FEF71A
:101BF000C1FDD9F8040011F015FD02460B46CDF8E1
:101C0000008038460FF004FC38468D49FEF7B2FDDF
:101C1000012E4AD1894EDFF844B230465946FEF7CC
:101C2000A9FDDFF83C82D8F8000011F0FBFC024669
:101C30000B460627009730460FF0EAFBDFF818A2A4
:101C400030465146FEF796FDD8F8040011F0EAFC44
:101C500002460B46009730460FF0DAFBDFF8E091C2
:101C600030464946FEF786FD764E30465946FEF729
:101C700081FDD8F8000011F0D5FC02460B46009714
:101C800030460FF0C5FB30465146FEF773FDD8F8DD
:101C9000040011F0C7FC02460B46009730460FF0D7
:101CA000B7FB30464946FEF765FD012D49D1634D2E
:101CB000DFF8B0A128465146FEF75CFDDFF8A881A9
:101CC000D8F8000011F0AEFC02460B46062600963E
:101CD00028460FF09DFBDFF8809128464946FEF725
:101CE00049FDD8F8040011F09DFC02460B46009611
:101CF00028460FF08DFB524F28463946FEF73AFD35
:101D0000504D28465146FEF735FDD8F8000011F039
:101D100089FC02460B46009628460FF079FB2846C0
:101D20004946FEF727FDD8F8040011F07BFC024677
:101D30000B46009628460FF06BFB28463946FEF707
:101D400019FD012C44D13D4CDFF820912046494635
:101D5000FEF710FD3C4E306811F064FC02460B4665
:101D60000625009520460FF053FBDFF8EC80204657
:101D70004146FEF7FFFC706811F054FC02460B462A
:101D8000009520460FF044FB2D4F20463946FEF7C4
:101D9000F1FC2C4C20464946FEF7ECFC306811F073
:101DA00041FC02460B46009520460FF031FB2046D1
:101DB0004146FEF7DFFC706811F034FC02460B462A
:101DC000009520460FF024FB20463946FEF7D2FC52
:101DD0000C9B012B62D1194CDFF8949020464946A8
:101DE000FEF7C8FC194E306811F01CFC02460B4689
:101DF0000625009520460FF00BFBDFF85C8020469F
:101E00004146FEF7B7FC706811F00CFC02460B4629
:101E1000009520460FF0FCFA094F20463946FEF7A0
:101E2000A9FC084C20464946FEF7A4FC306811F096
:101E3000F9FB02460B4600951CE000BFB4ABFF1F48
:101E4000BC7701006CABFF1F6CA3FF1F74A3FF1FC7
:101E5000D0780100E4A5FF1FA0770100E47801001D
:101E6000ECA5FF1FF8780100F8A5FF1F0C79010011
:101E70002079010020460FF0CBFA20464146FEF7BC
:101E800079FC706811F0CEFB02460B4600952046A7
:101E90000FF0BEFA20463946FEF76CFC0D9B012B75
:101EA00044D1A64CDFF8B49220464946FEF762FCC6
:101EB000A34E306811F0B6FB02460B46062500958E
:101EC00020460FF0A5FADFF8988220464146FEF73B
:101ED00051FC706811F0A6FB02460B4600952046A7
:101EE0000FF096FA974F20463946FEF743FC964C82
:101EF00020464946FEF73EFC306811F093FB02464F
:101F00000B46009520460FF083FA20464146FEF727
:101F100031FC706811F086FB02460B4600952046A6
:101F20000FF076FA20463946FEF724FC0E9B012B73
:101F300044D1824CDFF82C9220464946FEF71AFC29
:101F4000824E306811F06EFB02460B460625009566
:101F500020460FF05DFADFF8088220464146FEF782
:101F600009FC706811F05EFB02460B4600952046A6
:101F70000FF04EFA734F20463946FEF7FBFB724CCA
:101F800020464946FEF7F6FB306811F04BFB02464F
:101F90000B46009520460FF03BFA20464146FEF7DF
:101FA000E9FB706811F03EFB02460B4600952046A7
:101FB0000FF02EFA20463946FEF7DCFB0F9B012B73
:101FC00044D15E4CDFF8A09120464946FEF7D2FB93
:101FD0005F4E306811F026FB02460B460625009541
:101FE00020460FF015FADFF8788120464146FEF7CB
:101FF000C1FB706811F016FB02460B4600952046A7
:102000000FF006FA4F4F20463946FEF7B3FB4E4C11
:1020100020464946FEF7AEFB306811F003FB02464E
:102020000B46009520460FF0F3F920464146FEF797
:10203000A1FB706811F0F6FA02460B4600952046A7
:102040000FF0E6F920463946FEF794FB109B012B72
:1020500044D13A4CDFF8149120464946FEF78AFBFA
:102060003C4E306811F0DEFA02460B46062500951C
:1020700020460FF0CDF9DFF8E88020464146FEF714
:1020800079FB706811F0CEFA02460B4600952046A7
:102090000FF0BEF92B4F20463946FEF76BFB2A4C5A
:1020A00020464946FEF766FB306811F0BBFA02464F
:1020B0000B46009520460FF0ABF920464146FEF74F
:1020C00059FB706811F0AEFA02460B4600952046A7
:1020D0000FF09EF920463946FEF74CFB119B012B71
:1020E00061D1164CDFF8889020464946FEF742FB46
:1020F000194E306811F096FA02460B4606250095F7
:1021000020460FF085F9DFF8588020464146FEF75B
:1021100031FB706811F086FA02460B4600952046A6
:102120000FF076F9074F20463946FEF723FB064CA1
:1021300020464946FEF71EFB30681BE0B4ABFF1F8C
:102140007CA3FF1FBC7701006CABFF1FF496FF1F41
:10215000FC96FF1F0497FF1F94A3FF1F3479010013
:10216000A0770100487901005C79010070790100D5
:102170008479010011F056FA02460B46009520467C
:102180000FF046F920464146FEF7F4FA706811F068
:1021900049FA02460B46009520460FF039F92046D1
:1021A0003946FEF7E7FA129B012B44D1A64CDFF823
:1021B000B89220464946FEF7DDFAA44E306811F089
:1021C00031FA02460B460625009520460FF020F90D
:1021D000DFF8988220464146FEF7CCFA706811F08D
:1021E00021FA02460B46009520460FF011F9984F50
:1021F00020463946FEF7BEFA964C20464946FEF781
:10220000B9FA306811F00EFA02460B4600952046E6
:102210000FF0FEF820464146FEF7ACFA706811F068
:1022200001FA02460B46009520460FF0F1F82046D1
:102230003946FEF79FFA139B012B44D1824CDFF8FD
:10224000309220464946FEF795FA834E306811F0E9
:10225000E9F902460B460625009520460FF0D8F80E
:10226000DFF8088220464146FEF784FA706811F0D4
:10227000D9F902460B46009520460FF0C9F8744F75
:1022800020463946FEF776FA724C20464946FEF75C
:1022900071FA306811F0C6F902460B4600952046E7
:1022A0000FF0B6F820464146FEF764FA706811F068
:1022B000B9F902460B46009520460FF0A9F82046D2
:1022C0003946FEF757FA149B012B44D15E4CDFF8D8
:1022D000A49120464946FEF74DFA604E306811F051
:1022E000A1F902460B460625009520460FF090F80E
:1022F000DFF8788120464146FEF73CFA706811F01D
:1023000091F902460B46009520460FF081F8504F98
:1023100020463946FEF72EFA4E4C20464946FEF737
:1023200029FA306811F07EF902460B4600952046E6
:102330000FF06EF820464146FEF71CFA706811F067
:1023400071F902460B46009520460FF061F82046D1
:102350003946FEF70FFA159B012B44D13A4CDFF8B2
:10236000189120464946FEF705FA3D4E306811F0B7
:1023700059F902460B460625009520460FF048F80D
:10238000DFF8E88020464146FEF7F4F9706811F066
:1023900049F902460B46009520460FF039F82C4FBC
:1023A00020463946FEF7E6F92A4C20464946FEF714
:1023B000E1F9306811F036F902460B4600952046E7
:1023C0000FF026F820464146FEF7D4F9706811F068
:1023D00029F902460B46009520460FF019F82046D1
:1023E0003946FEF7C7F9169B012B62D1164CDFF870
:1023F0008C9020464946FEF7BDF91A4E306811F020
:1024000011F902460B460625009520460FF000F80C
:10241000DFF8588020464146FEF7ACF9706811F0AD
:1024200001F902460B46009520460EF0F1FF084FD9
:1024300020463946FEF79EF9064C20464946FEF7EF
:1024400099F930681CE000BFB4ABFF1F149EFF1F5A
:10245000BC7701006CABFF1F1C9EFF1F249EFF1F5B
:102460002C9EFF1F349EFF1F98790100A07701006A
:10247000AC790100C0790100D4790100E87901004C
:1024800011F0D0F802460B46009520460EF0C0FF32
:1024900020464146FEF76EF9706811F0C3F8024617
:1024A0000B46009520460EF0B3FF20463946FEF756
:1024B00061F9179B012B44D1A64CDFF8B892204656
:1024C0004946FEF757F9A44E306811F0ABF80246C2
:1024D0000B460625009520460EF09AFFDFF89882FD
:1024E00020464146FEF746F9706811F09BF8024617
:1024F0000B46009520460EF08BFF984F204639463C
:10250000FEF738F9964C20464946FEF733F9306815
:1025100011F088F802460B46009520460EF078FF31
:1025200020464146FEF726F9706811F07BF8024616
:102530000B46009520460EF06BFF20463946FEF70D
:1025400019F9189B012B44D1824CDFF830922046B8
:102550004946FEF70FF9834E306811F063F80246E2
:102560000B460625009520460EF052FFDFF8088244
:1025700020464146FEF7FEF8706811F053F8024617
:102580000B46009520460EF043FF744F2046394617
:10259000FEF7F0F8724C20464946FEF7EBF830683B
:1025A00011F040F802460B46009520460EF030FF31
:1025B00020464146FEF7DEF8706811F033F8024617
:1025C0000B46009520460EF023FF20463946FEF7C5
:1025D000D1F8199B012B44D15E4CDFF8A491204621
:1025E0004946FEF7C7F8604E306811F01BF8024606
:1025F0000B460625009520460EF00AFFDFF878818D
:1026000020464146FEF7B6F8706811F00BF8024616
:102610000B46009520460EF0FBFE504F20463946F3
:10262000FEF7A8F84E4C20464946FEF7A3F830685E
:1026300010F0F8FF02460B46009520460EF0E8FE2B
:1026400020464146FEF796F8706810F0EBFF024610
:102650000B46009520460EF0DBFE20463946FEF77D
:1026600089F81A9B012B44D13A4CDFF81891204687
:102670004946FEF77FF83D4E306810F0D3FF024622
:102680000B460625009520460EF0C2FEDFF8E880D6
:1026900020464146FEF76EF8706810F0C3FF024610
:1026A0000B46009520460EF0B3FE2C4F20463946CF
:1026B000FEF760F82A4C20464946FEF75BF8306882
:1026C00010F0B0FF02460B46009520460EF0A0FE2B
:1026D00020464146FEF74EF8706810F0A3FF024610
:1026E0000B46009520460EF093FE20463946FEF735
:1026F00041F81B9B012B62D1164CDFF88C902046D1
:102700004946FEF737F81A4E306810F08BFF024644
:102710000B460625009520460EF07AFEDFF858801D
:1027200020464146FEF726F8706810F07BFF02460F
:102730000B46009520460EF06BFE084F20463946AA
:10274000FEF718F8064C20464946FEF713F83068A5
:102750001CE000BFB4ABFF1F3C9EFF1FBC77010015
:102760006CABFF1F449EFF1F4C9EFF1F549EFF1F1C
:102770005C9EFF1FFC790100A0770100107A010028
:10278000247A0100387A01004C7A010010F04AFFE7
:1027900002460B46009520460EF03AFE2046414682
:1027A000FDF7E8FF706810F03DFF02460B4600950C
:1027B00020460EF02DFE20463946FDF7DBFF1C9B20
:1027C000012B44D1A64CDFF8B89220464946FDF7CC
:1027D000D1FFA44E306810F025FF02460B460625B7
:1027E000009520460EF014FEDFF898822046414600
:1027F000FDF7C0FF706810F015FF02460B4600950C
:1028000020460EF005FE984F20463946FDF7B2FFF0
:10281000964C20464946FDF7ADFF306810F002FFA8
:1028200002460B46009520460EF0F2FD204641463A
:10283000FDF7A0FF706810F0F5FE02460B4600950C
:1028400020460EF0E5FD20463946FDF793FF1D9B1F
:10285000012B44D1824CDFF8309220464946FDF7E7
:1028600089FF834E306810F0DDFE02460B460625D8
:10287000009520460EF0CCFDDFF808822046414648
:10288000FDF778FF706810F0CDFE02460B4600950C
:1028900020460EF0BDFD744F20463946FDF76AFF15
:1028A000724C20464946FDF765FF306810F0BAFECD
:1028B00002460B46009520460EF0AAFD20464146F2
:1028C000FDF758FF706810F0ADFE02460B4600950C
:1028D00020460EF09DFD20463946FDF74BFF1E9B1E
:1028E000012B44D15E4CDFF8A49120464946FDF708
:1028F00041FF604E306810F095FE02460B460625FB
:10290000009520460EF084FDDFF878812046414690
:10291000FDF730FF706810F085FE02460B4600950B
:1029200020460EF075FD504F20463946FDF722FF38
:102930004E4C20464946FDF71DFF306810F072FEF0
:1029400002460B46009520460EF062FD20464146A9
:10295000FDF710FF706810F065FE02460B4600950B
:1029600020460EF055FD20463946FDF703FF1F9B1C
:10297000012B44D13A4CDFF8189120464946FDF727
:10298000F9FE3D4E306810F04DFE02460B4606251E
:10299000009520460EF03CFDDFF8E88020464146D9
:1029A000FDF7E8FE706810F03DFE02460B4600950C
:1029B00020460EF02DFD2C4F20463946FDF7DAFE5D
:1029C0002A4C20464946FDF7D5FE306810F02AFE15
:1029D00002460B46009520460EF01AFD2046414661
:1029E000FDF7C8FE706810F01DFE02460B4600950C
:1029F00020460EF00DFD20463946FDF7BBFE209B1C
:102A0000012B62D1164CDFF88C9020464946FDF729
:102A1000B1FE1A4E306810F005FE02460B46062540
:102A2000009520460EF0F4FCDFF858802046414621
:102A3000FDF7A0FE706810F0F5FD02460B4600950C
:102A400020460EF0E5FC084F20463946FDF792FE81
:102A5000064C20464946FDF78DFE30681CE000BF5D
:102A6000B4ABFF1F4CA3FF1FBC7701006CABFF1F73
:102A700054A3FF1F5CA3FF1F64A3FF1F4CA5FF1FF0
:102A8000607A0100A0770100747A0100887A010061
:102A90009C7A0100B07A010010F0C4FD02460B469A
:102AA000009520460EF0B4FC20464146FDF762FE3C
:102AB000706810F0B7FD02460B46009520460EF0F8
:102AC000A7FC20463946FDF755FE219B012B44D13A
:102AD000A64CDFF8B89220464946FDF74BFEA44EBF
:102AE000306810F09FFD02460B46062500952046F3
:102AF0000EF08EFCDFF8988220464146FDF73AFE44
:102B0000706810F08FFD02460B46009520460EF0CF
:102B10007FFC984F20463946FDF72CFE964C204608
:102B20004946FDF727FE306810F07CFD02460B4653
:102B3000009520460EF06CFC20464146FDF71AFE3B
:102B4000706810F06FFD02460B46009520460EF0AF
:102B50005FFC20463946FDF70DFE229B012B44D138
:102B6000824CDFF8309220464946FDF703FE834E43
:102B7000306810F057FD02460B46062500952046AA
:102B80000EF046FCDFF8088220464146FDF7F2FDD4
:102B9000706810F047FD02460B46009520460EF087
:102BA00037FC744F20463946FDF7E4FD724C204651
:102BB0004946FDF7DFFD306810F034FD02460B4654
:102BC000009520460EF024FC20464146FDF7D2FD3C
:102BD000706810F027FD02460B46009520460EF067
:102BE00017FC20463946FDF7C5FD239B012B44D138
:102BF0005E4CDFF8A49120464946FDF7BBFD604ED0
:102C0000306810F00FFD02460B4606250095204661
:102C10000EF0FEFBDFF8788120464146FDF7AAFD65
:102C2000706810F0FFFC02460B46009520460EF03F
:102C3000EFFB504F20463946FDF79CFD4E4C204699
:102C40004946FDF797FD306810F0ECFC02460B4654
:102C5000009520460EF0DCFB20464146FDF78AFD3C
:102C6000706810F0DFFC02460B46009520460EF01F
:102C7000CFFB20463946FDF77DFD249B012B44D137
:102C80003A4CDFF8189120464946FDF773FD3D4E5A
:102C9000306810F0C7FC02460B460625009520461A
:102CA0000EF0B6FBDFF8E88020464146FDF762FDF6
:102CB000706810F0B7FC02460B46009520460EF0F7
:102CC000A7FB2C4F20463946FDF754FD2A4C2046E1
:102CD0004946FDF74FFD306810F0A4FC02460B4654
:102CE000009520460EF094FB20464146FDF742FD3C
:102CF000706810F097FC02460B46009520460EF0D7
:102D000087FB20463946FDF735FD259B012B62D117
:102D1000164CDFF88C9020464946FDF72BFD1A4EE5
:102D2000306810F07FFC02460B46062500952046D1
:102D30000EF06EFBDFF8588020464146FDF71AFD85
:102D4000706810F06FFC02460B46009520460EF0AE
:102D50005FFB084F20463946FDF70CFD064C204628
:102D60004946FDF707FD30681CE000BFB4ABFF1F0C
:102D700054A5FF1FBC7701006CABFF1FC4A5FF1F4C
:102D8000CCA5FF1F84A3FF1F8CA3FF1FC47A0100E3
:102D9000A0770100D87A0100EC7A0100007B0100E5
:102DA000147B010010F03EFC02460B4600952046C5
:102DB0000EF02EFB20464146FDF7DCFC706810F05B
:102DC00031FC02460B46009520460EF021FB2046C2
:102DD0003946FDF7CFFC269B012B44D1A64CDFF8EA
:102DE000B89220464946FDF7C5FCA44E306810F065
:102DF00019FC02460B460625009520460EF008FBFE
:102E0000DFF8988220464146FDF7B4FC706810F068
:102E100009FC02460B46009520460EF0F9FA984F41
:102E200020463946FDF7A6FC964C20464946FDF75C
:102E3000A1FC306810F0F6FB02460B4600952046D8
:102E40000EF0E6FA20464146FDF794FC706810F05B
:102E5000E9FB02460B46009520460EF0D9FA2046C3
:102E60003946FDF787FC279B012B44D1824CDFF8C4
:102E7000309220464946FDF77DFC834E306810F0C5
:102E8000D1FB02460B460625009520460EF0C0FAFF
:102E9000DFF8088220464146FDF76CFC706810F0B0
:102EA000C1FB02460B46009520460EF0B1FA744F66
:102EB00020463946FDF75EFC724C20464946FDF738
:102EC00059FC306810F0AEFB02460B4600952046D8
:102ED0000EF09EFA20464146FDF74CFC706810F05B
:102EE000A1FB02460B46009520460EF091FA2046C3
:102EF0003946FDF73FFC289B012B44D15E4CDFF89F
:102F0000A49120464946FDF735FC604E306810F02C
:102F100089FB02460B460625009520460EF078FAFE
:102F2000DFF8788120464146FDF724FC706810F0F8
:102F300079FB02460B46009520460EF069FA504F89
:102F400020463946FDF716FC4E4C20464946FDF713
:102F500011FC306810F066FB02460B4600952046D7
:102F60000EF056FA20464146FDF704FC706810F05A
:102F700059FB02460B46009520460EF049FA2046C2
:102F80003946FDF7F7FB299B012B44D13A4CDFF87A
:102F9000189120464946FDF7EDFB3D4E306810F094
:102FA00041FB02460B460625009520460EF030FAFE
:102FB000DFF8E88020464146FDF7DCFB706810F042
:102FC00031FB02460B46009520460EF021FA2C4FAD
:102FD00020463946FDF7CEFB2A4C20464946FDF7F0
:102FE000C9FB306810F01EFB02460B4600952046D8
:102FF0000EF00EFA20464146FDF7BCFB706810F05B
:1030000011FB02460B46009520460EF001FA2046C1
:103010003946FDF7AFFB2A9B012B62D1164CDFF836
:103020008C9020464946FDF7A5FB1A4E306810F0FB
:10303000F9FA02460B460625009520460EF0E8F9FF
:10304000DFF8588020464146FDF794FB706810F089
:10305000E9FA02460B46009520460EF0D9F9084FD2
:1030600020463946FDF786FB064C20464946FDF7CB
:1030700081FB30681CE000BFB4ABFF1F18A6FF1F28
:10308000BC7701006CABFF1F20A6FF1F28A6FF1F07
:10309000D09CFF1F64A6FF1F287B0100A0770100C2
:1030A0003C7B0100507B0100647B0100787B0100C8
:1030B00010F0B8FA02460B46009520460EF0A8F92B
:1030C00020464146FDF756FB706810F0ABFA024609
:1030D0000B46009520460EF09BF920463946FDF739
:1030E00049FB2B9B012B44D1A64CDFF8B89220461C
:1030F0004946FDF73FFBA44E306810F093FA0246B4
:103100000B460625009520460EF082F9DFF89882DE
:1031100020464146FDF72EFB706810F083FA024608
:103120000B46009520460EF073F9984F204639461D
:10313000FDF720FB964C20464946FDF71BFB306807
:1031400010F070FA02460B46009520460EF060F92A
:1031500020464146FDF70EFB706810F063FA024608
:103160000B46009520460EF053F920463946FDF7F0
:1031700001FB2C9B012B44D1824CDFF8309220467E
:103180004946FDF7F7FA834E306810F04BFA0246D5
:103190000B460625009520460EF03AF9DFF8088226
:1031A00020464146FDF7E6FA706810F03BFA024609
:1031B0000B46009520460EF02BF9744F20463946F9
:1031C000FDF7D8FA724C20464946FDF7D3FA30682D
:1031D00010F028FA02460B46009520460EF018F92A
:1031E00020464146FDF7C6FA706810F01BFA024609
:1031F0000B46009520460EF00BF920463946FDF7A8
:10320000B9FA2D9B012B44D15E4CDFF8A4912046E6
:103210004946FDF7AFFA604E306810F003FA0246F7
:103220000B460625009520460EF0F2F8DFF878816F
:1032300020464146FDF79EFA706810F0F3F9024609
:103240000B46009520460EF0E3F8504F20463946D5
:10325000FDF790FA4E4C20464946FDF78BFA306850
:1032600010F0E0F902460B46009520460EF0D0F82B
:1032700020464146FDF77EFA706810F0D3F9024609
:103280000B46009520460EF0C3F820463946FDF760
:1032900071FA2E9B012B44D13A4CDFF8189120464D
:1032A0004946FDF767FA3D4E306810F0BBF902461B
:1032B0000B460625009520460EF0AAF8DFF8E880B8
:1032C00020464146FDF756FA706810F0ABF9024609
:1032D0000B46009520460EF09BF82C4F20463946B1
:1032E000FDF748FA2A4C20464946FDF743FA306874
:1032F00010F098F902460B46009520460EF088F82B
:1033000020464146FDF736FA706810F08BF9024608
:103310000B46009520460EF07BF820463946FDF717
:1033200029FA2F9B012B62D1164CDFF88C90204696
:103330004946FDF71FFA1A4E306810F073F902463D
:103340000B460625009520460EF062F8DFF85880FF
:1033500020464146FDF70EFA706810F063F9024608
:103360000B46009520460EF053F8084F204639468C
:10337000FDF700FA064C20464946FDF7FBF9306898
:103380001CE000BFB4ABFF1F6CA6FF1FBC770100A1
:103390006CABFF1F74A6FF1F7CA6FF1F84A6FF1F38
:1033A0008CA6FF1F8C7B0100A0770100A07B010091
:1033B000B47B0100C87B0100DC7B010010F032F916
:1033C00002460B46009520460EF022F82046414664
:1033D000FDF7D0F9706810F025F902460B4600950C
:1033E00020460EF015F820463946FDF7C3F9309B0C
:1033F000012B44D1A64CDFF8B89220464946FDF790
:10340000B9F9A44E306810F00DF902460B460625B6
:10341000009520460DF0FCFFDFF8988220464146DB
:10342000FDF7A8F9706810F0FDF802460B4600950C
:1034300020460DF0EDFF984F20463946FDF79AF9EA
:10344000964C20464946FDF795F9306810F0EAF8A9
:1034500002460B46009520460DF0DAFF2046414615
:10346000FDF788F9706810F0DDF802460B4600950C
:1034700020460DF0CDFF20463946FDF77BF9319B04
:10348000012B44D1824CDFF8309220464946FDF7AB
:1034900071F9834E306810F0C5F802460B460625D8
:1034A000009520460DF0B4FFDFF808822046414623
:1034B000FDF760F9706810F0B5F802460B4600950C
:1034C00020460DF0A5FF744F20463946FDF752F90E
:1034D000724C20464946FDF74DF9306810F0A2F8CD
:1034E00002460B46009520460DF092FF20464146CD
:1034F000FDF740F9706810F095F802460B4600950C
:1035000020460DF085FF20463946FDF733F9329B02
:10351000012B44D15E4CDFF8A49120464946FDF7CB
:1035200029F9604E306810F07DF802460B460625FA
:10353000009520460DF06CFFDFF87881204641466B
:10354000FDF718F9706810F06DF802460B4600950B
:1035500020460DF05DFF504F20463946FDF70AF931
:103560004E4C20464946FDF705F9306810F05AF8F0
:1035700002460B46009520460DF04AFF2046414684
:10358000FDF7F8F8706810F04DF802460B4600950C
:1035900020460DF03DFF20463946FDF7EBF8339B02
:1035A000012B44D13A4CDFF8189120464946FDF7EB
:1035B000E1F83D4E306810F035F802460B4606251E
:1035C000009520460DF024FFDFF8E88020464146B4
:1035D000FDF7D0F8706810F025F802460B4600950C
:1035E00020460DF015FF2C4F20463946FDF7C2F856
:1035F0002A4C20464946FDF7BDF8306810F012F815
:1036000002460B46009520460DF002FF204641463B
:10361000FDF7B0F8706810F005F802460B4600950B
:1036200020460DF0F5FE20463946FDF7A3F8349B01
:10363000012B62D1164CDFF88C9020464946FDF7ED
:1036400099F81A4E30680FF0EDFF02460B4606253A
:10365000009520460DF0DCFEDFF8588020464146FC
:10366000FDF788F870680FF0DDFF02460B46009505
:1036700020460DF0CDFE084F20463946FDF77AF87A
:10368000064C20464946FDF775F830681CE000BF3F
:10369000B4ABFF1FDCA5FF1FBC7701006CABFF1FA5
:1036A0002097FF1F2897FF1F3097FF1F3897FF1F96
:1036B000F07B0100A0770100047C0100187C010070
:1036C0002C7C0100407C01000FF0ACFF02460B4651
:1036D000009520460DF09CFE20464146FDF74AF835
:1036E00070680FF09FFF02460B46009520460DF0D4
:1036F0008FFE20463946FDF73DF8359B012B44D11E
:10370000A54CDFF8B09220464946FDF733F8A34EAA
:1037100030680FF087FF02460B46062500952046CD
:103720000DF076FEDFF8908220464146FDF722F844
:1037300070680FF077FF02460B46009520460DF0AB
:1037400067FE974F20463946FDF714F8954C204602
:103750004946FDF70FF830680FF064FF02460B464C
:10376000009520460DF054FE20464146FDF702F834
:1037700070680FF057FF02460B46009520460DF08B
:1037800047FE20463946FCF7F5FF369B012B5ED1FC
:10379000814CDFF8289220464946FCF7EBFF824E29
:1037A00030680FF03FFF02460B4606250095204685
:1037B0000DF02EFEDFF8008220464146FCF7DAFFCE
:1037C00070680FF02FFF02460B46009520460DF063
:1037D0001FFE20464146FCF7CDFFB0680FF022FFE8
:1037E00002460B46009520460DF012FE6C4F204617
:1037F0003946FCF7BFFF6B4C20464946FCF7BAFF41
:1038000030680FF00FFF02460B46009520460DF082
:10381000FFFD20464146FCF7ADFF70680FF002FF48
:1038200002460B46009520460DF0F2FD204641462B
:10383000FCF7A0FFB0680FF0F5FE02460B460095BE
:1038400020460DF0E5FD20463946FCF793FF379BF7
:10385000012B5ED1504CDFF8689120464946FCF7B9
:1038600089FF524E30680FF0DDFE02460B460625FA
:10387000009520460DF0CCFDDFF83C812046414606
:10388000FCF778FF70680FF0CDFE02460B460095FE
:1038900020460DF0BDFD20464146FCF76BFFB068A9
:1038A0000FF0C0FE02460B46009520460DF0B0FD1D
:1038B0003B4F20463946FCF75DFF3A4C20464946CF
:1038C000FCF758FF30680FF0ADFE02460B4600953E
:1038D00020460DF09DFD20464146FCF74BFF7068E9
:1038E0000FF0A0FE02460B46009520460DF090FD1D
:1038F00020464146FCF73EFFB0680FF093FE0246BB
:103900000B46009520460DF083FD20463946FCF716
:1039100031FF389B012B77D11F4CDFF8A890204650
:103920004946FCF727FF224E30680FF07BFE024627
:103930000B460625009520460DF06AFDDFF87880DD
:1039400020464146FCF716FF70680FF06BFE0246FA
:103950000B46009520460DF05BFD20464146FCF7E6
:1039600009FFB0680FF05EFE02460B460095204648
:103970000DF04EFD0A4F20463946FCF7FBFE094C80
:1039800020464946FCF7F6FE30680FF04BFE024633
:103990000B460095204617E0B4ABFF1F4097FF1F72
:1039A000BC7701006CABFF1F4897FF1F5497FF1FA8
:1039B0006097FF1F547C0100A0770100687C010024
:1039C0007C7C0100907C01000DF022FD20464146E8
:1039D000FCF7D0FE70680FF025FE02460B460095FE
:1039E00020460DF015FD20464146FCF7C3FEB068A9
:1039F0000FF018FE02460B46009520460DF008FD1C
:103A000020463946FCF7B6FE399B012B5ED1A14C0E
:103A1000DFF8A89220464946FCF7ACFE9E4E30687F
:103A20000FF000FE02460B460625009520460DF0DD
:103A3000EFFCDFF87C8220464146FCF79BFE706875
:103A40000FF0F0FD02460B46009520460DF0E0FC1D
:103A500020464146FCF78EFEB0680FF0E3FD0246BB
:103A60000B46009520460DF0D3FC8C4F204639467E
:103A7000FCF780FE8A4C20464946FCF77BFE306806
:103A80000FF0D0FD02460B46009520460DF0C0FC1D
:103A900020464146FCF76EFE70680FF0C3FD0246FB
:103AA0000B46009520460DF0B3FC20464146FCF73E
:103AB00061FEB0680FF0B6FD02460B460095204649
:103AC0000DF0A6FC20463946FCF754FE3A9B012B2C
:103AD0005ED1704CDFF8E89120464946FCF74AFE7B
:103AE000704E30680FF09EFD02460B46062500958D
:103AF00020460DF08DFCDFF8B88120464146FCF7EA
:103B000039FE70680FF08EFD02460B460095204688
:103B10000DF07EFC20464146FCF72CFEB0680FF00D
:103B200081FD02460B46009520460DF071FC5B4F6F
:103B300020463946FCF71EFE594C20464946FCF704
:103B400019FE30680FF06EFD02460B4600952046C8
:103B50000DF05EFC20464146FCF70CFE70680FF04D
:103B600061FD02460B46009520460DF051FC2046B3
:103B70004146FCF7FFFDB0680FF054FD02460B46CE
:103B8000009520460DF044FC20463946FCF7F2FD36
:103B90003B9B012B3AD13F4E434D30462946FCF723
:103BA000E9FD3F4C20462946FCF7E4FD3F4D3046F9
:103BB00029880DF023FC204629880DF01FFC2C4697
:103BC00005F5FF793A4F364D33685B683046394624
:103BD000012298472B685B6828463946012298479E
:103BE000A046304634F8021F0DF008FC2846B8F80D
:103BF00002100DF003FC4C45E6D1284C2548214627
:103C0000FCF7B8FD26482146FCF7B4FD3C9B012B90
:103C10003CD1204E274D30462946FCF7ABFD204CC9
:103C200020462946FCF7A6FD234D304629880DF095
:103C3000E5FB204629880DF0E1FB2C4605F5FF79D0
:103C40001B4F174D33685B68304639460122984751
:103C50002B685B682846394601229847A0463046C3
:103C600034F8021F0DF0CAFB2846B8F802100DF018
:103C7000C5FB4C45E6D107480368084C5B68214604
:103C80000222984706482146FCF774FD03B0BDE8C0
:103C9000F08F00BFB4ABFF1F0CA6FF1FBC77010065
:103CA0006CABFF1F789EFF1FCC7C0100849EFF1F22
:103CB000A0770100E07C010084A0FF1FA47C01002C
:103CC000B87C01002DE9F04700AF054692464FEA67
:103CD000410808F1080323F00703ADEB030D6C4620
:103CE000002919DDE8446E464EF660294846FDF786
:103CF000EBFA0FF0ADFF26F8020B4645F6D156461B
:103D0000284621780AF052FF681C61780AF04EFFBD
:103D100002343544A045F3D1BD46BDE8F08700BF6D
:103D20002DE9F0410C462B4BD3F800801B682A4F3D
:103D30000726284D29E0384631460CF06FF832202E
:103D40000BF098FB2B68C8EB0303A3421DDD234E49
:103D50003368234F5B68304639461D229847214D12
:103D60002B685B68284639461D22984733681E4FEA
:103D70005B6830463946012298472B685B682846C5
:103D8000394601229847322512E00CF075F80028D8
:103D9000D1D0F8E701340A2C07DD01E00CF07CF803
:103DA0000CF06AF80028F9D10FE028460BF062FB0E
:103DB0000CF062F80628EDDD07E00CF06DF804F871
:103DC000010FAC42F9D1BDE8F081084D6C1E0635FB
:103DD000F3E700BF64A9FF1FF487FF1FB4ABFF1F09
:103DE000F47C01006CABFF1FA07701006C97FF1FF4
:103DF00008B5C278007900EB022010F04FF8034BB1
:103E0000196810F0A3F810F08DFA08BDF087FF1FB5
:103E100038B5012818D80D484FF4FA61FFF780FF34
:103E20000B48FFF7E5FF044664200BF023FB094D28
:103E3000094B1868B4FBF0F010F030F829680FF067
:103E40007DFF2860204638BD002038BDF487FF1F65
:103E50006C97FF1F38A3FF1FE087FF1FFFFFFFFFC7
:103E60002DE9F04F87B0824C2046FCF735FB0FF070
:103E7000C7FB06460F462046FCF742FB0FF0C0FB8F
:103E800069A3D3E900230FF021FC0022794B0FF046
:103E900047FD0022774B0FF043FD04460D463046A8
:103EA00039460022744B0FF011FC61A3D3E90023C3
:103EB0000FF05AFA82468B465FA3D3E900230FF036
:103EC00051FA804689465EA3D3E900230FF0FEFB3A
:103ED00000226A4B0FF048FA06460F464046494614
:103EE00059A3D3E900230FF0F1FB42464B460FF0F4
:103EF000EDFB02460B46304639460FF035FA0646D2
:103F00000F465F4B18680FF08DFB32463B460FF0B3
:103F1000DDFB4FA3D3E900230FF002FDCDE9000143
:103F2000204629460022534B0FF0FAFC06460F4666
:103F30004046494648A3D3E900230FF0C7FB4FF0A2
:103F40002042504B0FF00EFA04460D4640464946BB
:103F500043A3D3E900230FF0B9FB42464B460FF0D1
:103F6000B5FB02460B46204629460FF0FDF90246F6
:103F70000B46304639460FF0F5F904460D465046DB
:103F8000594652465B460FF0A1FBCDE9020152466D
:103F90005B460FF09BFB52465B460FF097FBCDE96B
:103FA00004012046294630A3D3E900230FF08EFBFD
:103FB00080468946DDE9020152465B460FF086FBEA
:103FC00052465B460FF082FB06460F4620462946C6
:103FD00042464B460FF07AFB02460B4620462946E6
:103FE0000FF0C2F904460D46DDE9000118A3D3E93C
:103FF00000230FF095FC02460B46204629460FF0A1
:104000008FFC02460B46304639460FF0ADF90EF0F4
:10401000F5F90EF0F3F906A3D3E900230FF0A2F9A6
:1040200007B0BDE8F08F00BF0000000000886340CB
:1040300000000060661271400000006066A27240DD
:104040000000004008AC5C3F000000E05898F1BE62
:1040500000000000D0126341000000404320A3BED6
:1040600000000020BDE2333E000000C0CCCC2A405E
:10407000649EFF1F00408F400000A03F0000F03F03
:10408000EC87FF1F00D4FE3EF8B5012845D8FFF7A6
:10409000E7FE0FF0FDFD04462148FCF725FA4FF43A
:1040A0007A600BF0E7F920461E4910F0EDF820B9D0
:1040B00020461D4910F006F900B31C4E1C4B1E6033
:1040C0001C4D2B681C4F5B68284639462A229847AE
:1040D0001A4C23685B68204639462A2298472B6889
:1040E000174F5B68284639460122984723685B686A
:1040F00020463946012298473046F8BD0C4D114BF9
:1041000018680FF0CFFE014620460FF0D3FF296854
:104110000FF014FE28602046F8BD0020F8BD00BF57
:10412000649EFF1F000070C200007A440000C6C2F7
:1041300040A3FF1FB4ABFF1F147D01006CABFF1F3A
:10414000A0770100E087FF1F08B501E00CF072FCCA
:104150000CF0BCFC0028F9DC01E00BF0F9FB0BF0E3
:10416000E7FB0028F9DC08BD2DE9F04383B04EF6EB
:104170006020FDF7A9F804460D46A9480368A94E3A
:104180005B6831460D229847A74803685B68314653
:104190000D22984720462946002200230FF0FEFCFE
:1041A000002840F00C839E4E4FF00208CDF80080AE
:1041B000304622462B460DF02BF99B4FCDF8008060
:1041C000384622462B460DF023F93368DFF8788213
:1041D0005B6830464146012298473B685B68384639
:1041E0004146012298470CF025FC0CF023FC8F4B34
:1041F00020271F6080221A6030460DF0B3F8336824
:104200005B6830468A490E229847304600210DF0FF
:10421000F5F830460DF0A6F833685B6830468549FE
:104220003A46984730460DF09DF80026DFF81C927C
:104230007B4F48460021B2B207F088FF384631462E
:104240000DF0DCF83B685B68384641460122984730
:1042500032200BF00FF930460FF0D2F922462B46F0
:104260000FF082F80FF0CCFC064640F6FE73984241
:10427000DFDD8022704B1A60694E30460DF072F817
:1042800033685B6830466A490E2298473046012100
:104290000DF0B4F830460DF065F833685B683046D1
:1042A00066492122984730460DF05CF80026DFF879
:1042B0009C915B4FDFF8908148460121B2B207F034
:1042C00045FF384631460DF099F83B685B68384643
:1042D00041460122984732200BF0CCF830460FF0CF
:1042E0008FF922462B460FF03FF80FF089FC064667
:1042F00040F6FE739842DFDD20274F4B1F60043BE2
:1043000001221A6080221A60454E30460DF02AF8CC
:1043100033685B68304646490E2298473046002194
:104320000DF06CF830460DF01DF833685B683046D0
:1043300043493A46984730460DF014F80026DFF816
:104340000C91374FDFF8008148460021B2B207F0E8
:10435000FDFE384631460DF051F83B685B68384643
:1043600041460122984732200BF084F830460FF086
:1043700047F922462B460EF0F7FF0FF041FC0646A8
:1043800040F6FE739842DFDD80222B4B1A60244EEC
:1043900030460CF0E7FF33685B68304624490E2254
:1043A0009847304601210DF029F830460CF0DAFF2D
:1043B00033685B68304623492122984730460CF029
:1043C000D1FF0026DFF88490154FDFF87C80484647
:1043D0000121B2B207F0BAFE384631460DF00EF8B0
:1043E0003B685B68384641460122984732200BF013
:1043F00041F830460FF004F922462B460EF0B4FF88
:104400000FF0FEFB064640F6FE739842DFDD012208
:10441000094B1A600227043B1F60014E304617E02B
:10442000B4ABFF1F407D01006CABFF1FC4F00F4019
:10443000507D0100607D0100C8F00F40847D0100C7
:10444000A87D0100CC7D0100A077010030A6FF1FF0
:104450000CF088FF33685B683046AB490E22984702
:10446000304639460CF0CAFF30460CF07BFF33680B
:104470005B683046A5491322984730460CF072FF1E
:104480000026DFF8AC92A24FDFF8A882484602214E
:10449000B2B207F05BFE384631460CF0AFFF3B6826
:1044A0005B68384641460122984732200AF0E2FF15
:1044B00030460FF0A5F822462B460EF055FF0FF0C0
:1044C0009FFB064640F6FE739842DFDD0227914BC4
:1044D0001F601022443B1A608D4E30460CF042FFA4
:1044E00033685B68304688490E2298473046394623
:1044F0000CF084FF30460CF035FF33685B683046C3
:1045000085491322984730460CF02CFF0026DFF82F
:1045100020927F4FDFF81C8248460221B2B207F09A
:1045200015FE384631460CF069FF3B685B6838463B
:1045300041460122984732200AF09CFF30460FF096
:104540005FF822462B460EF00FFF0FF059FB064690
:1045500040F6FE739842DFDD1022704B1A6001278F
:10456000043B1F606A4E30460CF0FCFE33685B680B
:10457000304665490E229847304639460CF03EFFDA
:1045800030460CF0EFFE33685B6830466449112218
:10459000984730460CF0E6FE0026DFF894915C4F19
:1045A000DFF8908148460321B2B207F0CFFD3846CC
:1045B00031460CF023FF3B685B68384641460122D8
:1045C000984732200AF056FF30460FF019F822467D
:1045D0002B460EF0C9FE0FF013FB064640F6FE73A5
:1045E0009842DFDD01274D4B1F60443B1F60484E62
:1045F00030460CF0B7FE33685B68304642490E2205
:104600009847304639460CF0F9FE30460CF0AAFEC9
:1046100033685B68304643491122984730460CF0B6
:10462000A1FE0026DFF80891394FDFF808814846DF
:104630000321B2B207F08AFD384631460CF0DEFEA7
:104640003B685B68384641460122984732200AF0B1
:1046500011FF30460EF0D4FF22462B460EF084FEAA
:104660000FF0CEFA064640F6FE739842DFDD0127D2
:104670002D4B1F6040223C331A60254E30460CF013
:1046800071FE33685B6830461F490E2298473046FA
:1046900039460CF0B3FE30460CF064FE33685B68BC
:1046A000304622491122984730460CF05BFE002626
:1046B000DFF87C90164FDFF87C8048460321B2B2C9
:1046C00007F044FD384631460CF098FE3B685B68C5
:1046D000384641460122984732200AF0CBFE304648
:1046E0000EF08EFF22462B460EF03EFE0FF088FAAB
:1046F000064640F6FE739842DFDD4022074B1A6003
:104700008022043B1A6017E0507D0100F07D01001B
:10471000B4ABFF1FC8F00F40047E010088F00F40CB
:10472000187E01002C7E010048F00F40407E010001
:1047300030A6FF1FA0770100374E30460CF012FE66
:1047400033685B68304635490E2298473046012170
:104750000CF054FE30460CF005FE33685B683046C2
:104760002F491122984730460CF0FCFD0026DFF857
:10477000C490294FDFF8C08048460321B2B207F049
:10478000E5FC384631460CF039FE3B685B6838463C
:1047900041460122984732200AF06CFE30460EF066
:1047A0002FFF22462B460EF0DFFD0FF029FA0646BA
:1047B00040F6FE739842DFDD80221A4B1A60FFF745
:1047C000C3FC154C2368184E5B6820463146022214
:1047D000984720460CF0C6FD2368144D5B682046C0
:1047E00029460022984720460CF0BCFD104C236857
:1047F0005B68204631460222984720460CF0B2FD05
:1048000023685B68204629460022984720460CF022
:10481000A9FD03B0BDE8F083B4ABFF1F507D0100DC
:10482000547E010088F00F40687701008077010016
:104830006CABFF1F30A6FF1FA077010070B58EB0D4
:104840000BF086F8051E41DD64200AF013FE0DF121
:1048500003040DF1290604F8015F0BF079F8054611
:10486000B442F8D100238DF82A3001A8234B1968EF
:10487000252210F0EBFC00283DD0214C23685B681A
:1048800020462049222298471C4B1D68284610F0DC
:10489000ADFC024623685B682046294698472046BF
:1048A0000CF060FD23685B68204617492222984778
:1048B00001A810F09BFC024623685B68204601A912
:1048C000984720460CF04EFD002015E00C4C236864
:1048D0005B6820460D493522984720460CF042FD82
:1048E00023685B6820460A492722984720460CF037
:1048F00039FD002000E001200EB070BDE887FF1FE9
:10490000B4ABFF1F687E01008C7E0100B07E010009
:10491000E87E0100F0B585B0614F3B68614C5B6893
:10492000384621460E2298475F4E33685B68304612
:1049300021460E22984768464EF660210022FCF779
:1049400003FC4EF66020FCF7BFFC04460D460D202C
:1049500001210AF053FC204629460FF051F9430883
:1049600003F1376303F5D833B3FBF0F00AF0F2FD3F
:104970000D2001210AF010FC4FF47A700AF07AFD44
:1049800033685B6830464949022298474FF47A7091
:104990000AF070FD33685B68304645490A22984743
:1049A0004FF47A700AF066FD3B685B68384641490F
:1049B0000E229847384640F2D2410CF01FFD38468F
:1049C0000CF0D0FC33685B6830463B4906229847C0
:1049D000304640F2D2410CF011FD4FF47A700AF0EB
:1049E00049FD3B685B68384634490E229847384693
:1049F00069460CF091FC38460CF0B4FC33685B68F7
:104A000030462F4907229847304669460CF084FC0F
:104A10004FF47A700AF02EFD3B685B6838462949EE
:104A20001422984738460CF09DFC33685B6830468A
:104A30002549082298474FF47A700AF01BFDFFF7CA
:104A4000FDFE40B13B685B68384620491622984716
:104A500038460CF087FC0D2000210AF09DFB104D1C
:104A60002B681B4E5B682846314602229847284631
:104A70000CF078FC0C4C23685B682046314602221F
:104A8000984720460CF06EFC28460CF06BFC204644
:104A90000CF068FC68460CF09DFD05B0F0BD00BF51
:104AA000B4ABFF1F107F01006CABFF1F207F010024
:104AB000247F0100307F0100407F0100487F01001A
:104AC000587F0100607F0100787F0100847F010032
:104AD000687701002DE9F04105460C4690461E46D8
:104AE000022801D0142868D1B548414607F072FB6E
:104AF000002808DDB248414607F06CFBB14B186056
:104B00000120BDE8F081AE48414607F063FB002874
:104B100008DA002C40F34281304600210FF0D2FB2E
:104B200058B942E1A648414607F054FBB0F1FF3FB7
:104B300080F21F81002C40F31F81A148414607F0FD
:104B400049FB074630460FF0C7FB01462846FCF7F5
:104B500027FC0546F8430EF053FD02460B460020A5
:104B60004FF080410DF0CEFA06460F4604FB05F4E7
:104B7000954880FB0430E417C4EB60100EF040FD54
:104B800004460D46304639460022904B0EF09EFDFD
:104B900002460B46204629460EF0E6FB0FF030F8A1
:104BA000B0F5006FA8BF4FF40060864B1860884BCB
:104BB00043F828000120BDE8F081A0F10F02012A8E
:104BC00003D9A0F10B03012B68D88248414607F0B6
:104BD00001FB002808DD7F48414607F0FBFA7E4BC9
:104BE00018600120BDE8F0817A48414607F0F2FAEA
:104BF000002808DA002C40F30081304600210FF035
:104C000061FB58B9EEE07348414607F0E3FAB0F1B2
:104C1000FF3F80F2B480002C40F3B4806D484146E1
:104C200007F0D8FA074630460FF056FB01462846F3
:104C3000FCF7B6FB0546F8430EF0E2FC02460B46D5
:104C400000204FF080410DF05DFA06460F4604FB50
:104C500005F45D4880FB0430E417C4EB60100EF0EF
:104C6000CFFC04460D46304639460022574B0EF025
:104C70002DFD02460B46204629460EF075FB0EF030
:104C8000BFFFB0F5006FA8BF4FF40060524B186033
:104C90004F4B43F828000120BDE8F08120F00403C9
:104CA0000A2B72D14D48414607F094FA002808DDDE
:104CB0004A48414607F08EFA494B18600120BDE88A
:104CC000F0814648414607F085FA002808DA002CB2
:104CD00040F3A580304600210FF0F4FA48B993E084
:104CE0003E48414607F076FAB0F1FF3F50DA002C1B
:104CF00051DD3A48414607F06DFA074630460FF05D
:104D0000EBFA01462846FCF74BFB0546F8430EF04C
:104D100077FC02460B4600204FF080410DF0F2F97F
:104D200006460F4604FB05F4274880FB0430E417D1
:104D3000C4EB60100EF064FC04460D463046394664
:104D40000022224B0EF0C2FC02460B4620462946AA
:104D50000EF00AFB0EF054FFB0F5006FA8BF4FF441
:104D600000601F4B18601A4B43F828000120BDE873
:104D7000F0810020BDE8F0810020BDE8F081002036
:104D8000BDE8F0810020BDE8F0810020BDE8F081A1
:104D90000020BDE8F0810020BDE8F08108484146D0
:104DA00007F018FA0020BDE8F0810548414607F0F9
:104DB00011FAB0F1FF3FFFF6C0AE0020BDE8F08170
:104DC0001097FF1F8896FF1F1F85EB5100002040A2
:104DD000BCA3FF1F7497FF1F9CA3FF1F04A6FF1F08
:104DE00034A3FF1F1148414607F0F4F9B0F1FF3F2B
:104DF000FFF614AF0020BDE8F0810C48414607F0F3
:104E0000E9F90020BDE8F0810948414607F0E2F9E0
:104E1000B0F1FF3FFFF66DAF0020BDE8F081044820
:104E2000414607F0D7F90020BDE8F0817497FF1FD5
:104E300004A6FF1F70B504460D461E46049A0228BC
:104E400001D0142826D1002A06DD3E48002192B266
:104E500007F07CF9012070BD002D65DD3046002192
:104E60000FF030FA002861D030460FF035FA0146D5
:104E70002046FCF795FA05FB00F0334A82FB00322E
:104E8000C517C5EB62122F48002192B207F05EF9F8
:104E9000012070BDA0F10F03012B03D9A0F10B037A
:104EA000012B26D8002A06DD2648032192B207F0FE
:104EB0004DF9012070BD002D3ADD304600210FF084
:104EC00001FA002836D030460FF006FA0146204697
:104ED000FCF766FA05FB00F01B4A82FB0032C5179F
:104EE000C5EB62121748032192B207F02FF9012097
:104EF00070BD20F004040A2C1ED1002A06DD1148E2
:104F0000022192B207F022F9012070BD002915DDBF
:104F1000304600210FF0D6F990B10A480221002254
:104F200007F014F9012070BD002070BD002070BD95
:104F3000002070BD002070BD002070BD002070BD3D
:104F4000002070BD30A6FF1F1F85EB5110B5074C28
:104F5000052021460AF080F8032021460AF07CF85B
:104F6000192003490AF078F810BD00BF001B37482C
:104F7000D723F4432DE9F04383B080460F4616460D
:104F8000334C20461D2108F073F823681B68204627
:104F9000002198472169627B4FF47A75009520467D
:104FA000002308F03FFB4023013B7FF4FDAF206965
:104FB000617B01230093002301931D22072308F046
:104FC00045FB206908F060FB206908F05DFB814625
:104FD000206908F059FB40EA092003B205FB03F3FE
:104FE000002BBCBF03F57F533F339B13C8F8003041
:104FF000174C206908F048FB0546206908F044FB7F
:1050000040EA052005B24FF47A7303FB05F3002B49
:10501000BCBF03F57F533F339B133B600C4C2069AF
:1050200008F032FB0546206908F02EFB40EA052017
:1050300005B24FF47A7303FB05F3002BBCBF03F5F5
:105040007F533F339B13336003B0BDE8F08300BF51
:10505000C0A8FF1F30B583B0114C20461D2108F0B9
:1050600007F823681B6820460D2198472169627B59
:105070000025009520462B4608F0D4FA4023013B3A
:105080007FF4FDAF2069617B0123009301951D2210
:1050900008F0DCFA206908F0F7FAC0B203B030BDBE
:1050A000C0A8FF1F10B582B0144C20460E2107F097
:1050B000DFFF23681B682046072198472169627B30
:1050C0004FF47A7300932046012308F0ABFA402393
:1050D000013B7FF4FDAF2069617B01230093002237
:1050E00001920E2208F0B2FA02200AF0C3F92069F8
:1050F00008F0CAFAC0B202B010BD00BFC0A8FF1FBE
:1051000010B582B001200AF0B5F9144C20460E21EA
:1051100007F0AEFF23681B682046102198472368DC
:105120001B6820462921984723681B682046A02138
:1051300098472169627B4FF47A73009320460123DC
:1051400008F070FA01200AF095F9FFF7ABFFC438B8
:1051500018BF6FF0000002B010BD00BFC0A8FF1F55
:105160002DE9F04182B080460F4616463C4C204661
:105170000E2107F07DFF23681B6820460121984718
:105180002169627B4FF47A7300932046012308F073
:1051900049FA4023013B7FF4FDAF2069617B012385
:1051A0000093002501950E22062308F04FFA356082
:1051B0003D60C8F800502069D0F83821D0F834316B
:1051C0009A4203D008F060FAC5B200E00025244BF3
:1051D0001869D0F83811D0F83421914203D008F082
:1051E00053FAC4B200E0002444EA05231BB2C8F815
:1051F00000301B4B1869D0F83821D0F834319A426E
:1052000002D008F041FAC5B2154B1869D0F8382120
:10521000D0F834319A4202D008F036FAC4B244EAE7
:1052200005231BB23B600E4B1869D0F83821D0F82B
:1052300034319A4202D008F027FAC5B2084B1869F7
:10524000D0F83821D0F834319A4202D008F01CFA54
:10525000C4B244EA052424B2346002B0BDE8F0814F
:10526000C0A8FF1F2DE9F04182B004461C485A2116
:1052700007F0FEFE2CB11A4803681B680621984708
:1052800004E0174803681B6807219847144C2169FC
:10529000627B0025009520462B4608F0C3F9206963
:1052A000617B0126009601955A22022308F0CEF96F
:1052B000206908F0E9F90746206908F0E5F9804619
:1052C0002169627B00952046334608F0ABF908F06F
:1052D0007F00FFB207EB002002B0BDE8F08100BF05
:1052E000C0A8FF1FFFFFFFFF70B50446144E8523C3
:1052F000737005200AF0BEF82046FFF7B3FF0EF0EA
:10530000D1FD10490EF022FE0F490EF015FD0EF0F2
:1053100089F904460D460B23737005200AF0AAF89C
:105320002046294604A3D3E900230EF01BF80EF013
:10533000AFFC70BDAFF300800000006066127140EA
:10534000006006400AD7A33C0AD7233CAFF3008095
:105350002DE9F04F83B083468846914600934C0177
:105360004FF4807508264FF0000A01273046514659
:1053700009F012FF002C00F04C812346013B7FF422
:10538000FDAF3046394609F007FF2346013B7FF465
:10539000FDAF013DEAD10820002109F0FDFE002CFF
:1053A00000F03C812346013B7FF4FDAF0820012142
:1053B00009F0F2FE0720002109F0EEFE2346013B32
:1053C0007FF4FDAF0820002109F0E6FE2346013BF3
:1053D0007FF4FDAF0820012109F0DEFE0720012146
:1053E00009F0DAFE2346013B7FF4FDAF4FF47A73F8
:1053F00003FB0BFB4FEAC8039BFBF3FBBBF1000F66
:105400004BDD4FF0000A0825564601272846314655
:1054100009F0C2FE002C00F016812346013B7FF408
:10542000FDAF2846394609F0B7FE2346013B7FF41D
:10543000FDAF2846314609F0AFFE2346013B7FF41D
:10544000FDAF2846394609F0A7FE2346013B7FF40D
:10545000FDAF2846314609F09FFE2346013B7FF40D
:10546000FDAF2846394609F097FE2346013B7FF4FD
:10547000FDAF2846314609F08FFE2346013B7FF4FD
:10548000FDAF2846394609F087FE2346013B7FF4ED
:10549000FDAF0AF1010ADA45B8D10820002109F070
:1054A0007BFE002C00F0EC802346013B7FF4FDAF37
:1054B0000820012109F070FE0720002109F06CFE90
:1054C0002346013B7FF4FDAF0820002109F064FE74
:1054D0002346013B7FF4FDAF0820012109F05CFE6B
:1054E0000720012109F058FE2346013B7FF4FDAF60
:1054F00000227D4B1A60C9EB08035B0101934FF456
:105500008076794D794FDFF8E8A10820002109F075
:1055100043FE002C00F0C9802346013B7FF4FDAF21
:105520000820012109F038FE2346013B7FF4FDAF3E
:105530000820002109F030FE009B7BB9D5F800B0AF
:10554000222009F01FFA27F81B002B6837F81310E8
:105550005AF823200A444AF8232008E0222009F0C0
:1055600011FA2B6837F81320104427F813002B6822
:1055700001332B60C84504DD019B13B1013B7FF46F
:10558000FDAF0820012109F007FE002C00F09280F9
:105590002346013B7FF4FDAF0820002109F0FCFD0C
:1055A0002346013B7FF4FDAF0820012109F0F4FD03
:1055B0002346013B7FF4FDAF0820002109F0ECFDFC
:1055C0002346013B7FF4FDAF0820012109F0E4FDF3
:1055D0002346013B7FF4FDAF013E96D14FF4807529
:1055E00008264FF0000801273046414609F0D4FD57
:1055F000002C70D02346013B7FF4FDAF3046394686
:1056000009F0CAFD2346013B7FF4FDAF013DEBD11C
:1056100066E03046394609F0BFFDBAE608200121B0
:1056200009F0BAFD0720002109F0B6FD082000218D
:1056300009F0B2FD0820012109F0AEFD072001218B
:1056400009F0AAFDD2E62846394609F0A5FD28460C
:10565000314609F0A1FD2846394609F09DFD28464E
:10566000314609F099FD2846394609F095FD28464E
:10567000314609F091FD2846394609F08DFD08E7CD
:105680000820012109F088FD0720002109F084FD90
:105690000820002109F080FD0820012109F07CFD8F
:1056A0000720012109F078FD22E70820012109F0F7
:1056B00073FD3DE70820002109F06EFD082001215F
:1056C00009F06AFD0820002109F066FD082001218B
:1056D00009F062FD80E73046394609F05DFD95E747
:1056E00003B0BDE8F08F00BF8097FF1FA0A6FF1F8B
:1056F000F897FF1F2DE9F843254E3368254D5B6869
:10570000304629460C229847234C23685B68204684
:1057100029460C229847214D304629880BF06EFE11
:10572000204629880BF06AFE2C4605F5FF792C27C8
:10573000194D33681B683046394698472B681B68FB
:10574000284639469847A046304634F8021F0BF0E9
:1057500055FE2846B8F802100BF050FE4C45E8D133
:105760000B4C23680E4D5B68204629460122984762
:1057700020460BF0F7FD084C23685B68204629465D
:105780000122984720460BF0EDFDBDE8F88300BFED
:10579000B4ABFF1F9C7F01006CABFF1FA0A6FF1FD7
:1057A000B089010070B5061D04460D1A204609F0A7
:1057B000E9F928550134B442F8D1042070BD00BF86
:1057C00070B5061D04460D1A2046295D09F0EEF954
:1057D0000134B442F8D1042070BD00BF2DE9F0437C
:1057E00083B0064602AF47F8041D91460B4D2C1FAF
:1057F000A846643530460EF055FB014654F8040FB8
:105800000EF038FD28B1C8EB040048443946FFF7D4
:10581000D7FFAC42EED103B0BDE8F0837487FF1F21
:105820002DE9F04383B0064602AF47F8041D9146C8
:105830000C4D2C1FA846643530460EF033FB014654
:1058400054F8040F0EF016FD28B1C8EB04004844CC
:105850003946FFF7B5FFAC42EED1002003B0BDE8FA
:10586000F08300BF7487FF1F2DE9F04781464EF695
:105870006025184E00F1780A2846FBF725FD0EF04A
:10588000BFF90446B0F1FF3F21D02846FBF71CFDCD
:105890000EF0FEF9074631460EF0ECFCB8B928468A
:1058A000FBF712FD0EF0F4F9804631460EF0E2FCF3
:1058B00068B9204639464A46FFF790FF20464146E0
:1058C0005246FFF7ADFF012009F0D4FDD4E7BDE853
:1058D000F08700BF000080BF2DE9F04F83B09846ED
:1058E0000F1E26DD9246054600244EF660294FF035
:1058F000000B4846FBF7E8FC0EF0CAF9064601909B
:10590000B8F1000F0DD159460EF0B4FC10B10A4B9E
:10591000019306E0304609490EF0B6FC08B1084B89
:105920000193284601A9FFF74BFF01345544BC42BF
:10593000DFD103B0BDE8F08F7F96184B00409C4547
:105940000060EA4770B500F1080604460D1A2046CB
:1059500009F018F928550134B442F8D1082070BD77
:105960002DE9F04F89B003908B4C2368DFF844B2E7
:105970005B68204659460D229847DFF83CA2DAF8CA
:1059800000000DF04FFE02460B4602260096204610
:105990000BF03EFD2368814D5B68204629460122BD
:1059A000984720460BF0DEFC2368DFF810925B6816
:1059B000204649461322984703230093204674A3A8
:1059C000D3E900230BF024FD23685B6820462946B9
:1059D0000122984720460BF0C5FC2368DFF8E081E0
:1059E0005B6820464146132298476D4F38680DF09A
:1059F00019FE02460B46009620460BF009FD23686F
:105A00005B68204629460122984720460BF0AAFCF5
:105A1000644C23685B68204659460D229847DAF8A3
:105A200000000DF0FFFD02460B46009620460BF0ED
:105A3000EFFC23685B6820462946012298472046F0
:105A40000BF090FC23685B68204649461322984778
:105A50000323009320464EA3D3E900230BF0D8FC88
:105A600023685B68204629460122984720460BF0B0
:105A700079FC23685B6820464146132298473868C2
:105A80000DF0D0FD02460B46009620460BF0C0FC00
:105A900023685B68204629460122984720460BF080
:105AA00061FC414C4FF4B4602146FFF74BFF04A862
:105AB0003E490BF0DBFD04A8214601223346FBF7EB
:105AC000C1FC04A80BF086FD039B012B58D14EF6B8
:105AD0006020FBF7F9FB0EF0DBF8CAF800002E4D52
