:1000000000800020BD010000699600006996000094
:100010006996000069960000699600003596000018
:100020003596000035960000359600006996000070
:10003000699600003596000069960000259600003C
:1000400069960000699600006996000069960000B4
:1000500069960000699600006996000069960000A4
:100060006996000069960000699600006996000094
:100070006996000069960000699600006996000084
:100080006996000069960000699600006996000074
:1000900069960000F57F00006996000069960000EF
:1000A00015710000699600006996000069960000CD
:1000B0006996000069960000699600006996000044
:1000C0006996000069960000699600006996000034
:1000D0006996000069960000699600006996000024
:1000E0006996000069960000699600006996000014
:1000F00069960000658C00006996000001AF000061
:1001000069960000CD87000069960000699600009E
:1001100069960000699600006996000069960000E3
:1001200069960000699600006996000069960000D3
:1001300069960000699600006996000069960000C3
:1001400069960000699600006996000069960000B3
:1001500029A6000041A6000059A6000071A60000D3
:1001600069960000E18E0000699600006996000023
:100170006996000069960000699600006996000083
:100180006996000069960000699600006996000073
:100190006996000069960000699600004D9800007D
:1001A0009D98000025990000E1990000659A0000E3
:1001B000699600006996000069960000544B4CF265
:1001C000205210B51A804DF628121A8000BF00BFC9
:1001D00007F054FF4F4B4FF010621A604E4A9A607E
:1001E0004E4ADA604E4B1A6812F4807204D14D49BF
:1001F0000A604FF4A8521A604B4B1A7802F00802BA
:10020000D2B21AB11A7842F008021A70474B484825
:10021000484C2A221A700023474A02E01959995083
:10022000043399188142F9D3444B454A002101E037
:1002300043F8041B9342FBD34249434800231A5816
:100240005A500433B3F5DE7FF9D1404B404A802148
:1002500003F8011B9342FBD13A4A3E4B1A603E4BD6
:100260000A221A703D4B24221A70A02203F8012C96
:100270003B4A137803F00203DBB2002BF9D0384A73
:10028000137803F01003DBB2002BF9D1344A137852
:1002900003F00C03082BFAD1324B03221A704022D0
:1002A0005A702F4A137803F02003DBB2002BF9D0E9
:1002B0002B4A137803F04003DBB2002BF9D02A4B12
:1002C0002A4A1A6002225A60294B20221A70244AB4
:1002D000137803F00C030C2BFAD1264A264B1A6034
:1002E000264B274A1A60072243F8042C62B609F00D
:1002F0008FFD0C4B1B68DC0702D5224809F0CAFBB6
:100300000CF012F809F0B3F909F0DEFFFEE700BFC8
:100310000E20054030800440823F04000100002B85
:1003200010D0034014D0034002D0074000E0074043
:100330005490FF1F240D01006089FF1F5490FF1F80
:10034000DC9CFF1F0084FF1F0000000000E400E0B1
:100350005FE400E008ED00E0005006400140064088
:10036000064006400440064044800440000003016B
:1003700000400640C01005000480044014E000E086
:10038000FF760100B8EDEE54FFFFFFFFFFFFFFFF18
:10039000FFFFFFFFFFFFFFFFFFFFFFFFFFFFFFFF6D
:1003A000FFFFFFFFFFFFFFFFFFFFFFFFFFFFFFFF5D
:1003B000FFFFFFFFFFFFFFFFFFFFFFFFFFFFFFFF4D
:1003C000FFFFFFFFFFFFFFFFFFFFFFFFFFFFFFFF3D
:1003D000FFFFFFFFFFFFFFFFFFFFFFFFFFFFFFFF2D
:1003E000FFFFFFFFFFFFFFFFFFFFFFFFFFFFFFFF1D
:1003F000FFFFFFFFFFFFFFFFFFFFFFFFFFFFFFFF0D
:10040000FFFFFFFFFFFFFFFFFFFFFFFFFEFFFFFFFD
:1004100008B549F25400074BC1F6FF701B1A062BB2
:1004200000D808BD40F20003C0F20003002BF8D052
:100430009847F6E75790FF1F08B549F2540049F274
:100440005403C1F6FF70C1F6FF731B1A9B1003EB38
:10045000D373591000D108BD40F20002C0F200026F
:10046000002AF8D09047F6E710B549F25404C1F6D7
:10047000FF74237873B9FFF7CBFF40F20003C0F29B
:1004800000032BB140F62450C0F20100AFF300800E
:100490000123237010BD00BF08B540F20003C0F275
:1004A00000034BB140F6245049F25801C0F201005C
:1004B000C1F6FF71AFF3008049F25400C1F6FF703E
:1004C00003682BB140F20003C0F2000303B1984768
:1004D000BDE80840B0E700BF024B4FF400121A60BD
:1004E000704700BF80E100E010B504460AF05AF9F9
:1004F000204610BD70B503460D46164607481946FE
:100500002A4607F083F8002404E0044806F0E6FCDD
:1005100030550134E3B2AB42F7D370BDE495FF1F11
:10052000034670B509480D4619461646002406F0E4
:100530006FFF03E0315D06F08FFC0134E3B2AB42A4
:100540000248F7D3BDE8704007F077B8E495FF1F85
:10055000064B10221A60064B1A78064B53F83220CD
:10056000012382F88030044A13607047C8F00F40BE
:10057000D095FF1FB0070100F490FF1F054B1A78BC
:10058000054B53F83220012382F80031034A1360EF
:10059000704700BFD095FF1FB0070100A494FF1F54
:1005A00038B50A480A4D06F0DFF80A4B04461868C9
:1005B0000BF0FEFB014620460BF002FD01462868C9
:1005C0000BF042FB2860204638BD00BFD493FF1FCC
:1005D0003892FF1F7889FF1F38B50A480A4D06F088
:1005E0005FF80A4B044618680BF0E2FB0146204610
:1005F0000BF0E6FC014628680BF026FB286020463D
:1006000038BD00BFD493FF1F1094FF1F7889FF1FD0
:1006100030B5ADF5B05D81B0684600214FF4B05201
:100620000CF0AAFA00246D4621462A5D05480134E3
:1006300005F0C9FFB4F5B05FF6D10DF5017D0DF5FC
:10064000A05D30BDD895FF1F38B5044608460D465D
:1006500008F012F9236802465B682046294698474D
:1006600038BD08B5FFF7F0FF08BD0AF0F3B99DF8F3
:10067000001000910AF0F8B938B504460AF082F982
:10068000054620460AF0A0F9401938BD38B50446A1
:10069000FFF7DAFF054620460AF096F9281838BD1C
:1006A00038B504460AF0D6F9054620460AF08CF91A
:1006B000281838BD37B59DF81810009104460AF087
:1006C000D3F9054620460AF07FF928183EBD406858
:1006D00000B1C0687047FFFF0D4B70B540241C602F
:1006E000322009F07FFB0B4B0B4D0C4E1C600C4C69
:1006F00031462846FFF7CAFF31462046FFF7C6FFBE
:1007000028460AF061F92046BDE870400AF05CB95D
:10071000C4F00F40C8F00F40009BFF1F34FC0000E6
:10072000C49AFF1F10B517491748184CFFF799FFD7
:1007300017481449FFF795FF236863B91549124814
:10074000FFF7A4FF12481349FFF7A0FF124B022244
:100750001A6001230DE0012B0CD110490A48FFF764
:1007600095FF0B480D49FFF791FF0D4B02221A60D0
:100770000023236004480AF027F90548BDE810402B
:100780000AF022B947FC0000009BFF1FC895FF1F1D
:10079000C49AFF1F40FC000084F00F405CFC000086
:1007A00088F00F402DE9F74F002140F6FF724D48C9
:1007B00006F046FB4C4A0423202413602246013AEB
:1007C000FDD14A4A4A4F1360112009F033FC494BCE
:1007D000494E1C6005460A2009F004FB112009F06F
:1007E00029FC83466E2009F0FDFA112009F022FC55
:1007F000424BDFF818911C60414C82462146384636
:10080000FFF72FFF21463046FFF72BFF28460BF05E
:10081000CFFA3C490BF0D4FB0AF08AFE4FF00208F5
:1008200004460D460B462246CDF800803846FFF7B9
:100830001EFF22462B46CDF800803046FFF717FFFB
:1008400049463846FFF70DFF49463046FFF709FF96
:1008500058460BF0ADFA2B490BF0B2FB0AF068FEDC
:1008600004460D460B462246CDF800803846FFF779
:10087000FEFE22462B46CDF800803046FFF7F7FEFD
:1008800049463846FFF7EDFE49463046FFF7E9FE98
:1008900050460BF08DFA1B490BF092FB0AF048FE14
:1008A00004460B462246CDF8008038460D46FFF739
:1008B000DEFE2246144CCDF800802B463046FFF772
:1008C000D6FE21463846FFF7E1FE21463046FFF7C7
:1008D000DDFE38460AF078F8304603B0BDE8F04F48
:1008E0000AF072B8A492FF1F88F00F4084F00F4006
:1008F000009BFF1FC4F00F40C49AFF1FC8F00F40B9
:1009000062FC00000060134573FC000089040100D4
:100910002DE9F34707460E460AA8002114469846DB
:100920000C9D05F0A8FF002840F3EA807549764841
:10093000FFF797FE294674480AF024F87349724875
:10094000FFF78FFE6F497248FFF78BFE294670480C
:100950000AF018F86D496E48FFF783FE2046002123
:100960000BF00EFC002840F0BA8020460AF0E0FDB3
:10097000022704460D460B46224600976248FFF7C1
:1009800076FE0097624822462B46FFF770FE3068DD
:1009900000210BF0F5FB002840F0AA805D495A4881
:1009A000FFF75FFE40460AF0C3FD044622460B46B1
:1009B000009755480D46FFF75AFE56495448FFF731
:1009C00050FE009722462B465148FFF750FE8FE01D
:1009D00051494D48FFF745FE21460AA805F04BFF57
:1009E000014649480AF036F84A494748FFF739FEB8
:1009F00049494748FFF735FE21460AA805F03BFF65
:100A0000014643480AF026F841484249FFF729FECB
:100A100000254FE021460AA858F825A005F02BFF35
:100A20000BF0C6F9014650464FEA85090BF0A8FBCA
:100A300000283ED057F809000AF07AFD0225024648
:100A40000B4600953048FFF712FE57F809000AF0F0
:100A50006FFD009502460B462D48FFF708FE3068F3
:100A600000210BF08DFBD8B92A492748FFF7F9FD83
:100A700056F809000AF05CFD009502460B46224834
:100A8000FFF7F5FD23492248FFF7EBFD56F8090073
:100A90000AF04EFD009502460B461D48FFF7E7FDA4
:100AA0001E491948FFF7DDFD1C491948FFF7D9FD1C
:100AB00002E001351A2DADD1012009F093F90AA801
:100AC000FFF705FE0138844207D012490E48FFF7B0
:100AD000C8FD0F480F49FFF7C4FD013402E0DFF8FD
:100AE000448000240AA8FFF7F2FD8442FFF670AFAD
:100AF0000B490548FFF7B5FD05480949FFF7B1FD6A
:100B0000BDE8FC87CCFF0000009BFF1F83FC0000BA
:100B1000C49AFF1F8904010086FC0000CF05010074
:100B2000EE0501008889FF1F10B52820002109F07B
:100B300045F828210A2200230A4809F053FF0948F2
:100B400009F042FF6424282009F074FA01460548A0
:100B5000FFF7A6FD4FF4FA6009F044F9013CF2D129
:100B600010BD00BF009BFF1F012801D8FFF718BD73
:100B70007047012801D8FFF72FBD704701282DE9E4
:100B8000F8438CBF002401240CB903283DD1204830
:100B900006F024F905461E4806F019F980461C485F
:100BA00006F00EF907461A4806F003F981464CB3E1
:100BB000184B194E1C68B5FBF4F00BF0F5F8014624
:100BC00030680BF041F83060B8FBF4F00BF0ECF853
:100BD000124E014630680BF037F83060B7FBF4F086
:100BE0000BF0E2F80E4E014630680BF02DF8306045
:100BF000B9FBF4F00BF0D8F80A4E014630680BF060
:100C000023F830602846BDE8F883BDE8F88300BFCC
:100C1000D893FF1F7889FF1FB094FF1FBC94FF1F5C
:100C20000C94FF1F2494FF1F2DE9F74F2A4DDFF886
:100C3000B4B0DFF8B4A0294EDFF8B090DFF8B08090
:100C4000274C59462846FFF70CFDDAF800000AF059
:100C50006FFC022702460B4600972846FFF707FD68
:100C600031462846FFF7FDFC49462846FFF7F9FCC8
:100C7000D8F800000AF05CFC009702460B462846B4
:100C8000FFF7F5FC59462046FFF7EBFCDAF80000C9
:100C90000AF04EFC009702460B462046FFF7E7FCA1
:100CA00031462046FFF7DDFC49462046FFF7D9FCD8
:100CB000D8F800000AF03CFC009702460B4620469C
:100CC000FFF7D5FC31462846FFF7CBFC20463146DE
:100CD000FFF7C7FCBDE8FE8F009BFF1F89040100E2
:100CE000C49AFF1FE8FC0000F489FF1FF7FC000016
:100CF000CC95FF1F2DE9F0410D46ADF57E7D0446F4
:100D00002948DFF8B080164609F088FD29462748B3
:100D100009F084FD4FF47A72002104A80BF02CFF37
:100D20002046002109F019FB214B1A680192019D10
:100D30001A680292029A1F460AE03B680393039ADC
:100D4000D8F80030521B9A4202DDFFF7C5FC05E0DF
:100D500007F004FB10B907F02DFFE8B107F0FEFA29
:100D6000002805DD07F0DCFA5B2818D00E4808E003
:100D700007F020FF002812DD07F042FF5B280ED0AD
:100D80000A482B2104AA4FF47A7309F049FD204642
:100D900004A909F01AFB02E0012ED9D1CDE72046C3
:100DA0000DF57E7DBDE8F081009BFF1FC49AFF1FFB
:100DB000B89AFF1F8489FF1FF0B5044691B02248FE
:100DC000214609F02BFD2148214609F027FD20226C
:100DD000002108A80BF0D0FE04A8002109F0BDFAFC
:100DE0001B4B1A680192019E1A680292029A1F46D2
:100DF00007F0B4FA10B907F0DDFEC0B107F0DAFE73
:100E0000002801DD114804E007F0A8FA002815DDEC
:100E10000D4808AA20232B2109F002FD08A904A8E7
:100E200009F0D3FA04980BF02DFA054606E03B686A
:100E30000393039B9B1BA342DADDDFE704A809F0C1
:100E40004BFA284611B0F0BD009BFF1FC49AFF1F4C
:100E5000B89AFF1F2DE9F041064690B0244831466C
:100E600009F0DCFC2348314609F0D8FC202200219F
:100E700008A80BF081FE04A8002109F06EFA1E4BB1
:100E80001A680192019F1A680292029A984607F026
:100E900065FA10B907F08EFEC8B107F05FFA0028B6
:100EA00001DD134804E007F085FE002817DD114836
:100EB00008AA20232B2109F0B3FC08A904A809F0F3
:100EC00084FA04980BF0DAF904460D4607E0D8F8E6
:100ED00000300393039BDB1BB342D8DDDDE704A89E
:100EE00009F0FAF92046294610B0BDE8F08100BFAC
:100EF000009BFF1FC49AFF1FB89AFF1F08B5064B3F
:100F000019680AF09FFE054B19680BF059F80BF0B1
:100F100069F90AF04DFF08BDCC95FF1FF489FF1F4A
:100F20002DE9F041314D06468846002430460AF04E
:100F30003FFF014655F824000BF022F9002830D07D
:100F40002B4B53F824602B4B53F824702A4B53F847
:100F500024502A4B304653F824100AF073FE3146D1
:100F60000BF02EF8014628460AF076FF0146284687
:100F70000AF06AFE224B53F82460224B054653F8D0
:100F8000241038460AF05EFE39460BF019F8014687
:100F900030460AF061FF014630460AF055FE04462D
:100FA00004E001341A2CC1D100242546204600213A
:100FB00001270BF0E5F800B10027FFB247B928463A
:100FC000002101260BF0DCF800B13E46F0B250B132
:100FD00040460AF0EDFE21460AF034FE29460AF0AA
:100FE000EFFF0BF025F9BDE8F08100BF8889FF1FF6
:100FF0002C94FF1F7490FF1FD892FF1F3C92FF1F7D
:101000004093FF1FC894FF1F73B50D460446334934
:1010100033481646FFF725FB2146314809F0B2FC5C
:1010200030492F48FFF71DFB2C492F48FFF719FBCC
:1010300021462D4809F0A6FC2A492B48FFF711FB51
:1010400028680AF075FA022402460B4600942448E8
:10105000FFF70DFB28680AF06BFA009402460B4676
:101060002148FFF704FB21491D48FFF7FAFA1F4901
:101070001D48FFF7F6FA68680AF05AFA009402462B
:101080000B461748FFF7F3FA68680AF051FA009424
:1010900002460B461448FFF7EAFA15491048FFF7D5
:1010A000E0FA11481249FFF7DCFA012E0C4805D08E
:1010B0000E49FFF7EBFA0C480C490CE00D49FFF71D
:1010C000E5FA0D490648FFF7E1FA0A490648FFF735
:1010D000DDFA05480849FFF7D9FA7CBDCCFF0000CE
:1010E000009BFF1F55FD0000C49AFF1F89040100EB
:1010F000CF05010045FC000024FE0000F7B50446C2
:101100000D462E482E491746FFF7ABFA21462B48CD
:1011100009F038FC2B492948FFF7A3FA28492A4847
:10112000FFF79FFA2146284809F02CFC264825495C
:10113000FFF797FA0024022628680AF0F9F90096CA
:1011400002460B461D48FFF792FA55F8040B0AF0C9
:10115000EFF9009602460B461B48FFF788FA192C58
:1011600007D01A491548FFF77CFA17481749FFF7C7
:1011700078FA01341A2CDFD115491048FFF771FABB
:1011800011481349FFF76DFA012F0C4805D00F499C
:10119000FFF77CFA0C480D490CE00E49FFF776FA90
:1011A0000D490648FFF772FA0A490748FFF76EFA39
:1011B00005480949FFF76AFAFEBD00BF009BFF1F03
:1011C000CCFF000055FD0000C49AFF1F89040100F8
:1011D000CF05010045FC000024FE000010B50AF018
:1011E000E7FD0B4B196804460AF036FE094B1968F7
:1011F0000AF02AFD084B1860084B204619680AF0CF
:101200002BFE074B19680AF01FFD064B186010BD36
:10121000F493FF1FF890FF1FA894FF1FF893FF1F80
:10122000FC90FF1FAC94FF1F2DE9F743054638B92A
:1012300053495448FFF715FA53485149FFF711FA3B
:10124000DFF8689151494F48DFF86481504F514EA3
:10125000FFF707FAD9F800000AF06AF902240246FB
:101260000B4600944748FFF702FA4B494548FFF701
:10127000F8F94A494348FFF7F4F9D8F800000AF0B2
:1012800057F9009402460B463E48FFF7F0F94249F1
:101290003C48FFF7E6F942493A48FFF7E2F9386877
:1012A0000AF046F9009402460B463648FFF7DFF98C
:1012B00039493448FFF7D5F93A493248FFF7D1F9AF
:1012C00030680AF035F9009402460B462D48FFF7C6
:1012D000CEF92E492C48FFF7C4F9D9F800000AF0DE
:1012E00027F9009402460B462748FFF7C0F92A4920
:1012F0002548FFF7B6F929492348FFF7B2F9D8F88E
:1013000000000AF015F9009402460B461E48FFF74C
:10131000AEF921491C48FFF7A4F921491A48FFF703
:10132000A0F938680AF004F9009402460B46164802
:10133000FFF79DF918491448FFF793F91949124826
:10134000FFF78FF930680AF0F3F8009402460B4675
:101350000D48FFF78CF9012D0A4807D10E49FFF718
:1013600080F90D490848FFF77CF906E00E49FFF7C0
:101370008DF905480C49FFF789F9BDE8FE8300BFE8
:101380000CFD0000009BFF1FC49AFF1F0EFD000014
:10139000F893FF1FFC90FF1F890401001AFD000055
:1013A0002BFD000037FD000045FC0000F493FF1FFB
:1013B000F890FF1F01282DE9F341884616461D4687
:1013C0003DD1A64FA649A748FFF74BF938680AF068
:1013D000AFF8022402460B460094A248FFF747F9F3
:1013E000A149A048FFF73DF978680AF0A1F80094F8
:1013F00002460B469B48FFF73AF99C499948FFF78C
:1014000030F997499A48FFF72CF938680AF090F8B4
:10141000009402460B469648FFF729F992499448F2
:10142000FFF71FF978680AF083F8009402460B462C
:101430008F48FFF71CF98E488C49FFF712F9B8F175
:10144000010F3DD18B4F8C498648FFF70AF9386868
:101450000AF06EF8022402460B4600948148FFF71A
:1014600006F981497F48FFF7FCF878680AF060F8D0
:10147000009402460B467B48FFF7F9F87B49794810
:10148000FFF7EFF87C497A48FFF7EBF838680AF085
:101490004FF8009402460B467548FFF7E8F872498A
:1014A0007348FFF7DEF878680AF042F800940246C5
:1014B0000B466F48FFF7DBF86D486C49FFF7D1F832
:1014C000012E3DD16D4E6E496648FFF7CAF830686F
:1014D0000AF02EF8022402460B4600946148FFF7FA
:1014E000C6F861495F48FFF7BCF870680AF020F859
:1014F000009402460B465B48FFF7B9F85B49594830
:10150000FFF7AFF85E495A48FFF7ABF830680AF0CA
:101510000FF8009402460B465548FFF7A8F85249C9
:101520005348FFF79EF870680AF002F800940246EC
:101530000B464F48FFF79BF84D484C49FFF791F891
:10154000012D3DD14F4D50494648FFF78AF8286894
:1015500009F0EEFF022402460B4600944148FFF7D3
:1015600086F841493F48FFF77CF8686809F0E0FFDA
:10157000009402460B463B48FFF779F83B4939484F
:10158000FFF76FF840493A48FFF76BF8286809F011
:10159000CFFF009402460B463548FFF768F8324902
:1015A0003348FFF75EF8686809F0C2FF009402460E
:1015B0000B462F48FFF75BF82D482C49FFF751F8F1
:1015C000089B012B3DD1314D31492648FFF749F8A1
:1015D000286809F0ADFF022402460B46009421481A
:1015E000FFF745F820491F48FFF73BF8686809F006
:1015F0009FFF009402460B461A48FFF738F81B4934
:101600001848FFF72EF822491948FFF72AF82868EA
:1016100009F08EFF009402460B461548FFF727F8A5
:1016200011491348FFF71DF8686809F081FF00941D
:1016300002460B460E48FFF71AF80D480B49FFF714
:1016400010F8099B012B5ED1124D13490548FFF795
:1016500008F8286809F06CFF02241FE0C094FF1FFF
:1016600048FD0000009BFF1F89040100EE050100FA
:10167000C49AFF1F9494FF1F59FD00003095FF1F6F
:101680006AFD00009C94FF1F7BFD00004095FF1F3A
:101690008CFD00004895FF1F9DFD000002460B4693
:1016A00000943A48FEF7E3FF39493848FEF7D9FF7E
:1016B000686809F03DFF009402460B463348FEF788
:1016C000D6FF34493148FEF7CCFF33493348FEF7A3
:1016D000C8FF286809F02CFF009402460B462F48EB
:1016E000FEF7C5FF2A492D48FEF7BBFF686809F0E1
:1016F0001FFF009402460B462848FEF7B8FF274814
:101700002449FEF7AEFF0A9B012B3DD1244D25490C
:101710001E48FEF7A6FF286809F00AFF02240246C9
:101720000B4600941948FEF7A2FF19491748FEF727
:1017300098FF686809F0FCFE009402460B461348C7
:10174000FEF795FF13491148FEF78BFF1549134823
:10175000FEF787FF286809F0EBFE009402460B466F
:101760000E48FEF784FF0A490C48FEF77AFF6868C6
:1017700009F0DEFE009402460B460848FEF777FFAC
:1017800006480449FEF76DFFBDE8FC81009BFF1F82
:1017900089040100EE0501009DFD0000C49AFF1FB1
:1017A0005095FF1FAEFD00007FB5244B1A680192D3
:1017B000019D1A6802920C46029A1E461DE00721FE
:1017C0001F4806F095FF322008F00CFB33680393A6
:1017D000039B5B1BA34210DD1A491B48FEF741FF28
:1017E00018491A48FEF73DFF19491748FEF739FF17
:1017F00017491648FEF735FF14E006F0A1FF002850
:10180000DDD00FE001340A2C09DD01E006F0A6FF6F
:1018100006F096FF0028F9D100240E4D07E0322093
:1018200008F0E0FA06F08CFF0628EBDDF4E706F09E
:1018300095FF28550134072CF9D17FBDB89AFF1FB9
:101840006889FF1FBFFD0000009BFF1FC49AFF1F98
:10185000890401003895FF1F08B5C278007900EBB4
:1018600002200AF0A1FA034B19680AF0F5FA0AF00F
:10187000DFFC08BD7089FF1F38B54FF4FA610C48D2
:101880000C4DFFF791FF0C48FFF7E6FF044664207C
:1018900008F0A8FA094B1868B4FBF0F00AF084FAD3
:1018A000014628680AF0D0F92860204638BD00BFFC
:1018B0006889FF1FBC93FF1F3895FF1F7889FF1FA2
:1018C000012801D8FFF7D8BF7047FFFFFFFFFFFFD8
:1018D0002DE9F74F7C4E304604F0BAFE09F016FEB3
:1018E000044630460D4604F0ADFE09F00FFE62A33B
:1018F000D3E9002309F070FE0022744B09F096FF33
:101900000022724B09F092FF002206460F46204645
:1019100029466F4B09F060FE59A3D3E9002309F073
:10192000A9FC59A3D3E9002382468B4609F0A0FC09
:1019300057A3D3E9002304460D4609F04DFE0022CB
:10194000644B09F097FC54A3D3E9002380468946F1
:101950002046294609F040FE22462B4609F03CFE6F
:1019600002460B464046494609F084FC5A4B8046E5
:101970001868894609F0DCFD02460B464046494698
:1019800009F02AFE46A3D3E9002309F04FFF002205
:10199000CDE900014D4B3046394609F047FF42A3DF
:1019A000D3E90023804689462046294609F014FEE3
:1019B0003FA3D3E9002309F05BFC3FA3D3E9002355
:1019C00006460F462046294609F006FE22462B46CB
:1019D00009F002FE02460B463046394609F04AFC41
:1019E00002460B464046494609F042FC5246044630
:1019F0000D465B465046594609F0EEFD52465B46A1
:101A000009F0EAFD52465B4609F0E6FD2CA3D3E956
:101A1000002306460F462046294609F0DDFD2246F2
:101A20002B4609F0D9FD02460B462046294609F00F
:101A300021FC1BA3D3E9002304460D46DDE9000188
:101A400009F0F4FE02460B462046294609F0EEFE58
:101A500002460B463046394609F00CFC09F0BEFA46
:101A600009F0BCFA06A3D3E9002309F001FC03B096
:101A7000BDE8F08FAFF300800000000000886340F5
:101A800066666666661271406666666666A2724043
:101A900079E9263108AC5C3FE446D3D15898F1BED1
:101AA00000000000D0126341E43C73414320A3BE18
:101AB0004DB1B49D00D4FE3E75466524BDE2333E73
:101AC000CDCCCCCCCCCC2A40B894FF1F00408F406A
:101AD0000000A03F0000F03F7489FF1FAFF30080BB
:101AE00070B5FFF7F5FE0AF059F804461E4804F0F9
:101AF000B7FD4FF47A6008F075F920461B490126BE
:101B00000AF066FB00B90026F6B24EB92046184925
:101B100001250AF03FFB00B9354615F0FF0F13D041
:101B2000144B154C154916481C60FEF79AFD1349D5
:101B30001448FEF796FD14491148FEF792FD12492C
:101B40001048FEF78EFD0DE0104B0A4D18680AF0A4
:101B50002FF9014620460AF033FA014628680AF0B8
:101B600073F82860204670BDB894FF1F00007A44C7
:101B7000000070C22094FF1F0000C6C2DDFD0000FF
:101B8000009BFF1FC49AFF1F890401007889FF1F73
:101B9000012801D8FFF7A4BF704708B501E006F09F
:101BA00097FB06F0DBFB0028F9DC01E007F010F8FA
:101BB00007F000F80028F9DC08BDFFFFF7B54EF686
:101BC0006020FFF747F904460D46B648B649FEF7D0
:101BD00048FDB549B548FEF744FD20462946002298
:101BE000002309F061FF002840F03D8202260096A4
:101BF00022462B46AB48FEF73AFD22462B4600967E
:101C0000AA48FEF734FDAA49A648FEF72AFDA849CE
:101C1000A648FEF726FD06F05BFB06F059FBA54B38
:101C2000A04820221A6080221A6008F0CDFEA24946
:101C30009C48FEF716FD00219A48FEF731FD9948B1
:101C40009E49FEF723FD002640F6FE77B2B2002142
:101C50009B4805F0F5F831469248FEF706FD944999
:101C60009048FEF7FEFC322008F0BCF8304609F040
:101C70004DFC22462B4609F0FDFA09F047FFB84219
:101C80000646E3DD8F4B874880221A6008F09CFEF1
:101C900089498448FEF7E5FC01218248FEF700FDF2
:101CA00080488949FEF7F2FC002640F6FE77B2B282
:101CB0000121834805F0C4F831467A48FEF7D5FC87
:101CC0007B497848FEF7CDFC322008F08BF830468F
:101CD00009F01CFC22462B4609F0CCFA09F016FF4D
:101CE000B8420646E3DD774B6E4820221A60012297
:101CF00043F8042C802243F8042C08F065FE6E495A
:101D00006848FEF7AEFC00216648FEF7C9FC65484E
:101D10006E49FEF7BBFC002640F6FE77B2B200210A
:101D2000674805F08DF831465E48FEF79EFC604935
:101D30005C48FEF796FC322008F054F8304609F073
:101D4000E5FB22462B4609F095FA09F0DFFEB84282
:101D50000646E3DD5B4B534880221A6008F034FEF0
:101D600055495048FEF77DFC01214E48FEF798FC8E
:101D70004C485749FEF78AFC002640F6FE77B2B27F
:101D800001214F4805F05CF831464648FEF76DFCEE
:101D900047494448FEF765FC322008F023F83046F6
:101DA00009F0B4FB22462B4609F064FA09F0AEFEB6
:101DB000B8420646E3DD434B3A48012202261A6048
:101DC00043F8046C08F000FE3B493648FEF749FC36
:101DD00031463448FEF764FC32483E49FEF756FC73
:101DE000002640F6FE77B2B20221354805F028F809
:101DF00031462C48FEF739FC2D492A48FEF731FCC4
:101E0000322007F0EFFF304609F080FB22462B46D8
:101E100009F030FA09F07AFEB8420646E3DD294BB4
:101E20002048102202261E6043F8442C08F0CCFD06
:101E300021491C48FEF715FC31461A48FEF730FCD4
:101E400018482549FEF722FC002640F6FE77B2B27C
:101E500002211B4804F0F4FF31461248FEF705FC4E
:101E600013491048FEF7FDFB322007F0BBFF304658
:101E700009F04CFB22462B4609F0FCF909F046FE1E
:101E8000B8420646E3DD154B0648102201261A60CB
:101E900043F8046C08F098FD07490248FEF7E1FB9F
:101EA00031461DE0009BFF1F08FE0000C49AFF1F83
:101EB00089040100C4F00F4016FE000025FE00005A
:101EC000A492FF1FC8F00F4046FE000068FE00000D
:101ED00089FE0000ABFE0000BFFE000088F00F404E
:101EE0006A48FEF7DDFB69486949FEF7CFFB00262B
:101EF00040F6FE77B2B20321664804F0A1FF3146F6
:101F00006248FEF7B2FB64496048FEF7AAFB322044
:101F100007F068FF304609F0F9FA22462B4609F02F
:101F2000A9F909F0F3FDB8420646E3DD5B4B5748DB
:101F300001261E6043F8446C08F046FD584953489A
:101F4000FEF78FFB31465148FEF7AAFB4F48554933
:101F5000FEF79CFB002640F6FE77B2B203214D4807
:101F600004F06EFF31464948FEF77FFB4A49474877
:101F7000FEF777FB322007F035FF304609F0C6FA4E
:101F800022462B4609F076F909F0C0FDB842064614
:101F9000E3DD454B3D48402201261E60DA6308F030
:101FA00013FD3F493948FEF75CFB31463748FEF7E1
:101FB00077FB36483D49FEF769FB002640F6FE7781
:101FC000B2B20321334804F03BFF31462F48FEF7FD
:101FD0004CFB31492D48FEF744FB322007F002FF4D
:101FE000304609F093FA22462B4609F043F909F0EE
:101FF0008DFDB8420646E3DD284B244840221A6096
:10200000802243F8042C08F0DFFC25491F48FEF726
:1020100028FB01211D48FEF743FB1C482449FEF71D
:1020200035FB002640F6FE77B2B20321194804F0D2
:1020300007FF31461548FEF718FB17491348FEF70E
:1020400010FB322007F0CEFE304609F05FFA224640
:102050002B4609F00FF909F059FDB8420646E3DDB9
:102060000E4B80221A60FFF798FD12490748FEF7D1
:102070000DFB11490548FEF709FB0E490F48FEF715
:1020800005FB0D490D48FEF701FBFEBD009BFF1F40
:10209000D3FE0000A492FF1F8904010088F00F40C6
:1020A00016FE0000E5FE000048F00F40F7FE0000BD
:1020B00009FF000044FC000024FE0000C49AFF1F3A
:1020C00070B58EB006F084FD061E24DD642007F096
:1020D00089FE002401AD665506F07AFD0134262CF8
:1020E0000646F7D1124E0024284631688DF82A4062
:1020F00025220BF0FBF8C0B10E490F48FEF7B1FAEC
:1021000031680D48FEF7C2FA0C490B48FEF7A9FAF0
:102110000948294605E00A490748FEF7B7FA064884
:102120000849FEF7B3FA002000E001200EB070BDB0
:102130008089FF1F1BFF0000009BFF1F3EFF000068
:1021400061FF000097FF000030B54949494885B05C
:10215000FEF787FA46494848FEF783FA00226846A8
:102160004EF66021FEF7C6FD4EF66020FEF772FEC9
:1021700004460D460D20012107F020FD294620468A
:1021800009F0C4FC430803F1376303F5D833B3FB0C
:10219000F0F006F097FB01210D2007F0E3FC4FF46F
:1021A0007A7007F01FFE35493348FEF75AFA4FF4AC
:1021B0007A7007F017FE32492F48FEF752FA4FF4B3
:1021C0007A7007F00FFE2F492A48FEF74AFA40F2CC
:1021D000D2412848FEF764FA2B492748FEF741FA16
:1021E00040F2D2412448FEF740FA4FF47A7007F0EB
:1021F000F9FD26491F48FEF734FA69461D48FEF7E7
:102200003BFA23491C48FEF72CFA69461A4808F0A5
:10221000B9FB4FF47A7007F0E5FD1E491548FEF74B
:1022200035FA1D491448FEF71CFA4FF47A7007F08E
:10223000D9FDFFF745FF18B10E481849FEF726FAF9
:102240000D20002107F08EFC15490A48FEF71EFA02
:1022500013490948FEF71AFA064808F0B5FB064884
:1022600008F0B2FB684608F037F805B030BD00BF93
:10227000BFFF0000009BFF1FC49AFF1FCEFF00009E
:10228000D1FF0000DCFF0000EBFF0000F2FF0000C8
:1022900001000100090001001E00010027000100EB
:1022A00044FC000014282DE9F04105460E46144672
:1022B0001F4601D002281BD12146404804F0DBFA1A
:1022C000002821463D4803DD04F0D5FA3C4B46E0AA
:1022D00004F0D1FA002802DB0020BDE8F081002ED6
:1022E000FADD3846002109F073FF002845D1F3E7F5
:1022F000A0F10B03012B0BD9A0F10F08B8F1010FCE
:102300008CBF4FF000084FF00108B8F1000F17D054
:1023100021462C4804F0AFFA00282146294803DD65
:1023200004F0A9FA284B1AE004F0A5FA0028D3DA41
:10233000002ED1DD3846002109F04AFF50BBCBE723
:1023400020F004050A2DC7D11146204804F093FA65
:10235000002821461D4804DD04F08DFA1C4B18604E
:1023600029E004F088FA0028B6DA002EB4DD3846F9
:10237000002109F02DFFD8B9AEE7384609F032FF49
:1023800001462846FEF7CCFD6423704390FBF3F62C
:102390000B4B0BE0384609F025FF01462846FEF7B7
:1023A000BFFD6423704390FBF3F6074B1E6002E011
:1023B000074BC3F800800120BDE8F0811894FF1F8F
:1023C0005895FF1F0094FF1FE893FF1FEC93FF1F1A
:1023D000FC93FF1F2DE9D841142804460E461F46E2
:1023E000069A01D0022818D1002A00DD12E0002E42
:1023F00054DD3846002109F0EBFE00284ED0384667
:1024000009F0F0FE01462046FEF78AFD6423704382
:1024100090FBF3F2244800212FE0A0F10B03012BE5
:102420000BD9A0F10F08B8F1010F8CBF4FF00008D5
:102430004FF00108B8F1000F17D0002A00DD11E0BD
:10244000002E2BDD3846002109F0C2FE30B338469D
:1024500009F0C8FE01462046FEF762FD6423704382
:1024600090FBF3F21048032107E020F004040A2C4B
:1024700014D1002A03DD0C48022192B209E00029A0
:102480000FDD3846002109F0A3FE58B106480221AD
:10249000424604F0D5FC0120BDE8D8810020BDE80B
:1024A000D8814046BDE8D881A492FF1F10B5084CE2
:1024B0000520214607F0FEFA0320214607F0FAFA2C
:1024C00019204FF4F471BDE8104007F0F3BA00BFD3
:1024D0006CDC020070B506460D460024A1190448C4
:1024E00004F06EF828550134042CF7D1204670BD55
:1024F000D895FF1F70B506460D460024A1192A5D28
:102500000348013404F05FF8042CF7D1204670BD75
:10251000D895FF1FFFFFFFFF2DE9F341604E614992
:10252000614D07466148FEF79CF8306809F000F8F5
:10253000022402460B4600945C48FEF798F85C497A
:102540005A48FEF7A3F84FF003085A495748FEF7D8
:1025500088F851A3D3E90023CDF800805348FEF753
:1025600086F853495148FEF791F853494F48FEF712
:1025700078F8286808F0DCFF009402460B464B48C8
:10258000FEF775F84D494948FEF780F8474808F0CE
:102590001BFA44494A48FEF764F8306808F0C8FF5F
:1025A000009402460B464648FEF761F8404944480D
:1025B000FEF76CF83F494248FEF753F836A3D3E9DB
:1025C0000023CDF800803E48FEF751F838493C48DA
:1025D000FEF75CF838493A48FEF743F8286808F0F7
:1025E000A7FF009402460B463548FEF740F83349F2
:1025F0003348FEF74BF8324808F0E6F9012F44D192
:102600004EF66020FEF726FC09F0C8FA306008F0AC
:102610008FFF009402460B462448FEF74BF83068C3
:1026200008F086FF009402460B462548FEF742F864
:102630003068244909F0A4FD38BB31460C20FFF76F
:1026400059FF4EF66020FEF705FC09F0A7FA286056
:1026500008F06EFF009402460B461448FEF72AF875
:10266000286808F065FF009402460B461448FEF700
:1026700021F82868134909F083FD30B91420294650
:10268000FFF738FF0020FFF747FF012002B0BDE849
:10269000F04107F0A7BB00BF52B81E85EB51D83FF1
:1026A000DC90FF1F3E0001007090FF1F009BFF1F8A
:1026B000890401004C0001006000010045FC00009D
:1026C000C49AFF1F000080BF2DE9F34102ADDFF87F
:1026D000308045F8041D064617460024304609F0B0
:1026E00067FB014654F8080009F04AFD18B1E019EB
:1026F0002946FFF7FFFE0434682CEFD1BDE8FC81CA
:102700008889FF1F2DE9F34102ADDFF8308045F8DD
:10271000041D064617460024304609F049FB0146D1
:1027200054F8080009F02CFD18B1E0192946FFF70C
:10273000E1FE0434682CEFD1BDE8FC818889FF1FDD
:1027400030B540F2836085B006F0BCF842F21070FC
:1027500005F0D2FE4FF4FA70002407F043FB072384
:1027600022462146009401934548464D234604F0F5
:10277000B9FC454841F2883104F044FB43484449E0
:1027800004F07EFA4148434904F04AFA21463F48A2
:1027900004F03FFA3D4804F0D7FA1D20012107F06C
:1027A0000DFA0320214607F009FA0F20012107F056
:1027B00005FA1020012107F001FA0B20012107F092
:1027C000FDF90C20012107F0F9F91420012107F08F
:1027D000F5F90220012107F0F1F90E20012107F09F
:1027E000EDF90A20012107F0E9F90520012107F0A0
:1027F000E5F9294B80221A600620012107F0DEF955
:102800001520012107F0DAF91620012107F0D6F989
:102810001120214607F0D2F9204B40221A600223F2
:102820002B600D20012107F0C9F92220214607F075
:10283000C5F92320214607F0C1F903201849194C96
:1028400007F038F90520164907F034F9172001215F
:1028500007F0B4F904A904232B60002341F8083DD4
:102860001020FFF737FE0298214609F089FC28B9AD
:1028700004A9102041F8044DFFF73CFE05B030BD1F
:10288000E495FF1F84F00F40A492FF1FD893FF1F11
:102890000000484300002F44C4F00F40C8F00F4030
:1028A0006CDC02005C8FC23EF8B507460E46002481
:1028B00041F21055E119325D0348013403F083FE03
:1028C000AC42F7D12046F8BDD895FF1F00B5ADF555
:1028D000A85D85B010B9FDF79BFE09E000216846B0
:1028E00041F210520AF048F93C206946FFF7DCFF3C
:1028F00045B00DF5A05D00BD70B506460D4600243F
:10290000A119044803F05CFE28550134082CF7D1C6
:10291000204670BDD895FF1F70B506460D460024B1
:10292000A119044803F04CFE28550134682CF7D156
:10293000204670BDD895FF1F1FB50446B54900203D
:10294000FFF7C8FD0420B449FFF7C4FD0820B349D0
:10295000FFF7C0FD0C20B249FFF7BCFD1420B149C0
:10296000FFF7B8FD1820B049FFF7B4FD1C20AF49B0
:10297000FFF7B0FD2020AE49FFF7ACFD2420AD49A4
:10298000FFF7A8FD2820AC49FFF7B6FF3C20AB4974
:10299000FFF7C2FFB420AA49FFF7BEFFA9494FF4D1
:1029A0009670FFF7B9FFA8494FF4D270FFF7B4FF54
:1029B000A6494FF40770FFF7AFFFA5494FF4257004
:1029C000FFF7AAFFA3494FF45C70FFF7A5FFA249E8
:1029D0004FF47A70FFF7A0FFA0494FF48C60FFF727
:1029E0009BFF9F494FF49B60FFF796FF9D494FF473
:1029F000AA60FFF781FF9C494FF4AB60FFF77CFFB3
:102A00009A494FF4AC60FFF777FF99494FF4AD60F6
:102A1000FFF772FF97494FF4AE60FFF76DFF4FF479
:102A2000AF609549FFF768FF012C40F0538193494F
:102A30009348FDF716FE91499248FDF712FE204695
:102A4000FEF7F2FB8E4807F0BFFF8E4807F0BCFF91
:102A50002046FEF7E9F88A4807F0B6FF894807F0F4
:102A6000B3FF8949684607F078FC00228749684629
:102A7000FEF744FB684607F02FFC8549684607F0DF
:102A80006CFC00226D496846FEF738FB684607F08B
:102A900023FC8049684607F060FC002268496846CC
:102AA000FEF72CFB684607F017FC7B49684607F0E9
:102AB00054FC002263496846FEF720FB684607F095
:102AC0000BFC7649684607F048FC00225E496846E0
:102AD000FEF714FB684607F0FFFB7149684607F0F4
:102AE0003CFC002259496846FEF708FB684607F09F
:102AF000F3FB6C49684607F030FC002254496846F5
:102B0000FEF7FCFA684607F0E7FB6749684607F0FE
:102B100024FC00224F496846FEF7F0FA684607F0A9
:102B2000DBFB6249684607F018FC00224A49684608
:102B3000FEF7E4FA684607F0CFFB5D49684607F008
:102B40000CFC002245496846FEF7D8FA684607F0B3
:102B5000C3FB5849684607F000FC0022404968461C
:102B6000FEF7CCFA684607F0B7FB5349684607F012
:102B7000F4FB002230496846FEF746FA684607F043
:102B8000ABFB4E49684607F0E8FB00223549684632
:102B9000FEF73AFA684607F09FFB4949684607F096
:102BA000DCFB002230496846FEF72EFA684607F043
:102BB00093FB4449684607F0D0FB00222B49684646
:102BC000FEF722FA684607F087FB3F49684607F0A0
:102BD000C4FB002226496846FEF716FA684607F04D
:102BE0007BFB3A49684607F0B8FB0022214968465A
:102BF000FEF70AFA684607F06FFB3549684607F0AA
:102C0000ACFB68461C492246FEF7FEF9684607F011
:102C100063FB5FE07489FF1FF489FF1FCC95FF1FE2
:102C2000DC90FF1F7090FF1FF493FF1FF890FF1FB1
:102C3000F893FF1FFC90FF1FC094FF1F3C92FF1FE3
:102C4000C894FF1F2C94FF1F7490FF1F6095FF1FF7
:102C5000D091FF1F0091FF1F6891FF1FD892FF1FA7
:102C60004093FF1F9494FF1F3095FF1F9C94FF1FFC
:102C70004095FF1F4895FF1F5095FF1F0CFD00005A
:102C8000009BFF1FC49AFF1F740001008889FF1F6B
:102C90007D0001008F000100A0000100BA000100CA
:102CA000D3000100EE000100080101001B0101003A
:102CB0002E010100410101008D0301009A03010072
:102CC000A7030100B4030100C1030100CE0301000A
:102CD000DB0301001FBD00BF2DE9F34101204EF6CB
:102CE0006028FFF729FE4046FEF7B4F808F056FFCB
:102CF000224F234E386008F01BFC062402460B4688
:102D000000943046FDF7B3FC38681E4D08F010FC07
:102D1000009402460B462846FDF7A9FC39460420DC
:102D2000FFF7E8FB4046FEF795F808F037FF164F2F
:102D3000386008F0FDFB009402460B463046FDF774
:102D400096FC386808F0F4FB009402460B460F4CE2
:102D50002846FDF78CFC39460820FFF7CBFB2146BF
:102D60003046FDF793FC28462146FDF78FFC0120F5
:102D700002B0BDE8F041FFF7DFBD00BFF489FF1FDF
:102D8000009BFF1FC49AFF1FCC95FF1F5401010039
:102D90002DE9F3414EF660270120FFF7CDFD3846BF
:102DA000FEF758F808F0FAFEDFF804813D4EC8F847
:102DB000000008F0BDFB022402460B46009430469A
:102DC000FDF755FCD8F80000374D08F0B1FB009432
:102DD00002460B462846FDF74AFC41461820FFF7FD
:102DE00089FB3846FEF736F808F0D8FEDFF8C480D5
:102DF000C8F8000008F09CFB009402460B463046E1
:102E0000FDF735FCD8F8000008F092FB009402466C
:102E10000B462846FDF72BFC41461C20FFF76AFBBA
:102E20003846FEF717F808F0B9FEDFF88C80C8F8CE
:102E3000000008F07DFB009402460B463046FDF78B
:102E400016FCD8F8000008F073FB009402460B460D
:102E50002846FDF70CFC41462020FFF74BFB384687
:102E6000FDF7F8FF08F09AFE104F386008F060FB9D
:102E7000009402460B463046FDF7F9FB386808F02F
:102E800057FB009402460B462846FDF7F0FB242032
:102E90003946FFF72FFB012002B0BDE8F041FFF7F4
:102EA0004BBD00BF009BFF1FC49AFF1FFC90FF1F7C
:102EB000F493FF1FF890FF1FF893FF1F7FB506469E
:102EC0000120FFF739FD002406254EF66020FDF7AE
:102ED000C1FF08F063FE039008F02AFB009502464C
:102EE0000B460B48FDF7C3FB039808F021FB009548
:102EF00002460B460748FDF7BAFBA01903A90434A4
:102F0000FFF7F8FA082CE0D10120FFF715FD7FBD8F
:102F1000009BFF1FC49AFF1F2DE9F3478046012045
:102F2000FFF70AFD4EF66020FDF794FF08F0EEFD76
:102F3000064631462B48FDF7B3FB2B483146FDF7DB
:102F4000AFFB731C47D04EF66020FDF783FF08F0FF
:102F500025FE814608F0ECFA062704460D460B468E
:102F6000224600971F48FDF7A5FB00971E48224602
:102F70002B46FDF79FFB48461C4909F001F950BB61
:102F80004EF66020FDF766FF08F008FE824608F066
:102F9000CFFA04460D460B46224600971148FDF72E
:102FA00089FB0097104822462B46FDF783FB5046CD
:102FB0000E4909F0E5F870B9304649464246FFF738
:102FC000A1FB3046514608F17802FFF77DFB012056
:102FD00006F008FFA6E7012002B0BDE8F047FFF7C2
:102FE000ABBC00BF009BFF1FC49AFF1F000080BF47
:102FF0002DE9F04FAA4BAB4C04221A6085B000219A
:10300000064640F6FF72A84803F01AFF802501210A
:1030100040F6FF72A44803F013FF022140F6FF724E
:103020002560A14803F00CFF032140F6FF729E4883
:1030300003F006FF9D4B1D60FEF7AFFD622E2CD105
:103040000020FFF779FC27464EF66020FDF702FFCF
:103050000022974B04460D4608F026FDB8B9FEF74E
:103060009CFD2946204608F079FD002182B28E4859
:1030700003F0E6FE002320462946002208F014FD56
:10308000202310B9894A1360DEE73B60DCE7FEF7D6
:1030900084FD844B20221A606FE0632E6DD10020E6
:1030A000FFF74AFC4EF66020FDF7D4FE08F02EFD37
:1030B0008049DFF824A280467F48FDF7D2FA7D4997
:1030C0007E48FDF7CEFA00210A46774803F0B8FEA5
:1030D00075480321002203F0B3FE00275FFA88FB46
:1030E00040E05AF83B3083F800410BE01FFA89F4C6
:1030F000002122466C4803F0A3FE6B4803212246C0
:1031000003F09EFE384608F013FA04460D460221ED
:10311000009122462B4668480391FDF7A8FA0399CF
:103120006648009122462B46FDF7A1FA64496248A1
:10313000FDF797FA62496148FDF793FA49465E4800
:10314000FDF793FA49465D48FDF78FFA5C495A4806
:10315000FDF79CFA59485A49FDF798FA4FF47A70EE
:1031600006F040FE05F0FAF8022800F3568105F05B
:1031700021FD022840F35C814FE10027FEF70DFDA1
:10318000642E01D1FEF71AFDFEF707FD652E14D15E
:103190004C494948FDF765FA48484A49FDF761FA44
:1031A0004FF0020805F0DAF8022800F3478205F034
:1031B00001FD022840F3588140E2662E14D14249B5
:1031C0003D48FDF74EFA3D483F49FDF74AFA4FF0BA
:1031D000020805F0C3F8022800F3308205F0EAFC8B
:1031E000022840F3688129E2672E14D1374932481A
:1031F000FDF737FA31483549FDF733FA4FF0020849
:1032000005F0ACF8022800F3198205F0D3FC02287F
:1032100040F3758112E2682E14D12D492648FDF73E
:1032200020FA26482A49FDF71CFA4FF0020805F05B
:1032300095F8022800F3028205F0BCFC022840F356
:103240008081FBE1692E14D11E491B48FDF709FA64
:103250001A481C49FDF705FA4FF0020805F07EF800
:10326000022800F3EB8105F0A5FC022840F3A081C1
:10327000E4E16A2E32D117491048FDF7F2F90E4801
:103280001449FDF7EEF94FF0020805F067F802283F
:1032900000F3D48105F08EFC022840F3AE81CDE12D
:1032A00088F00F40C8F00F40A492FF1FC4F00F40F9
:1032B0000000F0BF57010100009BFF1FC49AFF1FD1
:1032C00089040100670101007C0101008B010100FC
:1032D0009C010100B3010100B0070100731E202B07
:1032E00040D8A949A948DFF8B082FDF7BAF9A84843
:1032F000A549FDF7B6F94EF66020FDF7ABFD08F0E5
:1033000005FC411C054624D0ACB2FEF746FC00216A
:103310002246A04803F094FD012122469D4803F077
:103320008FFD022122469B4803F08AFD22469948E0
:10333000032103F085FD58F83620012382F8803000
:1033400058F8362015B182F88030D4E782F8003181
:10335000D1E7FEF722FC904B53F83630012283F878
:10336000002134E0A6F12203032B30D8DFF83C82A1
:103370008A4D874807F028FB844807F025FB4EF666
:103380006020FDF767FD08F0C1FB421C1DD0102333
:103390004001C8F8003001D00138FDD1F0B206F08C
:1033A00049FE102304462B6021467948FDF75DF95C
:1033B00021467648FDF759F979497548FDF751F9E5
:1033C00077497248FDF74DF9D3E7FEF7E6FB754BF9
:1033D00004221A60384608F0ABF8022604460D466F
:1033E0000B46224600966A48FDF741F922462B46D5
:1033F00000966648FDF73BF96B496548FDF746F9CD
:1034000069496248FDF742F9614807F0DDFA5F4813
:1034100005B0BDE8F04F07F0D7BAFEF7BEFB5FFA84
:1034200088F85D4B53F83830012283F80021A5E677
:103430005AF83B30012483F880402046FDF79EFB7C
:1034400008F0B6FCFDF75AFD074608F0CBFE014632
:103450004046FDF765FD00218146384608F090FEA4
:1034600000287FF43EAE41E60120FDF787FB08F01F
:103470009FFCFDF743FD074608F05AF804460D4649
:103480000B462246CDF800804148FDF7F0F8224671
:103490002B46CDF800803D48FDF7E9F840493C480F
:1034A000FDF7DFF83E493948FDF7DBF84FF4FA60E5
:1034B00006F098FC76E6FEF7DFF908F075FC0746A3
:1034C00008F036F8044622460B46CDF80080304816
:1034D0000D46FDF7CCF832492D48FDF7C2F82246DB
:1034E0002B46CDF800802948FDF7C1F82C49274824
:1034F000FDF7B7F84FF4FA6006F074FC69E6FDF7E3
:103500006BF8074608F014F8044622460B46CDF83F
:1035100000801F480D46FDF7AAF821491C48FDF719
:10352000A0F822462B46CDF800801848FDF79FF8FA
:103530001B491648FDF795F84FF4FA6006F052FC67
:103540005EE6FDF72DF8074607F0F2FF0446224637
:103550000B46CDF800800E480D46FDF788F810495F
:103560000B48FDF77EF822462B46CDF80080074831
:10357000FDF77DF80A490548FDF773F84FF4FA6046
:1035800006F030FC53E600BFD0010100C49AFF1FD3
:10359000009BFF1FA492FF1FB0070100C4F00F4063
:1035A0008904010084F00F4073FC0000C8F00F4054
:1035B0000120FDF7E3FA08F0FBFB074607F0B8FF30
:1035C00004460D460B462246CDF800801D48FDF707
:1035D0004EF822462B46CDF800801B48FDF747F8F1
:1035E0001A491848FDF73DF818491748FDF739F80A
:1035F0004FF4FA6006F0F6FB30E6FEF771FA074684
:1036000007F096FF04460D460B462246CDF8008093
:103610000C48FDF72CF822462B46CDF800800A48CE
:10362000FDF725F809490748FDF71BF80749064843
:10363000FDF717F8C82006F0D5FB26E6FEF7ADFA31
:103640004CE600BF009BFF1FC49AFF1F89040100C6
:103650002DE9F04FADF51D5D89B004AF3220002596
:10366000C7F848D006F0BEFBB44BC7F8EC501B6857
:103670000120C7F8F030D7F8F03008F081FEC7F825
:103680009C000420C7F8F450C7F8F85008F078FE02
:10369000AB4BC7F898001B68073323F00703ADEB6B
:1036A000030DA84B1B687B661B01083304ACADEB14
:1036B000030D04AEC7F8C46003E0002106F04DFE20
:1036C0000135D7F8C46006EB05107E6EB542F4D123
:1036D0009B4B9C4E1A682046002109F04DFA0025AC
:1036E00007E0D7F8C41001EB0510974906F06DFE0E
:1036F000013533689D42F4DB0020FFF71DF9934B41
:1037000010251D600A2006F06DFB914B91491D604C
:1037100007F5C87006F021FE40F2F63563E007F5C4
:10372000C87006F0E8FEC72842F36C8602F0EABDD6
:103730000A2006F057FB56E087498848FCF7A6FFA9
:1037400085498748FCF7A2FF4DE0FCF7C5FF4AE03A
:10375000FEF7FAFC47E0FCF7E5FF44E0FDF722F84E
:1037600041E00120FFF7E8F83DE0FFF7B5FA3AE065
:1037700000200AE0FFF70CFB35E03C2001E04FF4AD
:103780009670FFF7C9FB2EE00120FEF7C5FE2AE088
:103790004FF40770F5E74FF45C70F2E74FF48C607C
:1037A000EFE7FCF735FF1EE00120FFF78FF81AE086
:1037B000282001E04FF4AA60FFF780FB13E04FF4EC
:1037C000AB60F9E74FF4AC60F6E74FF4AD60F3E7B8
:1037D0004FF4AE60F0E74FF4AF60EDE7FDF7A4F90A
:1037E00001E005F07BFB04F09BFD5B2802F02C86DA
:1037F00005F006FA5B2842F00F8602F025BE05F0C0
:10380000FFF95B280CBF0225002500E0012504F02C
:103810005FFD05F0DDF9012D0DD0022D58D0514985
:103820004E48FCF733FF00264D484E49FCF72EFF6B
:10383000C7F8C060AFE049484FF4FA6106F0EEFF08
:103840003F4B46481B6821212246002606F0E8FF30
:1038500041F28735C7F8C060A35D7B2B1BD104E024
:10386000484606F0EBFD013607E0D7F8C010D7F860
:10387000C4204FEA011802EB0809A15D7D29EFD1B0
:10388000D7F8C43003EB080006F0D8FDD7F8C01015
:103890000131C7F8C0100136AE42DDDD002412E070
:1038A000D7F8C460302106EB041507F5E07006F088
:1038B000A7FD07F5E071284606F0E3FD07F5E07087
:1038C00006F00AFD0134D7F8C060B442E8DB62E0DC
:1038D00023484FF47A7106F0A1FF194B20481B686A
:1038E00021212246002606F09BFF41F28735C7F8CA
:1038F000C060A35D7B2B1BD104E0484606F09EFD13
:10390000013607E0D7F8C010D7F8C4204FEA0118F5
:1039100002EB0809A15D7D29EFD1D7F8C43003EB94
:10392000080006F08BFDD7F8C0100131C7F8C010B1
:103930000136AE42DDDD002429E000BFB89AFF1F4A
:10394000F089FF1F7C89FF1F24FE0000C8F00F4094
:10395000C4F00F401C000100D3010100009BFF1FB9
:10396000C49AFF1FE3010100D7F8C460302106EBC1
:10397000041507F5E07006F043FD07F5E0712846F1
:1039800006F07FFD07F5E07006F0A6FC0134D7F8DD
:10399000C060B442E8DB7A497A4D7B48FCF761FEAF
:1039A00077497A48FCF75DFE286807F0C1FD0224DC
:1039B00002460B4600947448FCF759FE286807F04D
:1039C000B7FD009402460B467048FCF750FE704964
:1039D0006D48FCF746FE03246D496C48FCF741FE38
:1039E000009465A3D3E900236748FCF740FE62A377
:1039F000D3E9002300946548FCF739FE6549634824
:103A00000026FCF72EFE60486249FCF72AFEC7F844
:103A1000B860C7F8A060C7F8CC600D26FE65012627
:103A2000FE6607F5BE7600243E665B495748FCF704
:103A300018FE55485849FCF714FE002602F0FCBB5E
:103A4000D7F89C0008F0A4FCD7F894603501D7F8AB
:103A5000C460731907F1F40A9C68601C08F090FCBC
:103A60007159C7F89C00224609F096FCD7F89C6073
:103A70000025355507F5C27007F5E87403F0B0F876
:103A8000D7F89C1022464FF4167307F5C27002F067
:103A90008AFFD7F89C10A8420CBF22462A46386EEF
:103AA00002F0FDFE3E6E96E803008AE8030000285F
:103AB00002F0D184C9B902F0CEBCD7F8C4103348A3
:103AC00001EB04152946FCF7D7FD01342E482946A1
:103AD000FCF7D2FDB442F0D1FEF75FF807F5C870ED
:103AE00006F0FAFB002502F0FCBB07F1FC06FD67BF
:103AF000C7F8D46007F5BA742849504602F020FF91
:103B0000014607F5D07006F028FC2549504602F022
:103B10000DFF5046234902F009FF234B08B11860FE
:103B200001E001221A602149214D504602F0FEFEBB
:103B30002049C7F8C800504602F0F8FE1E49F86652
:103B4000504602F0F3FE1D49B860504602F0EEFE0A
:103B50001B497862504602F0E9FE002808BF0120A8
:103B6000B8651849504602F0E1FE68BB0D232B6092
:103B70002FE000BFAFF3008052B81E85EB51D83F55
:103B800009020100DC90FF1FC49AFF1F009BFF1F6A
:103B9000180201002E02010086FC00003B02010019
:103BA000470201004E0201007889FF1F5702010001
:103BB0006489FF1F66020100730201008602010092
:103BC00096020100A00201005046834902F0AEFEB9
:103BD00028608249504602F0A9FE002808BF0A204A
:103BE000F8627F49504602F0A1FE002808BF10206D
:103BF000B8627C49504602F099FE002808BF0320B5
:103C000078657949504602F091FE002808BF0320EC
:103C100038657649504602F089FE7549386250464B
:103C200002F084FE7349C7F88C00504602F07EFE15
:103C300071497864504602F079FE7049C7F88000F7
:103C4000504602F073FE6E49F861504602F06EFE77
:103C500007F58279C7F8D000514607F1FC00694AA0
:103C600002F056FE07F5867648465146664A02F04F
:103C70004FFE3046C7F8DC60514607F58A76634A46
:103C800002F046FE07F58E7B30465146604AC7F883
:103C9000D86002F03DFE5F4A5F4E5846514602F042
:103CA00037FE5E49504602F041FE5D49C7F8BC0050
:103CB000504602F03BFE5B49C7F8B400504602F0A4
:103CC00035FE5949C7F8B000504602F02FFE57495B
:103CD000C7F8AC00504602F029FE5549C7F8A800C5
:103CE000504602F023FE5349C7F8A400504602F0A4
:103CF0001DFE5146C7F888004F4A07F5927002F042
:103D000007FE07F5967051464C4A02F001FE07F592
:103D10009A7051464A4A02F0FBFD07F59E705146E3
:103D2000484A07F1E00502F0F3FD07F5A27051469D
:103D3000454A02F0EDFD28465146444A02F0E8FDAE
:103D400095E80300424A86E803002846514602F0FF
:103D5000DFFD95E803003F4E3F4A86E80300284612
:103D6000514602F0D5FD95E803003C4E3C4A86E8FA
:103D7000030007F5A670514602F0CAFD07F5AA70C8
:103D80005146384A02F0C4FD07F5AE705146364A36
:103D900002F0BEFD002507F5B2705146334A02F02D
:103DA000B7FDBD66C7F8845088E0294607F59270D4
:103DB00002F061FD07F5AA7106462A46204602F088
:103DC0004CFD2046FCF783FCBB6E4FF0000800FB67
:103DD0000633BB6646465AE0A0020100B502010068
:103DE000BF020100CA020100DB020100EA02010079
:103DF00009030100140301001E0301002C0301004C
:103E00003703010042030100520301005E03010079
:103E10006D0301007B0301001894FF1F890301005B
:103E200096030100A3030100B0030100BD030100DC
:103E3000CA030100D7030100E4030100EB03010002
:103E4000F7030100030401000F0401001B0401003B
:103E50002B0401000094FF1F3C040100EC93FF1FA2
:103E60004C040100560401006204010070040100CA
:103E7000204607F5AA712A4602F0EFFC414620468B
:103E800002F0F9FC0028C8BF013608F101082046FD
:103E900007F5AA712A4602F0E0FC2046FCF717FC61
:103EA0008045E5DB294607F5927002F0E4FCD7F87F
:103EB000841006FB0011C7F88410013507F59270D5
:103EC000FCF705FC8542FFF670AFD7F8980008F0C4
:103ED0005FFA0421D7F8840008F0DCF97E49C7F8BE
:103EE00098007E48FCF7BDFB7B497D48FCF7B9FB99
:103EF0000520FCF761FF7B49C7F890007748FCF785
:103F0000B0FB78497648FCF7ACFB07F5D0717348F5
:103F100006F038FD07F5D071714806F033FD72499F
:103F20006E48FCF79EFB6E486F49FCF79AFBD7F88A
:103F3000D030012B02D11846FDF776F9D7F8A860EA
:103F40000096D7F8A4300193D7F88860029607F559
:103F5000E075D7F8B020D7F8AC30D7F8BC00D7F868
:103F6000B410FDF727FA6149284606F0F6F9D7F8AC
:103F7000D46096E80300002213468DE80300029502
:103F80005B495C48FCF7C4FC284606F0A5F95A4991
:103F9000284606F0E2F9D7F8DC6096E80300002234
:103FA00013468DE80300029554495548FCF7B0FCD0
:103FB000284606F091F95349284606F0CEF9D7F87D
:103FC000D86096E80300002213468DE803000295AE
:103FD0004D494E48FCF79CFC284606F07DF94C49BB
:103FE000284606F0BAF99BE80300002213468DE844
:103FF0000300029547494848FCF78AFC284606F02A
:104000006BF9464B4649D3F80080464B28461E685C
:1040100006F0A3F999E803008DE803000020334679
:10402000014642460295404EFCF772FC284606F0D7
:1040300053F93368012B17DD3C492948FCF711FB84
:104040003A492648FCF70DFB31682548FCF70DFB83
:1040500031682248FCF709FB35492148FCF701FB90
:104060001E483349FCF7FDFA324B786C00261E607F
:10407000314B1E60314B1E60314B1E60314B1E6058
:10408000314B1E60314B1E60314B1E60314B1E6048
:10409000314B1E60FDF7A2F8D7F88010D7F8C82082
:1040A00030234B43013B3B644FF47A735343FB6033
:1040B00007F1EC060023C7F8D030C7F8A830C7F8DE
:1040C000AC30C7F8B030C7F8B43007F5B67BC7F8E6
:1040D000A46001F0F2BF00BF0CFD0000009BFF1FB9
:1040E000C49AFF1F78040100880401004203010004
:1040F000D091FF1F6095FF1F5E030100C894FF1F52
:104100003C92FF1F6D0301006891FF1F0091FF1F8C
:104110007B0301004093FF1FD892FF1FF489FF1F0C
:1041200052030100CC95FF1F7889FF1F8B0401000B
:10413000890401000894FF1FD495FF1F3892FF1FC8
:104140001094FF1F2094FF1FBC93FF1FB094FF1F0C
:10415000BC94FF1F0C94FF1F2494FF1F584607F5C3
:10416000AE71324602F079FB5846012102F083FB22
:104170008046002859D13246204607F5AE7102F03C
:104180006CFB4146204602F080FB0146284606F0C3
:10419000E4F82846BC4906F082F910F1000818BF7F
:1041A0004FF00108284606F097F8B8F1000F3CD010
:1041B0003246204607F5AE7102F04FFB0121204642
:1041C00002F059FBFCF7D0FCB04BD7F8D0101B68BD
:1041D000013B994229D1AE49DFF8DC92AD48FCF7AA
:1041E00040FAAB49AC48FCF73CFAD9F8000007F0BC
:1041F0009FF94FF0020802460B46CDF80080A54813
:10420000FCF735FAA549A348FCF72BFAD9F80000CA
:1042100007F08EF9CDF8008002460B469E48FCF769
:1042200026FA9D489D49FCF71CFA584607F5AE71E1
:10423000324602F012FB5846012102F01CFB804678
:10424000002859D13246204607F5AE7102F005FB31
:104250004146204602F019FB0146284606F07DF84B
:1042600028468F4906F01BF910F1000818BF4FF0DF
:104270000108284606F030F8B8F1000F3CD032466D
:10428000204607F5AE7102F0E8FA0121204602F05F
:10429000F2FAFCF76EFC7D4BD7F8D0201B68013B8F
:1042A0009A4229D17F49DFF814927A48FCF7D9F96C
:1042B0007C497948FCF7D5F9D9F8000007F038F9BE
:1042C0004FF0020802460B46CDF800807148FCF71B
:1042D000CEF972496F48FCF7C4F9D9F8000007F02D
:1042E00027F9CDF8008002460B466B48FCF7BFF972
:1042F00069486A49FCF7B5F9584607F5AE71324688
:1043000002F0ABFA5846012102F0B5FA80460028C7
:1043100059D13246204607F5AE7102F09EFA414669
:10432000204602F0B2FA0146284606F016F8284662
:104330005D4906F0B4F810F1000818BF4FF001080D
:10434000284605F0C9FFB8F1000F3CD032462046A0
:1043500007F5AE7102F081FA0121204602F08BFAD6
:10436000FDF716FC494BD7F8D0101B68013B99426A
:1043700029D14E49DFF848914648FCF772F94B497C
:104380004548FCF76EF9D9F8000007F0D1F84FF076
:10439000020802460B46CDF800803E48FCF767F95C
:1043A0003E493C48FCF75DF9D9F8000007F0C0F839
:1043B000CDF8008002460B463748FCF758F93648DE
:1043C0003649FCF74EF9584607F5AE71324602F011
:1043D00044FA5846012102F04EFA804600287AD16C
:1043E0003246204607F5AE7102F037FA41462046C4
:1043F00002F04BFA0146284605F0AFFF28462C494B
:1044000006F04DF810F1000818BF4FF001082846DB
:1044100005F062FFB8F1000F5DD03246204607F587
:10442000AE7102F01AFA0121204602F024FAFDF7DB
:1044300047FA164BD7F8D0201B68013B9A424AD165
:104440001C49DFF880901348FCF70BF91949124812
:10445000FCF707F9D9F8000007F06AF84FF00208F6
:1044600002460B46CDF800800A48FCF700F90B49DC
:104470000848FCF7F6F8D9F8000007F059F8CDF82D
:10448000008002460B461FE0970401007889FF1F59
:10449000A9040100C49AFF1F009BFF1F89040100AB
:1044A000D9040100BE040100CD040100E5040100AF
:1044B00000050100040501003892FF1F1094FF1F42
:1044C0002094FF1FBC93FF1FC148FCF7D0F8C048E1
:1044D000C049FCF7C6F8584607F5AE71324602F0FF
:1044E000BCF95846012102F0C6F98046002840F088
:1044F000E4803246204607F5AE7102F0AEF941463F
:10450000204602F0C2F90146284605F026FF28465B
:10451000B14905F0C4FF10F1000818BF4FF00108C1
:10452000284605F0D9FEB8F1000F00F0C6803246EB
:10453000204607F5AE7102F090F90121204602F005
:104540009AF9FCF71BFBA54BD7F8D0101B68013B71
:10455000994240F0B280DFF8A492A149A148FCF74B
:1045600080F89F499A48FCF77CF8D9F80000FCF7DE
:10457000C5FC06F0DDFF4FF0020802460B46CDF801
:1045800000809848FCF773F892499648FCF769F860
:10459000D9F80000DFF86892FCF7B0FC06F0C8FF1D
:1045A000CDF8008002460B468948FCF760F889493F
:1045B0008748FCF756F88C498A48FCF752F88A4934
:1045C0008348FCF74EF8D9F80000FCF797FC06F09A
:1045D000AFFFCDF8008002460B468248FCF747F853
:1045E0007C498048FCF73DF8D9F80000DFF81492C8
:1045F000FCF784FC06F09CFFCDF8008002460B46D9
:104600007348FCF734F873497148FCF72AF8774986
:104610007448FCF726F875496D48FCF722F8D9F87C
:104620000000FCF76BFC06F083FFCDF8008002462B
:104630000B466C48FCF71BF866496A48FCF711F812
:10464000D9F80000DFF8C091FCF758FC06F070FFC5
:10465000CDF8008002460B465D48FCF708F85D493E
:104660005B48FBF7FEFF62495E48FBF7FAFF6049D3
:104670005748FBF7F6FFD9F80000FCF73FFC06F0BF
:1046800057FFCDF8008002460B465648FBF7EFFF78
:1046900050495448FBF7E5FFD9F80000FCF72EFC21
:1046A00006F046FFCDF8008002460B464848FBF76F
:1046B000DEFF47484749FBF7D4FF584607F5AE7180
:1046C000324602F0CAF85846012102F0D4F880467A
:1046D000002840F0F4803246204607F5AE7102F023
:1046E000BCF84146204602F0D0F80146284605F0C5
:1046F00034FE28463F4905F0D2FE10F1000818BFED
:104700004FF00108284605F0E7FDB8F1000F00F072
:10471000D6803246204607F5AE7102F09EF80121A0
:10472000204602F0A8F8FCF729FA2C4BD7F8D02045
:104730001B68013B9A4240F0C280DFF8C0902E49CE
:104740002848FBF78EFF2C492148FBF78AFFD9F850
:10475000000006F0EDFE4FF0020802460B46CDF8D1
:1047600000802048FBF783FF1A491E48FBF779FFBA
:10477000D9F80000DFF8889006F0DAFECDF8008066
:1047800002460B461248FBF772FF12491048FBF72E
:1047900068FF15491348FBF764FF13490C48FBF702
:1047A00060FFD9F8000006F0C3FECDF80080024695
:1047B0000B460C48FBF75BFF06490A48FBF751FF25
:1047C000D9F80000DFF83C9006F0B2FE1EE000BF12
:1047D000009BFF1F89040100F90201007889FF1F77
:1047E0000B050100C49AFF1F1E05010023050100EF
:1047F000280501002D05010041050100B094FF1FAF
:10480000BC94FF1F0C94FF1F2494FF1FCDF8008061
:1048100002460B46B048FBF72AFFB049AE48FBF70B
:1048200020FFAF49AF48FBF71CFFAD49AA48FBF793
:1048300018FFD9F8000006F07BFECDF80080024694
:104840000B46A848FBF713FFA449A648FBF709FF4E
:10485000D9F80000DFF8B09206F06AFECDF80080CB
:1048600002460B469C48FBF702FF9C499A48FBF71F
:10487000F8FE9D499B48FBF7F4FE9B499648FBF7E1
:10488000F0FED9F8000006F053FECDF80080024695
:104890000B469448FBF7EBFE90499248FBF7E1FE8C
:1048A000D9F8000006F044FECDF8008002460B4621
:1048B0008948FBF7DCFE88488849FBF7D2FE58465A
:1048C00007F5AE71324601F0C8FF5846012101F0EC
:1048D000D2FF804600284FD13246204607F5AE7100
:1048E00001F0BBFF4146204601F0CFFF01462846BC
:1048F00005F033FD28467D4905F0D1FD10F1000992
:1049000018BF4FF00109284605F0E6FCB9F1000F89
:1049100032D03246204607F5AE7101F09EFF0221EB
:10492000204601F0A8FF5FFA80F94146484605F0AD
:1049300045F9484605F07EFB6D4BD7F8D0101B6853
:10494000013B9942804617D16A496648FBF789FEC8
:1049500068496148FBF785FE41466248FBF785FEE2
:104960005E496048FBF77DFE41465B48FBF77DFEF4
:1049700059485A49FBF775FE584607F5AE7132465D
:1049800001F06BFF5846012101F075FF80460028B9
:104990004FD13246204607F5AE7101F05EFF414629
:1049A000204601F072FF0146284605F0D6FC284655
:1049B000514905F074FD10F1000918BF4FF00109CD
:1049C000284605F089FCB9F1000F32D03246204666
:1049D00007F5AE7101F041FF0221204601F04BFFC7
:1049E0005FFA80F94146484605F0E8F8484605F088
:1049F000D9F83F4BD7F8D0201B68013B9A4280463C
:104A000017D13E493748FBF72CFE3C493248FBF7AB
:104A100028FE41463348FBF728FE30493148FBF772
:104A200020FE41462C48FBF720FE2B482B49FBF784
:104A300018FE584607F5AE71324601F00EFF584693
:104A4000012101F018FF804600285FD13246204640
:104A500007F5AE7101F001FF4146204601F015FF58
:104A60000146284605F079FC2846254905F017FD42
:104A700010F1000818BF4FF00108284605F02CFC83
:104A8000B8F1000F42D03246204607F5AE7101F072
:104A9000E4FE0221204601F0EEFE3246804607F594
:104AA000AE71204601F0D9FE0321204601F0E3FE5D
:104AB0005FFA88F881460121404605F07FF8114AE7
:104AC00052F8382019F0FF0F4FF0010314BF82F89D
:104AD000803082F8003119E0009BFF1F890401003B
:104AE00023050100C49AFF1F280501005805010095
:104AF0007889FF1F6405010073050100800501002E
:104B000090050100B00701002494FF1F584607F5E7
:104B1000AE71324601F0A1FE5846012101F0ABFE14
:104B20008146002867D13246204607F5AE7101F074
:104B300094FE4946204601F0A8FE0146284605F0AD
:104B40000CFC2846A94905F0AAFC10F1000818BF82
:104B50004FF00108284605F0BFFBB8F1000F4AD01E
:104B60003246204607F5AE7101F077FE022120465D
:104B700001F081FE3246804607F5AE71204601F015
:104B80006CFE0321204601F076FE3246844607F58E
:104B9000AE712046C7F800C001F05FFE0421204638
:104BA00001F069FE3246C7F8C80007F5AE7120462D
:104BB00001F053FE0521204601F05DFE5FFA88F802
:104BC0000346012140467B6004F0F8FF4046D7F8D9
:104BD000C81004F06FFFD7F800C04046614605F0EA
:104BE00009F87B68184605F0FDF84046494605F08F
:104BF00001F8FDF75BFC584607F5AE71324601F04F
:104C00002CFE5846012101F036FE8046002840D196
:104C10003246204607F5AE7101F01FFE41462046A0
:104C200001F033FE0146284605F097FB28467049FF
:104C300005F035FC10F1000818BF4FF001082846B8
:104C400005F04AFBB8F1000F23D0D7F8D03003BBF2
:104C500068496948FBF705FD66496848FBF701FDAF
:104C6000D7F8D02066492846FCF744F82946624820
:104C700005F088FE63496048FBF7F3FC29465F486E
:104C800005F080FE5D485F49FBF7EBFC284605F028
:104C900023FB013600E0002607F5AE70FBF717FD99
:104CA0008642FFF65BAAFA6A574ED1B230680022FC
:104CB00002F00EFDBB6A3068D9B2002202F0E4FCBB
:104CC000796D052919D8DFE801F003070A0D1013E3
:104CD000002130680A460EE0306801210AE03068A1
:104CE000022107E03068032104E03068042101E07C
:104CF00030680521002202F0D3FC3B6D052B19D84A
:104D0000DFE803F003070A0D1013002130680A469C
:104D10000EE0306801210AE03068022107E03068C7
:104D2000032104E03068042101E0306805210022FD
:104D300002F0C2FC022005F055F8344B1868FCF76D
:104D4000DDF84FF00009C7F8BC00C7F84C90C7F871
:104D50008890C7F8C89081E3D7F8CC60002E31D195
:104D6000D7F8C860002E3ED103F078FBFE6D284BCB
:104D7000F2B253F83230012283F8002105F014F822
:104D8000D7F880100029064608DB224B4A1E9A42BB
:104D900004D8214821493A6C05F00DFD05F004F8CE
:104DA0007A6C801B9042F9D3D7F88060002E0CDB20
:104DB000184B721E9A4208D819493A6C194805F0E6
:104DC000FAFC02E0D7F8C86076BB204607F5AA7166
:104DD000D7F8CC2001F041FD2046FBF778FC0126F6
:104DE000C7F8A00021E0D7F8CC601EE09E050100C6
:104DF000AB050100B0050100C49AFF1F009BFF1F17
:104E0000C0C62D0088040100B494FF1FB094FF1F9A
:104E1000B007010054555505A893FF1F5105000028
:104E20007D050000E090FF1F0026D7F8CC20BE676C
:104E3000204607F5AA7101F010FDD7F8A460336889
:104E4000D7F8A060B3FBF6F106FB1131204601F064
:104E500012FD8D4BD7F8CC20186007F5A6712046BF
:104E600001F0FBFCD7F8A4603368D7F8A060B3FB6F
:104E7000F6F106FB1131204601F0FDFCD7F8C81011
:104E8000824BB142186080F21582002940F08C817B
:104E9000D7F8CC20204607F5B27101F0DEFCD7F838
:104EA000C810204601F0F1FC014607F5D87005F066
:104EB00054FA07F5D870764905F0F1FA20B1D7F821
:104EC0009060013640F00F81D7F8D060002E01F0DD
:104ED000D58208E16F497048FBF7C3FB01266F4894
:104EE0006C49FBF7BEFBFE64D7F8906001360CD12D
:104EF0006B496948FBF7B5FB4FF0FF3667486849D7
:104F0000FBF7AFFBC7F8906048E10520FBF754FFC3
:104F1000C7F890000130EBD062495F48FBF7A1FB76
:104F200060495E48FBF79DFB07F5D8715A4805F0CC
:104F300029FD07F5D871594805F024FD5A4956480E
:104F4000FBF78FFB58495548FBF78BFB57495248F5
:104F5000FBF787FB55495148FBF783FBD7F8CC207B
:104F6000204607F5B27101F078FC0121204601F0DE
:104F70008CFC01464848FBF774FBD7F8CC20204650
:104F800007F5B27101F069FC0121204601F07DFCBA
:104F900001464248FBF765FB43493F48FBF761FB8D
:104FA00041493E48FBF75DFB07F5D870404905F0E5
:104FB00076FA30B13F493848FBF753FB37483D4953
:104FC00010E007F5D8703C4905F069FA68B13B4834
:104FD000FBF7F2FE0130FAD139492F48FBF741FBCC
:104FE0002E483749FBF73DFB3DE007F5D8703549C2
:104FF00005F055FA064680B13048FBF7DDFE012882
:1050000008D131492448FBF72CFB2F492348FBF7F3
:1050100028FBC3E00130EFD1DEE707F5D8702B495C
:1050200005F03DFAF8B1324628462449FBF762FE06
:105030001E491948FBF715FB1C491848FBF711FBE3
:105040002946164805F09EFC2946134805F09AFCAF
:105050001F491148FBF705FB10481D49FBF701FBF1
:10506000284605F039F907F59270FBF730FBD7F8C1
:10507000CC600138864208482ED01649FBF7F1FA79
:10508000064814492DE000BFD095FF1F1494FF1F60
:1050900024FE0000B9050100C49AFF1F009BFF1FFA
:1050A000C5050100CA05010088040100CCFF00000D
:1050B0001C000100CD050100D1050100C0C62D0076
:1050C000D7050100DD050100E5050100F10501003E
:1050D000CE050100890401006D49FBF7C2FA6D4855
:1050E0006B49FBF7BEFAD7F8CC1007F5967001F0C4
:1050F000C2FBD7F8CC20D7F8BC30D7F88C10B861F9
:10510000FDF7D0F8D7F8CC10804607F59A7001F07B
:10511000B2FBD7F8CC20D7F8BC30D7F88C10786128
:10512000FDF7C0F8D7F8CC10786707F59E7001F04E
:10513000A2FBD7F8CC20D7F8BC30D7F88C10386158
:10514000FDF7B0F8D7F8CC10386707F5A27001F07A
:1051500092FBD7F88C10D7F8CC20D7F8BC30386049
:10516000FDF7A0F8064607F5D87005F0B5F807F189
:10517000A8010EC93963D7F8B4107A63BB63F96329
:10518000D7F800C03A697B69B969C7F8A8C0C7F801
:10519000AC20C7F8B030C7F8B41009E007F5D870F4
:1051A00005F09AF800F090BF00263E677E67B04693
:1051B000DFF8FCC0D7F8BC30DCF80000D7F88C1062
:1051C000D7F8CC20C7F800C0FDF76CF8D7F800C0BE
:1051D000DCF80030023B122B3BD8DFE803F0283A22
:1051E0003A3A3A3A3A3A2E161C3A340A103A3A3ACD
:1051F0002200294B29481A88032101F021FE264B61
:1052000026481A88032101F01BFE234B23481A88E5
:10521000032101F015FE204B20481A88032101F0DC
:105220000FFE1F4B1D481A88002101F009FE1C4B80
:105230001A481A88002101F003FE1A4B17481A88F1
:10524000022101F0FDFD174B14481A88022101F0DC
:10525000F7FD154A042313602022013AFDD1134AB9
:105260001360D7F8C8304BBB19460D4B0B481A8852
:1052700001F0E6FD084B09481A88032101F0E0FD22
:10528000084B06481A88022101F0DAFD16E000BF3B
:10529000EE050100009BFF1FE893FF1FA492FF1F74
:1052A0005895FF1FFC93FF1F88F00F4084F00F40BC
:1052B000D095FF1F00263E677E67B046984B994900
:1052C0001A6808680028FBD0D2F1010238BF00221A
:1052D000002AF5D1944B1868944B197802F004FA1F
:1052E000934BB96F1860934B102201291A6050D16B
:1052F000F96B914BCAB2B96F53F83220B8F1010F74
:1053000082F8001106D1D7F8B410CAB253F832208F
:1053100082F88080B96BCAB253F83230012283F828
:1053200000217A6F012A08D1D7F8B030796FDAB24C
:10533000814B53F8323083F88010796B7E4BCAB2C0
:10534000012153F8322082F800113A6F8A4207D1C6
:10535000D7F8AC10CAB2396F53F8322082F88010F7
:10536000396BCAB253F832300122964283F80021D9
:1053700007D1D7F8A830DAB26F4B53F8323083F840
:1053800080606E4A042313602022013AFDD16C4AEA
:105390001360FE695EB9654B1B68222B02D0232B7C
:1053A00005D101E0674B00E0674B1E6800E0002676
:1053B000664B1B680BB35E4BD7F88820D7F8981064
:1053C0001B6851F822007B6006F0F2FC7B68804687
:1053D000184606F0EDFC314606F034FC0146404626
:1053E00006F032FC06F0FEFED7F88810D7F8986079
:1053F00046F821000131C7F8881072B6484BD7F83B
:10540000C82000261E60474B01321E60C7F8C82026
:1054100062B6D7F8A4100B6801330B6007F59270E1
:10542000D7F8CC1001F027FAD7F8CC20804607F542
:10543000AA71204601F011FA2046FBF748F9D7F887
:10544000C82000FB08F0824206D1D7F8CC30C7F85C
:10545000C8600133C7F8CC3009F10109BE6EB1450F
:10546000FFF67AAC396A3A4E00913068D7F8CC2012
:10547000D7F8BC30D7F88C10FCF7ACFF3368D7F8FE
:10548000B4602D4A9E4205D0F1B2012652F8311087
:1054900081F80061D7F8B0609E4205D0F1B252F8B1
:1054A0003120012182F80011D7F8AC60224A9E42D7
:1054B00005D0F1B2012652F8311081F80061D7F819
:1054C000A8609E4205D0F1B252F83120012182F845
:1054D00000110128184A0DD1184E042131602026F0
:1054E000013EFDD1DBB2164E52F83330316083F805
:1054F000800005E0DBB252F83330012283F800214E
:10550000144805F04FF9144805F04CF9044BD7F84E
:10551000A41000261E60034B1E600E6000F0B7BD95
:10552000F490FF1FA494FF1FB494FF1F1494FF1F57
:105530005C95FF1FC4F00F40B007010088F00F40DA
:1055400084F00F40A894FF1FAC94FF1FD095FF1F5D
:105550006489FF1FA893FF1FE090FF1F584607F5BF
:10556000AE71324601F079F90121584601F083F914
:105570000128804659D13246204607F5AE7101F028
:105580006CF90021204601F080F90146284604F01C
:10559000E4FE2846BE4904F082FF10F1000918BF5E
:1055A0004FF00109284604F097FEB9F1000F3CD0F6
:1055B0003246204607F5AE7101F04FF941462046CC
:1055C00001F059F9FBF7D0FAB24BD7F8D0201B689D
:1055D000013B9A4229D1B049DFF8E492AF48FBF78A
:1055E00040F8AD49AE48FBF73CF8D9F8000005F0AB
:1055F0009FFF4FF0020802460B46CDF80080A748F7
:10560000FBF735F8A749A548FBF72BF8D9F80000B8
:1056100005F08EFFCDF8008002460B46A048FBF750
:1056200026F89F489F49FBF71CF8584607F5AE71CE
:10563000324601F012F90121584601F01CF9012807
:10564000804659D13246204607F5AE7101F005F982
:105650000021204601F019F90146284604F07DFE9C
:105660002846914904F01BFF10F1000918BF4FF0C4
:105670000109284604F030FEB9F1000F3CD0324653
:10568000204607F5AE7101F0E8F84146204601F0EA
:10569000F2F8FBF76EFA7F4BD7F8D0101B68013B8E
:1056A000994229D18149DFF81C927C48FAF7D9FF49
:1056B0007E497B48FAF7D5FFD9F8000005F038FF9E
:1056C0004FF0020802460B46CDF800807348FAF707
:1056D000CEFF74497148FAF7C4FFD9F8000005F00D
:1056E00027FFCDF8008002460B466D48FAF7BFFF52
:1056F0006B486C49FAF7B5FF584607F5AE7132466C
:1057000001F0ABF80121584601F0B5F801288046B8
:1057100059D13246204607F5AE7101F09EF80021BE
:10572000204601F0B2F80146284604F016FE28464D
:105730005F4904F0B4FE10F1000918BF4FF00109F1
:10574000284604F0C9FDB9F1000F3CD0324620468E
:1057500007F5AE7101F081F84146204601F08BF863
:10576000FCF716FA4B4BD7F8D0201B68013B9A4246
:1057700029D15049DFF850914848FAF772FF4D4956
:105780004748FAF76EFFD9F8000005F0D1FE4FF058
:10579000020802460B46CDF800804048FAF767FF42
:1057A00040493E48FAF75DFFD9F8000005F0C0FE19
:1057B000CDF8008002460B463948FAF758FF3848C2
:1057C0003849FAF74EFF584607F5AE71324601F0F8
:1057D00044F80121584601F04EF8012880467BD15B
:1057E0003246204607F5AE7101F037F80021204619
:1057F00001F04BF80146284604F0AFFD28462E493B
:1058000004F04DFE10F1000918BF4FF001092846C1
:1058100004F062FDB9F1000F5ED03246204607F574
:10582000AE7101F01AF84146204601F024F8FCF769
:1058300047F8184BD7F8D0101B68013B99424BD161
:105840001E49DFF888901548FAF70BFF1B491448EA
:10585000FAF707FFD9F8000005F06AFE4FF00208DA
:1058600002460B46CDF800800C48FAF700FF0D49C0
:105870000A48FAF7F6FED9F8000005F059FECDF80F
:10588000008002460B460648FAF7F1FE20E000BF12
:10589000970401007889FF1FA9040100C49AFF1F23
:1058A000009BFF1F89040100D9040100BE04010010
:1058B000CD040100E504010000050100040501001C
:1058C0003892FF1F1094FF1F2094FF1FBC93FF1FEF
:1058D000C148C249FAF7C5FE584607F5AE713246CF
:1058E00000F0BBFF0121584600F0C5FF01288046AB
:1058F00040F0E4803246204607F5AE7100F0ADFF7F
:105900000021204600F0C1FF0146284604F025FD95
:105910002846B34904F0C3FD10F1000918BF4FF049
:105920000109284604F0D8FCB9F1000F00F0C68048
:105930003246204607F5AE7100F08FFF4146204603
:1059400000F099FFFBF71AF9A64BD7F8D0201B6897
:10595000013B9A4240F0B280DFF8A892A249A348E6
:10596000FAF77FFEA0499C48FAF77BFED9F80000C1
:10597000FBF7C4FA05F0DCFD4FF0020802460B46C7
:10598000CDF800809948FAF772FE94499748FAF7E3
:1059900068FED9F80000DFF87092FBF7AFFA05F067
:1059A000C7FDCDF8008002460B468B48FAF75FFE34
:1059B0008A498948FAF755FE8D498C48FAF751FE15
:1059C0008B498548FAF74DFED9F80000FBF796FAA7
:1059D00005F0AEFDCDF8008002460B468348FAF78D
:1059E00046FE7E498148FAF73CFED9F80000DFF810
:1059F0001C92FBF783FA05F09BFDCDF80080024670
:105A00000B467548FAF733FE74497348FAF729FED6
:105A100078497648FAF725FE76496F48FAF721FE6D
:105A2000D9F80000FBF76AFA05F082FDCDF8008096
:105A300002460B466D48FAF71AFE68496B48FAF7BA
:105A400010FED9F80000DFF8C891FBF757FA05F00F
:105A50006FFDCDF8008002460B465F48FAF707FE5F
:105A60005E495D48FAF7FDFD63496048FAF7F9FDC4
:105A700061495948FAF7F5FDD9F80000FBF73EFAFD
:105A800005F056FDCDF8008002460B465748FAF760
:105A9000EEFD52495548FAF7E4FDD9F80000FBF74E
:105AA0002DFA05F045FDCDF8008002460B464A4828
:105AB000FAF7DDFD48484949FAF7D3FD584607F59E
:105AC000AE71324600F0C9FE0121584600F0D3FE07
:105AD0000128804640F0F3803246204607F5AE713B
