:1000000000800020BD010000B9B50000B9B50000B6
:10001000B9B50000B9B50000B9B5000085B500005C
:1000200085B5000085B5000085B50000B9B50000B4
:10003000B9B5000085B50000B9B5000075B5000080
:10004000B9B50000B9B50000B9B50000B9B50000F8
:10005000B9B50000B9B50000B9B50000B9B50000E8
:10006000B9B50000B9B50000B9B50000B9B50000D8
:10007000B9B50000B9B50000B9B50000B9B50000C8
:10008000B9B50000B9B50000B9B50000B9B50000B8
:10009000B9B50000AD9B0000B9B50000B9B50000CE
:1000A000B58C0000B9B50000B9B50000B9B50000C5
:1000B000B9B50000B9B50000B9B50000B9B5000088
:1000C000B9B50000B9B50000B9B50000B9B5000078
:1000D000B9B50000B9B50000B9B50000B9B5000068
:1000E000B9B50000B9B50000B9B50000B9B5000058
:1000F000B9B500009DAA0000B9B50000F1C9000023
:10010000B9B50000A9BC0000B9B50000B9B5000040
:10011000B9B50000B9B50000B9B50000B9B5000027
:10012000B9B50000B9B50000B9B50000B9B5000017
:10013000B9B50000B9B50000B9B50000B9B5000007
:10014000B9B50000B9B50000B9B50000B9B50000F7
:1001500055BD00006DBD000085BD00009DBD0000C7
:10016000B9B5000029A00000B9B50000B9B500007C
:10017000B9B50000B9B50000B9B50000B9B50000C7
:10018000B9B50000B9B50000B9B50000B9B50000B7
:10019000B9B50000B9B50000B9B5000019AF00004D
:1001A00069AF0000F1AF0000ADB0000031B1000058
:1001B000B9B50000B9B50000B9B50000544B4CF218
:1001C000205210B51A804DF628121A8000BF00BFC9
:1001D00009F030FD4F4B4FF010621A604E4A9A60A2
:1001E0004E4ADA604E4B1A6812F4807204D14D49BF
:1001F0000A604FF4A8521A604B4B1A7802F00802BA
:10020000D2B21AB11A7842F008021A70474B484825
:10021000484C2A221A700023474A02E01959995083
:10022000043399188142F9D3444B454A002101E037
:1002300043F8041B9342FBD34249434800231A5816
:100240005A500433B3F5DE7FF9D1404B404A802148
:1002500003F8011B9342FBD13A4A3E4B1A603E4BD6
:100260000A221A703D4B24221A70A02203F8012C96
:100270003B4A137803F00203DBB2002BF9D0384A73
:10028000137803F01003DBB2002BF9D1344A137852
:1002900003F00C03082BFAD1324B03221A704022D0
:1002A0005A702F4A137803F02003DBB2002BF9D0E9
:1002B0002B4A137803F04003DBB2002BF9D02A4B12
:1002C0002A4A1A6002225A60294B20221A70244AB4
:1002D000137803F00C030C2BFAD1264A264B1A6034
:1002E000264B274A1A60072243F8042C62B60BF00B
:1002F00001F90C4B1B68DC0702D522480AF030FFDD
:100300000DF0A4FD0BF05BF90BF0D6FEFEE700BF8D
:100310000E20054030800440823F04000100002B85
:1003200010D0034014D0034002D0074000E0074043
:10033000FC91FF1FE89501006089FF1FFC91FF1FE2
:100340003CA6FF1F0084FF1F0000000000E400E047
:100350005FE400E008ED00E0005006400140064088
:10036000064006400440064044800440000003016B
:1003700000400640C01005000480044014E000E086
:10038000FF760100C8C88F56FFFFFFFFFFFFFFFF8A
:10039000FFFFFFFFFFFFFFFFFFFFFFFFFFFFFFFF6D
:1003A000FFFFFFFFFFFFFFFFFFFFFFFFFFFFFFFF5D
:1003B000FFFFFFFFFFFFFFFFFFFFFFFFFFFFFFFF4D
:1003C000FFFFFFFFFFFFFFFFFFFFFFFFFFFFFFFF3D
:1003D000FFFFFFFFFFFFFFFFFFFFFFFFFFFFFFFF2D
:1003E000FFFFFFFFFFFFFFFFFFFFFFFFFFFFFFFF1D
:1003F000FFFFFFFFFFFFFFFFFFFFFFFFFFFFFFFF0D
:10040000FFFFFFFFFFFFFFFFFFFFFFFFFEFFFFFFFD
:1004100008B549F2FC10074BC1F6FF701B1A062BFA
:1004200000D808BD40F20003C0F20003002BF8D052
:100430009847F6E7FF91FF1F08B549F2FC1049F213
:10044000FC13C1F6FF70C1F6FF731B1A9B1003EB80
:10045000D373591000D108BD40F20002C0F200026F
:10046000002AF8D09047F6E710B549F2FC14C1F61F
:10047000FF74237873B9FFF7CBFF40F20003C0F29B
:1004800000032BB149F2E850C0F20100AFF3008045
:100490000123237010BD00BF08B540F20003C0F275
:1004A00000034BB149F2E85049F20021C0F20100CB
:1004B000C1F6FF71AFF3008049F2FC10C1F6FF7086
:1004C00003682BB140F20003C0F2000303B1984768
:1004D000BDE80840B0E700BF38B54FF40234A4F5DA
:1004E00000652B4603E053F8042B01320BD1A342E5
:1004F000F9D302E00A4800F0F7F904F50064B4F516
:10050000802FECD138BD0748294600F0EDF90021D5
:10051000284619F049F801460028EED0EAE700BF66
:10052000C87A0100DE7A01002DE9FF411D46002353
:100530002B6003780A9E3A2B04460F46904601D062
:1005400000204FE00AF018FB0A28F9D9601C27495F
:1005500001AA0EF05BFB0028F2D020460AF00CFB4B
:10056000019B5B000B339842EAD3E01C20494246D2
:100570000EF04CFB0028E3D0E01D1C4932460EF083
:1005800045FB0028DCD0D8F800309DF8042052FA52
:1005900083F2C3F30723D318327809349E180FE08F
:1005A00003AA0EF033FB0028CAD02B68039AFA5432
:1005B0002B68FA5C01330234FF2B16442B60BFD842
:1005C0002A68019B09499A422046E9D102AA0EF005
:1005D0001DFB0028B4D0029BF61816F0FF0F14BFC5
:1005E0000020012004B0BDE8F08100BFEF7A0100D7
:1005F000F47A01002DE9F04702234FF48072D8B05D
:100600009548964900F070F9FFF766FF944B954ABC
:100610009A4205D9944A9A4202D9944A9A4201D8F8
:10062000934809E04FF400331C4653F80429013283
:1006300040F0E680EDE08F4800F056F908E18E4882
:100640008E4E8F4D00F050F98E4800F04DF9002489
:10065000374600F08DF90028FBD000F06DF958AA5C
:100660000A2802EB040302D00D2840F0C5800022C6
:1006700003F8C82C9DF898303A2B40F0BB802B68CB
:10068000002B40F0B78026A87F4905AA0EF0BEFADD
:1006900001281DD17D4B05991A68914214D17C4BDC
:1006A0001B688BB1DFF800827A4CD8F80010226802
:1006B000794800F019F964200AF006FFD8F8000024
:1006C000216818F069FF03E0744800F00DF991E02B
:1006D0006E4BDFF8F0811A6804AC01321A6026A86C
:1006E000009406A9424603ABFFF71EFF28B96C48E9
:1006F00026A900F0F9F801234DE0D6F80090D8F8CB
:100700000030039A4B449918B1F5FC3F04D9654871
:1007100000F0EAF802233EE02168042936D8DFE839
:1007200001F03C0324352C00584BDFF86881196830
:100730005D4C0091D8F8003022685C4800F0D4F895
:10074000D8F80030246803F5FF3804F5003408F5C4
:10075000FA7807E0204641490C220EF043FC0028BD
:100760005CD001344445F5D35CE09DF818209DF839
:10077000193043EA02231B0106E09DF818209DF87A
:10078000193043EA02231B043B6033E0484826AAA1
:1007900000F0AAF803232B602CE003F50034A00737
:1007A00001D1910713D0434800F09EF83EE00AEBD8
:1007B0000403A3F500332046196818F0E5FE01464E
:1007C00018B13D4800F090F830E0043407E002F53D
:1007D00000320DF1180A02EB0308C3EB0A0AC4EB5E
:1007E0000803002BE3DC29E00A602F4A11688B42E2
:1007F00038BF136000242CE703F8C80C013428E745
:10080000211D2E4800F070F8B4F5FC3F7FF717AFBC
:1008100011E71C46002B7FF407AFF1E71C4B0122C8
:100820001A60E7E7264800F05FF8E3E7254B264823
:100830001A68039900F058F80423ACE7214B1549D6
:100840001B68039A08684B449A188242CCD8CCE7BC
:1008500058B0BDE8F08700BFF97A01001D7B0100A8
:10086000FFFF03006189FF1F118AFF1F8D8AFF1F91
:100870002A7B01003F7B0100567B01002492FF1F71
:100880001C92FF1F7A7B0100977B01002C92FF1FB7
:100890002892FF1F1892FF1FA17B0100B87B010067
:1008A000DD7B0100EE7B0100F48AFF1F017C01006B
:1008B000417C01005B7C0100747C0100907C0100A4
:1008C000A77C01002092FF1FC47C010038B50446BC
:1008D00008460D460AF050F9236802465B68204638
:1008E0002946984738BDFFFF0FB410B5B4B036ABFA
:1008F000C82153F8042B02A8019311F081FE0B4B81
:100900001A6812F0010F1C4603D0094802A9FFF72C
:10091000DDFF23689B0703D5064802A9FFF7D6FF32
:1009200034B0BDE8104004B0704700BFF88AFF1F24
:100930003CA4FF1F60A4FF1F38B50C4C254623685C
:10094000D9070AD50AF0C4F920B906E00AF04EF832
:1009500038B9F4E70AF076F905E02B689A07EED586
:10096000F4E70AF051F8C0B238BD00BFF88AFF1FA3
:100970000A4B1A6812F0010F10B51C460AD00AF093
:10098000A7F938B1012010BD0AF030F80028F9D1DC
:10099000002010BD23689807FAD5F5E7F88AFF1FF5
:1009A000024B4FF400121A60704700BF80E100E074
:1009B00010B504460BF08CFA204610BD70B5034606
:1009C0000D461646074819462A4608F0EFFB002454
:1009D00004E0044808F052F830550134E3B2AB4269
:1009E000F7D370BD4C9FFF1F70B50B4C06460D46EC
:1009F00020461D2108F0EEFA3146204607F0FCFFA4
:100A00002946204607F0F8FF204608F0F2FB402375
:100A1000013BFDD170BD00BF4C9FFF1F034670B569
:100A200009480D4619461646002408F0C1FA03E0AD
:100A3000315D07F0E1FF0134E3B2AB420248F7D386
:100A4000BDE8704008F0D5BB4C9FFF1F064B10223D
:100A50001A60064B1A78064B53F83220012382F8AD
:100A60008030044A13607047C8F00F40289FFF1F72
:100A7000F08E0100DC92FF1F054B1A78054B53F8EE
:100A80003220012382F80031034A1360704700BF0F
:100A9000289FFF1FF08E0100249DFF1F38B50A48D4
:100AA0000A4D07F031FC0A4B044618680CF012FF9F
:100AB000014620460DF016F8014628680CF056FE57
:100AC0002860204638BD00BFFC9AFF1F3492FF1FEC
:100AD000788BFF1F38B50A480A4D07F0B1FB0A4B67
:100AE000044618680CF0F6FE014620460CF0FAFFAA
:100AF000014628680CF03AFE2860204638BD00BF49
:100B0000FC9AFF1F6492FF1F788BFF1F08B5FFF749
:100B1000DDFE08BD08B50368C9B21B68984708BD6B
:100B2000406800B1C0687047074B10B540241C6096
:100B300032200AF0C9FC054B05481C6007F0A2FAF8
:100B4000BDE8104007F0F8BAC4F00F40C8F00F40FD
:100B5000E27C010010B50E4C0E4807F093FA2368B2
:100B60003BB90D4807F08EFA0C4B02221A600123A4
:100B700008E0012B07D10A4807F084FA094B02224A
:100B80001A6000232360BDE8104007F0D5BA00BF0B
:100B9000CC9BFF1FF57C0100EE7C010084F00F4030
:100BA0000A7D010088F00F402DE9F0410021054643
:100BB00040F6FF722C4807F013FF2C4A0423202430
:100BC00013602246013AFDD1294A112013600AF030
:100BD000F7FD0CF07FFE27490CF084FF264B804682
:100BE0001C600A200AF070FC11200AF0E9FD0CF0EC
:100BF00071FE20490CF076FF07466E200AF064FC77
:100C000011200AF0DDFD0CF065FE1A490CF06AFFB8
:100C10001A4B012D06461C6002D1194807F032FA22
:100C2000184807F02FFA0221404607F057FA1648F5
:100C300007F028FA0221384607F050FA124807F068
:100C400021FA0221304607F049FA104807F01AFA53
:100C5000012D06D10E4807F015FABDE8F04107F066
:100C60006BBABDE8F08100BFB89CFF1F88F00F4051
:100C700084F00F4000601345C4F00F40C8F00F40EF
:100C8000107D0100127D0100A6840100608D01002D
:100C9000F37C01002DE9F04780460E4608A80021AC
:100CA00014461D4607F012FC002871DD394807F094
:100CB000E9F90A9B186807F0E5F9374807F0E2F907
:100CC000204600210CF0EEFF002856D120460621D8
:100CD00007F004FA306800210CF0E4FF002854D13A
:100CE0002E4807F0CFF92846062107F0F7F94CE027
:100CF0002B4807F0C7F9214608A807F0E7FB0CF0DE
:100D0000E9FD002107F0EAF9244807F0BBF90025C6
:100D100023E0214608A859F825A007F0D7FB0CF0DE
:100D2000D9FD01465046AF000CF0BCFFA0B158F809
:100D30000700062107F0D2F9306800210CF0B2FF5D
:100D400030B9164807F09EF9F059062107F0C6F9A8
:100D5000144807F097F902E001351A2DD9D1012086
:100D60000AF0B2FB08A8FFF7DBFE0138844202D08C
:100D70000A4807F087F9013402E0DFF830900024D8
:100D800008A8FFF7CDFE8442B2DB074807F07AF9E6
:100D9000BDE8F087CC8301002F7D0100A68401000F
:100DA000327D0100608D01007F8D01000C8BFF1FE3
:100DB00010B5282000210AF073FA0A48002107F034
:100DC0008DF9642428200AF0FBFC0CF083FD00213F
:100DD00007F084F94FF4FA600AF076FB013CF1D198
:100DE00010BD00BF0000204270B50C200AF0C8F909
:100DF000282001210AF054FA40F2DC553FE0044675
:100E0000214628200AF068FA03200AF05DFB1A2028
:100E10000AF0D6FC064620460CF05CFD002107F0E7
:100E20005DF91C4807F02EF930460CF053FD002107
:100E300007F054F90134174807F024F9AC42DFD128
:100E4000214628200AF048FA03200AF03DFB1A2028
:100E50000AF0B6FC064620460CF03CFD002107F0E7
:100E60003DF90C4807F00EF930460CF033FD002137
:100E700007F034F9074807F005F9013CE0D109F023
:100E800027FF0028BBD009F0DDFEBDE8704009F067
:100E9000D9BE00BFA6840100012801D8FFF7FEBD1E
:100EA0007047012801D8FFF715BE70472DE9F843B8
:100EB00004463F483F4F404E404D07F05FFD0CF069
:100EC00005FD38603A4807F052FD0CF0FFFC306039
:100ED000374807F045FD0CF0F9FC2860344807F06E
:100EE00038FD0CF0F3FC364B804618603CBB354BAC
:100EF000DFF8EC9018680CF0EDFC044621463868E9
:100F0000314F0CF0EFFD0146D9F800000CF02EFC3B
:100F10002146C9F8000030682C4E0CF0E3FD014674
:100F200038680CF023FC214638602868284D0CF006
:100F3000D9FD014630680CF019FC306028E0012C26
:100F40002FD1204BDFF89C9018680CF0C3FC0446AE
:100F5000214638681F4F0CF0C5FD0146D9F8000046
:100F60000CF004FC2146C9F8000030681A4E0CF061
:100F7000B9FD014638680CF0F9FB21463860286855
:100F8000164D0CF0AFFD014630680CF0EFFB306001
:100F9000214640460CF0A6FD014628680CF0E6FB11
:100FA0002860044B18680CF0AFFEBDE8F88300BF62
:100FB000BC99FF1FE099FF1F8C9CFF1F709CFF1FB7
:100FC0005492FF1F788BFF1F009BFF1FC892FF1FCB
:100FD000309FFF1FC49BFF1FC89BFF1FB097FF1FC1
:100FE000B497FF1FF49AFF1F10B5044610B90F48BD
:100FF00007F048F80E4807F045F80E4B0621186830
:1010000007F06CF80C4807F03DF80C4807F03AF888
:101010000B4B0621186807F061F8012C0CBF06483D
:101020000848BDE8104007F02DB800BF107D010052
:10103000D57D0100008BFF1FA6840100E47D010027
:101040006099FF1FF37C01002DE9F0410D46ADF5DD
:101050007E7D04463048DFF8CC8016460AF0EAFF71
:1010600029462E480AF0E6FF4FF47A72002104A8C0
:101070000DF014FB204600210BF06BF9284B1A6889
:101080000192019D1A680292029A1F460DE03B6888
:1010900003930398401B0CF01DFCD8F800100CF0D3
:1010A00029FE10B1FFF740FD05E009F011FE10B96F
:1010B00009F09CFCE8B109F00BFE002805DD09F001
:1010C000E9FD5B2818D0144808E009F08FFC0028DF
:1010D00012DD09F0B1FC5B280ED010482B2104AAC8
:1010E0004FF47A730AF0A8FF204604A90BF069F9BF
:1010F00002E0012ED9D1CAE707484FF47A710AF00D
:1011000099FF06484FF47A710AF094FF20460DF5D6
:101110007E7DBDE8F08100BF3CA4FF1F60A4FF1FDF
:10112000A8A3FF1F048BFF1FF0B5044691B022480F
:1011300021460AF07FFF214821460AF07BFF20224A
:10114000002108A80DF0AAFA04A800210BF001F96B
:101150001B4B1A680192019E1A680292029A1F465E
:1011600009F0B6FD10B909F041FCC0B109F03EFC30
:10117000002801DD114804E009F0AAFD002815DD72
:101180000D4808AA20232B210AF056FF08A904A81D
:101190000BF017F904980CF007FE054606E03B68D3
:1011A0000393039B9B1BA342DADDDFE704A80BF04C
:1011B0008FF8284611B0F0BD3CA4FF1F60A4FF1FAC
:1011C000A8A3FF1F2DE9F041064690B02448314600
:1011D0000AF030FF234831460AF02CFF202200217C
:1011E00008A80DF05BFA04A800210BF0B2F81E4B22
:1011F0001A680192019F1A680292029A984609F0B1
:1012000067FD10B909F0F2FBC8B109F061FD0028D3
:1012100001DD134804E009F0E9FB002817DD11485F
:1012200008AA20232B210AF007FF08A904A80BF025
:10123000C8F804980CF0B4FD04460D4607E0D8F851
:1012400000300393039BDB1BB342D8DDDDE704A82A
:101250000BF03EF82046294610B0BDE8F08100BFF3
:101260003CA4FF1F60A4FF1FA8A3FF1F08B5044BE9
:1012700019680CF079FA034B19680CF033FC08BDBF
:101280006099FF1F008BFF1F2DE9F0412E4D064690
:101290008846002430460CF01DFB014655F824001A
:1012A0000CF000FD002835D0284B53F82460284B63
:1012B00053F82470274B53F82450274B304653F8EB
:1012C00024100CF051FA31460CF00CFC0146284673
:1012D0000CF054FB014628460CF048FA1F4B53F81B
:1012E00024601F4B054653F8241038460CF03CFA96
:1012F00039460CF0F7FB014630460CF03FFB014647
:1013000030460CF033FA0021044628460CF0CAFCA3
:1013100050B104E001341A2CBCD1BDE8F081204664
:1013200000210CF0BFFC60B940460CF0D3FA214616
:101330000CF01AFA29460CF0D5FB0CF00BFDBDE8B9
:10134000F0810020BDE8F0810C8BFF1F889AFF1F01
:10135000DC9BFF1F9098FF1F209AFF1FF898FF1F2C
:101360004C9BFF1F2DE9F041044614481D460F46D3
:10137000164606F087FE206806F084FE104806F048
:1013800081FE002405F1FF380AE0002157F824000F
:1013900006F0A4FE444502D00A4806F073FE01346C
:1013A000AC42F2DB084806F06DFE012E14BF054882
:1013B0000648BDE8F04106F065BE00BFCC830100E1
:1013C000EB7E0100A6840100608D0100F37C01002A
:1013D00070B5044611480E46154606F053FE2068C7
:1013E00006F050FE0E4806F04DFE0024002156F88F
:1013F000240006F073FE192C02D00A4806F042FEC3
:1014000001341A2CF2D1084806F03CFE012D14BF1D
:1014100004480648BDE8704006F034BECC830100A5
:10142000EB7E0100A6840100608D0100F37C0100C9
:1014300010B50CF04FFA0B4B196804460CF09EFAED
:10144000094B19680CF092F9084B1860084B2046BC
:1014500019680CF093FA074B19680CF087F9064BE2
:10146000186010BDD492FF1FB49BFF1F4C9CFF1F40
:10147000D892FF1FB89BFF1F2C9FFF1F10B504467B
:1014800010B91D4806F0FEFD1C4806F0FBFD1C4B84
:101490000621186806F022FE1A4806F0F3FD1A48E5
:1014A00006F0F0FD194B0621186806F017FE1548E6
:1014B00006F0E8FD164806F0E5FD164B0621186813
:1014C00006F00CFE0F4806F0DDFD134806F0DAFDCD
:1014D000124B0621186806F001FE012C04D10948C0
:1014E000BDE8104006F0CEBD0D4806F0CBFDBDE8CE
:1014F000104006F021BE00BF107D0100F97D010003
:10150000D492FF1FA6840100057E0100B49BFF1F3B
:10151000167E0100D892FF1F227E0100B89BFF1F9C
:10152000F37C01002DE9F04FADB09A46379BDDF812
:10153000D89002933C9B389F03933D9B399E049324
:101540003E9B3A9D05933F9B3B9C0693409B079394
:10155000419B0893429B0993439B0A93449B0B93A3
:10156000459B0C93469B0D93479B0E93489B0F9373
:10157000499B10934A9B11934B9B12934C9B139343
:101580004D9B14934E9B15934F9B1693509B179313
:10159000519B1893529B1993539B1A93549B1B93E3
:1015A000559B1C93569B1D93579B1E93589B1F93B3
:1015B000599B20935A9B21935B9B22935C9B239383
:1015C0005D9B24935E9B25935F9B2693609B279353
:1015D000619B2893629B2993639B2A93649B0128B8
:1015E000884693462B9313D1C04806F04BFDC04B61
:1015F00006211868019306F071FDBE4806F042FD11
:10160000019B0621586806F069FDBB4806F03AFDCB
:10161000B8F1010F13D1B94806F034FDB84B0621DB
:101620001868019306F05AFDB24806F02BFD019BA5
:101630000621586806F052FDAF4806F023FDBBF1C5
:10164000010F14D1DFF82CB3AE4806F01BFD0621C4
:10165000DBF8000006F042FDA64806F013FDDBF8BB
:101660000400062106F03AFDA34806F00BFDBAF18E
:10167000010F14D1DFF800A3A34806F003FD0621F3
:10168000DAF8000006F02AFD9A4806F0FBFCDAF8CA
:101690000400062106F022FD974806F0F3FCB9F19C
:1016A000010F14D1DFF8D492984806F0EBFC062124
:1016B000D9F8000006F012FD8E4806F0E3FCD9F8D8
:1016C0000400062106F00AFD8B4806F0DBFC029BB5
:1016D000012B14D1DFF8A8828D4806F0D3FC062137
:1016E000D8F8000006F0FAFC824806F0CBFCD8F8E7
:1016F0000400062106F0F2FC7F4806F0C3FC012F2F
:1017000011D1844F844806F0BDFC0621386806F0EC
:10171000E5FC784806F0B6FC7868062106F0DEFCA9
:10172000754806F0AFFC012E11D17C4E7C4806F0C6
:10173000A9FC0621306806F0D1FC6E4806F0A2FC38
:101740007068062106F0CAFC6B4806F09BFC012D70
:1017500011D1744D744806F095FC0621286806F0F6
:10176000BDFC644806F08EFC6868062106F0B6FCF5
:10177000614806F087FC012C11D16C4C6C4806F0D6
:1017800081FC0621206806F0A9FC5A4806F07AFC84
:101790006068062106F0A2FC574806F073FC039B24
:1017A000012B11D1634C644806F06CFC06212068C3
:1017B00006F094FC4F4806F065FC6068062106F0D0
:1017C0008DFC4D4806F05EFC049B012B11D15B4C57
:1017D0005B4806F057FC0621206806F07FFC454870
:1017E00006F050FC6068062106F078FC424806F0DE
:1017F00049FC059B012B11D1524C534806F042FC89
:101800000621206806F06AFC3A4806F03BFC606856
:10181000062106F063FC384806F034FC069B012BD9
:1018200011D14A4C4A4806F02DFC0621206806F0EA
:1018300055FC304806F026FC6068062106F04EFC98
:101840002D4806F01FFC079B012B11D1414C42484B
:1018500006F018FC0621206806F040FC254806F03A
:1018600011FC6068062106F039FC234806F00AFCEA
:10187000089B012B11D1394C394806F003FC062195
:10188000206806F02BFC1B4806F0FCFB6068062174
:1018900006F024FC184806F0F5FB099B012B11D13A
:1018A000304C314806F0EEFB0621206806F016FCAD
:1018B000104806F0E7FB6068062106F00FFC0E48B2
:1018C00006F0E0FB0A9B012B5FD1284C284806F06C
:1018D000D9FB0621206806F001FC064806F0D2FB81
:1018E0006068062106F0FAFB4CE000BF337E010081
:1018F000609CFF1FA68401007F8D0100447E0100D3
:10190000689CFF1F557E0100667E0100777E010006
:10191000887E01004092FF1F997E0100989CFF1F66
:10192000AA7E01004C92FF1FBB7E0100449BFF1F5B
:10193000CC7E01006899FF1FDD7E01007099FF1FBA
:10194000EF7E01007899FF1F017F01008099FF1F42
:10195000137F01008899FF1F257F01009099FF1FC9
:10196000377F01009899FF1F497F0100A099FF1F51
:101970005B7F0100749CFF1F249BFF1F7C9CFF1F4B
:10198000849CFF1FB84806F07DFB0B9B012B11D1F7
:10199000B64CB74806F076FB0621206806F09EFBA1
:1019A000B44806F06FFB6068062106F097FBAE486E
:1019B00006F068FB0C9B012B11D1AF4CAF4806F031
:1019C00061FB0621206806F089FBAA4806F05AFB55
:1019D0006068062106F082FBA34806F053FB0D9BCE
:1019E000012B11D1A64CA74806F04CFB062120681C
:1019F00006F074FB9F4806F045FB6068062106F080
:101A00006DFB994806F03EFB0E9B012B11D19E4CBD
:101A10009E4806F037FB0621206806F05FFB9548DC
:101A200006F030FB6068062106F058FB8E4806F091
:101A300029FB0F9B012B11D1954C964806F022FBF8
:101A40000621206806F04AFB8A4806F01BFB606806
:101A5000062106F043FB844806F014FB109B012B83
:101A600011D18D4C8D4806F00DFB0621206806F043
:101A700035FB804806F006FB6068062106F02EFB69
:101A8000794806F0FFFA119B012B11D1844C85484F
:101A900006F0F8FA0621206806F020FB754806F0EB
:101AA000F1FA6068062106F019FB6F4806F0EAFAC1
:101AB000129B012B11D17C4C7C4806F0E3FA0621E5
:101AC000206806F00BFB6B4806F0DCFA6068062124
:101AD00006F004FB644806F0D5FA139B012B11D1E4
:101AE000734C744806F0CEFA0621206806F0F6FA28
:101AF000604806F0C7FA6068062106F0EFFA5A4817
:101B000006F0C0FA149B012B11D16B4C6B4806F008
:101B1000B9FA0621206806F0E1FA564806F0B2FA52
:101B20006068062106F0DAFA4F4806F0ABFA159B1A
:101B3000012B11D1624C634806F0A4FA06212068FB
:101B400006F0CCFA4B4806F09DFA6068062106F0D4
:101B5000C5FA454806F096FA169B012B11D15A4C4E
:101B60005A4806F08FFA0621206806F0B7FA414875
:101B700006F088FA6068062106F0B0FA3A4806F0E6
:101B800081FA179B012B11D1514C524806F07AFA79
:101B90000621206806F0A2FA364806F073FA60685B
:101BA000062106F09BFA304806F06CFA189B012BD0
:101BB00011D1494C494806F065FA0621206806F023
:101BC0008DFA2C4806F05EFA6068062106F086FA67
:101BD000254806F057FA199B012B11D1404C41487A
:101BE00006F050FA0621206806F078FA214806F03F
:101BF00049FA6068062106F071FA1B4806F042FABD
:101C00001A9B012B11D1384C384806F03BFA0621BB
:101C1000206806F063FA174806F034FA6068062177
:101C200006F05CFA104806F02DFA1B9B012B11D12F
:101C30002F4C304806F026FA0621206806F04EFAAE
:101C40000C4806F01FFA6068062106F047FA0648BD
:101C500006F018FA1C9B012B5FD1274C274806F091
:101C600011FA06214CE000BF7F8D0100A899FF1FEB
:101C70006D7F0100A6840100B099FF1F7F7F0100E6
:101C8000049BFF1F917F01000C9BFF1FA37F01009E
:101C9000149BFF1FB57F01001C9BFF1FC77F010026
:101CA000D09BFF1FD97F01002C9BFF1FEB7F010002
:101CB000349BFF1FFD7F0100449CFF1F0F8001002C
:101CC000509CFF1F218001003C9BFF1F33800100BF
:101CD000A09CFF1F45800100A89CFF1F57800100AA
:101CE000B09CFF1F698001002098FF1F7B800100CE
:101CF000EC9CFF1F8D800100F49CFF1F9F80010062
:101D0000206806F0EBF9B34806F0BCF960680621DC
:101D100006F0E4F9B04806F0B5F91D9B012B11D18E
:101D2000AE4CAF4806F0AEF90621206806F0D6F9B1
:101D3000A84806F0A7F96068062106F0CFF9A64882
:101D400006F0A0F91E9B012B11D1A64CA64806F067
:101D500099F90621206806F0C1F99E4806F092F92B
:101D60006068062106F0BAF99B4806F08BF91F9BC4
:101D7000012B11D19D4C9E4806F084F90621206864
:101D800006F0ACF9934806F07DF96068062106F08C
:101D9000A5F9914806F076F9209B012B11D1954CBD
:101DA000954806F06FF90621206806F097F98948F2
:101DB00006F068F96068062106F090F9864806F09A
:101DC00061F9219B012B11D18C4C8D4806F05AF9F9
:101DD0000621206806F082F97E4806F053F9606813
:101DE000062106F07BF97C4806F04CF9229B012B7A
:101DF00011D1844C844806F045F90621206806F08C
:101E00006DF9744806F03EF96068062106F066F93F
:101E1000714806F037F9239B012B11D17B4C7C488C
:101E200006F030F90621206806F058F9694806F0F6
:101E300029F96068062106F051F9674806F022F991
:101E4000249B012B11D1734C734806F01BF906211A
:101E5000206806F043F95F4806F014F9606806212F
:101E600006F03CF95C4806F00DF9259B012B11D1D9
:101E70006A4C6B4806F006F90621206806F02EF938
:101E8000544806F0FFF86068062106F027F952482A
:101E900006F0F8F8269B012B11D1624C624806F03F
:101EA000F1F80621206806F019F94A4806F0EAF828
:101EB0006068062106F012F9474806F0E3F8279B10
:101EC000012B18D1594C5A4806F0DCF8062120683D
:101ED00006F004F93F4806F0D5F80621606806F0E0
:101EE000FDF83C4806F0CEF8A068062106F0F6F8AA
:101EF000394806F0C7F8289B012B18D14D4C4E48A5
:101F000006F0C0F80621206806F0E8F8314806F02F
:101F1000B9F80621606806F0E1F82E4806F0B2F83C
:101F2000A068062106F0DAF82B4806F0ABF8299BEA
:101F3000012B18D1414C424806F0A4F80621206834
:101F400006F0CCF8234806F09DF80621606806F0FC
:101F5000C5F8204806F096F8A068062106F0BEF8FD
:101F60001D4806F08FF82A9B012B18D1354C3648B6
:101F700006F088F80621206806F0B0F8154806F04B
:101F800081F80621606806F0A9F8124806F07AF890
:101F9000A068062106F0A2F80F4806F073F82B9B04
:101FA000012B5CD1294C2A4806F06CF806212068E8
:101FB00006F094F8074806F065F80621606806F018
:101FC0008DF8044806F05EF8A068062106F086F851
:101FD00001483FE0A68401007F8D0100FC9CFF1FAB
:101FE000B1800100049DFF1FC38001000C9DFF1FF5
:101FF000D5800100149DFF1FE7800100589CFF1F42
:10200000F98001006892FF1F0B8101007092FF1F91
:102010001D8101007892FF1F2F8101008092FF1F18
:10202000418101008892FF1F538101009092FF1FA0
:10203000658101009C92FF1F77810100A892FF1F1C
:1020400089810100B492FF1F9B810100CC99FF1F81
:10205000AD8101002DB0BDE8F04F06F013B82DB0F2
:10206000BDE8F08F7FB51F4B1A680192019D1A6879
:1020700002920C46029A1E4613E007211A4809F004
:10208000A5FD322009F020FA33680393039B5B1B04
:10209000A34206DD154805F0F5FF154805F0F2FFEF
:1020A00014E009F0BBFD0028E7D00FE001340A2C52
:1020B00009DD01E009F0C0FD09F0B0FD0028F9D10B
:1020C00000240C4D07E0322009F0FEF909F0A6FDCE
:1020D0000628EBDDF4E709F0AFFD28550134072CA5
:1020E000F9D17FBDA8A3FF1F8C8BFF1FBF8101000B
:1020F000A68401003892FF1F08B5C278007900EB72
:1021000002200BF0E3FB034B19680BF037FC0BF0DC
:1021100021FE08BD888BFF1F38B54FF4FA610C48CB
:102120000C4DFFF79FFF0C48FFF7E6FF04466420C5
:1021300009F0CAF9094B1868B4FBF0F00BF0C6FBC4
:10214000014628680BF012FB2860204638BD00BF0E
:102150008C8BFF1FF09AFF1F3892FF1F788BFF1F99
:10216000012801D8FFF7D8BF7047FFFFFFFFFFFF2F
:102170002DE9F74F7C4E304606F03AF80AF058FF4A
:10218000044630460D4606F02DF80AF051FF62A3D2
:10219000D3E900230AF0B2FF0022744B0BF0D8F809
:1021A0000022724B0BF0D4F8002206460F46204660
:1021B00029466F4B0AF0A2FF59A3D3E900230AF086
:1021C000EBFD59A3D3E9002382468B460AF0E2FDDA
:1021D00057A3D3E9002304460D460AF08FFF0022DF
:1021E000644B0AF0D9FD54A3D3E900238046894605
:1021F000204629460AF082FF22462B460AF07EFF3F
:1022000002460B46404649460AF0C6FD5A4B8046F8
:10221000186889460AF01EFF02460B4640464946AA
:102220000AF06CFF46A3D3E900230BF091F80022DB
:10223000CDE900014D4B304639460BF089F842A3F9
:10224000D3E9002380468946204629460AF056FFF6
:102250003FA3D3E900230AF09DFD3FA3D3E9002368
:1022600006460F46204629460AF048FF22462B46DE
:102270000AF044FF02460B46304639460AF08CFD10
:1022800002460B46404649460AF084FD5246044643
:102290000D465B46504659460AF030FF52465B46B3
:1022A0000AF02CFF52465B460AF028FF2CA3D3E924
:1022B000002306460F46204629460AF01FFF224605
:1022C0002B460AF01BFF02460B46204629460AF021
:1022D00063FD1BA3D3E9002304460D46DDE900019D
:1022E0000BF036F802460B46204629460BF030F834
:1022F00002460B46304639460AF04EFD0AF000FC15
:102300000AF0FEFB06A3D3E900230AF043FD03B065
:10231000BDE8F08FAFF3008000000000008863404C
:1023200066666666661271406666666666A272409A
:1023300079E9263108AC5C3FE446D3D15898F1BE28
:1023400000000000D0126341E43C73414320A3BE6F
:102350004DB1B49D00D4FE3E75466524BDE2333ECA
:10236000CDCCCCCCCCCC2A40B899FF1F00408F40BC
:102370000000A03F0000F03F848BFF1FAFF3008000
:1023800038B5FFF7F5FE0BF09BF904461448154DE0
:1023900005F036FF4FF47A6009F096F820461249AE
:1023A0000BF08AFC20B9204610490BF0A3FC40B189
:1023B0000F4C10482C6005F065FE0F4805F062FEDA
:1023C0000CE00E4B18680BF085FA014620460BF026
:1023D00089FB014628680BF0C9F92860204638BD02
:1023E000B899FF1FF89AFF1F000070C200007A44DE
:1023F0000000C6C2DD810100A6840100788BFF1FAA
:10240000012801D8FFF7BCBF704708B501E008F00C
:1024100019FC08F05DFC0028F9DC01E008F0F4FA92
:1024200008F0E4FA0028F9DC08BDFFFFF8B54EF625
:102430006020FEF7C7FE04460D46C94805F022FE9F
:1024400020462946002200230BF0C0F8002840F067
:102450001282294620460BF033F9002105F03EFE9A
:10246000C04805F00FFE08F0EDFB08F0EBFBBE4B9B
:10247000BE4820221A6080221A6005F003FE002068
:1024800005F000FEBA4805F0FDFD002640F6FE7797
:10249000B2B20021B74806F0A3FA30460BF01AFAA0
:1024A000002105F01BFEAF4805F0ECFD322009F0DD
:1024B0000BF830460AF0BCFD22462B460AF06CFCB5
:1024C0000BF0B6F8B8420646E2DDAB4BA7488022D7
:1024D0001A6005F0D7FD4FF07E50002105F0FEFD9B
:1024E000A64805F0CFFD002640F6FE77B2B20121E6
:1024F000A04806F075FA30460BF0ECF9002105F023
:10250000EDFD984805F0BEFD322008F0DDFF3046B5
:102510000AF08EFD22462B460AF03EFC0BF088F8AE
:10252000B8420646E2DD944B904820221A60012210
:1025300043F8042C802243F8042C05F0A3FD00206E
:10254000002105F0CBFD8E4805F09CFD002640F6ED
:10255000FE77B2B20021874806F042FA30460BF00F
:10256000B9F9002105F0BAFD7E4805F08BFD322057
:1025700008F0AAFF30460AF05BFD22462B460AF01F
:102580000BFC0BF055F8B8420646E2DD7A4B774873
:1025900080221A6005F076FD4FF07E50002105F094
:1025A0009DFD784805F06EFD002640F6FE77B2B23C
:1025B0000121704806F014FA30460BF08BF9002127
:1025C00005F08CFD674805F05DFD322008F07CFFCA
:1025D00030460AF02DFD22462B460AF0DDFB0BF0BB
:1025E00027F8B8420646E2DD634B604801221A60D4
:1025F000022243F8042C05F045FD4FF080400021F5
:1026000005F06CFD604805F03DFD002640F6FE77C4
:10261000B2B20221574806F0E3F930460BF05AF9FE
:10262000002105F05BFD4F4805F02CFD322008F03D
:102630004BFF30460AF0FCFC22462B460AF0ACFB6E
:102640000AF0F6FFB8420646E2DD4B4B474802224D
:102650001A60102243F8442C05F014FD4FF080401E
:10266000002105F03BFD494805F00CFD002640F631
:10267000FE77B2B202213F4806F0B2F930460BF0C5
:1026800029F9002105F02AFD364805F0FBFC32202F
:1026900008F01AFF30460AF0CBFC22462B460AF01F
:1026A0007BFB0AF0C5FFB8420646E2DD384B2F48F7
:1026B00010221A60012243F8042C05F0E3FC4FF0CD
:1026C0008040002105F00AFD324805F0DBFC0026C1
:1026D00040F6FE77B2B20321264806F081F9304673
:1026E0000BF0F8F8002105F0F9FC1E4805F0CAFCD3
:1026F000322008F0E9FE30460AF09AFC22462B46CA
:102700000AF04AFB0AF094FFB8420646E2DD204A8E
:1027100016480123136042F8443C05F0B3FC4FF027
:102720007E50002105F0DAFC1B4805F0ABFC0026CA
:1027300040F6FE77B2B203210E4806F051F930465A
:102740000BF0C8F8002105F0C9FC064805F09AFC1A
:10275000322008F0B9FE30460AF06AFC1EE000BFE5
:1027600008820100A6840100C4F00F401682010017
:1027700025820100B89CFF1FC8F00F40468201006F
:102780006882010089820100AB820100BF820100E2
:1027900088F00F40D3820100E582010022462B46DB
:1027A0000AF0FAFA0AF044FFB8420646C2DD354B99
:1027B000354801221A604022DA6305F063FC4FF0CD
:1027C0007E50002105F08AFC304805F05BFC0026B5
:1027D00040F6FE77B2B203212D4806F001F93046EB
:1027E0000BF078F8002105F079FC2A4805F04AFC46
:1027F000322008F069FE30460AF01AFC22462B46C9
:102800000AF0CAFA0AF014FFB8420646E2DD224B8B
:102810001D4840221A60802243F8042C05F032FC47
:102820004FF07E50002105F059FC1C4805F02AFCB1
:10283000002640F6FE77B2B20321154806F0D0F824
:1028400030460BF047F8002105F048FC114805F030
:1028500019FC322008F038FE30460AF0E9FB224627
:102860002B460AF099FA0AF0E3FEB8420646E2DD8A
:10287000094B80221A60FFF7C8FD0948BDE8F840FF
:1028800005F000BC48F00F4016820100F7820100FD
:10289000B89CFF1FA684010088F00F400983010047
:1028A000F27C010070B58EB008F0AEF8061E20DD97
:1028B000642008F009FE002401AD665508F0A4F874
:1028C0000134262C0646F7D10F4E002428463168E5
:1028D0008DF82A4025220CF085FB90B10B4805F0BD
:1028E000D1FB306805F0E2FB094805F0CBFB284638
:1028F00003E0084805F0DAFB074805F0D7FB0020A5
:1029000000E001200EB070BD808BFF1F1B83010013
:102910003E830100618301009783010030B5454883
:1029200085B005F0AFFB002268464EF66021FEF749
:102930008BFB4EF66020FEF745FC04460D460D204D
:10294000012108F0ADFC294620460AF071FE43083B
:1029500003F1376303F5D833B3FBF0F007F0CEFE95
:1029600001210D2008F070FC4FF47A7008F0ACFDE6
:1029700031493248FEF7CAF84FF47A7008F0A4FDE6
:102980002F492E48FEF7C2F84FF47A7008F09CFDEC
:102990002C492D48FEF7BAF840F2D2412A4809F0F6
:1029A00023FB294809F0D4FA28492448FEF7AEF859
:1029B00040F2D241214809F017FB4FF47A7008F039
:1029C00083FD23492048FEF7A1F869461E4809F017
:1029D0009EFA20491948FEF799F86946174809F008
:1029E00096FA4FF47A7008F06FFD1B491648FDF710
:1029F0006DFF154809F0ACFA18491048FEF786F843
:102A00004FF47A7008F060FDFFF74CFF10B11448E6
:102A100005F04CFB00210D2008F016FC114805F0D4
:102A200045FB114805F042FB684609F051FC05B032
:102A300030BD00BFBF830100CE83010060A4FF1F33
:102A4000D1830100DC8301003CA4FF1FEB83010064
:102A5000F283010001840100098401001E84010049
:102A600027840100F27C0100168E01000228F8B5CF
:102A700004460E4615461F4601D014281AD1294691
:102A80003B4805F023FD00282946394803DD05F0C1
:102A90001DFD384B3DE005F019FD002801DB00204D
:102AA000F8BD002EFBDD384600210BF023F900288D
:102AB0003DD1F4E7A0F10F03012B03D90B2801D07E
:102AC0000C2817D129462C4805F000FD002829467E
:102AD000294803DD05F0FAFC284B1AE005F0F6FC66
:102AE0000028DCDA002EDADD384600210BF002F98E
:102AF00050BBD4E70E2801D00A28D0D1294620485F
:102B000005F0E4FC002829461D4804DD05F0DEFC44
:102B10001C4B186029E005F0D9FC0028BFDA002E14
:102B2000BDDD384600210BF0E5F8D8B9B7E73846E7
:102B30000BF0EAF801462046FEF7A6FB642370433B
:102B400090FBF3F60B4B0BE038460BF0DDF801463B
:102B50002046FEF799FB6423704390FBF3F6074B86
:102B60001E6002E0074B00221A600120F8BD00BF82
:102B70005892FF1F6499FF1FC092FF1F4892FF1FCA
:102B8000909CFF1FD092FF1F70B5022804460D468F
:102B90001E46049A01D0142818D1002A00DD12E044
:102BA000002D4BDD304600210BF0A4F8002845D065
:102BB00030460BF0A9F801462046FEF765FB64237A
:102BC000684390FBF3F21E48002127E0A0F10F03B9
:102BD000012B03D90B2801D00C2817D1002A00DDC6
:102BE00011E0002D2ADD304600210BF083F828B3D8
:102BF00030460BF089F801462046FEF745FB64237A
:102C0000684390FBF3F20E48032107E00E2801D041
:102C10000A2813D1002A03DD0948022192B209E0F3
:102C2000002D0BDD304600210BF064F838B104486C
:102C30000221002205F0D4FE012070BD002070BDED
:102C4000B89CFF1F10B5084C0520214608F0A4FAD7
:102C50000320214608F0A0FA19204FF4F471BDE8D2
:102C6000104008F099BA00BF6CDC0200F8B50746C6
:102C70000E461C481D21154606F0ACF900211948E6
:102C8000FDF748FF00214FF47A72164806F09FFACC
:102C90004023013BFDD11D210722124806F086FA90
:102CA000104805F0EBFE0F4805F0E8FE000202D1E7
:102CB0000C4805F0E3FE00243C600A4805F0DEFE07
:102CC000000202D1074805F0D9FE3460054805F03E
:102CD000D5FE000202D1034805F0D0FE00232B6090
:102CE000F8BD00BF4C9FFF1F10B50D4C1D212046A5
:102CF00006F070F90D212046FDF70CFF204600215B
:102D000006F073FA4023013BFDD11D21012220462C
:102D100006F04CFA204605F0B1FEC0B210BD00BF6F
:102D20004C9FFF1F08B52A200021FDF75DFE0E20F5
:102D30000021FDF759FE2A200121FDF755FEFFF77E
:102D4000D3FF5A2814BF4FF0FF30002008BDFFFF0B
:102D500010B50F4C0E21204606F03CF90721204605
:102D6000FDF7D8FE204601214FF47A7206F02FFAC3
:102D70004023013BFDD10E210122204606F016FA28
:102D8000022008F0A1FB204605F078FEC0B210BD7D
:102D90004C9FFF1F08B5012008F096FB0E2110483C
:102DA00006F018F910210E48FDF7B4FE29210C4851
:102DB000FDF7B0FEA0210A48FDF7ACFE01214FF45B
:102DC0007A72074806F003FA012008F07DFBFFF74E
:102DD000BFFFC42814BF4FF0FF30002008BD00BF64
:102DE0004C9FFF1F2DE9F04180460F4634480E21CD
:102DF000164606F0EFF801213148FDF78BFE012160
:102E00004FF47A722E4806F0E2F94023013BFDD1DF
:102E10002B480E21062206F0C9F90023336028480A
:102E20003B60C8F8003005F01FFE20B1244805F0D3
:102E300025FEC5B200E00546214805F015FE20B18B
:102E40001F4805F01BFEC4B214B92C0202D00024A6
:102E5000012300E02346C8F80030194805F004FEBD
:102E600018B1174805F00AFEC5B2154805F0FCFD7B
:102E700018B1134805F002FEC4B224B92B020CBFEE
:102E80000023012300E001233B600D4805F0ECFD29
:102E900018B10B4805F0F2FDC5B2094805F0E4FD94
:102EA00018B1074805F0EAFDC4B224B92D020CBFE1
:102EB0000023012300E001233360BDE8F08100BF5F
:102EC0004C9FFF1F38B5144C05465A21204606F08A
:102ED00081F8236820461B680DB1062100E0072118
:102EE000984700210C4806F080F95A2102220A482E
:102EF00006F065F9084805F0C1FD0446064805F0EE
:102F0000BDFD0546044806F074F9E4B205F07F0003
:102F100004EB002038BD00BF4C9FFF1FFFFFFFFFE9
:102F200070B5194E852333700446052008F0CCFA9D
:102F30002046FFF7C7FF0AF07BF80DA3D3E9002373
:102F40000AF0DCF80CA3D3E9002309F023FF0B23DC
:102F500004460D463370052008F0B6FA08A3D3E9FD
:102F600000232046294609F015FF0AF0A9FB70BD91
:102F70007B14AE47E17A943F7B14AE47E17A843FFD
:102F8000666666666612714001600640AFF30080B7
:102F90002DE9F74F07460E46924601934C014FF438
:102FA00080750820002108F04FF914B12346013B39
:102FB000FDD10820012108F047F914B12346013B57
:102FC000FDD1013DEDD10820294608F03DF914B1AD
:102FD0002346013BFDD10820012108F035F90720E7
:102FE000002108F031F914B12346013BFDD108203E
:102FF000002108F029F914B12346013BFDD1082036
:10300000012108F021F90720012108F01DF914B170
:103010002346013BFDD14FF47A735F43F30097FBE6
:10302000F3F700253EE008F00FF914B12346013B09
:10303000FDD10820012108F007F914B12346013B16
:10304000FDD10820002108F0FFF814B12346013B10
:10305000FDD10820012108F0F7F814B12346013B07
:10306000FDD10820002108F0EFF814B12346013B00
:10307000FDD10820012108F0E7F814B12346013BF7
:10308000FDD10820002108F0DFF814B12346013BF0
:10309000FDD10820012108F0D7F814B12346013BE7
:1030A000FDD1013508200021BD42BCDB08F0CCF881
:1030B00014B12346013BFDD10820012108F0C4F8DA
:1030C0000720002108F0C0F814B12346013BFDD1D0
:1030D0000820002108F0B8F814B12346013BFDD1C7
:1030E0000820012108F0B0F80720012108F0ACF811
:1030F00014B12346013BFDD1434D444FDFF810B1DD
:103100000023CAEB06092B604FEA49194FF4807877
:103110000820002108F098F814B12346013BFDD1A6
:103120000820012108F090F814B12346013BFDD19D
:103130000820002108F088F8019B83B92B68222021
:10314000009308F03DFB009B27F813002B685BF809
:10315000232037F813108A184BF8232008E0222088
:1031600008F02EFB2B6837F81320101827F81300EF
:103170002B68013356452B6005DDB9F1000F02D0F5
:103180004B46013BFDD10820012108F05DF814B148
:103190002346013BFDD10820002108F055F814B169
:1031A0002346013BFDD10820012108F04DF814B160
:1031B0002346013BFDD10820002108F045F814B159
:1031C0002346013BFDD10820012108F03DF814B150
:1031D0002346013BFDD1B8F1010899D14FF4807528
:1031E0000820002108F030F814B12346013BFDD13E
:1031F0000820012108F028F814B12346013BFDD135
:10320000013DEDD1BDE8FE8FCC92FF1F289DFF1F31
:103210004893FF1F38B50D480D4D04F033FF0024CF
:1032200035F814000AF052FB042104F057FFFF2C7C
:1032300002D0084804F026FF0134B4F5807FEFD1B6
:103240000548BDE8384004F01DBF00BF3E840100C2
:10325000289DFF1FA6840100608D010070B5064601
:103260000D460024A119044804F080FF28550134BC
:10327000042CF7D1204670BD419FFF1F70B5064654
:103280000D460024A1192A5D0348013404F071FFA2
:10329000042CF7D1204670BD419FFF1F2DE9F3415B
:1032A00002ADDFF8308045F8041D064617460024BD
:1032B00030460AF00FFB014654F808000AF0F2FC11
:1032C00018B1E0192946FFF7D9FF0434682CEFD173
:1032D000BDE8FC810C8BFF1F2DE9F34102ADDFF847
:1032E000308045F8041D06461746002430460AF093
:1032F000F1FA014654F808000AF0D4FC18B1E019BC
:103300002946FFF7BBFF0434682CEFD1BDE8FC81F0
:103310000C8BFF1F7FB540F28360002407F0EEF9AD
:1033200003254FF4FA7008F0CFF8224623462146D1
:103330008DE830005448554E05F0A4FC544841F245
:10334000883105F02FFB5348534905F069FA51487D
:10335000524905F035FA21464E4805F02AFA4D4803
:1033600005F0C2FA1D20012107F09AFF21462846E8
:1033700007F096FF0F20012107F092FF1020012196
:1033800007F08EFF0B20012107F08AFF0C2001219E
:1033900007F086FF1420012107F082FF022001219F
:1033A00007F07EFF0E20012107F07AFF0A2001219D
:1033B00007F076FF0520012107F072FF384B8022CD
:1033C0001A600620012107F06BFF1520012107F08C
:1033D00067FF1620012107F063FF1120214607F047
:1033E0005FFF304B40221A60022333600D20012121
:1033F00007F056FF2220214607F052FF23202146E6
:1034000007F04EFF2846284907F0C6FE052026494A
:1034100007F0C2FE1720012107F042FF04233360AA
:103420001C20012107F03CFF0720012107F038FF95
:103430000820012107F034FF21461C2007F004FF7B
:103440000720012107F000FF0820012107F0FCFE02
:103450001C20012107F0F8FE04A90023134C41F8B9
:10346000083D1020FFF7FAFE029821460AF01AFCE8
:1034700028B904A9102041F8044DFFF7FFFEFFF71B
:1034800089FCFFF74FFC7FBD4C9FFF1F84F00F406E
:10349000B89CFF1FBC99FF1F0000484300002F4449
:1034A000C4F00F40C8F00F406CDC0200448BEC3ECF
:1034B00070B506460D460024A119044804F056FED6
:1034C00028550134082CF7D1204670BD419FFF1FBD
:1034D0007FB506463048314D314C04F0D3FD3148BC
:1034E00004F0D0FD304804F0CDFD0021286804F040
:1034F000F5FD2E4804F0C6FD02212D4804F0EEFD36
:103500002C4804F0BFFD0021206804F0E7FD2A48A4
:1035100004F0B8FD0020FDF747FB284804F0B2FD99
:1035200027494FF4B460FFF7C3FF2649684608F007
:1035300010FF0122022322496846FDF713FF684667
:1035400008F0C6FE04F0F8FD012E21D14EF66020F1
:10355000FDF738FE0AF0B4F81B4928600AF0A2FB18
:10356000B0B929460C20FFF789FE4EF66020FDF722
:1035700029FE0AF0A5F8144920600AF093FB0546DD
:1035800030B914202146FFF779FE2846FFF7A0FF47
:10359000012007F099FF7FBD4B8401001C9DFF1F98
:1035A000C09BFF1F5C8401006684010076840100DB
:1035B000448BEC3E8C840100A5840100A6840100AC
:1035C000048BFF1FA8840100000080BFF8B50746E8
:1035D0000E46002441F27C65E119325D0348013456
:1035E00004F0C7FDAC42F7D12046F8BD419FFF1F54
:1035F00070B506460D460024A1192A5D0448013421
:1036000004F0B7FDB4F5A06FF6D1204670BD00BF41
:10361000419FFF1F70B506460D460024A1190448BE
:1036200004F0A4FD28550134682CF7D1204670BD64
:10363000419FFF1F70B506460D460024A11904489E
:1036400004F094FD285501340C2CF7D1204670BDB0
:10365000419FFF1F1FB50446CD490020FFF7FEFD27
:103660000420CC49FFF7FAFD0820CB49FFF7F6FD0F
:103670000C20CA49FFF7F2FD1420C949FFF7EEFDFF
:103680001820C849FFF7EAFD1C20C749FFF7E6FDEF
:103690002020C649FFF7E2FD2420C549FFF7DEFDE3
:1036A0002820C449FFF704FF3C20C349FFF7B2FFBD
:1036B000B420C249FFF7AEFFC1494FF49670FFF73F
:1036C000A9FFC0494FF4D270FFF7A4FFBE494FF4E1
:1036D0000770FFF79FFFBD494FF42570FFF79AFF72
:1036E000BB494FF45C70FFF795FFBA494FF47A700D
:1036F000FFF790FFB8494FF48C60FFF78BFFB74995
:103700004FF49B60FFF786FFB5494FF4AA60FFF7BF
:10371000CFFEB4494FF4AB60FFF7CAFEB2494FF495
:10372000AC60FFF7C5FEB1494FF4AD60FFF7C0FED6
:10373000AF494FF4AE60FFF7BBFEAE494FF4AF6048
:10374000FFF7B6FEAC494FF4B060FFF7B1FEAB49EE
:103750004FF4B160FFF7ACFEA9494FF4B260FFF738
:10376000A7FEA8494FF4B360FFF7A2FEA6494FF4A5
:10377000B460FFF79DFEA5494FF4B560FFF798FED2
:10378000A3494FF4B660FFF793FEA2494FF4B76028
:10379000FFF78EFEA0494FF4DC60FFF789FE9F49DA
:1037A0004FF4B860FFF784FE9D494FF4B960FFF70E
:1037B0007FFE9C494FF4BA60FFF77AFE9A494FF4B6
:1037C000BB60FFF775FE99494FF4BC60FFF770FED0
:1037D00097494FF4BD60FFF76BFE96494FF4BE600A
:1037E000FFF766FE94494FF4BF60FFF761FE93490F
:1037F0004FF4C060FFF75CFE91494FF4C160FFF7E2
:1038000057FE90494FF4C260FFF752FE8E494FF4C5
:10381000C360FFF74DFE8D494FF4C460FFF748FECB
:103820008B494FF4C560FFF743FE8A494FF4C660E9
:10383000FFF73EFE88494FF4C760FFF739FE87491E
:103840004FF4C860FFF734FE85494FF4C960FFF7B5
:103850002FFE84494FF4CA60FFF72AFE82494FF4D5
:10386000CB60FFF725FE81494FF4CC60FFF720FEC7
:103870007F494FF4CD60FFF71BFE7E494FF4CE60C9
:10388000FFF716FE7C494FF4CF60FFF711FE7B492E
:103890004FF4D060FFF70CFE79494FF4D160FFF789
:1038A00007FE78494FF4D260FFF702FE76494FF4E5
:1038B000D360FFF7FDFD75494FF4D460FFF7F8FDC5
:1038C00073494FF4D560FFF7F3FD72494FF4D660AA
:1038D000FFF7EEFD70494FF4D760FFF7ABFE6F497D
:1038E00040F2C460FFF7A6FE6D494FF4DA60FFF7BF
:1038F000A1FE6C4940F2DC60FFF79CFE4FF4DD60F6
:103900006949FFF797FE012C40F0B884674804F03E
:10391000B9FB2046FDF7B2FD2046FDF765FB644983
:10392000684608F016FD002262496846FDF750FD22
:10393000684608F0CDFC6049684608F00AFD0022A0
:103940001D496846FDF744FD684608F0C1FC5B4927
:10395000684608F0FEFC002218496846FDF738FD6D
:10396000684608F0B5FC5649684608F0F2FC0022AB
:1039700013496846FDF72CFD684608F0A9FC51493B
:10398000684608F0E6FC00220E4968469CE000BF4D
:10399000848BFF1F008BFF1F6099FF1F1C9DFF1F63
:1039A000C09BFF1FD492FF1FB49BFF1FD892FF1F25
:1039B000B89BFF1F609CFF1F209AFF1F4C9BFF1F9F
:1039C000889AFF1FDC9BFF1FE092FF1F4897FF1F95
:1039D000B897FF1F2898FF1F9098FF1FF898FF1FA8
:1039E000689CFF1F749CFF1F249BFF1F7C9CFF1F74
:1039F000849CFF1F4092FF1F989CFF1F4C92FF1F4B
:103A0000449BFF1F6899FF1F048BFF1F7099FF1FC6
:103A10007899FF1F8099FF1F8899FF1F9099FF1FBA
:103A20009899FF1FA099FF1FA899FF1FB099FF1F2A
:103A3000049BFF1F0C9BFF1F149BFF1F1C9BFF1F62
:103A4000D09BFF1F2C9BFF1F349BFF1F449CFF1F1D
:103A5000509CFF1F3C9BFF1FA09CFF1FA89CFF1FAB
:103A6000B09CFF1F2098FF1FEC9CFF1FF49CFF1FC2
:103A7000FC9CFF1F049DFF1F0C9DFF1F149DFF1F3B
:103A8000589CFF1F6892FF1F7092FF1F7892FF1FC4
:103A90008092FF1F8892FF1F9092FF1F9C92FF1F32
:103AA000A892FF1FB492FF1FCC99FF1F107D010049
:103AB000B78401000C8BFF1FC0840100D284010079
:103AC000E3840100FD840100FDF782FC684608F0F4
:103AD000FFFBB649684608F03CFC0022B449684642
:103AE000FDF776FC684608F0F3FBB249684608F03B
:103AF00030FC0022B0496846FDF76AFC684608F0D1
:103B0000E7FBAE49684608F024FC0022AC49684651
:103B1000FDF75EFC684608F0DBFBAA49684608F042
:103B200018FC0022A8496846FDF752FC684608F0D8
:103B3000CFFBA649684608F00CFC0022A449684661
:103B4000FDF746FC684608F0C3FBA249684608F04A
:103B500000FC0022A0496846FDF73AFC684608F0E0
:103B6000B7FB9E49684608F0F4FB002202239C49FB
:103B70006846FDF7F7FB684608F0AAFB99496846D6
:103B800008F0E7FB0022022397496846FDF7EAFBAD
:103B9000684608F09DFB9549684608F0DAFB00226C
:103BA000022393496846FDF7DDFB684608F090FB69
:103BB0009049684608F0CDFB002202238E496846F2
:103BC000FDF7D0FB684608F083FB8C49684608F097
:103BD000C0FB002202238A496846FDF7C3FB684602
:103BE00008F076FB8749684608F0B3FB0022022301
:103BF00085496846FDF7B6FB684608F069FB8349CE
:103C0000684608F0A6FB0022022381496846FDF7BA
:103C1000A9FB684608F05CFB7E49684608F099FB02
:103C2000002202237C496846FDF79CFB684608F0A9
:103C30004FFB7A49684608F08CFB00220223784942
:103C40006846FDF78FFB684608F042FB75496846F9
:103C500008F07FFB0022022373496846FDF782FBD0
:103C6000684608F035FB7149684608F072FB00228F
:103C70006F4902236846FDF775FB684608F028FB8C
:103C80006C49684608F065FB002202236A496846D1
:103C9000FDF768FB684608F01BFB6849684608F0BA
:103CA00058FB0022022366496846FDF75BFB684625
:103CB00008F00EFB6349684608F04BFB0022022324
:103CC00061496846FDF74EFB684608F001FB5F4915
:103CD000684608F03EFB002202235D496846FDF776
:103CE00041FB684608F0F4FA5A49684608F031FB8F
:103CF0000022022358496846FDF734FB684608F065
:103D0000E7FA5649684608F024FB0022022354498A
:103D10006846FDF727FB684608F0DAFA514968461D
:103D200008F017FB002202234F496846FDF71AFBF3
:103D3000684608F0CDFA4D49684608F00AFB0022B3
:103D400002234B496846FDF70DFB684608F0C0FAB0
:103D50004849684608F0FDFA0022022346496846B1
:103D6000FDF700FB684608F0B3FA4449684608F0DE
:103D7000F0FA0022022342496846FDF7F3FA68464A
:103D800008F0A6FA3F49684608F0E3FA0022022349
:103D90003D496846FDF7E6FA684608F099FA3B495E
:103DA000684608F0D6FA0022022371E01685010069
:103DB000E092FF1F318501004897FF1F4B850100EE
:103DC000B897FF1F5E8501002898FF1F71850100CD
:103DD0009098FF1F84850100F898FF1F3A88010022
:103DE000609CFF1F47880100689CFF1F54880100EA
:103DF000749CFF1F61880100249BFF1F6E880100D7
:103E00007C9CFF1F7B880100849CFF1F8888010029
:103E10004092FF1F95880100989CFF1FA288010017
:103E20004C92FF1FAF880100449BFF1FBC8801001C
:103E30006899FF1FCA8801007099FF1FD888010088
:103E40007899FF1FE68801008099FF1FF488010020
:103E50008899FF1F028901009099FF1F10890100B6
:103E60009899FF1F1E890100A099FF1F2C8901004E
:103E7000A899FF1F3A890100B099FF1F48890100E6
:103E8000049BFF1F568901000C9BFF1F64890100E2
:103E9000B7496846FDF766FA684608F019FAB54969
:103EA000684608F056FA00220223B3496846FDF737
:103EB00059FA684608F00CFAB049684608F049FA21
:103EC00000220223AE496846FDF74CFA684608F026
:103ED000FFF9AC49684608F03CFA00220223AA49DF
:103EE0006846FDF73FFA684608F0F2F9A7496846C8
:103EF00008F02FFA00220223A5496846FDF732FA9E
:103F0000684608F0E5F9A349684608F022FA00225D
:103F10000223A1496846FDF725FA684608F0D8F95A
:103F20009E49684608F015FA002202239C4968461B
:103F3000FDF718FA684608F0CBF99A49684608F088
:103F400008FA0223002298496846FDF70BFA6846F2
:103F500008F0BEF99549684608F0FBF9002294493B
:103F600002236846FDF7FEF9684608F0B1F9914969
:103F7000684608F0EEF9002202238F496846FDF7F3
:103F8000F1F9684608F0A4F98C49684608F0E1F9AF
:103F9000002202238A496846FDF7E4F9684608F0E2
:103FA00097F98849684608F0D4F900220223864927
:103FB0006846FDF7D7F9684608F08AF983496846EC
:103FC00008F0C7F90022022381496846FDF7CAF9C3
:103FD000684608F07DF97F49684608F0BAF9002282
:103FE00002237D496846FDF7BDF9684608F070F97F
:103FF0007A49684608F0ADF90022022378496846FC
:10400000FDF7B0F9684608F063F97649684608F0AC
:10401000A0F90022022374496846FDF7A3F9684617
:1040200008F056F97149684608F093F90022022316
:104030006F496846FDF796F9684608F049F96D49F9
:10404000684608F086F9002202236B496846FDF7AE
:1040500089F9684608F03CF96849684608F079F93A
:104060000022022366496846FDF77CF9684608F09D
:104070002FF96449684608F06CF90022022362496E
:104080006846FDF76FF9684608F022F95F4968460F
:1040900008F05FF9002202235D496846FDF762F9E6
:1040A000684608F015F95B49684608F052F90022A5
:1040B000594902236846FDF755F9684608F008F9A2
:1040C0005649684608F045F90022022354496846DB
:1040D000FDF748F9684608F0FBF85249684608F0D1
:1040E00038F90022022350496846FDF73BF968463B
:1040F00008F0EEF84D49684608F02BF9002203233A
:104100004B496846FDF72EF9684608F0E1F8494941
:10411000684608F01EF90022032347496846FDF768
:1041200021F9684608F0D4F84449684608F011F9C6
:104130000022032342496846FDF714F9684608F057
:10414000C7F84049684608F004F9002203233E49B5
:104150006846FDF707F9684608F0BAF83B49684633
:1041600008F0F7F8002203233949684672E000BFDF
:10417000149BFF1F728901001C9BFF1F8089010097
:10418000D09BFF1F8E8901002C9BFF1F9C89010083
:10419000349BFF1FAA890100449CFF1FB8890100BE
:1041A000509CFF1FC68901003C9BFF1FD489010062
:1041B000A09CFF1FE2890100A89CFF1FF08901005D
:1041C000B09CFF1FFE8901002098FF1F0C8A010090
:1041D000EC9CFF1F1A8A0100F49CFF1F288A010033
:1041E000FC9CFF1F368A0100049DFF1F448A0100CA
:1041F0000C9DFF1F528A0100149DFF1F608A010061
:10420000589CFF1F6E8A01006892FF1F7C8A010084
:104210007092FF1F8A8A01007892FF1F988A01001E
:104220008092FF1FA68A01008892FF1FB48A0100B6
:104230009092FF1FC28A01009C92FF1FD08A01004A
:10424000A892FF1FDE8A0100B492FF1FEC8A0100D2
:10425000CC99FF1FFDF786F8684608F039F8084941
:10426000684608F076F86846064922460223FDF7BC
:1042700079F8684608F02CF803F05EFF1FBD00BF18
:1042800097850100048BFF1F38B501204EF660248E
:10429000FFF7E0F92046FCF795FF09F011FA0B4D06
:1042A000286029460420FEF7E9FF2046FCF78AFF34
:1042B00009F006FA064C206021460820FEF7DEFFD2
:1042C0000120BDE83840FFF7C5B900BF008BFF1FD4
:1042D0006099FF1F38B501204EF66024FFF7BAF948
:1042E0002046FCF76FFF09F0EBF9164D28602946D0
:1042F0001820FEF7C3FF2046FCF764FF09F0E0F941
:10430000114D286029461C20FEF7B8FF2046FCF717
:1043100059FF09F0D5F90D4D286029462020FEF7F8
:10432000ADFF2046FCF74EFF09F0CAF9084C2060AB
:1043300021462420FEF7A2FF0120BDE83840FFF708
:1043400089B900BFD492FF1FB49BFF1FD892FF1FF3
:10435000B89BFF1F012B2DE9F34705460F469046FA
:1043600005D00024DFF89490DFF894A03CE01846D4
:10437000FFF770F900240CE04EF66020FCF722FFF6
:1043800009F09EF901A901902846FEF777FF013454
:104390004544BC42F0DB2AE04EF66020FCF712FFF9
:1043A00009F08EF90021064609F0A4FC38B1304628
:1043B000114909F081FC10B1CDF804A008E03046A5
:1043C000002109F079FC08B9019601E0CDF80490CC
:1043D00002AE062156F8040D03F080FE2846314651
:1043E000FEF74CFF01344544BC42D5DB02E001201E
:1043F000FFF730F9BDE8FC8700409C4520BCBE4C6F
:104400000060EA472DE9F04105460120FFF722F957
:1044100005F178064EF66020FCF7D4FE09F008F9A5
:10442000431C044623D04EF66020FCF7CBFE09F077
:1044300047F91149804609F035FCC0B94EF66020B5
:10444000FCF7C0FE09F03CF90B49074609F02AFCCD
:1044500068B9204641462A46FEF73EFF20463946C7
:104460003246FEF71BFF012007F02EF8D2E70120AD
:10447000BDE8F041FFF7EEB8000080BF10B5ADF524
:10448000DC5D0446002141F27C620DF204500AF02A
:1044900005F901A800214FF4A0620AF0FFF80CB959
:1044A000204600E03C200DF20451FFF78FF801A9EF
:1044B0004FF4B560FFF79CF8054803F0E3FD03F007
:1044C0003BFE0120FFF7C6F80DF5DC5D10BD00BF17
:1044D000A2850100B64B04222DE9F04700211A60A5
:1044E000064640F6FF72B348B34C04F079FA8025D3
:1044F000012140F6FF72AF4804F072FA022140F643
:10450000FF722560AB4804F06BFA032140F6FF729E
:10451000A84804F065FAA94B1D60FDF776FF622EEE
:104520002CD10020FFF796F827464EF66020FCF7C6
:1045300049FE0022A24B04460D4609F047F8B8B9DF
:10454000FDF763FF2946204609F09AF8002182B260
:10455000984804F045FA002320462946002209F035
:1045600035F8202310B9954A1360DEE73B60DCE79D
:10457000FDF74BFF904B20221A604EE0632E4CD18A
:104580000020FFF767F84EF66020FCF71BFE09F0ED
:104590004FF805468B48DFF8508203F073FD002189
:1045A0000A46844804F01CFA82480321002204F0E1
:1045B00017FA00245FFA85F924E058F8393083F8B7
:1045C00000A10BE01FFA87FA00215246794804F057
:1045D00007FA78480321524604F002FA04212046E3
:1045E00003F07CFD784803F04DFD384609F072F980
:1045F000022103F073FD744803F044FD4FF47A7018
:1046000006F062FF06F064FB022800F3FD8006F06E
:10461000EDF9022840F30281F6E00024FDF7F5FEF3
:10462000642E01D1FDF702FFFDF7EFFE652E0DD1DF
:10463000664803F027FD06F04BFB022800F3688173
:1046400006F0D4F9022840F3068161E1662E0DD10F
:104650005F4803F017FD06F03BFB022800F358818A
:1046600006F0C4F9022840F3098151E1672E0DD10B
:10467000584803F007FD06F02BFB022800F34881A1
:1046800006F0B4F9022840F3098141E1682E0DD10A
:10469000514803F0F7FC06F01BFB022800F33881B9
:1046A00006F0A4F9022840F3078131E1692E0DD10B
:1046B0004A4803F0E7FC06F00BFB022800F32881D0
:1046C00006F094F9022840F3058121E16A2E0DD10C
:1046D000434803F0D7FC06F0FBFA022800F31881E8
:1046E00006F084F9022840F3068111E1731E202BA5
:1046F0003BD83C48DFF8F08003F0C4FC4EF6602065
:10470000FCF760FD08F094FF411C074624D0BDB2C1
:10471000FDF77BFE00212A46264804F061F90121BD
:104720002A46244804F05CF902212A46214804F074
:1047300057F92A461F48032104F052F958F8362049
:10474000012382F8803058F8362017B182F8803083
:10475000D4E782F80031D1E7FDF757FE224B53F83A
:104760003630012283F8002142E0A6F12203032B18
:104770003ED8114F114D4EF66020FCF723FD08F096
:1047800057FF421C32D0102340013B6001D001385A
:10479000FDD1F0B207F014F810232B6009F09AF85D
:1047A000022103F09BFC084803F06CFCE3E700BF28
:1047B00088F00F40B89CFF1FC8F00F40C4F00F40B6
:1047C0000000F0BFB6850100A6840100C685010087
:1047D000DB850100EA850100FB85010012860100EE
:1047E0002B86010048860100F08E0100FDF70DFECA
:1047F000494B042220461A60022103F06FFC47480F
:10480000BDE8F04703F03EBCFDF7FFFDEDB2444BC1
:1048100053F83530012283F80021FFE658F839308B
:104820004FF0010A83F880A00020FCF73FFB09F05D
:1048300051F8FCF71BFD044609F066FA01462846CC
:10484000FCF722FD00210746204609F02BFA00283C
:104850007FF4B3AEB6E60120FCF728FB09F03AF886
:10486000FCF704FD0221044603F038FC2D4803F058
:1048700009FC4FF4FA6006F027FEDCE6FDF74CFC7D
:1048800009F024F80221044603F028FC254803F02F
:10489000F9FB4FF4FA6006F017FEDCE6FCF71AF9B4
:1048A0000221044603F01AFC1E4803F0EBFB4FF410
:1048B000FA6006F009FEDEE6FCF7F0F80221044695
:1048C00003F00CFC174803F0DDFB4FF4FA6006F030
:1048D000FBFDE0E60020FCF7E9FA08F0FBFF02210F
:1048E000044603F0FBFB0F4803F0CCFB4FF4FA60E7
:1048F00006F0EAFDDFE6FDF743FD0221044603F082
:10490000EDFB084803F0BEFBC82006F0DDFDE2E643
:10491000FDF77BFDEAE600BF84F00F404B86010007
:10492000F08E0100A68401002DE9F04FADF5235D66
:104930008BB030AF32200025C7F8A8D006F0C4FDF8
:10494000B24BC7F884511B680120C7F8A031D7F8D3
:10495000A03109F0A7FA07F5D476C7F8200146F888
:10496000045C042046F8045909F09CFAA84BC7F8E7
:1049700040011B68073323F00703ADEB030DA54B84
:104980001B68C7F8D0301B01083330ACADEB030D0A
:1049900030AAC7F8582103E0002107F0DAFC0135FE
:1049A000D7F8D010D7F858318D4203EB0510F3D16A
:1049B000974BDFF860821A682046002109F06EFEEE
:1049C000002507E0D7F85821934902EB051007F0BE
:1049D000F8FC0135D8F800309D42F3DB0020FEF7EB
:1049E00039FE8E4B10251D600A2006F06DFD8C4BA4
:1049F0008C491D6007F51A7007F0ABFC07F5CA7506
:104A0000F3E107F51A7007F072FDC72843F32A8215
:104A100003F081B80A2006F057FDE6E1824803F072
:104A200031FB824803F042FBDFE1FCF77DF8DCE17B
:104A3000FDF774FFD9E1FCF78DF8D6E10120FCF712
:104A4000B3F8D2E10120FEF705FECEE1FFF71CFC32
:104A5000CBE100200AE0FFF73DFCC6E13C2001E08D
:104A60004FF49670FFF7CEFCBFE10120FEF730FD5A
:104A7000BBE14FF40770F5E74FF45C70F2E74FF4D9
:104A80008C60EFE7002000E00120FFF7F7FCACE1CD
:104A9000282001E04FF4AA60022104220123FFF73D
:104AA00059FCA2E14FF4AB60F6E74FF4AC60F3E7DA
:104AB0004FF4AD60F0E74FF4AE60EDE74FF4AF6058
:104AC000EAE7FCF775F990E105F0ACFAFCF78CF930
:104AD0008BE14FF4B060DFE74FF4B160DCE74FF4F7
:104AE000B260D9E74FF4B360D6E704220023012176
:104AF0004FF4B460FFF72EFC4D4803F0C3FA4D4964
:104B00004FF4B460FEF7D4FC07F526704A4907F06D
:104B100020FC07F52670474901220223FCF722FCFE
:104B200007F5267007F0D4FB03F006FB5DE14FF4B8
:104B3000B560B1E74FF4B660AEE74FF4B760ABE7EE
:104B40004FF4DC60A8E707F5C87249464046FEF717
:104B50008DF8D8F8000008F0BDFE062103F0BEFA7B
:104B6000364803F08FFAD9F8000008F0B3FE0621AA
:104B700003F0B4FA314803F085FAD7F8900108F051
:104B8000A9FE062103F0AAFA2C4803F07BFA642060
:104B900006F09AFC05E007F5D47107F5C478A1F199
:104BA0001C0906F077F83128CDD106F04BF81CE14E
:104BB00007F5CE7241462846FEF714F9C82006F0E4
:104BC00083FC286808F086FE062103F087FA1B485C
:104BD00003F058FAD8F8000008F07CFE062103F034
:104BE0007DFA164803F04EFAD7F89C0108F072FEE1
:104BF000062103F073FA114803F044FA01E007F5C7
:104C0000CC7805F019FF3128D2D1CEE7A8A3FF1F39
:104C1000FC8AFF1F748BFF1F168E0100C8F00F4027
:104C2000C4F00F401C8401005C8401004E8601002A
:104C3000107D0100048BFF1F97850100A6840100F1
:104C40004046494607F5C872FEF710F807F5D47ECE
:104C5000AEF10C0207F5CC712846FEF7C3F8C82068
:104C600006F032FCD8F8000008F034FE062103F00C
:104C700035FAB54803F006FAD9F8000008F02AFE24
:104C8000062103F02BFAB04803F0FCF9D7F89001A5
:104C900008F020FE062103F021FAAB4803F0F2F9F8
:104CA000286808F017FE062103F018FAA64803F05A
:104CB000E9F9D7F8980108F00DFE062103F00EFA85
:104CC000A14803F0DFF9D7F89C0108F003FE0621A4
:104CD00003F004FA9C4803F0D5F905E007F5D47E0B
:104CE00007F5C478AEF11C0905F0D4FF3128A7D12F
:104CF0005BE74FF4B860CFE64FF4B960CCE64FF411
:104D0000BA60C9E64FF4BB60C6E64FF4BC60C3E6C8
:104D10004FF4BD60C0E64FF4BE60BDE64FF4BF6027
:104D2000BAE64FF4C060B7E64FF4C160B4E64FF4A2
:104D3000C260B1E64FF4C360AEE64FF4C460ABE6C8
:104D40004FF4C560A8E64FF4C760A5E64FF4C8600D
:104D5000A2E64FF4C9609FE64FF4CA609CE64FF4A8
:104D6000CB6099E64FF4CC6096E64FF4CD6093E6C5
:104D70004FF4CE6090E64FF4CF608DE64FF4D060F4
:104D80008AE64FF4D16087E64FF4D26084E64FF4B0
:104D9000D36081E64FF4D4607EE64FF4D5607BE6C5
:104DA0004FF4D66078E64FF4D7600AE040F2C46072
:104DB00007E04FF4DA6004E040F2DC6001E04FF419
:104DC000DD60032169E60020FEF7AAF8032103F065
:104DD00085F90AE0232164200A460023FEF7D8F86B
:104DE000FEF718FA01E0FBF705FC05F053FF5B281E
:104DF00003F05A8005F020FE5B2843F03D8003F06D
:104E000053B805F019FE5B280CBF0225002500E011
:104E1000012505F017FF05F0F7FD012D08D0022D43
:104E200058D04A4803F042F90022C7F85C21ACE0B0
:104E300047484FF4FA6107F0FDF8464B44481B68B9
:104E4000212122464FF0000807F0F6F841F287359D
:104E5000C7F85C8114F808307B2B1DD105E0504663
:104E600007F0E8FA08F1010807E0D7F85C31D7F855
:104E700058E14FEA03190EEB090A14F808107D29CE
:104E8000EDD1D7F8582102EB090007F0D3FAD7F893
:104E90005C310133C7F85C3108F10108A845D9DD60
:104EA000002412E0D7F858E130210EEB041507F585
:104EB000267007F0A1FA07F52671284607F0DDFAFB
:104EC00007F5267007F004FA0134D7F85C118C421C
:104ED000E8DB5AE020484FF47A7107F0ABF81D4B3D
:104EE0001D481B68212122464FF0000807F0A4F856
:104EF00041F28735C7F85C8114F808307B2B1DD14F
:104F000005E0504607F096FA08F1010807E0D7F8E7
:104F10005C21D7F858314FEA021903EB090A14F85B
:104F200008107D29EDD1D7F858E10EEB090007F004
:104F300081FAD7F85C110131C7F85C1108F101085A
:104F4000A845D9DD00241CE0A68401005586010097
:104F50003CA4FF1FFC8AFF1F60A4FF1FD7F8582145
:104F6000302102EB041507F5267007F045FA07F526
:104F70002671284607F081FA07F5267007F0A8F990
:104F80000134D7F85C319C42E8DB6B4803F07AF8D7
:104F90006A4B0021186803F0A1F8694803F072F821
:104FA0000221684803F09AF8674803F06BF84FF065
:104FB000000EC7F850E1C7F824E1C7F860E10D2200
:104FC000C7F8D4E0C7F8D8E007F515714FF0010E27
:104FD000C7F8B420C7F8ECE0C7F8CC105B4803F082
:104FE00051F8002202F038BDD7F8200108F062FF26
:104FF000D7F83C31D7F858E11D010EEB05039C684A
:10500000601C08F04FFFD7F85821C7F8200151590C
:1050100022460AF03DF8D7F8203100251D5507F546
:10502000177007F52A7403F0ABFBD7F8201122465E
:105030004FF4167307F5177003F085FAD7F82011AF
:10504000A8420CBF22462A46D7F8CC0003F0B0F99C
:10505000D7F8CCE09EE8030086E80300002802F0C1
:105060002A87002942F0E78402F025BF2301D7F800
:1050700058110134C85803F005F8AC42F6D1FDF7D9
:10508000C4F907F51A7007F023F9002502F02BBDCB
:105090002F49304603F0DDF9014607F51E7007F091
:1050A00058F92C49304603F0CAF930462A4903F032
:1050B000C6F92A4B08B1186001E001221A6028499C
:1050C000284D304603F0BBF92749C7F8A400304605
:1050D00003F0B5F92549C7F8A000304603F0AFF951
:1050E0002349C7F8EC00304603F0A9F92149C7F875
:1050F000D800304603F0A3F91F49C7F8D400304662
:1051000003F09DF9002808BF0120C7F8E8001B49FB
:10511000304603F094F91A49C7F89C00304603F072
:105120008EF91849C7F89800304603F088F958BB43
:105130000D232B602DE000BF7B8601001C9DFF1F0F
:105140008A860100448BEC3EA0860100327D01007E
:10515000AD860100B9860100C0860100788BFF1F73
:10516000C98601007C8BFF1FD8860100EA860100FA
:10517000F78601000A870100208701002A870100C5
:105180003A8701004D8701003046B24903F057F9D4
:105190002860B149B14D304603F051F9002808BFED
:1051A0000A20C7F88400AE49304603F048F90028C9
:1051B00008BF1020C7F88000AA49304603F03FF925
:1051C000002808BF0320C7F8B000A749304603F005
:1051D00036F9002808BF0320C7F8AC00A3493046C1
:1051E00003F02DF9A249F867304603F028F9A149E8
:1051F000C7F81801304603F022F99F49834630462C
:1052000003F01DF99D49C7F8F400304603F017F983
:105210009B49B867304603F012F907F5D672C7F814
:105220006401C7F8742110463146964A07F5DA7AC8
:1052300003F0F7F850463146934A03F0F2F807F5C9
:10524000DE7E70463146914AC7F870E103F0E9F816
:1052500007F5E2710846C7F86C118D4A314603F034
:10526000E0F807F5E6721046C7F868213146894A2A
:1052700003F0D7F88849304603F0E1F88749C7F8CA
:105280005401304603F0DBF88549C7F84C0130463D
:1052900003F0D5F88349C7F84801304603F0CFF84A
:1052A0008149C7F84401304603F0C9F87F49C7F87F
:1052B0003401304603F0C3F87D49C7F83001304669
:1052C00003F0BDF87B49C7F82C01304603F0B7F86E
:1052D0007949C7F82801304603F0B1F87749C7F893
:1052E0001401304603F0ABF87549C7F81001304699
:1052F00003F0A5F87349C7F80C01304603F09FF896
:105300007149C7F80801304603F099F86F49C7F8AA
:105310000401304603F093F86D49C7F800013046A8
:1053200003F08DF86B49C7F8FC00304603F087F8AE
:105330006949C7F8F800304603F081F86749C7F8B3
:10534000F000304603F07BF86549C7F8E0003046CE
:1053500003F075F86349C7F8DC00304603F06FF8D6
:105360006149C7F8C800304603F069F85F49C7F8DB
:10537000C400304603F063F85D49C7F8C00030460A
:1053800003F05DF85B49C7F8BC00304603F057F8FE
:105390005949C7F8B800304603F051F857497867C3
:1053A000304603F04CF856493867304603F047F86A
:1053B0005449F866304603F042F85349B86630461F
:1053C00003F03DF851497866304603F038F850490B
:1053D0003866304603F033F84E49F865304603F03E
:1053E0002EF84D49B865304603F029F84B497865E9
:1053F000304603F024F84A493865304603F01FF878
:105400004849F864304603F01AF84749B864304612
:1054100003F015F845497864304603F010F8444924
:105420003864304603F00BF84249F863304603F025
:1054300006F84149B863304603F001F83F49786304
:10544000304602F0FCFF3E493863304602F0F7FF79
:1054500078E000BF4D870100628701005892FF1F6E
:105460006C8701007787010088870100978701001A
:10547000B6870100C1870100CB870100D9870100F1
:10548000E4870100EF870100FF8701000B8801001E
:105490001A8801002888010036880100438801002D
:1054A000508801005D8801006A880100778801004A
:1054B00084880100918801009E880100AB8801006A
:1054C000B8880100C6880100D4880100E288010084
:1054D000F0880100FE8801000C8901001A89010092
:1054E00028890100368901004489010052890100A0
:1054F000608901006E8901007C8901008A890100B0
:1055000098890100A6890100B4890100C2890100BF
:10551000D0890100DE890100EC890100FA890100CF
:10552000088A0100168A0100248A0100328A0100DB
:10553000408A01004E8A01005C8A01006A8A0100EB
:10554000788A01007549F862304602F078FF7449A4
:10555000B862304602F073FF72497862304602F05A
:105560006EFF71493862304602F069FF6F49F86199
:10557000304602F064FF6E49B861304602F05FFFCA
:105580006C497861304602F05AFF6B493861304609
:1055900002F055FF3146F860684A07F5EA7002F0FC
:1055A00040FF07F5EE703146654A02F03AFF07F515
:1055B000F2703146634A02F034FF07F5F670314667
:1055C000614A07F5BC7802F02CFF07F5FA70314606
:1055D0005E4A02F026FF404631465D4A02F021FF56
:1055E00098E803005B4A85E803004046314602F034
:1055F00018FF98E80300584D584A85E803004046D4
:10560000314602F00EFF98E80300554D554A85E8F3
:10561000030007F5FE70314602F003FF07F5017045
:105620003146514A02F0FDFE07F5037031464F4AFC
:1056300002F0F7FE07F5057031464D4A02F0F1FE23
:1056400007F5077031464B4A02F0EBFE07F509708B
:105650003146494A02F0E5FE07F50B703146474AEC
:1056600002F0DFFE07F50D703146454A02F0D9FE23
:10567000002507F50F703146424A02F0D2FEC7F806
:10568000E450C7F8385188E0294607F5EA7002F07F
:105690001DFF07F5017180462A46204602F008FFEB
:1056A0002046FBF73DFAD7F8E4E04FF0000900FB95
:1056B00008EEC7F8E4E0C8460FE0204607F50171A0
:1056C0002A4602F0F5FE4946204602F0FFFE002879
:1056D000C8BF08F1010809F10109204607F5017169
:1056E0002A4602F0E5FE2046FBF71AFA8145E4DB84
:1056F000294607F5077002F0E9FE0128294607F55B
:10570000EA7041D102F0E2FED7F8381108FB00F050
:1057100001EB0021C7F838113EE000BF868A010086
:10572000948A0100A28A0100B08A0100BE8A0100A9
:10573000CC8A0100DA8A0100E88A0100F68A0100B9
:10574000FD8A0100098B0100158B0100218B0100EE
:105750002D8B01003D8B0100C092FF1F4E8B01007D
:10576000909CFF1F5E8B0100688B0100748B010011
:10577000828B01008A8B01008F8B01009A8B0100C4
:10578000A48B0100AC8B010002F0A0FED7F83821F9
:1057900008FB0022C7F83821013507F5EA70FBF74E
:1057A000BFF98542FFF670AFD7F8400108F082FBE1
:1057B0000421D7F8380108F0FFFAC7F84001B148D2
:1057C00002F060FCB04802F05DFCD7F8780202F00D
:1057D00059FCAE4802F056FCD7F86431012B02D1D7
:1057E0001846FBF74BFED7F834310093D7F8303129
:1057F0000193D7F82C310293D7F828310393D7F8C7
:1058000014310493D7F810310593D7F80C3106936F
:10581000D7F808310793D7F804310893D7F8003147
:105820000993D7F8FC300A93D7F8F8300B93D7F8E0
:10583000F0300C93D7F8E0300D93D7F8DC300E93AE
:10584000D7F8C8300F93D7F8C4301093D7F8C030CA
:105850001193D7F8BC301293D7F8B83013937B6FFD
:1058600014933B6F1593FB6E1693BB6E17937B6E71
:1058700018933B6E1993FB6D1A93BB6D1B937B6D55
:105880001C933B6D1D93FB6C1E93BB6C1F937B6C39
:1058900020933B6C2193FB6B2293BB6B23937B6B1D
:1058A00024933B6B2593FB6A2693BB6A27937B6A01
:1058B00028933B6A2993FB692A93BB692B937B69E5
:1058C0002C933B692D93FB682E9307F52675D7F82B
:1058D0004821D7F84431D7F85401D7F84C11FBF7D9
:1058E00021FE6B49284606F034FDD7F874E19EE8A6
:1058F0000300002213468DE80300029565496648BF
:10590000FBF7C8F9284606F0E3FC6449284606F090
:1059100020FDD7F8702192E80300002213468DE89D
:10592000030002955E495F48FBF7B4F9284606F08C
:10593000CFFC5D49284606F00CFDD7F86C3193E8A2
:105940000300002213468DE803000295574958488A
:10595000FBF7A0F9284606F0BBFC5649284606F09E
:10596000F8FCD7F868E19EE80300002213468DE8B2
:105970000300029550495148FBF78CF9284606F080
:10598000A7FC4F4B4F49D3F800904F4B2846D3F814
:10599000008006F0DEFC9AE803008DE8030000209A
:1059A000434601464A460295DFF86081FBF772F9EB
:1059B000284606F08DFCD8F80030012B0CDD43485A
:1059C00002F060FBD8F8000007F084FF002102F02D
:1059D00085FB3F4802F056FB3E4B4FF00008C3F8F2
:1059E00000803D4BC3F800803C4BC3F800803C4B2B
:1059F000C3F800803B4BC3F800803B4BC3F80080EA
:105A00003A4BC3F800803A4BC3F80080394BC3F8D7
:105A10000080394BC3F80080384BC3F80080384B06
:105A2000C3F80080374BC3F80080374B5846C3F8A3
:105A30000080FBF7FDFCD7F8F410D7F8A4E0302382
:105A40004B43013BC7F8DC304FF47A7303FB0EF392
:105A500000214FEA4B12C7F8B83007F5CA73C7F8F0
:105A6000E020C7F86411C7F82811C7F82C11C7F84F
:105A70003011C7F8341107F5117BC7F8543101F024
:105A8000F7BE00BF107D0100BB8B0100A5840100A3
:105A9000EF8701004897FF1FE092FF1F0B8801006E
:105AA0004C9BFF1F209AFF1F1A8801002898FF1F98
:105AB000B897FF1F28880100F898FF1F9098FF1FD4
:105AC000008BFF1FFF8701006099FF1FCB8B010038
:105AD000A6840100D899FF1F209DFF1F3492FF1F4D
