:1000000000800020BD010000EDD20000B9D2000048
:10001000B9D20000B9D20000B9D20000B9D20000B4
:10002000B9D20000B9D20000B9D20000EDD2000070
:10003000EDD20000B9D20000EDD20000A9D200003C
:10004000EDD20000EDD20000EDD20000EDD20000B4
:10005000EDD20000EDD20000EDD20000EDD20000A4
:10006000EDD20000EDD20000EDD20000EDD2000094
:10007000EDD20000EDD20000EDD20000EDD2000084
:10008000EDD20000EDD20000EDD20000EDD2000074
:10009000EDD2000061B80000EDD20000EDD200000A
:1000A000F9A90000EDD20000EDD20000EDD2000071
:1000B000EDD20000EDD20000EDD20000EDD2000044
:1000C000EDD20000EDD20000EDD20000EDD2000034
:1000D000EDD20000EDD20000EDD20000EDD2000024
:1000E000EDD20000EDD20000EDD20000EDD2000014
:1000F000EDD2000069C70000EDD2000035EB000032
:10010000EDD200006DDA0000EDD20000EDD200006B
:10011000EDD20000EDD20000EDD20000EDD20000E3
:10012000EDD20000EDD20000EDD20000EDD20000D3
:10013000EDD20000EDD20000EDD20000EDD20000C3
:10014000EDD20000EDD20000EDD20000EDD20000B3
:100150003DDB000055DB00006DDB000085DB0000AF
:10016000EDD2000069BC0000EDD20000EDD200002D
:10017000EDD20000EDD20000EDD20000EDD2000083
:10018000EDD20000EDD20000EDD20000EDD2000073
:10019000EDD20000EDD20000EDD20000EDD2000063
:1001A000EDD20000EDD20000EDD20000EDD2000053
:1001B000EDD20000EDD20000EDD20000564B4CF223
:1001C000205210B51A804DF628121A8000BF00BFC9
:1001D0000BF08CFB514B4FF010621A60504A9A6042
:1001E000504ADA60A3F53043203B1A6812F480725B
:1001F00004D14D490A604FF4A8521A604B4B1A784B
:10020000110703D51A7842F008021A70484B2A22C7
:100210001A700023474A48499818884204D247492F
:10022000595899500433F5E7454A464B9A424FF0E6
:10023000000302D242F8043BF7E74349434A5958C6
:1002400099500433B3F5DE7FF7D1414B802103F899
:10025000011B40498B42F9D13F4B1A603F4B0A22A8
:100260001A70A3F5805324225A70A0221A709A792A
:100270009207FCD59A79D406FCD4394B9A7902F0CE
:100280000C02082AF9D103221A7140225A719A7974
:100290009006FCD5324B9A795106FBD5314A32494A
:1002A00011600221516020221A702D4B9B7903F0BE
:1002B0000C030C2BF9D12D4B2D4A1A602D4B2E4AD5
:1002C0001A6000225A60072243F8042C2B4AC3F814
:1002D0000C2D62B60CF09AFF134B1B68DA0705D59C
:1002E00027480CF09DFD274B274A1A60274B1B78A7
:1002F0005B0609D5234C244A2368934204D1204845
:100300000CF08EFD0023236010F014FE0CF0F1FFC2
:100310000DF040FEFEE700BF0E2005403080044097
:10032000823F04000100002B14D0034002D007409C
:1003300000E007406089FF1F4C8BFF1F3C46010017
:100340004C8BFF1FD8A3FF1F000000000084FF1F7D
:1003500000E400E05FE400E008ED00E0005006404B
:100360000040064044800440000003010480044033
:10037000C010050014E000E0FF760100000020201E
:10038000B59628571CE00340A5C3945A00F00740D7
:10039000FFFFFFFFFFFFFFFFFFFFFFFFFFFFFFFF6D
:1003A000FFFFFFFFFFFFFFFFFFFFFFFFFFFFFFFF5D
:1003B000FFFFFFFFFFFFFFFFFFFFFFFFFFFFFFFF4D
:1003C000FFFFFFFFFFFFFFFFFFFFFFFFFFFFFFFF3D
:1003D000FFFFFFFFFFFFFFFFFFFFFFFFFFFFFFFF2D
:1003E000FFFFFFFFFFFFFFFFFFFFFFFFFFFFFFFF1D
:1003F000FFFFFFFFFFFFFFFFFFFFFFFFFFFFFFFF0D
:10040000FFFFFFFFFFFFFFFFFFFFFFFFFEFFFFFFFD
:1004100010B5054C237833B9044B13B10448AFF33E
:1004200000800123237010BD4C8BFF1F00000000D3
:100430003C46010008B5064B1BB106480649AFF320
:1004400000800648036813B1054B03B1984708BD07
:10045000000000003C460100508BFF1F4C8BFF1F2B
:1004600000000000024B4FF400121A60704700BFFA
:1004700080E100E0064B10221A60064B1A78064B0A
:1004800053F83220012382F88030044A1360704709
:10049000C8F00F40EC9DFF1F30400100708CFF1F23
:1004A000054B1A78054B53F83220012382F80031AE
:1004B000034A1360704700BFEC9DFF1F30400100EE
:1004C000E89BFF1F10B504460DF010FC204610BD40
:1004D00038B50A480A4D09F075FD0A4B04461868FC
:1004E00010F09CFA0146204610F0A0FB0146286857
:1004F00010F0E0F92860204638BD00BF2898FF1FA3
:10050000D08BFF1FE089FF1F38B50A480A4D09F05C
:10051000ADFD0A4B0446186810F080FA01462046EB
:1005200010F084FB0146286810F0C4F928602046CA
:1005300038BD00BF2898FF1F008CFF1FE089FF1FF8
:1005400010B5ADF5B05D684600214FF4B05210F023
:1005500027FD002420461DF8041001340DF09AF800
:10056000B4F5B05FF6D10DF5B05D10BD38B50446F9
:1005700008460D4610F0EEFD236802465B682046F3
:100580002946984738BD08B503681B68984708BDD9
:1005900008B5FFF7EBFF08BD0DF01ABC0A220023D7
:1005A0000DF0DEBB9DF8001000910DF019BC38B5C0
:1005B00004460DF0A4FB054620460DF0C1FB28447F
:1005C00038BD38B50446FFF7D1FF054620460DF08B
:1005D000B7FB284438BD38B504460DF0F9FB054695
:1005E00020460DF0ADFB284438BD37B59DF81810F6
:1005F000009104460DF0F4FB054620460DF0A0FBEB
:10060000284403B030BDFFFF002A10B50ADB064BBB
:10061000541E9C4206D830235A43013ABDE810408C
:100620000DF04EBB002010BD5755550508B50368A9
:10063000C9B21B68984708BD0D4B70B540241C60BB
:100640000A200CF0CDFD0B4B0B4D0C4E1C600C4CDE
:1006500031462846FFF7B5FF31462046FFF7B1FF88
:1006600028460DF06DFB2046BDE870400DF068BBDC
:10067000C4F00F40C8F00F40FCA2FF1F202E010065
:1006800020A3FF1F10B517491748184CFFF780FF2C
:1006900017481449FFF77CFF236863B915491248CE
:1006A000FFF78FFF12481349FFF78BFF124B02220F
:1006B0001A6001230DE0012B0CD110490A48FFF705
:1006C00080FF0B480D49FFF77CFF0D4B02221A609B
:1006D0000023236004480DF033FB0548BDE81040BB
:1006E0000DF02EBB332E0100FCA2FF1FFC98FF1F54
:1006F00020A3FF1F2C2E010084F00F40482E010084
:1007000088F00F402DE9F74F002140F6FF724E4868
:100710000AF012F84D4A0423202413602246013ABD
:100720007FF4FDAF4A4A4B4F136011200CF0D6FE08
:10073000494B4A4E1C6005460A200CF051FD112021
:100740000CF0CCFE83466E200CF04AFD11200CF01C
:10075000C5FE434BDFF818911C60424C824621468F
:100760003846FFF715FF21463046FFF711FF2846B0
:1007700010F054F93C4910F059FA0FF00FFD4FF00A
:10078000020804460D460B462246CDF80080384646
:10079000FFF708FF22462B46CDF800803046FFF7D2
:1007A00001FF49463846FFF7F3FE49463046FFF75A
:1007B000EFFE584610F032F92B4910F037FA0FF0DF
:1007C000EDFC04460D460B462246CDF80080384627
:1007D000FFF7E8FE22462B46CDF800803046FFF7B3
:1007E000E1FE49463846FFF7D3FE49463046FFF75B
:1007F000CFFE504610F012F91B4910F017FA0FF017
:10080000CDFC04460B462246CDF8008038460D4606
:10081000FFF7C8FE2246154CCDF800802B46304627
:10082000FFF7C0FE21463846FFF7CBFE2146304693
:10083000FFF7C7FE38460DF083FA304603B0BDE837
:10084000F04F0DF07DBA00BF7C9BFF1F88F00F407A
:1008500084F00F40FCA2FF1FC4F00F4020A3FF1F35
:10086000C8F00F404E2E0100006013455F2E0100BE
:100870000D3D01002DE9F74307460E460AA8002169
:10088000144698460C9D09F0D0FC002840F3E980FE
:1008900075497648FFF77CFE294674480DF02FFA1B
:1008A00073497248FFF774FE6F497248FFF770FE94
:1008B000294670480DF023FA6D496E48FFF768FE2F
:1008C0002046002110F092FA08B10024B9E0204639
:1008D0000FF064FC022704460D460B4622460097A3
:1008E0006248FFF75FFE0097624822462B46FFF7FB
:1008F00059FE3068002110F079FA002840F0A980F4
:100900005D495A48FFF744FE40460FF047FC044655
:1009100022460B46009755480D46FFF743FE5649C1
:100920005448FFF735FE009722462B465148FFF703
:1009300039FE8EE09C4280F28C8050494B48FFF794
:1009400027FE21460AA809F070FC014647480DF031
:100950003FFA49494548FFF71BFE48494548FFF71C
:1009600017FE21460AA809F060FC014641480DF037
:100970002FFA40484049FFF70BFE00251A2D4ED0B4
:100980003F4B21460AA853F8259009F04EFC10F081
:1009900045F8014648464FEA850810F027FA002836
:1009A00055D057F808000FF0F9FB022502460B4618
:1009B00000952E48FFF7F6FD57F808000FF0EEFB04
:1009C000009502460B462B48FFF7ECFD30680021EE
:1009D00010F00CFAD8B928492448FFF7D9FD56F889
:1009E00008000FF0DBFB009502460B461F48FFF79F
:1009F000D9FD21491F48FFF7CBFD56F808000FF03D
:100A0000CDFB009502460B461A48FFF7CBFD1D496A
:100A10001648FFF7BDFD17481A49FFF7B9FD012039
:100A20000CF0DEFB0B9B03B1DB68013B9C4207D063
:100A300011490E48FFF7ACFD0E480F49FFF7A8FD1E
:100A400001340B9B002B3FF475AFDB6872E7013577
:100A500094E70D490548FFF79BFD06480A49FFF753
:100A600097FD03B0BDE8F08332350100FCA2FF1F03
:100A70006F2E010020A3FF1F0D3D0100722E01000B
:100A80007489FF1FA93E0100C83E010010B528204F
:100A900000210CF087FA28210A2200230A480DF0D1
:100AA0005FF909480DF04CF9642428200CF016FD7C
:100AB00001460548FFF78FFD4FF4FA600CF090FBFC
:100AC000013CF2D110BD00BFFCA2FF1F0C2038B5C5
:100AD0000CF0B6F9282001210CF064FA0BF04AFF63
:100AE00000283ED10446214628200CF077FA032046
:100AF0000CF076FB1A200CF0F1FC214605461C4850
:100B0000FFF74AFD1B491A48FFF742FD29461848DE
:100B1000FFF742FD16481749FFF753FD013440F235
:100B2000DC539C42DFD1214628200CF057FA0320E9
:100B30000CF056FB1A200CF0D1FC214605460C485F
:100B4000FFF72AFD0B490A48FFF722FD294608480E
:100B5000FFF722FD06480749FFF733FD013CE2D1CC
:100B6000BCE70BF0C5FEBDE838400BF0C1BE00BFCE
:100B7000FCA2FF1F0D3D0100012801D8FFF7A8BC12
:100B80007047012801D8FFF7BFBC70472DE9F84333
:100B900004464148414D424F424E09F085FD0FF059
:100BA00039FF28603C4809F086FD0FF033FF3860BC
:100BB000394809F087FD0FF02DFF3060364809F005
:100BC00088FD0FF027FF384B8046186054BB374B29
:100BD000DFF8EC9018680FF021FF044621462868E2
:100BE00010F024F80146D9F800000FF063FE21460A
:100BF000C9F800003868DFF8CC902D4F10F016F8D7
:100C00000146D9F800000FF055FE2146C9F8000052
:100C10003068284E10F00AF8014638680FF04AFE96
:100C200038602BE0012C32D1204BDFF89C90186803
:100C30000FF0F4FE0446214628680FF0F7FF014646
:100C4000D9F800000FF036FE2146C9F800003868D8
:100C5000DFF87890184F0FF0E9FF0146D9F800004F
:100C60000FF028FE2146C9F800003068134E0FF03F
:100C7000DDFF014638680FF01DFE38602146404612
:100C80000FF0D4FF014630680FF014FE3060286882
:100C900010F0DEF8BDE8F8834C93FF1F7097FF1F3C
:100CA0004C9BFF1F409BFF1FF08BFF1FE089FF1F26
:100CB000608CFF1FF49DFF1FF898FF1F4491FF1FDA
:100CC0004891FF1F2C98FF1F2098FF1FF498FF1FCB
:100CD0002DE9F74F2B4DDFF8B8B0DFF8B8A02A4E5A
:100CE000DFF8B490DFF8B480284C59462846FFF767
:100CF0004FFCDAF800000FF051FA022702460B46CB
:100D000000972846FFF74EFC31462846FFF740FC87
:100D100049462846FFF73CFCD8F800000FF03EFAA1
:100D2000009702460B462846FFF73CFC59462046F2
:100D3000FFF72EFCDAF800000FF030FA00970246B9
:100D40000B462046FFF72EFC31462046FFF720FCDD
:100D500049462046FFF71CFCD8F800000FF01EFAA9
:100D6000009702460B462046FFF71CFC31462846FA
:100D7000FFF70EFC20463146FFF70AFC03B0BDE842
:100D8000F08F00BFFCA2FF1F0D3D010020A3FF1F3D
:100D9000152F01006889FF1F242F0100F492FF1F07
:100DA000F0B50D46ADF57B7D0446264816460DF0A0
:100DB000AFF8294624480DF0ABF84FF47A720021C1
:100DC000684610F0EDF8204600210DF04FFA1F4B59
:100DD0001D681A681F460BF0CDFD10B90BF04EFCD4
:100DE000E8B10BF0C7FD002805DD0BF0A7FD5B287F
:100DF00024D0144808E00BF041FC00281EDD0BF065
:100E000077FC5B281AD010482B216A464FF47A737E
:100E10000DF080F8204669460DF060FA0EE0012ED4
:100E2000D9D13868401B0FF0F9FD094B196810F053
:100E300005F80028CFD0FFF7FFFBD2E720460DF5DD
:100E40007B7DF0BDFCA2FF1F20A3FF1F64A2FF1F3C
:100E50006C89FF1FF0B504468DB01F4821460DF088
:100E600057F81E4821460DF053F82022002104A80F
:100E700010F096F8684600210DF0F8F9184B1E683E
:100E80001A681F460BF076FD10B90BF0F7FBC0B1E6
:100E90000BF0F4FB002801DD104804E00BF06AFDC4
:100EA000002813DD0C4804AA20232B210DF032F872
:100EB00004A968460DF012FA009810F017F80546DC
:100EC00004E03B689B1BA342DCDDE1E768460DF0D4
:100ED0008DF928460DB0F0BDFCA2FF1F20A3FF1F17
:100EE00064A2FF1F2DE9F04106468CB0214831462F
:100EF0000DF00EF8204831460DF00AF820220021AE
:100F000004A810F04DF8684600210DF0AFF91B4B16
:100F10001F681A6898460BF02DFD10B90BF0AEFB58
:100F2000C8B10BF027FD002801DD124804E00BF0EA
:100F3000A5FB002815DD104804AA20232B210CF066
:100F4000E9FF04A968460DF0C9F900980FF0CBFF3E
:100F500004460D4605E0D8F80030DB1BB342DADD6D
:100F6000DFE768460DF042F9204629460CB0BDE89F
:100F7000F08100BFFCA2FF1F20A3FF1F64A2FF1F80
:100F800008B5044B19680FF093FC034B19680FF078
:100F90004DFE08BDF492FF1F6889FF1F70B505461E
:100FA0000E46002428460FF039FD1E4B014653F82B
:100FB00024000FF01BFFE8B11B4B53F82450002115
:100FC00028460FF07FFD014628460FF073FC174BB3
:100FD00053F824400546002120460FF073FD0146DA
:100FE00020460FF067FC0021044628460FF0FEFE65
:100FF00048B103E001341A2CD4D10EE02046002180
:101000000FF0F4FE48B930460FF008FD21460FF00E
:101010004FFC29460FF00AFE00E000200FF018FFF9
:1010200070BD00BF7489FF1F2492FF1F8C92FF1FA9
:101030002DE9F34104460D463148324917461E4614
:10104000FFF7A6FA21462E480CF059FE2E492C48EF
:10105000FFF79EFA2B492D48FFF79AFA21462B48B5
:101060000CF04DFE29482849FFF792FA0024B442BB
:1010700023DA28680FF092F84FF0060802460B4674
:10108000CDF800801E48FFF78DFA55F8040B0FF0DD
:1010900085F8CDF8008002460B461C48FFF782FA1F
:1010A000731E9C4207D01A491548FFF771FA17487A
:1010B0001749FFF76DFA0134D9E716491048FFF7D1
:1010C00067FA12481349FFF763FA012F0C4805D05D
:1010D0000F49FFF776FA0D480D490CE00E49FFF76E
:1010E00070FA0E490648FFF76CFA0B490748FFF7FC
:1010F00068FA06480949FFF764FA02B0BDE8F081D2
:10110000FCA2FF1F323501002D30010020A3FF1F7C
:101110000D3D0100A93E0100312E01008A3301007E
:10112000F8B504460D462948294917461E46FFF7DB
:101130002FFA214625480CF0E2FD26492348FFF707
:1011400027FA23492448FFF723FA214622480CF0C6
:10115000D6FD21481F49FFF71BFA0024B4421B4863
:1011600014DA2988FFF718FA1B4835F8021BFFF735
:1011700013FA731E9C4207D018491448FFF708FA67
:1011800015481649FFF704FA0134E7E71449FFF759
:10119000FFF911481249FFF7FBF9012F0B4805D061
:1011A0000E49FFF70EFA0C480C490CE00D49FFF709
:1011B00008FA0D490548FFF704FA0A490648FFF7FF
:1011C00000FA05480849FFF7FCF9F8BDFCA2FF1F2B
:1011D000323501002D30010020A3FF1F0D3D01001D
:1011E000A93E0100312E01008A330100F7B5044603
:1011F0000D462E482E491646FFF7CAF921462B48C0
:101200000CF07DFD2B492948FFF7C2F928492A48EF
:10121000FFF7BEF9214628480CF071FD2648254904
:10122000FFF7B6F9002428680EF0B8FF022702463F
:101230000B4600971D48FFF7B5F955F8040B0EF063
:10124000ADFF009702460B461B48FFF7ABF9192C80
:1012500007D01A491548FFF79BF917481749FFF7B8
:1012600097F901341A2CDED115491048FFF790F98F
:1012700011481349FFF78CF9012E0C4805D00F498E
:10128000FFF79FF90C480D490CE00E49FFF799F95B
:101290000D490648FFF795F90A490748FFF791F904
:1012A00005480949FFF78DF903B0F0BDFCA2FF1F07
:1012B000323501002D30010020A3FF1F0D3D01003C
:1012C000A93E0100312E01008A33010010B50FF054
:1012D000A5FB0B4B196804460FF0F4FB094B19688A
:1012E0000FF0E8FA084B1860084B204619680FF019
:1012F000E9FB074B19680FF0DDFA064B186010BDCB
:10130000688CFF1FE498FF1F1C9BFF1F6C8CFF1F46
:10131000E898FF1FF09DFF1F2DE9F743054638B9F8
:1013200053495448FFF734F953485149FFF730F90E
:10133000DFF8689151494F48DFF86481504F514EB2
:10134000FFF726F9D9F800000EF028FF0224024624
:101350000B4600944748FFF725F94B494548FFF7EE
:1013600017F94A494348FFF713F9D8F800000EF07F
:1013700015FF009402460B463E48FFF713F9424919
:101380003C48FFF705F942493A48FFF701F9386848
:101390000EF004FF009402460B463648FFF702F9B0
:1013A00039493448FFF7F4F83A493248FFF7F0F882
:1013B00030680EF0F3FE009402460B462D48FFF70E
:1013C000F1F82E492C48FFF7E3F8D9F800000EF0A9
:1013D000E5FE009402460B462748FFF7E3F82A494A
:1013E0002548FFF7D5F829492348FFF7D1F8D8F861
:1013F00000000EF0D3FE009402460B461E48FFF795
:10140000D1F821491C48FFF7C3F821491A48FFF7D2
:10141000BFF838680EF0C2FE009402460B4616482C
:10142000FFF7C0F818491448FFF7B2F819491248F5
:10143000FFF7AEF830680EF0B1FE009402460B469E
:101440000D48FFF7AFF8012D0A4807D10E49FFF705
:101450009FF80D490848FFF79BF806E00E49FFF793
:10146000B0F805480C49FFF7ACF803B0BDE8F083CD
:10147000392F0100FCA2FF1F20A3FF1F3B2F0100FB
:101480006C8CFF1FE898FF1F0D3D0100472F0100E6
:10149000582F0100642F0100312E0100688CFF1FBE
:1014A000E498FF1F01282DE9F341884616461D46A2
:1014B0003DD1A64FA649A748FFF76AF838680EF055
:1014C0006DFE062402460B460094A248FFF76AF818
:1014D000A149A048FFF75CF878680EF05FFE009421
:1014E00002460B469B48FFF75DF89C499948FFF779
:1014F0004FF897499A48FFF74BF838680EF04EFEC0
:10150000009402460B469648FFF74CF892499448DF
:10151000FFF73EF878680EF041FE009402460B4655
:101520008F48FFF73FF88E488C49FFF731F8B8F144
:10153000010F3DD18B4F8C498648FFF729F8386859
:101540000EF02CFE062402460B4600948148FFF75D
:1015500029F881497F48FFF71BF878680EF01EFED6
:10156000009402460B467B48FFF71CF87B497948FC
:10157000FFF70EF87C497A48FFF70AF838680EF052
:101580000DFE009402460B467548FFF70BF87249B2
:101590007348FEF7FDFF78680EF000FE00940246E7
:1015A0000B466F48FEF7FEFF6D486C49FEF7F0FFF3
:1015B000012E3DD16D4E6E496648FEF7E9FF306859
:1015C0000EF0ECFD062402460B4600946148FEF73F
:1015D000E9FF61495F48FEF7DBFF70680EF0DEFD52
:1015E000009402460B465B48FEF7DCFF5B49594816
:1015F000FEF7CEFF5E495A48FEF7CAFF30680EF08C
:10160000CDFD009402460B465548FEF7CBFF5249EC
:101610005348FEF7BDFF70680EF0C0FD009402460F
:101620000B464F48FEF7BEFF4D484C49FEF7B0FF52
:10163000012D3DD14F4D50494648FEF7A9FF28687E
:101640000EF0ACFD062402460B4600944148FEF71E
:10165000A9FF41493F48FEF79BFF68680EF09EFDD9
:10166000009402460B463B48FEF79CFF3B49394835
:10167000FEF78EFF40493A48FEF78AFF28680EF0D1
:101680008DFD009402460B463548FEF78BFF32492C
:101690003348FEF77DFF68680EF080FD0094024637
:1016A0000B462F48FEF77EFF2D482C49FEF770FFB2
:1016B000089B012B3DD1314D31492648FEF768FF8B
:1016C00028680EF06BFD062402460B460094214864
:1016D000FEF768FF20491F48FEF75AFF68680EF0C2
:1016E0005DFD009402460B461A48FEF75BFF1B495E
:1016F0001848FEF74DFF22491948FEF749FF2868B0
:101700000EF04CFD009402460B461548FEF74AFFCA
:1017100011491348FEF73CFF68680EF03FFD009446
:1017200002460B460E48FEF73DFF0D480B49FEF7FB
:101730002FFF099B012B5ED1124D13490548FEF77F
:1017400027FF28680EF02AFD06241FE0309BFF1FAC
:10175000752F0100FCA2FF1F0D3D0100C83E0100D6
:1017600020A3FF1F389BFF1F862F0100449BFF1FF4
:10177000972F01005098FF1FA82F01005898FF1FB6
:10178000B92F01006098FF1FCA2F010002460B46C7
:101790000094A548FEF706FFA449A348FEF7F8FE0B
:1017A00068680EF0FBFC009402460B469E48FEF76C
:1017B000F9FE9F499C48FEF7EBFE9E499E48FEF7C6
:1017C000E7FE28680EF0EAFC009402460B469A48B1
:1017D000FEF7E8FE95499848FEF7DAFE68680EF0D5
:1017E000DDFC009402460B469348FEF7DBFE924870
:1017F0008F49FEF7CDFE0A9B012B3DD18F4D9049BD
:101800008948FEF7C5FE28680EF0C8FC062402468B
:101810000B4600948448FEF7C5FE84498248FEF7D3
:10182000B7FE68680EF0BAFC009402460B467E488C
:10183000FEF7B8FE7E497C48FEF7AAFE80497E4846
:10184000FEF7A6FE28680EF0A9FC009402460B469F
:101850007948FEF7A7FE75497748FEF799FE686854
:101860000EF09CFC009402460B467348FEF79AFE6D
:1018700071486F49FEF78CFE0B9B012B3DD1714DDA
:1018800071496948FEF784FE28680EF087FC06243B
:1018900002460B4600946448FEF784FE63496248A2
:1018A000FEF776FE68680EF079FC009402460B465F
:1018B0005D48FEF777FE5E495B48FEF769FE6249C8
:1018C0005D48FEF765FE28680EF068FC009402464D
:1018D0000B465948FEF766FE54495748FEF758FE36
:1018E00068680EF05BFC009402460B465248FEF717
:1018F00059FE51484E49FEF74BFE0C9B012B3DD142
:10190000524D53494848FEF743FE28680EF046FC06
:10191000062402460B4600944348FEF743FE434923
:101920004148FEF735FE68680EF038FC0094024628
:101930000B463D48FEF736FE3D493B48FEF728FE84
:1019400043493D48FEF724FE28680EF027FC00942A
:1019500002460B463848FEF725FE34493648FEF766
:1019600017FE68680EF01AFC009402460B463248D7
:10197000FEF718FE30482E49FEF70AFE0D9B012B9C
:101980003DD1344D34492848FEF702FE28680EF058
:1019900005FC062402460B4600942348FEF702FE8F
:1019A00022492148FEF7F4FD68680EF0F7FB009429
:1019B00002460B461C48FEF7F5FD1D491A48FEF786
:1019C000E7FD25491C48FEF7E3FD28680EF0E6FB1D
:1019D000009402460B461848FEF7E4FD13491648EA
:1019E000FEF7D6FD68680EF0D9FB009402460B4660
:1019F0001148FEF7D7FD10480D49FEF7C9FD0E9BB3
:101A0000012B5DD1154D16490748FEF7C1FD286829
:101A10000EF0C4FB062402460B4600940248FEF773
:101A2000C1FD02491EE000BFFCA2FF1F0D3D0100E9
:101A3000C83E0100CA2F010020A3FF1FD88BFF1F43
:101A4000DB2F0100E08BFF1FEC2F0100E88BFF1F55
:101A5000FD2F01007098FF1F0E300100F892FF1F4C
:101A60001F300100A548FEF793FD68680EF096FB55
:101A7000009402460B46A148FEF794FDA0499F48FA
:101A8000FEF786FD9F49A048FEF782FD28680EF00C
:101A900085FB009402460B469B48FEF783FD9B495D
:101AA0009948FEF775FD68680EF078FB00940246D1
:101AB0000B469548FEF776FD93489149FEF768FD81
:101AC0000F9B012B3DD1924D92498C48FEF760FD52
:101AD00028680EF063FB062402460B4600948748F4
:101AE000FEF760FD89498548FEF752FD68680EF0F3
:101AF00055FB009402460B468048FEF753FD804993
:101B00007E48FEF745FD83497F48FEF741FD286882
:101B10000EF044FB009402460B467B48FEF742FD64
:101B20007A497948FEF734FD68680EF037FB009477
:101B300002460B467448FEF735FD73487049FEF7C0
:101B400027FD109B012B3DD1734D74496B48FEF767
:101B50001FFD28680EF022FB062402460B46009467
:101B60006648FEF71FFD69496448FEF711FD686885
:101B70000EF014FB009402460B466048FEF712FD7F
:101B80005F495E48FEF704FD64495F48FEF700FDCB
:101B900028680EF003FB009402460B465A48FEF7F5
:101BA00001FD5A495848FEF7F3FC68680EF0F6FA52
:101BB000009402460B465448FEF7F4FC5248504944
:101BC000FEF7E6FC119B012B3DD1554D55494B4885
:101BD000FEF7DEFC28680EF0E1FA062402460B460A
:101BE00000944648FEF7DEFC48494448FEF7D0FC26
:101BF00068680EF0D3FA009402460B463F48FEF7A1
:101C0000D1FC3F493D48FEF7C3FC46493E48FEF73C
:101C1000BFFC28680EF0C2FA009402460B463A4810
:101C2000FEF7C0FC39493848FEF7B2FC68680EF090
:101C3000B5FA009402460B463348FEF7B3FC32482F
:101C40002F49FEF7A5FC129B012B3DD1364D37499C
:101C50002A48FEF79DFC28680EF0A0FA06240246EA
:101C60000B4600942548FEF79DFC28492348FEF7C3
:101C70008FFC68680EF092FA009402460B461F48EB
:101C8000FEF790FC1E491D48FEF782FC27491E48BE
:101C9000FEF77EFC28680EF081FA009402460B469F
:101CA0001948FEF77FFC19491748FEF771FC686870
:101CB0000EF074FA009402460B461348FEF772FCCD
:101CC00011480F49FEF764FC139B012B5CD1184DA2
:101CD00018490A48FEF75CFC28680EF05FFA0624F3
:101CE00002460B4600940548FEF75CFC0749034892
:101CF000FEF74EFC68680EF051FA1DE0FCA2FF1FD3
:101D0000C83E01001F30010020A3FF1F0D3D010050
:101D10000093FF1F313001000893FF1F4330010083
:101D20001093FF1F553001001893FF1F673001000B
:101D30002093FF1F79300100009402460B46A5480E
:101D4000FEF730FCA449A348FEF722FCA349A448AF
:101D5000FEF71EFC28680EF021FA009402460B469E
:101D60009F48FEF71FFC9F499D48FEF711FC6868DD
:101D70000EF014FA009402460B469948FEF712FC46
:101D800097489549FEF704FC149B012B3DD1964DD5
:101D900096499048FEF7FCFB28680EF0FFF90624F0
:101DA00002460B4600948B48FEF7FCFB8D498948A0
:101DB000FEF7EEFB68680EF0F1F9009402460B4660
:101DC0008448FEF7EFFB84498248FEF7E1FB874930
:101DD0008348FEF7DDFB28680EF0E0F90094024628
:101DE0000B467F48FEF7DEFB7E497D48FEF7D0FBC1
:101DF00068680EF0D3F9009402460B467848FEF767
:101E0000D1FB77487449FEF7C3FB159B012B3DD1ED
:101E1000774D78496F48FEF7BBFB28680EF0BEF996
:101E2000062402460B4600946A48FEF7BBFB6D4948
:101E30006848FEF7ADFB68680EF0B0F90094024602
:101E40000B466448FEF7AEFB63496248FEF7A0FB11
:101E500068496348FEF79CFB28680EF09FF90094E0
:101E600002460B465E48FEF79DFB5E495C48FEF766
:101E70008FFB68680EF092F9009402460B465848B2
:101E8000FEF790FB56485449FEF782FB169B012B48
:101E90003DD1594D59494F48FEF77AFB28680EF05D
:101EA0007DF9062402460B4600944A48FEF77AFB69
:101EB0004C494848FEF76CFB68680EF06FF90094D7
:101EC00002460B464348FEF76DFB43494148FEF787
:101ED0005FFB4A494248FEF75BFB28680EF05EF95B
:101EE000009402460B463E48FEF75CFB3D493C48E9
:101EF000FEF74EFB68680EF051F9009402460B465F
:101F00003748FEF74FFB36483349FEF741FB179B36
:101F1000012B3DD13A4D3B492E48FEF739FB28684D
:101F20000EF03CF9062402460B4600942948FEF7C1
:101F300039FB2C492748FEF72BFB68680EF02EF979
:101F4000009402460B462348FEF72CFB2249214809
:101F5000FEF71EFB2B492248FEF71AFB28680EF0FD
:101F60001DF9009402460B461D48FEF71BFB1D4958
:101F70001B48FEF70DFB68680EF010F9009402464E
:101F80000B461748FEF70EFB15481349FEF700FBFA
:101F9000189B012B5DD11C4D1C490E48FEF7F8FA29
:101FA00028680EF0FBF8062402460B460094094808
:101FB000FEF7F8FA0B490748FEF7EAFA68680EF0F0
:101FC000EDF8009402460B460248FEF7EBFA024990
:101FD0001EE000BFFCA2FF1FC83E010079300100D7
:101FE00020A3FF1F0D3D01002893FF1F8B30010030
:101FF0003093FF1F9D3001003893FF1FAF30010069
:102000004093FF1FC13001003098FF1FD330010003
:10201000A448FEF7BDFAA449A448FEF7B9FA286817
:102020000EF0BCF8009402460B46A048FEF7BAFA40
:102030009F499E48FEF7ACFA68680EF0AFF800942E
:1020400002460B469948FEF7ADFA98489949FEF7C3
:102050009FFA199B012B3DD1974D98499148FEF766
:1020600097FA28680EF09AF8062402460B46009468
:102070008C48FEF797FA8E498A48FEF789FA686815
:102080000EF08CF8009402460B468648FEF78AFA5A
:1020900088498448FEF77CFA88498448FEF778FA34
:1020A00028680EF07BF8009402460B467F48FEF746
:1020B00079FA7F497D48FEF76BFA68680EF06EF892
:1020C000009402460B467948FEF76CFA7748794946
:1020D000FEF75EFA1A9B012B3DD1794D7949714883
:1020E000FEF756FA28680EF059F8062402460B4609
:1020F00000946C48FEF756FA6D496A48FEF748FAB4
:1021000068680EF04BF8009402460B466548FEF7EF
:1021100049FA68496348FEF73BFA6A496348FEF7A3
:1021200037FA28680EF03AF8009402460B465F48EA
:10213000FEF738FA5E495D48FEF72AFA68680EF045
:102140002DF8009402460B465848FEF72BFA5748E4
:102150005849FEF71DFA1B9B012B3DD15A4D5B4997
:102160005048FEF715FA28680EF018F806240246C3
:102170000B4600944B48FEF715FA4D494948FEF7C7
:1021800007FA68680EF00AF8009402460B464548C4
:10219000FEF708FA47494348FEF7FAF94B49434826
:1021A000FEF7F6F928680DF0F9FF009402460B4699
:1021B0003E48FEF7F7F93E493C48FEF7E9F9686802
:1021C0000DF0ECFF009402460B463848FEF7EAF9A2
:1021D00036483849FEF7DCF91C9B012B3DD13C4DBC
:1021E0003C493048FEF7D4F928680DF0D7FF0624A3
:1021F00002460B4600942B48FEF7D4F92C49294897
:10220000FEF7C6F968680DF0C9FF009402460B4658
:102210002448FEF7C7F927492248FEF7B9F92D49A6
:102220002248FEF7B5F928680DF0B8FF0094024681
:102230000B461E48FEF7B6F91D491C48FEF7A8F9E3
:1022400068680DF0ABFF009402460B461748FEF796
:10225000A9F916481749FEF79BF91D9B012B5CD184
:102260001D4D1E490F48FEF793F928680DF096FFA3
:10227000062402460B4600940A48FEF793F90C49DF
:102280000848FEF785F968680DF088FF009402465B
:102290000B460448FEF786F906490248FEF778F92E
:1022A0000E491DE0FCA2FF1FD330010020A3FF1F39
:1022B0000D3D0100C83E01003898FF1FE5300100C8
:1022C0004098FF1FF73001004898FF1F09310100B7
:1022D000909AFF1F1B3101009C9AFF1F2D310100B6
:1022E000A548FEF755F928680DF058FF00940246FE
:1022F0000B46A148FEF756F9A0499F48FEF748F95A
:1023000068680DF04BFF009402460B469A48FEF7B2
:1023100049F999489A49FEF73BF91E9B012B3DD19B
:10232000984D99499948FEF733F928680DF036FF22
:10233000062402460B4600949448FEF733F98F4971
:102340009248FEF725F968680DF028FF00940246D0
:102350000B468E48FEF726F989498C48FEF718F996
:1023600089498548FEF714F928680DF017FF009495
:1023700002460B468048FEF715F980497E48FEF775
:1023800007F968680DF00AFF009402460B467A4888
:10239000FEF708F978487A49FEF7FAF81F9B012BF7
:1023A0003DD17B4D7B497948FEF7F2F828680DF066
:1023B000F5FE062402460B4600947448FEF7F2F838
:1023C0006E497248FEF7E4F868680DF0E7FE009485
:1023D00002460B466D48FEF7E5F869496B48FEF783
:1023E000D7F86C496448FEF7D3F828680DF0D6FE9C
:1023F000009402460B466048FEF7D4F85F495E48F9
:10240000FEF7C6F868680DF0C9FE009402460B4658
:102410005948FEF7C7F858485949FEF7B9F8209BC4
:10242000012B3DD15C4D5D495848FEF7B1F8286855
:102430000DF0B4FE062402460B4600945348FEF706
:10244000B1F84E495148FEF7A3F868680DF0A6FEB2
:10245000009402460B464D48FEF7A4F848494B4805
:10246000FEF796F84D494448FEF792F828680DF0BB
:1024700095FE009402460B463F48FEF793F83F490D
:102480003D48FEF785F868680DF088FE0094024626
:102490000B463948FEF786F837483949FEF778F891
:1024A000219B012B3DD13E4D3E493848FEF770F847
:1024B00028680DF073FE062402460B46009433484C
:1024C000FEF770F82D493148FEF762F868680DF0A4
:1024D00065FE009402460B462C48FEF763F8284937
:1024E0002A48FEF755F82F492348FEF751F8286887
:1024F0000DF054FE009402460B461F48FEF752F8BA
:102500001E491D48FEF744F868680DF047FE009428
:1025100002460B461848FEF745F817481849FEF7DB
:1025200037F8229B012B5AD11F4D20491748FEF73F
:102530002FF828680DF032FE062402460B46009460
:102540001248FEF72FF80D491048FEF721F8686889
:102550000DF024FE009402460B460C48FEF722F8CC
:1025600007490A48FEF714F810490348FEF710F827
:1025700028680DF013FE1BE020A3FF1F0D3D010096
:10258000C83E01000C9BFF1F3F310100FCA2FF1F52
:10259000149BFF1F51310100209BFF1F633101007D
:1025A0006898FF1F75310100649BFF1F8731010090
:1025B000009402460B46A548FDF7F4FFA449A34842
:1025C000FDF7E6FF68680DF0E9FD009402460B4652
:1025D0009E48FDF7E7FF9D489E49FDF7D9FF239BE5
:1025E000012B3DD19C4D9D499D48FDF7D1FF2868A9
:1025F0000DF0D4FD062402460B4600949848FDF7E2
:10260000D1FF93499648FDF7C3FF68680DF0C6FDFA
:10261000009402460B469248FDF7C4FF8D4990484E
:10262000FDF7B6FF8D498948FDF7B2FF28680DF028
:10263000B5FD009402460B468448FDF7B3FF84497C
:102640008248FDF7A5FF68680DF0A8FD00940246DA
:102650000B467E48FDF7A6FF7C487E49FDF798FFB4
:10266000249B012B3DD17F4D7F497D48FDF790FF95
:1026700028680DF093FD062402460B460094784826
:10268000FDF790FF72497648FDF782FF68680DF00C
:1026900085FD009402460B467148FDF783FF6D49A6
:1026A0006F48FDF775FF70496848FDF771FF2868AE
:1026B0000DF074FD009402460B466448FDF772FF6E
:1026C00063496248FDF764FF68680DF067FD009498
:1026D00002460B465D48FDF765FF5C485D49FDF726
:1026E00057FF259B012B3DD1604D61495C48FDF7AB
:1026F0004FFF28680DF052FD062402460B46009459
:102700005748FDF74FFF52495548FDF741FF6868AC
:102710000DF044FD009402460B465148FDF742FF80
:102720004C494F48FDF734FF51494848FDF730FF09
:1027300028680DF033FD009402460B464348FDF730
:1027400031FF43494148FDF723FF68680DF026FD3E
:10275000009402460B463D48FDF724FF3B483D49A7
:10276000FDF716FF269B012B3DD1424D42493C48C7
:10277000FDF70EFF28680DF011FD062402460B46FA
:1027800000943748FDF70EFF31493548FDF700FF4B
:1027900068680DF003FD009402460B463048FDF7D3
:1027A00001FF2C492E48FDF7F3FE33492748FDF77A
:1027B000EFFE28680DF0F2FC009402460B46234819
:1027C000FDF7F0FE22492148FDF7E2FE68680DF0B2
:1027D000E5FC009402460B461C48FDF7E3FE1B484F
:1027E0001C49FDF7D5FE279B012B5BD1234D2449C6
:1027F0001B48FDF7CDFE28680DF0D0FC06240246EC
:102800000B4600941648FDF7CDFE11491448FDF71C
:10281000BFFE68680DF0C2FC009402460B461048EB
:10282000FDF7C0FE0B490E48FDF7B2FE14490748FC
:10283000FDF7AEFE28680DF0B1FC009402460B4691
:102840000248FDF7AFFE02491CE000BF20A3FF1FB6
:102850000D3D0100C83E01006C9BFF1F9931010036
:10286000FCA2FF1F749BFF1FAB310100B491FF1F3F
:10287000BD310100B09BFF1FCF310100B89BFF1F8E
:10288000E1310100A548FDF783FE68680DF086FC84
:10289000009402460B46A148FDF784FE9F48A049DC
:1028A000FDF776FE289B012B3DD19E4D9E499F480A
:1028B000FDF76EFE28680DF071FC062402460B46FB
:1028C00000949A48FDF76EFE99499848FDF760FE1E
:1028D00068680DF063FC009402460B469348FDF7D0
:1028E00061FE8F499148FDF753FE8F498B48FDF7F4
:1028F0004FFE28680DF052FC009402460B468748B4
:10290000FDF750FE8A498548FDF742FE68680DF0E4
:1029100045FC009402460B468048FDF743FE7F4885
:102920007F49FDF735FE299B012B3DD1814D824921
:102930007E48FDF72DFE28680DF030FC0624024687
:102940000B4600947948FDF72DFE79497748FDF74D
:102950001FFE68680DF022FC009402460B46734887
:10296000FDF720FE6E497148FDF712FE72496B4873
:10297000FDF70EFE28680DF011FC009402460B4690
:102980006648FDF70FFE6A496448FDF701FE686876
:102990000DF004FC009402460B466048FDF702FE71
:1029A0005E485F49FDF7F4FD2A9B012B3DD1634D45
:1029B00063495E48FDF7ECFD28680DF0EFFB062447
:1029C00002460B4600945948FDF7ECFD584957481C
:1029D000FDF7DEFD68680DF0E1FB009402460B4652
:1029E0005248FDF7DFFD4E495048FDF7D1FD5449EF
:1029F0004A48FDF7CDFD28680DF0D0FB0094024653
:102A00000B464648FDF7CEFD49494448FDF7C0FD59
:102A100068680DF0C3FB009402460B463F48FDF783
:102A2000C1FD3E483E49FDF7B3FD2B9B012B3DD137
:102A3000444D45493D48FDF7ABFD28680DF0AEFB20
:102A4000062402460B4600943848FDF7ABFD384992
:102A50003648FDF79DFD68680DF0A0FB0094024626
:102A60000B463248FDF79EFD2D493048FDF790FD9D
:102A700035492A48FDF78CFD28680DF08FFB00943E
:102A800002460B462548FDF78DFD29492348FDF7F1
:102A90007FFD68680DF082FB009402460B461F48DC
:102AA000FDF780FD1D481E49FDF772FD2C9B012B93
:102AB0005AD1264D26491D48FDF76AFD28680DF0BC
:102AC0006DFB062402460B4600941848FDF76AFD8C
:102AD00017491648FDF75CFD68680DF05FFB009430
:102AE00002460B461148FDF75DFD0D490F48FDF705
:102AF0004FFD17490948FDF74BFD28680DF04EFBC7
:102B0000009402460B460548FDF74CFD0849034872
:102B1000FDF73EFD68680DF041FB1BE020A3FF1FA1
:102B2000C83E0100C09BFF1FF3310100FCA2FF1F44
:102B30000D3D0100C89BFF1F05320100D09BFF1F08
:102B400017320100D89BFF1F29320100289BFF1F6D
:102B50003B320100009402460B46A548FDF722FDDA
:102B6000A348A449FDF714FD2D9B012B3DD1A24D97
:102B7000A249A348FDF70CFD28680DF00FFB0624C1
:102B800002460B4600949E48FDF70CFD9D499C486B
:102B9000FDF7FEFC68680DF001FB009402460B4651
:102BA0009748FDF7FFFC93499548FDF7F1FC9349E1
:102BB0008F48FDF7EDFC28680DF0F0FA009402460E
:102BC0000B468B48FDF7EEFC8E498948FDF7E0FC8B
:102BD00068680DF0E3FA009402460B468448FDF75E
:102BE000E1FC83488349FDF7D3FC2E9B012B3DD1AB
:102BF000854D86498248FDF7CBFC28680DF0CEFA5A
:102C0000062402460B4600947D48FDF7CBFC7D4927
:102C10007B48FDF7BDFC68680DF0C0FA00940246E1
:102C20000B467748FDF7BEFC72497548FDF7B0FCCE
:102C300076496F48FDF7ACFC28680DF0AFFA0094B8
:102C400002460B466A48FDF7ADFC6E496848FDF741
:102C50009FFC68680DF0A2FA009402460B46644897
:102C6000FDF7A0FC62486349FDF792FC2F9B012B06
:102C70003DD1674D67496248FDF78AFC28680DF031
:102C80008DFA062402460B4600945D48FDF78AFC47
:102C90005C495B48FDF77CFC68680DF07FFA0094A6
:102CA00002460B465648FDF77DFC52495448FDF755
:102CB0006FFC58494E48FDF76BFC28680DF06EFA22
:102CC000009402460B464A48FDF76CFC4D494848C3
:102CD000FDF75EFC68680DF061FA009402460B4651
:102CE0004348FDF75FFC42484249FDF751FC309BE9
:102CF000012B3DD1484D49494148FDF749FC286821
:102D00000DF04CFA062402460B4600943C48FDF7B1
:102D100049FC3C493A48FDF73BFC68680DF03EFA37
:102D2000009402460B463648FDF73CFC31493448D6
:102D3000FDF72EFC39492E48FDF72AFC28680DF0D6
:102D40002DFA009402460B462948FDF72BFC2D492D
:102D50002748FDF71DFC68680DF020FA0094024634
:102D60000B462348FDF71EFC21482249FDF710FCC5
:102D7000319B012B5BD12A4D2A492148FDF708FCE4
:102D800028680DF00BFA062402460B4600941C48F6
:102D9000FDF708FC1B491A48FDF7FAFB68680DF0BF
:102DA000FDF9009402460B461548FDF7FBFB11495F
:102DB0001348FDF7EDFB1B490D48FDF7E9FB2868BB
:102DC0000DF0ECF9009402460B460948FDF7EAFBCA
:102DD0000C490748FDF7DCFB68680DF0DFF900944B
:102DE00002460B460248FDF7DDFB01481CE000BF30
:102DF00020A3FF1FC83E0100048CFF1F4D320100BD
:102E0000FCA2FF1F0D3D01000C8CFF1F5F32010073
:102E1000148CFF1F713201001C8CFF1F83320100D4
:102E2000248CFF1F95320100A549FDF7B1FB329BB1
:102E3000012B57D1A34DA449A448FDF7A9FB28684D
:102E40000DF0ACF9062402460B4600949F48FDF7AE
:102E5000A9FB9F499D48FDF79BFB68680DF09EF913
:102E6000009402460B469948FDF79CFB9849974809
:102E7000FDF78EFBA8680DF091F9009402460B4611
:102E80009248FDF78FFB8E499048FDF781FB8E49F4
:102E90009048FDF77DFB28680DF080F9009402460C
:102EA0000B468C48FDF77EFB89498A48FDF770FB8D
:102EB00068680DF073F9009402460B468548FDF7EB
:102EC00071FB83498348FDF763FBA8680DF066F941
:102ED000009402460B467F48FDF764FB7D48784925
:102EE000FDF756FB339B012B57D17B4D7B49774830
:102EF000FDF74EFB28680DF051F9062402460B46FB
:102F000000947248FDF74EFB71497048FDF740FB95
:102F100068680DF043F9009402460B466B48FDF7D4
:102F200041FB6B496948FDF733FBA8680DF036F9A2
:102F3000009402460B466548FDF734FB6049634840
:102F4000FDF726FB65496348FDF722FB28680DF075
:102F500025F9009402460B465E48FDF723FB5C49C9
:102F60005C48FDF715FB68680DF018F900940246FF
:102F70000B465848FDF716FB55495648FDF708FB28
:102F8000A8680DF00BF9009402460B465148FDF776
:102F900009FB50484A49FDF7FBFA349B012B57D1F6
:102FA0004F4D50494948FDF7F3FA28680DF0F6F8FF
:102FB000062402460B4600944448FDF7F3FA4449C0
:102FC0004248FDF7E5FA68680DF0E8F8009402461B
:102FD0000B463E48FDF7E6FA3D493C48FDF7D8FA76
:102FE000A8680DF0DBF8009402460B463748FDF761
:102FF000D9FA33493548FDF7CBFA3A493548FDF758
:10300000C7FA28680DF0CAF8009402460B4631480A
:10301000FDF7C8FA2E492F48FDF7BAFA68680DF097
:10302000BDF8009402460B462A48FDF7BBFA284932
:103030002848FDF7ADFAA8680DF0B0F800940246F4
:103040000B462448FDF7AEFA22481D49FDF7A0FAC9
:10305000359B012B70D1244D24491C48FDF798FA6B
:1030600028680DF09BF8062402460B46009417488A
:10307000FDF798FA16491548FDF78AFA68680DF0C9
:103080008DF8009402460B461048FDF78BFA104964
:103090000E48FDF77DFAA8680DF080F8009402460E
:1030A0000B460A48FDF77EFA05490848FDF770FA15
:1030B0000E490848FDF76CFA28680DF06FF817E024
:1030C000C83E01002C8CFF1FA7320100FCA2FF1F8D
:1030D0000D3D010020A3FF1F388CFF1FB9320100F6
:1030E000448CFF1FCB320100589BFF1FDD320100D3
:1030F000009402460B466B48FDF754FA6A4969484A
:10310000FDF746FA68680DF049F8009402460B4650
:103110006448FDF747FA64496248FDF739FAA86840
:103120000DF03CF8009402460B465E48FDF73AFA73
:103130005C485E49FDF72CFA369B012B57D15C4D5C
:103140005C495D48FDF724FA28680DF027F806244D
:1031500002460B4600945848FDF724FA5249564857
:10316000FDF716FA68680DF019F8009402460B4650
:103170005148FDF717FA4C494F48FDF709FAA8687E
:103180000DF00CF8009402460B464B48FDF70AFA86
:1031900046494948FDF7FCF946494248FDF7F8F928
:1031A00028680CF0FBFF009402460B463D48FDF7F3
:1031B000F9F93D493B48FDF7EBF968680CF0EEFF83
:1031C000009402460B463748FDF7ECF9364935487E
:1031D000FDF7DEF9A8680CF0E1FF009402460B460B
:1031E0003048FDF7DFF92F483049FDF7D1F9379B1B
:1031F000012B28D131493048314DFDF7C9F9294813
:103200002E49FDF7C5F9002469882B48FDF7C4F95C
:10321000244835F8021FFDF7BFF9FF2C07D02249DB
:103220002548FDF7B5F91F481F49FDF7B1F90134ED
:10323000B4F5807FE8D11D491F48FDF7A9F9194869
:103240001A49FDF7A5F9389B012B28D11D491A48C9
:103250001D4DFDF79DF913481A49FDF799F9002412
:1032600069881548FDF798F90E4835F8021FFDF7F3
:1032700093F9FF2C07D00C490F48FDF789F909484D
:103280000949FDF785F90134B4F5807FE8D1074994
:103290000948FDF77DF903480449FDF779F902B0C3
:1032A000BDE8F08120A3FF1F0D3D0100C83E0100D5
:1032B0005C93FF1FEF320100FCA2FF1F01330100EE
:1032C0006693FF1F133301006695FF1F1F4B70B5F8
:1032D0001D681A680C461E460AF064FB08BB1C48B1
:1032E00007210AF037FB322009F07AFF33685B1BB5
:1032F000A342F1DD17491848FDF74AF91549174867
:10330000FDF746F916491448FDF742F914491348E8
:10331000FDF73EF905E001340A2C07DC322009F004
:103320005FFF0AF03FFB0628F5DD05E00AF03AFBF7
:1033300010B10AF047FBF9E700240AF043FB094B00
:1033400018550134072CF8D170BD00BF64A2FF1FCF
:10335000F489FF1F25330100FCA2FF1F20A3FF1FDC
:103360000D3D0100508CFF1F08B5C278007900EBBD
:1033700002200DF04FFB034B19680DF0A3FB0DF07D
:103380008DFD08BDF089FF1F38B54FF4FA610C4878
:103390000C4DFFF79BFF0C48FFF7E6FF0446642047
:1033A00009F01EFF094B1868B4FBF0F00DF032FB7A
:1033B000014628680DF07EFA2860204638BD00BF1F
:1033C000F489FF1F1C98FF1F508CFF1FE089FF1F0F
:1033D000012801D8FFF7D8BF7047FFFFFFFFFFFFAD
:1033E0002DE9F74F7A4E304606F0BCFD0CF0C4FED6
:1033F000044630460D4606F0C9FD0CF0BDFE62A342
:10340000D3E900230CF01EFF0022724B0DF044F8AC
:103410000022704B0DF040F8002206460F46204671
:1034200029466D4B0CF00EFF59A3D3E900230CF095
:1034300057FD59A3D3E9002382468B460CF04EFD7D
:1034400057A3D3E9002304460D460CF0FBFE0022EF
:10345000624B0CF045FD54A3D3E900238046894616
:10346000204629460CF0EEFE22462B460CF0EAFEE2
:1034700002460B46404649460CF032FD584B80460A
:10348000186889460CF08AFE02460B4640464946BB
:103490000CF0D8FE46A3D3E900230CF0FDFF002278
:1034A000CDE900014B4B304639460CF0F5FF42A305
:1034B000D3E9002380468946204629460CF0C2FE07
:1034C0004FF02042474B0CF009FD3DA3D3E9002308
:1034D00006460F46204629460CF0B4FE22462B46EF
:1034E0000CF0B0FE02460B46304639460CF0F8FCB4
:1034F00002460B46404649460CF0F0FC5246044654
:103500000D465B46504659460CF09CFE52465B46C3
:103510000CF098FE52465B460CF094FE2AA3D3E9C9
:10352000002306460F46204629460CF08BFE224615
:103530002B460CF087FE02460B46204629460CF02F
:10354000CFFC1BA3D3E9002304460D46DDE90001AF
:103550000CF0A2FF02460B46204629460CF09CFFC9
:1035600002460B46304639460CF0BAFC0BF000FD23
:103570000BF0FEFC06A3D3E900230CF0AFFC03B074
:10358000BDE8F08FAFF300800000000000886340CA
:1035900000000060661271400000006066A2724088
:1035A0000000004008AC5C3F000000E05898F1BE0D
:1035B00000000000D0126341000000404320A3BE81
:1035C00000000020BDE2333E000000C0CCCC2A4009
:1035D0004893FF1F00408F400000A03F0000F03FD5
:1035E000EC89FF1F00D4FE3E70B5FFF7F9FE0DF029
:1035F0000BF904461F4806F0BDFC4FF47A6009F051
:10360000EFFD20461C494FF001050DF017FC00B9F5
:10361000054615F0FF0F194D0AD1204618494FF005
:1036200001060DF0EDFB00B9064616F0FF0F12D0B3
:10363000144C154915482C60FCF7AAFF1249144890
:10364000FCF7A6FF13491148FCF7A2FF11491048E7
:10365000FCF79EFF0CE0104B18680DF0DFF90146F7
:1036600020460DF0E3FA014628680DF023F92860A2
:10367000204670BD4893FF1F00007A442498FF1F26
:10368000000070C20000C6C243330100FCA2FF1F4D
:1036900020A3FF1F0D3D0100E089FF1F012801D875
:1036A000FFF7A2BF704708B509F064F9002802DDF2
:1036B00009F01EF9F8E708F0E1FF002802DD08F044
:1036C000EDFFF8E708BDFFFF2DE9F3414EF660205E
:1036D000FDF708FC04460D46B548B649FCF758FF0F
:1036E000B449B548FCF754FF204629460022002380
:1036F0000DF010F80646002840F03B8202270097A4
:1037000022462B46AA48FCF74DFF22462B4600973F
:10371000A948AA4FFCF746FFA949A548FCF738FF7E
:10372000A749A548FCF734FF09F0E2F809F0E0F8F2
:1037300020233B6080233B609D480AF001FBA149A8
:103740009B48FCF725FF31469948FCF744FF984811
:103750009D49FCF736FFB846B2B200219B4806F0FF
:10376000EBFF31469248FCF717FF95499048FCF76C
:103770000FFF322009F034FD30460CF0FDFC2B46E3
:1037800022460CF0ADFB0CF0F7FF40F6FE739842BA
:103790000646E1DD8E4F864880233B600AF0D0FA72
:1037A00088498348FCF7F4FE01218148FCF713FFA8
:1037B0007F488849FCF705FF0026B2B20121834803
:1037C00006F0BAFF31467A48FCF7E6FE7C497848B5
:1037D000FCF7DEFE322009F003FD30460CF0CCFC95
:1037E0002B4622460CF07CFB0CF0C6FF40F6FE7325
:1037F00098420646E1DD20233B600123C8F80030F3
:103800008023C8F800306A480AF09AFA6D4968487F
:10381000FCF7BEFE00216648FCF7DDFE64486E49F9
:10382000FCF7CFFE0026B2B20021684806F084FF04
:1038300031465F48FCF7B0FE61495D48FCF7A8FEE1
:10384000322009F0CDFC30460CF096FC2B46224687
:103850000CF046FB0CF090FF40F6FE7398420646D3
:10386000E1DD80233B6052480AF06AFA554950482E
:10387000FCF78EFE01214E48FCF7ADFE4C4857493F
:10388000FCF79FFE0026B2B20121504806F054FF1B
:1038900031464748FCF780FE49494548FCF778FE29
:1038A000322009F09DFC30460CF066FC2B46224687
:1038B0000CF016FB0CF060FF40F6FE7398420646D3
:1038C000E1DD012302263B603948C8F800600AF0B8
:1038D00037FA3C493648FCF75BFE31463448FCF782
:1038E0007AFE33483E49FCF76CFE0026B2B2022154
:1038F000364806F021FF31462D48FCF74DFE304991
:103900002B48FCF745FE322009F06AFC30460CF0EB
:1039100033FC2B4622460CF0E3FA0CF02DFF40F668
:10392000FE7398420646E1DD02263E602D4F204898
:1039300010233B600AF004FA22491D48FCF728FED8
:1039400031461B48FCF747FE19482749FCF739FE6A
:103950000026B846B2B202211C4806F0EDFE314600
:103960001348FCF719FE16491148FCF711FE3220E6
:1039700009F036FC30460CF0FFFB2B4622460CF0DB
:10398000AFFA0CF0F9FE40F6FE7398420646E1DD10
:10399000164F0748102301263B60C8F800600AF064
:1039A000CFF908490248FCF7F3FD314620E000BF9B
:1039B000FCA2FF1F6E33010020A3FF1FC4F00F40C5
:1039C0000D3D01007C3301008B3301007C9BFF1F08
:1039D000C8F00F40AC330100CE330100EF330100DB
:1039E0001134010084F00F402534010088F00F40AD
:1039F0006A48FCF7F0FD69486949FCF7E2FD0026DA
:103A0000B2B20321674806F097FE31466348FCF7DF
:103A1000C3FD65496148FCF7BBFD322009F0E0FBBE
:103A200030460CF0A9FB2B4622460CF059FA0CF05C
:103A3000A3FE40F6FE7398420646E1DD5B4B574815
:103A400001263E601E600AF07BF959495348FCF795
:103A50009FFD31465148FCF7BEFD50485549FCF7E3
:103A6000B0FD0026B2B203214E4806F065FE314695
:103A70004A48FCF791FD4C494848FCF789FD322043
:103A800009F0AEFB30460CF077FB2B4622460CF0DB
:103A900027FA0CF071FE40F6FE7398420646E1DD0F
:103AA000454B3E4801261E604023C8F800300AF00E
:103AB00047F93F493948FCF76BFD31463748FCF779
:103AC0008AFD36483D49FCF77CFD0026B2B2032151
:103AD000344806F031FE31463048FCF75DFD32498E
:103AE0002E48FCF755FD322009F07AFB30460CF0E9
:103AF00043FB2B4622460CF0F3F90CF03DFE40F65A
:103B0000FE7398420646E1DD40233B608023C8F8FF
:103B1000003022480AF014F925492048FCF738FD06
:103B200001211E48FCF757FD1C482549FCF749FDBB
:103B30000026B2B203211B4806F0FEFD31461748AD
:103B4000FCF72AFD18491548FCF722FD322009F040
:103B500047FB30460CF010FB2B4622460CF0C0F918
:103B60000CF00AFE40F6FE7398420646E1DD802323
:103B70003B60FFF798FD13490848FCF722FD124906
:103B80000648FCF71EFD0F491048FCF71AFD0E49C8
:103B90000E48FCF716FD02B0BDE8F081FCA2FF1F45
:103BA000393401007C9BFF1F0D3D010044F00F40A4
:103BB0007C3301004B34010048F00F405D340100BC
:103BC0006F340100302E01008A33010020A3FF1F53
:103BD00070B58EB008F062FD061E24DD642009F089
:103BE000FFFA002401AD665508F058FD0134262C7B
:103BF0000646F7D1124E0024284631688DF82A4037
:103C000025220DF0AFFAC0B10E490F48FCF7C0FCF9
:103C100031680D48FCF7D5FC0C490B48FCF7B8FCA3
:103C20000948294605E00A490748FCF7CAFC064846
:103C30000849FCF7C6FC002000E001200EB070BD72
:103C4000E889FF1F81340100FCA2FF1FA43401009A
:103C5000C7340100FD34010030B54949494885B0F9
:103C6000FCF796FC46494848FCF792FC002268465F
:103C70004EF66021FDF794F84EF66020FDF732F91C
:103C800004460D460D20012109F08CF929462046F5
:103C90000CF072FD430803F1376303F5D833B3FB2F
:103CA000F0F008F01FFB01210D2009F04DF94FF451
:103CB0007A7009F095FA35493348FCF769FC4FF4FE
:103CC0007A7009F08DFA32492F48FCF761FC4FF405
:103CD0007A7009F085FA2F492A48FCF759FC40F21E
:103CE000D2412848FCF777FC2B492748FCF750FCC9
:103CF00040F2D2412448FCF74FFC4FF47A7009F0AF
:103D00006FFA26491F48FCF743FC69461D48FCF73B
:103D10004EFC23491C48FCF73BFC69461A4809F055
:103D2000EEFF4FF47A7009F05BFA1E491548FCF774
:103D300048FC1D491448FCF72BFC4FF47A7009F03D
:103D40004FFAFFF745FF18B10E481849FCF739FC48
:103D50000D20002109F0F8F815490A48FCF731FC5C
:103D600013490948FCF72DFC064809F0E9FF06480D
:103D700009F0E6FF68460AF039FA05B030BD00BF29
:103D800025350100FCA2FF1F20A3FF1F34350100D1
:103D90003735010042350100513501005835010029
:103DA000673501006F350100843501008D35010054
:103DB000302E010014282DE9F84305460C4616461E
:103DC0001F4601D0022823D131468E4806F02DFA35
:103DD000002831468B4803DD06F027FA8A4B4FE076
:103DE00006F023FA002807DA002C05DD384600210A
:103DF0000DF024F800285AD18248314606F015FA11
:103E0000013002DB0020BDE8F883002C4FDCF9E72D
:103E1000A0F10B03012B03D9A0F10F03012B20D834
:103E200031467A4806F001FA00283146774803DD2A
:103E300006F0FBF9764B23E006F0F7F9002807DAE5
:103E4000002C05DD384600210CF0F8FF002865D174
:103E50006E48314606F0E9F90130D3DA002C5DDC1A
:103E6000D0E720F004030A2BCCD11146694806F0B4
:103E7000DCF900283146674804DD06F0D6F9664BC8
:103E80001860BCE006F0D1F9002807DA002C05DD47
:103E9000384600210CF0D2FF002876D15D4831462B
:103EA00006F0C3F90130ADDA002C6EDCAAE731462A
:103EB000544806F0BAF9804638460CF0C9FF01466E
:103EC0002846FDF76BF805466FEA08000CF054F938
:103ED00002460B4600204FF080410AF0CDFE6C43B5
:103EE0008046642094FBF0F089460CF045F90022EE
:103EF00004460D46494B404649460CF0A3F90B4693
:103F00000246294620460BF0EBFF0CF035FC3E4BF9
:103F1000B0F5006FA8BF4FF400606CE031463B483D
:103F200006F083F9804638460CF092FF0146284699
:103F3000FDF734F805466FEA08000CF01DF902465B
:103F40000B4600204FF080410AF096FE6C438046FD
:103F5000642094FBF0F089460CF00EF90022044630
:103F60000D462E4B404649460CF06CF90B46024676
:103F7000294620460BF0B4FF0CF0FEFB244BB0F5B5
:103F8000006FA8BF4FF4006035E03146214806F0CD
:103F90004CF9804638460CF05BFF01462846FCF79A
:103FA000FDFF05466FEA08000CF0E6F802460B46F6
:103FB00000204FF080410AF05FFE6C438046642091
:103FC00094FBF0F089460CF0D7F8002204460D4629
:103FD000124B404649460CF035F90B46024629463D
:103FE00020460BF07DFF0CF0C7FB0B4BB0F5006FCC
:103FF000A8BF4FF400601860094B43F82600012069
:10400000BDE8F883F48BFF1FD48BFF1F588CFF1F74
:10401000E098FF1F509BFF1F1898FF1F00002040D3
:104020000099FF1F2DE9D841142804460E461F466B
:10403000069A01D0022817D1002A12DC002E53DD87
:10404000384600210CF0FAFE002851D038460CF01A
:10405000FFFE01462046FCF7A1FF6423704390FB5E
:10406000F3F2244800212EE0A0F10B03012B0BD921
:10407000A0F10F08B8F1010F8CBF4FF000084FF00E
:104080000108B8F1000F16D0002A11DC002E2BDD3C
:10409000384600210CF0D2FE50B338460CF0D8FE62
:1040A00001462046FCF77AFF6423704390FBF3F24D
:1040B0001048032107E020F004040A2C14D1002A40
:1040C00003DD0C48022192B209E000290FDD3846D9
:1040D00000210CF0B3FE58B106480221424606F01A
:1040E0002BFB0120BDE8D8810020BDE8D8814046E7
:1040F000BDE8D8817C9BFF1F10B5074C05202146E9
:1041000008F0AAFE2146032008F0A6FE1920034964
:10411000BDE8104008F0A0BE001B3748D723F44389
:104120002DE9F74F07460E4691469A464C014FF44B
:1041300080750820002108F007FF1CB12346013BD1
:104140007FF4FDAF0820012108F0FEFE1CB12346DC
:10415000013B7FF4FDAF013DEBD10820294608F07B
:10416000F3FE1CB12346013B7FF4FDAF0820012183
:1041700008F0EAFE0720002108F0E6FE1CB1234605
:10418000013B7FF4FDAF0820002108F0DDFE1CB1EB
:104190002346013B7FF4FDAF0820012108F0D4FE47
:1041A0000720012108F0D0FE1CB12346013B7FF41B
:1041B000FDAF4FF47A735F43F30097FBF3F70025ED
:1041C000BD424FF008004FF0000147DA08F0BCFE96
:1041D0001CB12346013B7FF4FDAF0820012108F00C
:1041E000B3FE1CB12346013B7FF4FDAF0820002144
:1041F00008F0AAFE1CB12346013B7FF4FDAF082066
:10420000012108F0A1FE1CB12346013B7FF4FDAF64
:104210000820002108F098FE1CB12346013B7FF4E2
:10422000FDAF0820012108F08FFE1CB12346013BA1
:104230007FF4FDAF0820002108F086FE1CB1234664
:10424000013B7FF4FDAF0820012108F07DFE1CB189
:104250002346013B7FF4FDAF0135B1E708F074FE62
:104260001CB12346013B7FF4FDAF0820012108F07B
:104270006BFE0720002108F067FE1CB12346013BBE
:104280007FF4FDAF0820002108F05EFE1CB123463C
:10429000013B7FF4FDAF0820012108F055FE072007
:1042A000012108F051FE1CB12346013B7FF4FDAF14
:1042B000494D0023C9EB060B2B604FEA4B1B4FF413
:1042C00080780820002108F03FFE1CB12346013B06
:1042D0007FF4FDAF0820012108F036FE1CB1234613
:1042E000013B7FF4FDAF0820002108F02DFE3B4F7D
:1042F000BAF1000F11D12B680193222009F0EEF8DA
:10430000019B374A27F813002B6852F8231037F81F
:104310001300014442F8231008E0222009F0DEF8DF
:104320002B6837F81320104427F813002B684E45EC
:1043300003F101032B6006DDBBF1000F03D05B46E8
:10434000013B7FF4FDAF0820012108F0FDFD1CB109
:104350002346013B7FF4FDAF0820002108F0F4FD67
:104360001CB12346013B7FF4FDAF0820012108F07A
:10437000EBFD1CB12346013B7FF4FDAF082000217B
:1043800008F0E2FD1CB12346013B7FF4FDAF08209D
:10439000012108F0D9FD1CB12346013B7FF4FDAF9C
:1043A000B8F101088DD14FF480750820002108F084
:1043B000CBFD1CB12346013B7FF4FDAF082001215A
:1043C00008F0C2FD1CB12346013B7FF4FDAF013D67
:1043D000EBD103B0BDE8F08F648CFF1FEC9BFF1F97
:1043E000DC8CFF1F38B515491548164DFCF7D0F881
:1043F00015481249FCF7CCF8002469881048FCF7EE
:10440000CBF8114835F8021FFCF7C6F8FF2C07D08F
:104410002C210B48FCF7B7F80B482C21FCF7B3F81C
:104420000134B4F5807FE8D108490548FCF7C9F8A4
:1044300006490548FCF7C5F838BD00BFA4350100A2
:10444000FCA2FF1FEA9BFF1F20A3FF1FA93E010044
:1044500070B505460E460024601909F007F930557D
:104460000134042CF8D1204670BD70B506460D46C7
:104470000024A019295D013409F00CF9042CF8D1AD
:10448000204670BD73B505460191164600242846A6
:104490000CF0C4FA074B0146E0580CF0A7FC18B129
:1044A000A01901A9FFF7E1FF0434682CEFD102B095
:1044B00070BD00BF7489FF1F73B505460191164694
:1044C000002428460CF0AAFA074B0146E0580CF0ED
:1044D0008DFC18B1A01901A9FFF7C7FF0434682C9F
:1044E000EFD102B070BD00BF7489FF1FF8B505465B
:1044F0004EF66020FCF7F6FC0CF03EF9431C044637
:1045000024D04EF66020FCF7EDFC0CF07DF910494C
:1045100007460CF06BFCC8B94EF66020FCF7E2FCD5
:104520000CF072F90A4906460CF060FC70B920469E
:1045300039462A46FFF7A6FF2046314605F17802A4
:10454000FFF7BAFF012008F04BFED1E7F8BD00BF2E
:10455000000080BFF7B50E46174605460024B4425A
:104560000EDA4EF66020FCF7BDFC0CF04DF902A906
:10457000013441F8040D2846FFF777FF3D44EEE78C
:1045800003B0F0BD70B505460E460024601909F071
:104590006DF830550134082CF8D1204670BDFFFF6E
:1045A0002DE9F041684E6949694D86B00746694872
:1045B000FBF7EEFF30680BF0F1FD022402460B46DC
:1045C00000946448FBF7EEFF63496248FBF7F9FF8C
:1045D0004FF0030861495F48FBF7DAFF58A3D3E9BE
:1045E0000023CDF800805B48FBF7DCFF5A495948AF
:1045F000FBF7E7FF5A495748FBF7CAFF28680BF05B
:10460000CDFD009402460B465248FBF7CBFF5249C2
:104610005048FBF7D6FF4D495248FBF7B9FF3068C9
:104620000BF0BCFD009402460B464E48FBF7BAFF68
:1046300049494C48FBF7C5FF48494A48FBF7A8FFE2
:104640003FA3D3E90023CDF800804648FBF7AAFF3B
:1046500041494448FBF7B5FF41494248FBF798FF01
:1046600028680BF09BFD009402460B463D48FBF783
:1046700099FF39493B48FBF7A4FF3B494FF4B4602D
:10468000FFF780FF394902A809F0F0FD02A836497A
:1046900001222346FCF7CCFC02A809F0A7FD012F5C
:1046A00045D14EF66020FCF71DFC0CF0ADF83060F3
:1046B0000BF074FD009402460B462648FBF795FF6D
:1046C00030680BF06BFD009402460B462548FBF763
:1046D0008CFF306826490CF089FB40BB31460C202A
:1046E000FFF7C3FE4EF66020FCF7FCFB0CF08CF8E5
:1046F00028600BF053FD009402460B461548FBF76B
:1047000074FF28680BF04AFD009402460B461548DA
:10471000FBF76BFF286816490CF068FB044630B9BC
:1047200014202946FFF7A1FE2046FFF739FF01209C
:1047300008F056FD06B0BDE8F08100BFAFF3008081
:10474000000000E07C3FDD3FE09BFF1FB135010032
:10475000F098FF1FFCA2FF1F0D3D0100BF350100B7
:10476000D335010020A3FF1F6C89FF1FE73501002F
:10477000000080BFAFF3008070B506460D460024F0
:10478000A019295D08F086FF013441F210539C42C4
:10479000F6D1204670BD00B5ADF5A85D85B010B965
:1047A000FBF7CEFE09E00021684641F210520CF002
:1047B000F7FB3C206946FFF7DFFF0DF5A85D05B06C
:1047C0005DF804FB70B505460E460024601908F03C
:1047D0004DFF30550134B4F5007FF7D1204670BD50
:1047E00070B505460E460024601908F03FFF3055AD
:1047F0000134682CF8D1204670BDFFFF1FB5044678
:10480000BC490020FFF724FEBB490420FFF720FE2F
:10481000BA490820FFF71CFEB9490C20FFF718FE23
:10482000B8491420FFF714FEB7491820FFF7CAFF54
:10483000B6494FF40670FFF7C5FFB5494FF48C60D9
:10484000FFF7CEFFB3494FF49B60FFF7C9FFB249B2
:104850004FF4AA60FFF796FEB0494FF4AB60FFF744
:1048600091FEAF494FF4AC60FFF78CFEAD494FF4B9
:10487000AD60FFF787FEAC494FF4AE60FFF782FEF4
:10488000AA494FF4AF60FFF77DFEA9494FF4B0602D
:10489000FFF778FEA7494FF4B160FFF773FEA64912
:1048A0004FF4B260FFF76EFEA4494FF4B360FFF718
:1048B00069FE4FF4B460A249FFF764FE012C40F09A
:1048C0003984A049A048FBF763FE9E499F48FBF747
:1048D0005FFE2046FCF720FD9B4809F031FA9B481B
:1048E00009F02EFA2046FCF7F3F99949684609F0D9
:1048F000BDFC002297496846FCF778FC684609F041
:1049000075FC9549684609F0B1FC00229349684658
:10491000FCF76CFC684609F069FC9149684609F0AF
:10492000A5FC00228F496846FCF760FC684609F048
:104930005DFC8D49684609F099FC00228B49684668
:10494000FCF754FC684609F051FC8949684609F0B7
:104950008DFC002287496846FCF748FC684609F050
:1049600045FC8549684609F081FC00228349684678
:10497000FCF73CFC684609F039FC8149684609F0BF
:1049800075FC00227F496846FCF730FC684609F058
:104990002DFC7D49684609F069FC00227B49684688
:1049A000FCF724FC684609F021FC7949684609F0C7
:1049B0005DFC002277496846FCF718FC684609F060
:1049C00015FC7549684609F051FC002250496846BB
:1049D000FCF70CFC684609F009FC7049684609F0D0
:1049E00045FC00224B496846FCF700FC684609F08C
:1049F000FDFB6B49684609F039FC00220223694936
:104A00006846FCF715FB684609F0F0FB6649684606
:104A100009F02CFC002202233F496846FCF708FB02
:104A2000684609F0E3FB6149684609F01FFC002273
:104A300002233A496846FCF7FBFA684609F0D6FBC0
:104A40005B49684609F012FC00220223344968469B
:104A5000FCF7EEFA684609F0C9FB5649684609F0CA
:104A600005FC002202232F496846FCF7E1FA68465C
:104A700009F0BCFB5049684609F0F8FB002202230C
:104A800029496846FCF7D4FA684609F0AFFB4B4960
:104A9000684609F0EBFB0022022324496846FCF734
:104AA000C7FA684609F0A2FB4549684609F0DEFBF3
:104AB000002202231E496846FCF7BAFA684609F04C
:104AC00095FB4049684609F0D1FB002202231949B1
:104AD0006846FCF7ADFA684609F088FB3A49684633
:104AE00009F0C4FB0022022313496846FCF7A0FA30
:104AF0006CE000BFEC89FF1F6889FF1FF492FF1F65
:104B0000E09BFF1FF098FF1F6893FF1F6895FF1F32
:104B10002492FF1F8C92FF1F389BFF1F449BFF1F97
:104B20005098FF1F5898FF1F6098FF1FD88BFF1FDA
:104B3000E08BFF1FE88BFF1F7098FF1FF892FF1F8D
:104B40006C89FF1F392F0100FCA2FF1F20A3FF1F4C
:104B5000F23501007489FF1FFB350100B097FF1F7C
:104B60000D3601007898FF1F1E360100688BFF1F6D
:104B700038360100A49AFF1F51360100748CFF1FC4
:104B80006C360100DC90FF1F863601004C91FF1F40
:104B900099360100BC91FF1FAC360100BF36010001
:104BA0005F390100309BFF1F6C390100793901002A
:104BB0008639010093390100A0390100AD390100A7
:104BC000BA390100C7390100D4390100684609F03B
:104BD0000DFBB749684609F049FB00220223B5499D
:104BE0006846FCF725FA684609F000FBB2496846BA
:104BF00009F03CFB00220223B0496846FCF718FA92
:104C0000684609F0F3FAAE49684609F02FFB002226
:104C10000223AC496846FCF70BFA684609F0E6FA4D
:104C2000A949684609F022FB00220223A7496846E9
:104C3000FCF7FEF9684609F0D9FAA549684609F07B
:104C400015FB00220223A3496846FCF7F1F96846E8
:104C500009F0CCFAA049684609F008FB00220223BB
:104C60009E496846FCF7E4F9684609F0BFFA9C499A
:104C7000684609F0FBFA002202239A496846FCF7CD
:104C8000D7F9684609F0B2FA9749684609F0EEFA92
:104C90000022022395496846FCF7CAF9684609F0E4
:104CA000A5FA9349684609F0E1FA002202239149E6
:104CB0006846FCF7BDF9684609F098FA8E496846DF
:104CC00009F0D4FA002202238C496846FCF7B0F9B7
:104CD000684609F08BFA8A49684609F0C7FA00224B
:104CE000022388496846FCF7A3F9684609F07EFA72
:104CF0008549684609F0BAFA0022022383496846CA
:104D0000FCF796F9684609F071FA8149684609F09E
:104D1000ADFA002202237F496846FCF789F968460C
:104D200009F064FA7C49684609F0A0FA00220223DF
:104D30007A496846FCF77CF9684609F057FA7849E1
:104D4000684609F093FA0022022376496846FCF788
:104D50006FF9684609F04AFA7349684609F086FA1D
:104D60000022022371496846FCF762F9684609F09F
:104D70003DFA6F49684609F079FA002202236D492D
:104D80006846FCF755F9684609F030FA6A49684602
:104D900009F06CFA0022022368496846FCF748F9DA
:104DA000684609F023FA6649684609F05FFA00226E
:104DB000022364496846FCF73BF9684609F016FA95
:104DC0006149684609F052FA002202235F496846A9
:104DD000FCF72EF9684609F009FA5D49684609F0C2
:104DE00045FA002202235B496846FCF721F9684630
:104DF00009F0FCF95849684609F038FA0022022304
:104E000056496846FCF714F9684609F0EFF9544929
:104E1000684609F02BFA0022022352496846FCF743
:104E200007F9684609F0E2F94F49684609F01EFAA9
:104E3000002202234D496846FCF7FAF8684609F05B
:104E4000D5F94B49684609F011FA00220223494975
:104E50006846FCF7EDF8684609F0C8F94649684627
:104E600009F004FA0022022344496846FCF7E0F8FE
:104E7000684609F0BBF94249684609F0F7F9002293
:104E8000022340496846FCF7D3F8684609F0AEF9BA
:104E90003D49684609F0EAF9002202233B49684689
:104EA000FCF7C6F8684609F0A1F93949684671E08F
:104EB000E1390100F892FF1FEF3901000093FF1F55
:104EC000FD3901000893FF1F0B3A01001093FF1FEB
:104ED000193A01001893FF1F273A01002093FF1F82
:104EE000353A01002893FF1F433A01003093FF1F1A
:104EF000513A01003893FF1F5F3A01004093FF1FB2
:104F00006D3A01003098FF1F7B3A01003898FF1F6F
:104F1000893A01004098FF1F973A01004898FF1F07
:104F2000A53A0100909AFF1FB33A01009C9AFF1F17
:104F3000C13A01000C9BFF1FCF3A0100149BFF1FD9
:104F4000DD3A0100209BFF1FEB3A01006898FF1F2C
:104F5000F93A0100649BFF1F073B01006C9BFF1F98
:104F6000153B0100749BFF1F233B0100B491FF1F01
:104F7000313B0100B09BFF1F3F3B0100B89BFF1F6F
:104F80004D3B0100C09BFF1F5B3B0100C89BFF1F07
:104F9000693B010009F06AF900220223664968466C
:104FA000FCF746F8684609F021F96449684609F0BB
:104FB0005DF90022022362496846FCF739F8684629
:104FC00009F014F95F49684609F050F900220223FC
:104FD0005D496846FCF72CF8684609F007F95B491B
:104FE000684609F043F90022022359496846FCF754
:104FF0001FF8684609F0FAF85649684609F036F98C
:105000000022022354496846FCF712F8684609F06A
:10501000EDF85249684609F029F900220223504967
:105020006846FCF705F8684609F0E0F84D4968461F
:1050300009F01CF9002202234B496846FBF7F8FFF0
:10504000684609F0D3F84949684609F00FF900228B
:10505000022347496846FBF7EBFF684609F0C6F8AC
:105060004449684609F002F9002203234249684690
:10507000FBF7DEFF684609F0B9F84049684609F0D9
:10508000F5F8002203233E496846FBF7D1FF684646
:1050900009F0ACF83B49684609F0E8F80022032320
:1050A00039496846FBF7C4FF684609F09FF837495D
:1050B000684609F0DBF80022032335496846FBF710
:1050C000B7FF684609F092F83249684609F0CEF811
:1050D0000022032330496846FBF7AAFF684609F01F
:1050E00085F82E49684609F0C1F800224FF4807314
:1050F0002B496846FCF714F8684609F077F8294907
:10510000684609F0B3F800224FF4807326496846D8
:10511000FCF706F8684609F069F82449684609F082
:10512000A5F86846224922460223FBF781FF68461C
:1051300009F05CF804B010BDD09BFF1F773B010065
:10514000D89BFF1F853B0100289BFF1F933B01005D
:10515000048CFF1FA13B01000C8CFF1FAF3B010023
:10516000148CFF1FBD3B01001C8CFF1FCB3B0100BB
:10517000248CFF1FD93B01002C8CFF1FE73B010053
:10518000388CFF1FF53B0100448CFF1F033C0100DE
:10519000589BFF1F113C01005C93FF1F1F3C010047
:1051A0006893FF1F2D3C01006895FF1FE735010044
:1051B0006C89FF1F2DE9F04FB84BB94FB94D042250
:1051C0001A6085B00646002140F6FF72B64805F029
:1051D000B3FA8024012140F6FF72B34805F0ACFA1F
:1051E000022140F6FF723C60AF4805F0A5FA0321AA
:1051F00040F6FF72AC4805F09FFA2C60FEF753FAB8
:10520000622EA8462BD10020FFF7F8FA4EF6602058
:10521000FBF768FE0022A54B04460D460BF07AFA18
:105220008146B8B9FEF73FFA294620460BF0CCFA82
:10523000494682B29C4805F07FFA00232046294661
:1052400000220BF067FA202310B9C8F80030DDE720
:105250003B60DBE7FEF727FA20233B602DE0632E5F
:105260002BD10020FFF7CAFA4EF66020FBF73AFE7A
:105270000BF082FA8E4983468E48FBF789F98C49F8
:105280008D48FBF785F900210A46874805F054FA56
:1052900085480321002205F04FFA4FF0000907F07E
:1052A00069FB0228854C5FFA8BF500F31E8207F03C
:1052B000E5F9022840F3218217E24FF00009FEF7DA
:1052C000F2F9642E01D1FEF7FFF9FEF7ECF9652E35
:1052D0003AD17B497748FBF75BF977487849FBF788
:1052E00057F907F047FB022800F3628107F0C6F97F
:1052F000022800F35D810120FBF748FC0BF08EFBD8
:10530000FBF73EFE81460AF049FF4FF0020A0446D1
:105310000D460B462246CDF800A06648FBF742F941
:1053200022462B46CDF800A06348FBF73BF96549C0
:105330006048FBF72DF963495F48FBF729F94FF403
:10534000FA6007F04DFFCCE7662E37D15E49594829
:10535000FBF71EF958485C49FBF71AF907F00AFBFE
:10536000022800F3258107F089F9022800F3208143
:10537000FEF70AF80BF04EFB81460AF00FFF4FF0E4
:10538000020A044622460B46CDF800A049480D46C5
:10539000FBF708F94B494748FBF7FAF822462B463A
:1053A000CDF800A04448FBF7FDF846494248FBF71A
:1053B000EFF84FF4FA6007F013FFCFE7672E35D10F
:1053C00042493C48FBF7E4F83B484049FBF7E0F82A
:1053D00007F0D0FA022800F3EB8007F04FF902281B
:1053E00000F3E680FBF790F881460AF0D7FE4FF015
:1053F000020A044622460B46CDF800A02D480D4671
:10540000FBF7D0F82F492B48FBF7C2F822462B4672
:10541000CDF800A02848FBF7C5F82A492648FBF735
:10542000B7F84FF4FA6007F0DBFED1E7682E51D1F0
:1054300027492048FBF7ACF81F482549FBF7A8F897
:1054400007F098FA022800F3B38007F017F9022852
:1054500000F3AE80FBF73CF881460AF09FFE4FF068
:10546000020A044622460B46CDF800A011480D461C
:10547000FBF798F813490F48FBF78AF822462B46AA
:10548000CDF800A00C48FBF78DF80E490A48FBF751
:105490007FF84FF4FA6007F0A3FED1E788F00F40E1
:1054A000C8F00F40C4F00F407C9BFF1F0000F0BF0E
:1054B000D2360100FCA2FF1F20A3FF1F30400100D5
:1054C000E23601000D3D0100F7360100063701000C
:1054D00017370100692E36D198499948FBF758F8DB
:1054E00098489649FBF754F807F044FA02285FDC25
:1054F00007F0C4F802285BDC0020FBF747FB0BF049
:105500008DFA81460AF04AFE4FF0020A04460D4623
:105510000B462246CDF800A08948FBF743F8224607
:105520002B46CDF800A08748FBF73CF88649844815
:10553000FBF72EF884498348FBF72AF84FF4FA600A
:1055400007F04EFED0E76A2E34D180497D48FBF744
:105550001FF87B487D49FBF71BF807F00BFA022880
:1055600026DC07F08BF8022822DCFEF73DF88146A6
:105570000AF014FE4FF0020A04460D460B4622467E
:10558000CDF800A06E48FBF70DF822462B46CDF86B
:1055900000A06C48FBF706F86B496948FAF7F8FF7A
:1055A00069496848FAF7F4FFC82007F019FED4E704
:1055B000FEF779F8731E202B3ED865496148FAF74B
:1055C000E7FF5F486249FAF7E3FF4EF66020FBF71A
:1055D00089FC0BF0D1F8421C07465E4D24D0BCB2CA
:1055E000FEF761F8002122465B4805F0A5F801218D
:1055F0002246594805F0A0F802212246564805F0F7
:105600009BF822465448032105F096F855F83620B9
:10561000012382F8803055F8362017B182F88030A7
:10562000D3E782F80031D0E7FEF73DF855F8363081
:10563000012283F8002132E0A6F12203032B2ED8A9
:105640003F4808F07DFB3F4808F07AFB4EF66020AB
:10565000FBF748FC0BF090F8431C1ED010234001D0
:105660003B6002D001387FF4FDAFF0B207F036FFA7
:1056700010230446C8F8003021463148FAF78CFF61
:1056800021463048FAF788FF2F492D48FAF780FF66
:105690002D492C48FAF77CFFD2E7FEF704F82F4B90
:1056A00004221A6048460AF079FD022604460D4697
:1056B0000B46224600962248FAF774FF22462B46F4
:1056C00000962048FAF76EFF25491D48FAF779FF42
:1056D00023491C48FAF775FF194808F031FB1948AF
:1056E00005B0BDE8F04F08F02BBBFDF7DCFF54F828
:1056F0003530012283F80021E1E554F835200123FB
:1057000082F8803000200393FBF740FA0BF086F913
:10571000FBF736FC81460BF09BFB01465846FBF736
:105720003DFC0021824648460BF060FB039B01468E
:10573000C0B154F8352082F800311EE02E37010048
:10574000FCA2FF1F20A3FF1F0D3D010047370100F2
:1057500064370100304001007C9BFF1F84F00F4044
:105760005F2E01001FFA8AF422461C4804F0E4FF71
:105770001A480321224604F0DFFF48460AF00EFDD6
:1057800004460D460221009122462B4614480391FF
:10579000FAF708FF0399009122462B461148FAF7C1
:1057A00001FF11490E48FAF7F3FE0F490D48FAF7C9
:1057B000EFFE51460A48FAF7EFFE51460948FAF75C
:1057C000EBFE09490648FAF7FCFE07490548FAF7D7
:1057D000F8FE4FF47A7007F003FD60E57C9BFF1F35
:1057E000FCA2FF1F20A3FF1F0D3D0100F7B5012004
:1057F000FFF704F84EF66020FBF774FB0BF004F89B
:105800003B4F3C4E38600AF0C9FC022402460B466E
:1058100000943046FAF7C6FE3868374D0AF0BEFCF1
:10582000009402460B462846FAF7BCFE394618207B
:10583000FEF71BFE4EF66020FBF754FB0AF0E4FF78
:105840002E4F38600AF0AAFC009402460B46304600
:10585000FAF7A8FE38680AF0A1FC009402460B464D
:105860002846FAF79FFE39461C20FEF7FEFD4EF64D
:105870006020FBF737FB0AF0C7FF214F38600AF0C2
:105880008DFC009402460B463046FAF78BFE3868D2
:105890000AF084FC009402460B462846FAF782FE82
:1058A00039462020FEF7E1FD4EF66020FBF71AFB9B
:1058B0000AF0AAFF134F38600AF070FC0094024609
:1058C0000B463046FAF76EFE38680AF067FC009423
:1058D00002460B462846FAF765FE39462420FEF7B5
:1058E000C4FD012003B0BDE8F040FEF787BF00BF54
:1058F000688CFF1FFCA2FF1F20A3FF1FE498FF1F5F
:105900006C8CFF1FE898FF1FF7B50120FEF776FFAC
:105910004EF66020FBF7E6FA0AF076FF224F234EA0
:1059200038600AF03BFC062402460B4600943046E1
:10593000FAF738FE38681E4D0AF030FC0094024633
:105940000B462846FAF72EFE39460420FEF78DFD59
:105950004EF66020FBF7C6FA0AF056FF154F386086
:105960000AF01CFC009402460B463046FAF71AFE79
:1059700038680AF013FC009402460B460E4C284689
:10598000FAF710FE39460820FEF76FFD2146304633
:10599000FAF717FE28462146FAF713FE012003B056
:1059A000BDE8F040FEF72ABF6889FF1FFCA2FF1F79
:1059B00020A3FF1FF492FF1F6737010038B50C4684
:1059C0000546097807F066FE681C617807F062FEFC
:1059D000022038BDF7B50E46174605460024B442EE
:1059E0000EDA4EF66020FBF77DFA0AF0EDFE02A912
:1059F000013421F8020D2846FFF7E0FF3D44EEE7B1
:105A000003B0F0BDF8B507F0FBFD0C2008F003FD76
:105A1000044605F037FE1F4B1F4D1C601F4C204EE7
:105A2000204605F0BDFE2A4620461E490BF056FAD8
:105A30001D4B1E4800241C605C601D4B04701C60E4
:105A40005C601C4B80271C605C6031462A464773B3
:105A50000BF044FA184831462A46047047730BF09D
:105A60003DFA16482A463146047047730BF036FA61
:105A7000134804F091FA4221124804F047FA1249FF
:105A80001248134A04F02FFD21461248BDE8F840A1
:105A900004F02BBEF89DFF1F6089FF1F989AFF1F1F
:105AA000C504000065040000F48BFF1F9C97FF1FD6
:105AB000588CFF1F509BFF1F7497FF1F8897FF1F75
:105AC0002898FF1F4893FF1FD95A00004C93FF1FCF
:105AD0003D5B00007C9BFF1F034670B509480D46E7
