:1000000000800020BD010000C1B50000C1B50000A6
:10001000C1B50000C1B50000C1B500008DB500003C
:100020008DB500008DB500008DB50000C1B5000094
:10003000C1B500008DB50000C1B500007DB5000060
:10004000C1B50000C1B50000C1B50000C1B50000D8
:10005000C1B50000C1B50000C1B50000C1B50000C8
:10006000C1B50000C1B50000C1B50000C1B50000B8
:10007000C1B50000C1B50000C1B50000C1B50000A8
:10008000C1B50000C1B50000C1B50000C1B5000098
:10009000C1B50000B59B0000C1B50000C1B50000AE
:1000A000BD8C0000C1B50000C1B50000C1B50000A5
:1000B000C1B50000C1B50000C1B50000C1B5000068
:1000C000C1B50000C1B50000C1B50000C1B5000058
:1000D000C1B50000C1B50000C1B50000C1B5000048
:1000E000C1B50000C1B50000C1B50000C1B5000038
:1000F000C1B50000A5AA0000C1B50000F9C9000003
:10010000C1B50000B1BC0000C1B50000C1B5000020
:10011000C1B50000C1B50000C1B50000C1B5000007
:10012000C1B50000C1B50000C1B50000C1B50000F7
:10013000C1B50000C1B50000C1B50000C1B50000E7
:10014000C1B50000C1B50000C1B50000C1B50000D7
:100150005DBD000075BD00008DBD0000A5BD0000A7
:10016000C1B5000031A00000C1B50000C1B500005C
:10017000C1B50000C1B50000C1B50000C1B50000A7
:10018000C1B50000C1B50000C1B50000C1B5000097
:10019000C1B50000C1B50000C1B5000021AF00002D
:1001A00071AF0000F9AF0000B5B0000039B1000038
:1001B000C1B50000C1B50000C1B50000544B4CF200
:1001C000205210B51A804DF628121A8000BF00BFC9
:1001D00009F034FD4F4B4FF010621A604E4A9A609E
:1001E0004E4ADA604E4B1A6812F4807204D14D49BF
:1001F0000A604FF4A8521A604B4B1A7802F00802BA
:10020000D2B21AB11A7842F008021A70474B484825
:10021000484C2A221A700023474A02E01959995083
:10022000043399188142F9D3444B454A002101E037
:1002300043F8041B9342FBD34249434800231A5816
:100240005A500433B3F5DE7FF9D1404B404A802148
:1002500003F8011B9342FBD13A4A3E4B1A603E4BD6
:100260000A221A703D4B24221A70A02203F8012C96
:100270003B4A137803F00203DBB2002BF9D0384A73
:10028000137803F01003DBB2002BF9D1344A137852
:1002900003F00C03082BFAD1324B03221A704022D0
:1002A0005A702F4A137803F02003DBB2002BF9D0E9
:1002B0002B4A137803F04003DBB2002BF9D02A4B12
:1002C0002A4A1A6002225A60294B20221A70244AB4
:1002D000137803F00C030C2BFAD1264A264B1A6034
:1002E000264B274A1A60072243F8042C62B60BF00B
:1002F00005F90C4B1B68DC0702D522480AF034FFD5
:100300000DF0A8FD0BF05FF90BF0DAFEFEE700BF81
:100310000E20054030800440823F04000100002B85
:1003200010D0034014D0034002D0074000E0074043
:10033000F891FF1FF09501006089FF1FF891FF1FE2
:100340003CA6FF1F0084FF1F0000000000E400E047
:100350005FE400E008ED00E0005006400140064088
:10036000064006400440064044800440000003016B
:1003700000400640C01005000480044014E000E086
:10038000FF760100D9C88F56FFFFFFFFFFFFFFFF79
:10039000FFFFFFFFFFFFFFFFFFFFFFFFFFFFFFFF6D
:1003A000FFFFFFFFFFFFFFFFFFFFFFFFFFFFFFFF5D
:1003B000FFFFFFFFFFFFFFFFFFFFFFFFFFFFFFFF4D
:1003C000FFFFFFFFFFFFFFFFFFFFFFFFFFFFFFFF3D
:1003D000FFFFFFFFFFFFFFFFFFFFFFFFFFFFFFFF2D
:1003E000FFFFFFFFFFFFFFFFFFFFFFFFFFFFFFFF1D
:1003F000FFFFFFFFFFFFFFFFFFFFFFFFFFFFFFFF0D
:10040000FFFFFFFFFFFFFFFFFFFFFFFFFEFFFFFFFD
:1004100008B549F2F810074BC1F6FF701B1A062BFE
:1004200000D808BD40F20003C0F20003002BF8D052
:100430009847F6E7FB91FF1F08B549F2F81049F21B
:10044000F813C1F6FF70C1F6FF731B1A9B1003EB84
:10045000D373591000D108BD40F20002C0F200026F
:10046000002AF8D09047F6E710B549F2F814C1F623
:10047000FF74237873B9FFF7CBFF40F20003C0F29B
:1004800000032BB149F2F050C0F20100AFF300803D
:100490000123237010BD00BF08B540F20003C0F275
:1004A00000034BB149F2F05049F2FC11C0F20100D7
:1004B000C1F6FF71AFF3008049F2F810C1F6FF708A
:1004C00003682BB140F20003C0F2000303B1984768
:1004D000BDE80840B0E700BF38B54FF40234A4F5DA
:1004E00000652B4603E053F8042B01320BD1A342E5
:1004F000F9D302E00A4800F0F7F904F50064B4F516
:10050000802FECD138BD0748294600F0EDF90021D5
:10051000284619F04DF801460028EED0EAE700BF62
:10052000D07A0100E67A01002DE9FF411D46002343
:100530002B6003780A9E3A2B04460F46904601D062
:1005400000204FE00AF01CFB0A28F9D9601C27495B
:1005500001AA0EF05FFB0028F2D020460AF010FB43
:10056000019B5B000B339842EAD3E01C20494246D2
:100570000EF050FB0028E3D0E01D1C4932460EF07F
:1005800049FB0028DCD0D8F800309DF8042052FA4E
:1005900083F2C3F30723D318327809349E180FE08F
:1005A00003AA0EF037FB0028CAD02B68039AFA542E
:1005B0002B68FA5C01330234FF2B16442B60BFD842
:1005C0002A68019B09499A422046E9D102AA0EF005
:1005D00021FB0028B4D0029BF61816F0FF0F14BFC1
:1005E0000020012004B0BDE8F08100BFF77A0100CF
:1005F000FC7A01002DE9F04702234FF48072D8B055
:100600009548964900F070F9FFF766FF944B954ABC
:100610009A4205D9944A9A4202D9944A9A4201D8F8
:10062000934809E04FF400331C4653F80429013283
:1006300040F0E680EDE08F4800F056F908E18E4882
:100640008E4E8F4D00F050F98E4800F04DF9002489
:10065000374600F08DF90028FBD000F06DF958AA5C
:100660000A2802EB040302D00D2840F0C5800022C6
:1006700003F8C82C9DF898303A2B40F0BB802B68CB
:10068000002B40F0B78026A87F4905AA0EF0C2FAD9
:1006900001281DD17D4B05991A68914214D17C4BDC
:1006A0001B688BB1DFF800827A4CD8F80010226802
:1006B000794800F019F964200AF00AFFD8F8000020
:1006C000216818F06DFF03E0744800F00DF991E027
:1006D0006E4BDFF8F0811A6804AC01321A6026A86C
:1006E000009406A9424603ABFFF71EFF28B96C48E9
:1006F00026A900F0F9F801234DE0D6F80090D8F8CB
:100700000030039A4B449918B1F5FC3F04D9654871
:1007100000F0EAF802233EE02168042936D8DFE839
:1007200001F03C0324352C00584BDFF86881196830
:100730005D4C0091D8F8003022685C4800F0D4F895
:10074000D8F80030246803F5FF3804F5003408F5C4
:10075000FA7807E0204641490C220EF047FC0028B9
:100760005CD001344445F5D35CE09DF818209DF839
:10077000193043EA02231B0106E09DF818209DF87A
:10078000193043EA02231B043B6033E0484826AAA1
:1007900000F0AAF803232B602CE003F50034A00737
:1007A00001D1910713D0434800F09EF83EE00AEBD8
:1007B0000403A3F500332046196818F0E9FE01464A
:1007C00018B13D4800F090F830E0043407E002F53D
:1007D00000320DF1180A02EB0308C3EB0A0AC4EB5E
:1007E0000803002BE3DC29E00A602F4A11688B42E2
:1007F00038BF136000242CE703F8C80C013428E745
:10080000211D2E4800F070F8B4F5FC3F7FF717AFBC
:1008100011E71C46002B7FF407AFF1E71C4B0122C8
:100820001A60E7E7264800F05FF8E3E7254B264823
:100830001A68039900F058F80423ACE7214B1549D6
:100840001B68039A08684B449A188242CCD8CCE7BC
:1008500058B0BDE8F08700BF017B0100257B010097
:10086000FFFF03006189FF1F118AFF1F8D8AFF1F91
:10087000327B0100477B01005E7B01002092FF1F5D
:100880001892FF1F827B01009F7B01002892FF1FAF
:100890002492FF1F1492FF1FA97B0100C07B01005F
:1008A000E57B0100F67B0100F48AFF1F097C010053
:1008B000497C0100637C01007C7C0100987C010084
:1008C000AF7C01001C92FF1FCC7C010038B50446B0
:1008D00008460D460AF054F9236802465B68204634
:1008E0002946984738BDFFFF0FB410B5B4B036ABFA
:1008F000C82153F8042B02A8019311F085FE0B4B7D
:100900001A6812F0010F1C4603D0094802A9FFF72C
:10091000DDFF23689B0703D5064802A9FFF7D6FF32
:1009200034B0BDE8104004B0704700BFF88AFF1F24
:100930003CA4FF1F60A4FF1F38B50C4C254623685C
:10094000D9070AD50AF0C8F920B906E00AF052F82A
:1009500038B9F4E70AF07AF905E02B689A07EED582
:10096000F4E70AF055F8C0B238BD00BFF88AFF1F9F
:100970000A4B1A6812F0010F10B51C460AD00AF093
:10098000ABF938B1012010BD0AF034F80028F9D1D4
:10099000002010BD23689807FAD5F5E7F88AFF1FF5
:1009A00038B50446FFF792FF054620460BF0D4FA0F
:1009B000281838BD114A124B010F515C1970C0F351
:1009C0000361515C5970C0F30351515C9970C0F3DD
:1009D0000341515CD970C0F30331515C1971C0F30C
:1009E0000321515C5971C0F3031100F00F00515CF9
:1009F000125C9971DA711846704700BFF77C0100EC
:100A00003092FF1F0A4B10B51B68013809E05340B4
:100A10000822084943F300042140013A81EA5303C4
:100A2000F7D110F8012F002AF1D1014A136010BD4F
:100A3000FC8AFF1F2083B8ED10B504462146064806
:100A4000FFF744FF21460548FFF740FF2046BDE879
:100A50001040FFF7D7BF00BF3CA4FF1F60A4FF1FDB
:100A600010B5044621460748FFF79AFF214606487D
:100A7000FFF796FF2046FFF7C5FF0448BDE810408A
:100A8000FFF7C0BF3CA4FF1F60A4FF1FEA7C01006A
:100A900030B589B004460D460CF0E0FA2A46CDE99F
:100AA000000103A80D490EF08DF820460CF012F855
:100AB00030B103A90A48FFF709FF0A4803A905E076
:100AC00009490748FFF702FF06480749FFF7FEFEFE
:100AD00003A8FFF797FF09B030BD00BFED7C010010
:100AE0003CA4FF1F60A4FF1FF27C010038B5094C35
:100AF0002068C043FFF75EFF054629460648FFF71A
:100B00004FFF06482946FFF74BFF4FF0FF332360A6
:100B100038BD00BFFC8AFF1F3CA4FF1F60A4FF1F5D
:100B2000024B4FF400121A60704700BF80E100E0F2
:100B300010B504460BF0D0F9204610BD70B5034641
:100B40000D461646074819462A4608F033FB00248E
:100B500004E0044807F096FF30550134E3B2AB429D
:100B6000F7D370BD4C9FFF1F70B50B4C06460D466A
:100B700020461D2108F032FA3146204607F040FF9A
:100B80002946204607F03CFF204608F036FB40236C
:100B9000013BFDD170BD00BF4C9FFF1F034670B5E8
:100BA00009480D4619461646002408F005FA03E0E8
:100BB000315D07F025FF0134E3B2AB420248F7D3C1
:100BC000BDE8704008F019BB4C9FFF1F064B102278
:100BD0001A60064B1A78064B53F83220012382F82C
:100BE0008030044A13607047C8F00F40309FFF1FE9
:100BF000F88E0100E492FF1F054B1A78054B53F85D
:100C00003220012382F80031034A1360704700BF8D
:100C1000309FFF1FF88E01002C9DFF1F38B50A483A
:100C20000A4D07F075FB0A4B044618680CF056FE97
:100C3000014620460CF05AFF014628680CF09AFD48
:100C40002860204638BD00BF049BFF1F3C92FF1F59
:100C50007C8BFF1F38B50A480A4D07F0F5FA0A4B9E
:100C6000044618680CF03AFE014620460CF03EFFA0
:100C7000014628680CF07EFD2860204638BD00BF84
:100C8000049BFF1F6C92FF1F7C8BFF1F08B5FFF7B3
:100C90001DFE08BD08B50368C9B21B68984708BDAA
:100CA000406800B1C0687047074B10B540241C6015
:100CB00032200AF00DFC054B05481C60FFF7BCFE16
:100CC000BDE81040FFF712BFC4F00F40C8F00F405E
:100CD000087D010010B50E4C0E48FFF7ADFE2368ED
:100CE0003BB90D48FFF7A8FE0C4B02221A60012306
:100CF00008E0012B07D10A48FFF79EFE094B0222AC
:100D00001A6000232360BDE81040FFF7EFBE00BF6C
:100D1000D49BFF1F1B7D0100147D010084F00F4058
:100D2000307D010088F00F402DE9F041002105469B
:100D300040F6FF722C4807F057FE2C4A042320246B
:100D400013602246013AFDD1294A112013600AF0AE
:100D50003BFD0CF0C3FD27490CF0C8FE264B804636
:100D60001C600A200AF0B4FB11200AF02DFD0CF0E3
:100D7000B5FD20490CF0BAFE07466E200AF0A8FB2C
:100D800011200AF021FD0CF0A9FD1A490CF0AEFE6D
:100D90001A4B012D06461C6002D11948FFF74CFE84
:100DA0001848FFF749FE02214046FFF771FE16483A
:100DB000FFF742FE02213846FFF76AFE1248FFF7AE
:100DC0003BFE02213046FFF763FE1048FFF734FE7A
:100DD000012D06D10E48FFF72FFEBDE8F041FFF7C9
:100DE00085BEBDE8F08100BFC09CFF1F88F00F40AA
:100DF00084F00F4000601345C4F00F40C8F00F406E
:100E0000367D0100387D0100CC840100868D010013
:100E1000197D01002DE9F04780460E4608A8002103
:100E200014461D4607F056FB002871DD3948FFF7D0
:100E300003FE0A9B1868FFF7FFFD3748FFF7FCFD2C
:100E4000204600210CF032FF002856D12046062112
:100E5000FFF71EFE306800210CF028FF002854D157
:100E60002E48FFF7E9FD28460621FFF711FE4CE06A
:100E70002B48FFF7E1FD214608A807F02BFB0CF0FB
:100E80002DFD0021FFF704FE2448FFF7D5FD0025C6
:100E900023E0214608A859F825A007F01BFB0CF019
:100EA0001DFD01465046AF000CF000FFA0B158F800
:100EB00007000621FFF7ECFD306800210CF0F6FE7C
:100EC00030B91648FFF7B8FDF0590621FFF7E0FDED
:100ED0001448FFF7B1FD02E001351A2DD9D10120E8
:100EE0000AF0F6FA08A8FFF7DBFE0138844202D0C8
:100EF0000A48FFF7A1FD013402E0DFF8309000243A
:100F000008A8FFF7CDFE8442B2DB0748FFF794FD47
:100F1000BDE8F087F2830100557D0100CC8401001B
:100F2000587D0100868D0100A58D0100108BFF1FEB
:100F300010B5282000210AF0B7F90A480021FFF770
:100F4000A7FD642428200AF03FFC0CF0C7FC002118
:100F5000FFF79EFD4FF4FA600AF0BAFA013CF1D1B6
:100F600010BD00BF0000204270B50C200AF00CF943
:100F7000282001210AF098F940F2DC553FE00446B0
:100F8000214628200AF0ACF903200AF0A1FA1A2021
:100F90000AF01AFC064620460CF0A0FC0021FFF7E0
:100FA00077FD1C48FFF748FD30460CF097FC002108
:100FB000FFF76EFD01341748FFF73EFDAC42DFD16D
:100FC000214628200AF08CF903200AF081FA1A2021
:100FD0000AF0FAFB064620460CF080FC0021FFF7E1
:100FE00057FD0C48FFF728FD30460CF077FC002138
:100FF000FFF74EFD0748FFF71FFD013CE0D109F068
:101000006BFE0028BBD009F021FEBDE8704009F05E
:101010001DBE00BFCC840100012801D8FFF7FEBD32
:101020007047012801D8FFF715BE70472DE9F84336
:1010300004463F483F4F404E404D07F0A3FC0CF0A4
:1010400049FC38603A4807F096FC0CF043FC3060ED
:10105000374807F089FC0CF03DFC2860344807F065
:101060007CFC0CF037FC364B804618603CBB354BA3
:10107000DFF8EC9018680CF031FC04462146386823
:10108000314F0CF033FD0146D9F800000CF072FB33
:101090002146C9F8000030682C4E0CF027FD0146AF
:1010A00038680CF067FB214638602868284D0CF042
:1010B0001DFD014630680CF05DFB306028E0012C1E
:1010C0002FD1204BDFF89C9018680CF007FC0446E9
:1010D000214638681F4F0CF009FD0146D9F8000081
:1010E0000CF048FB2146C9F8000030681A4E0CF09D
:1010F000FDFC014638680CF03DFB2146386028684D
:10110000164D0CF0F3FC014630680CF033FB3060F8
:10111000214640460CF0EAFC014628680CF02AFB08
:101120002860044B18680CF0F3FDBDE8F88300BF9D
:10113000C499FF1FE899FF1F949CFF1F789CFF1F15
:101140005C92FF1F7C8BFF1F089BFF1FD092FF1F2D
:10115000389FFF1FCC9BFF1FD09BFF1FB897FF1F1F
:10116000BC97FF1FFC9AFF1F10B5044610B90F482B
:10117000FFF762FC0E48FFF75FFC0E4B0621186874
:10118000FFF786FC0C48FFF757FC0C48FFF754FCB0
:101190000B4B06211868FFF77BFC012C0CBF06489F
:1011A0000848BDE81040FFF747BC00BF367D01008E
:1011B000FB7D0100048BFF1FCC8401000A7E01002F
:1011C0006899FF1F197D01002DE9F0410D46ADF52D
:1011D0007E7D04463048DFF8CC8016460AF02EFFAC
:1011E00029462E480AF02AFF4FF47A72002104A8FB
:1011F0000DF058FA204600210BF0AFF8284B1A6882
:101200000192019D1A680292029A1F460DE03B6806
:1012100003930398401B0CF061FBD8F800100CF00E
:101220006DFD10B1FFF740FD05E009F055FD10B967
:1012300009F0E0FBE8B109F04FFD002805DD09F0F9
:101240002DFD5B2818D0144808E009F0D3FB0028D6
:1012500012DD09F0F5FB5B280ED010482B2104AA03
:101260004FF47A730AF0ECFE204604A90BF0ADF8B7
:1012700002E0012ED9D1CAE707484FF47A710AF08B
:10128000DDFE06484FF47A710AF0D8FE20460DF5CF
:101290007E7DBDE8F08100BF3CA4FF1F60A4FF1F5E
:1012A000A8A3FF1F088BFF1FF0B5044691B022488A
:1012B00021460AF0C3FE214821460AF0BFFE202243
:1012C000002108A80DF0EEF904A800210BF045F864
:1012D0001B4B1A680192019E1A680292029A1F46DD
:1012E00009F0FAFC10B909F085FBC0B109F082FBE6
:1012F000002801DD114804E009F0EEFC002815DDAE
:101300000D4808AA20232B210AF09AFE08A904A858
:101310000BF05BF804980CF04BFD054606E03B68CB
:101320000393039B9B1BA342DADDDFE704A80AF0CB
:10133000D3FF284611B0F0BD3CA4FF1F60A4FF1FDF
:10134000A8A3FF1F2DE9F041064690B0244831467E
:101350000AF074FE234831460AF070FE2022002174
:1013600008A80DF09FF904A800210AF0F6FF1E4B13
:101370001A680192019F1A680292029A984609F02F
:10138000ABFC10B909F036FBC8B109F0A5FC002888
:1013900001DD134804E009F02DFB002817DD11489A
:1013A00008AA20232B210AF04BFE08A904A80BF061
:1013B0000CF804980CF0F8FC04460D4607E0D8F849
:1013C00000300393039BDB1BB342D8DDDDE704A8A9
:1013D0000AF082FF2046294610B0BDE8F08100BF28
:1013E0003CA4FF1F60A4FF1FA8A3FF1F08B5044B68
:1013F00019680CF0BDF9034B19680CF077FB08BDB8
:101400006899FF1F048BFF1F2DE9F0412E4D064602
:101410008846002430460CF061FA014655F8240055
:101420000CF044FC002835D0284B53F82460284B9E
:1014300053F82470274B53F82450274B304653F869
:1014400024100CF095F931460CF050FB014628466B
:101450000CF098FA014628460CF08CF91F4B53F813
:1014600024601F4B054653F8241038460CF080F9D1
:1014700039460CF03BFB014630460CF083FA01463E
:1014800030460CF077F90021044628460CF00EFC9B
:1014900050B104E001341A2CBCD1BDE8F0812046E3
:1014A00000210CF003FC60B940460CF017FA21460D
:1014B0000CF05EF929460CF019FB0CF04FFCBDE86E
:1014C000F0810020BDE8F081108BFF1F909AFF1F74
:1014D000E49BFF1F9898FF1F289AFF1F0099FF1F8A
:1014E000549BFF1F2DE9F041044614481D460F464A
:1014F0001646FFF7A1FA2068FFF79EFA1048FFF79B
:101500009BFA002405F1FF380AE0002157F8240077
:10151000FFF7BEFA444502D00A48FFF78DFA0134BE
:10152000AC42F2DB0848FFF787FA012E14BF0548EA
:101530000648BDE8F041FFF77FBA00BFF283010023
:10154000117F0100CC840100868D0100197D01000E
:1015500070B5044611480E461546FFF76DFA20682F
:10156000FFF76AFA0E48FFF767FA0024002156F8E1
:101570002400FFF78DFA192C02D00A48FFF75CFA15
:1015800001341A2CF2D10848FFF756FA012D14BF86
:1015900004480648BDE87040FFF74EBAF2830100E8
:1015A000117F0100CC840100868D0100197D0100AE
:1015B00010B50CF093F90B4B196804460CF0E2F9E6
:1015C000094B19680CF0D6F8084B1860084B2046F8
:1015D00019680CF0D7F9074B19680CF0CBF8064BDB
:1015E000186010BDDC92FF1FBC9BFF1F549CFF1FA7
:1015F000E092FF1FC09BFF1F349FFF1F10B50446E2
:1016000010B91D48FFF718FA1C48FFF715FA1C4BD4
:1016100006211868FFF73CFA1A48FFF70DFA1A4836
:10162000FFF70AFA194B06211868FFF731FA154837
:10163000FFF702FA1648FFF7FFF9164B0621186864
:10164000FFF726FA0F48FFF7F7F91348FFF7F4F909
:10165000124B06211868FFF71BFA012C04D1094828
:10166000BDE81040FFF7E8B90D48FFF7E5F9BDE820
:101670001040FFF73BBA00BF367D01001F7E01001E
:10168000DC92FF1FCC8401002B7E0100BC9BFF1F5E
:101690003C7E0100E092FF1F487E0100C09BFF1FBF
:1016A000197D01002DE9F04FADB09A46379BDDF86A
:1016B000D89002933C9B389F03933D9B399E0493A3
:1016C0003E9B3A9D05933F9B3B9C0693409B079313
:1016D000419B0893429B0993439B0A93449B0B9322
:1016E000459B0C93469B0D93479B0E93489B0F93F2
:1016F000499B10934A9B11934B9B12934C9B1393C2
:101700004D9B14934E9B15934F9B1693509B179391
:10171000519B1893529B1993539B1A93549B1B9361
:10172000559B1C93569B1D93579B1E93589B1F9331
:10173000599B20935A9B21935B9B22935C9B239301
:101740005D9B24935E9B25935F9B2693609B2793D1
:10175000619B2893629B2993639B2A93649B012836
:10176000884693462B9313D1C048FFF765F9C04BC9
:10177000062118680193FFF78BF9BE48FFF75CF963
:10178000019B06215868FFF783F9BB48FFF754F91E
:10179000B8F1010F13D1B948FFF74EF9B84B062144
:1017A00018680193FFF774F9B248FFF745F9019BF8
:1017B00006215868FFF76CF9AF48FFF73DF9BBF118
:1017C000010F14D1DFF82CB3AE48FFF735F906212D
:1017D000DBF80000FFF75CF9A648FFF72DF9DBF80E
:1017E00004000621FFF754F9A348FFF725F9BAF1E1
:1017F000010F14D1DFF800A3A348FFF71DF906215C
:10180000DAF80000FFF744F99A48FFF715F9DAF81B
:1018100004000621FFF73CF99748FFF70DF9B9F1ED
:10182000010F14D1DFF8D4929848FFF705F906218B
:10183000D9F80000FFF72CF98E48FFF7FDF8D9F82A
:1018400004000621FFF724F98B48FFF7F5F8029B07
:10185000012B14D1DFF8A8828D48FFF7EDF806219F
:10186000D8F80000FFF714F98248FFF7E5F8D8F838
:1018700004000621FFF70CF97F48FFF7DDF8012F80
:1018800011D1844F8448FFF7D7F806213868FFF755
:10189000FFF87848FFF7D0F878680621FFF7F8F8E6
:1018A0007548FFF7C9F8012E11D17C4E7C48FFF72F
:1018B000C3F806213068FFF7EBF86E48FFF7BCF875
:1018C00070680621FFF7E4F86B48FFF7B5F8012DC3
:1018D00011D1744D7448FFF7AFF806212868FFF75F
:1018E000D7F86448FFF7A8F868680621FFF7D0F832
:1018F0006148FFF7A1F8012C11D16C4C6C48FFF73F
:101900009BF806212068FFF7C3F85A48FFF794F8C0
:1019100060680621FFF7BCF85748FFF78DF8039B76
:10192000012B11D1634C6448FFF786F8062120682B
:10193000FFF7AEF84F48FFF77FF860680621FFF722
:10194000A7F84D48FFF778F8049B012B11D15B4CA9
:101950005B48FFF771F806212068FFF799F84548C2
:10196000FFF76AF860680621FFF792F84248FFF730
:1019700063F8059B012B11D1524C5348FFF75CF8DB
:1019800006212068FFF784F83A48FFF755F86068A9
:101990000621FFF77DF83848FFF74EF8069B012B2C
:1019A00011D14A4C4A48FFF747F806212068FFF753
:1019B0006FF83048FFF740F860680621FFF768F8D5
:1019C0002D48FFF739F8079B012B11D1414C4248B4
:1019D000FFF732F806212068FFF75AF82548FFF78D
:1019E0002BF860680621FFF753F82348FFF724F827
:1019F000089B012B11D1394C3948FFF71DF80621FE
:101A00002068FFF745F81B48FFF716F860680621C5
:101A1000FFF73EF81848FFF70FF8099B012B11D18B
:101A2000304C3148FFF708F806212068FFF730F8FE
:101A30001048FFF701F860680621FFF729F80E4803
:101A4000FEF7FAFF0A9B012B5FD1284C2848FEF7CE
:101A5000F3FF06212068FFF71BF80648FEF7ECFFAE
:101A600060680621FFF714F84CE000BF597E0100C2
:101A7000689CFF1FCC840100A58D01006A7E0100D7
:101A8000709CFF1F7B7E01008C7E01009D7E01000B
:101A9000AE7E01004892FF1FBF7E0100A09CFF1F89
:101AA000D07E01005492FF1FE17E01004C9BFF1F7E
:101AB000F27E01007099FF1F037F01007899FF1FDC
:101AC000157F01008099FF1F277F01008899FF1F64
:101AD000397F01009099FF1F4B7F01009899FF1FEC
:101AE0005D7F0100A099FF1F6F7F0100A899FF1F74
:101AF000817F01007C9CFF1F2C9BFF1F849CFF1F8C
:101B00008C9CFF1FB848FEF797FF0B9B012B11D150
:101B1000B64CB748FEF790FF06212068FEF7B8FFE5
:101B2000B448FEF789FF60680621FEF7B1FFAE48B2
:101B3000FEF782FF0C9B012B11D1AF4CAF48FEF793
:101B40007BFF06212068FEF7A3FFAA48FEF774FF7B
:101B500060680621FEF79CFFA348FEF76DFF0D9B12
:101B6000012B11D1A64CA748FEF766FF062120687D
:101B7000FEF78EFF9F48FEF75FFF60680621FEF7C5
:101B800087FF9948FEF758FF0E9B012B11D19E4C01
:101B90009E48FEF751FF06212068FEF779FF954821
:101BA000FEF74AFF60680621FEF772FF8E48FEF7D7
:101BB00043FF0F9B012B11D1954C9648FEF73CFF3C
:101BC00006212068FEF764FF8A48FEF735FF60684B
:101BD0000621FEF75DFF8448FEF72EFF109B012BC8
:101BE00011D18D4C8D48FEF727FF06212068FEF7A6
:101BF0004FFF8048FEF720FF60680621FEF748FF90
:101C00007948FEF719FF119B012B11D1844C8548AF
:101C1000FEF712FF06212068FEF73AFF7548FEF72F
:101C20000BFF60680621FEF733FF6F48FEF704FFE5
:101C3000129B012B11D17C4C7C48FEF7FDFE062146
:101C40002068FEF725FF6B48FEF7F6FE6068062168
:101C5000FEF71EFF6448FEF7EFFE139B012B11D128
:101C6000734C7448FEF7E8FE06212068FEF710FF6B
:101C70006048FEF7E1FE60680621FEF709FF5A485A
:101C8000FEF7DAFE149B012B11D16B4C6B48FEF76B
:101C9000D3FE06212068FEF7FBFE5648FEF7CCFE79
:101CA00060680621FEF7F4FE4F48FEF7C5FE159B5F
:101CB000012B11D1624C6348FEF7BEFE062120685D
:101CC000FEF7E6FE4B48FEF7B7FE60680621FEF71A
:101CD000DFFE4548FEF7B0FE169B012B11D15A4C92
:101CE0005A48FEF7A9FE06212068FEF7D1FE4148BA
:101CF000FEF7A2FE60680621FEF7CAFE3A48FEF72C
:101D00009BFE179B012B11D1514C5248FEF794FEBC
:101D100006212068FEF7BCFE3648FEF78DFE60689F
:101D20000621FEF7B5FE3048FEF786FE189B012B14
:101D300011D1494C4948FEF77FFE06212068FEF785
:101D4000A7FE2C48FEF778FE60680621FEF7A0FE8D
:101D50002548FEF771FE199B012B11D1404C4148DB
:101D6000FEF76AFE06212068FEF792FE2148FEF784
:101D700063FE60680621FEF78BFE1B48FEF75CFEE3
:101D80001A9B012B11D1384C3848FEF755FE06211D
:101D90002068FEF77DFE1748FEF74EFE60680621BC
:101DA000FEF776FE1048FEF747FE1B9B012B11D174
:101DB0002F4C3048FEF740FE06212068FEF768FEF3
:101DC0000C48FEF739FE60680621FEF761FE064802
:101DD000FEF732FE1C9B012B5FD1274C2748FEF7F4
:101DE0002BFE06214CE000BFA58D0100B099FF1F1E
:101DF000937F0100CC840100B899FF1FA57F0100EB
:101E00000C9BFF1FB77F0100149BFF1FC97F0100C0
:101E10001C9BFF1FDB7F0100249BFF1FED7F010048
:101E2000D89BFF1FFF7F0100349BFF1F1180010023
:101E30003C9BFF1F238001004C9CFF1F358001004D
:101E4000589CFF1F47800100449BFF1F59800100E1
:101E5000A89CFF1F6B800100B09CFF1F7D800100CC
:101E6000B89CFF1F8F8001002898FF1FA1800100F0
:101E7000F49CFF1FB3800100FC9CFF1FC580010084
:101E80002068FEF705FEB348FEF7D6FD6068062120
:101E9000FEF7FEFDB048FEF7CFFD1D9B012B11D1D3
:101EA000AE4CAF48FEF7C8FD06212068FEF7F0FDF6
:101EB000A848FEF7C1FD60680621FEF7E9FDA648C7
:101EC000FEF7BAFD1E9B012B11D1A64CA648FEF7CA
:101ED000B3FD06212068FEF7DBFD9E48FEF7ACFD52
:101EE00060680621FEF7D4FD9B48FEF7A5FD1F9B09
:101EF000012B11D19D4C9E48FEF79EFD06212068C6
:101F0000FEF7C6FD9348FEF797FD60680621FEF7D1
:101F1000BFFD9148FEF790FD209B012B11D1954C00
:101F20009548FEF789FD06212068FEF7B1FD894836
:101F3000FEF782FD60680621FEF7AAFD8648FEF7DF
:101F40007BFD219B012B11D18C4C8D48FEF774FD3C
:101F500006212068FEF79CFD7E48FEF76DFD606857
:101F60000621FEF795FD7C48FEF766FD229B012BBE
:101F700011D1844C8448FEF75FFD06212068FEF7EE
:101F800087FD7448FEF758FD60680621FEF780FD66
:101F90007148FEF751FD239B012B11D17B4C7C48EE
:101FA000FEF74AFD06212068FEF772FD6948FEF73C
:101FB00043FD60680621FEF76BFD6748FEF73CFDB8
:101FC000249B012B11D1734C7348FEF735FD06217C
:101FD0002068FEF75DFD5F48FEF72EFD6068062174
:101FE000FEF756FD5C48FEF727FD259B012B11D11E
:101FF0006A4C6B48FEF720FD06212068FEF748FD7D
:102000005448FEF719FD60680621FEF741FD52486D
:10201000FEF712FD269B012B11D1624C6248FEF7A0
:102020000BFD06212068FEF733FD4A48FEF704FD4C
:1020300060680621FEF72CFD4748FEF7FDFC279B54
:10204000012B18D1594C5A48FEF7F6FC062120689E
:10205000FEF71EFD3F48FEF7EFFC06216068FEF725
:1020600017FD3C48FEF7E8FCA0680621FEF710FDCE
:102070003948FEF7E1FC289B012B18D14D4C4E4806
:10208000FEF7DAFC06212068FEF702FD3148FEF774
:10209000D3FC06216068FEF7FBFC2E48FEF7CCFC63
:1020A000A0680621FEF7F4FC2B48FEF7C5FC299B2F
:1020B000012B18D1414C4248FEF7BEFC0621206896
:1020C000FEF7E6FC2348FEF7B7FC06216068FEF742
:1020D000DFFC2048FEF7B0FCA0680621FEF7D8FC24
:1020E0001D48FEF7A9FC2A9B012B18D1354C364818
:1020F000FEF7A2FC06212068FEF7CAFC1548FEF791
:102100009BFC06216068FEF7C3FC1248FEF794FCB6
:10211000A0680621FEF7BCFC0F48FEF78DFC2B9B48
:10212000012B5CD1294C2A48FEF786FC0621206849
:10213000FEF7AEFC0748FEF77FFC06216068FEF75D
:10214000A7FC0448FEF778FCA0680621FEF7A0FC77
:1021500001483FE0CC840100A58D0100049DFF1FD4
:10216000D78001000C9DFF1FE9800100149DFF1F17
:10217000FB8001001C9DFF1F0D810100609CFF1F63
:102180001F8101007092FF1F318101007892FF1FB3
:10219000438101008092FF1F558101008892FF1F3B
:1021A000678101009092FF1F798101009892FF1FC3
:1021B0008B810100A492FF1F9D810100B092FF1F3F
:1021C000AF810100BC92FF1FC1810100D499FF1FA4
:1021D000D38101002DB0BDE8F04FFEF72DBC2DB02E
:1021E000BDE8F08F7FB51F4B1A680192019D1A68F8
:1021F00002920C46029A1E4613E007211A4809F083
:10220000E9FC322009F064F933680393039B5B1BFC
:10221000A34206DD1548FEF70FFC1548FEF70CFC3F
:1022200014E009F0FFFC0028E7D00FE001340A2C8D
:1022300009DD01E009F004FD09F0F4FC0028F9D102
:1022400000240C4D07E0322009F042F909F0EAFCC5
:102250000628EBDDF4E709F0F3FC28550134072CE0
:10226000F9D17FBDA8A3FF1F908BFF1FE58101005F
:10227000CC8401004092FF1F08B5C278007900EBC2
:1022800002200BF027FB034B19680BF07BFB0BF0D4
:1022900065FD08BD8C8BFF1F38B54FF4FA610C4803
:1022A0000C4DFFF79FFF0C48FFF7E6FF0446642044
:1022B00009F00EF9094B1868B4FBF0F00BF00AFBBB
:1022C000014628680BF056FA2860204638BD00BF4A
:1022D000908BFF1FF89AFF1F4092FF1F7C8BFF1F00
:1022E000012801D8FFF7D8BF7047FFFFFFFFFFFFAE
:1022F0002DE9F74F7C4E304605F07EFF0AF09CFE3C
:10230000044630460D4605F071FF0AF095FE62A3C3
:10231000D3E900230AF0F6FE0022744B0BF01CF800
:102320000022724B0BF018F8002206460F4620469A
:1023300029466F4B0AF0E6FE59A3D3E900230AF0C1
:102340002FFD59A3D3E9002382468B460AF026FDD0
:1023500057A3D3E9002304460D460AF0D3FE00221A
:10236000644B0AF01DFD54A3D3E90023804689463F
:10237000204629460AF0C6FE22462B460AF0C2FE37
:1023800002460B46404649460AF00AFD5A4B804633
:10239000186889460AF062FE02460B4640464946E6
:1023A0000AF0B0FE46A3D3E900230AF0D5FF0022CD
:1023B000CDE900014D4B304639460AF0CDFF42A32E
:1023C000D3E9002380468946204629460AF09AFE32
:1023D0003FA3D3E900230AF0E1FC3FA3D3E90023A4
:1023E00006460F46204629460AF08CFE22462B461A
:1023F0000AF088FE02460B46304639460AF0D0FC09
:1024000002460B46404649460AF0C8FC524604467E
:102410000D465B46504659460AF074FE52465B46EE
:102420000AF070FE52465B460AF06CFE2CA3D3E91C
:10243000002306460F46204629460AF063FE224640
:102440002B460AF05FFE02460B46204629460AF05C
:10245000A7FC1BA3D3E9002304460D46DDE90001D8
:102460000AF07AFF02460B46204629460AF074FF1E
:1024700002460B46304639460AF092FC0AF044FB0D
:102480000AF042FB06A3D3E900230AF087FC03B05D
:10249000BDE8F08FAFF300800000000000886340CB
:1024A00066666666661271406666666666A2724019
:1024B00079E9263108AC5C3FE446D3D15898F1BEA7
:1024C00000000000D0126341E43C73414320A3BEEE
:1024D0004DB1B49D00D4FE3E75466524BDE2333E49
:1024E000CDCCCCCCCCCC2A40C099FF1F00408F4033
:1024F0000000A03F0000F03F888BFF1FAFF300807B
:1025000038B5FFF7F5FE0BF0DFF804461448154D1B
:1025100005F07AFE4FF47A6008F0DAFF204612499F
:102520000BF0CEFB20B9204610490BF0E7FB40B181
:102530000F4C10482C60FEF77FFA0F48FEF77CFA2C
:102540000CE00E4B18680BF0C9F9014620460BF061
:10255000CDFA014628680BF00DF92860204638BDF9
:10256000C099FF1F009BFF1F000070C200007A444B
:102570000000C6C203820100CC8401007C8BFF1FD7
:10258000012801D8FFF7BCBF704708B501E008F08B
:102590005DFB08F0A1FB0028F9DC01E008F038FA47
:1025A00008F028FA0028F9DC08BDFFFFF8B54EF660
:1025B0006020FEF7C7FE04460D46C948FEF73CFA08
:1025C00020462946002200230BF004F8002840F0A2
:1025D0001282294620460BF077F80021FEF758FAC0
:1025E000C048FEF729FA08F031FB08F02FFBBE4B7C
:1025F000BE4820221A6080221A60FEF71DFA0020D1
:10260000FEF71AFABA48FEF717FA002640F6FE77E8
:10261000B2B20021B74806F0E7F930460BF05EF998
:102620000021FEF735FAAF48FEF706FA322008F02F
:102630004FFF30460AF000FD22462B460AF0B0FB61
:102640000AF0FAFFB8420646E2DDAB4BA74880220B
:102650001A60FEF7F1F94FF07E500021FEF718FAEC
:10266000A648FEF7E9F9002640F6FE77B2B201214E
:10267000A04806F0B9F930460BF030F90021FEF71A
:1026800007FA9848FEF7D8F9322008F021FF3046C3
:102690000AF0D2FC22462B460AF082FB0AF0CCFF5D
:1026A000B8420646E2DD944B904820221A6001228F
:1026B00043F8042C802243F8042CFEF7BDF90020D7
:1026C0000021FEF7E5F98E48FEF7B6F9002640F640
:1026D000FE77B2B20021874806F086F930460BF04B
:1026E000FDF80021FEF7D4F97E48FEF7A5F9322067
:1026F00008F0EEFE30460AF09FFC22462B460AF018
:102700004FFB0AF099FFB8420646E2DD7A4B774864
:1027100080221A60FEF790F94FF07E500021FEF7FC
:10272000B7F97848FEF788F9002640F6FE77B2B28E
:102730000121704806F058F930460BF0CFF800211F
:10274000FEF7A6F96748FEF777F9322008F0C0FED9
:1027500030460AF071FC22462B460AF021FB0AF0B3
:102760006BFFB8420646E2DD634B604801221A6007
:10277000022243F8042CFEF75FF94FF0804000215D
:10278000FEF786F96048FEF757F9002640F6FE7717
:10279000B2B20221574806F027F930460BF09EF8F6
:1027A0000021FEF775F94F48FEF746F9322008F090
:1027B0008FFE30460AF040FC22462B460AF0F0FA23
:1027C0000AF03AFFB8420646E2DD4B4B4748022288
:1027D0001A60102243F8442CFEF72EF94FF0804087
:1027E0000021FEF755F94948FEF726F9002640F684
:1027F000FE77B2B202213F4806F0F6F830460BF001
:102800006DF80021FEF744F93648FEF715F932203D
:1028100008F05EFE30460AF00FFC22462B460AF016
:10282000BFFA0AF009FFB8420646E2DD384B2F48EE
:1028300010221A60012243F8042CFEF7FDF84FF035
:1028400080400021FEF724F93248FEF7F5F8002613
:1028500040F6FE77B2B20321264806F0C5F83046AE
:102860000BF03CF80021FEF713F91E48FEF7E4F8E0
:10287000322008F02DFE30460AF0DEFB22462B46C1
:102880000AF08EFA0AF0D8FEB8420646E2DD204A87
:1028900016480123136042F8443CFEF7CDF84FF090
:1028A0007E500021FEF7F4F81B48FEF7C5F800261D
:1028B00040F6FE77B2B203210E4806F095F8304696
:1028C0000BF00CF80021FEF7E3F80648FEF7B4F829
:1028D000322008F0FDFD30460AF0AEFB1EE000BFDE
:1028E0002E820100CC840100C4F00F403C82010024
:1028F0004B820100C09CFF1FC8F00F406C8201009A
:102900008E820100AF820100D1820100E5820100C8
:1029100088F00F40F98201000B83010022462B460C
:102920000AF03EFA0AF088FEB8420646C2DD354B90
:10293000354801221A604022DA63FEF77DF84FF035
:102940007E500021FEF7A4F83048FEF775F8002607
:1029500040F6FE77B2B203212D4806F045F8304626
:102960000AF0BCFF0021FEF793F82A48FEF764F84E
:10297000322008F0ADFD30460AF05EFB22462B46C1
:102980000AF00EFA0AF058FEB8420646E2DD224B83
:102990001D4840221A60802243F8042CFEF74CF8B0
:1029A0004FF07E500021FEF773F81C48FEF744F804
:1029B000002640F6FE77B2B20321154806F014F85F
:1029C00030460AF08BFF0021FEF762F81148FEF74F
:1029D00033F8322008F07CFD30460AF02DFB224609
:1029E0002B460AF0DDF90AF027FEB8420646E2DD82
:1029F000094B80221A60FFF7C8FD0948BDE8F8407E
:102A0000FEF71AB848F00F403C8201001D83010018
:102A1000C09CFF1FCC84010088F00F402F83010071
:102A2000187D010070B58EB007F0F2FF061E20DDA4
:102A3000642008F04DFD002401AD665507F0E8FF65
:102A40000134262C0646F7D10F4E00242846316863
:102A50008DF82A4025220CF0C9FA90B10B48FDF7F9
:102A6000EBFF3068FDF7FCFF0948FDF7E5FF28465E
:102A700003E00848FDF7F4FF0748FDF7F1FF0020E9
:102A800000E001200EB070BD848BFF1F4183010068
:102A90006483010087830100BD83010030B5454890
:102AA00085B0FDF7C9FF002268464EF66021FEF7AB
:102AB0008BFB4EF66020FEF745FC04460D460D20CC
:102AC000012108F0F1FB294620460AF0B5FD430834
:102AD00003F1376303F5D833B3FBF0F007F012FED0
:102AE00001210D2008F0B4FB4FF47A7008F0F0FCDF
:102AF00031493248FEF7CAF84FF47A7008F0E8FC22
:102B00002F492E48FEF7C2F84FF47A7008F0E0FC27
:102B10002C492D48FEF7BAF840F2D2412A4809F074
:102B200067FA294809F018FA28492448FEF7AEF850
:102B300040F2D241214809F05BFA4FF47A7008F074
:102B4000C7FC23492048FEF7A1F869461E4809F052
:102B5000E2F920491948FEF799F86946174809F043
:102B6000DAF94FF47A7008F0B3FC1B491648FDF708
:102B7000ADFE154809F0F0F918491048FEF786F83F
:102B80004FF47A7008F0A4FCFFF74CFF10B1144822
:102B9000FDF766FF00210D2008F05AFB1148FDF7F4
:102BA0005FFF1148FDF75CFF684609F095FB05B033
:102BB00030BD00BFE5830100F483010060A4FF1F66
:102BC000F7830100028401003CA4FF1F118401006F
:102BD00018840100278401002F840100448401002F
:102BE0004D840100187D0100EC7C01000228F8B53D
:102BF00004460E4615461F4601D014281AD1294610
:102C00003B4805F067FC00282946394803DD05F0FC
:102C100061FC384B3DE005F05DFC002801DB002045
:102C2000F8BD002EFBDD384600210BF067F80028C8
:102C30003DD1F4E7A0F10F03012B03D90B2801D0FC
:102C40000C2817D129462C4805F044FC00282946B9
:102C5000294803DD05F03EFC284B1AE005F03AFC5C
:102C60000028DCDA002EDADD384600210BF046F8C9
:102C700050BBD4E70E2801D00A28D0D129462048DD
:102C800005F028FC002829461D4804DD05F022FC3B
:102C90001C4B186029E005F01DFC0028BFDA002E4F
:102CA000BDDD384600210BF029F8D8B9B7E7384622
:102CB0000BF02EF801462046FEF7A6FB6423704376
:102CC00090FBF3F60B4B0BE038460BF021F8014676
:102CD0002046FEF799FB6423704390FBF3F6074B05
:102CE0001E6002E0074B00221A600120F8BD00BF01
:102CF0006092FF1F6C99FF1FC892FF1F5092FF1F29
:102D0000989CFF1FD892FF1F70B5022804460D46FD
:102D10001E46049A01D0142818D1002A00DD12E0C2
:102D2000002D4BDD304600210AF0E8FF002845D099
:102D300030460AF0EDFF01462046FEF765FB6423AE
:102D4000684390FBF3F21E48002127E0A0F10F0337
:102D5000012B03D90B2801D00C2817D1002A00DD44
:102D600011E0002D2ADD304600210AF0C7FF28B30C
:102D700030460AF0CDFF01462046FEF745FB6423AE
:102D8000684390FBF3F20E48032107E00E2801D0C0
:102D90000A2813D1002A03DD0948022192B209E072
:102DA000002D0BDD304600210AF0A8FF38B10448A1
:102DB0000221002205F018FE012070BD002070BD28
:102DC000C09CFF1F10B5084C0520214608F0E8F90B
:102DD0000320214608F0E4F919204FF4F471BDE80E
:102DE000104008F0DDB900BF6CDC0200F8B5074602
:102DF0000E461C481D21154606F0F0F80021194822
:102E0000FDF748FF00214FF47A72164806F0E3F907
:102E10004023013BFDD11D210722124806F0CAF9CB
:102E2000104805F02FFE0F4805F02CFE000202D1DD
:102E30000C4805F027FE00243C600A4805F022FEFD
:102E4000000202D1074805F01DFE3460054805F078
:102E500019FE000202D1034805F014FE00232B6086
:102E6000F8BD00BF4C9FFF1F10B50D4C1D21204623
:102E700006F0B4F80D212046FDF70CFF2046002196
:102E800006F0B7F94023013BFDD11D210122204668
:102E900006F090F9204605F0F5FDC0B210BD00BF68
:102EA0004C9FFF1F08B52A200021FDF75DFE0E2074
:102EB0000021FDF759FE2A200121FDF755FEFFF7FD
:102EC000D3FF5A2814BF4FF0FF30002008BDFFFF8A
:102ED00010B50F4C0E21204606F080F80721204641
:102EE000FDF7D8FE204601214FF47A7206F073F9FF
:102EF0004023013BFDD10E210122204606F05AF964
:102F0000022008F0E5FA204605F0BCFDC0B210BD75
:102F10004C9FFF1F08B5012008F0DAFA0E21104877
:102F200006F05CF810210E48FDF7B4FE29210C488C
:102F3000FDF7B0FEA0210A48FDF7ACFE01214FF4D9
:102F40007A72074806F047F9012008F0C1FAFFF746
:102F5000BFFFC42814BF4FF0FF30002008BD00BFE2
:102F60004C9FFF1F2DE9F04180460F4634480E214B
:102F7000164606F033F801213148FDF78BFE01219A
:102F80004FF47A722E4806F026F94023013BFDD11A
:102F90002B480E21062206F00DF900233360284845
:102FA0003B60C8F8003005F063FD20B1244805F00F
:102FB00069FDC5B200E00546214805F059FD20B184
:102FC0001F4805F05FFDC4B214B92C0202D00024E2
:102FD000012300E02346C8F80030194805F048FDF9
:102FE00018B1174805F04EFDC5B2154805F040FD73
:102FF00018B1134805F046FDC4B224B92B020CBF2A
:103000000023012300E001233B600D4805F030FD63
:1030100018B10B4805F036FDC5B2094805F028FD8A
:1030200018B1074805F02EFDC4B224B92D020CBF1B
:103030000023012300E001233360BDE8F08100BFDD
:103040004C9FFF1F38B5144C05465A21204605F009
:10305000C5FF236820461B680DB1062100E007214B
:10306000984700210C4806F0C4F85A2102220A4869
:1030700006F0A9F8084805F005FD0446064805F0E5
:1030800001FD0546044806F0B8F8E4B205F07F00FB
:1030900004EB002038BD00BF4C9FFF1FFFFFFFFF68
:1030A00070B5194E852333700446052008F010FAD8
:1030B0002046FFF7C7FF09F0BFFF0DA3D3E90023A8
:1030C0000AF020F80CA3D3E9002309F067FE0B23D4
:1030D00004460D463370052008F0FAF908A3D3E939
:1030E00000232046294609F059FE0AF0EDFA70BD8A
:1030F0007B14AE47E17A943F7B14AE47E17A843F7C
:10310000666666666612714001600640AFF3008035
:103110002DE9F74F07460E46924601934C014FF4B6
:1031200080751920002108F093F814B12346013B63
:10313000FDD11920012108F08BF814B12346013B81
:10314000FDD1013DEDD11920294608F081F814B1D7
:103150002346013BFDD11920012108F079F81A20FE
:10316000002108F075F814B12346013BFDD1192068
:10317000002108F06DF814B12346013BFDD1192060
:10318000012108F065F81A20012108F061F814B156
:103190002346013BFDD14FF47A735F43F30097FB65
:1031A000F3F700253EE008F053F814B12346013B45
:1031B000FDD11920012108F04BF814B12346013B41
:1031C000FDD11920002108F043F814B12346013B3A
:1031D000FDD11920012108F03BF814B12346013B31
:1031E000FDD11920002108F033F814B12346013B2A
:1031F000FDD11920012108F02BF814B12346013B21
:10320000FDD11920002108F023F814B12346013B19
:10321000FDD11920012108F01BF814B12346013B10
:10322000FDD1013519200021BD42BCDB08F010F8AA
:1032300014B12346013BFDD11920012108F008F803
:103240001A20002108F004F814B12346013BFDD1F7
:103250001920002107F0FCFF14B12346013BFDD1EA
:103260001920012107F0F4FF1A20012107F0F0FFD7
:1032700014B12346013BFDD1434D444FDFF810B15B
:103280000023CAEB06092B604FEA49194FF48078F6
:103290001920002107F0DCFF14B12346013BFDD1CA
:1032A0001920012107F0D4FF14B12346013BFDD1C1
:1032B0001920002107F0CCFF019B83B92B68222045
:1032C000009308F081FA009B27F813002B685BF845
:1032D000232037F813108A184BF8232008E0222007
:1032E00008F072FA2B6837F81320101827F813002B
:1032F0002B68013356452B6005DDB9F1000F02D074
:103300004B46013BFDD11920012107F0A1FF14B16B
:103310002346013BFDD11920002107F099FF14B18C
:103320002346013BFDD11920012107F091FF14B183
:103330002346013BFDD11920002107F089FF14B17C
:103340002346013BFDD11920012107F081FF14B173
:103350002346013BFDD1B8F1010899D14FF48075A6
:103360001920002107F074FF14B12346013BFDD161
:103370001920012107F06CFF14B12346013BFDD158
:10338000013DEDD1BDE8FE8FD492FF1F309DFF1FA0
:103390005093FF1F38B50D480D4DFDF74DFB002430
:1033A00035F814000AF096FA0421FDF771FBFF2CA2
:1033B00002D00848FDF740FB0134B4F5807FEFD11F
:1033C0000548BDE83840FDF737BB00BF6484010005
:1033D000309DFF1FCC840100868D010070B506462C
:1033E0000D460024A119044804F0C4FE28550134F8
:1033F000042CF7D1204670BD409FFF1F70B50646D4
:103400000D460024A1192A5D0348013404F0B5FEDD
:10341000042CF7D1204670BD409FFF1F2DE9F341DA
:1034200002ADDFF8308045F8041D0646174600243B
:1034300030460AF053FA014654F808000AF036FC08
:1034400018B1E0192946FFF7D9FF0434682CEFD1F1
:10345000BDE8FC81108BFF1F2DE9F34102ADDFF8C1
:10346000308045F8041D06461746002430460AF011
:1034700035FA014654F808000AF018FC18B1E019B2
:103480002946FFF7BBFF0434682CEFD1BDE8FC816F
:10349000108BFF1F7FB540F2836007F033F942F2D3
:1034A0001070002408F09AFA03254FF4FA7008F01F
:1034B0000FF82246234621468DE830005448554EE9
:1034C00005F0E4FB544841F2883105F06FFA5348A7
:1034D000534905F0A9F95148524905F075F92146BB
:1034E0004E4805F06AF94D4805F002FA1D20012109
:1034F00007F0DAFE2146284607F0D6FE0F2001210C
:1035000007F0D2FE1020012107F0CEFE0B20012192
:1035100007F0CAFE0C20012107F0C6FE142001218D
:1035200007F0C2FE0121022007F0BEFE0E2001219D
:1035300007F0BAFE0A20012107F0B6FE052001219E
:1035400007F0B2FE384B80221A600620012107F0F6
:10355000ABFE1520012107F0A7FE1620012107F080
:10356000A3FE1120214607F09FFE304B40221A6037
:10357000022333600D20012107F096FE2220214610
:1035800007F092FE2320214607F08EFE28462849A8
:1035900007F006FE0520264907F002FE172001214C
:1035A00007F082FE042333601C20012107F07CFE1B
:1035B0001A20012107F078FE1920012107F074FE7E
:1035C00021461C2007F044FE1A20012107F040FE8E
:1035D0001920012107F03CFE1C20012107F038FED4
:1035E00004A90023134C41F8083D1020FFF7F6FE14
:1035F000029821460AF05AFB28B904A9102041F884
:10360000044DFFF7FBFEFFF785FCFFF74BFC7FBD8A
:103610004C9FFF1F84F00F40C09CFF1FC499FF1FE9
:103620000000484300002F44C4F00F40C8F00F4092
:103630006CDC02001F85EB3E70B506460D4600248B
:10364000A119044804F096FD28550134082CF7D13F
:10365000204670BD409FFF1F7FB506463048314D64
:10366000314CFDF7E9F93148FDF7E6F93048FDF74F
:10367000E3F900212868FDF70BFA2E48FDF7DCF985
:1036800002212D48FDF704FA2C48FDF7D5F9002159
:103690002068FDF7FDF92A48FDF7CEF90020FDF777
:1036A00043FB2848FDF7C8F927494FF4B460FFF7FA
:1036B000C3FF2649684608F050FE01220223224932
:1036C0006846FDF70FFF684608F006FEFDF70EFAA4
:1036D000012E21D14EF66020FDF734FE09F0F4FFF3
:1036E0001B4928600AF0E2FAB0B929460C20FFF71E
:1036F00085FE4EF66020FDF725FE09F0E5FF144932
:1037000020600AF0D3FA054630B914202146FFF7AD
:1037100075FE2846FFF7A0FF012007F0D9FE7FBD08
:1037200071840100249DFF1FC89BFF1F828401003C
:103730008C8401009C8401001F85EB3EB284010053
:10374000CB840100CC840100088BFF1FCE840100D4
:10375000000080BFF8B507460E46002441F27C65A4
:10376000E119325D0348013404F007FDAC42F7D1A2
:103770002046F8BD409FFF1F70B506460D46002449
:10378000A1192A5D0448013404F0F7FCB4F5A06FD8
:10379000F6D1204670BD00BF409FFF1F70B50646A2
:1037A0000D460024A119044804F0E4FC2855013416
:1037B000682CF7D1204670BD409FFF1F70B50646AC
:1037C0000D460024A119044804F0D4FC2855013406
:1037D0000C2CF7D1204670BD409FFF1F1FB504463B
:1037E000CD490020FFF7FAFD0420CC49FFF7F6FD94
:1037F0000820CB49FFF7F2FD0C20CA49FFF7EEFD88
:103800001420C949FFF7EAFD1820C849FFF7E6FD73
:103810001C20C749FFF7E2FD2020C649FFF7DEFD67
:103820002420C549FFF7DAFD2820C449FFF704FF2B
:103830003C20C349FFF7B2FFB420C249FFF7AEFFF7
:10384000C1494FF49670FFF7A9FFC0494FF4D270F9
:10385000FFF7A4FFBE494FF40770FFF79FFFBD4974
:103860004FF42570FFF79AFFBB494FF45C70FFF7E8
:1038700095FFBA494FF47A70FFF790FFB8494FF4BB
:103880008C60FFF78BFFB7494FF49B60FFF786FF13
:10389000B5494FF4AA60FFF7CFFEB4494FF4AB60CF
:1038A000FFF7CAFEB2494FF4AC60FFF7C5FEB1495D
:1038B0004FF4AD60FFF7C0FEAF494FF4AE60FFF7C5
:1038C000BBFEAE494FF4AF60FFF7B6FEAC494FF414
:1038D000B060FFF7B1FEAB494FF4B160FFF7ACFE4B
:1038E000A9494FF4B260FFF7A7FEA8494FF4B360AF
:1038F000FFF7A2FEA6494FF4B460FFF79DFEA5496D
:103900004FF4B560FFF798FEA3494FF4B660FFF798
:1039100093FEA2494FF4B760FFF78EFEA0494FF423
:10392000DC60FFF789FE9F494FF4B860FFF784FE23
:103930009D494FF4B960FFF77FFE9C494FF4BA6090
:10394000FFF77AFE9A494FF4BB60FFF775FE99497D
:103950004FF4BC60FFF770FE97494FF4BD60FFF76E
:103960006BFE96494FF4BE60FFF766FE94494FF434
:10397000BF60FFF761FE93494FF4C060FFF75CFE44
:1039800091494FF4C160FFF757FE90494FF4C26070
:10399000FFF752FE8E494FF4C360FFF74DFE8D498D
:1039A0004FF4C460FFF748FE8B494FF4C560FFF742
:1039B00043FE8A494FF4C660FFF73EFE88494FF444
:1039C000C760FFF739FE87494FF4C860FFF734FE40
:1039D00085494FF4C960FFF72FFE84494FF4CA6050
:1039E000FFF72AFE82494FF4CB60FFF725FE81499D
:1039F0004FF4CC60FFF720FE7F494FF4CD60FFF716
:103A00001BFE7E494FF4CE60FFF716FE7C494FF453
:103A1000CF60FFF711FE7B494FF4D060FFF70CFE3B
:103A200079494FF4D160FFF707FE78494FF4D2602F
:103A3000FFF702FE76494FF4D360FFF7FDFD7549AD
:103A40004FF4D460FFF7F8FD73494FF4D560FFF7EA
:103A5000F3FD72494FF4D660FFF7EEFD70494FF465
:103A6000D760FFF7ABFE6F4940F2C460FFF7A6FED8
:103A70006D494FF4DA60FFF7A1FE6C4940F2DC605B
:103A8000FFF79CFE4FF4DD606949FFF797FE012CBC
:103A900040F0B8846748FCF7CFFF2046FDF7AEFD45
:103AA0002046FDF761FB6449684608F056FC002299
:103AB00062496846FDF74CFD684608F00DFC604918
:103AC000684608F04AFC00221D496846FDF740FDA3
:103AD000684608F001FC5B49684608F03EFC00229D
:103AE00018496846FDF734FD684608F0F5FB56496D
:103AF000684608F032FC002213496846FDF728FDAD
:103B0000684608F0E9FB5149684608F026FC0022A7
:103B10000E4968469CE000BF888BFF1F048BFF1F87
:103B20006899FF1F249DFF1FC89BFF1FDC92FF1F8A
:103B3000BC9BFF1FE092FF1FC09BFF1F689CFF1FE5
:103B4000289AFF1F549BFF1F909AFF1FE49BFF1FA3
:103B5000E892FF1F5097FF1FC097FF1F3098FF1F6D
:103B60009898FF1F0099FF1F709CFF1F7C9CFF1FF0
:103B70002C9BFF1F849CFF1F8C9CFF1F4892FF1FE4
:103B8000A09CFF1F5492FF1F4C9BFF1F7099FF1FAB
:103B9000088BFF1F7899FF1F8099FF1F8899FF1FCF
:103BA0009099FF1F9899FF1FA099FF1FA899FF1FC9
:103BB000B099FF1FB899FF1F0C9BFF1F149BFF1F9D
:103BC0001C9BFF1F249BFF1FD89BFF1F349BFF1FC5
:103BD0003C9BFF1F4C9CFF1F589CFF1F449BFF1FDB
:103BE000A89CFF1FB09CFF1FB89CFF1F2898FF1FB9
:103BF000F49CFF1FFC9CFF1F049DFF1F0C9DFF1FDB
:103C0000149DFF1F1C9DFF1F609CFF1F7092FF1FD4
:103C10007892FF1F8092FF1F8892FF1F9092FF1FD4
:103C20009892FF1FA492FF1FB092FF1FBC92FF1F2C
:103C3000D499FF1F367D0100DD840100108BFF1F2A
:103C4000E6840100F8840100098501002385010054
:103C5000FDF77EFC684608F03FFBB649684608F071
:103C60007CFB0022B4496846FDF772FC684608F008
:103C700033FBB249684608F070FB0022B049684641
:103C8000FDF766FC684608F027FBAE49684608F079
:103C900064FB0022AC496846FDF75AFC684608F010
:103CA0001BFBAA49684608F058FB0022A849684651
:103CB000FDF74EFC684608F00FFBA649684608F081
:103CC0004CFB0022A4496846FDF742FC684608F018
:103CD00003FBA249684608F040FB0022A049684661
:103CE000FDF736FC684608F0F7FA9E49684608F08A
:103CF00034FB002202239C496846FDF7F3FB68462B
:103D000008F0EAFA9949684608F027FB00220223E6
:103D100097496846FDF7E6FB684608F0DDFA9549E5
:103D2000684608F01AFB0022022393496846FDF713
:103D3000D9FB684608F0D0FA9049684608F00DFBB8
:103D4000002202238E496846FDF7CCFB684608F046
:103D5000C3FA8C49684608F000FB002202238A4916
:103D60006846FDF7BFFB684608F0B6FA8749684623
:103D700008F0F3FA0022022385496846FDF7B2FBFA
:103D8000684608F0A9FA8349684608F0E6FA002276
:103D9000022381496846FDF7A5FB684608F09CFAB6
:103DA0007E49684608F0D9FA002202237C49684619
:103DB000FDF798FB684608F08FFA7A49684608F0E4
:103DC000CCFA0022022378496846FDF78BFB68464F
:103DD00008F082FA7549684608F0BFFA002202230B
:103DE00073496846FDF77EFB684608F075FA71492D
:103DF000684608F0B2FA00226F4902236846FDF7D0
:103E000071FB684608F068FA6C49684608F0A5FA44
:103E1000002202236A496846FDF764FB684608F001
:103E20005BFA6849684608F098FA0022022366495E
:103E30006846FDF757FB684608F04EFA6349684646
:103E400008F08BFA0022022361496846FDF74AFB1D
:103E5000684608F041FA5F49684608F07EFA002299
:103E600002235D496846FDF73DFB684608F034FAD9
:103E70005A49684608F071FA0022022358496846F8
:103E8000FDF730FB684608F027FA5649684608F007
:103E900064FA0022022354496846FDF723FB684672
:103EA00008F01AFA5149684608F057FA002202232E
:103EB0004F496846FDF716FB684608F00DFA4D4974
:103EC000684608F04AFA002202234B496846FDF78B
:103ED00009FB684608F000FA4849684608F03DFAD0
:103EE0000022022346496846FDF7FCFA684608F0BE
:103EF000F3F94449684608F030FA002202234249A7
:103F00006846FDF7EFFA684608F0E6F93F4968466B
:103F100008F023FA002202233D496846FDF7E2FA41
:103F2000684608F0D9F93B49684608F016FA0022BD
:103F3000022371E03C850100E892FF1F57850100D4
:103F40005097FF1F71850100C097FF1F84850100F6
:103F50003098FF1F978501009898FF1FAA850100E0
:103F60000099FF1F60880100689CFF1F6D88010099
:103F7000709CFF1F7A8801007C9CFF1F87880100CE
:103F80002C9BFF1F94880100849CFF1FA1880100C7
:103F90008C9CFF1FAE8801004892FF1FBB88010068
:103FA000A09CFF1FC88801005492FF1FD588010004
:103FB0004C9BFF1FE28801007099FF1FF0880100F1
:103FC0007899FF1FFE8801008099FF1F0C8901006E
:103FD0008899FF1F1A8901009099FF1F2889010005
:103FE0009899FF1F36890100A099FF1F448901009D
:103FF000A899FF1F52890100B099FF1F6089010035
:10400000B899FF1F6E8901000C9BFF1F7C8901007E
:10401000149BFF1F8A890100B7496846FDF762FAC1
:10402000684608F059F9B549684608F096F9002243
:104030000223B3496846FDF755FA684608F04CF983
:10404000B049684608F089F900220223AE49684663
:10405000FDF748FA684608F03FF9AC49684608F0B1
:104060007CF900220223AA496846FDF73BFA68461C
:1040700008F032F9A749684608F06FF900220223D8
:10408000A5496846FDF72EFA684608F025F9A349C8
:10409000684608F062F900220223A1496846FDF74C
:1040A00021FA684608F018F99E49684608F055F963
:1040B000002202239C496846FDF714FA684608F07E
:1040C0000BF99A49684608F048F9022300229849FA
:1040D0006846FDF707FA684608F0FEF89549684615
:1040E00008F03BF90022944902236846FDF7FAF9EB
:1040F000684608F0F1F89149684608F02EF9002268
:1041000002238F496846FDF7EDF9684608F0E4F8A8
:104110008C49684608F021F9002202238A49684642
:10412000FDF7E0F9684608F0D7F88849684608F0D6
:1041300014F90022022386496846FDF7D3F9684640
:1041400008F0CAF88349684608F007F900220223FC
:1041500081496846FDF7C6F9684608F0BDF87F4911
:10416000684608F0FAF8002202237D496846FDF708
:10417000B9F9684608F0B0F87A49684608F0EDF8F1
:104180000022022378496846FDF7ACF9684608F03A
:10419000A3F87649684608F0E0F800220223744943
:1041A0006846FDF79FF9684608F096F87149684639
:1041B00008F0D3F8002202236F496846FDF792F910
:1041C000684608F089F86D49684608F0C6F800228C
:1041D00002236B496846FDF785F9684608F07CF8CC
:1041E0006849684608F0B9F8002202236649684623
:1041F000FDF778F9684608F06FF86449684608F0FA
:10420000ACF80022022362496846FDF76BF9684664
:1042100008F062F85F49684608F09FF80022022320
:104220005D496846FDF75EF9684608F055F85B4958
:10423000684608F092F80022594902236846FDF7C3
:1042400051F9684608F048F85649684608F085F87C
:104250000022022354496846FDF744F9684608F0F5
:104260003BF85249684608F078F80022022350498A
:104270006846FDF737F9684608F02EF84D4968465C
:1042800008F06BF8002203234B496846FDF72AF932
:10429000684608F021F84949684608F05EF80022AF
:1042A000032347496846FDF71DF9684608F014F8EE
:1042B0004449684608F051F8002203234249684601
:1042C000FDF710F9684608F007F84049684608F01D
:1042D00044F8002203233E496846FDF703F9684687
:1042E00007F0FAFF3B49684608F037F8002203233D
:1042F0003949684672E000BF1C9BFF1F9889010086
:10430000249BFF1FA6890100D89BFF1FB4890100D1
:10431000349BFF1FC28901003C9BFF1FD089010015
:104320004C9CFF1FDE890100589CFF1FEC89010097
:10433000449BFF1FFA890100A89CFF1F088A010007
:10434000B09CFF1F168A0100B89CFF1F248A010041
:104350002898FF1F328A0100F49CFF1F408A010049
:10436000FC9CFF1F4E8A0100049DFF1F5C8A010018
:104370000C9DFF1F6A8A0100149DFF1F788A0100AF
:104380001C9DFF1F868A0100609CFF1F948A01000C
:104390007092FF1FA28A01007892FF1FB08A01006D
:1043A0008092FF1FBE8A01008892FF1FCC8A010005
:1043B0009092FF1FDA8A01009892FF1FE88A01009D
:1043C000A492FF1FF68A0100B092FF1F048B010028
:1043D000BC92FF1F128B0100D499FF1FFDF782F8DA
:1043E000684607F079FF0849684607F0B6FF684657
:1043F000064922460223FDF775F8684607F06CFF70
:10440000FCF774FB1FBD00BFBD850100088BFF1FBB
:1044100038B501204EF66024FFF7E0F92046FCF79E
:1044200091FF09F051F90B4D286029460420FEF751
:10443000E5FF2046FCF786FF09F046F9064C2060B0
:1044400021460820FEF7DAFF0120BDE83840FFF7DB
:10445000C5B900BF048BFF1F6899FF1F38B5012045
:104460004EF66024FFF7BAF92046FCF76BFF09F01F
:104470002BF9164D286029461820FEF7BFFF20466D
:10448000FCF760FF09F020F9114D286029461C2037
:10449000FEF7B4FF2046FCF755FF09F015F90D4D66
:1044A000286029462020FEF7A9FF2046FCF74AFF96
:1044B00009F00AF9084C206021462420FEF79EFFEF
:1044C0000120BDE83840FFF789B900BFDC92FF1F2B
:1044D000BC9BFF1FE092FF1FC09BFF1F012B2DE91C
:1044E000F34705460F46904605D00024DFF8949028
:1044F000DFF894A03CE01846FFF770F900240CE0C8
:104500004EF66020FCF71EFF09F0DEF801A90190CD
:104510002846FEF773FF01344544BC42F0DB2AE035
:104520004EF66020FCF70EFF09F0CEF8002106469B
:1045300009F0E4FB38B13046114909F0C1FB10B174
:10454000CDF804A008E03046002109F0B9FB08B915
:10455000019601E0CDF8049002AE062156F8040D54
:10456000FCF796FA28463146FEF748FF01344544E9
:10457000BC42D5DB02E00120FFF730F9BDE8FC8743
:1045800000409C4520BCBE4C0060EA472DE9F0414C
:1045900005460120FFF722F905F178064EF6602066
:1045A000FCF7D0FE09F048F8431C044623D04EF631
:1045B0006020FCF7C7FE09F087F81149804609F032
:1045C00075FBC0B94EF66020FCF7BCFE09F07CF824
:1045D0000B49074609F06AFB68B9204641462A465E
:1045E000FEF73AFF204639463246FEF717FF012014
:1045F00006F06EFFD2E70120BDE8F041FFF7EEB80C
:10460000000080BF10B5ADF5DC5D0446002141F22D
:104610007C620DF204500AF045F801A800214FF425
:10462000A0620AF03FF80CB9204600E03C200DF2F1
:104630000451FFF78FF801A94FF4B560FFF79CF81C
:104640000548FCF7F9F9FCF751FA0120FFF7C6F825
:104650000DF5DC5D10BD00BFC8850100B64B04221E
:104660002DE9F04700211A60064640F6FF72B34874
:10467000B34C04F0B9F98025012140F6FF72AF4830
:1046800004F0B2F9022140F6FF722560AB4804F055
:10469000ABF9032140F6FF72A84804F0A5F9A94B35
:1046A0001D60FDF772FF622E2CD10020FFF796F8F7
:1046B00027464EF66020FCF745FE0022A24B04463A
:1046C0000D4608F087FFB8B9FDF75FFF2946204681
:1046D00008F0DAFF002182B2984804F085F900233F
:1046E00020462946002208F075FF202310B9954A7C
:1046F0001360DEE73B60DCE7FDF747FF904B2022CD
:104700001A604EE0632E4CD10020FFF767F84EF69A
:104710006020FCF717FE08F08FFF05468B48DFF896
:104720005082FCF789F900210A46844804F05CF9BC
:1047300082480321002204F057F900245FFA85F92A
:1047400024E058F8393083F800A10BE01FFA87FA0B
:1047500000215246794804F047F97848032152462F
:1047600004F042F904212046FCF792F97848FCF75E
:1047700063F9384609F0B2F80221FCF789F9744868
:10478000FCF75AF94FF47A7006F0A2FE06F0A4FA8C
:10479000022800F3FD8006F02DF9022840F3028183
:1047A000F6E00024FDF7F1FE642E01D1FDF7FEFED8
:1047B000FDF7EBFE652E0DD16648FCF73DF906F0DE
:1047C0008BFA022800F3688106F014F9022840F3FE
:1047D000068161E1662E0DD15F48FCF72DF906F0E8
:1047E0007BFA022800F3588106F004F9022840F30E
:1047F000098151E1672E0DD15848FCF71DF906F0EB
:104800006BFA022800F3488106F0F4F8022840F31E
:10481000098141E1682E0DD15148FCF70DF906F0F0
:104820005BFA022800F3388106F0E4F8022840F32E
:10483000078131E1692E0DD14A48FCF7FDF806F0F9
:104840004BFA022800F3288106F0D4F8022840F33E
:10485000058121E16A2E0DD14348FCF7EDF806F001
:104860003BFA022800F3188106F0C4F8022840F34E
:10487000068111E1731E202B3BD83C48DFF8F08005
:10488000FCF7DAF84EF66020FCF75CFD08F0D4FE89
:10489000411C074624D0BDB2FDF777FE00212A4611
:1048A000264804F0A1F801212A46244804F09CF887
:1048B00002212A46214804F097F82A461F4803217E
:1048C00004F092F858F83620012382F8803058F826
:1048D000362017B182F88030D4E782F80031D1E772
:1048E000FDF753FE224B53F83630012283F80021A6
:1048F00042E0A6F12203032B3ED8114F114D4EF694
:104900006020FCF71FFD08F097FE421C32D01023F8
:1049100040013B6001D00138FDD1F0B206F054FFF8
:1049200010232B6008F0DAFF0221FCF7B1F80848E9
:10493000FCF782F8E3E700BF88F00F40C09CFF1F40
:10494000C8F00F40C4F00F400000F0BFDC8501004C
:10495000CC840100EC850100018601001086010075
:104960002186010038860100518601006E86010013
:10497000F88E0100FDF709FE494B042220461A601B
:104980000221FCF785F84748BDE8F047FCF754B82A
:10499000FDF7FBFDEDB2444B53F83530012283F8AF
:1049A0000021FFE658F839304FF0010A83F880A063
:1049B0000020FCF73BFB08F091FFFCF717FD0446D5
:1049C00009F0A6F901462846FCF71EFD002107461E
:1049D000204609F06BF900287FF4B3AEB6E601205B
:1049E000FCF724FB08F07AFFFCF700FD02210446E7
:1049F000FCF74EF82D48FCF71FF84FF4FA6006F06C
:104A000067FDDCE6FDF748FC08F064FF0221044680
:104A1000FCF73EF82548FCF70FF84FF4FA6006F073
:104A200057FDDCE6FCF716F902210446FCF730F8E6
:104A30001E48FCF701F84FF4FA6006F049FDDEE687
:104A4000FCF7ECF802210446FCF722F81748FBF7C4
:104A5000F3FF4FF4FA6006F03BFDE0E60020FCF7C0
:104A6000E5FA08F03BFF02210446FCF711F80F4875
:104A7000FBF7E2FF4FF4FA6006F02AFDDFE6FDF7F0
:104A80003FFD02210446FCF703F80848FBF7D4FF7A
:104A9000C82006F01DFDE2E6FDF777FDEAE600BF5F
:104AA00084F00F4071860100F88E0100CC84010073
:104AB0002DE9F04FADF5235D8BB030AF32200025EE
:104AC000C7F8A8D006F004FDB24BC7F884511B68A4
:104AD0000120C7F8A031D7F8A03109F0E7F907F5B0
:104AE000D476C7F8200146F8045C042046F804593F
:104AF00009F0DCF9A84BC7F840011B68073323F025
:104B00000703ADEB030DA54B1B68C7F8D0301B01A5
:104B1000083330ACADEB030D30AAC7F8582103E0E1
:104B2000002107F01AFC0135D7F8D010D7F858311A
:104B30008D4203EB0510F3D1974BDFF860821A68C2
:104B40002046002109F0AEFD002507E0D7F85821E6
:104B5000934902EB051007F038FC0135D8F8003016
:104B60009D42F3DB0020FEF739FE8E4B10251D60C1
:104B70000A2006F0ADFC8C4B8C491D6007F51A70BD
:104B800007F0EBFB07F5CA75F3E107F51A7007F0BC
:104B9000B2FCC72843F32A8203F081B80A2006F04A
:104BA00097FCE6E18248FBF747FF8248FBF758FF96
:104BB000DFE1FCF779F8DCE1FDF770FFD9E1FCF704
:104BC00089F8D6E10120FCF7AFF8D2E10120FEF729
:104BD00005FECEE1FFF71CFCCBE100200AE0FFF769
:104BE0003DFCC6E13C2001E04FF49670FFF7CEFC9F
:104BF000BFE10120FEF730FDBBE14FF40770F5E7A0
:104C00004FF45C70F2E74FF48C60EFE7002000E0B7
:104C10000120FFF7F7FCACE1282001E04FF4AA6087
:104C2000022104220123FFF759FCA2E14FF4AB60FB
:104C3000F6E74FF4AC60F3E74FF4AD60F0E74FF404
:104C4000AE60EDE74FF4AF60EAE7FCF771F990E191
:104C500005F0ECF9FCF788F98BE14FF4B060DFE781
:104C60004FF4B160DCE74FF4B260D9E74FF4B360C2
:104C7000D6E70422002301214FF4B460FFF72EFC95
:104C80004D48FBF7D9FE4D494FF4B460FEF7D4FC14
:104C900007F526704A4907F060FB07F5267047497B
:104CA00001220223FCF71EFC07F5267007F014FB17
:104CB000FBF71CFF5DE14FF4B560B1E74FF4B66060
:104CC000AEE74FF4B760ABE74FF4DC60A8E707F559
:104CD000C87249464046FEF789F8D8F8000008F047
:104CE000FDFD0621FBF7D4FE3648FBF7A5FED9F8FB
:104CF000000008F0F3FD0621FBF7CAFE3148FBF780
:104D00009BFED7F8900108F0E9FD0621FBF7C0FEF5
:104D10002C48FBF791FE642006F0DAFB05E007F56E
:104D2000D47107F5C478A1F11C0905F0B7FF31284B
:104D3000CDD105F08BFF1CE107F5CE724146284628
:104D4000FEF710F9C82006F0C3FB286808F0C6FD7E
:104D50000621FBF79DFE1B48FBF76EFED8F800000E
:104D600008F0BCFD0621FBF793FE1648FBF764FE36
:104D7000D7F89C0108F0B2FD0621FBF789FE114827
:104D8000FBF75AFE01E007F5CC7805F059FE312813
:104D9000D2D1CEE7A8A3FF1F008BFF1F788BFF1F88
:104DA000EC7C0100C8F00F40C4F00F4042840100C9
:104DB0008284010074860100367D0100088BFF1F8C
:104DC000BD850100CC8401004046494607F5C87204
:104DD000FEF70CF807F5D47EAEF10C0207F5CC71A6
:104DE0002846FEF7BFF8C82006F072FBD8F800008E
:104DF00008F074FD0621FBF74BFEB548FBF71CFEDF
:104E0000D9F8000008F06AFD0621FBF741FEB04822
:104E1000FBF712FED7F8900108F060FD0621FBF7C2
:104E200037FEAB48FBF708FE286808F057FD06215F
:104E3000FBF72EFEA648FBF7FFFDD7F8980108F018
:104E40004DFD0621FBF724FEA148FBF7F5FDD7F841
:104E50009C0108F043FD0621FBF71AFE9C48FBF776
:104E6000EBFD05E007F5D47E07F5C478AEF11C092B
:104E700005F014FF3128A7D15BE74FF4B860CFE607
:104E80004FF4B960CCE64FF4BA60C9E64FF4BB60AA
:104E9000C6E64FF4BC60C3E64FF4BD60C0E64FF415
:104EA000BE60BDE64FF4BF60BAE64FF4C060B7E63F
:104EB0004FF4C160B4E64FF4C260B1E64FF4C36092
:104EC000AEE64FF4C460ABE64FF4C560A8E64FF41D
:104ED000C760A5E64FF4C860A2E64FF4C9609FE63C
:104EE0004FF4CA609CE64FF4CB6099E64FF4CC6077
:104EF00096E64FF4CD6093E64FF4CE6090E64FF423
:104F0000CF608DE64FF4D0608AE64FF4D16087E63B
:104F10004FF4D26084E64FF4D36081E64FF4D4605E
:104F20007EE64FF4D5607BE64FF4D66078E64FF42A
:104F3000D7600AE040F2C46007E04FF4DA6004E0B2
:104F400040F2DC6001E04FF4DD60032169E60020FF
:104F5000FEF7A6F80321FBF79BFD0AE0232164205E
:104F60000A460023FEF7D4F8FEF714FA01E0FBF737
:104F700041FB05F093FE5B2803F05A8005F060FDCD
:104F80005B2843F03D8003F053B805F059FD5B28E2
:104F90000CBF0225002500E0012505F057FE05F0B5
:104FA00037FD012D08D0022D58D04A48FBF758FD97
:104FB0000022C7F85C21ACE047484FF4FA6107F0E3
:104FC0003DF8464B44481B68212122464FF000081B
:104FD00007F036F841F28735C7F85C8114F80830DD
:104FE0007B2B1DD105E0504607F028FA08F1010897
:104FF00007E0D7F85C31D7F858E14FEA03190EEB18
:10500000090A14F808107D29EDD1D7F8582102EBD0
:10501000090007F013FAD7F85C310133C7F85C31A7
:1050200008F10108A845D9DD002412E0D7F858E1BD
:1050300030210EEB041507F5267007F0E1F907F5AE
:105040002671284607F01DFA07F5267007F044F987
:105050000134D7F85C118C42E8DB5AE020484FF469
:105060007A7106F0EBFF1D4B1D481B68212122467B
:105070004FF0000806F0E4FF41F28735C7F85C8185
:1050800014F808307B2B1DD105E0504607F0D6F907
:1050900008F1010807E0D7F85C21D7F858314FEA4A
:1050A000021903EB090A14F808107D29EDD1D7F88D
:1050B00058E10EEB090007F0C1F9D7F85C11013196
:1050C000C7F85C1108F10108A845D9DD00241CE0EF
:1050D000CC8401007B8601003CA4FF1F008BFF1FD6
:1050E00060A4FF1FD7F85821302102EB041507F503
:1050F000267007F085F907F52671284607F0C1F9F3
:1051000007F5267007F0E8F80134D7F85C319C42C7
:10511000E8DB6B48FBF790FC6A4B00211868FBF753
:10512000B7FC6948FBF788FC02216848FBF7B0FC34
:105130006748FBF781FC4FF0000EC7F850E1C7F855
:1051400024E1C7F860E10D22C7F8D4E0C7F8D8E041
:1051500007F515714FF0010EC7F8B420C7F8ECE061
:10516000C7F8CC105B48FBF767FC002202F038BDA3
:10517000D7F8200108F0A2FED7F83C31D7F858E163
:105180001D010EEB05039C68601C08F08FFED7F82C
:105190005821C7F820015159224609F07DFFD7F860
:1051A000203100251D5507F5177007F52A7403F007
:1051B000EBFAD7F8201122464FF4167307F5177053
:1051C00003F0C5F9D7F82011A8420CBF22462A46A1
:1051D000D7F8CC0003F0F0F8D7F8CCE09EE8030055
:1051E00086E80300002802F02A87002942F0E784BD
:1051F00002F025BF2301D7F858110134C858FBF736
:105200001BFCAC42F6D1FDF7C0F907F51A7007F0A8
:1052100063F8002502F02BBD2F49304603F01DF93D
:10522000014607F51E7007F098F82C49304603F048
:105230000AF930462A4903F006F92A4B08B11860EA
:1052400001E001221A602849284D304603F0FBF89E
:105250002749C7F8A400304603F0F5F82549C7F8F8
:10526000A000304603F0EFF82349C7F8EC003046C1
:1052700003F0E9F82149C7F8D800304603F0E3F815
:105280001F49C7F8D400304603F0DDF8002808BFF6
:105290000120C7F8E8001B49304603F0D4F81A494A
:1052A000C7F89C00304603F0CEF81849C7F89800BC
:1052B000304603F0C8F858BB0D232B602DE000BF2B
:1052C000A1860100249DFF1FB08601001F85EB3ED3
:1052D000C6860100587D0100D3860100DF860100EB
:1052E000E68601007C8BFF1FEF860100808BFF1F8D
:1052F000FE860100108701001D8701003087010034
:105300004687010050870100608701007387010014
:105310003046B24903F097F82860B149B14D3046A4
:1053200003F091F8002808BF0A20C7F88400AE49AE
:10533000304603F088F8002808BF1020C7F8800026
:10534000AA49304603F07FF8002808BF0320C7F8B9
:10535000B000A749304603F076F8002808BF0320C4
:10536000C7F8AC00A349304603F06DF8A249F867CE
:10537000304603F068F8A149C7F81801304603F039
:1053800062F89F498346304603F05DF89D49C7F8AF
:10539000F400304603F057F89B49B867304603F0F5
:1053A00052F807F5D672C7F86401C7F874211046A1
:1053B0003146964A07F5DA7A03F037F85046314617
:1053C000934A03F032F807F5DE7E70463146914A83
:1053D000C7F870E103F029F807F5E2710846C7F84D
:1053E0006C118D4A314603F020F807F5E67210463D
:1053F000C7F868213146894A03F017F888493046D2
:1054000003F021F88749C7F85401304603F01BF830
:105410008549C7F84C01304603F015F88349C7F8B1
:105420004801304603F00FF88149C7F8440130467F
:1054300003F009F87F49C7F83401304603F003F858
:105440007D49C7F83001304602F0FDFF7B49C7F8BF
:105450002C01304602F0F7FF7949C7F828013046A1
:1054600002F0F1FF7749C7F81401304602F0EBFF74
:105470007549C7F81001304602F0E5FF7349C7F8D7
:105480000C01304602F0DFFF7149C7F808013046D1
:1054900002F0D9FF6F49C7F80401304602F0D3FF8C
:1054A0006D49C7F80001304602F0CDFF6B49C7F8DF
:1054B000FC00304602F0C7FF6949C7F8F8003046E3
:1054C00002F0C1FF6749C7F8F000304602F0BBFFA9
:1054D0006549C7F8E000304602F0B5FF6349C7F8F8
:1054E000DC00304602F0AFFF6149C7F8C800304623
:1054F00002F0A9FF5F49C7F8C400304602F0A3FFDD
:105500005D49C7F8C000304602F09DFF5B49C7F80F
:10551000BC00304602F097FF5949C7F8B800304642
:1055200002F091FF57497867304602F08CFF5649E8
:105530003867304602F087FF5449F866304602F07B
:1055400082FF5349B866304602F07DFF51497866C4
:10555000304602F078FF50493866304602F073FF5B
:105560004E49F865304602F06EFF4D49B865304649
:1055700002F069FF4B497865304602F064FF4A4902
:105580003865304602F05FFF4849F864304602F063
:105590005AFF4749B864304602F055FF45497864E0
:1055A000304602F050FF44493864304602F04BFF69
:1055B0004249F863304602F046FF4149B86330463D
:1055C00002F041FF3F497863304602F03CFF3E491C
:1055D0003863304602F037FF78E000BF7387010080
:1055E000888701006092FF1F928701009D8701005C
:1055F000AE870100BD870100DC870100E78701005D
:10560000F1870100FF8701000A8801001588010069
:105610002588010031880100408801004E88010082
:105620005C88010069880100768801008388010098
:10563000908801009D880100AA880100B7880100B8
:10564000C4880100D1880100DE880100EC880100D7
:10565000FA880100088901001689010024890100E7
:1056600032890100408901004E8901005C890100F6
:105670006A89010078890100868901009489010006
:10568000A2890100B0890100BE890100CC89010016
:10569000DA890100E8890100F6890100048A010025
:1056A000128A0100208A01002E8A01003C8A010032
:1056B0004A8A0100588A0100668A0100748A010042
:1056C000828A0100908A01009E8A01007549F86271
:1056D000304602F0B8FE7449B862304602F0B3FEBC
:1056E00072497862304602F0AEFE71493862304647
:1056F00002F0A9FE6F49F861304602F0A4FE6E493F
:10570000B861304602F09FFE6C497861304602F085
:105710009AFE6B493861304602F095FE3146F860DA
:10572000684A07F5EA7002F080FE07F5EE70314630
:10573000654A02F07AFE07F5F2703146634A02F0DC
:1057400074FE07F5F6703146614A07F5BC7802F041
:105750006CFE07F5FA7031465E4A02F066FE40467E
:1057600031465D4A02F061FE98E803005B4A85E835
:1057700003004046314602F058FE98E80300584DB9
:10578000584A85E803004046314602F04EFE98E84C
:105790000300554D554A85E8030007F5FE70314674
:1057A00002F043FE07F501703146514A02F03DFE1A
:1057B00007F5037031464F4A02F037FE07F50570D2
:1057C00031464D4A02F031FE07F5077031464B4A2B
:1057D00002F02BFE07F509703146494A02F025FE1A
:1057E00007F50B703146474A02F01FFE07F50D70B2
:1057F0003146454A02F019FE002507F50F70314683
:10580000424A02F012FEC7F8E450C7F8385188E067
:10581000294607F5EA7002F05DFE07F50171804642
:105820002A46204602F048FE2046FBF739FAD7F810
:10583000E4E04FF0000900FB08EEC7F8E4E0C846DA
:105840000FE0204607F501712A4602F035FE494671
:10585000204602F03FFE0028C8BF08F1010809F108
:105860000109204607F501712A4602F025FE20466F
:10587000FBF716FA8145E4DB294607F5077002F0CD
:1058800029FE0128294607F5EA7041D102F022FEDF
:10589000D7F8381108FB00F001EB0021C7F83811E8
:1058A0003EE000BFAC8A0100BA8A0100C88A01004C
:1058B000D68A0100E48A0100F28A0100008B01000F
:1058C0000E8B01001C8B0100238B01002F8B01002C
:1058D0003B8B0100478B0100538B0100638B010060
:1058E000C892FF1F748B0100989CFF1F848B0100DE
:1058F0008E8B01009A8B0100A88B0100B08B0100F8
:10590000B58B0100C08B0100CA8B0100D28B010056
:1059100002F0E0FDD7F8382108FB0022C7F8382153
:10592000013507F5EA70FBF7BBF98542FFF670AF6A
:10593000D7F8400108F0C2FA0421D7F8380108F07E
:105940003FFAC7F84001B148FBF776F8B048FBF7DB
:1059500073F8D7F87802FBF76FF8AE48FBF76CF8EE
:10596000D7F86431012B02D11846FBF747FED7F870
:1059700034310093D7F830310193D7F82C310293AA
:10598000D7F828310393D7F814310493D7F810319E
:105990000593D7F80C310693D7F808310793D7F859
:1059A00004310893D7F800310993D7F8FC300A93F3
:1059B000D7F8F8300B93D7F8F0300C93D7F8E030E5
:1059C0000D93D7F8DC300E93D7F8C8300F93D7F883
:1059D000C4301093D7F8C0301193D7F8BC3012936D
:1059E000D7F8B83013937B6F14933B6F1593FB6E0E
:1059F0001693BB6E17937B6E18933B6E1993FB6DDA
:105A00001A93BB6D1B937B6D1C933B6D1D93FB6CBD
:105A10001E93BB6C1F937B6C20933B6C2193FB6BA1
:105A20002293BB6B23937B6B24933B6B2593FB6A85
:105A30002693BB6A27937B6A28933B6A2993FB6969
:105A40002A93BB692B937B692C933B692D93FB684D
:105A50002E9307F52675D7F84821D7F84431D7F8A3
:105A60005401D7F84C11FBF71DFE6B49284606F090
:105A700074FCD7F874E19EE80300002213468DE819
:105A80000300029565496648FBF7C4F9284606F00D
:105A900023FC6449284606F060FCD7F8702192E8A0
:105AA0000300002213468DE8030002955E495F481B
:105AB000FBF7B0F9284606F00FFC5D49284606F0D2
:105AC0004CFCD7F86C3193E80300002213468DE8B4
:105AD0000300029557495848FBF79CF9284606F001
