:1000000000800020BD0100005193000051930000CA
:100010005193000051930000519300001D93000084
:100020001D9300001D9300001D93000051930000DC
:10003000519300001D930000519300000D930000A8
:100040005193000051930000519300005193000020
:100050005193000051930000519300005193000010
:100060005193000051930000519300005193000000
:1000700051930000519300005193000051930000F0
:1000800051930000519300005193000051930000E0
:1000900051930000DD7C000051930000519300005B
:1000A000FD6D00005193000051930000519300003A
:1000B00051930000519300005193000051930000B0
:1000C00051930000519300005193000051930000A0
:1000D0005193000051930000519300005193000090
:1000E0005193000051930000519300005193000080
:1000F000519300004D89000051930000E9AB0000CE
:1001000051930000B584000051930000519300000A
:10011000519300005193000051930000519300004F
:10012000519300005193000051930000519300003F
:10013000519300005193000051930000519300002F
:10014000519300005193000051930000519300001F
:1001500011A3000029A3000041A3000059A300003F
:1001600051930000C98B000051930000519300008F
:1001700051930000519300005193000051930000EF
:1001800051930000519300005193000051930000DF
:1001900051930000519300005193000035950000E9
:1001A000859500000D960000C99600004D9700004F
:1001B000519300005193000051930000544B4CF2B6
:1001C000205210B51A804DF628121A8000BF00BFC9
:1001D00007F0C8FD4F4B4FF010621A604E4A9A600C
:1001E0004E4ADA604E4B1A6812F4807204D14D49BF
:1001F0000A604FF4A8521A604B4B1A7802F00802BA
:10020000D2B21AB11A7842F008021A70474B484825
:10021000484C2A221A700023474A02E01959995083
:10022000043399188142F9D3444B454A002101E037
:1002300043F8041B9342FBD34249434800231A5816
:100240005A500433B3F5DE7FF9D1404B404A802148
:1002500003F8011B9342FBD13A4A3E4B1A603E4BD6
:100260000A221A703D4B24221A70A02203F8012C96
:100270003B4A137803F00203DBB2002BF9D0384A73
:10028000137803F01003DBB2002BF9D1344A137852
:1002900003F00C03082BFAD1324B03221A704022D0
:1002A0005A702F4A137803F02003DBB2002BF9D0E9
:1002B0002B4A137803F04003DBB2002BF9D02A4B12
:1002C0002A4A1A6002225A60294B20221A70244AB4
:1002D000137803F00C030C2BFAD1264A264B1A6034
:1002E000264B274A1A60072243F8042C62B609F00D
:1002F00003FC0C4B1B68DC0702D5224809F03EFAD0
:100300000BF086FE09F027F809F052FEFEE700BF69
:100310000E20054030800440823F04000100002B85
:1003200010D0034014D0034002D0074000E0074043
:100330005490FF1F240901006089FF1F5490FF1F84
:10034000DC9CFF1F0084FF1F0000000000E400E0B1
:100350005FE400E008ED00E0005006400140064088
:10036000064006400440064044800440000003016B
:1003700000400640C01005000480044014E000E086
:10038000FF760100B534BE54FFFFFFFFFFFFFFFF04
:10039000FFFFFFFFFFFFFFFFFFFFFFFFFFFFFFFF6D
:1003A000FFFFFFFFFFFFFFFFFFFFFFFFFFFFFFFF5D
:1003B000FFFFFFFFFFFFFFFFFFFFFFFFFFFFFFFF4D
:1003C000FFFFFFFFFFFFFFFFFFFFFFFFFFFFFFFF3D
:1003D000FFFFFFFFFFFFFFFFFFFFFFFFFFFFFFFF2D
:1003E000FFFFFFFFFFFFFFFFFFFFFFFFFFFFFFFF1D
:1003F000FFFFFFFFFFFFFFFFFFFFFFFFFFFFFFFF0D
:10040000FFFFFFFFFFFFFFFFFFFFFFFFFEFFFFFFFD
:1004100008B549F25400074BC1F6FF701B1A062BB2
:1004200000D808BD40F20003C0F20003002BF8D052
:100430009847F6E75790FF1F08B549F2540049F274
:100440005403C1F6FF70C1F6FF731B1A9B1003EB38
:10045000D373591000D108BD40F20002C0F200026F
:10046000002AF8D09047F6E710B549F25404C1F6D7
:10047000FF74237873B9FFF7CBFF40F20003C0F29B
:1004800000032BB140F62410C0F20100AFF300804E
:100490000123237010BD00BF08B540F20003C0F275
:1004A00000034BB140F6241049F25801C0F201009C
:1004B000C1F6FF71AFF3008049F25400C1F6FF703E
:1004C00003682BB140F20003C0F2000303B1984768
:1004D000BDE80840B0E700BF024B4FF400121A60BD
:1004E000704700BF80E100E010B5044609F0CEFF80
:1004F000204610BD70B503460D46164607481946FE
:100500002A4606F0F7FE002404E0044806F05AFBF1
:1005100030550134E3B2AB42F7D370BDE495FF1F11
:10052000034670B509480D4619461646002406F0E4
:10053000E3FD03E0315D06F003FB0134E3B2AB42BF
:100540000248F7D3BDE8704006F0EBBEE495FF1F0C
:10055000064B10221A60064B1A78064B53F83220CD
:10056000012382F88030044A13607047C8F00F40BE
:10057000CC95FF1FB0030100F490FF1F054B1A78C4
:10058000054B53F83220012382F80031034A1360EF
:10059000704700BFCC95FF1FB0030100A094FF1F60
:1005A00038B50A480A4D05F053FF0A4B044618684F
:1005B0000BF072FA014620460BF076FB01462868E4
:1005C0000BF0B6F92860204638BD00BFD893FF1F56
:1005D0003C92FF1F7889FF1F38B50A480A4D05F085
:1005E000D3FE0A4B044618680BF056FA0146204623
:1005F0000BF05AFB014628680BF09AF92860204658
:1006000038BD00BFD893FF1FD095FF1F7889FF1F0B
:1006100030B5ADF5B05D81B0684600214FF4B05201
:100620000CF01EF900246D4621462A5D0548013470
:1006300005F03DFEB4F5B05FF6D10DF5017D0DF589
:10064000A05D30BDD895FF1F38B5044608460D465D
:1006500007F086FF236802465B68204629469847D4
:1006600038BD08B5FFF7F0FF08BD0AF067B89DF880
:10067000001000910AF06CB838B5044609F0F6FF96
:10068000054620460AF014F8401938BD38B504462E
:10069000FFF7DAFF054620460AF00AF8281838BDA9
:1006A00038B504460AF04AF8054620460AF000F834
:1006B000281838BD37B59DF81810009104460AF087
:1006C00047F80546204609F0F3FF28183EBD40686C
:1006D00000B1C0687047FFFF0D4B70B540241C602F
:1006E000322009F0F3F90B4B0B4D0C4E1C600C4CF7
:1006F00031462846FFF7CAFF31462046FFF7C6FFBE
:10070000284609F0D5FF2046BDE8704009F0D0BF6B
:10071000C4F00F40C8F00F40009BFF1F1CF9000001
:10072000C49AFF1F10B517491748184CFFF799FFD7
:1007300017481449FFF795FF236863B91549124814
:10074000FFF7A4FF12481349FFF7A0FF124B022244
:100750001A6001230DE0012B0CD110490A48FFF764
:1007600095FF0B480D49FFF791FF0D4B02221A60D0
:1007700000232360044809F09BFF0548BDE81040B2
:1007800009F096BF2FF90000009BFF1FC495FF1FC3
:10079000C49AFF1F28F9000084F00F4044F90000BC
:1007A00088F00F402DE9F74F002140F6FF724D48C9
:1007B00006F0BAF94C4A0423202413602246013A79
:1007C000FDD14A4A4A4F1360112009F0A7FA494B5C
:1007D000494E1C6005460A2009F078F9112009F0FD
:1007E0009DFA83466E2009F071F9112009F096FAFE
:1007F000424BDFF818911C60414C82462146384636
:10080000FFF72FFF21463046FFF72BFF28460BF05E
:1008100043F93C490BF048FA0AF0FEFC4FF002089D
:1008200004460D460B462246CDF800803846FFF7B9
:100830001EFF22462B46CDF800803046FFF717FFFB
:1008400049463846FFF70DFF49463046FFF709FF96
:1008500058460BF021F92B490BF026FA0AF0DCFC84
:1008600004460D460B462246CDF800803846FFF779
:10087000FEFE22462B46CDF800803046FFF7F7FEFD
:1008800049463846FFF7EDFE49463046FFF7E9FE98
:1008900050460BF001F91B490BF006FA0AF0BCFCBC
:1008A00004460B462246CDF8008038460D46FFF739
:1008B000DEFE2246144CCDF800802B463046FFF772
:1008C000D6FE21463846FFF7E1FE21463046FFF7C7
:1008D000DDFE384609F0ECFE304603B0BDE8F04FCF
:1008E00009F0E6BEA892FF1F88F00F4084F00F4089
:1008F000009BFF1FC4F00F40C49AFF1FC8F00F40B9
:100900004AF90000006013455BF90000880001000F
:100910002DE9F34707460E460AA8002114469846DB
:100920000C9D05F01CFE002840F3EA8075497648CE
:10093000FFF797FE2946744809F098FE73497248FC
:10094000FFF78FFE6F497248FFF78BFE294670480C
:1009500009F08CFE6D496E48FFF783FE20460021AA
:100960000BF082FA002840F0BA8020460AF054FCCE
:10097000022704460D460B46224600976248FFF7C1
:1009800076FE0097624822462B46FFF770FE3068DD
:1009900000210BF069FA002840F0AA805D495A480E
:1009A000FFF75FFE40460AF037FC044622460B463E
:1009B000009755480D46FFF75AFE56495448FFF731
:1009C00050FE009722462B465148FFF750FE8FE01D
:1009D00051494D48FFF745FE21460AA805F0BFFDE5
:1009E0000146494809F0AAFE4A494748FFF739FE3F
:1009F00049494748FFF735FE21460AA805F0AFFDF3
:100A00000146434809F09AFE41484249FFF729FE52
:100A100000254FE021460AA858F825A005F09FFDC3
:100A20000BF03AF8014650464FEA85090BF01CFAE4
:100A300000283ED057F809000AF0EEFB02250246D6
:100A40000B4600953048FFF712FE57F809000AF0F0
:100A5000E3FB009502460B462D48FFF708FE306881
:100A600000210BF001FAD8B92A492748FFF7F9FD10
:100A700056F809000AF0D0FB009502460B462248C2
:100A8000FFF7F5FD23492248FFF7EBFD56F8090073
:100A90000AF0C2FB009502460B461D48FFF7E7FD32
:100AA0001E491948FFF7DDFD1C491948FFF7D9FD1C
:100AB00002E001351A2DADD1012009F007F80AA88E
:100AC000FFF705FE0138844207D012490E48FFF7B0
:100AD000C8FD0F480F49FFF7C4FD013402E0DFF8FD
:100AE000448000240AA8FFF7F2FD8442FFF670AFAD
:100AF0000B490548FFF7B5FD05480949FFF7B1FD6A
:100B0000BDE8FC87CBFB0000009BFF1F56F90000EF
:100B1000C49AFF1F8800010059F90000CE010100AE
:100B2000ED0101008889FF1F10B52820002108F081
:100B3000B9FE28210A2200230A4809F0C7FD094806
:100B400009F0B6FD6424282009F0E8F801460548BC
:100B5000FFF7A6FD4FF4FA6008F0B8FF013CF2D1B0
:100B600010BD00BF009BFF1F012801D8FFF718BD73
:100B70007047012801D8FFF72FBD704701282DE9E4
:100B8000F8438CBF002401240CB903283DD1204830
:100B900005F098FF05461E4805F08DFF80461C486D
:100BA00005F082FF07461A4805F077FF81464CB3EF
:100BB000184B194E1C68B5FBF4F00AF069FF0146AA
:100BC00030680AF0B5FE3060B8FBF4F00AF060FF60
:100BD000124E014630680AF0ABFE3060B7FBF4F00D
:100BE0000AF056FF0E4E014630680AF0A1FE306052
:100BF000B9FBF4F00AF04CFF0A4E014630680AF0E7
:100C000097FE30602846BDE8F883BDE8F88300BF52
:100C1000DC93FF1F7889FF1FAC94FF1FB894FF1F60
:100C20001094FF1F2094FF1F2DE9F74F2A4DDFF886
:100C3000B4B0DFF8B4A0294EDFF8B090DFF8B08090
:100C4000274C59462846FFF70CFDDAF800000AF059
:100C5000E3FA022702460B4600972846FFF707FDF6
:100C600031462846FFF7FDFC49462846FFF7F9FCC8
:100C7000D8F800000AF0D0FA009702460B46284642
:100C8000FFF7F5FC59462046FFF7EBFCDAF80000C9
:100C90000AF0C2FA009702460B462046FFF7E7FC2F
:100CA00031462046FFF7DDFC49462046FFF7D9FCD8
:100CB000D8F800000AF0B0FA009702460B4620462A
:100CC000FFF7D5FC31462846FFF7CBFC20463146DE
:100CD000FFF7C7FCBDE8FE8F009BFF1F88000100E7
:100CE000C49AFF1F5EF90000F489FF1F6DF9000030
:100CF000C895FF1F2DE9F0410D46ADF57E7D0446F8
:100D00002948DFF8B080164609F0FCFB2946274841
:100D100009F0F8FB4FF47A72002104A80BF0A0FD53
:100D20002046002109F08DF9214B1A680192019D9E
:100D30001A680292029A1F460AE03B680393039ADC
:100D4000D8F80030521B9A4202DDFFF7C5FC05E0DF
:100D500007F078F910B907F0A1FDE8B107F072F9D2
:100D6000002805DD07F050F95B2818D00E4808E090
:100D700007F094FD002812DD07F0B6FD5B280ED0C9
:100D80000A482B2104AA4FF47A7309F0BDFB2046D0
:100D900004A909F08EF902E0012ED9D1CDE7204651
:100DA0000DF57E7DBDE8F081009BFF1FC49AFF1FFB
:100DB000B89AFF1F8089FF1FF0B5044691B0224802
:100DC000214609F09FFB2148214609F09BFB202288
:100DD000002108A80BF044FD04A8002109F031F916
:100DE0001B4B1A680192019E1A680292029A1F46D2
:100DF00007F028F910B907F051FDC0B107F04EFD1A
:100E0000002801DD114804E007F01CF9002815DD79
:100E10000D4808AA20232B2109F076FB08A904A875
:100E200009F047F904980BF0A1F8054606E03B6885
:100E30000393039B9B1BA342DADDDFE704A809F0C1
:100E4000BFF8284611B0F0BD009BFF1FC49AFF1FDA
:100E5000B89AFF1F2DE9F041064690B0244831466C
:100E600009F050FB2348314609F04CFB20220021B9
:100E700008A80BF0F5FC04A8002109F0E2F81E4BCD
:100E80001A680192019F1A680292029A984607F026
:100E9000D9F810B907F002FDC8B107F0D3F800285F
:100EA00001DD134804E007F0F9FC002817DD1148C4
:100EB00008AA20232B2109F027FB08A904A809F080
:100EC000F8F804980BF04EF804460D4607E0D8F801
:100ED00000300393039BDB1BB342D8DDDDE704A89E
:100EE00009F06EF82046294610B0BDE8F08100BF39
:100EF000009BFF1FC49AFF1FB89AFF1F08B5064B3F
:100F000019680AF013FD054B19680AF0CDFE0AF0C6
:100F1000DDFF0AF0C1FD08BDC895FF1FF489FF1F62
:100F20002DE9F041314D06468846002430460AF04E
:100F3000B3FD014655F824000AF096FF002830D092
:100F40002B4B53F824602B4B53F824702A4B53F847
:100F500024502A4B304653F824100AF0E7FC31465F
:100F60000AF0A2FE014628460AF0EAFD014628469C
:100F70000AF0DEFC224B53F82460224B054653F85E
:100F8000241038460AF0D2FC39460AF08DFE01469C
:100F900030460AF0D5FD014630460AF0C9FC044649
:100FA00004E001341A2CC1D100242546204600213A
:100FB00001270AF059FF00B10027FFB247B92846C0
:100FC000002101260AF050FF00B13E46F0B250B1B8
:100FD00040460AF061FD21460AF0A8FC29460AF0C5
:100FE00063FE0AF099FFBDE8F08100BF8889FF1F0A
:100FF0002894FF1F7490FF1FDC92FF1F4092FF1F79
:101000004493FF1FC494FF1F73B50D460446334934
:1010100033481646FFF725FB2146314809F026FBE9
:1010200030492F48FFF71DFB2C492F48FFF719FBCC
:1010300021462D4809F01AFB2A492B48FFF711FBDE
:1010400028680AF0E9F8022402460B460094244876
:10105000FFF70DFB28680AF0DFF8009402460B4604
:101060002148FFF704FB21491D48FFF7FAFA1F4901
:101070001D48FFF7F6FA68680AF0CEF800940246B9
:101080000B461748FFF7F3FA68680AF0C5F80094B2
:1010900002460B461448FFF7EAFA15491048FFF7D5
:1010A000E0FA11481249FFF7DCFA012E0C4805D08E
:1010B0000E49FFF7EBFA0C480C490CE00D49FFF71D
:1010C000E5FA0D490648FFF7E1FA0A490648FFF735
:1010D000DDFA05480849FFF7D9FA7CBDCBFB0000D3
:1010E000009BFF1FC0010100C49AFF1F8800010080
:1010F000CE0101002DF9000023FA0000F7B50446E7
:101100000D462E482E491746FFF7ABFA21462B48CD
:1011100009F0ACFA2B492948FFF7A3FA28492A48D5
:10112000FFF79FFA2146284809F0A0FA26482549EA
:10113000FFF797FA0024022628680AF06DF8009657
:1011400002460B461D48FFF792FA55F8040B0AF0C9
:1011500063F8009602460B461B48FFF788FA192CE5
:1011600007D01A491548FFF77CFA17481749FFF7C7
:1011700078FA01341A2CDFD115491048FFF771FABB
:1011800011481349FFF76DFA012F0C4805D00F499C
:10119000FFF77CFA0C480D490CE00E49FFF776FA90
:1011A0000D490648FFF772FA0A490748FFF76EFA39
:1011B00005480949FFF76AFAFEBD00BF009BFF1F03
:1011C000CBFB0000C0010100C49AFF1F8800010092
:1011D000CE0101002DF9000023FA000010B50AF03D
:1011E0005BFC0B4B196804460AF0AAFC094B196812
:1011F0000AF09EFB084B1860084B204619680AF05D
:101200009FFC074B19680AF093FB064B186010BD52
:10121000F893FF1FF890FF1FA494FF1FFC93FF1F7C
:101220005495FF1FA894FF1F2DE9F743054638B9D1
:1012300053495448FFF715FA53485149FFF711FA3B
:10124000DFF8689151494F48DFF86481504F514EA3
:10125000FFF707FAD9F8000009F0DEFF0224024682
:101260000B4600944748FFF702FA4B494548FFF701
:10127000F8F94A494348FFF7F4F9D8F8000009F0B3
:10128000CBFF009402460B463E48FFF7F0F9424977
:101290003C48FFF7E6F942493A48FFF7E2F9386877
:1012A00009F0BAFF009402460B463648FFF7DFF913
:1012B00039493448FFF7D5F93A493248FFF7D1F9AF
:1012C000306809F0A9FF009402460B462D48FFF74D
:1012D000CEF92E492C48FFF7C4F9D9F8000009F0DF
:1012E0009BFF009402460B462748FFF7C0F92A49A6
:1012F0002548FFF7B6F929492348FFF7B2F9D8F88E
:10130000000009F089FF009402460B461E48FFF7D3
:10131000AEF921491C48FFF7A4F921491A48FFF703
:10132000A0F9386809F078FF009402460B46164889
:10133000FFF79DF918491448FFF793F91949124826
:10134000FFF78FF9306809F067FF009402460B46FB
:101350000D48FFF78CF9012D0A4807D10E49FFF718
:1013600080F90D490848FFF77CF906E00E49FFF7C0
:101370008DF905480C49FFF789F9BDE8FE8300BFE8
:1013800082F90000009BFF1FC49AFF1F84F9000030
:10139000FC93FF1F5495FF1F8800010090F9000087
:1013A000A1F90000ADF900002DF90000F893FF1F2E
:1013B000F890FF1F7FB5244B1A680192019D1A68AF
:1013C00002920C46029A1E461DE007211F4807F0B4
:1013D00003F8322008F07AFB33680393039B5B1B0E
:1013E000A34210DD1A491B48FFF73BF918491A4878
:1013F000FFF737F919491748FFF733F91749164826
:10140000FFF72FF914E007F00FF80028DDD00FE008
:1014100001340A2C09DD01E007F014F807F004F8A4
:101420000028F9D100240E4D07E0322008F04EFBD1
:1014300006F0FAFF0628EBDDF4E707F003F828557D
:101440000134072CF9D17FBDB89AFF1F6889FF1FAF
:10145000BEF90000009BFF1FC49AFF1F8800010017
:101460003495FF1F08B5C278007900EB02200AF01E
:101470000FFB034B19680AF063FB0AF04DFD08BD32
:101480007089FF1F38B54FF4FA610C480C4DFFF717
:1014900091FF0C48FFF7E6FF0446642008F016FBB6
:1014A000094B1868B4FBF0F00AF0F2FA014628681C
:1014B0000AF03EFA2860204638BD00BF6889FF1F49
:1014C000C093FF1F3495FF1F7889FF1F012801D8A3
:1014D000FFF7D8BF7047FFFF2DE9F74F7C4E30462E
:1014E00004F02AFF09F086FE044630460D4604F05B
:1014F0001DFF09F07FFE62A3D3E9002309F0E0FE9F
:101500000022744B0AF006F80022724B0AF002F82F
:10151000002206460F46204629466F4B09F0D0FEB2
:1015200059A3D3E9002309F019FD59A3D3E90023F6
:1015300082468B4609F010FD57A3D3E900230446E9
:101540000D4609F0BDFE0022644B09F007FD54A3CF
:10155000D3E90023804689462046294609F0B0FE9B
:1015600022462B4609F0ACFE02460B464046494651
:1015700009F0F4FC5A4B80461868894609F04CFE85
:1015800002460B464046494609F09AFE46A3D3E977
:10159000002309F0BFFF0022CDE900014D4B30468A
:1015A000394609F0B7FF42A3D3E9002380468946B4
:1015B0002046294609F084FE3FA3D3E9002309F021
:1015C000CBFC3FA3D3E9002306460F46204629461D
:1015D00009F076FE22462B4609F072FE02460B46C3
:1015E0003046394609F0BAFC02460B4640464946A9
:1015F00009F0B2FC524604460D465B465046594639
:1016000009F05EFE52465B4609F05AFE52465B46C2
:1016100009F056FE2CA3D3E9002306460F462046C8
:10162000294609F04DFE22462B4609F049FE0246A6
:101630000B462046294609F091FC1BA3D3E9002361
:1016400004460D46DDE9000109F064FF02460B4641
:101650002046294609F05EFF02460B4630463946D1
:1016600009F07CFC09F02EFB09F02CFB06A3D3E962
:10167000002309F071FC03B0BDE8F08FAFF30080E8
:10168000000000000088634066666666661271406E
:101690006666666666A2724079E9263108AC5C3FF0
:1016A000E446D3D15898F1BE00000000D012634147
:1016B000E43C73414320A3BE4DB1B49D00D4FE3E33
:1016C00075466524BDE2333ECDCCCCCCCCCC2A4093
:1016D000B494FF1F00408F400000A03F0000F03F87
:1016E0007489FF1FAFF3008070B5FFF7F5FE0AF0B5
:1016F000C9F804461E4804F027FE4FF47A6008F04B
:10170000E5F920461B4901260AF0D6FB00B9002660
:10171000F6B24EB92046184901250AF0AFFB00B9D0
:10172000354615F0FF0F13D0144B154C15491648CC
:101730001C60FEF796FF13491448FEF792FF144908
:101740001148FEF78EFF12491048FEF78AFF0DE0A0
:10175000104B0A4D18680AF09FF9014620460AF01E
:10176000A3FA014628680AF0E3F82860204670BD15
:10177000B494FF1F00007A44000070C21C94FF1F45
:101780000000C6C2DCF90000009BFF1FC49AFF1FC7
:10179000880001007889FF1F012801D8FFF7A4BF46
:1017A000704708B501E006F007FC06F04BFC002886
:1017B000F9DC01E007F080F807F070F80028F9DCA8
:1017C00008BDFFFFF7B54EF66020FFF743FB044668
:1017D0000D46B648B649FEF744FFB549B548FEF791
:1017E00040FF204629460022002309F0D1FF0028AF
:1017F00040F03D820226009622462B46AB48FEF77B
:1018000036FF22462B460096AA48FEF730FFAA492B
:10181000A648FEF726FFA849A648FEF722FF06F0D5
:10182000CBFB06F0C9FBA54BA04820221A60802202
:101830001A6008F03DFFA2499C48FEF712FF002104
:101840009A48FEF72DFF99489E49FEF71FFF002694
:1018500040F6FE77B2B200219B4805F065F93146AB
:101860009248FEF702FF94499048FEF7FAFE3220B4
:1018700008F02CF9304609F0BDFC22462B4609F051
:101880006DFB09F0B7FFB8420646E3DD8F4B874892
:1018900080221A6008F00CFF89498448FEF7E1FEB7
:1018A00001218248FEF7FCFE80488949FEF7EEFEE2
:1018B000002640F6FE77B2B20121834805F034F9E4
:1018C00031467A48FEF7D1FE7B497848FEF7C9FEDB
:1018D000322008F0FBF8304609F08CFC22462B46FB
:1018E00009F03CFB09F086FFB8420646E3DD774B82
:1018F0006E4820221A60012243F8042C802243F80B
:10190000042C08F0D5FE6E496848FEF7AAFE0021B7
:101910006648FEF7C5FE65486E49FEF7B7FE00262D
:1019200040F6FE77B2B20021674805F0FDF8314677
:101930005E48FEF79AFE60495C48FEF792FE322050
:1019400008F0C4F8304609F055FC22462B4609F051
:1019500005FB09F04FFFB8420646E3DD5B4B5348F9
:1019600080221A6008F0A4FE55495048FEF779FE1F
:1019700001214E48FEF794FE4C485749FEF786FE7B
:10198000002640F6FE77B2B201214F4805F0CCF8B0
:1019900031464648FEF769FE47494448FEF761FE76
:1019A000322008F093F8304609F024FC22462B46FA
:1019B00009F0D4FA09F01EFFB8420646E3DD434BB6
:1019C0003A48012202261A6043F8046C08F070FEBF
:1019D0003B493648FEF745FE31463448FEF760FE87
:1019E00032483E49FEF752FE002640F6FE77B2B27C
:1019F0000221354805F098F831462C48FEF735FEAF
:101A00002D492A48FEF72DFE322008F05FF83046B7
:101A100009F0F0FB22462B4609F0A0FA09F0EAFE95
:101A2000B8420646E3DD294B2048102202261E60FC
:101A300043F8442C08F03CFE21491C48FEF711FEF7
:101A400031461A48FEF72CFE18482549FEF71EFEBF
:101A5000002640F6FE77B2B202211B4805F064F87A
:101A600031461248FEF701FE13491048FEF7F9FD12
:101A7000322008F02BF8304609F0BCFB22462B46FA
:101A800009F06CFA09F0B6FEB8420646E3DD154BE4
:101A90000648102201261A6043F8046C08F008FE7C
:101AA00007490248FEF7DDFD31461DE0009BFF1FA0
:101AB00007FA0000C49AFF1F88000100C4F00F401D
:101AC00015FA000024FA0000A892FF1FC8F00F408A
:101AD00045FA000067FA000088FA0000AAFA000040
:101AE000BEFA000088F00F406A48FEF7D9FD694849
:101AF0006949FEF7CBFD002640F6FE77B2B203211E
:101B0000664805F011F831466248FEF7AEFD6449BB
:101B10006048FEF7A6FD322007F0D8FF304609F0F6
:101B200069FB22462B4609F019FA09F063FEB84218
:101B30000646E3DD5B4B574801261E6043F8446CC4
:101B400008F0B6FD58495348FEF78BFD3146514821
:101B5000FEF7A6FD4F485549FEF798FD002640F6D2
:101B6000FE77B2B203214D4804F0DEFF314649480A
:101B7000FEF77BFD4A494748FEF773FD322007F028
:101B8000A5FF304609F036FB22462B4609F0E6F960
:101B900009F030FEB8420646E3DD454B3D484022A1
:101BA00001261E60DA6308F083FD3F493948FEF7DD
:101BB00058FD31463748FEF773FD36483D49FEF77C
:101BC00065FD002640F6FE77B2B20321334804F0EB
:101BD000ABFF31462F48FEF748FD31492D48FEF74F
:101BE00040FD322007F072FF304609F003FB224629
:101BF0002B4609F0B3F909F0FDFDB8420646E3DDD6
:101C0000284B244840221A60802243F8042C08F014
:101C10004FFD25491F48FEF724FD01211D48FEF711
:101C20003FFD1C482449FEF731FD002640F6FE77B3
:101C3000B2B20321194804F077FF31461548FEF788
:101C400014FD17491348FEF70CFD322007F03EFF44
:101C5000304609F0CFFA22462B4609F07FF909F009
:101C6000C9FDB8420646E3DD0E4B80221A60FFF73D
:101C700098FD12490748FEF709FD11490548FEF78E
:101C800005FD0E490F48FEF701FD0D490D48FEF711
:101C9000FDFCFEBD009BFF1FD2FA0000A892FF1FB3
:101CA0008800010088F00F4015FA0000E4FA0000F7
:101CB00048F00F40F6FA000008FB00002CF9000085
:101CC00023FA0000C49AFF1F70B58EB006F0F4FD31
:101CD000061E24DD642007F0F9FE002401AD6655E0
:101CE00006F0EAFD0134262C0646F7D1124E0024F8
:101CF000284631688DF82A4025220BF06BF9C0B1D7
:101D00000E490F48FEF7ADFC31680D48FEF7BEFCEA
:101D10000C490B48FEF7A5FC0948294605E00A498D
:101D20000748FEF7B3FC06480849FEF7AFFC002061
:101D300000E001200EB070BD8489FF1F1AFB000077
:101D4000009BFF1F3DFB000060FB000096FB0000B6
:101D500030B54949494885B0FEF783FC46494848B3
:101D6000FEF77FFC002268464EF66021FEF7C2FFB8
:101D70004EF66020FFF76EF804460D460D20012157
:101D800007F090FD2946204609F034FD430803F191
:101D9000376303F5D833B3FBF0F006F007FC0121FD
:101DA0000D2007F053FD4FF47A7007F08FFE354990
:101DB0003348FEF756FC4FF47A7007F087FE32493D
:101DC0002F48FEF74EFC4FF47A7007F07FFE2F4944
:101DD0002A48FEF746FC40F2D2412848FEF760FC54
:101DE0002B492748FEF73DFC40F2D2412448FEF73C
:101DF0003CFC4FF47A7007F069FE26491F48FEF755
:101E000030FC69461D48FEF737FC23491C48FEF7A5
:101E100028FC69461A4808F029FC4FF47A7007F04C
:101E200055FE1E491548FEF731FC1D491448FEF7C2
:101E300018FC4FF47A7007F049FEFFF745FF18B120
:101E40000E481849FEF722FC0D20002107F0FEFC89
:101E500015490A48FEF71AFC13490948FEF716FC13
:101E6000064808F025FC064808F022FC684608F001
:101E7000A7F805B030BD00BFBEFB0000009BFF1FF0
:101E8000C49AFF1FCDFB0000D0FB0000DBFB00006D
:101E9000EAFB0000F1FB000000FC000008FC000071
:101EA0001DFC000026FC00002CF900002DE9F0418B
:101EB0001428884614461F46069E01D002281CD1CD
:101EC0002146324804F04BFB002821462F4803DD11
:101ED00004F045FB2E4B40E004F041FB002802DB00
:101EE0000020BDE8F081B8F1000FF9DD384600218F
:101EF00009F0E2FF00283FD1F2E7A0F10B03012B2C
:101F000003D9A0F10F03012B18D82146214804F072
:101F100026FB002821461F4803DD04F020FB1E4B52
:101F20001BE004F01CFB0028DADAB8F1000FD7DD63
:101F30003846002109F0C0FF00BBD1E720F00405BE
:101F40000A2DCDD11146154804F009FB0028214681
:101F5000124804DD04F003FB114B186012E004F09A
:101F6000FEFA0028BCDAB8F1000FB9DD38460021CE
:101F700009F0A2FF20B9B3E7054B02E0064B00E0F1
:101F8000074B1E600120BDE8F08100BFFC90FF1FE1
:101F90001894FF1F0494FF1FEC93FF1FF093FF1F83
:101FA0000094FF1F70B50446142C1846049D059A32
:101FB00001D0022C0ED1002A02DD204800212AE0A7
:101FC000002937DD002109F077FF002835D01B48B4
:101FD00000212AE0A4F10B03012B06D9A4F10F067E
:101FE000012E8CBF002601266EB1002A02DD1348A7
:101FF000032110E000291DDD002109F05DFFE0B1A3
:102000000E48032111E024F004040A2C12D1002A06
:1020100003DD0A48022192B208E000290CDD00210C
:1020200009F04AFF48B105480221AAB204F07CFD3C
:10203000012070BD002070BD304670BDA892FF1F0A
:1020400010B5084C0520214607F0A8FB03202146C7
:1020500007F0A4FB19204FF4F471BDE8104007F01D
:102060009DBB00BF6CDC020070B506460D46002427
:10207000A119044804F018F928550134042CF7D1AB
:10208000204670BDD895FF1F70B506460D4600244A
:10209000A1192A5D0348013404F009F9042CF7D191
:1020A000204670BDD895FF1F2DE9F341624E63496C
:1020B000634D07466348FEF7D4FA306809F0ACF880
:1020C000022402460B4600945E48FEF7D0FA5E49B1
:1020D0005C48FEF7DBFA4FF003085C495948FEF70D
:1020E000C0FA53A3D3E90023CDF800805548FEF78A
:1020F000BEFA55495348FEF7C9FA55495148FEF70B
:10210000B0FA286809F088F8009402460B464D485A
:10211000FEF7ADFA4F494B48FEF7B8FA494808F0C8
:10212000C7FA46494C48FEF79CFA306809F074F843
:10213000009402460B464848FEF799FA4249464841
:10214000FEF7A4FA41494448FEF78BFA38A3D3E9D5
:102150000023CDF800804048FEF789FA3A493E480E
:10216000FEF794FA3A493C48FEF77BFA286809F0F2
:1021700053F8009402460B463748FEF778FA354983
:102180003548FEF783FA344808F092FA012F44D11B
:102190004EF66020FEF75EFE09F074FB306009F039
:1021A0003BF8009402460B462648FEF783FA306857
:1021B00009F032F8009402460B462748FEF77AFAF7
:1021C0003068264909F050FE38BB31460C20FFF735
:1021D0005BFF4EF66020FEF73DFE09F053FB2860E2
:1021E00009F01AF8009402460B461648FEF762FA08
:1021F000286809F011F8009402460B461648FEF7CD
:1022000059FA2868154909F02FFE30B914202946DB
:10221000FFF73AFF0020FFF747FF012007F056FCC9
:1022200002B0BDE8F041FFF7BCBA00BFAFF30080D9
:102230000AD7A3703D0AD73FDC90FF1F3DFC00008A
:102240007090FF1F009BFF1F880001004BFC0000E7
:102250005FFC00002DF90000C49AFF1F000080BF42
:102260002DE9F34102ADDFF8308045F8041D064644
:1022700017460024304609F00FFC014654F80800C8
:1022800009F0F2FD18B1E0192946FFF7FDFE04340C
:10229000682CEFD1BDE8FC818889FF1F2DE9F3414F
:1022A00002ADDFF8308045F8041D064617460024CD
:1022B000304609F0F1FB014654F8080009F0D4FD5E
:1022C00018B1E0192946FFF7DFFE0434682CEFD17E
:1022D000BDE8FC818889FF1F30B540F2836085B07E
:1022E00006F064F942F2107005F07AFF4FF4FA70CC
:1022F000002407F0EBFB07232246214600940193BC
:102300004548464D234604F061FD454841F2883179
:1023100004F0ECFB4348444904F026FB41484349A0
:1023200004F0F2FA21463F4804F0E7FA3D4804F091
:102330007FFB1D20012107F0B5FA0320214607F09D
:10234000B1FA0F20012107F0ADFA1020012107F0AA
:10235000A9FA0B20012107F0A5FA0C20012107F0B2
:10236000A1FA1420012107F09DFA0220012107F0B3
:1023700099FA0E20012107F095FA0A20012107F0B1
:1023800091FA0520012107F08DFA294B80221A606D
:102390000620012107F086FA1520012107F082FAB4
:1023A0001620012107F07EFA1120214607F07AFA63
:1023B000204B40221A6002232B600D20012107F0E0
:1023C00071FA2220214607F06DFA2320214607F0FA
:1023D00069FA03201849194C07F0E0F9052016495D
:1023E00007F0DCF91720012107F05CFA04A90423A7
:1023F0002B60002341F8083D1020FFF735FE0298BE
:10240000214609F031FD28B904A9102041F8044DF6
:10241000FFF73AFE05B030BDE495FF1F84F00F4092
:10242000A892FF1FDC93FF1F0000484300002F44C9
:10243000C4F00F40C8F00F406CDC0200EC51B83E15
:10244000F8B507460E46002441F21055E119325DF9
:102450000348013403F02BFFAC42F7D12046F8BD0E
:10246000D895FF1F00B5ADF5A85D85B010B9FEF792
:10247000CFF809E00021684641F210520AF0F0F965
:102480003C206946FFF7DCFF45B00DF5A05D00BDBF
:1024900070B506460D460024A119044803F004FF58
:1024A00028550134082CF7D1204670BDD895FF1F60
:1024B00070B506460D460024A119044803F0F4FE49
:1024C00028550134682CF7D1204670BDD895FF1FE0
:1024D0001FB50446B5490020FFF7C6FD0420B449E6
:1024E000FFF7C2FD0820B349FFF7BEFD0C20B2493B
:1024F000FFF7BAFD1420B149FFF7B6FD1820B04927
:10250000FFF7B2FD1C20AF49FFF7AEFD2020AE491A
:10251000FFF7AAFD2420AD49FFF7A6FD2820AC490E
:10252000FFF7B6FF3C20AB49FFF7C2FFB420AA4932
:10253000FFF7BEFFA9494FF49670FFF7B9FFA8490E
:102540004FF4D270FFF7B4FFA6494FF40770FFF7BE
:10255000AFFFA5494FF42570FFF7AAFFA3494FF439
:102560005C70FFF7A5FFA2494FF47A70FFF7A0FF58
:10257000A0494FF48C60FFF79BFF9F494FF49B608D
:10258000FFF796FF9D494FF4AA60FFF781FF9C4932
:102590004FF4AB60FFF77CFF9A494FF4AC60FFF754
:1025A00077FF99494FF4AD60FFF772FF97494FF4F9
:1025B000AE60FFF76DFF4FF4AF609549FFF768FF1E
:1025C000012C40F0538193499348FEF74AF8914912
:1025D0009248FEF746F82046FEF726FE8E4808F0A1
:1025E00067F88E4808F064F82046FEF71DFB8A481D
:1025F00008F05EF8894808F05BF88949684607F0FA
:1026000020FD002287496846FEF778FD684607F0FE
:10261000D7FC8549684607F014FD00226D496846DD
:10262000FEF76CFD684607F0CBFC8049684607F072
:1026300008FD002268496846FEF760FD684607F01D
:10264000BFFC7B49684607F0FCFC002263496846F2
:10265000FEF754FD684607F0B3FC7649684607F07C
:10266000F0FC00225E496846FEF748FD684607F028
:10267000A7FC7149684607F0E4FC00225949684606
:10268000FEF73CFD684607F09BFC6C49684607F086
:10269000D8FC002254496846FEF730FD684607F032
:1026A0008FFC6749684607F0CCFC00224F4968461A
:1026B000FEF724FD684607F083FC6249684607F090
:1026C000C0FC00224A496846FEF718FD684607F03C
:1026D00077FC5D49684607F0B4FC0022454968462E
:1026E000FEF70CFD684607F06BFC5849684607F09A
:1026F000A8FC002240496846FEF700FD684607F046
:102700005FFC5349684607F09CFC0022304968464C
:10271000FEF77AFC684607F053FC4E49684607F01E
:1027200090FC002235496846FEF76EFC684607F0CB
:1027300047FC4949684607F084FC00223049684656
:10274000FEF762FC684607F03BFC4449684607F028
:1027500078FC00222B496846FEF756FC684607F0D5
:102760002FFC3F49684607F06CFC0022264968466A
:10277000FEF74AFC684607F023FC3A49684607F032
:1027800060FC002221496846FEF73EFC684607F0DF
:1027900017FC3549684607F054FC68461C49224638
:1027A000FEF732FC684607F00BFC5FE07489FF1F00
:1027B000F489FF1FC895FF1FDC90FF1F7090FF1F5B
:1027C000F893FF1FF890FF1FFC93FF1F5495FF1F06
:1027D000BC94FF1F4092FF1FC494FF1F2894FF1F4B
:1027E0007490FF1F5C95FF1FD491FF1F0491FF1F82
:1027F0006C91FF1FDC92FF1F4493FF1F9094FF1FFB
:102800002C95FF1F9894FF1F3C95FF1F4495FF1FB9
:102810004C95FF1F82F90000009BFF1FC49AFF1F09
:1028200073FC00008889FF1F7CFC00008EFC000008
:102830009FFC0000B9FC0000D2FC0000EDFC000091
:1028400007FD00001AFD00002DFD000040FD000006
:102850008CFF000099FF0000A6FF0000B3FF0000FE
:10286000C0FF0000CDFF0000DAFF00001FBD00BF69
:102870002DE9F34101204EF66028FFF729FE40467E
:10288000FEF7E8FA08F0FEFF234F244E386008F008
:10289000C3FC062402460B4600943046FDF7E7FED3
:1028A00038681F4D08F0B8FC009402460B462846D5
:1028B000FDF7DDFE39460420FFF7E6FB4046FEF754
:1028C000C9FA08F0DFFF174F386008F0A5FC009444
:1028D00002460B463046FDF7CAFE386808F09CFCFD
:1028E000009402460B46104C2846FDF7C0FE3946C0
:1028F0000820FFF7C9FB21463046FDF7C7FE2146F9
:102900002846FDF7C3FEFEF74CFF012002B0BDE8EC
:10291000F041FFF7DDBD00BFF489FF1F009BFF1FE3
:10292000C49AFF1FC895FF1F53FD00002DE9F34116
:102930004EF660270120FFF7CBFD3846FEF78AFAF6
:1029400008F0A0FFDFF808813E4EC8F8000008F04C
:1029500063FC022402460B4600943046FDF787FED6
:10296000D8F80000384D08F057FC009402460B469A
:102970002846FDF77CFE41461820FFF785FB3846C8
:10298000FEF768FA08F07EFFDFF8C880C8F800009C
:1029900008F042FC009402460B463046FDF767FE05
:1029A000D8F8000008F038FC009402460B46284690
:1029B000FDF75DFE41461C20FFF766FB3846FEF73B
:1029C00049FA08F05FFFDFF89080C8F8000008F0CF
:1029D00023FC009402460B463046FDF748FED8F82B
:1029E000000008F019FC009402460B462846FDF74B
:1029F0003EFE41462020FFF747FB3846FEF72AFA05
:102A000008F040FF114F386008F006FC00940246C1
:102A10000B463046FDF72BFE386808F0FDFB0094AE
:102A200002460B462846FDF722FE24203946FFF7D2
:102A30002BFBFEF7B6FE012002B0BDE8F041FFF728
:102A400047BD00BF009BFF1FC49AFF1F5495FF1F87
:102A5000F893FF1FF890FF1FFC93FF1F7FB50646FA
:102A60000120FFF735FD002406254EF66020FEF715
:102A7000F1F908F007FF039008F0CEFB009502463D
:102A80000B460C48FDF7F3FD039808F0C5FB0095D5
:102A900002460B460848FDF7EAFDA01903A90434D5
:102AA000FFF7F2FA082CE0D1FEF77BFE0120FFF7DA
:102AB0000FFD7FBD009BFF1FC49AFF1F2DE9F34749
:102AC00080460120FFF704FD4EF66020FEF7C2F9B4
:102AD00008F090FE064631462C48FDF7E1FD2C48F3
:102AE0003146FDF7DDFD731C47D04EF66020FEF742
:102AF000B1F908F0C7FE814608F08EFB06270446B0
:102B00000D460B46224600972048FDF7D3FD00975F
:102B10001F4822462B46FDF7CDFD48461D4909F0CA
:102B2000A3F950BB4EF66020FEF794F908F0AAFE18
:102B3000824608F071FB04460D460B46224600977C
:102B40001248FDF7B7FD0097114822462B46FDF7C6
:102B5000B1FD50460F4909F087F970B93046494632
:102B60004246FFF79BFB3046514608F17802FFF7DB
:102B700077FB012006F0AAFFA6E7FEF712FE012070
:102B800002B0BDE8F047FFF7A3BC00BF009BFF1FEA
:102B9000C49AFF1F000080BF2DE9F04FAA4BAB4C39
:102BA00004221A6085B00021064640F6FF72A8484C
:102BB00003F0BAFF8025012140F6FF72A44803F01C
:102BC000B3FF022140F6FF722560A14803F0ACFF7D
:102BD000032140F6FF729E4803F0A6FF9D4B1D6047
:102BE000FEF7DFFD622E2CD10020FFF771FC274697
:102BF0004EF66020FEF72EF90022974B04460D4654
:102C000008F0C6FDB8B9FEF7CCFD2946204608F00D
:102C100019FE002182B28E4803F086FF0023204671
:102C20002946002208F0B4FD202310B9894A136018
:102C3000DEE73B60DCE7FEF7B4FD844B20221A6040
:102C40006FE0632E6DD10020FFF742FC4EF660204E
:102C5000FEF700F908F0CEFD8049DFF824A2804697
:102C60007F48FDF7FEFC7D497E48FDF7FAFC002118
:102C70000A46774803F058FF75480321002203F005
:102C800053FF00275FFA88FB40E05AF83B3083F897
:102C900000410BE01FFA89F4002122466C4803F042
:102CA00043FF6B480321224603F03EFF384608F0FD
:102CB000B3FA04460D460221009122462B4668488D
:102CC0000391FDF7D4FC03996648009122462B46F8
:102CD000FDF7CDFC64496248FDF7C3FC62496148D9
:102CE000FDF7BFFC49465E48FDF7BFFC49465D481D
:102CF000FDF7BBFC5C495A48FDF7C8FC59485A49E6
:102D0000FDF7C4FC4FF47A7006F0E0FE05F09AF986
:102D1000022800F3568105F0C1FD022840F35C81D2
:102D20004FE10027FEF73DFD642E01D1FEF74AFD7D
:102D3000FEF737FD652E14D14C494948FDF791FC4B
:102D400048484A49FDF78DFC4FF0020805F07AF932
:102D5000022800F3478205F0A1FD022840F35881C4
:102D600040E2662E14D142493D48FDF77AFC3D48C9
:102D70003F49FDF776FC4FF0020805F063F90228A1
:102D800000F3308205F08AFD022840F3688129E2D1
:102D9000672E14D137493248FDF763FC3148354975
:102DA000FDF75FFC4FF0020805F04CF9022800F334
:102DB000198205F073FD022840F3758112E2682E36
:102DC00014D12D492648FDF74CFC26482A49FDF729
:102DD00048FC4FF0020805F035F9022800F30282A2
:102DE00005F05CFD022840F38081FBE1692E14D1DF
:102DF0001E491B48FDF735FC1A481C49FDF731FCFC
:102E00004FF0020805F01EF9022800F3EB8105F0EF
:102E100045FD022840F3A081E4E16A2E32D1174932
:102E20001048FDF71EFC0E481449FDF71AFC4FF040
:102E3000020805F007F9022800F3D48105F02EFD01
:102E4000022840F3AE81CDE188F00F40C8F00F407A
:102E5000A892FF1FC4F00F400000F0BF56FD000015
:102E6000009BFF1FC49AFF1F8800010066FD000041
:102E70007BFD00008AFD00009BFD0000B2FD00000C
:102E8000B0030100731E202B40D8A949A948DFF8E0
:102E9000B082FDF7E6FBA848A549FDF7E2FB4EF638
:102EA0006020FDF7D7FF08F0A5FC411C054624D0A3
:102EB000ACB2FEF776FC00212246A04803F034FEB7
:102EC000012122469D4803F02FFE022122469B4805
:102ED00003F02AFE22469948032103F025FE58F804
:102EE0003620012382F8803058F8362015B182F858
:102EF0008030D4E782F80031D1E7FEF752FC904BE6
:102F000053F83630012283F8002134E0A6F1220381
:102F1000032B30D8DFF83C828A4D874807F0C8FB86
:102F2000844807F0C5FB4EF66020FDF793FF08F0DC
:102F300061FC421C1DD010234001C8F8003001D0B4
:102F40000138FDD1F0B206F0E9FE102304462B60F3
:102F500021467948FDF789FB21467648FDF785FB38
:102F600079497548FDF77DFB77497248FDF779FB94
:102F7000D3E7FEF716FC754B04221A60384608F0BA
:102F80004BF9022604460D460B46224600966A4837
:102F9000FDF76DFB22462B4600966648FDF767FB62
:102FA0006B496548FDF772FB69496248FDF76EFBA6
:102FB000614807F07DFB5F4805B0BDE8F04F07F0C2
:102FC00077BBFEF7EEFB5FFA88F85D4B53F83830BD
:102FD000012283F80021A5E65AF83B30012483F84A
:102FE00080402046FDF7CAFD08F056FDFDF786FF3C
:102FF000074608F06BFF01464046FDF791FF0021B0
:103000008146384608F030FF00287FF43EAE41E6A6
:103010000120FDF7B3FD08F03FFDFDF76FFF074608
:1030200008F0FAF804460D460B462246CDF800801B
:103030004148FDF71CFB22462B46CDF800803D4859
:10304000FDF715FB40493C48FDF70BFB3E4939486D
:10305000FDF707FB4FF4FA6006F038FD76E6FEF761
:1030600011FA08F015FD074608F0D6F80446224686
:103070000B46CDF8008030480D46FDF7F8FA32498E
:103080002D48FDF7EEFA22462B46CDF80080294860
:10309000FDF7EDFA2C492748FDF7E3FA4FF4FA6003
:1030A00006F014FD69E6FDF797FA074608F0B4F854
:1030B000044622460B46CDF800801F480D46FDF71A
:1030C000D6FA21491C48FDF7CCFA22462B46CDF80A
:1030D00000801848FDF7CBFA1B491648FDF7C1FAE6
:1030E0004FF4FA6006F0F2FC5EE6FDF759FA074687
:1030F00008F092F8044622460B46CDF800800E48B0
:103100000D46FDF7B4FA10490B48FDF7AAFA22461E
:103110002B46CDF800800748FDF7A9FA0A49054873
:10312000FDF79FFA4FF4FA6006F0D0FC53E600BFBB
:10313000CFFD0000C49AFF1F009BFF1FA892FF1F36
:10314000B0030100C4F00F408800010084F00F407C
:103150005BF90000C8F00F400120FDF70FFD08F0FB
:103160009BFC074608F058F804460D460B462246DD
:10317000CDF800801D48FDF77AFA22462B46CDF89F
:1031800000801B48FDF773FA1A491848FDF769FAE1
:1031900018491748FDF765FA4FF4FA6006F096FCF7
:1031A00030E6FEF7A1FA074608F036F804460D4669
:1031B0000B462246CDF800800C48FDF758FA22460F
:1031C0002B46CDF800800A48FDF751FA0949074817
:1031D000FDF747FA07490648FDF743FAC82006F00D
:1031E00075FC26E6FEF7DDFA4CE600BF009BFF1FEC
:1031F000C49AFF1F880001002DE9F04FADF51E5D58
:103200008FB004AF32200025C7F848D006F05EFC2E
:10321000B14BC7F80C511B680120C7F81031D7F823
:10322000103108F021FFC7F8B4000420C7F814518A
:10323000C7F8185108F018FFA84BC7F8B0001B6872
:10324000073323F00703ADEB030DA54B1B683B666B
:103250001B01083304ACADEB030D04AEC7F8C86026
:1032600003E0002106F0EDFE0135D7F8C86006EB5B
:1032700005103E6EB542F4D1984B994E1A6820461F
:10328000002109F0EDFA002507E0D7F8C81001EB9E
:103290000510944906F00DFF013533689D42F4DBBB
:1032A0000020FFF715F9904B10251D600A2006F04D
:1032B0000DFC8E4B8E491D6007F5F475284606F00F
:1032C000C0FE5EE0284606F08AFFC72842F310875A
:1032D00002F0CBBE87498848FDF7D8F98549874871
:1032E000FDF7D4F94DE0FDF7F7F94AE0FEF730FDC0
:1032F00047E0FDF717FA44E0FDF754FA41E00120FA
:10330000FFF7E6F83DE0FFF7B3FA3AE000200AE005
:10331000FFF70CFB35E03C2001E04FF49670FFF71F
:10332000CDFB2EE00120FEF7BFFE2AE04FF4077030
:10333000F5E74FF45C70F2E74FF48C60EFE7FDF7D0
:1033400067F91EE00120FFF78DF81AE0282010E051
:103350004FF4AA600DE04FF4AB600AE04FF4AC60AC
:1033600007E04FF4AD6004E04FF4AE6001E04FF4CD
:10337000AF60FFF773FB04E0FDF7D6FB01E005F05B
:1033800021FC04F041FE5B2802F0D18605F0ACFA86
:103390005B2842F0B68602F0CABE05F0A5FA5B28AB
:1033A0000CBF0225002500E0012504F005FE05F014
:1033B00083FA012D0DD0022D58D051494E48FDF70A
:1033C00065F900264D484E49FDF760F9C7F8C4601D
:1033D000AFE049484FF4FA6107F094F83F4B464894
:1033E0001B6821212246002607F08EF841F287351E
:1033F000C7F8C460A35D7B2B1BD104E0484606F0F0
:1034000091FE013607E0D7F8C410D7F8C8204FEA7C
:10341000011802EB0809A15D7D29EFD1D7F8C8306A
:1034200003EB080006F07EFED7F8C4100131C7F8A0
:10343000C4100136AE42DDDD002412E0D7F8C860CA
:10344000302106EB041507F5067006F04DFE07F572
:103450000671284606F089FE07F5067006F0B0FDF5
:103460000134D7F8C460B442E8DB62E023484FF48B
:103470007A7107F047F8194B20481B682121224632
:10348000002607F041F841F28735C7F8C460A35D14
:103490007B2B1BD104E0484606F044FE013607E0D2
:1034A000D7F8C410D7F8C8204FEA011802EB080972
:1034B000A15D7D29EFD1D7F8C83003EB080006F0F5
:1034C00031FED7F8C4100131C7F8C4100136AE423E
:1034D000DDDD002429E000BFB89AFF1FF089FF1F3F
:1034E0007C89FF1F23FA0000C8F00F40C4F00F4092
:1034F0001BFC0000D2FD0000009BFF1FC49AFF1FB1
:10350000E2FD0000D7F8C860302106EB041507F58E
:10351000067006F0E9FD07F50671284606F025FE5F
:1035200007F5067006F04CFD0134D7F8C460B442CC
:10353000E8DB7949794D7A48FDF793F8764979487F
:10354000FDF78FF8286807F067FE022402460B4655
:1035500000947348FDF78BF8286807F05DFE00942F
:1035600002460B466F48FDF782F86F496C48FDF73D
:1035700078F803246C496B48FDF773F8009464A352
:10358000D3E900236648FDF772F861A3D3E900236D
:1035900000946448FDF76BF8644962480026FDF723
:1035A00060F85F486149FDF75CF8C7F8BC60C7F890
:1035B000B860C7F8D0600D26BE660126FE6607F526
:1035C000EA760024FE655A495648FDF74AF8544801
:1035D0005749FDF746F8002602F0E1BCD7F8B400E1
:1035E00008F04AFDD7F8AC603501D7F8C860731908
:1035F00007F58A7A9C68601C08F036FD7159C7F897
:10360000B400224609F03CFDD7F8B46000253555DA
:1036100007F5EE7007F50A7403F056F9D7F8B41001
:1036200022464FF4167307F5EE7003F030F8D7F822
:10363000B410A8420CBF22462A46F86D02F0A3FF40
:10364000FE6D96E803008AE80300002802F0768504
:10365000C9B902F073BDD7F8C810324801EB0415A0
:103660002946FDF709F801342D482946FDF704F8ED
:10367000B442F0D1FEF795F807F5F47006F0A0FC1F
:10368000002502F0E1BC07F58E76C7F88450C7F834
:10369000D86007F5E6742749504602F0C5FF014699
:1036A00007F5FC7006F0CDFC2349504602F0B2FF4E
:1036B0005046224902F0AEFF214B08B1186001E0EC
:1036C00001221A601F49204D504602F0A3FF1F49F6
:1036D000C7F8CC00504602F09DFF1D49F8665046E1
:1036E00002F098FF1B49B860504602F093FF1A4958
:1036F0007862504602F08EFF002808BF0120B865AE
:103700001649504602F086FF50BB0D232B602CE07B
:103710000AD7A3703D0AD73F08FE0000DC90FF1FC8
:10372000C49AFF1F009BFF1F17FE00002DFE000024
:1037300059F900003AFE000046FE00004DFE000070
:103740007889FF1F56FE00006489FF1F65FE000098
:1037500072FE000085FE000095FE00009FFE000046
:1037600050468D4902F056FF28608C49504602F0C1
:1037700051FF002808BF0A20F8628949504602F02C
:1037800049FF002808BF1020B8628649504602F061
:1037900041FF002808BF032078658349504602F0A6
:1037A00039FF002808BF032038658049504602F0E1
:1037B00031FF7F493862504602F02CFF7D49C7F83F
:1037C000C000504602F026FF7B497864504602F064
:1037D00021FF7A49C7F88800504602F01BFF78495C
:1037E000F861504602F016FF07F59276C7F8D4004C
:1037F000514607F58E70734A02F0FEFE07F5967883
:1038000030465146704AC7F8FC6002F0F5FE07F5F5
:103810009A76404651466D4A02F0EEFE07F59E7BD1
:10382000304651466A4AC7F8F86002F0E5FE07F5EF
:10383000A27658465146674A02F0DEFE3046C7F887
:10384000F460514607F5A676634A02F0D5FE30468D
:10385000C7F8F060514607F5AA76604A02F0CCFE40
:103860003046C7F8EC60514607F5AE765C4A02F088
:10387000C3FE3046C7F8E860514607F5B276594AAC
:1038800002F0BAFE3046C7F8E460514607F5B67656
:10389000554A02F0B1FE3046C7F8E060514607F5E0
:1038A000BA76524A02F0A8FE30465146504AC7F84E
:1038B000DC6002F0A1FE07F5BE7051464D4A4E4E47
:1038C00002F09AFE07F5C27051464C4A02F094FE8F
:1038D00007F5C67051464A4A02F08EFE07F5CA70D7
:1038E0005146484A07F5807502F086FE07F5CE700E
:1038F0005146454A02F080FE28465146434A02F0AE
:103900007BFE95E80300424A86E8030028465146BC
:1039100002F072FE95E803003E4E3F4A86E803003F
:103920002846514602F068FE95E803003B4E3C4AAB
:1039300086E8030007F5D270514602F05DFE07F5F8
:10394000D6705146374A02F057FE07F5DA705146F5
:10395000354A02F051FE002507F5DE705146334A24
:1039600002F04AFE7D66C7F88C5087E0294607F5CD
:10397000BE7002F0F4FD07F5D67181462A46204656
:1039800002F0DFFD2046FCF7A2FE7E6E00FB09661A
:103990007E660026B1465AE09FFE0000B4FE00009D
:1039A000BEFE0000C9FE0000DAFE0000E9FE0000D5
:1039B00008FF000013FF00001DFF00002BFF0000A8
:1039C00036FF000041FF000051FF00005DFF0000D6
:1039D0006CFF00007AFF000088FF000095FF0000E8
:1039E000A2FF0000AFFF0000BCFF0000C9FF000005
:1039F000D6FF0000E3FF0000FC90FF1FEAFF00007D
:103A0000F6FF0000020001000E0001001A00010094
:103A10002A0001000494FF1F3B000100F093FF1FE8
:103A20004B00010055000100610001006F00010022
:103A3000204607F5D6712A4602F083FD314620461E
:103A400002F08DFD0028C8BF09F1010901362046AA
:103A500007F5D6712A4602F074FD2046FCF737FEC2
:103A60008642E5DB294607F5BE7002F078FDD7F8FF
:103A70008C6009FB0066C7F88C60013507F5BE70E5
:103A8000FCF725FE8542FFF671AFD7F8B00008F0CD
:103A9000F3FA0421D7F88C0008F070FAB449C7F89B
:103AA000B000B448FCF7DDFDB149B348FCF7D9FDDF
:103AB0000520FDF781F9B149C7F8A800AD48FCF72A
:103AC000D0FDAE49AC48FCF7CCFD07F5FC71A94828
:103AD00006F0CCFD07F5FC71A74806F0C7FDA84924
:103AE000A448FCF7BEFDA448A549FCF7BAFDD7F8E9
:103AF000D430012B02D11846FDF796FB07F5067569
:103B0000A049284606F09DFAD7F8D86096E8030049
:103B1000002213468DE8030002959B499B48FCF761
:103B2000F7FE284606F04CFA9949284606F089FA2D
:103B300098E80300002213468DE80300029595499A
:103B40009548FCF7E5FE284606F03AFA93492846E0
:103B500006F077FAD7F8F86096E8030000221346DB
:103B60008DE8030002958E498E48FCF7D1FE284669
:103B700006F026FA8C49284606F063FA9BE8030013
:103B8000002213468DE80300029588498848FCF717
:103B9000BFFE284606F014FA864B8749D3F800800A
:103BA000864B28461E6806F04CFAD7F8FC2092E8AF
:103BB00003008DE80300002042460146334602958B
:103BC000FCF7A6FE284606F0FBF97D4B7D49D3F8AD
:103BD00000805E68284606F034FAD7F8F43093E89F
:103BE00003008DE80300002042460146334602955B
:103BF000FCF78EFE284606F0E3F9734B7349D3F8C1
:103C000000805E68284606F01CFAD7F8F02092E89B
:103C100003008DE80300002042460146334602952A
:103C2000FCF776FE284606F0CBF9694B6949D3F8D4
:103C300000805E68284606F004FAD7F8EC3093E876
:103C400003008DE8030000204246014633460295FA
:103C5000FCF75EFE284606F0B3F95F4B5F49D3F8E8
:103C600000805E68284606F0ECF9D7F8E82092E874
:103C700003008DE8030000204246014633460295CA
:103C8000FCF746FE284606F09BF9554B5549D3F8FC
:103C900000805E68284606F0D4F9D7F8E43093E84F
:103CA00003008DE80300002042460146334602959A
:103CB000FCF72EFE284606F083F94B4B4B49D3F810
:103CC00000805E68284606F0BCF9D7F8E02092E84C
:103CD00003008DE80300002042460146334602956A
:103CE000FCF716FE284606F06BF9414B41495E6829
:103CF000D3F80080284606F0A4F9D7F8DC3093E822
:103D000003008DE803000020334601464246029539
:103D1000394EFCF7FDFD284606F052F93368012BB9
:103D200017DD36491448FCF79CFC34491148FCF770
:103D300098FC31681048FCF798FC31680D48FCF796
:103D400094FC2F490C48FCF78CFC0A482C49FCF7E2
:103D500088FC2C4B786C00261E602B4B1E602B4B76
:103D60001E602B4B1E602B4B1E602B4B1E6055E0C4
:103D700082F90000009BFF1FC49AFF1F770001001B
:103D80008700010041FF0000D491FF1F5C95FF1FD9
:103D90005DFF0000C494FF1F4092FF1F6CFF0000F6
:103DA0006C91FF1F0491FF1F7AFF00004493FF1FD7
:103DB000DC92FF1FF489FF1F51FF0000C895FF1F11
:103DC000BC94FF1F88FF00009094FF1F95FF000028
:103DD0002C95FF1FA2FF00009894FF1FAFFF00006B
:103DE0003C95FF1FBCFF00004495FF1FC9FF00006A
:103DF0004C95FF1FD6FF00007889FF1F8A00010045
:103E0000880001000C94FF1FD495FF1F3C92FF1FF8
:103E1000D095FF1F1C94FF1FC093FF1F144B1E6003
:103E2000144B1E60144B1E60144B1E60FDF7D6F938
:103E3000D7F88810D7F8CC2030234B43013B3B64A4
:103E40004FF47A735343FB6007F586760023C7F877
:103E5000D430C7F89030C7F89430C7F89830C7F816
:103E60009C3007F5E27BC7F8806001F0D6BF00BF49
:103E7000AC94FF1FB894FF1F1094FF1F2094FF1FE6
:103E8000584607F5DA71324602F05BFB58460121CD
:103E900002F065FB8046002859D13246204607F5DE
:103EA000DA7102F04EFB4146204602F062FB014609
:103EB000284606F0C6F82846BC4906F064F910F119
:103EC000000818BF4FF00108284606F079F8B8F14D
:103ED000000F3CD03246204607F5DA7102F031FB84
:103EE0000121204602F03BFBFCF73EFEB04BD7F829
:103EF000D4101B68013B994229D1AE49DFF8DC920E
:103F0000AD48FCF7AEFBAB49AC48FCF7AAFBD9F8CF
:103F1000000007F081F94FF0020802460B46CDF889
:103F20000080A548FCF7A3FBA549A348FCF799FB33
:103F3000D9F8000007F070F9CDF8008002460B4672
:103F40009E48FCF794FB9D489D49FCF78AFB584628
:103F500007F5DA71324602F0F4FA5846012102F010
:103F6000FEFA8046002859D13246204607F5DA711C
:103F700002F0E7FA4146204602F0FBFA01462846E5
:103F800006F05FF828468F4906F0FDF810F10008AA
:103F900018BF4FF00108284606F012F8B8F1000FDC
:103FA0003CD03246204607F5DA7102F0CAFA012108
:103FB000204602F0D4FAFCF7DCFD7D4BD7F8D42084
:103FC0001B68013B9A4229D17F49DFF814927A4855
:103FD000FCF747FB7C497948FCF743FBD9F8000024
:103FE00007F01AF94FF0020802460B46CDF80080A0
:103FF0007148FCF73CFB72496F48FCF732FBD9F87B
:10400000000007F009F9CDF8008002460B466B4826
:10401000FCF72DFB69486A49FCF723FB584607F576
:10402000DA71324602F08DFA5846012102F097FA11
:104030008046002859D13246204607F5DA7102F051
:1040400080FA4146204602F094FA0146284605F0DF
:10405000F8FF28465D4906F096F810F1000818BFF1
:104060004FF00108284605F0ABFFB8F1000F3CD037
:104070003246204607F5DA7102F063FA0121204644
:1040800002F06DFAFDF788FB494BD7F8D4101B6896
:10409000013B994229D14E49DFF848914648FCF747
:1040A000E0FA4B494548FCF7DCFAD9F8000007F084
:1040B000B3F84FF0020802460B46CDF800803E48A8
:1040C000FCF7D5FA3E493C48FCF7CBFAD9F800009A
:1040D00007F0A2F8CDF8008002460B463748FCF7FF
:1040E000C6FA36483649FCF7BCFA584607F5DA7185
:1040F000324602F026FA5846012102F030FA804694
:1041000000287AD13246204607F5DA7102F019FA12
:104110004146204602F02DFA0146284605F091FF5F
:1041200028462C4906F02FF810F1000818BF4FF070
:104130000108284605F044FFB8F1000F5DD0324673
:10414000204607F5DA7102F0FCF90121204602F061
:1041500006FAFDF7BBF9164BD7F8D4201B68013BD4
:104160009A424AD11C49DFF880901348FCF779FA4B
:1041700019491248FCF775FAD9F8000007F04CF815
:104180004FF0020802460B46CDF800800A48FCF7C3
:104190006EFA0B490848FCF764FAD9F8000007F0FA
:1041A0003BF8CDF8008002460B461FE09600010068
:1041B0007889FF1FA8000100C49AFF1F009BFF1F02
:1041C00088000100D8000100BD000100CC00010002
:1041D000E4000100FF000100030101003C92FF1F09
:1041E000D095FF1F1C94FF1FC093FF1FC148FCF711
:1041F0003EFAC048C049FCF734FA584607F5DA7170
:10420000324602F09EF95846012102F0A8F9804694
:10421000002840F0E4803246204607F5DA7102F0CB
:1042200090F94146204602F0A4F90146284605F0DF
:1042300008FF2846B14905F0A6FF10F1000818BF95
:104240004FF00108284605F0BBFEB8F1000F00F062
:10425000C6803246204607F5DA7102F072F9012174
:10426000204602F07CF9FCF789FCA54BD7F8D41066
:104270001B68013B994240F0B280DFF8A492A1494B
:10428000A148FCF7EEF99F499A48FCF7EAF9D9F8FA
:104290000000FCF733FE06F0BFFF4FF002080246B5
:1042A0000B46CDF800809848FCF7E1F99249964812
:1042B000FCF7D7F9D9F80000DFF86892FCF71EFE8A
:1042C00006F0AAFFCDF8008002460B468948FCF7AD
:1042D000CEF989498748FCF7C4F98C498A48FCF72C
:1042E000C0F98A498348FCF7BCF9D9F80000FCF70B
:1042F00005FE06F091FFCDF8008002460B4682488D
:10430000FCF7B5F97C498048FCF7ABF9D9F8000017
:10431000DFF81492FCF7F2FD06F07EFFCDF8008086
:1043200002460B467348FCF7A2F973497148FCF743
:1043300098F977497448FCF794F975496D48FCF78A
:1043400090F9D9F80000FCF7D9FD06F065FFCDF82B
:10435000008002460B466C48FCF789F966496A48BA
:10436000FCF77FF9D9F80000DFF8C091FCF7C6FD33
:1043700006F052FFCDF8008002460B465D48FCF780
:1043800076F95D495B48FCF76CF962495E48FCF7D9
:1043900068F960495748FCF764F9D9F80000FCF760
:1043A000ADFD06F039FFCDF8008002460B465648B9
:1043B000FCF75DF950495448FCF753F9D9F800006F
:1043C000FCF79CFD06F028FFCDF8008002460B4666
:1043D0004848FCF74CF947484749FCF742F958462A
:1043E00007F5DA71324602F0ACF85846012102F0C6
:1043F000B6F88046002840F0F4803246204607F5A3
:10440000DA7102F09EF84146204602F0B2F8014609
:10441000284605F016FE28463F4905F0B4FE10F187
:10442000000818BF4FF00108284605F0C9FDB8F193
:10443000000F00F0D6803246204607F5DA7102F010
:1044400080F80121204602F08AF8FCF797FB2C4BFC
:10445000D7F8D4201B68013B9A4240F0C280DFF8B5
:10446000C0902E492848FCF7FCF82C492148FCF75D
:10447000F8F8D9F8000006F0CFFE4FF00208024627
:104480000B46CDF800802048FCF7F1F81A491E4889
:10449000FCF7E7F8D9F80000DFF8889006F0BCFEDA
:1044A000CDF8008002460B461248FCF7E0F81249AE
:1044B0001048FCF7D6F815491348FCF7D2F8134911
:1044C0000C48FCF7CEF8D9F8000006F0A5FECDF8B0
:1044D000008002460B460C48FCF7C9F806490A481A
:1044E000FCF7BFF8D9F80000DFF83C9006F094FE26
:1044F0001EE000BF009BFF1F88000100F8FE0000C7
:104500007889FF1F0A010100C49AFF1F1D010100E5
:1045100022010100270101002C01010040010100DE
:10452000AC94FF1FB894FF1F1094FF1F2094FF1F2F
:10453000CDF8008002460B46B048FCF798F8B04929
:10454000AE48FCF78EF8AF49AF48FCF78AF8AD49A2
:10455000AA48FCF786F8D9F8000006F05DFECDF811
:10456000008002460B46A848FCF781F8A449A648FB
:10457000FCF777F8D9F80000DFF8B09206F04CFEAF
:10458000CDF8008002460B469C48FCF770F89C4929
:104590009A48FCF766F89D499B48FCF762F89B49EE
:1045A0009648FCF75EF8D9F8000006F035FECDF825
:1045B000008002460B469448FCF759F8904992480F
:1045C000FCF74FF8D9F8000006F026FECDF8008081
:1045D00002460B468948FCF74AF888488849FCF7A8
:1045E00040F8584607F5DA71324601F0AAFF5846FE
:1045F000012101F0B4FF804600284FD13246204609
:1046000007F5DA7101F09DFF4146204601F0B1FF48
:104610000146284605F015FD28467D4905F0B3FD05
:1046200010F1000918BF4FF00109284605F0C8FC39
:10463000B9F1000F32D03246204607F5DA7101F0A9
:1046400080FF0221204601F08AFF5FFA80F941468F
:10465000484605F027F9484605F060FB6D4BD7F852
:10466000D4101B68013B9942804617D16A496648BD
:10467000FBF7F7FF68496148FBF7F3FF41466248E3
:10468000FBF7F3FF5E496048FBF7EBFF41465B48F1
:10469000FBF7EBFF59485A49FBF7E3FF584607F58C
:1046A000DA71324601F04DFF5846012101F057FF03
:1046B000804600284FD13246204607F5DA7101F0D6
:1046C00040FF4146204601F054FF0146284605F0D0
:1046D000B8FC2846514905F056FD10F1000918BFF5
:1046E0004FF00109284605F06BFCB9F1000F32D0FC
:1046F0003246204607F5DA7101F023FF02212046F9
:1047000001F02DFF5FFA80F94146484605F0CAF8EE
:10471000484605F0BBF83F4BD7F8D4201B68013B57
:104720009A42804617D13E493748FBF79AFF3C49E9
:104730003248FBF796FF41463348FBF796FF304976
:104740003148FBF78EFF41462C48FBF78EFF2B4884
:104750002B49FBF786FF584607F5DA71324601F020
:10476000F0FE5846012101F0FAFE804600285FD194
:104770003246204607F5DA7101F0E3FE4146204655
:1047800001F0F7FE0146284605F05BFC2846254966
:1047900005F0F9FC10F1000818BF4FF00108284699
:1047A00005F00EFCB8F1000F42D03246204607F566
:1047B000DA7101F0C6FE0221204601F0D0FE324639
:1047C000804607F5DA71204601F0BBFE0321204642
:1047D00001F0C5FE5FFA88F881460121404605F0E8
:1047E00061F8114A52F8382019F0FF0F4FF0010319
:1047F00014BF82F8803082F8003119E0009BFF1F5F
:104800008800010022010100C49AFF1F2701010056
:10481000570101007889FF1F630101007201010047
:104820007F0101008F010100B00301002094FF1FF0
:10483000584607F5DA71324601F083FE58460121E9
:1048400001F08DFE8146002867D13246204607F5EB
:10485000DA7101F076FE4946204601F08AFE0146F3
:10486000284605F0EEFB2846A94905F08CFC10F11E
:10487000000818BF4FF00108284605F0A1FBB8F169
:10488000000F4AD03246204607F5DA7101F059FE92
:104890000221204601F063FE3246804607F5DA71B8
:1048A000204601F04EFE0321204601F058FE32461C
:1048B000844607F5DA712046C7F800C001F041FED2
:1048C0000421204601F04BFE3246C7F8CC0007F524
:1048D000DA71204601F035FE0521204601F03FFE49
:1048E0005FFA88F80346012140467B6004F0DAFF56
:1048F0004046D7F8CC1004F051FFD7F800C040462E
:10490000614604F0EBFF7B68184605F0DFF840468F
:10491000494604F0E3FFFDF793FB584607F5DA71CB
:10492000324601F00EFE5846012101F018FE804685
:10493000002840D13246204607F5DA7101F001FE29
:104940004146204601F015FE0146284605F079FB58
:104950002846704905F017FC10F1000818BF4FF009
:104960000108284605F02CFBB8F1000F23D0D7F83A
:10497000D43003BB68496948FBF773FE6649684851
:10498000FBF76FFED7F8D42066492846FCF7B2F94A
:104990002946624805F06AFE63496048FBF761FEFC
:1049A00029465F4805F062FE5D485F49FBF759FE06
:1049B000284605F005FB013600E0002607F5DA7011
:1049C000FBF785FE8642FFF65BAAFA6A574ED1B224
:1049D0003068002202F0F0FCBB6A3068D9B20022D5
:1049E00002F0C6FC796D052919D8DFE801F003074C
:1049F0000A0D1013002130680A460EE030680121CC
:104A00000AE03068022107E03068032104E03068E2
:104A1000042101E030680521002202F0B5FC3B6D65
:104A2000052B19D8DFE803F003070A0D1013002146
:104A300030680A460EE0306801210AE03068022141
:104A400007E03068032104E03068042101E03068A9
:104A50000521002202F0A4FC022005F037F8344BB7
:104A60001868FCF74BFAC7F8A40007F02FFA314B8F
:104A700001461868FCF754FAD7F8C0606423704305
:104A80004FF0000990FBF3F3C7F8A030C7F84C9043
:104A9000C7F87C90C7F8CC908DE3D7F8D060002E93
:104AA00056D1D7F8CC60002E63D103F04BFB214BDD
:104AB000BE6E1B689E4206D0F2B21F4B53F83230D6
:104AC000012283F8002104F0E3FFD7F888100029C1
:104AD000064608DB194B4A1E9A4204D81848194961
:104AE0003A6C05F0DCFC04F0D3FF7A6C801B90423A
:104AF000F9D3D7F88860002E2DDB104B721E9A4236
:104B000029D811493A6C114805F0C9FC23E000BFCF
:104B10009D010100AA010100AF010100C49AFF1F1D
:104B2000009BFF1FC0C62D0087000100B094FF1F2F
:104B3000AC94FF1F6489FF1FB00301005455550555
:104B4000AC93FF1F510500007D050000E090FF1FA2
:104B5000D7F8CC6086B9204607F5D671D7F8D020B3
:104B600001F0EFFC2046FBF7B2FD0126C7F8B800C4
:104B700003E0D7F8D06000E00026D7F8D020BE6769
:104B8000204607F5D67101F0DCFCD7F88060336869
:104B9000D7F8B860B3FBF6F106FB1131204601F0FF
:104BA000DEFC8D4BD7F8D020186007F5D271204677
:104BB00001F0C7FCD7F880603368D7F8B860B3FB62
:104BC000F6F106FB1131204601F0C9FCD7F8CC10F4
:104BD000824BB142186080F21D82002940F0928120
:104BE000D7F8D020204607F5DE7101F0AAFCD7F8EF
:104BF000CC10204601F0BDFC014607F5027005F01F
:104C000020FA07F50270764905F0BDFA20B1D7F811
:104C1000A860013640F00F81D7F8D460002E01F073
:104C2000A08208E16F497048FBF71BFD01266F4821
:104C30006C49FBF716FDFE64D7F8A86001360CD16D
:104C40006B496948FBF70DFD4FF0FF36674868492F
:104C5000FBF707FDC7F8A8604EE10520FCF7ACF8AC
:104C6000C7F8A8000130EBD062495F48FBF7F9FCB8
:104C700060495E48FBF7F5FC07F502715A4805F0FC
:104C8000F5FC07F50271594805F0F0FC5A49564801
:104C9000FBF7E7FC58495548FBF7E3FC57495248F6
:104CA000FBF7DFFC55495148FBF7DBFCD7F8D02078
:104CB000204607F5DE7101F044FC0121204601F099
:104CC00058FC01464848FBF7CCFCD7F8D0202046DA
:104CD00007F5DE7101F035FC0121204601F049FCA9
:104CE00001464248FBF7BDFC43493F48FBF7B9FC8E
:104CF00041493E48FBF7B5FC07F50270404905F015
:104D000042FA30B13F493848FBF7ABFC37483D49E0
:104D100010E007F502703C4905F035FA68B13B48F0
:104D2000FCF74AF80130FAD139492F48FBF799FCD2
:104D30002E483749FBF795FC3DE007F502703549F1
:104D400005F021FA064680B13048FCF735F8012815
:104D500008D131492448FBF784FC2F492348FBF74D
:104D600080FCC9E00130EFD1DEE707F502702B4986
:104D700005F009FAF8B1324628462449FBF7BAFF94
:104D80001E491948FBF76DFC1C491848FBF769FCE4
:104D90002946164805F06AFC2946134805F066FCCA
:104DA0001F491148FBF75DFC10481D49FBF759FCF2
:104DB000284605F005F907F5BE70FBF788FCD7F823
:104DC000D0600138864208482ED01649FBF749FCCE
:104DD000064814492DE000BFCC95FF1F1494FF1F17
:104DE00023FA0000B8010100C49AFF1F009BFF1FB7
:104DF000C4010100C901010087000100CBFB0000D4
:104E00001BFC0000CC010100D0010100C0C62D0038
:104E1000D6010100DC010100E4010100F001010004
:104E2000CD010100880001007149FBF71AFC7148AF
:104E30006F49FBF716FCD7F8D01007F5C27001F0E8
:104E40008EFBD7F8A060B8610096D7F8D020D7F8CD
:104E5000A430D7F8C010FDF729F8D7F8D010804655
:104E600007F5C67001F07BFB78610096D7F8D0207B
:104E7000D7F8A430D7F8C010FDF718F8D7F8D0103D
:104E8000786707F5CA7001F06AFB38610096D7F8B9
:104E9000D020D7F8A430D7F8C010FDF707F8D7F81E
:104EA000D010386707F5CE7001F059FB0096D7F89F
:104EB000C010D7F8D020D7F8A4303860FCF7F6FF40
:104EC000064607F5027005F07BF807F190010EC960
:104ED0003963D7F89C107A63BB63F963D7F800C0D5
:104EE0003A697B69B969C7F890C0C7F89420C7F8D8
:104EF0009830C7F89C1009E007F5027005F060F8DB
:104F000000F092BF00263E677E67B046D7F8A0202B
:104F1000DFF8FCC00092DCF80000D7F8A430C7F836
:104F200000C0D7F8C010D7F8D020FCF7BFFFD7F8E3
:104F300000C0DCF80030023B122B3BD8DFE803F066
:104F4000283A3A3A3A3A3A3A2E161C3A340A103A81
:104F50003A3A2200284B29481A88032101F0E4FD3F
:104F6000254B26481A88032101F0DEFD224B2348F9
:104F70001A88032101F0D8FD1F4B20481A8803210D
:104F800001F0D2FD1E4B1D481A88002101F0CCFD16
:104F90001B4B1A481A88002101F0C6FD194B17480F
:104FA0001A88022101F0C0FD164B14481A8802210C
:104FB00001F0BAFD144A042313602022013AFDD106
:104FC000124A1360D7F8CC2042BB0D4B0B48114658
:104FD0001A8801F0A9FD084B08481A88032101F03E
:104FE000A3FD084B05481A88022101F09DFD15E03C
:104FF000ED010100009BFF1FEC93FF1FA892FF1F14
:105000001894FF1F0094FF1F88F00F4084F00F409A
:10501000CC95FF1F00263E677E67B046984B9949A6
:105020001A6808680028FBD0D2F1010238BF0022BC
:10503000002AF5D1944B1868944B197802F0C8F9FE
:10504000934B1860934B10221A60BB6F012B50D109
:10505000F96B914BCAB2B96F53F83220B8F1010F16
:1050600082F8001106D1D7F89C10CAB253F832204A
:1050700082F88080B96BCAB253F83230012283F8CB
:1050800000217A6F012A08D1D7F89830796FDAB207
:10509000814B53F8323083F88010796B7E4BCAB263
:1050A000012153F8322082F800113A6F8A4207D169
:1050B000D7F89410CAB2396F53F8322082F88010B2
:1050C000396BCAB253F832300122964283F800217C
:1050D00007D1D7F89030DAB26F4B53F8323083F8FB
:1050E00080606E4A042313602022013AFDD16C4A8D
:1050F0001360FE695EB9654B1B68222B02D0232B1F
:1051000005D101E0674B00E0674B1E6800E0002618
:10511000664B1B68F3B15E4BFA6FD7F8B0101B6893
:1051200051F822007B6006F0B7FC7B688046184689
:1051300006F0B2FC314606F0F9FB0146404606F0A7
:10514000F7FB06F0C3FEF96FD7F8B06046F8210010
:105150000131F96772B64A4BD7F8CC2000261E60A1
:10516000484B01321E60C7F8CC2062B6D7F88010D9
:105170000B6801330B6007F5BE70D7F8D01001F053
:10518000EEF9D7F8D020804607F5D671204601F019
:10519000D8F92046FBF79BFAD7F8CC2000FB08F0A3
:1051A000824206D1D7F8D030C7F8CC600133C7F8B7
:1051B000D03009F101097E6EB145FFF66EACD7F82B
:1051C000A0103B4E00913A6A01923068D7F8D02087
:1051D000D7F8A430D7F8C010FCF7E4FE3368D7F84E
:1051E0009C602D4A9E4205D0F1B2012652F8311042
:1051F00081F80061D7F898609E4205D0F1B252F86C
:105200003120012182F80011D7F89460224A9E4291
:1052100005D0F1B2012652F8311081F80061D7F8BB
:1052200090609E4205D0F1B252F83120012182F8FF
:1052300000110128184A0DD1184E04213160202692
:10524000013EFDD1DBB2164E52F83330316083F8A7
:10525000800005E0DBB252F83330012283F80021F0
:10526000144805F013F9144805F010F9044BD7F869
:10527000801000261E60034B1E600E6000F0B7BD5C
:10528000F490FF1FA094FF1FB094FF1F1494FF1F02
:105290005895FF1FC4F00F40B003010088F00F4085
:1052A00084F00F40A494FF1FA894FF1FCC95FF1F0C
:1052B0006489FF1FAC93FF1FE090FF1F584607F55E
:1052C000DA71324601F03DF90121584601F047F903
:1052D0000128804659D13246204607F5DA7101F09F
:1052E00030F90021204601F044F90146284604F037
:1052F000A8FE2846BE4904F046FF10F1000918BF79
:105300004FF00109284604F05BFEB9F1000F3CD0D4
:105310003246204607F5DA7101F013F9414620467E
:1053200001F01DF9FBF720FCB24BD7F8D4201B6825
:10533000013B9A4229D1B049DFF8E492AF48FBF72C
:1053400090F9AD49AE48FBF78CF9D9F8000005F0AB
:1053500063FF4FF0020802460B46CDF80080A748D5
:10536000FBF785F9A749A548FBF77BF9D9F80000B9
:1053700005F052FFCDF8008002460B46A048FBF72F
:1053800076F99F489F49FBF76CF9584607F5DA71A3
:10539000324601F0D6F80121584601F0E0F8012824
:1053A000804659D13246204607F5DA7101F0C9F836
:1053B0000021204601F0DDF80146284604F041FEB8
:1053C0002846914904F0DFFE10F1000918BF4FF0A4
:1053D0000109284604F0F4FDB9F1000F3CD0324633
:1053E000204607F5DA7101F0ACF84146204601F09D
:1053F000B6F8FBF7BEFB7F4BD7F8D4101B68013B18
:10540000994229D18149DFF81C927C48FBF729F9A0
:105410007E497B48FBF725F9D9F8000005F0FCFE32
:105420004FF0020802460B46CDF800807348FBF7A8
:105430001EF974497148FBF714F9D9F8000005F01A
:10544000EBFECDF8008002460B466D48FBF70FF9E6
:105450006B486C49FBF705F9584607F5DA71324697
:1054600001F06FF80121584601F079F801288046D3
:1054700059D13246204607F5DA7101F062F8002171
:10548000204601F076F80146284604F0DAFD284669
:105490005F4904F078FE10F1000918BF4FF00109D0
:1054A000284604F08DFDB9F1000F3CD0324620466D
:1054B00007F5DA7101F045F84146204601F04FF852
:1054C000FCF76AF94B4BD7F8D4201B68013B9A4292
:1054D00029D15049DFF850914848FBF7C2F84D49AF
:1054E0004748FBF7BEF8D9F8000005F095FE4FF0ED
:1054F000020802460B46CDF800804048FBF7B7F89B
:1055000040493E48FBF7ADF8D9F8000005F084FEAD
:10551000CDF8008002460B463948FBF7A8F838481A
:105520003849FBF79EF8584607F5DA71324601F024
:1055300008F80121584601F012F8012880467BD175
:105540003246204607F5DA7100F0FBFF00212046C5
:1055500001F00FF80146284604F073FD28462E4955
:1055600004F011FE10F1000918BF4FF001092846A0
:1055700004F026FDB9F1000F5ED03246204607F553
:10558000DA7100F0DEFF4146204600F0E8FFFBF74D
:105590009DFF184BD7F8D4101B68013B99424BD1A3
:1055A0001E49DFF888901548FBF75BF81B49144843
:1055B000FBF757F8D9F8000005F02EFE4FF002086F
:1055C00002460B46CDF800800C48FBF750F80D4919
:1055D0000A48FBF746F8D9F8000005F01DFECDF8A3
:1055E000008002460B460648FBF741F820E000BF6A
:1055F000960001007889FF1FA8000100C49AFF1FD0
:10560000009BFF1F88000100D8000100BD000100C1
:10561000CC000100E4000100FF00010003010100D3
:105620003C92FF1FD095FF1F1C94FF1FC093FF1FCC
:10563000C148C249FBF715F8584607F5DA713246FA
:1056400000F07FFF0121584600F089FF01288046C5
:1056500040F0E4803246204607F5DA7100F071FF31
:105660000021204600F085FF0146284604F0E9FCB1
:105670002846B34904F087FD10F1000918BF4FF028
:105680000109284604F09CFCB9F1000F00F0C68027
:105690003246204607F5DA7100F053FF41462046B6
:1056A00000F05DFFFBF76AFAA64BD7F8D4201B6821
:1056B000013B9A4240F0B280DFF8A892A249A34889
:1056C000FAF7CFFFA0499C48FAF7CBFFD9F80000C2
:1056D000FBF714FC05F0A0FD4FF0020802460B4654
:1056E000CDF800809948FAF7C2FF94499748FAF735
:1056F000B8FFD9F80000DFF87092FBF7FFFB05F068
:105700008BFDCDF8008002460B468B48FAF7AFFFC1
:105710008A498948FAF7A5FF8D498C48FAF7A1FF15
:105720008B498548FAF79DFFD9F80000FBF7E6FBA7
:1057300005F072FDCDF8008002460B468348FAF76B
:1057400096FF7E498148FAF78CFFD9F80000DFF810
:105750001C92FBF7D3FB05F05FFDCDF800800246FD
:105760000B467548FAF783FF74497348FAF779FFD7
:1057700078497648FAF775FF76496F48FAF771FF6E
:10578000D9F80000FBF7BAFB05F046FDCDF8008024
:1057900002460B466D48FAF76AFF68496B48FAF70C
:1057A00060FFD9F80000DFF8C891FBF7A7FB05F010
:1057B00033FDCDF8008002460B465F48FAF757FFED
:1057C0005E495D48FAF74DFF63496048FAF749FFC3
:1057D00061495948FAF745FFD9F80000FBF78EFBFD
:1057E00005F01AFDCDF8008002460B465748FAF73F
:1057F0003EFF52495548FAF734FFD9F80000FBF74D
:105800007DFB05F009FDCDF8008002460B464A48B5
:10581000FAF72DFF48484949FAF723FF584607F59C
:10582000DA71324600F08DFE0121584600F097FEF5
:105830000128804640F0F3803246204607F5DA71B1
:1058400000F07FFE0021204600F093FE014628462E
:1058500004F0F7FB2846414904F095FC10F10009DB
:1058600018BF4FF00109284604F0AAFBB9F1000F58
:1058700000F0D5803246204607F5DA7100F061FE6F
:105880004146204600F06BFEFBF778F92D4BD7F828
:10589000D4101B68013B994240F0C180DFF8C490EE
:1058A0002F492A48FAF7DDFE2D492348FAF7D9FE99
:1058B000D9F8000005F0B0FC4FF0020802460B4694
:1058C000CDF800802148FAF7D2FE1C491F48FAF7AC
:1058D000C8FED9F80000DFF8909005F09DFCCDF8E7
:1058E000008002460B461448FAF7C1FE13491248DD
:1058F000FAF7B7FE16491548FAF7B3FE14490E48F1
:10590000FAF7AFFED9F8000005F086FCCDF800806C
:1059100002460B460D48FAF7AAFE08490B48FAF76B
:10592000A0FED9F80000DFF8449005F075FCCDF832
:10593000008002460B461DE0009BFF1F880001000F
:10594000F8FE00007889FF1F0A010100C49AFF1FBA
:105950001D01010022010100270101002C010100AD
:1059600040010100AC94FF1FB894FF1F1094FF1F6B
:105970002094FF1FAF48FAF77AFEAF49AD48FAF717
:1059800070FEAE49AE48FAF76CFEAC49A948FAF78A
:1059900068FED9F8000005F03FFCCDF80080024613
:1059A0000B46A748FAF763FEA349A548FAF759FE44
:1059B000D9F80000DFF8AC9205F02EFCCDF800809D
:1059C00002460B469B48FAF752FE9B499948FAF764
:1059D00048FE9C499A48FAF744FE9A499548FAF7D6
:1059E00040FED9F8000005F017FCCDF80080024613
:1059F0000B469348FAF73BFE8F499148FAF731FE80
:105A0000D9F8000005F008FCCDF8008002460B46EE
:105A10008848FAF72CFE87488749FAF722FE58464D
:105A200007F5DA71324600F08CFD0121584600F08E
:105A300096FD01284FD13246204607F5DA7100F075
:105A400080FD0021204600F094FD0146284604F028
:105A5000F8FA28467C4904F096FB10F1000818BFBC
:105A60004FF00108284604F0ABFAB8F1000F32D02D
:105A70003246204607F5DA7100F063FD0221204628
:105A800000F06DFD5FFA80F84046002103F00AFF48
:105A9000404604F043F96D4BD7F8D4201B68013B16
:105AA0009A42804617D16A496548FAF7DAFD684993
:105AB0006048FAF7D6FD41466148FAF7D6FD5E49DF
:105AC0005F48FAF7CEFD41465A48FAF7CEFD5948ED
:105AD0005949FAF7C6FD584607F5DA71324600F023
