:1000000000800020BD0100007D7C00007D7C0000A0
:100010007D7C00007D7C00007D7C0000497C000030
:10002000497C0000497C0000497C00007D7C000088
:100030007D7C0000497C00007D7C0000397C000054
:100040007D7C00007D7C00007D7C00007D7C0000CC
:100050007D7C00007D7C00007D7C00007D7C0000BC
:100060007D7C00007D7C00007D7C00007D7C0000AC
:100070007D7C00007D7C00007D7C00007D7C00009C
:100080007D7C00007D7C00007D7C00007D7C00008C
:100090007D7C00007D7C00007D7C00007D7C00007C
:1000A0008D6700007D7C00007D7C00007D7C000071
:1000B0007D7C00007D7C00007D7C00007D7C00005C
:1000C0007D7C00007D7C00007D7C00007D7C00004C
:1000D0007D7C00007D7C00007D7C00007D7C00003C
:1000E0007D7C00007D7C00007D7C00007D7C00002C
:1000F0007D7C0000B58000007D7C00006D8E0000DE
:100100007D7C0000696F00007D7C00007D7C00002C
:100110007D7C00007D7C00007D7C00007D7C0000FB
:100120007D7C00007D7C00007D7C00007D7C0000EB
:100130007D7C00007D7C00007D7C00007D7C0000DB
:100140007D7C00007D7C00007D7C00007D7C0000CB
:10015000119300002993000041930000599300007F
:100160007D7C0000B57100007D7C00007D7C00007E
:100170007D7C00007D7C00007D7C00007D7C00009B
:100180007D7C00007D7C00007D7C00007D7C00008B
:100190007D7C00007D7C00007D7C0000CD85000022
:1001A0001D860000A586000061870000E58700002D
:1001B0007D7C00007D7C0000759000004F4B4CF270
:1001C000205210B51A804DF628121A80102223F8FA
:1001D0000E2C07F056FD4A4B4FF010621A60494A48
:1001E0009A60494ADA60494B1A6812F4807204D165
:1001F00047490A604FF4A8521A60464B1A7802F039
:100200000802D2B21AB11A7842F008021A7000231A
:10021000414A4248424C02E0195999500433991816
:100220008142F9D33F4B404A002101E043F8041BCF
:100230009342FBD33D4B00221A603D4B3D4A802147
:1002400003F8011B9342FBD13B4B0A221A703B4B34
:1002500024221A70A02203F8012C394A137803F0E3
:100260000203DBB2002BF9D0354A137803F01003F8
:10027000DBB2002BF9D1324A137803F00C03082BC0
:10028000FAD1304B03221A7040225A702C4A13784C
:1002900003F02003DBB2002BF9D0294A137803F0D6
:1002A0004003DBB2002BF9D0274A284B1A60284BB9
:1002B00020221A70224A137803F00C030C2BFAD177
:1002C000244B02221A60244A43F8442C234B244A2C
:1002D0001A60072243F8042C62B608F0ABFA0C4B04
:1002E0001B68DC0702D51F4808F094FA0AF038FCB6
:1002F00007F0C7FC09F0E3F8FEE700BF0E20054059
:1003000030800440823F04000100002B10D00340E5
:1003100014D0034002D007400084FF1FF08AFF1F63
:1003200038F30000F08AFF1F6097FF1F08ED00E020
:1003300000E400E05FE400E00050064001400640B9
:10034000064006400440064000000301448004408B
:100350000040064048800440C010050014E000E062
:10036000FF7601007D641054FFFFFFFFFFFFFFFFDA
:10037000FFFFFFFFFFFFFFFFFFFFFFFFFFFFFFFF8D
:10038000FFFFFFFFFFFFFFFFFFFFFFFFFFFFFFFF7D
:10039000FFFFFFFFFFFFFFFFFFFFFFFFFFFFFFFF6D
:1003A000FFFFFFFFFFFFFFFFFFFFFFFFFFFFFFFF5D
:1003B000FFFFFFFFFFFFFFFFFFFFFFFFFFFFFFFF4D
:1003C000FFFFFFFFFFFFFFFFFFFFFFFFFFFFFFFF3D
:1003D000FFFFFFFFFFFFFFFFFFFFFFFFFFFFFFFF2D
:1003E000FFFFFFFFFFFFFFFFFFFFFFFFFFFFFFFF1D
:1003F000FFFFFFFFFFFFFFFFFFFFFFFFFFFFFFFF0D
:10040000FFFFFFFFFFFFFFFFFFFFFFFFFEFFFFFFFD
:1004100008B548F6F020074BC1F6FF701B1A062BF3
:1004200000D808BD40F20003C0F20003002BF8D052
:100430009847F6E7F38AFF1F08B548F6F02048F61C
:10044000F023C1F6FF70C1F6FF731B1A9B1003EB7C
:10045000D373591000D108BD40F20002C0F200026F
:10046000002AF8D09047F6E710B548F6F024C1F618
:10047000FF74237873B9FFF7CBFF40F20003C0F29B
:1004800000032BB14FF23830C0F20000AFF3008010
:100490000123237010BD00BF08B540F20003C0F275
:1004A00000034BB14FF2383048F6F421C0F200009F
:1004B000C1F6FF71AFF3008048F6F020C1F6FF707F
:1004C00003682BB140F20003C0F2000303B1984768
:1004D000BDE80840FFF7B0BF10B5044608F0D0FFF4
:1004E000204610BD70B503460D461646074819460E
:1004F0002A4606F0C7FB002404E0044806F02AF868
:1005000030550134E3B2AB42F7D370BD7C90FF1F8E
:10051000034670B509480D4619461646002406F0F4
:10052000B3FA03E0315D05F0D3FF0134E3B2AB422F
:100530000248F7D3BDE8704006F0BBBB7C90FF1FBC
:10054000064B10221A60064B1A78064B53F83220DD
:10055000012382F88030044A13607047C8F00F40CE
:100560006490FF1F28EE0000988BFF1F054B1A7840
:10057000054B53F83220012382F80031034A1360FF
:10058000704700BF6490FF1F28EE00003C8FFF1FE4
:1005900038B50A480A4D05F023FC0A4B0446186892
:1005A0000AF022F8014620460AF026F9014628689A
:1005B00009F066FF2860204638BD00BF788EFF1F17
:1005C000DC8CFF1F1884FF1F38B50A480A4D05F060
:1005D000A3FB0A4B044618680AF006F801462046B9
:1005E0000AF00AF90146286809F04AFF2860204607
:1005F00038BD00BF788EFF1F6890FF1F1884FF1F53
:1006000030B5ADF5B05D81B0684600214FF4B05211
:100610000AF0CEFE00246D4621462A5D05480134CD
:1006200005F00BFBB4F5B05FF6D10DF5017D0DF5CE
:10063000A05D30BD7090FF1F38B5044608460D46DA
:1006400007F0D2FA236802465B682046294698479D
:1006500038BD08B5FFF7F0FF08BD09F011B89DF8E7
:100660000010009109F018B838B5044608F0A0FF52
:100670000546204608F0BEFF401938BD38B504468F
:10068000FFF7DAFF0546204608F0B4FF281838BD0A
:1006900038B5044608F0F4FF0546204608F0AAFFE6
:1006A000281838BD37B59DF818100091044608F099
:1006B000F3FF0546204608F09DFF28183EBD406820
:1006C00000B1C0687047FFFF0D4B70B540241C603F
:1006D000322008F071FA0B4B0B4D0C4E1C600C4C89
:1006E00031462846FFF7CAFF31462046FFF7C6FFCE
:1006F000284608F07FFF2046BDE8704008F07ABF2A
:10070000C4F00F40C8F00F40B095FF1F6CE400002C
:10071000C095FF1F10B517491748184CFFF799FFF0
:1007200017481449FFF795FF236863B91549124824
:10073000FFF7A4FF12481349FFF7A0FF124B022254
:100740001A6001230DE0012B0CD110490A48FFF774
:1007500095FF0B480D49FFF791FF0D4B02221A60E0
:1007600000232360044808F045FF0548BDE8104019
:1007700008F040BF7FE40000B095FF1F6090FF1FAE
:10078000C095FF1F78E4000084F00F4094E400005F
:1007900088F00F402DE9F74F002140F6FF724E48D8
:1007A00005F08AFE4D4A0423202413602246013AB4
:1007B0007FF4FDAF4A4A4B4F1360112007F018FE3B
:1007C000494B4A4E1C6005460A2008F0F5F91120F5
:1007D00007F00EFE83466E2008F0EEF9112007F0B8
:1007E00007FE434BDFF818911C60424C82462146BD
:1007F0003846FFF72EFF21463046FFF72AFF2846EE
:1008000009F0F2FE3C4909F0F7FF09F0ADFA4FF0AC
:10081000020804460D460B462246CDF800803846B5
:10082000FFF71DFF22462B46CDF800803046FFF72C
:1008300016FF49463846FFF70CFF49463046FFF79A
:1008400008FF584609F0D0FE2B4909F0D5FF09F002
:100850008BFA04460D460B462246CDF800803846FA
:10086000FFF7FDFE22462B46CDF800803046FFF70D
:10087000F6FE49463846FFF7ECFE49463046FFF79C
:10088000E8FE504609F0B0FE1B4909F0B5FF09F03B
:100890006BFA04460B462246CDF8008038460D46DA
:1008A000FFF7DDFE2246154CCDF800802B46304682
:1008B000FFF7D5FE21463846FFF7E0FE21463046D9
:1008C000FFF7DCFE384608F095FE304603B0BDE881
:1008D000F04F08F08FBE00BF488DFF1F88F00F401B
:1008E00084F00F40B095FF1FC4F00F40C095FF1F6C
:1008F000C8F00F409AE4000000601345ABE400002C
:10090000B0EB00002DE9F34707460E460AA8002188
:10091000144698460C9D05F06EFB002840F3EA80D3
:1009200075497648FFF795FE2946744808F040FE61
:1009300073497248FFF78DFE6F497248FFF789FED1
:100940002946704808F034FE6D496E48FFF781FE75
:10095000204600210AF030F8002840F0BA802046F6
:1009600009F002FA022704460D460B46224600977C
:100970006248FFF774FE0097624822462B46FFF755
:100980006EFE306800210AF017F8002840F0AA80B7
:100990005D495A48FFF75DFE404609F0E5F9044617
:1009A00022460B46009755480D46FFF758FE56491C
:1009B0005448FFF74EFE009722462B465148FFF75A
:1009C0004EFE8FE051494D48FFF743FE21460AA8ED
:1009D00005F011FB0146494808F052FE4A494748D4
:1009E000FFF737FE49494748FFF733FE21460AA87B
:1009F00005F001FB0146434808F042FE41484249E8
:100A0000FFF727FE00254FE021460AA858F825A049
:100A100005F0F1FA09F0E8FD014650464FEA850974
:100A200009F0CAFF00283ED057F8090009F09CF9E8
:100A3000022502460B4600953048FFF710FE57F896
:100A4000090009F091F9009502460B462D48FFF781
:100A500006FE3068002109F0AFFFD8B92A492748BF
:100A6000FFF7F7FD56F8090009F07EF900950246F8
:100A70000B462248FFF7F3FD23492248FFF7E9FD23
:100A800056F8090009F070F9009502460B461D481A
:100A9000FFF7E5FD1E491948FFF7DBFD1C49194822
:100AA000FFF7D7FD02E001351A2DADD1012008F086
:100AB00083F80AA8FFF703FE0138844207D01249E1
:100AC0000E48FFF7C6FD0F480F49FFF7C2FD01347E
:100AD00002E0DFF8448000240AA8FFF7F0FD84421A
:100AE000FFF670AF0B490548FFF7B3FD054809490C
:100AF000FFF7AFFDBDE8FC871EE70000B095FF1FC4
:100B0000A6E40000C095FF1FB0EB0000A9E40000C0
:100B10009DEB0000AEE400002884FF1F10B52820E4
:100B2000002107F035FF28210A2200230A4808F097
:100B30006FFD094808F05EFD6424282007F058FC8A
:100B400001460548FFF7A4FD4FF4FA6008F034F8B9
:100B5000013CF2D110BD00BFB095FF1F012801D8A4
:100B6000FFF716BD7047012801D8FFF72DBD70476C
:100B700001282DE9F8438CBF002401240CB9032877
:100B80003DD1204805F066FC05461E4805F05BFC9B
:100B900080461C4805F050FC07461A4805F045FC05
:100BA00081464CB3184B194E1C68B5FBF4F009F0A4
:100BB00017FD0146306809F063FC3060B8FBF4F0C3
:100BC00009F00EFD124E0146306809F059FC306004
:100BD000B7FBF4F009F004FD0E4E0146306809F051
:100BE0004FFC3060B9FBF4F009F0FAFC0A4E014604
:100BF000306809F045FC30602846BDE8F883BDE860
:100C0000F88300BF7C8EFF1F1884FF1F488FFF1FD3
:100C1000588FFF1FB08EFF1FC08EFF1F2DE9F74FAB
:100C20002A4DDFF8B4B0DFF8B4A0294EDFF8B09059
:100C3000DFF8B080274C59462846FFF70AFDDAF85E
:100C4000000009F091F8022702460B46009728465B
:100C5000FFF705FD31462846FFF7FBFC49462846CD
:100C6000FFF7F7FCD8F8000009F07EF8009702467D
:100C70000B462846FFF7F3FC59462046FFF7E9FCF0
:100C8000DAF8000009F070F8009702460B4620469B
:100C9000FFF7E5FC31462046FFF7DBFC49462046DE
:100CA000FFF7D7FCD8F8000009F05EF8009702467D
:100CB0000B462046FFF7D3FC31462846FFF7C9FC18
:100CC00020463146FFF7C5FCBDE8FE8FB095FF1FFB
:100CD000B0EB0000C095FF1FB1E400009484FF1F3B
:100CE000C0E40000108BFF1F2DE9F0410D46ADF56B
:100CF0007E7D04462948DFF8B080164608F038F9B2
:100D00002946274808F034F94FF47A72002104A8E4
:100D10000AF04EFB2046002108F027FA214B1A6802
:100D20000192019D1A680292029A1F460AE03B68EE
:100D30000393039AD8F80030521B9A4202DDFFF762
:100D4000C3FC05E006F082FE10B907F057F9E8B1E0
:100D500006F07CFE002805DD06F05AFE5B2818D060
:100D60000E4808E007F04AF9002812DD07F06CF998
:100D70005B280ED00A482B2104AA4FF47A7308F09E
:100D8000F9F8204604A908F028FA02E0012ED9D18A
:100D9000CDE720460DF57E7DBDE8F081B095FF1FC3
:100DA000C095FF1F2895FF1F2084FF1FF0B5044644
:100DB00091B02248214608F0DBF82148214608F08E
:100DC000D7F82022002108A80AF0F2FA04A800218E
:100DD00008F0CBF91B4B1A680192019E1A68029227
:100DE000029A1F4606F032FE10B907F007F9C0B1AB
:100DF00007F004F9002801DD114804E006F026FEA2
:100E0000002815DD0D4808AA20232B2108F0B2F890
:100E100008A904A808F0E1F9049809F04FFE054676
:100E200006E03B680393039B9B1BA342DADDDFE7ED
:100E300004A808F059F9284611B0F0BDB095FF1F7D
:100E4000C095FF1F2895FF1F2DE9F041064690B081
:100E50002448314608F08CF82348314608F088F8D9
:100E60002022002108A80AF0A3FA04A8002108F013
:100E70007CF91E4B1A680192019F1A680292029A2D
:100E8000984606F0E3FD10B907F0B8F8C8B106F0CF
:100E9000DDFD002801DD134804E007F0AFF800286D
:100EA00017DD114808AA20232B2108F063F808A9B0
:100EB00004A808F092F9049809F0FCFD04460D46D8
:100EC00007E0D8F800300393039BDB1BB342D8DD67
:100ED000DDE704A808F008F92046294610B0BDE86F
:100EE000F08100BFB095FF1FC095FF1F2895FF1F21
:100EF00008B5064B196809F0C1FA054B196809F0E5
:100F00007BFC09F08BFD09F06FFB08BD108BFF1F08
:100F10009484FF1F2DE9F0411D4D064688460024AC
:100F2000304609F061FB014655F8240009F044FD04
:100F300030B1184B53F82450174B53F8244004E0B9
:100F400001341A2CECD1002425462046002101272B
:100F500009F032FD00B10027FFB247B92846002151
:100F6000012609F029FD00B13E46F6B266B14046C1
:100F700009F03AFB214609F081FA294609F03CFCC8
:100F800009F072FDBDE8F0813046BDE8F08100BF98
:100F90002884FF1FE08CFF1F648FFF1F73B50D4671
:100FA0000446334933481646FFF753FB2146314880
:100FB00008F0FEFA30492F48FFF74BFB2C492F4829
:100FC000FFF747FB21462D4808F0F2FA2A492B4843
:100FD000FFF73FFB286808F0C7FE022402460B46D5
:100FE00000942448FFF73BFB286808F0BDFE0094FE
:100FF00002460B462148FFF732FB21491D48FFF707
:1010000028FB1F491D48FFF724FB686808F0ACFE69
:10101000009402460B461748FFF721FB686808F06A
:10102000A3FE009402460B461448FFF718FB15492F
:101030001048FFF70EFB11481249FFF70AFB012E7B
:101040000C4805D00E49FFF719FB0C480C490CE081
:101050000D49FFF713FB0D490648FFF70FFB0A493F
:101060000648FFF70BFB05480849FFF707FB7CBD67
:101070001EE70000B095FF1F89E90000C095FF1F23
:10108000B0EB00009DEB00007DE4000076E5000081
:10109000F7B504460D462E482E491746FFF7D9FAF4
:1010A00021462B4808F084FA2B492948FFF7D1FA4A
:1010B00028492A48FFF7CDFA2146284808F078FA4F
:1010C00026482549FFF7C5FA00240226286808F0BB
:1010D0004BFE009602460B461D48FFF7C0FA55F836
:1010E000040B08F041FE009602460B461B48FFF732
:1010F000B6FA192C07D01A491548FFF7AAFA17486B
:101100001749FFF7A6FA01341A2CDFD11549104808
:10111000FFF79FFA11481349FFF79BFA012F0C487C
:1011200005D00F49FFF7AAFA0C480D490CE00E490B
:10113000FFF7A4FA0D490648FFF7A0FA0A49074845
:10114000FFF79CFA05480949FFF798FAFEBD00BF72
:10115000B095FF1F1EE7000089E90000C095FF1F42
:10116000B0EB00009DEB00007DE4000076E50000A0
:1011700010B509F039FA0B4B1968044609F088FAE2
:10118000094B196809F07CF9084B1860084B204698
:10119000196809F07DFA074B196809F071F9064BD7
:1011A000186010BD988EFF1F9C8BFF1F408FFF1F84
:1011B0009C8EFF1FA08BFF1F448FFF1F2DE9F7435D
:1011C000054638B953495448FFF743FA5348514943
:1011D000FFF73FFADFF8689151494F48DFF8648123
:1011E000504F514EFFF735FAD9F8000008F0BCFD1A
:1011F000022402460B4600944748FFF730FA4B4959
:101200004548FFF726FA4A494348FFF722FAD8F83B
:10121000000008F0A9FD009402460B463E48FFF787
:101220001EFA42493C48FFF714FA42493A48FFF790
:1012300010FA386808F098FD009402460B463648CC
:10124000FFF70DFA39493448FFF703FA3A493248B3
:10125000FFF7FFF9306808F087FD009402460B465F
:101260002D48FFF7FCF92E492C48FFF7F2F9D9F881
:10127000000008F079FD009402460B462748FFF76E
:10128000EEF92A492548FFF7E4F929492348FFF7F1
:10129000E0F9D8F8000008F067FD009402460B461C
:1012A0001E48FFF7DCF921491C48FFF7D2F9214914
:1012B0001A48FFF7CEF9386808F056FD0094024648
:1012C0000B461648FFF7CBF918491448FFF7C1F948
:1012D00019491248FFF7BDF9306808F045FD009440
:1012E00002460B460D48FFF7BAF9012D0A4807D10F
:1012F0000E49FFF7AEF90D490848FFF7AAF906E0D5
:101300000E49FFF7BBF905480C49FFF7B7F9BDE8EF
:10131000FE8300BFD5E40000B095FF1FC095FF1FFE
:10132000D7E400009C8EFF1FA08BFF1FB0EB0000D6
:10133000E3E40000F4E4000000E500007DE40000C8
:10134000988EFF1F9C8BFF1F7FB5244B1A6801925C
:10135000019D1A6802920C46029A1E461DE0072162
:101360001F4805F0A3FD322007F026FC33680393E5
:10137000039B5B1BA34210DD1A491B48FFF769F969
:1013800018491A48FFF765F919491748FFF761F935
:1013900017491648FFF75DF914E005F09FFD002896
:1013A000DDD00FE001340A2C09DD01E005F0A4FDD9
:1013B00005F094FD0028F9D100240E4D07E03220FD
:1013C00007F0FAFB05F08AFD0628EBDDF4E705F0EF
:1013D00093FD28550134072CF9D17FBD2895FF1FB7
:1013E0000884FF1F11E50000B095FF1FC095FF1F87
:1013F000B0EB0000D48FFF1F08B5C278007900EB76
:10140000022009F0EDF8034B196809F041F909F0E1
:101410002BFB08BD1084FF1F38B54FF4FA610C4850
:101420000C4DFFF791FF0C48FFF7E6FF04466420E0
:1014300007F0C2FB094B1868B4FBF0F009F0D0F8D4
:101440000146286809F01CF82860204638BD00BF16
:101450000884FF1F608EFF1FD48FFF1F1884FF1F9B
:10146000012801D8FFF7D8BF7047FFFFFFFFFFFF3C
:101470002DE9F74F7C4E304604F024FC08F062FC66
:10148000044630460D4604F017FC08F05BFC62A3EE
:10149000D3E9002308F0BCFC0022744B08F0E2FD05
:1014A0000022724B08F0DEFD002206460F46204661
:1014B00029466F4B08F0ACFC59A3D3E9002308F090
:1014C000F5FA59A3D3E9002382468B4608F0ECFADB
:1014D00057A3D3E9002304460D4608F099FC0022E7
:1014E000644B08F0E3FA54A3D3E90023804689460D
:1014F0002046294608F08CFC22462B4608F088FC42
:1015000002460B464046494608F0D0FA5A4B804600
:101510001868894608F028FC02460B4640464946B2
:1015200008F076FC46A3D3E9002308F09BFD0022D7
:10153000CDE900014D4B3046394608F093FD42A3FA
:10154000D3E90023804689462046294608F060FCFE
:101550003FA3D3E9002308F0A7FA3FA3D3E9002370
:1015600006460F462046294608F052FC22462B46E6
:1015700008F04EFC02460B463046394608F096FA13
:1015800002460B464046494608F08EFA524604464B
:101590000D465B465046594608F03AFC52465B46BB
:1015A00008F036FC52465B4608F032FC2CA3D3E927
:1015B000002306460F462046294608F029FC22460D
:1015C0002B4608F025FC02460B462046294608F02B
:1015D0006DFA1BA3D3E9002304460D46DDE90001A3
:1015E00008F040FD02460B462046294608F03AFD29
:1015F00002460B463046394608F058FA08F00AF918
:1016000008F008F906A3D3E9002308F04DFA03B067
:10161000BDE8F08FAFF30080000000000088634059
:1016200066666666661271406666666666A27240A7
:1016300079E9263108AC5C3FE446D3D15898F1BE35
:1016400000000000D0126341E43C73414320A3BE7C
:101650004DB1B49D00D4FE3E75466524BDE2333ED7
:10166000CDCCCCCCCCCC2A40548FFF1F00408F4037
:101670000000A03F0000F03F1484FF1FAFF3008084
:1016800070B5FFF7F5FE08F0A5FE04461E4804F00D
:1016900021FB4FF47A6007F08FFA20461B490126A0
:1016A00009F0B2F900B90026F6B24EB92046184941
:1016B000012509F08BF900B9354615F0FF0F13D05D
:1016C000144B154C154916481C60FEF7C2FF134910
:1016D0001448FEF7BEFF14491148FEF7BAFF12493D
:1016E0001048FEF7B6FF0DE0104B0A4D186808F0E1
:1016F0007BFF0146204609F07FF80146286808F084
:10170000BFFE2860204670BD548FFF1F00007A4442
:10171000000070C2BC8EFF1F0000C6C22FE5000093
:10172000B095FF1FC095FF1FB0EB00001884FF1F8E
:10173000012801D8FFF7A4BF704708B501E006F003
:101740003FF906F083F90028F9DC01E006F064FCBB
:1017500006F054FC0028F9DC08BDFFFFF7B54EF693
:101760006020FFF771FB04460D46B648B649FEF708
:1017700070FFB549B548FEF76CFF204629460022A8
:10178000002308F0ADFD002840F03D8202260096BF
:1017900022462B46AB48FEF762FF22462B460096B8
:1017A000AA48FEF75CFFAA49A648FEF752FFA849DF
:1017B000A648FEF74EFF06F003F906F001F9A54B27
:1017C000A04820221A6080221A6007F013FFA24965
:1017D0009C48FEF73EFF00219A48FEF759FF9948C2
:1017E0009E49FEF74BFF002640F6FE77B2B200217D
:1017F0009B4804F061FE31469248FEF72EFF944963
:101800009048FEF726FF322007F0D6F9304608F060
:1018100099FA22462B4608F049F908F093FDB842A0
:101820000646E3DD8F4B874880221A6007F0E2FE10
:1018300089498448FEF70DFF01218248FEF728FF01
:1018400080488949FEF71AFF002640F6FE77B2B2BB
:101850000121834804F030FE31467A48FEF7FDFE50
:101860007B497848FEF7F5FE322007F0A5F93046AF
:1018700008F068FA22462B4608F018F908F062FDD5
:10188000B8420646E3DD774B6E4820221A600122FB
:1018900043F8042C802243F8042C07F0ABFE6E4979
:1018A0006848FEF7D6FE00216648FEF7F1FE65485F
:1018B0006E49FEF7E3FE002640F6FE77B2B2002145
:1018C000674804F0F9FD31465E48FEF7C6FE604900
:1018D0005C48FEF7BEFE322007F06EF9304608F095
:1018E00031FA22462B4608F0E1F808F02BFDB84209
:1018F0000646E3DD5B4B534880221A6007F07AFE10
:1019000055495048FEF7A5FE01214E48FEF7C0FE9E
:101910004C485749FEF7B2FE002640F6FE77B2B2B9
:1019200001214F4804F0C8FD31464648FEF795FEB8
:1019300047494448FEF78DFE322007F03DF9304616
:1019400008F000FA22462B4608F0B0F808F0FAFC3E
:10195000B8420646E3DD434B3A48012202261A60AC
:1019600043F8046C07F046FE3B493648FEF771FE2B
:1019700031463448FEF78CFE32483E49FEF77EFE83
:10198000002640F6FE77B2B20221354804F094FDFD
:1019900031462C48FEF761FE2D492A48FEF759FED4
:1019A000322007F009F9304608F0CCF922462B46E0
:1019B00008F07CF808F0C6FCB8420646E3DD294B87
:1019C0002048102202261E6043F8442C07F012FE25
:1019D00021491C48FEF73DFE31461A48FEF758FEE5
:1019E00018482549FEF74AFE002640F6FE77B2B2B7
:1019F00002211B4804F060FD31461248FEF72DFE1F
:101A000013491048FEF725FE322007F0D5F830467E
:101A100008F098F922462B4608F048F808F092FCA6
:101A2000B8420646E3DD154B0648102201261A602F
:101A300043F8046C07F0DEFD07490248FEF709FE93
:101A400031461DE0B095FF1F5AE50000C095FF1F0D
:101A5000B0EB0000C4F00F4068E5000077E500003F
:101A6000488DFF1FC8F00F4098E50000BAE5000060
:101A7000DBE50000FDE5000011E6000088F00F4006
:101A80006A48FEF705FE69486949FEF7F7FD00263A
:101A900040F6FE77B2B20321664804F00DFD3146F0
:101AA0006248FEF7DAFD64496048FEF7D2FD322055
:101AB00007F082F8304608F045F922462B4607F039
:101AC000F5FF08F03FFCB8420646E3DD5B4B5748A4
:101AD00001261E6043F8446C07F08CFD58495348BA
:101AE000FEF7B7FD31465148FEF7D2FD4F48554944
:101AF000FEF7C4FD002640F6FE77B2B203214D4842
:101B000004F0DAFC31464948FEF7A7FD4A49474848
:101B1000FEF79FFD322007F04FF8304608F012F92B
:101B200022462B4607F0C2FF08F00CFCB8420646DE
:101B3000E3DD454B3D48402201261E60DA6307F095
:101B400059FD3F493948FEF784FD31463748FEF7D5
:101B50009FFD36483D49FEF791FD002640F6FE7791
:101B6000B2B20321334804F0A7FC31462F48FEF7F8
:101B700074FD31492D48FEF76CFD322007F01CF84A
:101B8000304608F0DFF822462B4607F08FFF08F0BA
:101B9000D9FBB8420646E3DD284B244840221A60B0
:101BA000802243F8042C07F025FD25491F48FEF745
:101BB00050FD01211D48FEF76BFD1C482449FEF72E
:101BC0005DFD002640F6FE77B2B20321194804F00D
:101BD00073FC31461548FEF740FD17491348FEF7E0
:101BE00038FD322006F0E8FF304608F0ABF8224618
:101BF0002B4607F05BFF08F0A5FBB8420646E3DD85
:101C00000E4B80221A60FFF798FD12490748FEF735
:101C100035FD11490548FEF731FD0E490F48FEF725
:101C20002DFD0D490D48FEF729FDFEBDB095FF1FA6
:101C300025E60000488DFF1FB0EB000088F00F4044
:101C400068E5000037E6000048F00F4049E6000074
:101C50005BE600007CE4000076E50000C095FF1F15
:101C600070B58EB006F0D8F9061E24DD642006F0AB
:101C7000A3FF002401AD665506F0CEF90134262CF1
:101C80000646F7D1124E0024284631688DF82A40C6
:101C9000252209F047FFC0B10E490F48FEF7D9FCD5
:101CA00031680D48FEF7EAFC0C490B48FEF7D1FC01
:101CB0000948294605E00A490748FEF7DFFC0648BF
:101CC0000849FEF7DBFC002000E001200EB070BDEB
:101CD0002484FF1F6DE60000B095FF1F90E6000012
:101CE000B3E60000E9E6000030B54949494885B04F
:101CF000FEF7AFFC46494848FEF7ABFC00226846B9
:101D00004EF66021FEF7F0FF4EF66020FFF79CF8DC
:101D100004460D460D20012106F03AFE29462046D4
:101D200008F010FB430803F1376303F5D833B3FB26
:101D3000F0F006F00DF801210D2006F0FDFD4FF446
:101D40007A7006F039FF35493348FEF782FC4FF4CC
:101D50007A7006F031FF32492F48FEF77AFC4FF4D3
:101D60007A7006F029FF2F492A48FEF772FC40F2EC
:101D7000D2412848FEF78CFC2B492748FEF769FC26
:101D800040F2D2412448FEF768FC4FF47A7006F026
:101D900013FF26491F48FEF75CFC69461D48FEF705
:101DA00063FC23491C48FEF754FC69461A4807F0B7
:101DB000FFFB4FF47A7006F0FFFE1E491548FEF750
:101DC0005DFC1D491448FEF744FC4FF47A7006F0A0
:101DD000F3FEFFF745FF18B10E481849FEF74EFC19
:101DE0000D20002106F0A8FD15490A48FEF746FC23
:101DF00013490948FEF742FC064807F0FBFB06487A
:101E000007F0F8FB684607F06FF905B030BD00BF7A
:101E100011E70000B095FF1FC095FF1F20E70000ED
:101E200023E700002EE700003DE7000044E7000044
:101E300053E700005BE7000070E7000079E700006F
:101E40007CE400002DE9F0411428884614461F4622
:101E5000069E01D002281CD12146324804F0CBF85E
:101E6000002821462F4803DD04F0C5F82E4B40E042
:101E700004F0C1F8002802DB0020BDE8F081B8F1D1
:101E8000000FF9DD3846002108F0BEFD00283FD1E3
:101E9000F2E7A0F10B03012B03D9A0F10F03012BF3
:101EA00018D82146214804F0A6F8002821461F48EA
:101EB00003DD04F0A0F81E4B1BE004F09CF80028A2
:101EC000DADAB8F1000FD7DD3846002108F09CFDC2
:101ED00000BBD1E720F004050A2DCDD111461548ED
:101EE00004F089F800282146124804DD04F083F844
:101EF000114B186012E004F07EF80028BCDAB8F14B
:101F0000000FB9DD3846002108F07EFD20B9B3E7A7
:101F1000054B02E0064B00E0074B1E600120BDE8C8
:101F2000F08100BF4C8FFF1FB88EFF1FA48EFF1FD4
:101F30008C8EFF1F908EFF1FA08EFF1F70B5044672
:101F4000142C1846049D059A01D0022C0ED1002AAB
:101F500002DD204800212AE0002937DD002108F0B9
:101F600053FD002835D01B4800212AE0A4F10B03C3
:101F7000012B06D9A4F10F06012E8CBF00260126E5
:101F80006EB1002A02DD1348032110E000291DDD97
:101F9000002108F039FDE0B10E48032111E024F0E2
:101FA00004040A2C12D1002A03DD0A48022192B24D
:101FB00008E000290CDD002108F026FD48B10548A5
:101FC0000221AAB204F078FA012070BD002070BD91
:101FD000304670BD488DFF1F10B5084C05202146C6
:101FE00006F064FC0320214606F060FC19204FF443
:101FF000F471BDE8104006F059BC00BF6CDC020073
:1020000070B506460D460024A119044803F012FEDF
:1020100028550134042CF7D1204670BD7090FF1F65
:1020200070B506460D460024A1192A5D0348013407
:1020300003F003FE042CF7D1204670BD7090FF1F03
:10204000F7B55F4E5F49604D07466048FEF701FBFC
:10205000306807F089FE022402460B4600945B4874
:10206000FEF7FDFA5A495948FEF708FB5949574807
:10207000FEF7EFFA50A3D3E9002300945348FEF78C
:10208000EEFA53495148FEF7F9FA53494F48FEF723
:10209000E0FA286807F068FE009402460B464B48B9
:1020A000FEF7DDFA4D494948FEF7E8FA474807F0E0
:1020B000A1FA44494A48FEF7CCFA306807F054FECA
:1020C000009402460B464648FEF7C9FA4049444888
:1020D000FEF7D4FA3F494248FEF7BBFA36A3D3E9EC
:1020E000002300943E48FEF7BAFA39493C48FEF70F
:1020F000C5FA39493A48FEF7ACFA286807F034FEC9
:10210000009402460B463648FEF7A9FA3349344894
:10211000FEF7B4FA324807F06DFA012F44D14EF6BB
:102120006020FEF791FE08F055F9306007F01CFEC4
:10213000009402460B462548FEF7B4FA306807F0D3
:1021400013FE009402460B462548FEF7ABFA3068B2
:10215000244908F031FC38BB31460C20FFF760FF02
:102160004EF66020FEF770FE08F034F9286007F0A4
:10217000FBFD009402460B461448FEF793FA2868CC
:1021800007F0F2FD009402460B461548FEF78AFA66
:102190002868144908F010FC30B914202946FFF7CC
:1021A0003FFF0020FFF74CFF012006F005FD03B0C4
:1021B000BDE8F040FFF7C1BAC3F5285C8FC2D53F38
:1021C000188BFF1F90E700000C8BFF1FB095FF1FBF
:1021D000B0EB00009EE70000B2E700007DE40000E5
:1021E000C095FF1F000080BF2DE9F34102ADDFF86D
:1021F000308045F8041D064617460024304608F096
:10220000F3F9014654F8080008F0D6FB18B1E019BC
:102210002946FFF705FF0434682CEFD1BDE8FC81A7
:102220002884FF1F2DE9F34102ADDFF8308045F827
:10223000041D064617460024304608F0D5F901462D
:1022400054F8080008F0B8FB18B1E0192946FFF768
:10225000E7FE0434682CEFD1BDE8FC812884FF1F21
:1022600030B540F2836085B005F072FD42F2107027
:1022700004F036FD4FF4FA70002406F09DFC0723AD
:1022800022460193504800942346214604F066FA02
:102290004E484F4D41F2883104F0F0F84D484E4918
:1022A00004F02AF84B484D4903F0F6FF214649480F
:1022B00003F0EBFF474804F083F81D20012106F0EE
:1022C00067FB0320214606F063FB0F20012106F087
:1022D0005FFB1020012106F05BFB0B20012106F0C3
:1022E00057FB0C20012106F053FB1420012106F0BE
:1022F0004FFB0220012106F04BFB0E20012106F0CE
:1023000047FB0A20012106F043FB0520012106F0CE
:102310003FFB334B80221A600620012106F038FB78
:102320001520012106F034FB1620012106F030FBB8
:102330001120214606F02CFB2A4B40221A60022372
:102340002B6001210D2006F023FB012006F026F86A
:102350002220214606F01CFB2146232006F018FB14
:10236000102005F0F1FF204B20494FF4803203206C
:102370001A6006F09BFA05201C4906F097FA172010
:10238000012106F005FB04A904232B60002341F87A
:10239000083D1020FFF734FE029807F0E5FC08A383
:1023A000D3E9002307F09CFF30B904A9104B10209B
:1023B00041F8043DFFF734FE05B030BDAFF30080B7
:1023C000C3F5285C8FC2D53F7C90FF1F488DFF1F4F
:1023D00084F00F407C8EFF1F0000484300002F4414
:1023E000C4F00F40C8F00F40148BFF1F6CDC0200DC
:1023F0007B14AE3EAFF30080F8B507460E460024CE
:1024000041F21055E119325D0348013403F015FC27
:10241000AC42F7D12046F8BD7090FF1F00B5ADF576
:10242000A85D85B010B9FEF7EBF809E00021684619
:1024300041F2105208F0BCFF3C206946FFF7DCFF78
:1024400045B00DF5A05D00BD70B506460D460024F3
:10245000A119044803F0EEFB28550134082CF7D1EC
:10246000204670BD7090FF1F70B506460D460024D3
:10247000A119044803F0DEFB28550134682CF7D17C
:10248000204670BD7090FF1F1FB50446B54900205F
:10249000FFF7B6FD0420B449FFF7B2FD0820B349A9
:1024A000FFF7AEFD0C20B249FFF7AAFD1420B14999
:1024B000FFF7A6FD1820B049FFF7A2FD1C20AF4989
:1024C000FFF79EFD2020AE49FFF79AFD2420AD497D
:1024D000FFF796FD2820AC49FFF7B6FF3C20AB493B
:1024E000FFF7C2FFB420AA49FFF7BEFFA9494FF486
:1024F0009670FFF7B9FFA8494FF4D270FFF7B4FF09
:10250000A6494FF40770FFF7AFFFA5494FF42570B8
:10251000FFF7AAFFA3494FF45C70FFF7A5FFA2499C
:102520004FF47A70FFF7A0FFA0494FF48C60FFF7DB
:102530009BFF9F494FF49B60FFF796FF9D494FF427
:10254000AA60FFF781FF9C494FF4AB60FFF77CFF67
:102550009A494FF4AC60FFF777FF99494FF4AD60AB
:10256000FFF772FF97494FF4AE60FFF76DFF4FF42E
:10257000AF609549FFF768FF012C40F05381934904
:102580009348FEF766F891499248FEF762F82046B4
:10259000FEF714FE8E4807F02DF88E4807F02AF853
:1025A0002046FEF73BFB8A4807F024F8894807F0ED
:1025B00021F88949684606F0D8FD00228749684617
:1025C000FEF766FD684606F08FFD8549684606F011
:1025D000CCFD00226D496846FEF75AFD684606F0BC
:1025E00083FD8049684606F0C0FD002268496846C0
:1025F000FEF74EFD684606F077FD7B49684606F01B
:10260000B4FD002263496846FEF742FD684606F0C5
:102610006BFD7649684606F0A8FD00225E496846D3
:10262000FEF736FD684606F05FFD7149684606F024
:102630009CFD002259496846FEF72AFD684606F0CF
:1026400053FD6C49684606F090FD002254496846E7
:10265000FEF71EFD684606F047FD6749684606F02E
:1026600084FD00224F496846FEF712FD684606F0D9
:102670003BFD6249684606F078FD00224A496846FB
:10268000FEF706FD684606F02FFD5D49684606F038
:102690006CFD002245496846FEF7FAFC684606F0E4
:1026A00023FD5849684606F060FD0022404968460F
:1026B000FEF7EEFC684606F017FD5349684606F043
:1026C00054FD002230496846FEF768FC684606F073
:1026D0000BFD4E49684606F048FD00223549684624
:1026E000FEF75CFC684606F0FFFC4949684606F0C8
:1026F0003CFD002230496846FEF750FC684606F073
:10270000F3FC4449684606F030FD00222B49684638
:10271000FEF744FC684606F0E7FC3F49684606F0D1
:1027200024FD002226496846FEF738FC684606F07C
:10273000DBFC3A49684606F018FD0022214968464C
:10274000FEF72CFC684606F0CFFC3549684606F0DB
:102750000CFD68461C492246FEF720FC684606F040
:10276000C3FC5FE01484FF1F9484FF1F108BFF1FC6
:10277000188BFF1F0C8BFF1F988EFF1F9C8BFF1F5A
:102780009C8EFF1FA08BFF1F5C8FFF1FE08CFF1F25
:10279000648FFF1FC48EFF1F308BFF1FF88FFF1F3A
:1027A000748CFF1FA48BFF1F0C8CFF1F7C8DFF1FE1
:1027B000E48DFF1F2C8FFF1FCC8FFF1F348FFF1F57
:1027C000DC8FFF1FE48FFF1FEC8FFF1FD5E400009D
:1027D000B095FF1FC095FF1FC6E700002884FF1FAC
:1027E000CFE70000E1E70000F2E700000CE800009E
:1027F00025E8000040E800005AE800006DE800000D
:1028000080E8000093E80000B6EB0000B9EA0000A1
:10281000C6EA0000D3EA0000E0EA0000EDEA0000AA
:10282000FAEA00001FBD00BF2DE9F34101204EF67A
:102830006028FFF729FE4046FEF706FB07F0CAFDB9
:10284000234F244E386007F08FFA062402460B46C9
:1028500000943046FDF703FF38681F4D07F084FAF7
:10286000009402460B462846FDF7F9FE394604203F
:10287000FFF7D6FB4046FEF7E7FA07F0ABFD174F30
:10288000386007F071FA009402460B463046FDF7B7
:10289000E6FE386807F068FA009402460B46104CD2
:1028A0002846FDF7DCFE39460820FFF7B9FB214634
:1028B0003046FDF7E3FE21462846FDF7DFFEFEF732
:1028C0003CFF012002B0BDE8F041FFF7DDBD00BFD5
:1028D0009484FF1FB095FF1FC095FF1F108BFF1F33
:1028E000A6E800002DE9F3414EF660270120FFF72E
:1028F000CBFD3846FEF7A8FA07F06CFDDFF808813B
:102900003E4EC8F8000007F02FFA022402460B469C
:1029100000943046FDF7A3FED8F80000384D07F0CC
:1029200023FA009402460B462846FDF798FE4146DE
:102930001820FFF775FB3846FEF786FA07F04AFDC8
:10294000DFF8C880C8F8000007F00EFA00940246CD
:102950000B463046FDF783FED8F8000007F004FA76
:10296000009402460B462846FDF779FE41461C209E
:10297000FFF756FB3846FEF767FA07F02BFDDFF846
:102980009080C8F8000007F0EFF9009402460B466B
:102990003046FDF764FED8F8000007F0E5F9009432
:1029A00002460B462846FDF75AFE41462020FFF717
:1029B00037FB3846FEF748FA07F00CFD114F386038
:1029C00007F0D2F9009402460B463046FDF747FE69
:1029D000386807F0C9F9009402460B462846FDF70F
:1029E0003EFE24203946FFF71BFBFEF7A6FE012022
:1029F00002B0BDE8F041FFF747BD00BFB095FF1F33
:102A0000C095FF1FA08BFF1F988EFF1F9C8BFF1F81
:102A10009C8EFF1F7FB506460120FFF735FD002481
:102A200006254EF66020FEF70FFA07F0D3FC039060
:102A300007F09AF9009502460B460C48FDF70FFE89
:102A4000039807F091F9009502460B460848FDF7F8
:102A500006FEA01903A90434FFF7E2FA082CE0D11E
:102A6000FEF76BFE0120FFF70FFD7FBDB095FF1F46
:102A7000C095FF1F2DE9F34780460120FFF704FDB5
:102A80004EF66020FEF7E0F907F05CFC06463146A2
:102A90002C48FDF7FDFD2C483146FDF7F9FD731C70
:102AA00047D04EF66020FEF7CFF907F093FC814641
:102AB00007F05AF9062704460D460B4622460097B2
:102AC0002048FDF7EFFD00971F4822462B46FDF7F3
:102AD000E9FD48461D4907F06FFF50BB4EF66020E8
:102AE000FEF7B2F907F076FC824607F03DF904469E
:102AF0000D460B46224600971248FDF7D3FD00977E
:102B0000114822462B46FDF7CDFD50460F4907F0F0
:102B100053FF70B9304649464246FFF783FB3046C3
:102B2000514608F17802FFF75FFB012006F044F8F8
:102B3000A6E7FEF702FE012002B0BDE8F047FFF76E
:102B4000A3BC00BFB095FF1FC095FF1F000080BF52
:102B50002DE9F04FAA4BAB4C04221A6085B000213E
:102B6000064640F6FF72A84803F0A6FC8025012126
:102B700040F6FF72A44803F09FFC022140F6FF726A
:102B80002560A14803F098FC032140F6FF729E489F
:102B900003F092FC9D4B1D60FEF7CFFD622E2CD101
:102BA0000020FFF771FC27464EF66020FEF74CF937
:102BB0000022974B04460D4607F092FBB8B9FEF78A
:102BC000BCFD2946204607F0E5FB002182B28E4875
:102BD00003F072FC002320462946002207F080FB08
:102BE000202310B9894A1360DEE73B60DCE7FEF77B
:102BF000A4FD844B20221A606FE0632E6DD100206B
:102C0000FFF742FC4EF66020FEF71EF907F09AFB34
:102C10008049DFF824A280467F48FDF71AFD7D49F0
:102C20007E48FDF716FD00210A46774803F044FC74
:102C300075480321002203F03FFC00275FFA88FB60
:102C400040E05AF83B3083F800410BE01FFA89F46A
:102C5000002122466C4803F02FFC6B4803212246DA
:102C600003F02AFC384607F07FF804460D4602219F
:102C7000009122462B4668480391FDF7F0FC03992A
:102C80006648009122462B46FDF7E9FC64496248FC
:102C9000FDF7DFFC62496148FDF7DBFC49465E4811
:102CA000FDF7DBFC49465D48FDF7D7FC5C495A4817
:102CB000FDF7E4FC59485A49FDF7E0FC4FF47A70FF
:102CC00005F07AFF04F0C2FE022800F3578105F0F8
:102CD00095F9022840F35D8150E10027FEF72DFDB4
:102CE000642E01D1FEF73AFDFEF727FD652E14D1C3
:102CF0004C494948FDF7ADFC48484A49FDF7A9FC55
:102D00004FF0020804F0A2FE022800F3478205F00B
:102D100075F9022840F3598140E2662E14D14249E8
:102D20003D48FDF796FC3D483F49FDF792FC4FF0CA
:102D3000020804F08BFE022800F3308205F05EF9F1
:102D4000022840F3698129E2672E14D137493248BD
:102D5000FDF77FFC31483549FDF77BFC4FF0020859
:102D600004F074FE022800F3198205F047F90228E6
:102D700040F3768112E2682E14D12D492648FDF7E2
:102D800068FC26482A49FDF764FC4FF0020804F06D
:102D90005DFE022800F3028205F030F9022840F3BC
:102DA0008181FBE1692E14D11E491B48FDF751FCBE
:102DB0001A481C49FDF74DFC4FF0020804F046FE8E
:102DC000022800F3EB8105F019F9022840F3A081F5
:102DD000E4E16A2E32D117491048FDF73AFC0E485B
:102DE0001449FDF736FC4FF0020804F02FFE0228CC
:102DF00000F3D48105F002F9022840F3AE81CDE161
:102E000088F00F40C8F00F40488DFF1FC4F00F40FE
:102E10000000F0BFA9E80000B095FF1FC095FF1F9C
:102E2000B0EB0000B9E80000CEE80000DDE80000EB
:102E3000EEE8000005E9000028EE0000731E202BDC
:102E400040D8A949A948DFF8B082FDF702FCA8489C
:102E5000A549FDF7FEFB4EF66020FDF7F5FF07F0F4
:102E600071FA411C054624D0ACB2FEF766FC002185
:102E70002246A04803F020FB012122469D4803F092
:102E80001BFB022122469B4803F016FB2246994871
:102E9000032103F011FB58F83620012382F880301B
:102EA00058F8362015B182F88030D4E782F8003126
:102EB000D1E7FEF742FC904B53F83630012283F8FD
:102EC000002135E0A6F12203032B31D8DFF83C8244
:102ED0008A4D874806F08EFB844806F08BFB4EF641
:102EE0006020FDF7B1FF07F02DFA421C1ED0102321
:102EF000C8F8003018B1400101387FF4FDAFF0B2DE
:102F000005F076FA102304462B6021467848FDF739
:102F1000A4FB21467548FDF7A0FB79497448FDF7ED
:102F200098FB77497148FDF794FBD2E7FEF705FC63
:102F3000744B04221A60384606F016FF0226044637
:102F40000D460B46224600966948FDF788FB22464F
:102F50002B4600966548FDF782FB6B496448FDF7F8
:102F60008DFB69496148FDF789FB614806F042FB2A
:102F70005E4805B0BDE8F04F06F03CBBFEF7DDFB58
:102F80005FFA88F85C4B53F83830012283F800214F
:102F9000A4E65AF83B30012483F880402046FDF730
:102FA000E7FD07F021FBFDF7A3FF074607F036FD1D
:102FB00001464046FDF7AEFF00218146384607F046
:102FC000FBFC00287FF43DAE40E60120FDF7D0FD7C
:102FD00007F00AFBFDF78CFF074606F0C5FE044626
:102FE0000D460B462246CDF800804148FDF737FBE1
:102FF00022462B46CDF800803C48FDF730FB404987
:103000003B48FDF726FB3E493848FDF722FB4FF4CD
:10301000FA6005F0D1FD75E6FEF7FEF907F0E0FA7B
:10302000074606F0A1FE044622460B46CDF8008076
:103030002F480D46FDF713FB31492D48FDF709FBDD
:1030400022462B46CDF800802848FDF708FB2C4986
:103050002648FDF7FEFA4FF4FA6005F0ADFD68E68C
:10306000FDF7B2FA074606F07FFE044622460B46FD
:10307000CDF800801E480D46FDF7F1FA20491C48A6
:10308000FDF7E7FA22462B46CDF800801748FDF7FA
:10309000E6FA1B491548FDF7DCFA4FF4FA6005F033
:1030A0008BFD5DE6FDF774FA074606F05DFE04460B
:1030B00022460B46CDF800800D480D46FDF7CFFAAD
:1030C0000F490B48FDF7C5FA22462B46CDF8008084
:1030D0000648FDF7C4FA0A490448FDF7BAFA4FF466
:1030E000FA6005F069FD52E622E90000C095FF1F75
:1030F000B095FF1F488DFF1F28EE0000C4F00F4061
:10310000B0EB000084F00F40ABE40000C8F00F40CB
:103110000120FDF72DFD07F067FA074606F024FEB3
:1031200004460D460B462246CDF800801D48FDF7AB
:1031300096FA22462B46CDF800801B48FDF78FFA01
:103140001A491848FDF785FA18491748FDF781FA1A
:103150004FF4FA6005F030FD30E6FEF791FA0746CD
:1031600006F002FE04460D460B462246CDF80080CE
:103170000C48FDF774FA22462B46CDF800800A4829
:10318000FDF76DFA09490748FDF763FA0749064854
:10319000FDF75FFAC82005F00FFD26E6FEF7CDFA31
:1031A0004CE600BFB095FF1FC095FF1FB0EB0000BD
:1031B0002DE9F04FADF51E5D8FB004AF3220002534
:1031C000C7F844D005F0F8FCAF4BC7F8F4501B68C3
:1031D0000120C7F8F830D7F8F83007F0EDFCC7F851
:1031E000A4000420C7F8FC50C7F8005107F0E4FC25
:1031F000A64BC7F8A0001B68073323F00703ADEB0D
:10320000030DA34B1B683B651B01083304ACADEBFE
:10321000030D04AEC7F8B46003E0002105F0A5FF7C
:103220000135D7F8B46006EB05103E6DB542F4D118
:10323000964B974E1A682046002108F0B9F80025F1
:1032400007E0D7F8B41001EB0510924905F0C5FF6F
:10325000013533689D42F4DB0020FFF715F98E4BF2
:1032600010251D600A2005F0A7FC8C4B8C491D60C1
:1032700007F5EC7005F079FF5CE007F5EC7006F0FF
:1032800042F8C72842F3A68302F061BB854986480D
:10329000FDF7F4F983498548FDF7F0F94AE0FDF7B9
:1032A00013FA47E0FEF720FD44E0FDF733FA41E072
:1032B000FDF770FA3EE00120FFF7E6F83AE0FFF78D
:1032C000B3FA37E000200AE0FFF70CFB32E03C20C5
:1032D00001E04FF49670FFF7CDFB2BE00120FEF7E5
:1032E000AFFE27E04FF40770F5E74FF45C70F2E7AC
:1032F0004FF48C60EFE7FDF783F91BE00120FFF747
:103300008DF817E0282010E04FF4AA600DE04FF48C
:10331000AB600AE04FF4AC6007E04FF4AD6004E04E
:103320004FF4AE6001E04FF4AF60FFF773FB01E0D4
:10333000FDF7F4FB04F06CFB5B2802F06D8304F0F6
:1033400083FE5B2842F0508302F066BB04F07CFEF3
:103350005B280CBF0225002500E0012504F030FBAE
:1033600004F05AFE012D0DD0022D58D050494E4880
:10337000FDF784F900264D484D49FDF77FF9C7F860
:10338000B060AEE048484FF4FA6105F0F1FD3F4B04
:1033900045481B6821212246002605F0EBFD41F23D
:1033A0008735C7F8B060A35D7B2B1BD104E048468E
:1033B00005F04CFF013607E0D7F8B010D7F8B4207D
:1033C0004FEA011802EB0809A15D7D29EFD1D7F87A
:1033D000B43003EB080005F039FFD7F8B010013125
:1033E000C7F8B0100136AE42DDDD002412E0D7F898
:1033F000B460302106EB041507F5067005F008FFF0
:1034000007F50671284605F044FF07F5067005F03C
:103410006BFE0134D7F8B060B442E8DB61E02348CA
:103420004FF47A7105F0A4FD184B20481B68212148
:103430002246002605F09EFD41F28735C7F8B060B0
:10344000A35D7B2B1BD104E0484605F0FFFE01364F
:1034500007E0D7F8B010D7F8B4204FEA011802EB14
:103460000809A15D7D29EFD1D7F8B43003EB08003E
:1034700005F0ECFED7F8B0100131C7F8B0100136F6
:10348000AE42DDDD002428E02895FF1F9084FF1F59
:103490001C84FF1F76E50000C8F00F40C4F00F4009
:1034A0006EE7000025E90000B095FF1FC095FF1FE3
:1034B00035E90000D7F8B460302106EB041507F5B4
:1034C000067005F0A5FE07F50671284605F0E1FE39
:1034D00007F5067005F008FE0134D7F8B060B44275
:1034E000E8DB7749774D7848FDF7B3F874497748BA
:1034F000FDF7AFF8286806F037FC022402460B46B9
:1035000000947148FDF7ABF8286806F02DFC009494
:1035100002460B466D48FDF7A2F86D496A48FDF773
:1035200098F86B496948FDF794F8009462A3D3E9D1
:1035300000236548FDF793F85FA3D3E900230094C7
:103540006248FDF78CF863496048FDF782F8002671
:103550005D486049FDF77DF8C7F88C60C7F8A86042
:103560000D26BE650126FE6507F5E2760024FE64A1
:1035700059495648FDF76DF853485749FDF769F822
:10358000002602F086B9D7F8A40007F01DFBD7F893
:103590009C603401D7F8B460331907F1FC0B9D68C7
:1035A000681C07F009FB3159C7F8A4002A4608F047
:1035B0000FFBD7F8A4600024745507F5E67007F5F3
:1035C0000A7502F049FED7F8A4102A464FF4167384
:1035D00007F5E67002F023FDD7F8A410A0420CBF57
:1035E0002A462246F86C02F078FCFE6C96E803004E
:1035F0008BE80300002802F01682C9B902F013BA62
:10360000D7F8B410314801EB04152946FDF72CF822
:1036100001342D482946FDF727F8B442F0D1FEF7D2
:103620008CF807F5EC7005F05FFD002502F07EB91F
:103630003C6707F5DE752949584602F09FFC0146B4
:1036400007F5F47005F091FD2549584602F08CFC11
:10365000002808BF0120B8622249584602F084FCC5
:10366000214B08B1186001E001221A601F49204C6B
:10367000584602F079FC1F497862584602F074FC03
:103680001D49F865584602F06FFC1C49B860584661
:1036900002F06AFC1A493862584602F065FC0028BC
:1036A00008BF0120B8641749584602F05DFC58BBBA
:1036B0000D2323602DE000BFC3F5285C8FC2D53FEA
:1036C0005BE90000188BFF1FC095FF1FB095FF1F1F
:1036D0006AE9000080E90000A9E400008DE900002B
:1036E00099E90000A0E900001884FF1FA9E9000083
:1036F0000484FF1FB8E90000C5E90000D8E9000014
:10370000E8E90000F2E900005846A84902F02CFC64
:103710002060A749584602F027FCA649F8615846A0
:1037200002F022FCA449C7F8AC00584602F01CFC89
:10373000A2493864584602F017FCA14978675846F8
:1037400002F012FC9F49B861584602F00DFC07F5E3
:10375000827807F58676C7F8BC00594640469A4AF3
:1037600002F0F4FB3046C7F8E460594607F58A7664
:10377000964A02F0EBFB3046C7F8E060594607F581
:103780008E76934A02F0E2FB3046C7F8DC60594679
:1037900007F592768F4A02F0D9FB3046C7F8D86019
:1037A000594607F596768C4A02F0D0FB3046C7F8AA
:1037B000D460594607F59A76884A02F0C7FB30462E
:1037C000C7F8D060594607F59E76854A02F0BEFBE1
:1037D0003046C7F8CC60594607F5A276814A02F018
:1037E000B5FB3046C7F8C860594607F5A6767E4A4D
:1037F00002F0ACFB3046C7F8C460594607F5AA761C
:103800007A4A02F0A3FB07F5AE7A30465946784A69
:10381000C7F8C06002F09AFB50465946754A764E8A
:1038200002F094FB07F5B2705946744A02F08EFB21
:1038300007F5B6705946724A02F088FB07F5BA7070
:103840005946704A02F082FB07F5BE7059466E4A2F
:1038500007F1E80402F07AFB07F5C27059466B4A9B
:1038600002F074FB20465946694A02F06FFB94E867
:103870000300684A86E803002046594602F066FBCA
:1038800094E80300644E654A86E8030020465946E2
:1038900002F05CFB94E80300614E624A86E8030094
:1038A00007F5C670594602F051FB07F5CA70594634
:1038B0005D4A02F04BFB07F5CE7059465B4A02F0B9
:1038C00045FB07F5D2705946594A02F03FFB0024E8
:1038D00007F5D6705946574A02F038FB7C65BC673D
:1038E00039E0214607F5B27002F085FB07F5CA7191
:1038F00081462246284602F070FB2846FCF7DFFE90
:103900007E6D00FB09667E650026B1460EE0284606
:1039100007F5CA71224602F060FB3146284602F0E4
:103920006AFB0028C8BF09F101090136284607F5DE
:10393000CA71224602F051FB2846FCF7C0FE8642BF
:10394000E5DB214607F5B27002F055FBBE6F09FBBF
:103950000066BE67013407F5B270FCF7B0FE844222
:10396000BFDBD7F8A00007F02FF90421B86F07F0EC
:10397000ADF83149C7F8A0003048FCF76AFE2E497F
:103980002F48FCF766FE0520FDF710FA01302B48A2
:103990005AD12C49FCF75DFE2A492948FCF759FE0B
:1039A00007F5F47005F0A0FB01F09ABFF2E9000002
:1039B00007EA000026EA000031EA00003BEA0000C6
:1039C00049EA000054EA00005FEA00006FEA0000E4
:1039D0007BEA00008AEA000098EA0000A6EA0000FC
:1039E000B5EA0000C2EA0000CFEA0000DCEA00000D
:1039F000E9EA0000F6EA00004C8FFF1F03EB00002D
:103A00000AEB000016EB000022EB00002EEB00009A
:103A10003AEB00004AEB0000A48EFF1F5BEB0000B6
:103A2000908EFF1F6BEB000075EB000081EB000038
:103A30008FEB000095EB0000D5E40000B095FF1F70
:103A4000C095FF1F9CEB0000B349FCF702FEB24992
:103A5000B248FCF7FEFD07F5F471B14805F0A8FD8A
:103A600007F5F471AD4805F0A3FDAE49AC48FCF78D
:103A7000F0FDAA48AB49FCF7ECFDD7F8BC30012BB0
:103A800002D11846FDF79AFB07F50674A6492046B1
:103A900005F06BFB98E80300002213468DE8030055
:103AA0000294A249A248FCF72DFF204605F01CFB1A
:103AB000A049204605F059FBD7F8E06096E80300DE
:103AC000002213468DE8030002949B499B48FCF7B3
:103AD00019FF204605F008FB9949204605F045FBF3
:103AE000D7F8DC6096E80300002213468DE8030057
:103AF000029494499448FCF705FF204605F0F4FA37
:103B00009249204605F031FBD7F8D86096E80300CB
:103B1000002213468DE8030002948D498D48FCF77E
:103B2000F1FE204605F0E0FA8B4B8C49D3F800807B
:103B30008B4B20461E6805F018FBD7F8E42092E86E
:103B400003008DE8030000204246014633460294FC
:103B5000FCF7D8FE204605F0C7FA824B8249D3F81D
:103B600000805E68204605F000FBD7F8D43093E86B
:103B700003008DE8030000204246014633460294CC
:103B8000FCF7C0FE204605F0AFFA784B7849D3F831
:103B900000805E68204605F0E8FAD7F8D02092E869
:103BA00003008DE80300002042460146334602949C
:103BB000FCF7A8FE204605F097FA6E4B6E49D3F845
:103BC00000805E68204605F0D0FAD7F8CC3093E844
:103BD00003008DE80300002042460146334602946C
:103BE000FCF790FE204605F07FFA644B6449D3F859
:103BF00000805E68204605F0B8FAD7F8C82092E841
:103C000003008DE80300002042460146334602943B
:103C1000FCF778FE204605F067FA5A4B5A49D3F86C
:103C200000805E68204605F0A0FAD7F8C43093E81B
:103C300003008DE80300002042460146334602940B
:103C4000FCF760FE204605F04FFA504B5049D3F880
:103C500000805E68204605F088FAD7F8C02092E818
:103C600003008DE8030000204246014633460294DB
:103C7000FCF748FE204605F037FA464B4649D3F894
:103C800000805E68204605F070FA9AE803008DE82F
:103C90000300002033460146424602943F4EFCF7A3
:103CA00031FE204605F020FA3368012B17DD3C4930
:103CB0001A48FCF7CEFC3A491948FCF7CAFC3168AF
:103CC0001648FCF7CAFC31681548FCF7C6FC3549B4
:103CD0001248FCF7BEFC12483249FCF7BAFC324BE2
:103CE000386C00261E60314B1E60314B1E60314B1C
:103CF0001E60314B1E60314B1E60314B1E60314BDC
:103D00001E60314B1E60314B1E60FDF731FA796F3A
:103D100030234B435CE000BF9FEB0000C095FF1FCA
:103D2000B095FF1FAFEB00005FEA0000748CFF1F2F
:103D3000F88FFF1F7BEA0000648FFF1FE08CFF1FDE
:103D40008AEA00000C8CFF1FA48BFF1F98EA00007A
:103D5000E48DFF1F7C8DFF1F9484FF1F6FEA00001E
:103D6000108BFF1F5C8FFF1FB2EB00002C8FFF1F1B
:103D7000B5EA0000CC8FFF1FC2EA0000348FFF1F9E
:103D8000CFEA0000DC8FFF1FDCEA0000E48FFF1F9A
:103D9000E9EA0000EC8FFF1FF6EA00001884FF1F1D
:103DA000BFEB0000B0EB0000AC8EFF1F6C90FF1F5C
:103DB000DC8CFF1F6890FF1FBC8EFF1F608EFF1FF3
:103DC000488FFF1F588FFF1FB08EFF1FC08EFF1F31
:103DD0000022013BFB63C7F8BC20FA67C7F88020CC
:103DE000C7F88420C7F8882007F5DA7A01F0A1BC6B
:103DF000504607F5CE71324602F0EFF850460121E9
:103E000002F0F9F88046002859D13246284607F5D5
:103E1000CE7102F0E2F84146284602F0F6F801467B
:103E2000204605F0A2F92046BC4905F040FA10F101
:103E3000000818BF4FF00108204605F055F9B8F109
:103E4000000F3CD03246284607F5CE7102F0C5F887
:103E50000121284602F0CFF8FCF780FEB04BD7F8DE
:103E6000BC101B68013B994229D1AE49DFF8DC92B6
:103E7000AD48FCF7EEFBAB49AC48FCF7EAFBD9F8E0
:103E8000000005F071FF4FF0020802460B46CDF826
:103E90000080A548FCF7E3FBA549A348FCF7D9FB44
:103EA000D9F8000005F060FFCDF8008002460B460F
:103EB0009E48FCF7D4FB9D489D49FCF7CAFB504641
:103EC00007F5CE71324602F088F85046012102F023
:103ED00092F88046002859D13246284607F5CE711F
:103EE00002F07BF84146284602F08FF80146204652
:103EF00005F03BF920468F4905F0D9F910F100088B
:103F000018BF4FF00108204605F0EEF8B8F1000F99
:103F10003CD03246284607F5CE7102F05EF801210A
:103F2000284602F068F8FCF71EFE7D4BD7F8BC204F
:103F30001B68013B9A4229D17F49DFF814927A48E5
:103F4000FCF787FB7C497948FCF783FBD9F8000034
:103F500005F00AFF4FF0020802460B46CDF800803C
:103F60007148FCF77CFB72496F48FCF772FBD9F88B
:103F7000000005F0F9FECDF8008002460B466B48C4
:103F8000FCF76DFB69486A49FCF763FB504607F58F
:103F9000CE71324602F021F85046012102F02BF892
:103FA0008046002859D13246284607F5CE7102F0E6
:103FB00014F84146284602F028F80146204605F04C
:103FC000D4F820465D4905F072F910F1000818BFD9
:103FD0004FF00108204605F087F8B8F1000F3CD0FB
:103FE0003246284607F5CE7101F0F7FF0121284639
:103FF00002F001F8FDF79CFB494BD7F8BC101B6899
:10400000013B994229D14E49DFF848914648FCF7D7
:1040100020FB4B494548FCF71CFBD9F8000005F094
:10402000A3FE4FF0020802460B46CDF800803E4842
:10403000FCF715FB3E493C48FCF70BFBD9F80000A8
:1040400005F092FECDF8008002460B463748FCF79B
:1040500006FB36483649FCF7FCFA504607F5CE71A8
:10406000324601F0BAFF5046012101F0C4FF8046FC
:1040700000287AD13246284607F5CE7101F0ADFF0F
:104080004146284601F0C1FF0146204605F06DF883
:1040900020462C4905F00BF910F1000818BF4FF02D
:1040A0000108204605F020F8B8F1000F5DD0324637
:1040B000284607F5CE7101F090FF0121284601F056
:1040C0009AFFFDF7CDF9164BD7F8BC201B68013BD2
:1040D0009A424AD11C49DFF880901348FCF7B9FA9C
:1040E00019491248FCF7B5FAD9F8000005F03CFE72
:1040F0004FF0020802460B46CDF800800A48FCF754
:10410000AEFA0B490848FCF7A4FAD9F8000005F00C
:104110002BFECDF8008002460B461FE0CBEB0000E3
:104120001884FF1FDDEB0000C095FF1FB095FF1F37
:10413000B0EB00000DEC0000F2EB000001EC000021
:1041400019EC000034EC000038EC0000DC8CFF1FA0
:104150006890FF1FBC8EFF1F608EFF1FBB48FCF7DF
:104160007EFABA48BA49FCF774FA504607F5CE71A0
:10417000324601F032FF5046012101F03CFF8046FB
:10418000002840F0E4803246284607F5CE7101F061
:1041900024FF4146284601F038FF0146204604F03E
:1041A000E4FF2046AB4905F082F810F1000818BF83
:1041B0004FF00108204604F097FFB8F1000F00F01F
:1041C000C6803246284607F5CE7101F006FF012170
:1041D000284601F010FFFCF7CBFC9F4BD7F8BC1032
:1041E0001B68013B994240F0B280DFF890929B49F6
:1041F0009B48FCF72EFA99499448FCF72AFAD9F81B
:104200000000FCF775FE05F0AFFD4FF00208024616
:104210000B46CDF800809248FCF721FA8C49904873
:10422000FCF717FAD9F80000DFF85492FCF760FEAB
:1042300005F09AFDCDF8008002460B468348FCF756
:104240000EFA83498148FCF704FA86498448FCF752
:1042500000FA84497D48FCF7FCF9D9F80000FCF726
:1042600047FE05F081FDCDF8008002460B467C48F4
:10427000FCF7F5F976497A48FCF7EBF9D9F8000034
:10428000DFF80092FCF734FE05F06EFDCDF80080FB
:1042900002460B466D48FCF7E2F96D496B48FCF7A6
:1042A000D8F971496E48FCF7D4F96F496748FCF7B3
:1042B000D0F9D9F80000FCF71BFE05F055FDCDF84C
:1042C000008002460B466648FCF7C9F9604964481D
:1042D000FCF7BFF9D9F80000DFF8AC91FCF708FE55
:1042E00005F042FDCDF8008002460B465748FCF72A
:1042F000B6F957495548FCF7ACF95C495848FCF702
:10430000A8F95A495148FCF7A4F9D9F80000FCF77C
:10431000EFFD05F029FDCDF8008002460B46504820
:10432000FCF79DF94A494E48FCF793F9D9F800008B
:10433000FCF7DEFD05F018FDCDF8008002460B46C7
:104340004248FCF78CF941484149FCF782F9504654
:1043500007F5CE71324601F040FE5046012101F0D2
:104360004AFE804600284FD13246284607F5CE71D6
:1043700001F033FE4146284601F047FE0146204643
:1043800004F0F3FE20463A4904F091FF10F10009D1
:1043900018BF4FF00109204604F0A6FEB9F1000F46
:1043A00032D03246284607F5CE7101F016FE0221C2
:1043B000284601F020FE5FFA80F94146484604F0A5
:1043C000E7FA484604F014F8234BD7F8BC201B68E2
:1043D000013B9A42804617D126492148FCF739F91A
:1043E00024491A48FCF735F941461D48FCF735F9D0
:1043F00017491B48FCF72DF941461448FCF72DF9E5
:1044000012481349FCF725F9504607F5CE7132469C
:1044100001F0E3FD5046012101F0EDFD804600284A
:1044200070D13246284607F5CE7101F0D6FD4146DF
:10443000284601F0EAFD0146204604F096FE20469B
:104440000D4904F034FF10F100091FE0B095FF1F83
:10445000B0EB000016EA00001884FF1F3FEC0000DC
:10446000C095FF1F52EC000057EC00005CEC000010
:1044700061EC00006DEC00007CEC0000488FFF1F39
:10448000588FFF1FB08EFF1FC08EFF1F18BF4FF049
:104490000109204604F028FEB9F1000F32D032465F
:1044A000284607F5CE7101F098FD0221284601F05B
:1044B000A2FD5FFA80F94146484604F069FA484691
:1044C00004F05AFAAC4BD7F8BC101B68013B994278
:1044D000804617D1A949AA48FCF7BBF8A749A948C3
:1044E000FCF7B7F84146A648FCF7B7F8A649A44838
:1044F000FCF7AFF84146A348FCF7AFF8A148A24942
:10450000FCF7A7F8504607F5CE71324601F065FD7D
:104510005046012101F06FFD8046002844D132460B
:10452000284607F5CE7101F058FD4146284601F0B6
:104530006CFD0146204604F018FE2046934904F025
:10454000B6FE10F1000818BF4FF00108204604F035
:10455000CBFDB8F1000F27D03246284607F5CE71C3
:1045600001F03BFD0221284601F045FD3246804620
:1045700007F5CE71284601F030FD0321284601F0F1
:104580003AFD5FFA88F881460121404604F000FABE
:104590007F4A52F8382019F0FF0F4FF0010314BF83
:1045A00082F8803082F80031504607F5CE713246ED
:1045B00001F013FD5046012101F01DFD8146002848
:1045C00067D13246284607F5CE7101F006FD49460F
:1045D000284601F01AFD0146204604F0C6FD20469B
:1045E0006C4904F064FE10F1000818BF4FF0010898
:1045F000204604F079FDB8F1000F4AD03246284633
:1046000007F5CE7101F0E9FC0221284601F0F3FC28
:104610003246804607F5CE71284601F0DEFC0321C4
:10462000284601F0E8FC3246844607F5CE7128465C
:10463000C7F800C001F0D1FC0421284601F0DBFCE2
:104640003246C7F8B80007F5CE71284601F0C5FC20
:104650000521284601F0CFFC5FFA88F803460121C6
:1046600040467B6004F094F94046D7F8B81004F057
:104670001DF9D7F800C04046614604F0A5F97B68F3
:10468000184604F099FA4046494604F09DF9FDF7B2
:10469000A3FC504607F5CE71324601F09EFC504611
:1046A000012101F0A8FC804600283CD13246284672
:1046B00007F5CE7101F091FC4146284601F0A5FCBA
:1046C0000146204604F051FD2046334904F0EFFD39
:1046D00010F1000918BF4FF00109204604F004FD55
:1046E000B9F1000F1FD02D492548FBF7B2FF2B4928
:1046F0002448FBF7AEFF424620462949FCF7F4FA6E
:1047000021461F4804F054FF26491D48FBF7A1FF2E
:1047100021461C4804F04CFF1A482249FBF799FF38
:10472000204604F0E1FC013600E0002607F5CE70DB
:10473000FBF7C5FF8642FFF65BABB86A03F02EFEBF
:10474000194B1868FCF7D4FBC7F8940006F066F91B
:10475000164B01461868FCF7DDFBD7F8AC60642304
:10476000704390FBF3F30026C7F89030C7F89860C9
:10477000FE66C7F8B860B2E21884FF1F89EC00003B
:10478000C095FF1FB095FF1FB0EB000099EC000033
:1047900028EE0000A7EC0000B4EC0000B9EC00002B
:1047A000C0C62D00AFEB0000488FFF1F0484FF1F21
:1047B000002E34D1D7F8B810002941D103F0C6F942
:1047C0009C4BBA6D1B689A4206D0D2B29A4B53F8F2
:1047D0003230012283F8002104F0D0F97B6F002BE6
:1047E000804608DB5A1E954B9A4204D89448954956
:1047F000FA6B04F04EFE04F0C1F9396CC8EB00000E
:104800008842F8D37A6F002A0CDB8C4B013A9A422B
:1048100008D88D49FA6B8D4804F03BFE02E0D7F8CA
:10482000B8306BB9284607F5CA71324601F0D5FB9E
:104830002846FBF744FF4FF00109C7F8A80001E044
:104840004FF00009284607F5CA71324601F0C5FB52
:10485000D7F8F430D7F8A820B3FBF2F102FB1131FE
:10486000284601F0C8FB7A4B07F5C671186032463E
:10487000284601F0B2FBD7F8F430D7F8A820B3FBF4
:10488000F2F102FB1131284601F0B5FB714BD7F86C
:10489000A8101860D7F8B8308B4280F23281002B14
:1048A00040F09C80314607F5D27001F0AEFB014626
:1048B00007F5FC7004F059FC07F5FC70664904F03C
:1048C000F6FC68B907F5FC70644904F0F0FC0028B8
:1048D00001F0BC8004E06248FCF768FA0130FAD1CC
:1048E000314607F5D67001F090FB014607F50270DE
:1048F00004F03BFC07F50270574904F0D8FC40B9BE
:1049000007F50270554904F0D2FC8046002801F0FA
:10491000F180314607F5B67001F06DFBD7F89020B5
:1049200078610092D7F89430D7F8AC103246FDF792
:1049300089FA3146B86607F5BA7001F05CFBD7F822
:104940009030386100933246D7F89430D7F8AC10E5
:10495000FDF778FA3146786607F5BE7001F04BFB3B
:10496000D7F89010F86000913246D7F89430D7F815
:10497000AC10FDF767FA3146386607F5C27001F0F2
:104980003AFBD7F890200092D7F8AC10D7F89430C3
:1049900038603246FDF756FA804607F5027004F09B
:1049A000A3FB07F5FC7004F09FFBFB6FD7F88010AA
:1049B000D7F88420FB62D7F8883039637A63BB6309
:1049C000D7F800C007F10C010EC9C7F87CC0C7F8C2
:1049D0008010C7F88420C7F8883007E04FF000083F
:1049E000C7F86080C7F86480C7F86880D7F890106F
:1049F000DFF85CC00091DCF80000D7F89430C7F80D
:104A000000C0D7F8AC103246FDF71CFAD7F800C04A
:104A1000DCF80030023B122B54D8DFE803F041539E
:104A2000535353535353472F35534D232953535304
:104A30003B0000BF0484FF1F28EE000054555505BD
:104A40004C8EFF1F410500006D0500001C8BFF1FF1
:104A50006490FF1FB48EFF1F6EE7000076E5000034
:104A6000C0C62D00654B66481A88032101F024FD5D
:104A7000624B63481A88032101F01EFD5F4B6048BA
:104A80001A88032101F018FD5C4B5D481A88032148
:104A900001F012FD5B4B5A481A88002101F00CFD11
:104AA000584B57481A88002101F006FD564B5448D0
:104AB0001A88022101F000FD534B51481A88022147
:104AC00001F0FAFC514A042313602022013A7FF4DA
:104AD000FDAF4F4A1360D7F8B830D3B91946494BE8
:104AE00047481A8801F0E8FC444B45481A880321DE
:104AF00001F0E2FC444B42481A88022101F0DCFC40
:104B000007E04FF00008C7F86080C7F86480C7F876
:104B10006880404A4049136808680028FBD0002B91
:104B2000F9D03E4B187803F063FC3D4B18603D4BC9
:104B30001022B9F1010F1A6050D1B96B3A4BCAB2C9
:104B400053F8322082F80091BA6E012A07D1D7F8C3
:104B50008810CAB2B96E53F8322082F88010796B8F
:104B6000CAB253F83230012283F800217A6E012A4A
:104B700008D1D7F88430796EDAB22B4B53F8323043
:104B800083F88010396B284BCAB2012153F83220C8
:104B900082F800113A6E8A4207D1D7F88010CAB263
:104BA000396E53F8322082F88010F96ACAB253F88D
:104BB00032300122904583F8002106D1FB6FDAB232
:104BC000194B53F8323083F88080104A0423136065
:104BD0002022013A7FF4FDAF0D4A1360B96949BB49
:104BE0000E4B1B68222B02D0232B23D101E00F4B4D
:104BF00000E00F4BD3F800801EE000BF8C8EFF1F3B
:104C0000488DFF1FB88EFF1FA08EFF1F88F00F403A
:104C100084F00F40988BFF1F3C8FFF1FB48EFF1F47
:104C2000F48FFF1FC4F00F4028EE0000408FFF1FDD
:104C3000448FFF1F4FF000085D4B1B68F3B15D4BC5
:104C4000D7F8A020F96E1B6852F821007B6005F0B0
:104C5000CBFC7B688146184605F0C6FC414605F052
:104C60000DFC0146484605F00BFC05F0D7FEFB6E37
:104C7000D7F8A02042F823000133FB6672B64E4BF2
:104C8000D7F8B8104FF00008C3F800804B4B013143
:104C9000C3F80080C7F8B81062B6D7F8F4303146D0
:104CA000013307F5B270C7F8F43001F0A4F93246C9
:104CB000814607F5CA71284601F08FF92846FBF7AF
:104CC000FEFCD7F8B82000FB09F0824202D1013681
:104CD000C7F8B880D7F898300133C7F89830D7F8BC
:104CE00098107A6D9142FFF663ADD7F89030DFF8F7
:104CF000E4800093F96901913246D7F89430D8F8EE
:104D00000000D7F8AC10FDF719F9D8F80030D7F843
:104D100088602B4A9E4205D0F1B2012652F831102C
:104D200081F80061D7F884609E4205D0F1B252F854
:104D30003120012182F80011D7F88060204A9E427C
:104D400005D0F1B2012652F8311081F80061FE6FF2
:104D50009E4205D0F1B252F83120012182F80011B3
:104D60000128174A0ED1174E042131602026013E3A
:104D70007FF4FDAFDBB2144E52F83330316083F86C
:104D8000800005E0DBB252F83330012283F80021C5
:104D90000E4804F075FB0E4804F072FB064B00262B
:104DA0001E60064B1E60C7F8F46000F0AFBC00BF89
:104DB0006490FF1FF48FFF1F988BFF1F3C8FFF1F16
:104DC00028EE000088F00F4084F00F404C8EFF1F4B
:104DD0001C8BFF1F0484FF1F504607F5CE7132461F
:104DE00001F0FBF80121504601F005F90128804649
:104DF00059D13246284607F5CE7101F0EEF8002170
:104E0000284601F002F90146204604F0AEF920469A
:104E1000BE4904F04CFA10F1000918BF4FF0010927
:104E2000204604F061F9B9F1000F3CD03246284623
:104E300007F5CE7101F0D1F84146284601F0DBF8C4
:104E4000FBF78CFEB24BD7F8BC101B68013B9942B4
:104E500029D1B049DFF8E492AF48FBF7FAFBAD493E
:104E6000AE48FBF7F6FBD9F8000004F07DFF4FF0E9
:104E7000020802460B46CDF80080A748FBF7EFFB7F
:104E8000A749A548FBF7E5FBD9F8000004F06CFF43
:104E9000CDF8008002460B46A048FBF7E0FB9F4898
:104EA0009F49FBF7D6FB504607F5CE71324601F01D
:104EB00094F80121504601F09EF80128804659D10E
:104EC0003246284607F5CE7101F087F800212846C2
:104ED00001F09BF80146204604F047F9204691492D
:104EE00004F0E5F910F1000918BF4FF00109204660
:104EF00004F0FAF8B9F1000F3CD03246284607F525
:104F0000CE7101F06AF84146284601F074F8FBF7CB
:104F10002AFE7F4BD7F8BC201B68013B9A4229D15F
:104F20008149DFF81C927C48FBF793FB7E497B4864
:104F3000FBF78FFBD9F8000004F016FF4FF00208D2
:104F400002460B46CDF800807348FBF788FB744996
:104F50007148FBF77EFBD9F8000004F005FFCDF89F
:104F6000008002460B466D48FBF779FB6B486C49A5
:104F7000FBF76FFB504607F5CE71324601F02DF876
:104F80000121504601F037F80128804659D13246B8
:104F9000284607F5CE7101F020F80021284601F0DF
:104FA00034F80146204604F0E0F820465F4904F05A
:104FB0007EF910F1000918BF4FF00109204604F0F6
:104FC00093F8B9F1000F3CD03246284607F5CE7170
:104FD00001F003F84146284601F00DF8FCF7A8FB64
:104FE0004B4BD7F8BC101B68013B994229D1504963
:104FF000DFF850914848FBF72CFB4D494748FBF739
:1050000028FBD9F8000004F0AFFE4FF0020802467A
:105010000B46CDF800804048FBF721FB40493E4855
:10502000FBF717FBD9F8000004F09EFECDF80080D6
:1050300002460B463948FBF712FB38483849FBF764
:1050400008FB504607F5CE71324600F0C6FF01213D
:10505000504600F0D0FF012880467BD132462846DA
:1050600007F5CE7100F0B9FF0021284600F0CDFF12
:105070000146204604F079F820462E4904F017F93D
:1050800010F1000918BF4FF00109204604F02CF878
:10509000B9F1000F5ED03246284607F5CE7100F018
:1050A0009CFF4146284600F0A6FFFCF7D9F9184BB3
:1050B000D7F8BC201B68013B9A424BD11E49DFF850
:1050C00088901548FBF7C5FA1B491448FBF7C1FA4D
:1050D000D9F8000004F048FE4FF0020802460B46E3
:1050E000CDF800800C48FBF7BAFA0D490A48FBF7E7
:1050F000B0FAD9F8000004F037FECDF8008002467F
:105100000B460648FBF7ABFA20E000BFCBEB0000F4
:105110001884FF1FDDEB0000C095FF1FB095FF1F37
:10512000B0EB00000DEC0000F2EB000001EC000021
:1051300019EC000034EC000038EC0000DC8CFF1FA0
:105140006890FF1FBC8EFF1F608EFF1FBD48BE49C9
:10515000FBF77FFA504607F5CE71324600F03DFF6F
:105160000121504600F047FF0128804640F0E480CE
:105170003246284607F5CE7100F02FFF0021284661
:1051800000F043FF0146204603F0EFFF2046AF4901
:1051900004F08DF810F1000918BF4FF00109204606
:1051A00003F0A2FFB9F1000F00F0C6803246284696
:1051B00007F5CE7100F011FF4146284600F01BFFB5
:1051C000FBF7D6FCA24BD7F8BC101B68013B9942F9
:1051D00040F0B280DFF89C929E499F48FBF739FA75
:1051E0009C499848FBF735FAD9F80000FBF780FE98
:1051F00004F0BAFD4FF0020802460B46CDF80080DD
:105200009548FBF72CFA90499348FBF722FAD9F816
:105210000000DFF86492FBF76BFE04F0A5FDCDF80B
:10522000008002460B468748FBF719FA86498548F5
:10523000FBF70FFA89498848FBF70BFA8749814841
:10524000FBF707FAD9F80000FBF752FE04F08CFDDB
:10525000CDF8008002460B467F48FBF700FA7A49FA
:105260007D48FBF7F6F9D9F80000DFF81092FBF75C
:105270003FFE04F079FDCDF8008002460B467148F0
:10528000FBF7EDF970496F48FBF7E3F97449724891
:10529000FBF7DFF972496B48FBF7DBF9D9F800003F
:1052A000FBF726FE04F060FDCDF8008002460B46B9
:1052B0006948FBF7D4F964496748FBF7CAF9D9F89C
:1052C0000000DFF8BC91FBF713FE04F04DFDCDF8B4
:1052D000008002460B465B48FBF7C1F95A49594822
:1052E000FBF7B7F95F495C48FBF7B3F95D495548EF
:1052F000FBF7AFF9D9F80000FBF7FAFD04F034FD35
:10530000CDF8008002460B465348FBF7A8F94E49FA
:105310005148FBF79EF9D9F80000FBF7E9FD04F0CE
:1053200023FDCDF8008002460B464648FBF797F96F
:1053300044484549FBF78DF9504607F5CE71324692
:1053400000F04BFE0121504600F055FE01284FD1E0
:105350003246284607F5CE7100F03FFE0021284670
:1053600000F053FE0146204603F0FFFE20463E4972
:1053700003F09DFF10F1000818BF4FF00108204610
:1053800003F0B2FEB8F1000F32D03246284607F5DE
:10539000CE7100F022FE0221284600F02CFE5FFABA
:1053A00080F84046002103F0F3FA404603F020F86D
:1053B000274BD7F8BC201B68013B9A42804617D187
:1053C0002A492548FBF745F928491E48FBF741F9CA
:1053D00041462148FBF741F91B491F48FBF739F9C2
:1053E00041461848FBF739F916481749FBF731F9D8
:1053F000504607F5CE71324600F0EFFD01215046D0
:1054000000F0F9FD012870D13246284607F5CE712B
:1054100000F0E3FD0021284600F0F7FD014620469C
:1054200003F0A3FE2046124903F041FF10F10008EB
:1054300018BF4FF00108204603F056FEB8F1000FE8
:1054400053D01FE0B095FF1FB0EB000016EA00003C
:105450001884FF1F3FEC0000C095FF1F52EC0000B6
:1054600057EC00005CEC000061EC00006DEC00000B
:105470007CEC0000488FFF1F588FFF1FB08EFF1F6E
:10548000C08EFF1F3246284607F5CE7100F0A5FDFD
:105490000221284600F0AFFD5FFA80F80021404667
:1054A00003F076FA404603F067FAAC4BD7F8BC102D
:1054B0001B68013B9942804617D1A949A948FBF7CF
:1054C000C8F8A749A848FBF7C4F84146A548FBF728
:1054D000C4F8A649A348FBF7BCF84146A248FBF72D
:1054E000BCF8A148A149FBF7B4F8504607F5CE71C6
:1054F000324600F072FD0121504600F07CFD01288B
:10550000804644D13246284607F5CE7100F065FD4D
:105510000021284600F079FD0146204603F025FED3
:105520002046934903F0C3FE10F1000918BF4FF065
:105530000109204603F0D8FDB9F1000F27D032460B
:10554000284607F5CE7100F048FD0221284600F0FC
:1055500052FD3246814607F5CE71284600F03DFDEA
:105560000321284600F047FD5FFA89F903464146CA
:1055700048467B6003F00CFA7B6813F0FF0F7D4B0D
:1055800053F8393014BF83F8808083F80081504687
:1055900007F5CE71324600F020FD0121504600F0A3
:1055A0002AFD0128814667D13246284607F5CE718B
:1055B00000F013FD0021284600F027FD014620469B
:1055C00003F0D3FD20466C4903F071FE10F1000892
:1055D00018BF4FF00108204603F086FDB8F1000F18
:1055E0004AD03246284607F5CE7100F0F6FC02217B
:1055F000284600F000FD3246804607F5CE71284669
:1056000000F0EBFC0321284600F0F5FC324684460E
:1056100007F5CE712846C7F800C000F0DEFC042173
:10562000284600F0E8FC3246C7F8B80007F5CE710E
:10563000284600F0D2FC0521284600F0DCFC5FFA89
:1056400088F80346494640467B6003F0A1F940468E
:10565000D7F8B81003F02AF9D7F800C040466146E1
:1056600003F0B2F97B68184603F0A6FA4046002121
:1056700003F0AAF9FCF7B0FC504607F5CE713246AC
:1056800000F0ABFC0121504600F0B5FC01283CD1F4
:105690003246284607F5CE7100F09FFC00212846CF
:1056A00000F0B3FC0146204603F05FFD204633497D
:1056B00003F0FDFD10F1000818BF4FF0010820466F
:1056C00003F012FDB8F1000F1FD02D492548FAF75D
:1056D000C0FF2B492448FAF7BCFF00222046294985
:1056E000FBF702FB21461F4803F062FF26491D48D5
:1056F000FAF7AFFF21461C4803F05AFF1A48224927
:10570000FAF7A7FF204603F0EFFC013607F5CE704D
:10571000FAF7D5FF8642FFF65FAB104BD7F8BC60B7
:105720001B6801369E42C7F8BC6002DA786AFBF754
:105730003DFBDFF82880D7F8BC60D8F800309E42E7
:10574000FEF6F3AF11490748FAF783FF06480F4901
:10575000FAF77FFF0026444637E000BF1884FF1F9A
:1057600089EC0000C095FF1FB095FF1FB0EB000053
:1057700099EC000028EE0000A7EC0000B4EC00005B
:10578000B9EC0000C0C62D00AFEB0000C2EC000079
:10579000D7F8A010BF4851F82680216898FBF1F196
:1057A00003F06EFF2168BC4898FBF1F103F068FF3D
:1057B000BA6F531E9E4207D0B849B648FAF749FF60
:1057C000B548B649FAF745FF0136BB6F9E42DFDBAD
:1057D000B349B148FAF752FFAE48B149FAF74EFF64
:1057E000D7F8B060721EBE6C731E3E6F9E4203DB24
:1057F000D7F89C6096420EDAA849A648FAF729FF26
:10580000A649A548FAF725FF3E6A4FF47A7070431F
:10581000FBF7CCFA0EE0D7F89C6096420AD13E6FB7
:105820009E4207D19F499B48FAF713FF9A489D492A
:10583000FAF70FFF9C4B01221A609C4A0023136069
:105840009B4A13609B4A13609B4A13609B4B002149
:1058500019609B4B19609B4B19609B4B19609B4BCC
:1058600019609B4B19609B4B19609B4B19609B4BBC
:105870001B6807F5F470BB6503F036FC3E6FB96C2E
:1058800001368E423E67FDF6D6AED7F89C60BC6806
:105890000136C7F89C60D7F89C60D7F8B0108E42EC
:1058A000FDF671AEFBF749FFFE6D731ED7F88C60F5
:1058B0009E420CDA79497748FAF7CBFE7648774969
:1058C000FAF7C7FE4FF47A706043FBF76FFAD7F828
:1058D0008C60F96D01368E42C7F88C60FDF648AEDB
:1058E0006F496C48FAF7CAFE7D496A48FAF7C6FE66
:1058F0006B496948FAF7C2FE79496748FAF7BEFE74
:10590000764B784A1978D7F8A00052F83120012553
:1059100082F800510D221A6005F056F9D7F8A4005C
:1059200005F052F907F5EC7003F0DEFBD7F8B41080
:105930003E6D01EB0614D7F8B460B44204D0103CBD
:10594000204603F0D1FBF6E77E6CB5460EE107F585
:10595000EC7003F0D8FCA0F57A701A283DF6EAAC9A
:1059600001A151F820F000BF8D3200009F320000ED
:10597000A5320000AB320000B1320000B7320000A7
:10598000BF320000C5320000C932000035330000CC
:1059900035330000CF320000D3320000DD3200008A
:1059A000E5320000EB320000F1320000F732000077
:1059B000FD32000005330000093300000F33000002
:1059C000153300001B330000213300002733000093
:1059D0003133000007F5EC7003F095FCFDF7B8F8E3
:1059E000FBF7ABFEFDF7A6BC0122322107F50670DE
:1059F000FBF77AF907F5067107F5EC7003F0E5FBA4
:105A000007F5067003F070FB07F5EC7003F07BFC04
:105A100000283DF732AC9AE701F0FAFF5B287DF4ED
:105A200095ACFDF79ABC1B4803F0E4FD1A4803F05F
:105A3000E1FD2D491748FAF721FE17482A49FAF7E0
:105A40001DFE002441F28836FDF7DABD27491248D1
:105A5000FAF7FFFD25490F48FAF7FBFD314607F538
:105A6000D27000F0D2FA01460B48FAF7F2FD314647
:105A700007F5D27000F0C9FA01460648FAF7E9FDC9
:105A80001B490548FAF7E5FD19490248FAF7E1FD17
:105A9000FEF721BFB095FF1FC095FF1FB0EB0000C0
:105AA000ABE400009DEB00001884FF1FB48EFF1FC5
:105AB000B88EFF1F8C8EFF1FA08EFF1FDC8CFF1F78
:105AC0006890FF1FBC8EFF1F608EFF1F488FFF1F57
:105AD000588FFF1FB08EFF1FC08EFF1F0484FF1F53
