:1000000000800020BD01000089930000899300005A
:1000100089930000899300008993000055930000A4
:1000200055930000559300005593000089930000FC
:1000300089930000559300008993000045930000C8
:100040008993000089930000899300008993000040
:100050008993000089930000899300008993000030
:100060008993000089930000899300008993000020
:100070008993000089930000899300008993000010
:100080008993000089930000899300008993000000
:1000900089930000157D000089930000899300007A
:1000A000356E000089930000899300008993000059
:1000B00089930000899300008993000089930000D0
:1000C00089930000899300008993000089930000C0
:1000D00089930000899300008993000089930000B0
:1000E00089930000899300008993000089930000A0
:1000F00089930000858900008993000021AC0000ED
:1001000089930000ED84000089930000899300002A
:10011000899300008993000089930000899300006F
:10012000899300008993000089930000899300005F
:10013000899300008993000089930000899300004F
:10014000899300008993000089930000899300003F
:1001500049A3000061A3000079A3000091A300005F
:1001600089930000018C00008993000089930000AE
:10017000899300008993000089930000899300000F
:1001800089930000899300008993000089930000FF
:100190008993000089930000899300006D95000009
:1001A000BD9500004596000001970000859700006E
:1001B000899300008993000089930000544B4CF20E
:1001C000205210B51A804DF628121A8000BF00BFC9
:1001D00007F0E4FD4F4B4FF010621A604E4A9A60F0
:1001E0004E4ADA604E4B1A6812F4807204D14D49BF
:1001F0000A604FF4A8521A604B4B1A7802F00802BA
:10020000D2B21AB11A7842F008021A70474B484825
:10021000484C2A221A700023474A02E01959995083
:10022000043399188142F9D3444B454A002101E037
:1002300043F8041B9342FBD34249434800231A5816
:100240005A500433B3F5DE7FF9D1404B404A802148
:1002500003F8011B9342FBD13A4A3E4B1A603E4BD6
:100260000A221A703D4B24221A70A02203F8012C96
:100270003B4A137803F00203DBB2002BF9D0384A73
:10028000137803F01003DBB2002BF9D1344A137852
:1002900003F00C03082BFAD1324B03221A704022D0
:1002A0005A702F4A137803F02003DBB2002BF9D0E9
:1002B0002B4A137803F04003DBB2002BF9D02A4B12
:1002C0002A4A1A6002225A60294B20221A70244AB4
:1002D000137803F00C030C2BFAD1264A264B1A6034
:1002E000264B274A1A60072243F8042C62B609F00D
:1002F0001FFC0C4B1B68DC0702D5224809F05AFA98
:100300000BF0A2FE09F043F809F06EFEFEE700BF15
:100310000E20054030800440823F04000100002B85
:1003200010D0034014D0034002D0074000E0074043
:100330005490FF1F5C0901006089FF1F5490FF1F4C
:10034000DC9CFF1F0084FF1F0000000000E400E0B1
:100350005FE400E008ED00E0005006400140064088
:10036000064006400440064044800440000003016B
:1003700000400640C01005000480044014E000E086
:10038000FF7601002531CA54FFFFFFFFFFFFFFFF8B
:10039000FFFFFFFFFFFFFFFFFFFFFFFFFFFFFFFF6D
:1003A000FFFFFFFFFFFFFFFFFFFFFFFFFFFFFFFF5D
:1003B000FFFFFFFFFFFFFFFFFFFFFFFFFFFFFFFF4D
:1003C000FFFFFFFFFFFFFFFFFFFFFFFFFFFFFFFF3D
:1003D000FFFFFFFFFFFFFFFFFFFFFFFFFFFFFFFF2D
:1003E000FFFFFFFFFFFFFFFFFFFFFFFFFFFFFFFF1D
:1003F000FFFFFFFFFFFFFFFFFFFFFFFFFFFFFFFF0D
:10040000FFFFFFFFFFFFFFFFFFFFFFFFFEFFFFFFFD
:1004100008B549F25400074BC1F6FF701B1A062BB2
:1004200000D808BD40F20003C0F20003002BF8D052
:100430009847F6E75790FF1F08B549F2540049F274
:100440005403C1F6FF70C1F6FF731B1A9B1003EB38
:10045000D373591000D108BD40F20002C0F200026F
:10046000002AF8D09047F6E710B549F25404C1F6D7
:10047000FF74237873B9FFF7CBFF40F20003C0F29B
:1004800000032BB140F65C10C0F20100AFF3008016
:100490000123237010BD00BF08B540F20003C0F275
:1004A00000034BB140F65C1049F25801C0F2010064
:1004B000C1F6FF71AFF3008049F25400C1F6FF703E
:1004C00003682BB140F20003C0F2000303B1984768
:1004D000BDE80840B0E700BF024B4FF400121A60BD
:1004E000704700BF80E100E010B5044609F0EAFF64
:1004F000204610BD70B503460D46164607481946FE
:100500002A4606F013FF002404E0044806F076FBB8
:1005100030550134E3B2AB42F7D370BDE495FF1F11
:10052000034670B509480D4619461646002406F0E4
:10053000FFFD03E0315D06F01FFB0134E3B2AB4287
:100540000248F7D3BDE8704006F007BFE495FF1FEF
:10055000064B10221A60064B1A78064B53F83220CD
:10056000012382F88030044A13607047C8F00F40BE
:10057000CC95FF1FE8030100F490FF1F054B1A788C
:10058000054B53F83220012382F80031034A1360EF
:10059000704700BFCC95FF1FE8030100A094FF1F28
:1005A00038B50A480A4D05F06FFF0A4B0446186833
:1005B0000BF08EFA014620460BF092FB01462868AC
:1005C0000BF0D2F92860204638BD00BFD893FF1F3A
:1005D0003C92FF1F7889FF1F38B50A480A4D05F085
:1005E000EFFE0A4B044618680BF072FA01462046EB
:1005F0000BF076FB014628680BF0B6F92860204620
:1006000038BD00BFD893FF1FD095FF1F7889FF1F0B
:1006100030B5ADF5B05D81B0684600214FF4B05201
:100620000CF03AF900246D4621462A5D0548013454
:1006300005F059FEB4F5B05FF6D10DF5017D0DF56D
:10064000A05D30BDD895FF1F38B5044608460D465D
:1006500007F0A2FF236802465B68204629469847B8
:1006600038BD08B5FFF7F0FF08BD0AF083B89DF864
:10067000001000910AF088B838B504460AF012F864
:10068000054620460AF030F8401938BD38B5044612
:10069000FFF7DAFF054620460AF026F8281838BD8D
:1006A00038B504460AF066F8054620460AF01CF8FC
:1006B000281838BD37B59DF81810009104460AF087
:1006C00063F8054620460AF00FF828183EBD40683A
:1006D00000B1C0687047FFFF0D4B70B540241C602F
:1006E000322009F00FFA0B4B0B4D0C4E1C600C4CDA
:1006F00031462846FFF7CAFF31462046FFF7C6FFBE
:10070000284609F0F1FF2046BDE8704009F0ECBF33
:10071000C4F00F40C8F00F40009BFF1F54F90000C9
:10072000C49AFF1F10B517491748184CFFF799FFD7
:1007300017481449FFF795FF236863B91549124814
:10074000FFF7A4FF12481349FFF7A0FF124B022244
:100750001A6001230DE0012B0CD110490A48FFF764
:1007600095FF0B480D49FFF791FF0D4B02221A60D0
:1007700000232360044809F0B7FF0548BDE8104096
:1007800009F0B2BF67F90000009BFF1FC495FF1F6F
:10079000C49AFF1F60F9000084F00F407CF900004C
:1007A00088F00F402DE9F74F002140F6FF724D48C9
:1007B00006F0D6F94C4A0423202413602246013A5D
:1007C000FDD14A4A4A4F1360112009F0C3FA494B40
:1007D000494E1C6005460A2009F094F9112009F0E1
:1007E000B9FA83466E2009F08DF9112009F0B2FAAA
:1007F000424BDFF818911C60414C82462146384636
:10080000FFF72FFF21463046FFF72BFF28460BF05E
:100810005FF93C490BF064FA0AF01AFD4FF0020848
:1008200004460D460B462246CDF800803846FFF7B9
:100830001EFF22462B46CDF800803046FFF717FFFB
:1008400049463846FFF70DFF49463046FFF709FF96
:1008500058460BF03DF92B490BF042FA0AF0F8FC30
:1008600004460D460B462246CDF800803846FFF779
:10087000FEFE22462B46CDF800803046FFF7F7FEFD
:1008800049463846FFF7EDFE49463046FFF7E9FE98
:1008900050460BF01DF91B490BF022FA0AF0D8FC68
:1008A00004460B462246CDF8008038460D46FFF739
:1008B000DEFE2246144CCDF800802B463046FFF772
:1008C000D6FE21463846FFF7E1FE21463046FFF7C7
:1008D000DDFE384609F008FF304603B0BDE8F04FB2
:1008E00009F002BFA892FF1F88F00F4084F00F406C
:1008F000009BFF1FC4F00F40C49AFF1FC8F00F40B9
:1009000082F900000060134593F90000C000010067
:100910002DE9F34707460E460AA8002114469846DB
:100920000C9D05F038FE002840F3EA8075497648B2
:10093000FFF797FE2946744809F0B4FE73497248E0
:10094000FFF78FFE6F497248FFF78BFE294670480C
:1009500009F0A8FE6D496E48FFF783FE204600218E
:100960000BF09EFA002840F0BA8020460AF070FC96
:10097000022704460D460B46224600976248FFF7C1
:1009800076FE0097624822462B46FFF770FE3068DD
:1009900000210BF085FA002840F0AA805D495A48F2
:1009A000FFF75FFE40460AF053FC044622460B4622
:1009B000009755480D46FFF75AFE56495448FFF731
:1009C00050FE009722462B465148FFF750FE8FE01D
:1009D00051494D48FFF745FE21460AA805F0DBFDC9
:1009E0000146494809F0C6FE4A494748FFF739FE23
:1009F00049494748FFF735FE21460AA805F0CBFDD7
:100A00000146434809F0B6FE41484249FFF729FE36
:100A100000254FE021460AA858F825A005F0BBFDA7
:100A20000BF056F8014650464FEA85090BF038FAAC
:100A300000283ED057F809000AF00AFC02250246B9
:100A40000B4600953048FFF712FE57F809000AF0F0
:100A5000FFFB009502460B462D48FFF708FE306865
:100A600000210BF01DFAD8B92A492748FFF7F9FDF4
:100A700056F809000AF0ECFB009502460B462248A6
:100A8000FFF7F5FD23492248FFF7EBFD56F8090073
:100A90000AF0DEFB009502460B461D48FFF7E7FD16
:100AA0001E491948FFF7DDFD1C491948FFF7D9FD1C
:100AB00002E001351A2DADD1012009F023F80AA872
:100AC000FFF705FE0138844207D012490E48FFF7B0
:100AD000C8FD0F480F49FFF7C4FD013402E0DFF8FD
:100AE000448000240AA8FFF7F2FD8442FFF670AFAD
:100AF0000B490548FFF7B5FD05480949FFF7B1FD6A
:100B0000BDE8FC8703FC0000009BFF1F8EF900007E
:100B1000C49AFF1FC000010091F900000602010005
:100B2000250201008889FF1F10B52820002108F048
:100B3000D5FE28210A2200230A4809F0E3FD0948CE
:100B400009F0D2FD6424282009F004F90146054883
:100B5000FFF7A6FD4FF4FA6008F0D4FF013CF2D194
:100B600010BD00BF009BFF1F012801D8FFF718BD73
:100B70007047012801D8FFF72FBD704701282DE9E4
:100B8000F8438CBF002401240CB903283DD1204830
:100B900005F0B4FF05461E4805F0A9FF80461C4835
:100BA00005F09EFF07461A4805F093FF81464CB3B7
:100BB000184B194E1C68B5FBF4F00AF085FF01468E
:100BC00030680AF0D1FE3060B8FBF4F00AF07CFF28
:100BD000124E014630680AF0C7FE3060B7FBF4F0F1
:100BE0000AF072FF0E4E014630680AF0BDFE30601A
:100BF000B9FBF4F00AF068FF0A4E014630680AF0CB
:100C0000B3FE30602846BDE8F883BDE8F88300BF36
:100C1000DC93FF1F7889FF1FAC94FF1FB894FF1F60
:100C20001094FF1F2094FF1F2DE9F74F2A4DDFF886
:100C3000B4B0DFF8B4A0294EDFF8B090DFF8B08090
:100C4000274C59462846FFF70CFDDAF800000AF059
:100C5000FFFA022702460B4600972846FFF707FDDA
:100C600031462846FFF7FDFC49462846FFF7F9FCC8
:100C7000D8F800000AF0ECFA009702460B46284626
:100C8000FFF7F5FC59462046FFF7EBFCDAF80000C9
:100C90000AF0DEFA009702460B462046FFF7E7FC13
:100CA00031462046FFF7DDFC49462046FFF7D9FCD8
:100CB000D8F800000AF0CCFA009702460B4620460E
:100CC000FFF7D5FC31462846FFF7CBFC20463146DE
:100CD000FFF7C7FCBDE8FE8F009BFF1FC0000100AF
:100CE000C49AFF1F96F90000F489FF1FA5F90000C0
:100CF000C895FF1F2DE9F0410D46ADF57E7D0446F8
:100D00002948DFF8B080164609F018FC2946274824
:100D100009F014FC4FF47A72002104A80BF0BCFD1A
:100D20002046002109F0A9F9214B1A680192019D82
:100D30001A680292029A1F460AE03B680393039ADC
:100D4000D8F80030521B9A4202DDFFF7C5FC05E0DF
:100D500007F094F910B907F0BDFDE8B107F08EF97E
:100D6000002805DD07F06CF95B2818D00E4808E074
:100D700007F0B0FD002812DD07F0D2FD5B280ED091
:100D80000A482B2104AA4FF47A7309F0D9FB2046B4
:100D900004A909F0AAF902E0012ED9D1CDE7204635
:100DA0000DF57E7DBDE8F081009BFF1FC49AFF1FFB
:100DB000B89AFF1F8089FF1FF0B5044691B0224802
:100DC000214609F0BBFB2148214609F0B7FB202250
:100DD000002108A80BF060FD04A8002109F04DF9DE
:100DE0001B4B1A680192019E1A680292029A1F46D2
:100DF00007F044F910B907F06DFDC0B107F06AFDC6
:100E0000002801DD114804E007F038F9002815DD5D
:100E10000D4808AA20232B2109F092FB08A904A859
:100E200009F063F904980BF0BDF8054606E03B684D
:100E30000393039B9B1BA342DADDDFE704A809F0C1
:100E4000DBF8284611B0F0BD009BFF1FC49AFF1FBE
:100E5000B89AFF1F2DE9F041064690B0244831466C
:100E600009F06CFB2348314609F068FB2022002181
:100E700008A80BF011FD04A8002109F0FEF81E4B94
:100E80001A680192019F1A680292029A984607F026
:100E9000F5F810B907F01EFDC8B107F0EFF800280B
:100EA00001DD134804E007F015FD002817DD1148A7
:100EB00008AA20232B2109F043FB08A904A809F064
:100EC00014F904980BF06AF804460D4607E0D8F8C8
:100ED00000300393039BDB1BB342D8DDDDE704A89E
:100EE00009F08AF82046294610B0BDE8F08100BF1D
:100EF000009BFF1FC49AFF1FB89AFF1F08B5064B3F
:100F000019680AF02FFD054B19680AF0E9FE0AF08E
:100F1000F9FF0AF0DDFD08BDC895FF1FF489FF1F2A
:100F20002DE9F041314D06468846002430460AF04E
:100F3000CFFD014655F824000AF0B2FF002830D05A
:100F40002B4B53F824602B4B53F824702A4B53F847
:100F500024502A4B304653F824100AF003FD314642
:100F60000AF0BEFE014628460AF006FE0146284663
:100F70000AF0FAFC224B53F82460224B054653F842
:100F8000241038460AF0EEFC39460AF0A9FE014664
:100F900030460AF0F1FD014630460AF0E5FC044611
:100FA00004E001341A2CC1D100242546204600213A
:100FB00001270AF075FF00B10027FFB247B92846A4
:100FC000002101260AF06CFF00B13E46F0B250B19C
:100FD00040460AF07DFD21460AF0C4FC29460AF08D
:100FE0007FFE0AF0B5FFBDE8F08100BF8889FF1FD2
:100FF0002894FF1F7490FF1FDC92FF1F4092FF1F79
:101000004493FF1FC494FF1F73B50D460446334934
:1010100033481646FFF725FB2146314809F042FBCD
:1010200030492F48FFF71DFB2C492F48FFF719FBCC
:1010300021462D4809F036FB2A492B48FFF711FBC2
:1010400028680AF005F9022402460B460094244859
:10105000FFF70DFB28680AF0FBF8009402460B46E8
:101060002148FFF704FB21491D48FFF7FAFA1F4901
:101070001D48FFF7F6FA68680AF0EAF8009402469D
:101080000B461748FFF7F3FA68680AF0E1F8009496
:1010900002460B461448FFF7EAFA15491048FFF7D5
:1010A000E0FA11481249FFF7DCFA012E0C4805D08E
:1010B0000E49FFF7EBFA0C480C490CE00D49FFF71D
:1010C000E5FA0D490648FFF7E1FA0A490648FFF735
:1010D000DDFA05480849FFF7D9FA7CBD03FC00009A
:1010E000009BFF1FF8010100C49AFF1FC000010010
:1010F0000602010065F900005BFA0000F7B504463E
:101100000D462E482E491746FFF7ABFA21462B48CD
:1011100009F0C8FA2B492948FFF7A3FA28492A48B9
:10112000FFF79FFA2146284809F0BCFA26482549CE
:10113000FFF797FA0024022628680AF089F800963B
:1011400002460B461D48FFF792FA55F8040B0AF0C9
:101150007FF8009602460B461B48FFF788FA192CC9
:1011600007D01A491548FFF77CFA17481749FFF7C7
:1011700078FA01341A2CDFD115491048FFF771FABB
:1011800011481349FFF76DFA012F0C4805D00F499C
:10119000FFF77CFA0C480D490CE00E49FFF776FA90
:1011A0000D490648FFF772FA0A490748FFF76EFA39
:1011B00005480949FFF76AFAFEBD00BF009BFF1F03
:1011C00003FC0000F8010100C49AFF1FC0000100E9
:1011D0000602010065F900005BFA000010B50AF094
:1011E00077FC0B4B196804460AF0C6FC094B1968DA
:1011F0000AF0BAFB084B1860084B204619680AF041
:10120000BBFC074B19680AF0AFFB064B186010BD1A
:10121000F893FF1FF890FF1FA494FF1FFC93FF1F7C
:101220005495FF1FA894FF1F2DE9F743054638B9D1
:1012300053495448FFF715FA53485149FFF711FA3B
:10124000DFF8689151494F48DFF86481504F514EA3
:10125000FFF707FAD9F8000009F0FAFF0224024666
:101260000B4600944748FFF702FA4B494548FFF701
:10127000F8F94A494348FFF7F4F9D8F8000009F0B3
:10128000E7FF009402460B463E48FFF7F0F942495B
:101290003C48FFF7E6F942493A48FFF7E2F9386877
:1012A00009F0D6FF009402460B463648FFF7DFF9F7
:1012B00039493448FFF7D5F93A493248FFF7D1F9AF
:1012C000306809F0C5FF009402460B462D48FFF731
:1012D000CEF92E492C48FFF7C4F9D9F8000009F0DF
:1012E000B7FF009402460B462748FFF7C0F92A498A
:1012F0002548FFF7B6F929492348FFF7B2F9D8F88E
:10130000000009F0A5FF009402460B461E48FFF7B7
:10131000AEF921491C48FFF7A4F921491A48FFF703
:10132000A0F9386809F094FF009402460B4616486D
:10133000FFF79DF918491448FFF793F91949124826
:10134000FFF78FF9306809F083FF009402460B46DF
:101350000D48FFF78CF9012D0A4807D10E49FFF718
:1013600080F90D490848FFF77CF906E00E49FFF7C0
:101370008DF905480C49FFF789F9BDE8FE8300BFE8
:10138000BAF90000009BFF1FC49AFF1FBCF90000C0
:10139000FC93FF1F5495FF1FC0000100C8F9000017
:1013A000D9F90000E5F9000065F90000F893FF1F86
:1013B000F890FF1F7FB5244B1A680192019D1A68AF
:1013C00002920C46029A1E461DE007211F4807F0B4
:1013D0001FF8322008F096FB33680393039B5B1BD6
:1013E000A34210DD1A491B48FFF73BF918491A4878
:1013F000FFF737F919491748FFF733F91749164826
:10140000FFF72FF914E007F02BF80028DDD00FE0EC
:1014100001340A2C09DD01E007F030F807F020F86C
:101420000028F9D100240E4D07E0322008F06AFBB5
:1014300007F016F80628EBDDF4E707F01FF828554B
:101440000134072CF9D17FBDB89AFF1F6889FF1FAF
:10145000F6F90000009BFF1FC49AFF1FC0000100A7
:101460003495FF1F08B5C278007900EB02200AF01E
:101470002BFB034B19680AF07FFB0AF069FD08BDDE
:101480007089FF1F38B54FF4FA610C480C4DFFF717
:1014900091FF0C48FFF7E6FF0446642008F032FB9A
:1014A000094B1868B4FBF0F00AF00EFB01462868FF
:1014B0000AF05AFA2860204638BD00BF6889FF1F2D
:1014C000C093FF1F3495FF1F7889FF1F012801D8A3
:1014D000FFF7D8BF7047FFFF2DE9F74F7C4E30462E
:1014E00004F046FF09F0A2FE044630460D4604F023
:1014F00039FF09F09BFE62A3D3E9002309F0FCFE4B
:101500000022744B0AF022F80022724B0AF01EF8F7
:10151000002206460F46204629466F4B09F0ECFE96
:1015200059A3D3E9002309F035FD59A3D3E90023DA
:1015300082468B4609F02CFD57A3D3E900230446CD
:101540000D4609F0D9FE0022644B09F023FD54A397
:10155000D3E90023804689462046294609F0CCFE7F
:1015600022462B4609F0C8FE02460B464046494635
:1015700009F010FD5A4B80461868894609F068FE4C
:1015800002460B464046494609F0B6FE46A3D3E95B
:10159000002309F0DBFF0022CDE900014D4B30466E
:1015A000394609F0D3FF42A3D3E900238046894698
:1015B0002046294609F0A0FE3FA3D3E9002309F005
:1015C000E7FC3FA3D3E9002306460F462046294601
:1015D00009F092FE22462B4609F08EFE02460B468B
:1015E0003046394609F0D6FC02460B46404649468D
:1015F00009F0CEFC524604460D465B46504659461D
:1016000009F07AFE52465B4609F076FE52465B468A
:1016100009F072FE2CA3D3E9002306460F462046AC
:10162000294609F069FE22462B4609F065FE02466E
:101630000B462046294609F0ADFC1BA3D3E9002345
:1016400004460D46DDE9000109F080FF02460B4625
:101650002046294609F07AFF02460B4630463946B5
:1016600009F098FC09F04AFB09F048FB06A3D3E90E
:10167000002309F08DFC03B0BDE8F08FAFF30080CC
:10168000000000000088634066666666661271406E
:101690006666666666A2724079E9263108AC5C3FF0
:1016A000E446D3D15898F1BE00000000D012634147
:1016B000E43C73414320A3BE4DB1B49D00D4FE3E33
:1016C00075466524BDE2333ECDCCCCCCCCCC2A4093
:1016D000B494FF1F00408F400000A03F0000F03F87
:1016E0007489FF1FAFF3008070B5FFF7F5FE0AF0B5
:1016F000E5F804461E4804F043FE4FF47A6008F013
:1017000001FA20461B4901260AF0F2FB00B9002627
:10171000F6B24EB92046184901250AF0CBFB00B9B4
:10172000354615F0FF0F13D0144B154C15491648CC
:101730001C60FEF796FF13491448FEF792FF144908
:101740001148FEF78EFF12491048FEF78AFF0DE0A0
:10175000104B0A4D18680AF0BBF9014620460AF002
:10176000BFFA014628680AF0FFF82860204670BDDD
:10177000B494FF1F00007A44000070C21C94FF1F45
:101780000000C6C214FA0000009BFF1FC49AFF1F8E
:10179000C00001007889FF1F012801D8FFF7A4BF0E
:1017A000704708B501E006F023FC06F067FC00284E
:1017B000F9DC01E007F09CF807F08CF80028F9DC70
:1017C00008BDFFFFF7B54EF66020FFF743FB044668
:1017D0000D46B648B649FEF744FFB549B548FEF791
:1017E00040FF204629460022002309F0EDFF002893
:1017F00040F03D820226009622462B46AB48FEF77B
:1018000036FF22462B460096AA48FEF730FFAA492B
:10181000A648FEF726FFA849A648FEF722FF06F0D5
:10182000E7FB06F0E5FBA54BA04820221A608022CA
:101830001A6008F059FFA2499C48FEF712FF0021E8
:101840009A48FEF72DFF99489E49FEF71FFF002694
:1018500040F6FE77B2B200219B4805F081F931468F
:101860009248FEF702FF94499048FEF7FAFE3220B4
:1018700008F048F9304609F0D9FC22462B4609F019
:1018800089FB09F0D3FFB8420646E3DD8F4B87485A
:1018900080221A6008F028FF89498448FEF7E1FE9B
:1018A00001218248FEF7FCFE80488949FEF7EEFEE2
:1018B000002640F6FE77B2B20121834805F050F9C8
:1018C00031467A48FEF7D1FE7B497848FEF7C9FEDB
:1018D000322008F017F9304609F0A8FC22462B46C2
:1018E00009F058FB09F0A2FFB8420646E3DD774B4A
:1018F0006E4820221A60012243F8042C802243F80B
:10190000042C08F0F1FE6E496848FEF7AAFE00219B
:101910006648FEF7C5FE65486E49FEF7B7FE00262D
:1019200040F6FE77B2B20021674805F019F931465A
:101930005E48FEF79AFE60495C48FEF792FE322050
:1019400008F0E0F8304609F071FC22462B4609F019
:1019500021FB09F06BFFB8420646E3DD5B4B5348C1
:1019600080221A6008F0C0FE55495048FEF779FE03
:1019700001214E48FEF794FE4C485749FEF786FE7B
:10198000002640F6FE77B2B201214F4805F0E8F894
:1019900031464648FEF769FE47494448FEF761FE76
:1019A000322008F0AFF8304609F040FC22462B46C2
:1019B00009F0F0FA09F03AFFB8420646E3DD434B7E
:1019C0003A48012202261A6043F8046C08F08CFEA3
:1019D0003B493648FEF745FE31463448FEF760FE87
:1019E00032483E49FEF752FE002640F6FE77B2B27C
:1019F0000221354805F0B4F831462C48FEF735FE93
:101A00002D492A48FEF72DFE322008F07BF830469B
:101A100009F00CFC22462B4609F0BCFA09F006FF3F
:101A2000B8420646E3DD294B2048102202261E60FC
:101A300043F8442C08F058FE21491C48FEF711FEDB
:101A400031461A48FEF72CFE18482549FEF71EFEBF
:101A5000002640F6FE77B2B202211B4805F080F85E
:101A600031461248FEF701FE13491048FEF7F9FD12
:101A7000322008F047F8304609F0D8FB22462B46C2
:101A800009F088FA09F0D2FEB8420646E3DD154BAC
:101A90000648102201261A6043F8046C08F024FE60
:101AA00007490248FEF7DDFD31461DE0009BFF1FA0
:101AB0003FFA0000C49AFF1FC0000100C4F00F40AD
:101AC0004DFA00005CFA0000A892FF1FC8F00F401A
:101AD0007DFA00009FFA0000C0FA0000E2FA000060
:101AE000F6FA000088F00F406A48FEF7D9FD694811
:101AF0006949FEF7CBFD002640F6FE77B2B203211E
:101B0000664805F02DF831466248FEF7AEFD64499F
:101B10006048FEF7A6FD322007F0F4FF304609F0DA
:101B200085FB22462B4609F035FA09F07FFEB842C4
:101B30000646E3DD5B4B574801261E6043F8446CC4
:101B400008F0D2FD58495348FEF78BFD3146514805
:101B5000FEF7A6FD4F485549FEF798FD002640F6D2
:101B6000FE77B2B203214D4804F0FAFF31464948EE
:101B7000FEF77BFD4A494748FEF773FD322007F028
:101B8000C1FF304609F052FB22462B4609F002FA0B
:101B900009F04CFEB8420646E3DD454B3D48402285
:101BA00001261E60DA6308F09FFD3F493948FEF7C1
:101BB00058FD31463748FEF773FD36483D49FEF77C
:101BC00065FD002640F6FE77B2B20321334804F0EB
:101BD000C7FF31462F48FEF748FD31492D48FEF733
:101BE00040FD322007F08EFF304609F01FFB2246F1
:101BF0002B4609F0CFF909F019FEB8420646E3DD9D
:101C0000284B244840221A60802243F8042C08F014
:101C10006BFD25491F48FEF724FD01211D48FEF7F5
:101C20003FFD1C482449FEF731FD002640F6FE77B3
:101C3000B2B20321194804F093FF31461548FEF76C
:101C400014FD17491348FEF70CFD322007F05AFF28
:101C5000304609F0EBFA22462B4609F09BF909F0D1
:101C6000E5FDB8420646E3DD0E4B80221A60FFF721
:101C700098FD12490748FEF709FD11490548FEF78E
:101C800005FD0E490F48FEF701FD0D490D48FEF711
:101C9000FDFCFEBD009BFF1F0AFB0000A892FF1F7A
:101CA000C000010088F00F404DFA00001CFB00004E
:101CB00048F00F402EFB000040FB000064F90000DC
:101CC0005BFA0000C49AFF1F70B58EB006F010FEDC
:101CD000061E24DD642007F015FF002401AD6655C3
:101CE00006F006FE0134262C0646F7D1124E0024DB
:101CF000284631688DF82A4025220BF087F9C0B1BB
:101D00000E490F48FEF7ADFC31680D48FEF7BEFCEA
:101D10000C490B48FEF7A5FC0948294605E00A498D
:101D20000748FEF7B3FC06480849FEF7AFFC002061
:101D300000E001200EB070BD8489FF1F52FB00003F
:101D4000009BFF1F75FB000098FB0000CEFB00000E
:101D500030B54949494885B0FEF783FC46494848B3
:101D6000FEF77FFC002268464EF66021FEF7C2FFB8
:101D70004EF66020FFF76EF804460D460D20012157
:101D800007F0ACFD2946204609F050FD430803F159
:101D9000376303F5D833B3FBF0F006F023FC0121E1
:101DA0000D2007F06FFD4FF47A7007F0ABFE354958
:101DB0003348FEF756FC4FF47A7007F0A3FE324921
:101DC0002F48FEF74EFC4FF47A7007F09BFE2F4928
:101DD0002A48FEF746FC40F2D2412848FEF760FC54
:101DE0002B492748FEF73DFC40F2D2412448FEF73C
:101DF0003CFC4FF47A7007F085FE26491F48FEF739
:101E000030FC69461D48FEF737FC23491C48FEF7A5
:101E100028FC69461A4808F045FC4FF47A7007F030
:101E200071FE1E491548FEF731FC1D491448FEF7A6
:101E300018FC4FF47A7007F065FEFFF745FF18B104
:101E40000E481849FEF722FC0D20002107F01AFD6C
:101E500015490A48FEF71AFC13490948FEF716FC13
:101E6000064808F041FC064808F03EFC684608F0C9
:101E7000C3F805B030BD00BFF6FB0000009BFF1F9C
:101E8000C49AFF1F05FC000008FC000013FC0000C2
:101E900022FC000029FC000038FC000040FC00008F
:101EA00055FC00005EFC000064F9000014282DE9D8
:101EB000F04105460E4614461F4601D002281BD1AC
:101EC0002146404804F067FB002821463D4803DDD9
:101ED00004F061FB3C4B46E004F05DFB002802DBB4
:101EE0000020BDE8F081002EFADD3846002109F01F
:101EF000FFFF002845D1F3E7A0F10B03012B0BD91D
:101F0000A0F10F08B8F1010F8CBF4FF000084FF09F
:101F10000108B8F1000F17D021462C4804F03BFB14
:101F200000282146294803DD04F035FB284B1AE040
:101F300004F031FB0028D3DA002ED1DD3846002131
:101F400009F0D6FF50BBCBE720F004050A2DC7D11E
:101F50001146204804F01FFB002821461D4804DDDF
:101F600004F019FB1C4B186029E004F014FB002856
:101F7000B6DA002EB4DD3846002109F0B9FFD8B931
:101F8000AEE7384609F0BEFF01462846FEF7C8FF17
:101F90006423704390FBF3F60B4B0BE0384609F0DB
:101FA000B1FF01462846FEF7BBFF6423704390FB58
:101FB000F3F6074B1E6002E0074BC3F800800120D8
:101FC000BDE8F081FC90FF1F1894FF1F0494FF1FD1
:101FD000EC93FF1FF093FF1F0094FF1F2DE9D841E2
:101FE000142804460E461F46069A01D0022818D12E
:101FF000002A00DD12E0002E54DD3846002109F0F1
:1020000077FF00284ED0384609F07CFF0146204675
:10201000FEF786FF6423704390FBF3F2244800210F
:102020002FE0A0F10B03012B0BD9A0F10F08B8F1A1
:10203000010F8CBF4FF000084FF00108B8F1000FFE
:1020400017D0002A00DD11E0002E2BDD38460021DC
:1020500009F04EFF30B3384609F054FF01462046E0
:10206000FEF75EFF6423704390FBF3F210480321F8
:1020700007E020F004040A2C14D1002A03DD0C48E8
:10208000022192B209E000290FDD3846002109F053
:102090002FFF58B106480221424604F061FD01209D
:1020A000BDE8D8810020BDE8D8814046BDE8D88190
:1020B000A892FF1F10B5084C0520214607F08AFBA7
:1020C0000320214607F086FB19204FF4F471BDE888
:1020D000104007F07FBB00BF6CDC020070B5064605
:1020E0000D460024A119044804F0FAF828550134DB
:1020F000042CF7D1204670BDD895FF1F70B5064659
:102100000D460024A1192A5D0348013404F0EBF8C0
:10211000042CF7D1204670BDD895FF1FFFFFFFFFAD
:102120002DE9F341624E6349634D07466348FEF76C
:1021300098FA306809F08CF8022402460B460094A5
:102140005E48FEF794FA5E495C48FEF79FFA4FF04E
:1021500003085C495948FEF784FA53A3D3E90023E6
:10216000CDF800805548FEF782FA55495348FEF7EE
:102170008DFA55495148FEF774FA286809F068F855
:10218000009402460B464D48FEF771FA4F494B4802
:10219000FEF77CFA494808F0A7FA46494C48FEF792
:1021A00060FA306809F054F8009402460B4648483B
:1021B000FEF75DFA42494648FEF768FA414944484D
:1021C000FEF74FFA38A3D3E90023CDF8008040484A
:1021D000FEF74DFA3A493E48FEF758FA3A493C486C
:1021E000FEF73FFA286809F033F8009402460B46E0
:1021F0003748FEF73CFA35493548FEF747FA344888
:1022000008F072FA012F44D14EF66020FEF722FE4C
:1022100009F054FB306009F01BF8009402460B46AD
:102220002648FEF747FA306809F012F80094024693
:102230000B462748FEF73EFA3068264909F030FE83
:1022400038BB31460C20FFF759FF4EF66020FEF7F1
:1022500001FE09F033FB286008F0FAFF0094024603
:102260000B461648FEF726FA286808F0F1FF00949E
:1022700002460B461648FEF71DFA2868154909F074
:102280000FFE30B914202946FFF738FF0020FFF772
:1022900047FF012007F036FC02B0BDE8F041FFF730
:1022A00080BA00BFAFF30080AE47E17A14AED73FEB
:1022B000DC90FF1F75FC00007090FF1F009BFF1F4C
:1022C000C000010083FC000097FC000065F90000DD
:1022D000C49AFF1F000080BF2DE9F34102ADDFF873
:1022E000308045F8041D064617460024304609F0A4
:1022F000EFFB014654F8080009F0D2FD18B1E019CF
:102300002946FFF7FBFE0434682CEFD1BDE8FC81C1
:102310008889FF1F2DE9F34102ADDFF8308045F8D1
:10232000041D064617460024304609F0D1FB01463D
:1023300054F8080009F0B4FD18B1E0192946FFF778
:10234000DDFE0434682CEFD1BDE8FC818889FF1FD5
:1023500030B540F2836085B006F044F942F2107067
:1023600005F05AFF4FF4FA70002407F0CBFB072367
:1023700022462146009401934548464D234604F0E9
:1023800041FD454841F2883104F0CCFB43484449C3
:1023900004F006FB4148434904F0D2FA21463F4885
:1023A00004F0C7FA3D4804F05FFB1D20012107F04F
:1023B00095FA0320214607F091FA0F20012107F03A
:1023C0008DFA1020012107F089FA0B20012107F076
:1023D00085FA0C20012107F081FA1420012107F071
:1023E0007DFA0220012107F079FA0E20012107F081
:1023F00075FA0A20012107F071FA0520012107F082
:102400006DFA294B80221A600620012107F066FA36
:102410001520012107F062FA1620012107F05EFA6B
:102420001120214607F05AFA204B40221A6002235D
:102430002B600D20012107F051FA2220214607F0E0
:102440004DFA2320214607F049FA03201849194C78
:1024500007F0C0F90520164907F0BCF91720012143
:1024600007F03CFA04A904232B60002341F8083D3F
:102470001020FFF733FE0298214609F011FD28B91C
:1024800004A9102041F8044DFFF738FE05B030BD17
:10249000E495FF1F84F00F40A892FF1FDC93FF1FFD
:1024A0000000484300002F44C4F00F40C8F00F4024
:1024B0006CDC0200A470BD3EF8B507460E46002451
:1024C00041F21055E119325D0348013403F00BFF6E
:1024D000AC42F7D12046F8BDD895FF1F00B5ADF549
:1024E000A85D85B010B9FEF793F809E000216846B1
:1024F00041F210520AF0D0F93C206946FFF7DCFFA8
:1025000045B00DF5A05D00BD70B506460D46002432
:10251000A119044803F0E4FE28550134082CF7D132
:10252000204670BDD895FF1F70B506460D460024A5
:10253000A119044803F0D4FE28550134682CF7D1C2
:10254000204670BDD895FF1F1FB50446B549002031
:10255000FFF7C4FD0420B449FFF7C0FD0820B349CC
:10256000FFF7BCFD0C20B249FFF7B8FD1420B149BC
:10257000FFF7B4FD1820B049FFF7B0FD1C20AF49AC
:10258000FFF7ACFD2020AE49FFF7A8FD2420AD49A0
:10259000FFF7A4FD2820AC49FFF7B6FF3C20AB496C
:1025A000FFF7C2FFB420AA49FFF7BEFFA9494FF4C5
:1025B0009670FFF7B9FFA8494FF4D270FFF7B4FF48
:1025C000A6494FF40770FFF7AFFFA5494FF42570F8
:1025D000FFF7AAFFA3494FF45C70FFF7A5FFA249DC
:1025E0004FF47A70FFF7A0FFA0494FF48C60FFF71B
:1025F0009BFF9F494FF49B60FFF796FF9D494FF467
:10260000AA60FFF781FF9C494FF4AB60FFF77CFFA6
:102610009A494FF4AC60FFF777FF99494FF4AD60EA
:10262000FFF772FF97494FF4AE60FFF76DFF4FF46D
:10263000AF609549FFF768FF012C40F05381934943
:102640009348FEF70EF891499248FEF70AF82046A3
:10265000FEF7EAFD8E4808F047F88E4808F044F887
:102660002046FEF7E1FA8A4808F03EF8894808F06B
:102670003BF88949684607F000FD00228749684613
:10268000FEF73CFD684607F0B7FC8549684607F051
:10269000F4FC00226D496846FEF730FD684607F0FD
:1026A000ABFC8049684607F0E8FC002268496846B0
:1026B000FEF724FD684607F09FFC7B49684607F05B
:1026C000DCFC002263496846FEF718FD684607F007
:1026D00093FC7649684607F0D0FC00225E496846C4
:1026E000FEF70CFD684607F087FC7149684607F065
:1026F000C4FC002259496846FEF700FD684607F011
:102700007BFC6C49684607F0B8FC002254496846D7
:10271000FEF7F4FC684607F06FFC6749684607F06F
:10272000ACFC00224F496846FEF7E8FC684607F01B
:1027300063FC6249684607F0A0FC00224A496846EB
:10274000FEF7DCFC684607F057FC5D49684607F079
:1027500094FC002245496846FEF7D0FC684607F025
:102760004BFC5849684607F088FC002240496846FF
:10277000FEF7C4FC684607F03FFC5349684607F083
:102780007CFC002230496846FEF73EFC684607F0B4
:1027900033FC4E49684607F070FC00223549684614
:1027A000FEF732FC684607F027FC4949684607F007
:1027B00064FC002230496846FEF726FC684607F0B4
:1027C0001BFC4449684607F058FC00222B49684628
:1027D000FEF71AFC684607F00FFC3F49684607F011
:1027E0004CFC002226496846FEF70EFC684607F0BE
:1027F00003FC3A49684607F040FC0022214968463C
:10280000FEF702FC684607F0F7FB3549684607F01B
:1028100034FC68461C492246FEF7F6FB684607F082
:10282000EBFB5FE07489FF1FF489FF1FC895FF1F52
:10283000DC90FF1F7090FF1FF893FF1FF890FF1FA1
:10284000FC93FF1F5495FF1FBC94FF1F4092FF1F76
:10285000C494FF1F2894FF1F7490FF1F5C95FF1FF7
:10286000D491FF1F0491FF1F6C91FF1FDC92FF1F8B
:102870004493FF1F9094FF1F2C95FF1F9894FF1FF8
:102880003C95FF1F4495FF1F4C95FF1FBAF90000B0
:10289000009BFF1FC49AFF1FABFC00008889FF1F2D
:1028A000B4FC0000C6FC0000D7FC0000F1FC0000F6
:1028B0000AFD000025FD00003FFD000052FD000064
:1028C00065FD000078FD0000C4FF0000D1FF00009E
:1028D000DEFF0000EBFF0000F8FF00000500010034
:1028E000120001001FBD00BF2DE9F34101204EF68B
:1028F0006028FFF729FE4046FEF7ACFA08F0DEFF3D
:10290000234F244E386008F0A3FC062402460B46F1
:1029100000943046FDF7ABFE38681F4D08F098FC78
:10292000009402460B462846FDF7A1FE39460420D6
:10293000FFF7E4FB4046FEF78DFA08F0BFFF174FA4
:10294000386008F085FC009402460B463046FDF7DF
:102950008EFE386808F07CFC009402460B46104C52
:102960002846FDF784FE39460820FFF7C7FB2146BD
:102970003046FDF78BFE21462846FDF787FEFEF721
:1029800010FF012002B0BDE8F041FFF7DDBD00BF40
:10299000F489FF1F009BFF1FC49AFF1FC895FF1FEC
:1029A0008BFD00002DE9F3414EF660270120FFF773
:1029B000CBFD3846FEF74EFA08F080FFDFF80881BD
:1029C0003E4EC8F8000008F043FC022402460B46C5
:1029D00000943046FDF74BFED8F80000384D08F063
:1029E00037FC009402460B462846FDF740FE414660
:1029F0001820FFF783FB3846FEF72CFA08F05EFF3D
:102A0000DFF8C880C8F8000008F022FC00940246F5
:102A10000B463046FDF72BFED8F8000008F018FCF6
:102A2000009402460B462846FDF721FE41461C2035
:102A3000FFF764FB3846FEF70DFA08F03FFFDFF8BA
:102A40009080C8F8000008F003FC009402460B4692
:102A50003046FDF70CFED8F8000008F0F9FB0094B2
:102A600002460B462846FDF702FE41462020FFF7AE
:102A700045FB3846FEF7EEF908F020FF114F3860AD
:102A800008F0E6FB009402460B463046FDF7EFFDEA
:102A9000386808F0DDFB009402460B462846FDF737
:102AA000E6FD24203946FFF729FBFEF77AFE0120D8
:102AB00002B0BDE8F041FFF747BD00BF009BFF1F1C
:102AC000C49AFF1F5495FF1FF893FF1FF890FF1F34
:102AD000FC93FF1F7FB506460120FFF735FD00245C
:102AE00006254EF66020FEF7B5F908F0E7FE0390E4
:102AF00008F0AEFB009502460B460C48FDF7B7FD0B
:102B0000039808F0A5FB009502460B460848FDF720
:102B1000AEFDA01903A90434FFF7F0FA082CE0D1A8
:102B2000FEF73FFE0120FFF70FFD7FBD009BFF1F5B
:102B3000C49AFF1F2DE9F34780460120FFF704FDEB
:102B40004EF66020FEF786F908F070FE0646314624
:102B50002C48FDF7A5FD2C483146FDF7A1FD731C5F
:102B600047D04EF66020FEF775F908F0A7FE8146C3
:102B700008F06EFB062704460D460B4622460097DA
:102B80002048FDF797FD00971F4822462B46FDF78A
:102B900091FD48461D4909F083F950BB4EF660206F
:102BA000FEF758F908F08AFE824608F051FB044609
:102BB0000D460B46224600971248FDF77BFD009715
:102BC000114822462B46FDF775FD50460F4909F086
:102BD00067F970B9304649464246FFF79BFB3046DD
:102BE000514608F17802FFF777FB012006F08AFFD3
:102BF000A6E7FEF7D6FD012002B0BDE8F047FFF7DB
:102C0000A3BC00BF009BFF1FC49AFF1F000080BF32
:102C10002DE9F04FAA4BAB4C04221A6085B000217D
:102C2000064640F6FF72A84803F09AFF802501216E
:102C300040F6FF72A44803F093FF022140F6FF72B2
:102C40002560A14803F08CFF032140F6FF729E48E7
:102C500003F086FF9D4B1D60FEF7A3FD622E2CD175
:102C60000020FFF771FC27464EF66020FEF7F2F8D1
:102C70000022974B04460D4608F0A6FDB8B9FEF7B2
:102C800090FD2946204608F0F9FD002182B28E48C9
:102C900003F066FF002320462946002208F094FD39
:102CA000202310B9894A1360DEE73B60DCE7FEF7BA
:102CB00078FD844B20221A606FE0632E6DD10020D6
:102CC000FFF742FC4EF66020FEF7C4F808F0AEFDB8
:102CD0008049DFF824A280467F48FDF7C2FC7D4989
:102CE0007E48FDF7BEFC00210A46774803F038FF16
:102CF00075480321002203F033FF00275FFA88FBA9
:102D000040E05AF83B3083F800410BE01FFA89F4A9
:102D1000002122466C4803F023FF6B480321224622
:102D200003F01EFF384608F093FA04460D460221D0
:102D3000009122462B4668480391FDF798FC0399C1
:102D40006648009122462B46FDF791FC6449624893
:102D5000FDF787FC62496148FDF783FC49465E4800
:102D6000FDF783FC49465D48FDF77FFC5C495A4806
:102D7000FDF78CFC59485A49FDF788FC4FF47A70EE
:102D800006F0C0FE05F07AF9022800F3568105F03E
:102D9000A1FD022840F35C814FE10027FEF701FD11
:102DA000642E01D1FEF70EFDFEF7FBFC652E14D15B
:102DB0004C494948FDF755FC48484A49FDF751FC44
:102DC0004FF0020805F05AF9022800F3478205F097
:102DD00081FD022840F3588140E2662E14D1424919
:102DE0003D48FDF73EFC3D483F49FDF73AFC4FF0BA
:102DF000020805F043F9022800F3308205F06AFD6D
:102E0000022840F3688129E2672E14D137493248FD
:102E1000FDF727FC31483549FDF723FC4FF0020848
:102E200005F02CF9022800F3198205F053FD022861
:102E300040F3758112E2682E14D12D492648FDF722
:102E400010FC26482A49FDF70CFC4FF0020805F05B
:102E500015F9022800F3028205F03CFD022840F338
:102E60008081FBE1692E14D11E491B48FDF7F9FB57
:102E70001A481C49FDF7F5FB4FF0020805F0FEF873
:102E8000022800F3EB8105F025FD022840F3A08124
:102E9000E4E16A2E32D117491048FDF7E2FB0E48F3
:102EA0001449FDF7DEFB4FF0020805F0E7F80228B1
:102EB00000F3D48105F00EFD022840F3AE81CDE190
:102EC00088F00F40C8F00F40A892FF1FC4F00F40D9
:102ED0000000F0BF8EFD0000009BFF1FC49AFF1F83
:102EE000C00001009EFD0000B3FD0000C2FD000017
:102EF000D3FD0000EAFD0000E8030100731E202B53
:102F000040D8A949A948DFF8B082FDF7AAFBA84834
:102F1000A549FDF7A6FB4EF66020FDF79BFF08F0E4
:102F200085FC411C054624D0ACB2FEF73AFC0021DA
:102F30002246A04803F014FE012122469D4803F0DA
:102F40000FFE022122469B4803F00AFE22469948C2
:102F5000032103F005FE58F83620012382F8803063
:102F600058F8362015B182F88030D4E782F8003165
:102F7000D1E7FEF716FC904B53F83630012283F868
:102F8000002134E0A6F12203032B30D8DFF83C8285
:102F90008A4D874807F0A8FB844807F0A5FB4EF64A
:102FA0006020FDF757FF08F041FC421C1DD01023A4
:102FB0004001C8F8003001D00138FDD1F0B206F070
:102FC000C9FE102304462B6021467948FDF74DFBCE
:102FD00021467648FDF749FB79497548FDF741FBE5
:102FE00077497248FDF73DFBD3E7FEF7DAFB754BF7
:102FF00004221A60384608F02BF9022604460D46D2
:103000000B46224600966A48FDF731FB22462B46C6
:1030100000966648FDF72BFB6B496548FDF736FBCC
:1030200069496248FDF732FB614807F05DFB5F4884
:1030300005B0BDE8F04F07F057BBFEF7B2FB5FFAF3
:1030400088F85D4B53F83830012283F80021A5E65B
:103050005AF83B30012483F880402046FDF78EFD6E
:1030600008F036FDFDF74AFF074608F04BFF014622
:103070004046FDF755FF00218146384608F010FF15
:1030800000287FF43EAE41E60120FDF777FD08F011
:103090001FFDFDF733FF074608F0DAF804460D463A
:1030A0000B462246CDF800804148FDF7E0FA224663
:1030B0002B46CDF800803D48FDF7D9FA40493C4801
:1030C000FDF7CFFA3E493948FDF7CBFA4FF4FA60E5
:1030D00006F018FD76E6FEF7D5F908F0F5FC074690
:1030E00008F0B6F8044622460B46CDF8008030487A
:1030F0000D46FDF7BCFA32492D48FDF7B2FA2246DB
:103100002B46CDF800802948FDF7B1FA2C49274815
:10311000FDF7A7FA4FF4FA6006F0F4FC69E6FDF754
:103120005BFA074608F094F8044622460B46CDF8B1
:1031300000801F480D46FDF79AFA21491C48FDF70B
:1031400090FA22462B46CDF800801848FDF78FFAFA
:103150001B491648FDF785FA4FF4FA6006F0D2FCD9
:103160005EE6FDF71DFA074608F072F804462246AF
:103170000B46CDF800800E480D46FDF778FA104951
:103180000B48FDF76EFA22462B46CDF80080074823
:10319000FDF76DFA0A490548FDF763FA4FF4FA6046
:1031A00006F0B0FC53E600BF07FE0000C49AFF1F04
:1031B000009BFF1FA892FF1FE8030100C4F00F400F
:1031C000C000010084F00F4093F90000C8F00F40E8
:1031D0000120FDF7D3FC08F07BFC074608F038F827
:1031E00004460D460B462246CDF800801D48FDF7EB
:1031F0003EFA22462B46CDF800801B48FDF737FAF1
:103200001A491848FDF72DFA18491748FDF729FA09
:103210004FF4FA6006F076FC30E6FEF765FA0746F2
:1032200008F016F804460D460B462246CDF80080FD
:103230000C48FDF71CFA22462B46CDF800800A48C0
:10324000FDF715FA09490748FDF70BFA0749064843
:10325000FDF707FAC82006F055FC26E6FEF7A1FAAE
:103260004CE600BF009BFF1FC49AFF1FC000010077
:103270002DE9F04FADF51E5D8FB004AF3220002573
:10328000C7F84CD006F03EFCB14BC7F80C511B6898
:103290000120C7F81031D7F8103108F001FFC7F846
:1032A000B8000420C7F81451C7F8185108F0F8FE08
:1032B000A84BC7F8B4001B68073323F00703ADEB36
:1032C000030DA54B1B68BB661B01083304ACADEBBB
:1032D000030D04AEC7F8C86003E0002106F0CDFE80
:1032E0000135D7F8C86006EB0510BE6EB542F4D1C3
:1032F000984B994E1A682046002109F0CDFA002516
:1033000007E0D7F8C81001EB0510944906F0EDFE70
:10331000013533689D42F4DB0020FFF715F9904B2F
:1033200010251D600A2006F0EDFB8E4B8E491D60B6
:1033300007F5F475284606F0A0FE5EE0284606F084
:103340006AFFC72842F3F28602F0ADBE874988487B
:10335000FDF79CF985498748FDF798F94DE0FDF7A1
:10336000BBF94AE0FEF7F4FC47E0FDF7DBF944E087
:10337000FDF718FA41E00120FFF7E6F83DE0FFF71E
:10338000B3FA3AE000200AE0FFF70CFB35E03C20FE
:1033900001E04FF49670FFF7CDFB2EE00120FEF721
:1033A000BFFE2AE04FF40770F5E74FF45C70F2E7D8
:1033B0004FF48C60EFE7FDF72BF91EE00120FFF7DB
:1033C0008DF81AE0282010E04FF4AA600DE04FF4C9
:1033D000AB600AE04FF4AC6007E04FF4AD6004E08E
:1033E0004FF4AE6001E04FF4AF60FFF773FB04E011
:1033F000FDF79AFB01E005F001FC04F021FE5B28DB
:1034000002F0B38605F08CFA5B2842F0988602F051
:10341000ACBE05F085FA5B280CBF0225002500E054
:10342000012504F0E5FD05F063FA012D0DD0022D14
:1034300058D051494E48FDF729F900264D484E49CC
:10344000FDF724F9C7F8C460AFE049484FF4FA61CA
:1034500007F074F83F4B46481B682121224600269E
:1034600007F06EF841F28735C7F8C460A35D7B2B87
:103470001BD104E0484606F071FE013607E0D7F89C
:10348000C410D7F8C8204FEA011802EB0809A15D63
:103490007D29EFD1D7F8C83003EB080006F05EFEB7
:1034A000D7F8C4100131C7F8C4100136AE42DDDDD3
:1034B000002412E0D7F8C860302106EB041507F5A8
:1034C000067006F02DFE07F50671284606F069FE27
:1034D00007F5067006F090FD0134D7F8C460B442D9
:1034E000E8DB62E023484FF47A7107F027F8194BC4
:1034F00020481B6821212246002607F021F841F2CE
:103500008735C7F8C460A35D7B2B1BD104E0484618
:1035100006F024FE013607E0D7F8C410D7F8C8201B
:103520004FEA011802EB0809A15D7D29EFD1D7F818
:10353000C83003EB080006F011FED7F8C4100131C3
:10354000C7F8C4100136AE42DDDD002429E000BF1B
:10355000B89AFF1FF089FF1F7C89FF1F5BFA0000EC
:10356000C8F00F40C4F00F4053FC00000AFE0000FA
:10357000009BFF1FC49AFF1F1AFE0000D7F8C86007
:10358000302106EB041507F5067006F0C9FD07F5B6
:103590000671284606F005FE07F5067006F02CFDBC
:1035A0000134D7F8C460B442E8DB7949794D7A48F0
:1035B000FDF757F876497948FDF753F8286807F082
:1035C00047FE022402460B4600947348FDF74FF86D
:1035D000286807F03DFE009402460B466F48FDF751
:1035E00046F86F496C48FDF73CF803246C496B487A
:1035F000FDF737F8009464A3D3E900236648FDF78C
:1036000036F861A3D3E9002300946448FDF72FF84E
:10361000644962480026FDF724F85F486149FDF7D8
:1036200020F8C7F8C060C7F8BC60C7F8D0600D26A6
:103630003E6601263E6707F5EA7600247E665A4913
:103640005648FDF70EF854485749FDF70AF800268A
:1036500002F0C3BCD7F8B80008F02AFDD7F8B06074
:103660003501D7F8C860731907F58A7A9C68601C21
:1036700008F016FD7159C7F8B800224609F01CFD84
:10368000D7F8B8600025355507F5EE7007F50A74D0
:1036900003F036F9D7F8B81022464FF4167307F541
:1036A000EE7003F010F8D7F8B810A8420CBF22460D
:1036B0002A46786E02F083FF7E6E96E803008AE861
:1036C0000300002802F05885C9B902F055BDD7F8AB
:1036D000C810324801EB04152946FCF7CDFF013430
:1036E0002D482946FCF7C8FFB442F0D1FEF759F83F
:1036F00007F5F47006F080FC002502F0C3BC07F566
:103700008E76C7F88850C7F8D86007F5E674274961
:10371000504602F0A5FF014607F5FC7006F0ADFC2F
:103720002349504602F092FF5046224902F08EFF94
:10373000214B08B1186001E001221A601F49204D99
:10374000504602F083FF1F49C7F8CC00504602F0F4
:103750007DFF1D493867504602F078FF1B49F8602D
:10376000504602F073FF1A49B862504602F06EFFED
:10377000002808BF0120F8651649504602F066FF90
:1037800050BB0D232B602CE0AE47E17A14AED73F3F
:1037900040FE0000DC90FF1FC49AFF1F009BFF1F2C
:1037A0004FFE000065FE000091F9000072FE00006F
:1037B0007EFE000085FE00007889FF1F8EFE00005F
:1037C0006489FF1F9DFE0000AAFE0000BDFE0000F0
:1037D000CDFE0000D7FE000050468D4902F036FFB6
:1037E00028608C49504602F031FF002808BF0A20AB
:1037F00038638949504602F029FF002808BF10208D
:10380000F8628649504602F021FF002808BF0320D5
:10381000B8658349504602F019FF002808BF03200D
:1038200078658049504602F011FF7F497862504622
:1038300002F00CFF7D49C7F8A800504602F006FFD1
:103840007B49B864504602F001FF7A49C7F88C0002
:10385000504602F0FBFE78493862504602F0F6FE10
:1038600007F59276C7F8D400514607F58E70734A73
:1038700002F0DEFE07F5967830465146704AC7F8EA
:10388000FC6002F0D5FE07F59A76404651466D4A37
:1038900002F0CEFE07F59E7B304651466A4AC7F8D5
:1038A000F86002F0C5FE07F5A27658465146674A11
:1038B00002F0BEFE3046C7F8F460514607F5A67622
:1038C000634A02F0B5FE3046C7F8F060514607F58E
:1038D000AA76604A02F0ACFE3046C7F8EC6051466A
:1038E00007F5AE765C4A02F0A3FE3046C7F8E86002
:1038F000514607F5B276594A02F09AFE3046C7F8AB
:10390000E460514607F5B676554A02F091FE30461E
:10391000C7F8E060514607F5BA76524A02F088FED1
:1039200030465146504AC7F8DC6002F081FE07F588
:10393000BE7051464D4A4E4E02F07AFE07F5C270F7
:1039400051464C4A02F074FE07F5C67051464A4A89
:1039500002F06EFE07F5CA705146484A07F58075B9
:1039600002F066FE07F5CE705146454A02F060FE51
:1039700028465146434A02F05BFE95E80300424A5E
:1039800086E803002846514602F052FE95E80300FF
:103990003E4E3F4A86E803002846514602F048FE64
:1039A00095E803003B4E3C4A86E8030007F5D270D9
:1039B000514602F03DFE07F5D6705146374A02F0F7
:1039C00037FE07F5DA705146354A02F031FE002520
:1039D00007F5DE705146334A02F02AFEFD66C7F84D
:1039E000905087E0294607F5BE7002F0D4FD07F538
:1039F000D67181462A46204602F0BFFD2046FCF7DC
:103A000066FEFE6E00FB0966FE660026B1465AE0C1
:103A1000D7FE0000ECFE0000F6FE000001FF0000F3
:103A200012FF000021FF000040FF00004BFF0000DC
:103A300055FF000063FF00006EFF000079FF0000EB
:103A400089FF000095FF0000A4FF0000B2FF000006
:103A5000C0FF0000CDFF0000DAFF0000E7FF00001C
:103A6000F4FF0000010001000E0001001B00010036
:103A7000FC90FF1F220001002E0001003A0001000F
:103A80004600010052000100620001000494FF1F83
:103A900073000100F093FF1F830001008D000100FF
:103AA00099000100A7000100204607F5D6712A46BB
:103AB00002F063FD3146204602F06DFD0028C8BFCC
:103AC00009F101090136204607F5D6712A4602F0B0
:103AD00054FD2046FCF7FBFD8642E5DB294607F551
:103AE000BE7002F058FDD7F8906009FB0066C7F879
:103AF0009060013507F5BE70FCF7E9FD8542FFF6E1
:103B000071AFD7F8B40008F0D3FA0421D7F89000C9
:103B100008F050FAB449C7F8B400B448FCF7A1FD66
:103B2000B149B348FCF79DFD0520FDF745F9B149C2
:103B3000C7F8AC00AD48FCF794FDAE49AC48FCF7C3
:103B400090FD07F5FC71A94806F0ACFD07F5FC7186
:103B5000A74806F0A7FDA849A448FCF782FDA448A1
:103B6000A549FCF77EFDD7F8D430012B02D11846C9
:103B7000FDF75AFB07F50675A049284606F07DFAC1
:103B8000D7F8D86096E80300002213468DE80300BA
:103B900002959B499B48FCF7BBFE284606F02CFA91
:103BA0009949284606F069FA98E80300002213466E
:103BB0008DE80300029595499548FCF7A9FE284633
:103BC00006F01AFA9349284606F057FAD7F8F86033
:103BD00096E80300002213468DE8030002958E4903
:103BE0008E48FCF795FE284606F006FA8C492846D2
:103BF00006F043FA9BE80300002213468DE8030019
:103C0000029588498848FCF783FE284606F0F4F9B7
:103C1000864B8749D3F80080864B28461E6806F0FD
:103C20002CFAD7F8FC2092E803008DE8030000206E
:103C30004246014633460295FCF76AFE284606F0E6
:103C4000DBF97D4B7D49D3F800805E68284606F09D
:103C500014FAD7F8F43093E803008DE8030000204D
:103C60004246014633460295FCF752FE284606F0CE
:103C7000C3F9734B7349D3F800805E68284606F099
:103C8000FCF9D7F8F02092E803008DE8030000204B
:103C90004246014633460295FCF73AFE284606F0B6
:103CA000ABF9694B6949D3F800805E68284606F095
:103CB000E4F9D7F8EC3093E803008DE80300002026
:103CC0004246014633460295FCF722FE284606F09E
:103CD00093F95F4B5F49D3F800805E68284606F091
:103CE000CCF9D7F8E82092E803008DE80300002023
:103CF0004246014633460295FCF70AFE284606F086
:103D00007BF9554B5549D3F800805E68284606F08C
:103D1000B4F9D7F8E43093E803008DE803000020FD
:103D20004246014633460295FCF7F2FD284606F06E
:103D300063F94B4B4B49D3F800805E68284606F088
:103D40009CF9D7F8E02092E803008DE803000020FA
:103D50004246014633460295FCF7DAFD284606F056
:103D60004BF9414B41495E68D3F80080284606F084
:103D700084F9D7F8DC3093E803008DE803000020D5
:103D80003346014642460295394EFCF7C1FD2846AE
:103D900006F032F93368012B17DD36491448FCF779
:103DA00060FC34491148FCF75CFC31681048FCF7B2
:103DB0005CFC31680D48FCF758FC2F490C48FCF7B7
:103DC00050FC0A482C49FCF74CFC2C4BB86C0026E4
:103DD0001E602B4B1E602B4B1E602B4B1E602B4B13
:103DE0001E602B4B1E6055E0BAF90000009BFF1FC0
:103DF000C49AFF1FAF000100BF00010079FF00005F
:103E0000D491FF1F5C95FF1F95FF0000C494FF1F16
:103E10004092FF1FA4FF00006C91FF1F0491FF1F41
:103E2000B2FF00004493FF1FDC92FF1FF489FF1FC5
:103E300089FF0000C895FF1FBC94FF1FC0FF000052
:103E40009094FF1FCDFF00002C95FF1FDAFF0000AC
:103E50009894FF1FE7FF00003C95FF1FF4FF000050
:103E60004495FF1F010001004C95FF1F0E0001004B
:103E70007889FF1FC2000100C00001000C94FF1FE1
:103E8000D495FF1F3C92FF1FD095FF1F1C94FF1F6E
:103E9000C093FF1F144B1E60144B1E60144B1E601A
:103EA000144B1E60FDF79AF9D7F88C10D7F8CC2088
:103EB00030234B43013B7B644FF47A7353433B61A4
:103EC00007F586760023C7F8D430C7F89430C7F8D2
:103ED0009830C7F89C30C7F8A03007F5E27BC7F8E8
:103EE000846001F0B8BF00BFAC94FF1FB894FF1FFF
:103EF0001094FF1F2094FF1F584607F5DA713246D1
:103F000002F03BFB5846012102F045FB80460028A9
:103F100059D13246204607F5DA7102F02EFB4146B0
:103F2000204602F042FB0146284606F0A6F8284645
:103F3000BC4906F044F910F1000818BF4FF0010821
:103F4000284606F059F8B8F1000F3CD0324620461A
:103F500007F5DA7102F011FB0121204602F01BFB8C
:103F6000FCF702FEB04BD7F8D4101B68013B994216
:103F700029D1AE49DFF8DC92AD48FCF772FBAB49C2
:103F8000AC48FCF76EFBD9F8000007F061F94FF080
:103F9000020802460B46CDF80080A548FCF767FBF7
:103FA000A549A348FCF75DFBD9F8000007F050F9DC
:103FB000CDF8008002460B469E48FCF758FB9D4812
:103FC0009D49FCF74EFB584607F5DA71324602F080
:103FD000D4FA5846012102F0DEFA8046002859D171
:103FE0003246204607F5DA7102F0C7FA414620460C
:103FF00002F0DBFA0146284606F03FF828468F49D2
:1040000006F0DDF810F1000818BF4FF0010828464F
:1040100005F0F2FFB8F1000F3CD03246204607F51C
:10402000DA7102F0AAFA0121204602F0B4FAFCF794
:10403000A0FD7D4BD7F8D4201B68013B9A4229D1C3
:104040007F49DFF814927A48FCF70BFB7C497948EA
:10405000FCF707FBD9F8000007F0FAF84FF0020868
:1040600002460B46CDF800807148FCF700FB724910
:104070006F48FCF7F6FAD9F8000007F0E9F8CDF838
:10408000008002460B466B48FCF7F1FA69486A4922
:10409000FCF7E7FA584607F5DA71324602F06DFA96
:1040A0005846012102F077FA8046002859D132465D
:1040B000204607F5DA7102F060FA4146204602F028
:1040C00074FA0146284605F0D8FF28465D4906F0F7
:1040D00076F810F1000818BF4FF00108284605F0E7
:1040E0008BFFB8F1000F3CD03246204607F5DA715D
:1040F00002F043FA0121204602F04DFAFDF74CFB95
:10410000494BD7F8D4101B68013B994229D14E493D
:10411000DFF848914648FCF7A4FA4B494548FCF7BC
:10412000A0FAD9F8000007F093F84FF00208024611
:104130000B46CDF800803E48FCF799FA3E493C48D2
:10414000FCF78FFAD9F8000007F082F8CDF800806C
:1041500002460B463748FCF78AFA36483649FCF7E0
:1041600080FA584607F5DA71324602F006FA5846E8
:10417000012102F010FA804600287AD1324620460A
:1041800007F5DA7102F0F9F94146204602F00DFA1E
:104190000146284605F071FF28462C4906F00FF825
:1041A00010F1000818BF4FF00108284605F024FF61
:1041B000B8F1000F5DD03246204607F5DA7102F003
:1041C000DCF90121204602F0E6F9FDF77FF9164BF4
:1041D000D7F8D4201B68013B9A424AD11C49DFF82A
:1041E00080901348FCF73DFA19491248FCF739FA58
:1041F000D9F8000007F02CF84FF0020802460B46F1
:10420000CDF800800A48FCF732FA0B490848FCF761
:1042100028FAD9F8000007F01BF8CDF80080024614
:104220000B461FE0CE0001007889FF1FE00001006F
:10423000C49AFF1F009BFF1FC00001001001010076
:10424000F5000100040101001C010100370101001B
:104250003B0101003C92FF1FD095FF1F1C94FF1FE4
:10426000C093FF1FC148FCF702FAC048C049FCF7E1
:10427000F8F9584607F5DA71324602F07EF95846E9
:10428000012102F088F98046002840F0E48032469F
:10429000204607F5DA7102F070F94146204602F037
:1042A00084F90146284605F0E8FE2846B14905F0A4
:1042B00086FF10F1000818BF4FF00108284605F0EE
:1042C0009BFEB8F1000F00F0C6803246204607F58D
:1042D000DA7102F052F90121204602F05CF9FCF794
:1042E0004DFCA54BD7F8D4101B68013B994240F018
:1042F000B280DFF8A492A149A148FCF7B2F99F4926
:104300009A48FCF7AEF9D9F80000FCF7F7FD06F083
:104310009FFF4FF0020802460B46CDF800809848F8
:10432000FCF7A5F992499648FCF79BF9D9F80000EB
:10433000DFF86892FCF7E2FD06F08AFFCDF8008016
:1043400002460B468948FCF792F989498748FCF7F1
:1043500088F98C498A48FCF784F98A498348FCF734
:1043600080F9D9F80000FCF7C9FD06F071FFCDF81F
:10437000008002460B468248FCF779F97C49804868
:10438000FCF76FF9D9F80000DFF81492FCF7B6FDDE
:1043900006F05EFFCDF8008002460B467348FCF73E
:1043A00066F973497148FCF75CF977497448FCF782
:1043B00058F975496D48FCF754F9D9F80000FCF735
:1043C0009DFD06F045FFCDF8008002460B466C4887
:1043D000FCF74DF966496A48FCF743F9D9F8000043
:1043E000DFF8C091FCF78AFD06F032FFCDF80080BF
:1043F00002460B465D48FCF73AF95D495B48FCF71D
:1044000030F962495E48FCF72CF960495748FCF7DF
:1044100028F9D9F80000FCF771FD06F019FFCDF876
:10442000008002460B465648FCF721F95049544893
:10443000FCF717F9D9F80000FCF760FD06F008FF5B
:10444000CDF8008002460B464848FCF710F9474873
:104450004749FCF706F9584607F5DA71324602F08B
:104460008CF85846012102F096F88046002840F06A
:10447000F4803246204607F5DA7102F07EF84146B4
:10448000204602F092F80146284605F0F6FD28463F
:104490003F4905F094FE10F1000818BF4FF00108E5
:1044A000284605F0A9FDB8F1000F00F0D68032468D
:1044B000204607F5DA7102F060F80121204602F08B
:1044C0006AF8FCF75BFB2C4BD7F8D4201B68013B48
:1044D0009A4240F0C280DFF8C0902E492848FCF78D
:1044E000C0F82C492148FCF7BCF8D9F8000006F0C8
:1044F000AFFE4FF0020802460B46CDF80080204880
:10450000FCF7B5F81A491E48FCF7ABF8D9F80000DB
:10451000DFF8889006F09CFECDF8008002460B463E
:104520001248FCF7A4F812491048FCF79AF815490C
:104530001348FCF796F813490C48FCF792F8D9F8A1
:10454000000006F085FECDF8008002460B460C48C0
:10455000FCF78DF806490A48FCF783F8D9F8000003
:10456000DFF83C9006F074FE1EE000BF009BFF1FCA
:10457000C000010030FF00007889FF1F42010100E8
:10458000C49AFF1F550101005A0101005F0101009B
:104590006401010078010100AC94FF1FB894FF1F73
:1045A0001094FF1F2094FF1FCDF8008002460B4699
:1045B000B048FCF75CF8B049AE48FCF752F8AF4998
:1045C000AF48FCF74EF8AD49AA48FCF74AF8D9F8CD
:1045D000000006F03DFECDF8008002460B46A848DC
:1045E000FCF745F8A449A648FCF73BF8D9F80000C9
:1045F000DFF8B09206F02CFECDF8008002460B46A4
:104600009C48FCF734F89C499A48FCF72AF89D49E5
:104610009B48FCF726F89B499648FCF722F8D9F806
:10462000000006F015FECDF8008002460B469448C7
:10463000FCF71DF890499248FCF713F8D9F80000F0
:1046400006F006FECDF8008002460B468948FCF7CE
:104650000EF888488849FCF704F8584607F5DA71DF
:10466000324601F08AFF5846012101F094FF80464E
:1046700000284FD13246204607F5DA7101F07DFF60
:104680004146204601F091FF0146284605F0F5FC21
:1046900028467D4905F093FD10F1000918BF4FF041
:1046A0000109284605F0A8FCB9F1000F32D03246C6
:1046B000204607F5DA7101F060FF0221204601F083
:1046C0006AFF5FFA80F94146484605F007F9484617
:1046D00005F040FB6D4BD7F8D4101B68013B9942A5
:1046E000804617D16A496648FBF7BBFF68496148B5
:1046F000FBF7B7FF41466248FBF7B7FF5E496048EA
:10470000FBF7AFFF41465B48FBF7AFFF59485A49FB
:10471000FBF7A7FF584607F5DA71324601F02DFF87
:104720005846012101F037FF804600284FD132461C
:10473000204607F5DA7101F020FF4146204601F0DE
:1047400034FF0146284605F098FC2846514905F0FB
:1047500036FD10F1000918BF4FF00109284605F099
:104760004BFCB9F1000F32D03246204607F5DA7122
:1047700001F003FF0221204601F00DFF5FFA80F9EE
:104780004146484605F0AAF8484605F09BF83F4BDD
:10479000D7F8D4201B68013B9A42804617D13E4986
:1047A0003748FBF75EFF3C493248FBF75AFF41466A
:1047B0003348FBF75AFF30493148FBF752FF414677
:1047C0002C48FBF752FF2B482B49FBF74AFF584672
:1047D00007F5DA71324601F0D0FE5846012101F0AA
:1047E000DAFE804600285FD13246204607F5DA71AE
:1047F00001F0C3FE4146204601F0D7FE014628469F
:1048000005F03BFC2846254905F0D9FC10F10008CD
:1048100018BF4FF00108284605F0EEFBB8F1000F75
:1048200042D03246204607F5DA7101F0A6FE022199
:10483000204601F0B0FE3246804607F5DA71204688
:1048400001F09BFE0321204601F0A5FE5FFA88F8E7
:1048500081460121404605F041F8114A52F83820BE
:1048600019F0FF0F4FF0010314BF82F8803082F877
:10487000003119E0009BFF1FC00001005A01010038
:10488000C49AFF1F5F0101008F0101007889FF1F9B
:104890009B010100AA010100B7010100C70101004D
:1048A000E80301002094FF1F584607F5DA713246ED
:1048B00001F063FE5846012101F06DFE814600289B
:1048C00067D13246204607F5DA7101F056FE4946B7
:1048D000204601F06AFE0146284605F0CEFB284638
:1048E000A94905F06CFC10F1000818BF4FF0010851
:1048F000284605F081FBB8F1000F4AD03246204629
:1049000007F5DA7101F039FE0221204601F043FE7D
:104910003246804607F5DA71204601F02EFE03216B
:10492000204601F038FE3246844607F5DA7120460B
:10493000C7F804C001F021FE0421204601F02BFE3F
:104940003246C7F8CC0007F5DA71204601F015FEB3
:104950000521204601F01FFE5FFA88F80346012179
:104960004046BB6004F0BAFF4046D7F8CC1004F0D4
:1049700031FFD7F804C04046614604F0CBFFBB6866
:10498000184605F0BFF84046494604F0C3FFFDF75E
:1049900091FB584607F5DA71324601F0EEFD5846B4
:1049A000012101F0F8FD8046002840D13246204622
:1049B00007F5DA7101F0E1FD4146204601F0F5FD11
:1049C0000146284605F059FB2846704905F0F7FBDB
:1049D00010F1000818BF4FF00108284605F00CFB45
:1049E000B8F1000F23D0D7F8D43003BB6849694829
:1049F000FBF737FE66496848FBF733FED7F8D4204B
:104A000066492846FCF776F92946624805F04AFED1
:104A100063496048FBF725FE29465F4805F042FEE2
:104A20005D485F49FBF71DFE284605F0E5FA0136B3
:104A300000E0002607F5DA70FBF749FE8642FFF634
:104A40005BAA3A6B574ED1B23068002202F0D0FC1C
:104A5000FB6A3068D9B2002202F0A6FCB96D0529C4
:104A600019D8DFE801F003070A0D101300213068A0
:104A70000A460EE0306801210AE03068022107E0B2
:104A80003068032104E03068042101E0306805212A
:104A9000002202F095FC7B6D052B19D8DFE803F0AE
:104AA00003070A0D1013002130680A460EE0306833
:104AB00001210AE03068022107E03068032104E0A8
:104AC0003068042101E030680521002202F084FCF6
:104AD000022005F017F8344B1868FCF70FFA4FF076
:104AE0000009C7F8A400C7F85090C7F88090C7F82D
:104AF000CC9081E3D7F8D060002E31D1D7F8CC60CC
:104B0000002E3ED103F03AFB3E6E284BF2B253F832
:104B10003230012283F8002104F0D6FFD7F88C1040
:104B20000029064608DB224B4A1E9A4204D8214837
:104B300021497A6C05F0CFFC04F0C6FFBA6C801BEB
:104B40009042F9D3D7F88C60002E0CDB184B721E04
:104B50009A4208D819497A6C194805F0BCFC02E061
:104B6000D7F8CC6076BB204607F5D671D7F8D020B1
:104B700001F003FD2046FBF7AAFD0126C7F8BC00A3
:104B800021E0D7F8D0601EE0D5010100E20101006C
:104B9000E7010100C49AFF1F009BFF1FC0C62D0044
:104BA000BF000100B094FF1FAC94FF1FE803010099
:104BB00054555505AC93FF1F510500007D050000BD
:104BC000E090FF1F0026D7F8D020FE67204607F5AB
:104BD000D67101F0D2FCD7F884603368D7F8BC6096
:104BE000B3FBF6F106FB1131204601F0D4FC8D4BEE
:104BF000D7F8D020186007F5D271204601F0BDFC2F
:104C0000D7F884603368D7F8BC60B3FBF6F106FBD5
:104C10001131204601F0BFFCD7F8CC10824BB142D5
:104C2000186080F21582002940F08C81D7F8D020DE
:104C3000204607F5DE7101F0A0FCD7F8CC10204625
:104C400001F0B3FC014607F5027005F016FA07F50E
:104C50000270764905F0B3FA20B1D7F8AC6001369E
:104C600040F00F81D7F8D460002E01F0988208E15F
:104C70006F497048FBF7F5FC01266F486C49FBF75C
:104C8000F0FC3E65D7F8AC6001360CD16B49694841
:104C9000FBF7E7FC4FF0FF3667486849FBF7E1FC9C
:104CA000C7F8AC6048E10520FCF786F8C7F8AC000F
:104CB0000130EBD062495F48FBF7D3FC60495E48A6
:104CC000FBF7CFFC07F502715A4805F0EBFC07F53E
:104CD0000271594805F0E6FC5A495648FBF7C1FCF9
:104CE00058495548FBF7BDFC57495248FBF7B9FCFA
:104CF00055495148FBF7B5FCD7F8D020204607F5B9
:104D0000DE7101F03AFC0121204601F04EFC014623
:104D10004848FBF7A6FCD7F8D020204607F5DE71FF
:104D200001F02BFC0121204601F03FFC01464248E6
:104D3000FBF797FC43493F48FBF793FC41493E484A
:104D4000FBF78FFC07F50270404905F038FA30B1E7
:104D50003F493848FBF785FC37483D4910E007F5E7
:104D600002703C4905F02BFA68B13B48FCF724F887
:104D70000130FAD139492F48FBF773FC2E483749E7
:104D8000FBF76FFC3DE007F50270354905F017FAB7
:104D9000064680B13048FCF70FF8012808D13149A8
:104DA0002448FBF75EFC2F492348FBF75AFCC3E07D
:104DB0000130EFD1DEE707F502702B4905F0FFF96E
:104DC000F8B1324628462449FBF794FF1E4919489A
:104DD000FBF747FC1C491848FBF743FC29461648DB
:104DE00005F060FC2946134805F05CFC1F4911489A
:104DF000FBF737FC10481D49FBF733FC284605F04C
:104E0000FBF807F5BE70FBF762FCD7F8D0600138FD
:104E1000864208482ED01649FBF723FC0648144961
:104E20002DE000BFCC95FF1F1494FF1F5BFA00001C
:104E3000F0010100C49AFF1F009BFF1FFC0101004D
:104E400001020100BF00010003FC000053FC000050
:104E50000402010008020100C0C62D000E0201007C
:104E6000140201001C0201002802010005020100D9
:104E7000C00001006D49FBF7F4FB6D486B49FBF77F
:104E8000F0FBD7F8D01007F5C27001F084FBD7F81B
:104E9000D020D7F8A430D7F8A810F861FDF706F8AD
:104EA000D7F8D010804607F5C67001F074FBD7F82C
:104EB000D020D7F8A430D7F8A810B861FCF7F6FFD7
:104EC000D7F8D010B86707F5CA7001F064FBD7F8BF
:104ED000D020D7F8A430D7F8A8107861FCF7E6FF07
:104EE000D7F8D010786707F5CE7001F054FBD7F8EB
:104EF000A810D7F8D020D7F8A4307860FCF7D6FFF8
:104F0000064607F5027005F077F807F194010EC91F
:104F10007963D7F8A010BA63FB633964D7F804C08B
:104F20007A69BB69F969C7F894C0C7F89820C7F8CF
:104F30009C30C7F8A01009E007F5027005F05CF896
:104F400000F090BF00267E67BE67B046DFF8FCC069
:104F5000D7F8A430DCF80000D7F8A810D7F8D02094
:104F6000C7F804C0FCF7A2FFD7F804C0DCF8003093
:104F7000023B122B3BD8DFE803F0283A3A3A3A3AA0
:104F80003A3A2E161C3A340A103A3A3A2200294B81
:104F900029481A88032101F0E3FD264B26481A8888
:104FA000032101F0DDFD234B23481A88032101F082
:104FB000D7FD204B20481A88032101F0D1FD1F4B5B
:104FC0001D481A88002101F0CBFD1C4B1A481A8895
:104FD000002101F0C5FD1A4B17481A88022101F083
:104FE000BFFD174B14481A88022101F0B9FD154A7C
:104FF000042313602022013AFDD1134A1360D7F82D
:10500000CC304BBB19460D4B0B481A8801F0A8FD5C
:10501000084B09481A88032101F0A2FD084B0648F5
:105020001A88022101F09CFD16E000BF2502010054
:10503000009BFF1FEC93FF1FA892FF1F1894FF1FF8
:105040000094FF1F88F00F4084F00F40CC95FF1FA5
:1050500000267E67BE67B046984B99491A68086873
:105060000028FBD0D2F1010238BF0022002AF5D17E
:10507000944B1868944B197802F0C6F9934BF96F6A
:105080001860934B102201291A6050D1396C914B52
:10509000CAB2F96F53F83220B8F1010F82F800114B
:1050A00006D1D7F8A010CAB253F8322082F8808017
:1050B000F96BCAB253F83230012283F80021BA6F7B
:1050C000012A08D1D7F89C30B96FDAB2814B53F876
:1050D000323083F88010B96B7E4BCAB2012153F88D
:1050E000322082F800117A6F8A4207D1D7F89810DF
:1050F000CAB2796F53F8322082F88010796BCAB245
:1051000053F832300122964283F8002107D1D7F8B4
:105110009430DAB26F4B53F8323083F880606E4AC5
:10512000042313602022013AFDD16C4A13603E6AC9
:105130005EB9654B1B68222B02D0232B05D101E001
:10514000674B00E0674B1E6800E00026664B1B685B
:105150000BB35E4BD7F88020D7F8B4101B6851F81A
:105160002200BB6006F0B4FCBB688046184606F01F
:10517000AFFC314606F0F6FB0146404606F0F4FB74
:1051800006F0C0FED7F88010D7F8B46046F82100CA
:105190000131C7F8801072B6484BD7F8CC200026F2
:1051A0001E60474B01321E60C7F8CC2062B6D7F8AC
:1051B00084100B6801330B6007F5BE70D7F8D01070
:1051C00001F0E9F9D7F8D020804607F5D6712046DE
:1051D00001F0D3F92046FBF77AFAD7F8CC2000FB90
:1051E00008F0824206D1D7F8D030C7F8CC6001333E
:1051F000C7F8D03009F10109FE6EB145FFF67AAC6F
:10520000796A3A4E00913068D7F8D020D7F8A430A8
:10521000D7F8A810FCF7E2FE3368D7F8A0602D4A53
:105220009E4205D0F1B2012652F8311081F800619A
:10523000D7F89C609E4205D0F1B252F8312001218E
:1052400082F80011D7F89860224A9E4205D0F1B248
:10525000012652F8311081F80061D7F894609E421F
:1052600005D0F1B252F83120012182F80011012855
:10527000184A0DD1184E042131602026013EFDD17F
:10528000DBB2164E52F83330316083F8800005E00F
:10529000DBB252F83330012283F80021144805F0C4
:1052A00011F9144805F00EF9044BD7F884100026C4
:1052B0001E60034B1E600E6000F0B7BDF490FF1F30
:1052C000A094FF1FB094FF1F1494FF1F5895FF1F59
:1052D000C4F00F40E803010088F00F4084F00F4055
:1052E000A494FF1FA894FF1FCC95FF1F6489FF1F84
:1052F000AC93FF1FE090FF1F584607F5DA71324666
:1053000001F03BF90121584601F045F9012880469A
:1053100059D13246204607F5DA7101F02EF9002105
:10532000204601F042F90146284604F0A6FE284630
:10533000BE4904F044FF10F1000918BF4FF0010905
:10534000284604F059FEB9F1000F3CD03246204601
:1053500007F5DA7101F011F94146204601F01BF919
:10536000FBF702FCB24BD7F8D4201B68013B9A42F2
:1053700029D1B049DFF8E492AF48FBF772F9AD49A3
:10538000AE48FBF76EF9D9F8000005F061FF4FF069
:10539000020802460B46CDF80080A748FBF767F9E4
:1053A000A749A548FBF75DF9D9F8000005F050FFC3
:1053B000CDF8008002460B46A048FBF758F99F48FD
:1053C0009F49FBF74EF9584607F5DA71324601F06E
:1053D000D4F80121584601F0DEF80128804659D161
:1053E0003246204607F5DA7101F0C7F80021204661
:1053F00001F0DBF80146284604F03FFE28469149BB
:1054000004F0DDFE10F1000918BF4FF00109284635
:1054100004F0F2FDB9F1000F3CD03246204607F50A
:10542000DA7101F0AAF84146204601F0B4F8FBF722
:10543000A0FB7F4BD7F8D4101B68013B994229D1C0
:105440008149DFF81C927C48FBF70BF97E497B48C9
:10545000FBF707F9D9F8000005F0FAFE4FF0020853
:1054600002460B46CDF800807348FBF700F97449FB
:105470007148FBF7F6F8D9F8000005F0E9FECDF821
:10548000008002460B466D48FBF7F1F86B486C490B
:10549000FBF7E7F8584607F5DA71324601F06DF888
:1054A0000121584601F077F80128804659D132464B
:1054B000204607F5DA7101F060F80021204601F07E
:1054C00074F80146284604F0D8FD28465F4904F0E8
:1054D00076FE10F1000918BF4FF00109284604F0CC
:1054E0008BFDB9F1000F3CD03246204607F5DA714A
:1054F00001F043F84146204601F04DF8FCF74CF925
:105500004B4BD7F8D4201B68013B9A4229D1504914
:10551000DFF850914848FBF7A4F84D494748FBF79E
:10552000A0F8D9F8000005F093FE4FF002080246FB
:105530000B46CDF800804048FBF799F840493E48BB
:10554000FBF78FF8D9F8000005F082FECDF8008057
:1055500002460B463948FBF78AF838483849FBF7CA
:1055600080F8584607F5DA71324601F006F8012155
:10557000584601F010F8012880467BD1324620467B
:1055800007F5DA7100F0F9FF0021204601F00DF86F
:105590000146284604F071FD28462E4904F00FFE0E
:1055A00010F1000918BF4FF00109284604F024FD4E
:1055B000B9F1000F5ED03246204607F5DA7100F0EF
:1055C000DCFF4146204600F0E6FFFBF77FFF184B6B
:1055D000D7F8D4101B68013B99424BD11E49DFF824
:1055E00088901548FBF73DF81B491448FBF739F83C
:1055F000D9F8000005F02CFE4FF0020802460B46D9
:10560000CDF800800C48FBF732F80D490A48FBF74B
:1056100028F8D9F8000005F01BFECDF800800246FE
:105620000B460648FBF723F820E000BFCE00010040
:105630007889FF1FE0000100C49AFF1F009BFF1F35
:10564000C000010010010100F5000100040101008B
:105650001C010100370101003B0101003C92FF1FCA
:10566000D095FF1F1C94FF1FC093FF1FC148C24964
:10567000FAF7F7FF584607F5DA71324600F07DFF7A
:105680000121584600F087FF0128804640F0E48061
:105690003246204607F5DA7100F06FFF0021204600
:1056A00000F083FF0146284604F0E7FC2846B34992
:1056B00004F085FD10F1000918BF4FF001092846DC
:1056C00004F09AFCB9F1000F00F0C6803246204683
:1056D00007F5DA7100F051FF4146204600F05BFF0C
:1056E000FBF74CFAA64BD7F8D4201B68013B9A4233
:1056F00040F0B280DFF8A892A249A348FAF7B1FFC0
:10570000A0499C48FAF7ADFFD9F80000FBF7F6FB7B
:1057100005F09EFD4FF0020802460B46CDF80080D2
:105720009948FAF7A4FF94499748FAF79AFFD9F8ED
:105730000000DFF87092FBF7E1FB05F089FDCDF882
:10574000008002460B468B48FAF791FF8A49894848
:10575000FAF787FF8D498C48FAF783FF8B49854814
:10576000FAF77FFFD9F80000FBF7C8FB05F070FDE2
:10577000CDF8008002460B468348FAF778FF7E4951
:105780008148FAF76EFFD9F80000DFF81C92FBF7AA
:10579000B5FB05F05DFDCDF8008002460B4675486F
:1057A000FAF765FF74497348FAF75BFF7849764862
:1057B000FAF757FF76496F48FAF753FFD9F8000018
:1057C000FBF79CFB05F044FDCDF8008002460B463C
:1057D0006D48FAF74CFF68496B48FAF742FFD9F871
:1057E0000000DFF8C891FBF789FB05F031FDCDF82B
:1057F000008002460B465F48FAF739FF5E495D4874
:10580000FAF72FFF63496048FAF72BFF61495948BF
:10581000FAF727FFD9F80000FBF770FB05F018FD39
:10582000CDF8008002460B465748FAF720FF524950
:105830005548FAF716FFD9F80000FBF75FFB05F0B3
:1058400007FDCDF8008002460B464A48FAF70FFFE5
:1058500048484949FAF705FF584607F5DA713246D4
:1058600000F08BFE0121584600F095FE012880468D
:1058700040F0F3803246204607F5DA7100F07DFEF5
:105880000021204600F091FE0146284604F0F5FB79
:105890002846414904F093FC10F1000918BF4FF06D
:1058A0000109284604F0A8FBB9F1000F00F0D580EB
:1058B0003246204607F5DA7100F05FFE4146204689
:1058C00000F069FEFBF75AF92D4BD7F8D4101B688E
:1058D000013B994240F0C180DFF8C4902F492A482B
:1058E000FAF7BFFE2D492348FAF7BBFED9F80000AE
:1058F00005F0AEFC4FF0020802460B46CDF80080E2
:105900002148FAF7B4FE1C491F48FAF7AAFED9F855
:105910000000DFF8909005F09BFCCDF80080024677
:105920000B461448FAF7A3FE13491248FAF799FEFA
:1059300016491548FAF795FE14490E48FAF791FEF4
:10594000D9F8000005F084FCCDF8008002460B4633
:105950000D48FAF78CFE08490B48FAF782FED9F891
:105960000000DFF8449005F073FCCDF8008002469B
:105970000B461DE0009BFF1FC000010030FF000030
:105980007889FF1F42010100C49AFF1F55010100E1
:105990005A0101005F01010064010100780101006A
:1059A000AC94FF1FB894FF1F1094FF1F2094FF1F9B
:1059B000AF48FAF75CFEAF49AD48FAF752FEAE4980
:1059C000AE48FAF74EFEAC49A948FAF74AFED9F8B4
:1059D000000005F03DFCCDF8008002460B46A748CC
:1059E000FAF745FEA349A548FAF73BFED9F80000AF
:1059F000DFF8AC9205F02CFCCDF8008002460B4697
:105A00009B48FAF734FE9B499948FAF72AFE9C49CD
:105A10009A48FAF726FE9A499548FAF722FED9F8ED
:105A2000000005F015FCCDF8008002460B469348B7
:105A3000FAF71DFE8F499148FAF713FED9F80000D6
:105A400005F006FCCDF8008002460B468848FAF7C0
:105A50000EFE87488749FAF704FE584607F5DA71C3
:105A6000324600F08AFD0121584600F094FD0128DD
:105A70004FD13246204607F5DA7100F07EFD002155
:105A8000204600F092FD0146284604F0F6FA28462A
:105A90007C4904F094FB10F1000818BF4FF0010896
:105AA000284604F0A9FAB8F1000F32D03246204659
:105AB00007F5DA7100F061FD0221204600F06BFD70
:105AC0005FFA80F84046002103F008FF404604F0EA
:105AD00041F96D4BD7F8D4201B68013B9A428046B0
